{
	"LAB 7-8-2023/mapping1.sol": {
		"mappings": {
			"abi": [
				{
					"inputs": [
						{
							"internalType": "address",
							"name": "",
							"type": "address"
						}
					],
					"name": "Addtoname",
					"outputs": [
						{
							"internalType": "string",
							"name": "",
							"type": "string"
						}
					],
					"stateMutability": "view",
					"type": "function"
				},
				{
					"inputs": [
						{
							"internalType": "address",
							"name": "_addr",
							"type": "address"
						},
						{
							"internalType": "string",
							"name": "_name",
							"type": "string"
						}
					],
					"name": "Addvalue",
					"outputs": [],
					"stateMutability": "nonpayable",
					"type": "function"
				},
				{
					"inputs": [
						{
							"internalType": "address",
							"name": "_adr",
							"type": "address"
						}
					],
					"name": "Reset",
					"outputs": [],
					"stateMutability": "nonpayable",
					"type": "function"
				},
				{
					"inputs": [
						{
							"internalType": "address",
							"name": "_adr",
							"type": "address"
						}
					],
					"name": "get",
					"outputs": [
						{
							"internalType": "string",
							"name": "",
							"type": "string"
						}
					],
					"stateMutability": "view",
					"type": "function"
				}
			],
			"devdoc": {
				"kind": "dev",
				"methods": {},
				"version": 1
			},
			"evm": {
				"assembly": "    /* \"LAB 7-8-2023/mapping1.sol\":61:439  contract  mappings {... */\n  mstore(0x40, 0x80)\n  callvalue\n  dup1\n  iszero\n  tag_1\n  jumpi\n  0x00\n  dup1\n  revert\ntag_1:\n  pop\n  dataSize(sub_0)\n  dup1\n  dataOffset(sub_0)\n  0x00\n  codecopy\n  0x00\n  return\nstop\n\nsub_0: assembly {\n        /* \"LAB 7-8-2023/mapping1.sol\":61:439  contract  mappings {... */\n      mstore(0x40, 0x80)\n      callvalue\n      dup1\n      iszero\n      tag_1\n      jumpi\n      0x00\n      dup1\n      revert\n    tag_1:\n      pop\n      jumpi(tag_2, lt(calldatasize, 0x04))\n      shr(0xe0, calldataload(0x00))\n      dup1\n      0x162f4678\n      eq\n      tag_3\n      jumpi\n      dup1\n      0x3e845f34\n      eq\n      tag_4\n      jumpi\n      dup1\n      0x49ad234e\n      eq\n      tag_5\n      jumpi\n      dup1\n      0xc2bc2efc\n      eq\n      tag_6\n      jumpi\n    tag_2:\n      0x00\n      dup1\n      revert\n        /* \"LAB 7-8-2023/mapping1.sol\":359:430  function  Reset(address _adr) public  {... */\n    tag_3:\n      tag_7\n      0x04\n      dup1\n      calldatasize\n      sub\n      dup2\n      add\n      swap1\n      tag_8\n      swap2\n      swap1\n      tag_9\n      jump\t// in\n    tag_8:\n      tag_10\n      jump\t// in\n    tag_7:\n      stop\n        /* \"LAB 7-8-2023/mapping1.sol\":147:246  function  Addvalue(address _addr , string memory _name) public  {... */\n    tag_4:\n      tag_11\n      0x04\n      dup1\n      calldatasize\n      sub\n      dup2\n      add\n      swap1\n      tag_12\n      swap2\n      swap1\n      tag_13\n      jump\t// in\n    tag_12:\n      tag_14\n      jump\t// in\n    tag_11:\n      stop\n        /* \"LAB 7-8-2023/mapping1.sol\":91:136  mapping (address => string ) public Addtoname */\n    tag_5:\n      tag_15\n      0x04\n      dup1\n      calldatasize\n      sub\n      dup2\n      add\n      swap1\n      tag_16\n      swap2\n      swap1\n      tag_9\n      jump\t// in\n    tag_16:\n      tag_17\n      jump\t// in\n    tag_15:\n      mload(0x40)\n      tag_18\n      swap2\n      swap1\n      tag_19\n      jump\t// in\n    tag_18:\n      mload(0x40)\n      dup1\n      swap2\n      sub\n      swap1\n      return\n        /* \"LAB 7-8-2023/mapping1.sol\":252:353  function  get(address _adr) public view returns (string memory) {... */\n    tag_6:\n      tag_20\n      0x04\n      dup1\n      calldatasize\n      sub\n      dup2\n      add\n      swap1\n      tag_21\n      swap2\n      swap1\n      tag_9\n      jump\t// in\n    tag_21:\n      tag_22\n      jump\t// in\n    tag_20:\n      mload(0x40)\n      tag_23\n      swap2\n      swap1\n      tag_19\n      jump\t// in\n    tag_23:\n      mload(0x40)\n      dup1\n      swap2\n      sub\n      swap1\n      return\n        /* \"LAB 7-8-2023/mapping1.sol\":359:430  function  Reset(address _adr) public  {... */\n    tag_10:\n        /* \"LAB 7-8-2023/mapping1.sol\":411:420  Addtoname */\n      0x00\n        /* \"LAB 7-8-2023/mapping1.sol\":411:426  Addtoname[_adr] */\n      dup1\n        /* \"LAB 7-8-2023/mapping1.sol\":421:425  _adr */\n      dup3\n        /* \"LAB 7-8-2023/mapping1.sol\":411:426  Addtoname[_adr] */\n      0xffffffffffffffffffffffffffffffffffffffff\n      and\n      0xffffffffffffffffffffffffffffffffffffffff\n      and\n      dup2\n      mstore\n      0x20\n      add\n      swap1\n      dup2\n      mstore\n      0x20\n      add\n      0x00\n      keccak256\n      0x00\n        /* \"LAB 7-8-2023/mapping1.sol\":404:426  delete Addtoname[_adr] */\n      tag_25\n      swap2\n      swap1\n      tag_26\n      jump\t// in\n    tag_25:\n        /* \"LAB 7-8-2023/mapping1.sol\":359:430  function  Reset(address _adr) public  {... */\n      pop\n      jump\t// out\n        /* \"LAB 7-8-2023/mapping1.sol\":147:246  function  Addvalue(address _addr , string memory _name) public  {... */\n    tag_14:\n        /* \"LAB 7-8-2023/mapping1.sol\":235:240  _name */\n      dup1\n        /* \"LAB 7-8-2023/mapping1.sol\":216:225  Addtoname */\n      0x00\n        /* \"LAB 7-8-2023/mapping1.sol\":216:232  Addtoname[_addr] */\n      dup1\n        /* \"LAB 7-8-2023/mapping1.sol\":226:231  _addr */\n      dup5\n        /* \"LAB 7-8-2023/mapping1.sol\":216:232  Addtoname[_addr] */\n      0xffffffffffffffffffffffffffffffffffffffff\n      and\n      0xffffffffffffffffffffffffffffffffffffffff\n      and\n      dup2\n      mstore\n      0x20\n      add\n      swap1\n      dup2\n      mstore\n      0x20\n      add\n      0x00\n      keccak256\n        /* \"LAB 7-8-2023/mapping1.sol\":216:240  Addtoname[_addr] = _name */\n      swap1\n      dup2\n      tag_28\n      swap2\n      swap1\n      tag_29\n      jump\t// in\n    tag_28:\n      pop\n        /* \"LAB 7-8-2023/mapping1.sol\":147:246  function  Addvalue(address _addr , string memory _name) public  {... */\n      pop\n      pop\n      jump\t// out\n        /* \"LAB 7-8-2023/mapping1.sol\":91:136  mapping (address => string ) public Addtoname */\n    tag_17:\n      mstore(0x20, 0x00)\n      dup1\n      0x00\n      mstore\n      keccak256(0x00, 0x40)\n      0x00\n      swap2\n      pop\n      swap1\n      pop\n      dup1\n      sload\n      tag_30\n      swap1\n      tag_31\n      jump\t// in\n    tag_30:\n      dup1\n      0x1f\n      add\n      0x20\n      dup1\n      swap2\n      div\n      mul\n      0x20\n      add\n      mload(0x40)\n      swap1\n      dup2\n      add\n      0x40\n      mstore\n      dup1\n      swap3\n      swap2\n      swap1\n      dup2\n      dup2\n      mstore\n      0x20\n      add\n      dup3\n      dup1\n      sload\n      tag_32\n      swap1\n      tag_31\n      jump\t// in\n    tag_32:\n      dup1\n      iszero\n      tag_33\n      jumpi\n      dup1\n      0x1f\n      lt\n      tag_34\n      jumpi\n      0x0100\n      dup1\n      dup4\n      sload\n      div\n      mul\n      dup4\n      mstore\n      swap2\n      0x20\n      add\n      swap2\n      jump(tag_33)\n    tag_34:\n      dup3\n      add\n      swap2\n      swap1\n      0x00\n      mstore\n      keccak256(0x00, 0x20)\n      swap1\n    tag_35:\n      dup2\n      sload\n      dup2\n      mstore\n      swap1\n      0x01\n      add\n      swap1\n      0x20\n      add\n      dup1\n      dup4\n      gt\n      tag_35\n      jumpi\n      dup3\n      swap1\n      sub\n      0x1f\n      and\n      dup3\n      add\n      swap2\n    tag_33:\n      pop\n      pop\n      pop\n      pop\n      pop\n      dup2\n      jump\t// out\n        /* \"LAB 7-8-2023/mapping1.sol\":252:353  function  get(address _adr) public view returns (string memory) {... */\n    tag_22:\n        /* \"LAB 7-8-2023/mapping1.sol\":301:314  string memory */\n      0x60\n        /* \"LAB 7-8-2023/mapping1.sol\":330:339  Addtoname */\n      0x00\n        /* \"LAB 7-8-2023/mapping1.sol\":330:345  Addtoname[_adr] */\n      dup1\n        /* \"LAB 7-8-2023/mapping1.sol\":340:344  _adr */\n      dup4\n        /* \"LAB 7-8-2023/mapping1.sol\":330:345  Addtoname[_adr] */\n      0xffffffffffffffffffffffffffffffffffffffff\n      and\n      0xffffffffffffffffffffffffffffffffffffffff\n      and\n      dup2\n      mstore\n      0x20\n      add\n      swap1\n      dup2\n      mstore\n      0x20\n      add\n      0x00\n      keccak256\n        /* \"LAB 7-8-2023/mapping1.sol\":323:345  return Addtoname[_adr] */\n      dup1\n      sload\n      tag_37\n      swap1\n      tag_31\n      jump\t// in\n    tag_37:\n      dup1\n      0x1f\n      add\n      0x20\n      dup1\n      swap2\n      div\n      mul\n      0x20\n      add\n      mload(0x40)\n      swap1\n      dup2\n      add\n      0x40\n      mstore\n      dup1\n      swap3\n      swap2\n      swap1\n      dup2\n      dup2\n      mstore\n      0x20\n      add\n      dup3\n      dup1\n      sload\n      tag_38\n      swap1\n      tag_31\n      jump\t// in\n    tag_38:\n      dup1\n      iszero\n      tag_39\n      jumpi\n      dup1\n      0x1f\n      lt\n      tag_40\n      jumpi\n      0x0100\n      dup1\n      dup4\n      sload\n      div\n      mul\n      dup4\n      mstore\n      swap2\n      0x20\n      add\n      swap2\n      jump(tag_39)\n    tag_40:\n      dup3\n      add\n      swap2\n      swap1\n      0x00\n      mstore\n      keccak256(0x00, 0x20)\n      swap1\n    tag_41:\n      dup2\n      sload\n      dup2\n      mstore\n      swap1\n      0x01\n      add\n      swap1\n      0x20\n      add\n      dup1\n      dup4\n      gt\n      tag_41\n      jumpi\n      dup3\n      swap1\n      sub\n      0x1f\n      and\n      dup3\n      add\n      swap2\n    tag_39:\n      pop\n      pop\n      pop\n      pop\n      pop\n      swap1\n      pop\n        /* \"LAB 7-8-2023/mapping1.sol\":252:353  function  get(address _adr) public view returns (string memory) {... */\n      swap2\n      swap1\n      pop\n      jump\t// out\n    tag_26:\n      pop\n      dup1\n      sload\n      tag_42\n      swap1\n      tag_31\n      jump\t// in\n    tag_42:\n      0x00\n      dup3\n      sstore\n      dup1\n      0x1f\n      lt\n      tag_44\n      jumpi\n      pop\n      jump(tag_43)\n    tag_44:\n      0x1f\n      add\n      0x20\n      swap1\n      div\n      swap1\n      0x00\n      mstore\n      keccak256(0x00, 0x20)\n      swap1\n      dup2\n      add\n      swap1\n      tag_45\n      swap2\n      swap1\n      tag_46\n      jump\t// in\n    tag_45:\n    tag_43:\n      pop\n      jump\t// out\n    tag_46:\n    tag_47:\n      dup1\n      dup3\n      gt\n      iszero\n      tag_48\n      jumpi\n      0x00\n      dup2\n      0x00\n      swap1\n      sstore\n      pop\n      0x01\n      add\n      jump(tag_47)\n    tag_48:\n      pop\n      swap1\n      jump\t// out\n        /* \"#utility.yul\":7:82   */\n    tag_49:\n        /* \"#utility.yul\":40:46   */\n      0x00\n        /* \"#utility.yul\":73:75   */\n      0x40\n        /* \"#utility.yul\":67:76   */\n      mload\n        /* \"#utility.yul\":57:76   */\n      swap1\n      pop\n        /* \"#utility.yul\":7:82   */\n      swap1\n      jump\t// out\n        /* \"#utility.yul\":88:205   */\n    tag_50:\n        /* \"#utility.yul\":197:198   */\n      0x00\n        /* \"#utility.yul\":194:195   */\n      dup1\n        /* \"#utility.yul\":187:199   */\n      revert\n        /* \"#utility.yul\":211:328   */\n    tag_51:\n        /* \"#utility.yul\":320:321   */\n      0x00\n        /* \"#utility.yul\":317:318   */\n      dup1\n        /* \"#utility.yul\":310:322   */\n      revert\n        /* \"#utility.yul\":334:460   */\n    tag_52:\n        /* \"#utility.yul\":371:378   */\n      0x00\n        /* \"#utility.yul\":411:453   */\n      0xffffffffffffffffffffffffffffffffffffffff\n        /* \"#utility.yul\":404:409   */\n      dup3\n        /* \"#utility.yul\":400:454   */\n      and\n        /* \"#utility.yul\":389:454   */\n      swap1\n      pop\n        /* \"#utility.yul\":334:460   */\n      swap2\n      swap1\n      pop\n      jump\t// out\n        /* \"#utility.yul\":466:562   */\n    tag_53:\n        /* \"#utility.yul\":503:510   */\n      0x00\n        /* \"#utility.yul\":532:556   */\n      tag_93\n        /* \"#utility.yul\":550:555   */\n      dup3\n        /* \"#utility.yul\":532:556   */\n      tag_52\n      jump\t// in\n    tag_93:\n        /* \"#utility.yul\":521:556   */\n      swap1\n      pop\n        /* \"#utility.yul\":466:562   */\n      swap2\n      swap1\n      pop\n      jump\t// out\n        /* \"#utility.yul\":568:690   */\n    tag_54:\n        /* \"#utility.yul\":641:665   */\n      tag_95\n        /* \"#utility.yul\":659:664   */\n      dup2\n        /* \"#utility.yul\":641:665   */\n      tag_53\n      jump\t// in\n    tag_95:\n        /* \"#utility.yul\":634:639   */\n      dup2\n        /* \"#utility.yul\":631:666   */\n      eq\n        /* \"#utility.yul\":621:684   */\n      tag_96\n      jumpi\n        /* \"#utility.yul\":680:681   */\n      0x00\n        /* \"#utility.yul\":677:678   */\n      dup1\n        /* \"#utility.yul\":670:682   */\n      revert\n        /* \"#utility.yul\":621:684   */\n    tag_96:\n        /* \"#utility.yul\":568:690   */\n      pop\n      jump\t// out\n        /* \"#utility.yul\":696:835   */\n    tag_55:\n        /* \"#utility.yul\":742:747   */\n      0x00\n        /* \"#utility.yul\":780:786   */\n      dup2\n        /* \"#utility.yul\":767:787   */\n      calldataload\n        /* \"#utility.yul\":758:787   */\n      swap1\n      pop\n        /* \"#utility.yul\":796:829   */\n      tag_98\n        /* \"#utility.yul\":823:828   */\n      dup2\n        /* \"#utility.yul\":796:829   */\n      tag_54\n      jump\t// in\n    tag_98:\n        /* \"#utility.yul\":696:835   */\n      swap3\n      swap2\n      pop\n      pop\n      jump\t// out\n        /* \"#utility.yul\":841:1170   */\n    tag_9:\n        /* \"#utility.yul\":900:906   */\n      0x00\n        /* \"#utility.yul\":949:951   */\n      0x20\n        /* \"#utility.yul\":937:946   */\n      dup3\n        /* \"#utility.yul\":928:935   */\n      dup5\n        /* \"#utility.yul\":924:947   */\n      sub\n        /* \"#utility.yul\":920:952   */\n      slt\n        /* \"#utility.yul\":917:1036   */\n      iszero\n      tag_100\n      jumpi\n        /* \"#utility.yul\":955:1034   */\n      tag_101\n      tag_50\n      jump\t// in\n    tag_101:\n        /* \"#utility.yul\":917:1036   */\n    tag_100:\n        /* \"#utility.yul\":1075:1076   */\n      0x00\n        /* \"#utility.yul\":1100:1153   */\n      tag_102\n        /* \"#utility.yul\":1145:1152   */\n      dup5\n        /* \"#utility.yul\":1136:1142   */\n      dup3\n        /* \"#utility.yul\":1125:1134   */\n      dup6\n        /* \"#utility.yul\":1121:1143   */\n      add\n        /* \"#utility.yul\":1100:1153   */\n      tag_55\n      jump\t// in\n    tag_102:\n        /* \"#utility.yul\":1090:1153   */\n      swap2\n      pop\n        /* \"#utility.yul\":1046:1163   */\n      pop\n        /* \"#utility.yul\":841:1170   */\n      swap3\n      swap2\n      pop\n      pop\n      jump\t// out\n        /* \"#utility.yul\":1176:1293   */\n    tag_56:\n        /* \"#utility.yul\":1285:1286   */\n      0x00\n        /* \"#utility.yul\":1282:1283   */\n      dup1\n        /* \"#utility.yul\":1275:1287   */\n      revert\n        /* \"#utility.yul\":1299:1416   */\n    tag_57:\n        /* \"#utility.yul\":1408:1409   */\n      0x00\n        /* \"#utility.yul\":1405:1406   */\n      dup1\n        /* \"#utility.yul\":1398:1410   */\n      revert\n        /* \"#utility.yul\":1422:1524   */\n    tag_58:\n        /* \"#utility.yul\":1463:1469   */\n      0x00\n        /* \"#utility.yul\":1514:1516   */\n      0x1f\n        /* \"#utility.yul\":1510:1517   */\n      not\n        /* \"#utility.yul\":1505:1507   */\n      0x1f\n        /* \"#utility.yul\":1498:1503   */\n      dup4\n        /* \"#utility.yul\":1494:1508   */\n      add\n        /* \"#utility.yul\":1490:1518   */\n      and\n        /* \"#utility.yul\":1480:1518   */\n      swap1\n      pop\n        /* \"#utility.yul\":1422:1524   */\n      swap2\n      swap1\n      pop\n      jump\t// out\n        /* \"#utility.yul\":1530:1710   */\n    tag_59:\n        /* \"#utility.yul\":1578:1655   */\n      0x4e487b7100000000000000000000000000000000000000000000000000000000\n        /* \"#utility.yul\":1575:1576   */\n      0x00\n        /* \"#utility.yul\":1568:1656   */\n      mstore\n        /* \"#utility.yul\":1675:1679   */\n      0x41\n        /* \"#utility.yul\":1672:1673   */\n      0x04\n        /* \"#utility.yul\":1665:1680   */\n      mstore\n        /* \"#utility.yul\":1699:1703   */\n      0x24\n        /* \"#utility.yul\":1696:1697   */\n      0x00\n        /* \"#utility.yul\":1689:1704   */\n      revert\n        /* \"#utility.yul\":1716:1997   */\n    tag_60:\n        /* \"#utility.yul\":1799:1826   */\n      tag_108\n        /* \"#utility.yul\":1821:1825   */\n      dup3\n        /* \"#utility.yul\":1799:1826   */\n      tag_58\n      jump\t// in\n    tag_108:\n        /* \"#utility.yul\":1791:1797   */\n      dup2\n        /* \"#utility.yul\":1787:1827   */\n      add\n        /* \"#utility.yul\":1929:1935   */\n      dup2\n        /* \"#utility.yul\":1917:1927   */\n      dup2\n        /* \"#utility.yul\":1914:1936   */\n      lt\n        /* \"#utility.yul\":1893:1911   */\n      0xffffffffffffffff\n        /* \"#utility.yul\":1881:1891   */\n      dup3\n        /* \"#utility.yul\":1878:1912   */\n      gt\n        /* \"#utility.yul\":1875:1937   */\n      or\n        /* \"#utility.yul\":1872:1960   */\n      iszero\n      tag_109\n      jumpi\n        /* \"#utility.yul\":1940:1958   */\n      tag_110\n      tag_59\n      jump\t// in\n    tag_110:\n        /* \"#utility.yul\":1872:1960   */\n    tag_109:\n        /* \"#utility.yul\":1980:1990   */\n      dup1\n        /* \"#utility.yul\":1976:1978   */\n      0x40\n        /* \"#utility.yul\":1969:1991   */\n      mstore\n        /* \"#utility.yul\":1759:1997   */\n      pop\n        /* \"#utility.yul\":1716:1997   */\n      pop\n      pop\n      jump\t// out\n        /* \"#utility.yul\":2003:2132   */\n    tag_61:\n        /* \"#utility.yul\":2037:2043   */\n      0x00\n        /* \"#utility.yul\":2064:2084   */\n      tag_112\n      tag_49\n      jump\t// in\n    tag_112:\n        /* \"#utility.yul\":2054:2084   */\n      swap1\n      pop\n        /* \"#utility.yul\":2093:2126   */\n      tag_113\n        /* \"#utility.yul\":2121:2125   */\n      dup3\n        /* \"#utility.yul\":2113:2119   */\n      dup3\n        /* \"#utility.yul\":2093:2126   */\n      tag_60\n      jump\t// in\n    tag_113:\n        /* \"#utility.yul\":2003:2132   */\n      swap2\n      swap1\n      pop\n      jump\t// out\n        /* \"#utility.yul\":2138:2446   */\n    tag_62:\n        /* \"#utility.yul\":2200:2204   */\n      0x00\n        /* \"#utility.yul\":2290:2308   */\n      0xffffffffffffffff\n        /* \"#utility.yul\":2282:2288   */\n      dup3\n        /* \"#utility.yul\":2279:2309   */\n      gt\n        /* \"#utility.yul\":2276:2332   */\n      iszero\n      tag_115\n      jumpi\n        /* \"#utility.yul\":2312:2330   */\n      tag_116\n      tag_59\n      jump\t// in\n    tag_116:\n        /* \"#utility.yul\":2276:2332   */\n    tag_115:\n        /* \"#utility.yul\":2350:2379   */\n      tag_117\n        /* \"#utility.yul\":2372:2378   */\n      dup3\n        /* \"#utility.yul\":2350:2379   */\n      tag_58\n      jump\t// in\n    tag_117:\n        /* \"#utility.yul\":2342:2379   */\n      swap1\n      pop\n        /* \"#utility.yul\":2434:2438   */\n      0x20\n        /* \"#utility.yul\":2428:2432   */\n      dup2\n        /* \"#utility.yul\":2424:2439   */\n      add\n        /* \"#utility.yul\":2416:2439   */\n      swap1\n      pop\n        /* \"#utility.yul\":2138:2446   */\n      swap2\n      swap1\n      pop\n      jump\t// out\n        /* \"#utility.yul\":2452:2598   */\n    tag_63:\n        /* \"#utility.yul\":2549:2555   */\n      dup3\n        /* \"#utility.yul\":2544:2547   */\n      dup2\n        /* \"#utility.yul\":2539:2542   */\n      dup4\n        /* \"#utility.yul\":2526:2556   */\n      calldatacopy\n        /* \"#utility.yul\":2590:2591   */\n      0x00\n        /* \"#utility.yul\":2581:2587   */\n      dup4\n        /* \"#utility.yul\":2576:2579   */\n      dup4\n        /* \"#utility.yul\":2572:2588   */\n      add\n        /* \"#utility.yul\":2565:2592   */\n      mstore\n        /* \"#utility.yul\":2452:2598   */\n      pop\n      pop\n      pop\n      jump\t// out\n        /* \"#utility.yul\":2604:3029   */\n    tag_64:\n        /* \"#utility.yul\":2682:2687   */\n      0x00\n        /* \"#utility.yul\":2707:2773   */\n      tag_120\n        /* \"#utility.yul\":2723:2772   */\n      tag_121\n        /* \"#utility.yul\":2765:2771   */\n      dup5\n        /* \"#utility.yul\":2723:2772   */\n      tag_62\n      jump\t// in\n    tag_121:\n        /* \"#utility.yul\":2707:2773   */\n      tag_61\n      jump\t// in\n    tag_120:\n        /* \"#utility.yul\":2698:2773   */\n      swap1\n      pop\n        /* \"#utility.yul\":2796:2802   */\n      dup3\n        /* \"#utility.yul\":2789:2794   */\n      dup2\n        /* \"#utility.yul\":2782:2803   */\n      mstore\n        /* \"#utility.yul\":2834:2838   */\n      0x20\n        /* \"#utility.yul\":2827:2832   */\n      dup2\n        /* \"#utility.yul\":2823:2839   */\n      add\n        /* \"#utility.yul\":2872:2875   */\n      dup5\n        /* \"#utility.yul\":2863:2869   */\n      dup5\n        /* \"#utility.yul\":2858:2861   */\n      dup5\n        /* \"#utility.yul\":2854:2870   */\n      add\n        /* \"#utility.yul\":2851:2876   */\n      gt\n        /* \"#utility.yul\":2848:2960   */\n      iszero\n      tag_122\n      jumpi\n        /* \"#utility.yul\":2879:2958   */\n      tag_123\n      tag_57\n      jump\t// in\n    tag_123:\n        /* \"#utility.yul\":2848:2960   */\n    tag_122:\n        /* \"#utility.yul\":2969:3023   */\n      tag_124\n        /* \"#utility.yul\":3016:3022   */\n      dup5\n        /* \"#utility.yul\":3011:3014   */\n      dup3\n        /* \"#utility.yul\":3006:3009   */\n      dup6\n        /* \"#utility.yul\":2969:3023   */\n      tag_63\n      jump\t// in\n    tag_124:\n        /* \"#utility.yul\":2688:3029   */\n      pop\n        /* \"#utility.yul\":2604:3029   */\n      swap4\n      swap3\n      pop\n      pop\n      pop\n      jump\t// out\n        /* \"#utility.yul\":3049:3389   */\n    tag_65:\n        /* \"#utility.yul\":3105:3110   */\n      0x00\n        /* \"#utility.yul\":3154:3157   */\n      dup3\n        /* \"#utility.yul\":3147:3151   */\n      0x1f\n        /* \"#utility.yul\":3139:3145   */\n      dup4\n        /* \"#utility.yul\":3135:3152   */\n      add\n        /* \"#utility.yul\":3131:3158   */\n      slt\n        /* \"#utility.yul\":3121:3243   */\n      tag_126\n      jumpi\n        /* \"#utility.yul\":3162:3241   */\n      tag_127\n      tag_56\n      jump\t// in\n    tag_127:\n        /* \"#utility.yul\":3121:3243   */\n    tag_126:\n        /* \"#utility.yul\":3279:3285   */\n      dup2\n        /* \"#utility.yul\":3266:3286   */\n      calldataload\n        /* \"#utility.yul\":3304:3383   */\n      tag_128\n        /* \"#utility.yul\":3379:3382   */\n      dup5\n        /* \"#utility.yul\":3371:3377   */\n      dup3\n        /* \"#utility.yul\":3364:3368   */\n      0x20\n        /* \"#utility.yul\":3356:3362   */\n      dup7\n        /* \"#utility.yul\":3352:3369   */\n      add\n        /* \"#utility.yul\":3304:3383   */\n      tag_64\n      jump\t// in\n    tag_128:\n        /* \"#utility.yul\":3295:3383   */\n      swap2\n      pop\n        /* \"#utility.yul\":3111:3389   */\n      pop\n        /* \"#utility.yul\":3049:3389   */\n      swap3\n      swap2\n      pop\n      pop\n      jump\t// out\n        /* \"#utility.yul\":3395:4049   */\n    tag_13:\n        /* \"#utility.yul\":3473:3479   */\n      0x00\n        /* \"#utility.yul\":3481:3487   */\n      dup1\n        /* \"#utility.yul\":3530:3532   */\n      0x40\n        /* \"#utility.yul\":3518:3527   */\n      dup4\n        /* \"#utility.yul\":3509:3516   */\n      dup6\n        /* \"#utility.yul\":3505:3528   */\n      sub\n        /* \"#utility.yul\":3501:3533   */\n      slt\n        /* \"#utility.yul\":3498:3617   */\n      iszero\n      tag_130\n      jumpi\n        /* \"#utility.yul\":3536:3615   */\n      tag_131\n      tag_50\n      jump\t// in\n    tag_131:\n        /* \"#utility.yul\":3498:3617   */\n    tag_130:\n        /* \"#utility.yul\":3656:3657   */\n      0x00\n        /* \"#utility.yul\":3681:3734   */\n      tag_132\n        /* \"#utility.yul\":3726:3733   */\n      dup6\n        /* \"#utility.yul\":3717:3723   */\n      dup3\n        /* \"#utility.yul\":3706:3715   */\n      dup7\n        /* \"#utility.yul\":3702:3724   */\n      add\n        /* \"#utility.yul\":3681:3734   */\n      tag_55\n      jump\t// in\n    tag_132:\n        /* \"#utility.yul\":3671:3734   */\n      swap3\n      pop\n        /* \"#utility.yul\":3627:3744   */\n      pop\n        /* \"#utility.yul\":3811:3813   */\n      0x20\n        /* \"#utility.yul\":3800:3809   */\n      dup4\n        /* \"#utility.yul\":3796:3814   */\n      add\n        /* \"#utility.yul\":3783:3815   */\n      calldataload\n        /* \"#utility.yul\":3842:3860   */\n      0xffffffffffffffff\n        /* \"#utility.yul\":3834:3840   */\n      dup2\n        /* \"#utility.yul\":3831:3861   */\n      gt\n        /* \"#utility.yul\":3828:3945   */\n      iszero\n      tag_133\n      jumpi\n        /* \"#utility.yul\":3864:3943   */\n      tag_134\n      tag_51\n      jump\t// in\n    tag_134:\n        /* \"#utility.yul\":3828:3945   */\n    tag_133:\n        /* \"#utility.yul\":3969:4032   */\n      tag_135\n        /* \"#utility.yul\":4024:4031   */\n      dup6\n        /* \"#utility.yul\":4015:4021   */\n      dup3\n        /* \"#utility.yul\":4004:4013   */\n      dup7\n        /* \"#utility.yul\":4000:4022   */\n      add\n        /* \"#utility.yul\":3969:4032   */\n      tag_65\n      jump\t// in\n    tag_135:\n        /* \"#utility.yul\":3959:4032   */\n      swap2\n      pop\n        /* \"#utility.yul\":3754:4042   */\n      pop\n        /* \"#utility.yul\":3395:4049   */\n      swap3\n      pop\n      swap3\n      swap1\n      pop\n      jump\t// out\n        /* \"#utility.yul\":4055:4154   */\n    tag_66:\n        /* \"#utility.yul\":4107:4113   */\n      0x00\n        /* \"#utility.yul\":4141:4146   */\n      dup2\n        /* \"#utility.yul\":4135:4147   */\n      mload\n        /* \"#utility.yul\":4125:4147   */\n      swap1\n      pop\n        /* \"#utility.yul\":4055:4154   */\n      swap2\n      swap1\n      pop\n      jump\t// out\n        /* \"#utility.yul\":4160:4329   */\n    tag_67:\n        /* \"#utility.yul\":4244:4255   */\n      0x00\n        /* \"#utility.yul\":4278:4284   */\n      dup3\n        /* \"#utility.yul\":4273:4276   */\n      dup3\n        /* \"#utility.yul\":4266:4285   */\n      mstore\n        /* \"#utility.yul\":4318:4322   */\n      0x20\n        /* \"#utility.yul\":4313:4316   */\n      dup3\n        /* \"#utility.yul\":4309:4323   */\n      add\n        /* \"#utility.yul\":4294:4323   */\n      swap1\n      pop\n        /* \"#utility.yul\":4160:4329   */\n      swap3\n      swap2\n      pop\n      pop\n      jump\t// out\n        /* \"#utility.yul\":4335:4581   */\n    tag_68:\n        /* \"#utility.yul\":4416:4417   */\n      0x00\n        /* \"#utility.yul\":4426:4539   */\n    tag_139:\n        /* \"#utility.yul\":4440:4446   */\n      dup4\n        /* \"#utility.yul\":4437:4438   */\n      dup2\n        /* \"#utility.yul\":4434:4447   */\n      lt\n        /* \"#utility.yul\":4426:4539   */\n      iszero\n      tag_141\n      jumpi\n        /* \"#utility.yul\":4525:4526   */\n      dup1\n        /* \"#utility.yul\":4520:4523   */\n      dup3\n        /* \"#utility.yul\":4516:4527   */\n      add\n        /* \"#utility.yul\":4510:4528   */\n      mload\n        /* \"#utility.yul\":4506:4507   */\n      dup2\n        /* \"#utility.yul\":4501:4504   */\n      dup5\n        /* \"#utility.yul\":4497:4508   */\n      add\n        /* \"#utility.yul\":4490:4529   */\n      mstore\n        /* \"#utility.yul\":4462:4464   */\n      0x20\n        /* \"#utility.yul\":4459:4460   */\n      dup2\n        /* \"#utility.yul\":4455:4465   */\n      add\n        /* \"#utility.yul\":4450:4465   */\n      swap1\n      pop\n        /* \"#utility.yul\":4426:4539   */\n      jump(tag_139)\n    tag_141:\n        /* \"#utility.yul\":4573:4574   */\n      0x00\n        /* \"#utility.yul\":4564:4570   */\n      dup5\n        /* \"#utility.yul\":4559:4562   */\n      dup5\n        /* \"#utility.yul\":4555:4571   */\n      add\n        /* \"#utility.yul\":4548:4575   */\n      mstore\n        /* \"#utility.yul\":4397:4581   */\n      pop\n        /* \"#utility.yul\":4335:4581   */\n      pop\n      pop\n      pop\n      jump\t// out\n        /* \"#utility.yul\":4587:4964   */\n    tag_69:\n        /* \"#utility.yul\":4675:4678   */\n      0x00\n        /* \"#utility.yul\":4703:4742   */\n      tag_143\n        /* \"#utility.yul\":4736:4741   */\n      dup3\n        /* \"#utility.yul\":4703:4742   */\n      tag_66\n      jump\t// in\n    tag_143:\n        /* \"#utility.yul\":4758:4829   */\n      tag_144\n        /* \"#utility.yul\":4822:4828   */\n      dup2\n        /* \"#utility.yul\":4817:4820   */\n      dup6\n        /* \"#utility.yul\":4758:4829   */\n      tag_67\n      jump\t// in\n    tag_144:\n        /* \"#utility.yul\":4751:4829   */\n      swap4\n      pop\n        /* \"#utility.yul\":4838:4903   */\n      tag_145\n        /* \"#utility.yul\":4896:4902   */\n      dup2\n        /* \"#utility.yul\":4891:4894   */\n      dup6\n        /* \"#utility.yul\":4884:4888   */\n      0x20\n        /* \"#utility.yul\":4877:4882   */\n      dup7\n        /* \"#utility.yul\":4873:4889   */\n      add\n        /* \"#utility.yul\":4838:4903   */\n      tag_68\n      jump\t// in\n    tag_145:\n        /* \"#utility.yul\":4928:4957   */\n      tag_146\n        /* \"#utility.yul\":4950:4956   */\n      dup2\n        /* \"#utility.yul\":4928:4957   */\n      tag_58\n      jump\t// in\n    tag_146:\n        /* \"#utility.yul\":4923:4926   */\n      dup5\n        /* \"#utility.yul\":4919:4958   */\n      add\n        /* \"#utility.yul\":4912:4958   */\n      swap2\n      pop\n        /* \"#utility.yul\":4679:4964   */\n      pop\n        /* \"#utility.yul\":4587:4964   */\n      swap3\n      swap2\n      pop\n      pop\n      jump\t// out\n        /* \"#utility.yul\":4970:5283   */\n    tag_19:\n        /* \"#utility.yul\":5083:5087   */\n      0x00\n        /* \"#utility.yul\":5121:5123   */\n      0x20\n        /* \"#utility.yul\":5110:5119   */\n      dup3\n        /* \"#utility.yul\":5106:5124   */\n      add\n        /* \"#utility.yul\":5098:5124   */\n      swap1\n      pop\n        /* \"#utility.yul\":5170:5179   */\n      dup2\n        /* \"#utility.yul\":5164:5168   */\n      dup2\n        /* \"#utility.yul\":5160:5180   */\n      sub\n        /* \"#utility.yul\":5156:5157   */\n      0x00\n        /* \"#utility.yul\":5145:5154   */\n      dup4\n        /* \"#utility.yul\":5141:5158   */\n      add\n        /* \"#utility.yul\":5134:5181   */\n      mstore\n        /* \"#utility.yul\":5198:5276   */\n      tag_148\n        /* \"#utility.yul\":5271:5275   */\n      dup2\n        /* \"#utility.yul\":5262:5268   */\n      dup5\n        /* \"#utility.yul\":5198:5276   */\n      tag_69\n      jump\t// in\n    tag_148:\n        /* \"#utility.yul\":5190:5276   */\n      swap1\n      pop\n        /* \"#utility.yul\":4970:5283   */\n      swap3\n      swap2\n      pop\n      pop\n      jump\t// out\n        /* \"#utility.yul\":5289:5469   */\n    tag_70:\n        /* \"#utility.yul\":5337:5414   */\n      0x4e487b7100000000000000000000000000000000000000000000000000000000\n        /* \"#utility.yul\":5334:5335   */\n      0x00\n        /* \"#utility.yul\":5327:5415   */\n      mstore\n        /* \"#utility.yul\":5434:5438   */\n      0x22\n        /* \"#utility.yul\":5431:5432   */\n      0x04\n        /* \"#utility.yul\":5424:5439   */\n      mstore\n        /* \"#utility.yul\":5458:5462   */\n      0x24\n        /* \"#utility.yul\":5455:5456   */\n      0x00\n        /* \"#utility.yul\":5448:5463   */\n      revert\n        /* \"#utility.yul\":5475:5795   */\n    tag_31:\n        /* \"#utility.yul\":5519:5525   */\n      0x00\n        /* \"#utility.yul\":5556:5557   */\n      0x02\n        /* \"#utility.yul\":5550:5554   */\n      dup3\n        /* \"#utility.yul\":5546:5558   */\n      div\n        /* \"#utility.yul\":5536:5558   */\n      swap1\n      pop\n        /* \"#utility.yul\":5603:5604   */\n      0x01\n        /* \"#utility.yul\":5597:5601   */\n      dup3\n        /* \"#utility.yul\":5593:5605   */\n      and\n        /* \"#utility.yul\":5624:5642   */\n      dup1\n        /* \"#utility.yul\":5614:5695   */\n      tag_151\n      jumpi\n        /* \"#utility.yul\":5680:5684   */\n      0x7f\n        /* \"#utility.yul\":5672:5678   */\n      dup3\n        /* \"#utility.yul\":5668:5685   */\n      and\n        /* \"#utility.yul\":5658:5685   */\n      swap2\n      pop\n        /* \"#utility.yul\":5614:5695   */\n    tag_151:\n        /* \"#utility.yul\":5742:5744   */\n      0x20\n        /* \"#utility.yul\":5734:5740   */\n      dup3\n        /* \"#utility.yul\":5731:5745   */\n      lt\n        /* \"#utility.yul\":5711:5729   */\n      dup2\n        /* \"#utility.yul\":5708:5746   */\n      sub\n        /* \"#utility.yul\":5705:5789   */\n      tag_152\n      jumpi\n        /* \"#utility.yul\":5761:5779   */\n      tag_153\n      tag_70\n      jump\t// in\n    tag_153:\n        /* \"#utility.yul\":5705:5789   */\n    tag_152:\n        /* \"#utility.yul\":5526:5795   */\n      pop\n        /* \"#utility.yul\":5475:5795   */\n      swap2\n      swap1\n      pop\n      jump\t// out\n        /* \"#utility.yul\":5801:5942   */\n    tag_71:\n        /* \"#utility.yul\":5850:5854   */\n      0x00\n        /* \"#utility.yul\":5873:5876   */\n      dup2\n        /* \"#utility.yul\":5865:5876   */\n      swap1\n      pop\n        /* \"#utility.yul\":5896:5899   */\n      dup2\n        /* \"#utility.yul\":5893:5894   */\n      0x00\n        /* \"#utility.yul\":5886:5900   */\n      mstore\n        /* \"#utility.yul\":5930:5934   */\n      0x20\n        /* \"#utility.yul\":5927:5928   */\n      0x00\n        /* \"#utility.yul\":5917:5935   */\n      keccak256\n        /* \"#utility.yul\":5909:5935   */\n      swap1\n      pop\n        /* \"#utility.yul\":5801:5942   */\n      swap2\n      swap1\n      pop\n      jump\t// out\n        /* \"#utility.yul\":5948:6041   */\n    tag_72:\n        /* \"#utility.yul\":5985:5991   */\n      0x00\n        /* \"#utility.yul\":6032:6034   */\n      0x20\n        /* \"#utility.yul\":6027:6029   */\n      0x1f\n        /* \"#utility.yul\":6020:6025   */\n      dup4\n        /* \"#utility.yul\":6016:6030   */\n      add\n        /* \"#utility.yul\":6012:6035   */\n      div\n        /* \"#utility.yul\":6002:6035   */\n      swap1\n      pop\n        /* \"#utility.yul\":5948:6041   */\n      swap2\n      swap1\n      pop\n      jump\t// out\n        /* \"#utility.yul\":6047:6154   */\n    tag_73:\n        /* \"#utility.yul\":6091:6099   */\n      0x00\n        /* \"#utility.yul\":6141:6146   */\n      dup3\n        /* \"#utility.yul\":6135:6139   */\n      dup3\n        /* \"#utility.yul\":6131:6147   */\n      shl\n        /* \"#utility.yul\":6110:6147   */\n      swap1\n      pop\n        /* \"#utility.yul\":6047:6154   */\n      swap3\n      swap2\n      pop\n      pop\n      jump\t// out\n        /* \"#utility.yul\":6160:6553   */\n    tag_74:\n        /* \"#utility.yul\":6229:6235   */\n      0x00\n        /* \"#utility.yul\":6279:6280   */\n      0x08\n        /* \"#utility.yul\":6267:6277   */\n      dup4\n        /* \"#utility.yul\":6263:6281   */\n      mul\n        /* \"#utility.yul\":6302:6399   */\n      tag_158\n        /* \"#utility.yul\":6332:6398   */\n      0xffffffffffffffffffffffffffffffffffffffffffffffffffffffffffffffff\n        /* \"#utility.yul\":6321:6330   */\n      dup3\n        /* \"#utility.yul\":6302:6399   */\n      tag_73\n      jump\t// in\n    tag_158:\n        /* \"#utility.yul\":6420:6459   */\n      tag_159\n        /* \"#utility.yul\":6450:6458   */\n      dup7\n        /* \"#utility.yul\":6439:6448   */\n      dup4\n        /* \"#utility.yul\":6420:6459   */\n      tag_73\n      jump\t// in\n    tag_159:\n        /* \"#utility.yul\":6408:6459   */\n      swap6\n      pop\n        /* \"#utility.yul\":6492:6496   */\n      dup1\n        /* \"#utility.yul\":6488:6497   */\n      not\n        /* \"#utility.yul\":6481:6486   */\n      dup5\n        /* \"#utility.yul\":6477:6498   */\n      and\n        /* \"#utility.yul\":6468:6498   */\n      swap4\n      pop\n        /* \"#utility.yul\":6541:6545   */\n      dup1\n        /* \"#utility.yul\":6531:6539   */\n      dup7\n        /* \"#utility.yul\":6527:6546   */\n      and\n        /* \"#utility.yul\":6520:6525   */\n      dup5\n        /* \"#utility.yul\":6517:6547   */\n      or\n        /* \"#utility.yul\":6507:6547   */\n      swap3\n      pop\n        /* \"#utility.yul\":6236:6553   */\n      pop\n      pop\n        /* \"#utility.yul\":6160:6553   */\n      swap4\n      swap3\n      pop\n      pop\n      pop\n      jump\t// out\n        /* \"#utility.yul\":6559:6636   */\n    tag_75:\n        /* \"#utility.yul\":6596:6603   */\n      0x00\n        /* \"#utility.yul\":6625:6630   */\n      dup2\n        /* \"#utility.yul\":6614:6630   */\n      swap1\n      pop\n        /* \"#utility.yul\":6559:6636   */\n      swap2\n      swap1\n      pop\n      jump\t// out\n        /* \"#utility.yul\":6642:6702   */\n    tag_76:\n        /* \"#utility.yul\":6670:6673   */\n      0x00\n        /* \"#utility.yul\":6691:6696   */\n      dup2\n        /* \"#utility.yul\":6684:6696   */\n      swap1\n      pop\n        /* \"#utility.yul\":6642:6702   */\n      swap2\n      swap1\n      pop\n      jump\t// out\n        /* \"#utility.yul\":6708:6850   */\n    tag_77:\n        /* \"#utility.yul\":6758:6767   */\n      0x00\n        /* \"#utility.yul\":6791:6844   */\n      tag_163\n        /* \"#utility.yul\":6809:6843   */\n      tag_164\n        /* \"#utility.yul\":6818:6842   */\n      tag_165\n        /* \"#utility.yul\":6836:6841   */\n      dup5\n        /* \"#utility.yul\":6818:6842   */\n      tag_75\n      jump\t// in\n    tag_165:\n        /* \"#utility.yul\":6809:6843   */\n      tag_76\n      jump\t// in\n    tag_164:\n        /* \"#utility.yul\":6791:6844   */\n      tag_75\n      jump\t// in\n    tag_163:\n        /* \"#utility.yul\":6778:6844   */\n      swap1\n      pop\n        /* \"#utility.yul\":6708:6850   */\n      swap2\n      swap1\n      pop\n      jump\t// out\n        /* \"#utility.yul\":6856:6931   */\n    tag_78:\n        /* \"#utility.yul\":6899:6902   */\n      0x00\n        /* \"#utility.yul\":6920:6925   */\n      dup2\n        /* \"#utility.yul\":6913:6925   */\n      swap1\n      pop\n        /* \"#utility.yul\":6856:6931   */\n      swap2\n      swap1\n      pop\n      jump\t// out\n        /* \"#utility.yul\":6937:7206   */\n    tag_79:\n        /* \"#utility.yul\":7047:7086   */\n      tag_168\n        /* \"#utility.yul\":7078:7085   */\n      dup4\n        /* \"#utility.yul\":7047:7086   */\n      tag_77\n      jump\t// in\n    tag_168:\n        /* \"#utility.yul\":7108:7199   */\n      tag_169\n        /* \"#utility.yul\":7157:7198   */\n      tag_170\n        /* \"#utility.yul\":7181:7197   */\n      dup3\n        /* \"#utility.yul\":7157:7198   */\n      tag_78\n      jump\t// in\n    tag_170:\n        /* \"#utility.yul\":7149:7155   */\n      dup5\n        /* \"#utility.yul\":7142:7146   */\n      dup5\n        /* \"#utility.yul\":7136:7147   */\n      sload\n        /* \"#utility.yul\":7108:7199   */\n      tag_74\n      jump\t// in\n    tag_169:\n        /* \"#utility.yul\":7102:7106   */\n      dup3\n        /* \"#utility.yul\":7095:7200   */\n      sstore\n        /* \"#utility.yul\":7013:7206   */\n      pop\n        /* \"#utility.yul\":6937:7206   */\n      pop\n      pop\n      pop\n      jump\t// out\n        /* \"#utility.yul\":7212:7285   */\n    tag_80:\n        /* \"#utility.yul\":7257:7260   */\n      0x00\n        /* \"#utility.yul\":7212:7285   */\n      swap1\n      jump\t// out\n        /* \"#utility.yul\":7291:7480   */\n    tag_81:\n        /* \"#utility.yul\":7368:7400   */\n      tag_173\n      tag_80\n      jump\t// in\n    tag_173:\n        /* \"#utility.yul\":7409:7474   */\n      tag_174\n        /* \"#utility.yul\":7467:7473   */\n      dup2\n        /* \"#utility.yul\":7459:7465   */\n      dup5\n        /* \"#utility.yul\":7453:7457   */\n      dup5\n        /* \"#utility.yul\":7409:7474   */\n      tag_79\n      jump\t// in\n    tag_174:\n        /* \"#utility.yul\":7344:7480   */\n      pop\n        /* \"#utility.yul\":7291:7480   */\n      pop\n      pop\n      jump\t// out\n        /* \"#utility.yul\":7486:7672   */\n    tag_82:\n        /* \"#utility.yul\":7546:7666   */\n    tag_176:\n        /* \"#utility.yul\":7563:7566   */\n      dup2\n        /* \"#utility.yul\":7556:7561   */\n      dup2\n        /* \"#utility.yul\":7553:7567   */\n      lt\n        /* \"#utility.yul\":7546:7666   */\n      iszero\n      tag_178\n      jumpi\n        /* \"#utility.yul\":7617:7656   */\n      tag_179\n        /* \"#utility.yul\":7654:7655   */\n      0x00\n        /* \"#utility.yul\":7647:7652   */\n      dup3\n        /* \"#utility.yul\":7617:7656   */\n      tag_81\n      jump\t// in\n    tag_179:\n        /* \"#utility.yul\":7590:7591   */\n      0x01\n        /* \"#utility.yul\":7583:7588   */\n      dup2\n        /* \"#utility.yul\":7579:7592   */\n      add\n        /* \"#utility.yul\":7570:7592   */\n      swap1\n      pop\n        /* \"#utility.yul\":7546:7666   */\n      jump(tag_176)\n    tag_178:\n        /* \"#utility.yul\":7486:7672   */\n      pop\n      pop\n      jump\t// out\n        /* \"#utility.yul\":7678:8221   */\n    tag_83:\n        /* \"#utility.yul\":7779:7781   */\n      0x1f\n        /* \"#utility.yul\":7774:7777   */\n      dup3\n        /* \"#utility.yul\":7771:7782   */\n      gt\n        /* \"#utility.yul\":7768:8214   */\n      iszero\n      tag_181\n      jumpi\n        /* \"#utility.yul\":7813:7851   */\n      tag_182\n        /* \"#utility.yul\":7845:7850   */\n      dup2\n        /* \"#utility.yul\":7813:7851   */\n      tag_71\n      jump\t// in\n    tag_182:\n        /* \"#utility.yul\":7897:7926   */\n      tag_183\n        /* \"#utility.yul\":7915:7925   */\n      dup5\n        /* \"#utility.yul\":7897:7926   */\n      tag_72\n      jump\t// in\n    tag_183:\n        /* \"#utility.yul\":7887:7895   */\n      dup2\n        /* \"#utility.yul\":7883:7927   */\n      add\n        /* \"#utility.yul\":8080:8082   */\n      0x20\n        /* \"#utility.yul\":8068:8078   */\n      dup6\n        /* \"#utility.yul\":8065:8083   */\n      lt\n        /* \"#utility.yul\":8062:8111   */\n      iszero\n      tag_184\n      jumpi\n        /* \"#utility.yul\":8101:8109   */\n      dup2\n        /* \"#utility.yul\":8086:8109   */\n      swap1\n      pop\n        /* \"#utility.yul\":8062:8111   */\n    tag_184:\n        /* \"#utility.yul\":8124:8204   */\n      tag_185\n        /* \"#utility.yul\":8180:8202   */\n      tag_186\n        /* \"#utility.yul\":8198:8201   */\n      dup6\n        /* \"#utility.yul\":8180:8202   */\n      tag_72\n      jump\t// in\n    tag_186:\n        /* \"#utility.yul\":8170:8178   */\n      dup4\n        /* \"#utility.yul\":8166:8203   */\n      add\n        /* \"#utility.yul\":8153:8164   */\n      dup3\n        /* \"#utility.yul\":8124:8204   */\n      tag_82\n      jump\t// in\n    tag_185:\n        /* \"#utility.yul\":7783:8214   */\n      pop\n      pop\n        /* \"#utility.yul\":7768:8214   */\n    tag_181:\n        /* \"#utility.yul\":7678:8221   */\n      pop\n      pop\n      pop\n      jump\t// out\n        /* \"#utility.yul\":8227:8344   */\n    tag_84:\n        /* \"#utility.yul\":8281:8289   */\n      0x00\n        /* \"#utility.yul\":8331:8336   */\n      dup3\n        /* \"#utility.yul\":8325:8329   */\n      dup3\n        /* \"#utility.yul\":8321:8337   */\n      shr\n        /* \"#utility.yul\":8300:8337   */\n      swap1\n      pop\n        /* \"#utility.yul\":8227:8344   */\n      swap3\n      swap2\n      pop\n      pop\n      jump\t// out\n        /* \"#utility.yul\":8350:8519   */\n    tag_85:\n        /* \"#utility.yul\":8394:8400   */\n      0x00\n        /* \"#utility.yul\":8427:8478   */\n      tag_189\n        /* \"#utility.yul\":8475:8476   */\n      0x00\n        /* \"#utility.yul\":8471:8477   */\n      not\n        /* \"#utility.yul\":8463:8468   */\n      dup5\n        /* \"#utility.yul\":8460:8461   */\n      0x08\n        /* \"#utility.yul\":8456:8469   */\n      mul\n        /* \"#utility.yul\":8427:8478   */\n      tag_84\n      jump\t// in\n    tag_189:\n        /* \"#utility.yul\":8423:8479   */\n      not\n        /* \"#utility.yul\":8508:8512   */\n      dup1\n        /* \"#utility.yul\":8502:8506   */\n      dup4\n        /* \"#utility.yul\":8498:8513   */\n      and\n        /* \"#utility.yul\":8488:8513   */\n      swap2\n      pop\n        /* \"#utility.yul\":8401:8519   */\n      pop\n        /* \"#utility.yul\":8350:8519   */\n      swap3\n      swap2\n      pop\n      pop\n      jump\t// out\n        /* \"#utility.yul\":8524:8819   */\n    tag_86:\n        /* \"#utility.yul\":8600:8604   */\n      0x00\n        /* \"#utility.yul\":8746:8775   */\n      tag_191\n        /* \"#utility.yul\":8771:8774   */\n      dup4\n        /* \"#utility.yul\":8765:8769   */\n      dup4\n        /* \"#utility.yul\":8746:8775   */\n      tag_85\n      jump\t// in\n    tag_191:\n        /* \"#utility.yul\":8738:8775   */\n      swap2\n      pop\n        /* \"#utility.yul\":8808:8811   */\n      dup3\n        /* \"#utility.yul\":8805:8806   */\n      0x02\n        /* \"#utility.yul\":8801:8812   */\n      mul\n        /* \"#utility.yul\":8795:8799   */\n      dup3\n        /* \"#utility.yul\":8792:8813   */\n      or\n        /* \"#utility.yul\":8784:8813   */\n      swap1\n      pop\n        /* \"#utility.yul\":8524:8819   */\n      swap3\n      swap2\n      pop\n      pop\n      jump\t// out\n        /* \"#utility.yul\":8824:10219   */\n    tag_29:\n        /* \"#utility.yul\":8941:8978   */\n      tag_193\n        /* \"#utility.yul\":8974:8977   */\n      dup3\n        /* \"#utility.yul\":8941:8978   */\n      tag_66\n      jump\t// in\n    tag_193:\n        /* \"#utility.yul\":9043:9061   */\n      0xffffffffffffffff\n        /* \"#utility.yul\":9035:9041   */\n      dup2\n        /* \"#utility.yul\":9032:9062   */\n      gt\n        /* \"#utility.yul\":9029:9085   */\n      iszero\n      tag_194\n      jumpi\n        /* \"#utility.yul\":9065:9083   */\n      tag_195\n      tag_59\n      jump\t// in\n    tag_195:\n        /* \"#utility.yul\":9029:9085   */\n    tag_194:\n        /* \"#utility.yul\":9109:9147   */\n      tag_196\n        /* \"#utility.yul\":9141:9145   */\n      dup3\n        /* \"#utility.yul\":9135:9146   */\n      sload\n        /* \"#utility.yul\":9109:9147   */\n      tag_31\n      jump\t// in\n    tag_196:\n        /* \"#utility.yul\":9194:9261   */\n      tag_197\n        /* \"#utility.yul\":9254:9260   */\n      dup3\n        /* \"#utility.yul\":9246:9252   */\n      dup3\n        /* \"#utility.yul\":9240:9244   */\n      dup6\n        /* \"#utility.yul\":9194:9261   */\n      tag_83\n      jump\t// in\n    tag_197:\n        /* \"#utility.yul\":9288:9289   */\n      0x00\n        /* \"#utility.yul\":9312:9316   */\n      0x20\n        /* \"#utility.yul\":9299:9316   */\n      swap1\n      pop\n        /* \"#utility.yul\":9344:9346   */\n      0x1f\n        /* \"#utility.yul\":9336:9342   */\n      dup4\n        /* \"#utility.yul\":9333:9347   */\n      gt\n        /* \"#utility.yul\":9361:9362   */\n      0x01\n        /* \"#utility.yul\":9356:9974   */\n      dup2\n      eq\n      tag_199\n      jumpi\n        /* \"#utility.yul\":10018:10019   */\n      0x00\n        /* \"#utility.yul\":10035:10041   */\n      dup5\n        /* \"#utility.yul\":10032:10109   */\n      iszero\n      tag_200\n      jumpi\n        /* \"#utility.yul\":10084:10093   */\n      dup3\n        /* \"#utility.yul\":10079:10082   */\n      dup8\n        /* \"#utility.yul\":10075:10094   */\n      add\n        /* \"#utility.yul\":10069:10095   */\n      mload\n        /* \"#utility.yul\":10060:10095   */\n      swap1\n      pop\n        /* \"#utility.yul\":10032:10109   */\n    tag_200:\n        /* \"#utility.yul\":10135:10202   */\n      tag_201\n        /* \"#utility.yul\":10195:10201   */\n      dup6\n        /* \"#utility.yul\":10188:10193   */\n      dup3\n        /* \"#utility.yul\":10135:10202   */\n      tag_86\n      jump\t// in\n    tag_201:\n        /* \"#utility.yul\":10129:10133   */\n      dup7\n        /* \"#utility.yul\":10122:10203   */\n      sstore\n        /* \"#utility.yul\":9991:10213   */\n      pop\n        /* \"#utility.yul\":9326:10213   */\n      jump(tag_198)\n        /* \"#utility.yul\":9356:9974   */\n    tag_199:\n        /* \"#utility.yul\":9408:9412   */\n      0x1f\n        /* \"#utility.yul\":9404:9413   */\n      not\n        /* \"#utility.yul\":9396:9402   */\n      dup5\n        /* \"#utility.yul\":9392:9414   */\n      and\n        /* \"#utility.yul\":9442:9479   */\n      tag_202\n        /* \"#utility.yul\":9474:9478   */\n      dup7\n        /* \"#utility.yul\":9442:9479   */\n      tag_71\n      jump\t// in\n    tag_202:\n        /* \"#utility.yul\":9501:9502   */\n      0x00\n        /* \"#utility.yul\":9515:9723   */\n    tag_203:\n        /* \"#utility.yul\":9529:9536   */\n      dup3\n        /* \"#utility.yul\":9526:9527   */\n      dup2\n        /* \"#utility.yul\":9523:9537   */\n      lt\n        /* \"#utility.yul\":9515:9723   */\n      iszero\n      tag_205\n      jumpi\n        /* \"#utility.yul\":9608:9617   */\n      dup5\n        /* \"#utility.yul\":9603:9606   */\n      dup10\n        /* \"#utility.yul\":9599:9618   */\n      add\n        /* \"#utility.yul\":9593:9619   */\n      mload\n        /* \"#utility.yul\":9585:9591   */\n      dup3\n        /* \"#utility.yul\":9578:9620   */\n      sstore\n        /* \"#utility.yul\":9659:9660   */\n      0x01\n        /* \"#utility.yul\":9651:9657   */\n      dup3\n        /* \"#utility.yul\":9647:9661   */\n      add\n        /* \"#utility.yul\":9637:9661   */\n      swap2\n      pop\n        /* \"#utility.yul\":9706:9708   */\n      0x20\n        /* \"#utility.yul\":9695:9704   */\n      dup6\n        /* \"#utility.yul\":9691:9709   */\n      add\n        /* \"#utility.yul\":9678:9709   */\n      swap5\n      pop\n        /* \"#utility.yul\":9552:9556   */\n      0x20\n        /* \"#utility.yul\":9549:9550   */\n      dup2\n        /* \"#utility.yul\":9545:9557   */\n      add\n        /* \"#utility.yul\":9540:9557   */\n      swap1\n      pop\n        /* \"#utility.yul\":9515:9723   */\n      jump(tag_203)\n    tag_205:\n        /* \"#utility.yul\":9751:9757   */\n      dup7\n        /* \"#utility.yul\":9742:9749   */\n      dup4\n        /* \"#utility.yul\":9739:9758   */\n      lt\n        /* \"#utility.yul\":9736:9915   */\n      iszero\n      tag_206\n      jumpi\n        /* \"#utility.yul\":9809:9818   */\n      dup5\n        /* \"#utility.yul\":9804:9807   */\n      dup10\n        /* \"#utility.yul\":9800:9819   */\n      add\n        /* \"#utility.yul\":9794:9820   */\n      mload\n        /* \"#utility.yul\":9852:9900   */\n      tag_207\n        /* \"#utility.yul\":9894:9898   */\n      0x1f\n        /* \"#utility.yul\":9886:9892   */\n      dup10\n        /* \"#utility.yul\":9882:9899   */\n      and\n        /* \"#utility.yul\":9871:9880   */\n      dup3\n        /* \"#utility.yul\":9852:9900   */\n      tag_85\n      jump\t// in\n    tag_207:\n        /* \"#utility.yul\":9844:9850   */\n      dup4\n        /* \"#utility.yul\":9837:9901   */\n      sstore\n        /* \"#utility.yul\":9759:9915   */\n      pop\n        /* \"#utility.yul\":9736:9915   */\n    tag_206:\n        /* \"#utility.yul\":9961:9962   */\n      0x01\n        /* \"#utility.yul\":9957:9958   */\n      0x02\n        /* \"#utility.yul\":9949:9955   */\n      dup9\n        /* \"#utility.yul\":9945:9959   */\n      mul\n        /* \"#utility.yul\":9941:9963   */\n      add\n        /* \"#utility.yul\":9935:9939   */\n      dup9\n        /* \"#utility.yul\":9928:9964   */\n      sstore\n        /* \"#utility.yul\":9363:9974   */\n      pop\n      pop\n      pop\n        /* \"#utility.yul\":9326:10213   */\n    tag_198:\n      pop\n        /* \"#utility.yul\":8916:10219   */\n      pop\n      pop\n      pop\n        /* \"#utility.yul\":8824:10219   */\n      pop\n      pop\n      jump\t// out\n\n    auxdata: 0xa2646970667358221220e40d163045582a57fb4e1f40272cf190af0d71b574f8854010e98bc6aca9bd9464736f6c63430008120033\n}\n",
				"bytecode": {
					"linkReferences": {},
					"object": "608060405234801561001057600080fd5b50610953806100206000396000f3fe608060405234801561001057600080fd5b506004361061004c5760003560e01c8063162f4678146100515780633e845f341461006d57806349ad234e14610089578063c2bc2efc146100b9575b600080fd5b61006b600480360381019061006691906103c5565b6100e9565b005b61008760048036038101906100829190610538565b610136565b005b6100a3600480360381019061009e91906103c5565b610186565b6040516100b09190610613565b60405180910390f35b6100d360048036038101906100ce91906103c5565b610226565b6040516100e09190610613565b60405180910390f35b6000808273ffffffffffffffffffffffffffffffffffffffff1673ffffffffffffffffffffffffffffffffffffffff168152602001908152602001600020600061013391906102f6565b50565b806000808473ffffffffffffffffffffffffffffffffffffffff1673ffffffffffffffffffffffffffffffffffffffff1681526020019081526020016000209081610181919061084b565b505050565b600060205280600052604060002060009150905080546101a590610664565b80601f01602080910402602001604051908101604052809291908181526020018280546101d190610664565b801561021e5780601f106101f35761010080835404028352916020019161021e565b820191906000526020600020905b81548152906001019060200180831161020157829003601f168201915b505050505081565b60606000808373ffffffffffffffffffffffffffffffffffffffff1673ffffffffffffffffffffffffffffffffffffffff168152602001908152602001600020805461027190610664565b80601f016020809104026020016040519081016040528092919081815260200182805461029d90610664565b80156102ea5780601f106102bf576101008083540402835291602001916102ea565b820191906000526020600020905b8154815290600101906020018083116102cd57829003601f168201915b50505050509050919050565b50805461030290610664565b6000825580601f106103145750610333565b601f0160209004906000526020600020908101906103329190610336565b5b50565b5b8082111561034f576000816000905550600101610337565b5090565b6000604051905090565b600080fd5b600080fd5b600073ffffffffffffffffffffffffffffffffffffffff82169050919050565b600061039282610367565b9050919050565b6103a281610387565b81146103ad57600080fd5b50565b6000813590506103bf81610399565b92915050565b6000602082840312156103db576103da61035d565b5b60006103e9848285016103b0565b91505092915050565b600080fd5b600080fd5b6000601f19601f8301169050919050565b7f4e487b7100000000000000000000000000000000000000000000000000000000600052604160045260246000fd5b610445826103fc565b810181811067ffffffffffffffff821117156104645761046361040d565b5b80604052505050565b6000610477610353565b9050610483828261043c565b919050565b600067ffffffffffffffff8211156104a3576104a261040d565b5b6104ac826103fc565b9050602081019050919050565b82818337600083830152505050565b60006104db6104d684610488565b61046d565b9050828152602081018484840111156104f7576104f66103f7565b5b6105028482856104b9565b509392505050565b600082601f83011261051f5761051e6103f2565b5b813561052f8482602086016104c8565b91505092915050565b6000806040838503121561054f5761054e61035d565b5b600061055d858286016103b0565b925050602083013567ffffffffffffffff81111561057e5761057d610362565b5b61058a8582860161050a565b9150509250929050565b600081519050919050565b600082825260208201905092915050565b60005b838110156105ce5780820151818401526020810190506105b3565b60008484015250505050565b60006105e582610594565b6105ef818561059f565b93506105ff8185602086016105b0565b610608816103fc565b840191505092915050565b6000602082019050818103600083015261062d81846105da565b905092915050565b7f4e487b7100000000000000000000000000000000000000000000000000000000600052602260045260246000fd5b6000600282049050600182168061067c57607f821691505b60208210810361068f5761068e610635565b5b50919050565b60008190508160005260206000209050919050565b60006020601f8301049050919050565b600082821b905092915050565b6000600883026106f77fffffffffffffffffffffffffffffffffffffffffffffffffffffffffffffffff826106ba565b61070186836106ba565b95508019841693508086168417925050509392505050565b6000819050919050565b6000819050919050565b600061074861074361073e84610719565b610723565b610719565b9050919050565b6000819050919050565b6107628361072d565b61077661076e8261074f565b8484546106c7565b825550505050565b600090565b61078b61077e565b610796818484610759565b505050565b5b818110156107ba576107af600082610783565b60018101905061079c565b5050565b601f8211156107ff576107d081610695565b6107d9846106aa565b810160208510156107e8578190505b6107fc6107f4856106aa565b83018261079b565b50505b505050565b600082821c905092915050565b600061082260001984600802610804565b1980831691505092915050565b600061083b8383610811565b9150826002028217905092915050565b61085482610594565b67ffffffffffffffff81111561086d5761086c61040d565b5b6108778254610664565b6108828282856107be565b600060209050601f8311600181146108b557600084156108a3578287015190505b6108ad858261082f565b865550610915565b601f1984166108c386610695565b60005b828110156108eb578489015182556001820191506020850194506020810190506108c6565b868310156109085784890151610904601f891682610811565b8355505b6001600288020188555050505b50505050505056fea2646970667358221220e40d163045582a57fb4e1f40272cf190af0d71b574f8854010e98bc6aca9bd9464736f6c63430008120033",
					"opcodes": "PUSH1 0x80 PUSH1 0x40 MSTORE CALLVALUE DUP1 ISZERO PUSH2 0x10 JUMPI PUSH1 0x0 DUP1 REVERT JUMPDEST POP PUSH2 0x953 DUP1 PUSH2 0x20 PUSH1 0x0 CODECOPY PUSH1 0x0 RETURN INVALID PUSH1 0x80 PUSH1 0x40 MSTORE CALLVALUE DUP1 ISZERO PUSH2 0x10 JUMPI PUSH1 0x0 DUP1 REVERT JUMPDEST POP PUSH1 0x4 CALLDATASIZE LT PUSH2 0x4C JUMPI PUSH1 0x0 CALLDATALOAD PUSH1 0xE0 SHR DUP1 PUSH4 0x162F4678 EQ PUSH2 0x51 JUMPI DUP1 PUSH4 0x3E845F34 EQ PUSH2 0x6D JUMPI DUP1 PUSH4 0x49AD234E EQ PUSH2 0x89 JUMPI DUP1 PUSH4 0xC2BC2EFC EQ PUSH2 0xB9 JUMPI JUMPDEST PUSH1 0x0 DUP1 REVERT JUMPDEST PUSH2 0x6B PUSH1 0x4 DUP1 CALLDATASIZE SUB DUP2 ADD SWAP1 PUSH2 0x66 SWAP2 SWAP1 PUSH2 0x3C5 JUMP JUMPDEST PUSH2 0xE9 JUMP JUMPDEST STOP JUMPDEST PUSH2 0x87 PUSH1 0x4 DUP1 CALLDATASIZE SUB DUP2 ADD SWAP1 PUSH2 0x82 SWAP2 SWAP1 PUSH2 0x538 JUMP JUMPDEST PUSH2 0x136 JUMP JUMPDEST STOP JUMPDEST PUSH2 0xA3 PUSH1 0x4 DUP1 CALLDATASIZE SUB DUP2 ADD SWAP1 PUSH2 0x9E SWAP2 SWAP1 PUSH2 0x3C5 JUMP JUMPDEST PUSH2 0x186 JUMP JUMPDEST PUSH1 0x40 MLOAD PUSH2 0xB0 SWAP2 SWAP1 PUSH2 0x613 JUMP JUMPDEST PUSH1 0x40 MLOAD DUP1 SWAP2 SUB SWAP1 RETURN JUMPDEST PUSH2 0xD3 PUSH1 0x4 DUP1 CALLDATASIZE SUB DUP2 ADD SWAP1 PUSH2 0xCE SWAP2 SWAP1 PUSH2 0x3C5 JUMP JUMPDEST PUSH2 0x226 JUMP JUMPDEST PUSH1 0x40 MLOAD PUSH2 0xE0 SWAP2 SWAP1 PUSH2 0x613 JUMP JUMPDEST PUSH1 0x40 MLOAD DUP1 SWAP2 SUB SWAP1 RETURN JUMPDEST PUSH1 0x0 DUP1 DUP3 PUSH20 0xFFFFFFFFFFFFFFFFFFFFFFFFFFFFFFFFFFFFFFFF AND PUSH20 0xFFFFFFFFFFFFFFFFFFFFFFFFFFFFFFFFFFFFFFFF AND DUP2 MSTORE PUSH1 0x20 ADD SWAP1 DUP2 MSTORE PUSH1 0x20 ADD PUSH1 0x0 KECCAK256 PUSH1 0x0 PUSH2 0x133 SWAP2 SWAP1 PUSH2 0x2F6 JUMP JUMPDEST POP JUMP JUMPDEST DUP1 PUSH1 0x0 DUP1 DUP5 PUSH20 0xFFFFFFFFFFFFFFFFFFFFFFFFFFFFFFFFFFFFFFFF AND PUSH20 0xFFFFFFFFFFFFFFFFFFFFFFFFFFFFFFFFFFFFFFFF AND DUP2 MSTORE PUSH1 0x20 ADD SWAP1 DUP2 MSTORE PUSH1 0x20 ADD PUSH1 0x0 KECCAK256 SWAP1 DUP2 PUSH2 0x181 SWAP2 SWAP1 PUSH2 0x84B JUMP JUMPDEST POP POP POP JUMP JUMPDEST PUSH1 0x0 PUSH1 0x20 MSTORE DUP1 PUSH1 0x0 MSTORE PUSH1 0x40 PUSH1 0x0 KECCAK256 PUSH1 0x0 SWAP2 POP SWAP1 POP DUP1 SLOAD PUSH2 0x1A5 SWAP1 PUSH2 0x664 JUMP JUMPDEST DUP1 PUSH1 0x1F ADD PUSH1 0x20 DUP1 SWAP2 DIV MUL PUSH1 0x20 ADD PUSH1 0x40 MLOAD SWAP1 DUP2 ADD PUSH1 0x40 MSTORE DUP1 SWAP3 SWAP2 SWAP1 DUP2 DUP2 MSTORE PUSH1 0x20 ADD DUP3 DUP1 SLOAD PUSH2 0x1D1 SWAP1 PUSH2 0x664 JUMP JUMPDEST DUP1 ISZERO PUSH2 0x21E JUMPI DUP1 PUSH1 0x1F LT PUSH2 0x1F3 JUMPI PUSH2 0x100 DUP1 DUP4 SLOAD DIV MUL DUP4 MSTORE SWAP2 PUSH1 0x20 ADD SWAP2 PUSH2 0x21E JUMP JUMPDEST DUP3 ADD SWAP2 SWAP1 PUSH1 0x0 MSTORE PUSH1 0x20 PUSH1 0x0 KECCAK256 SWAP1 JUMPDEST DUP2 SLOAD DUP2 MSTORE SWAP1 PUSH1 0x1 ADD SWAP1 PUSH1 0x20 ADD DUP1 DUP4 GT PUSH2 0x201 JUMPI DUP3 SWAP1 SUB PUSH1 0x1F AND DUP3 ADD SWAP2 JUMPDEST POP POP POP POP POP DUP2 JUMP JUMPDEST PUSH1 0x60 PUSH1 0x0 DUP1 DUP4 PUSH20 0xFFFFFFFFFFFFFFFFFFFFFFFFFFFFFFFFFFFFFFFF AND PUSH20 0xFFFFFFFFFFFFFFFFFFFFFFFFFFFFFFFFFFFFFFFF AND DUP2 MSTORE PUSH1 0x20 ADD SWAP1 DUP2 MSTORE PUSH1 0x20 ADD PUSH1 0x0 KECCAK256 DUP1 SLOAD PUSH2 0x271 SWAP1 PUSH2 0x664 JUMP JUMPDEST DUP1 PUSH1 0x1F ADD PUSH1 0x20 DUP1 SWAP2 DIV MUL PUSH1 0x20 ADD PUSH1 0x40 MLOAD SWAP1 DUP2 ADD PUSH1 0x40 MSTORE DUP1 SWAP3 SWAP2 SWAP1 DUP2 DUP2 MSTORE PUSH1 0x20 ADD DUP3 DUP1 SLOAD PUSH2 0x29D SWAP1 PUSH2 0x664 JUMP JUMPDEST DUP1 ISZERO PUSH2 0x2EA JUMPI DUP1 PUSH1 0x1F LT PUSH2 0x2BF JUMPI PUSH2 0x100 DUP1 DUP4 SLOAD DIV MUL DUP4 MSTORE SWAP2 PUSH1 0x20 ADD SWAP2 PUSH2 0x2EA JUMP JUMPDEST DUP3 ADD SWAP2 SWAP1 PUSH1 0x0 MSTORE PUSH1 0x20 PUSH1 0x0 KECCAK256 SWAP1 JUMPDEST DUP2 SLOAD DUP2 MSTORE SWAP1 PUSH1 0x1 ADD SWAP1 PUSH1 0x20 ADD DUP1 DUP4 GT PUSH2 0x2CD JUMPI DUP3 SWAP1 SUB PUSH1 0x1F AND DUP3 ADD SWAP2 JUMPDEST POP POP POP POP POP SWAP1 POP SWAP2 SWAP1 POP JUMP JUMPDEST POP DUP1 SLOAD PUSH2 0x302 SWAP1 PUSH2 0x664 JUMP JUMPDEST PUSH1 0x0 DUP3 SSTORE DUP1 PUSH1 0x1F LT PUSH2 0x314 JUMPI POP PUSH2 0x333 JUMP JUMPDEST PUSH1 0x1F ADD PUSH1 0x20 SWAP1 DIV SWAP1 PUSH1 0x0 MSTORE PUSH1 0x20 PUSH1 0x0 KECCAK256 SWAP1 DUP2 ADD SWAP1 PUSH2 0x332 SWAP2 SWAP1 PUSH2 0x336 JUMP JUMPDEST JUMPDEST POP JUMP JUMPDEST JUMPDEST DUP1 DUP3 GT ISZERO PUSH2 0x34F JUMPI PUSH1 0x0 DUP2 PUSH1 0x0 SWAP1 SSTORE POP PUSH1 0x1 ADD PUSH2 0x337 JUMP JUMPDEST POP SWAP1 JUMP JUMPDEST PUSH1 0x0 PUSH1 0x40 MLOAD SWAP1 POP SWAP1 JUMP JUMPDEST PUSH1 0x0 DUP1 REVERT JUMPDEST PUSH1 0x0 DUP1 REVERT JUMPDEST PUSH1 0x0 PUSH20 0xFFFFFFFFFFFFFFFFFFFFFFFFFFFFFFFFFFFFFFFF DUP3 AND SWAP1 POP SWAP2 SWAP1 POP JUMP JUMPDEST PUSH1 0x0 PUSH2 0x392 DUP3 PUSH2 0x367 JUMP JUMPDEST SWAP1 POP SWAP2 SWAP1 POP JUMP JUMPDEST PUSH2 0x3A2 DUP2 PUSH2 0x387 JUMP JUMPDEST DUP2 EQ PUSH2 0x3AD JUMPI PUSH1 0x0 DUP1 REVERT JUMPDEST POP JUMP JUMPDEST PUSH1 0x0 DUP2 CALLDATALOAD SWAP1 POP PUSH2 0x3BF DUP2 PUSH2 0x399 JUMP JUMPDEST SWAP3 SWAP2 POP POP JUMP JUMPDEST PUSH1 0x0 PUSH1 0x20 DUP3 DUP5 SUB SLT ISZERO PUSH2 0x3DB JUMPI PUSH2 0x3DA PUSH2 0x35D JUMP JUMPDEST JUMPDEST PUSH1 0x0 PUSH2 0x3E9 DUP5 DUP3 DUP6 ADD PUSH2 0x3B0 JUMP JUMPDEST SWAP2 POP POP SWAP3 SWAP2 POP POP JUMP JUMPDEST PUSH1 0x0 DUP1 REVERT JUMPDEST PUSH1 0x0 DUP1 REVERT JUMPDEST PUSH1 0x0 PUSH1 0x1F NOT PUSH1 0x1F DUP4 ADD AND SWAP1 POP SWAP2 SWAP1 POP JUMP JUMPDEST PUSH32 0x4E487B7100000000000000000000000000000000000000000000000000000000 PUSH1 0x0 MSTORE PUSH1 0x41 PUSH1 0x4 MSTORE PUSH1 0x24 PUSH1 0x0 REVERT JUMPDEST PUSH2 0x445 DUP3 PUSH2 0x3FC JUMP JUMPDEST DUP2 ADD DUP2 DUP2 LT PUSH8 0xFFFFFFFFFFFFFFFF DUP3 GT OR ISZERO PUSH2 0x464 JUMPI PUSH2 0x463 PUSH2 0x40D JUMP JUMPDEST JUMPDEST DUP1 PUSH1 0x40 MSTORE POP POP POP JUMP JUMPDEST PUSH1 0x0 PUSH2 0x477 PUSH2 0x353 JUMP JUMPDEST SWAP1 POP PUSH2 0x483 DUP3 DUP3 PUSH2 0x43C JUMP JUMPDEST SWAP2 SWAP1 POP JUMP JUMPDEST PUSH1 0x0 PUSH8 0xFFFFFFFFFFFFFFFF DUP3 GT ISZERO PUSH2 0x4A3 JUMPI PUSH2 0x4A2 PUSH2 0x40D JUMP JUMPDEST JUMPDEST PUSH2 0x4AC DUP3 PUSH2 0x3FC JUMP JUMPDEST SWAP1 POP PUSH1 0x20 DUP2 ADD SWAP1 POP SWAP2 SWAP1 POP JUMP JUMPDEST DUP3 DUP2 DUP4 CALLDATACOPY PUSH1 0x0 DUP4 DUP4 ADD MSTORE POP POP POP JUMP JUMPDEST PUSH1 0x0 PUSH2 0x4DB PUSH2 0x4D6 DUP5 PUSH2 0x488 JUMP JUMPDEST PUSH2 0x46D JUMP JUMPDEST SWAP1 POP DUP3 DUP2 MSTORE PUSH1 0x20 DUP2 ADD DUP5 DUP5 DUP5 ADD GT ISZERO PUSH2 0x4F7 JUMPI PUSH2 0x4F6 PUSH2 0x3F7 JUMP JUMPDEST JUMPDEST PUSH2 0x502 DUP5 DUP3 DUP6 PUSH2 0x4B9 JUMP JUMPDEST POP SWAP4 SWAP3 POP POP POP JUMP JUMPDEST PUSH1 0x0 DUP3 PUSH1 0x1F DUP4 ADD SLT PUSH2 0x51F JUMPI PUSH2 0x51E PUSH2 0x3F2 JUMP JUMPDEST JUMPDEST DUP2 CALLDATALOAD PUSH2 0x52F DUP5 DUP3 PUSH1 0x20 DUP7 ADD PUSH2 0x4C8 JUMP JUMPDEST SWAP2 POP POP SWAP3 SWAP2 POP POP JUMP JUMPDEST PUSH1 0x0 DUP1 PUSH1 0x40 DUP4 DUP6 SUB SLT ISZERO PUSH2 0x54F JUMPI PUSH2 0x54E PUSH2 0x35D JUMP JUMPDEST JUMPDEST PUSH1 0x0 PUSH2 0x55D DUP6 DUP3 DUP7 ADD PUSH2 0x3B0 JUMP JUMPDEST SWAP3 POP POP PUSH1 0x20 DUP4 ADD CALLDATALOAD PUSH8 0xFFFFFFFFFFFFFFFF DUP2 GT ISZERO PUSH2 0x57E JUMPI PUSH2 0x57D PUSH2 0x362 JUMP JUMPDEST JUMPDEST PUSH2 0x58A DUP6 DUP3 DUP7 ADD PUSH2 0x50A JUMP JUMPDEST SWAP2 POP POP SWAP3 POP SWAP3 SWAP1 POP JUMP JUMPDEST PUSH1 0x0 DUP2 MLOAD SWAP1 POP SWAP2 SWAP1 POP JUMP JUMPDEST PUSH1 0x0 DUP3 DUP3 MSTORE PUSH1 0x20 DUP3 ADD SWAP1 POP SWAP3 SWAP2 POP POP JUMP JUMPDEST PUSH1 0x0 JUMPDEST DUP4 DUP2 LT ISZERO PUSH2 0x5CE JUMPI DUP1 DUP3 ADD MLOAD DUP2 DUP5 ADD MSTORE PUSH1 0x20 DUP2 ADD SWAP1 POP PUSH2 0x5B3 JUMP JUMPDEST PUSH1 0x0 DUP5 DUP5 ADD MSTORE POP POP POP POP JUMP JUMPDEST PUSH1 0x0 PUSH2 0x5E5 DUP3 PUSH2 0x594 JUMP JUMPDEST PUSH2 0x5EF DUP2 DUP6 PUSH2 0x59F JUMP JUMPDEST SWAP4 POP PUSH2 0x5FF DUP2 DUP6 PUSH1 0x20 DUP7 ADD PUSH2 0x5B0 JUMP JUMPDEST PUSH2 0x608 DUP2 PUSH2 0x3FC JUMP JUMPDEST DUP5 ADD SWAP2 POP POP SWAP3 SWAP2 POP POP JUMP JUMPDEST PUSH1 0x0 PUSH1 0x20 DUP3 ADD SWAP1 POP DUP2 DUP2 SUB PUSH1 0x0 DUP4 ADD MSTORE PUSH2 0x62D DUP2 DUP5 PUSH2 0x5DA JUMP JUMPDEST SWAP1 POP SWAP3 SWAP2 POP POP JUMP JUMPDEST PUSH32 0x4E487B7100000000000000000000000000000000000000000000000000000000 PUSH1 0x0 MSTORE PUSH1 0x22 PUSH1 0x4 MSTORE PUSH1 0x24 PUSH1 0x0 REVERT JUMPDEST PUSH1 0x0 PUSH1 0x2 DUP3 DIV SWAP1 POP PUSH1 0x1 DUP3 AND DUP1 PUSH2 0x67C JUMPI PUSH1 0x7F DUP3 AND SWAP2 POP JUMPDEST PUSH1 0x20 DUP3 LT DUP2 SUB PUSH2 0x68F JUMPI PUSH2 0x68E PUSH2 0x635 JUMP JUMPDEST JUMPDEST POP SWAP2 SWAP1 POP JUMP JUMPDEST PUSH1 0x0 DUP2 SWAP1 POP DUP2 PUSH1 0x0 MSTORE PUSH1 0x20 PUSH1 0x0 KECCAK256 SWAP1 POP SWAP2 SWAP1 POP JUMP JUMPDEST PUSH1 0x0 PUSH1 0x20 PUSH1 0x1F DUP4 ADD DIV SWAP1 POP SWAP2 SWAP1 POP JUMP JUMPDEST PUSH1 0x0 DUP3 DUP3 SHL SWAP1 POP SWAP3 SWAP2 POP POP JUMP JUMPDEST PUSH1 0x0 PUSH1 0x8 DUP4 MUL PUSH2 0x6F7 PUSH32 0xFFFFFFFFFFFFFFFFFFFFFFFFFFFFFFFFFFFFFFFFFFFFFFFFFFFFFFFFFFFFFFFF DUP3 PUSH2 0x6BA JUMP JUMPDEST PUSH2 0x701 DUP7 DUP4 PUSH2 0x6BA JUMP JUMPDEST SWAP6 POP DUP1 NOT DUP5 AND SWAP4 POP DUP1 DUP7 AND DUP5 OR SWAP3 POP POP POP SWAP4 SWAP3 POP POP POP JUMP JUMPDEST PUSH1 0x0 DUP2 SWAP1 POP SWAP2 SWAP1 POP JUMP JUMPDEST PUSH1 0x0 DUP2 SWAP1 POP SWAP2 SWAP1 POP JUMP JUMPDEST PUSH1 0x0 PUSH2 0x748 PUSH2 0x743 PUSH2 0x73E DUP5 PUSH2 0x719 JUMP JUMPDEST PUSH2 0x723 JUMP JUMPDEST PUSH2 0x719 JUMP JUMPDEST SWAP1 POP SWAP2 SWAP1 POP JUMP JUMPDEST PUSH1 0x0 DUP2 SWAP1 POP SWAP2 SWAP1 POP JUMP JUMPDEST PUSH2 0x762 DUP4 PUSH2 0x72D JUMP JUMPDEST PUSH2 0x776 PUSH2 0x76E DUP3 PUSH2 0x74F JUMP JUMPDEST DUP5 DUP5 SLOAD PUSH2 0x6C7 JUMP JUMPDEST DUP3 SSTORE POP POP POP POP JUMP JUMPDEST PUSH1 0x0 SWAP1 JUMP JUMPDEST PUSH2 0x78B PUSH2 0x77E JUMP JUMPDEST PUSH2 0x796 DUP2 DUP5 DUP5 PUSH2 0x759 JUMP JUMPDEST POP POP POP JUMP JUMPDEST JUMPDEST DUP2 DUP2 LT ISZERO PUSH2 0x7BA JUMPI PUSH2 0x7AF PUSH1 0x0 DUP3 PUSH2 0x783 JUMP JUMPDEST PUSH1 0x1 DUP2 ADD SWAP1 POP PUSH2 0x79C JUMP JUMPDEST POP POP JUMP JUMPDEST PUSH1 0x1F DUP3 GT ISZERO PUSH2 0x7FF JUMPI PUSH2 0x7D0 DUP2 PUSH2 0x695 JUMP JUMPDEST PUSH2 0x7D9 DUP5 PUSH2 0x6AA JUMP JUMPDEST DUP2 ADD PUSH1 0x20 DUP6 LT ISZERO PUSH2 0x7E8 JUMPI DUP2 SWAP1 POP JUMPDEST PUSH2 0x7FC PUSH2 0x7F4 DUP6 PUSH2 0x6AA JUMP JUMPDEST DUP4 ADD DUP3 PUSH2 0x79B JUMP JUMPDEST POP POP JUMPDEST POP POP POP JUMP JUMPDEST PUSH1 0x0 DUP3 DUP3 SHR SWAP1 POP SWAP3 SWAP2 POP POP JUMP JUMPDEST PUSH1 0x0 PUSH2 0x822 PUSH1 0x0 NOT DUP5 PUSH1 0x8 MUL PUSH2 0x804 JUMP JUMPDEST NOT DUP1 DUP4 AND SWAP2 POP POP SWAP3 SWAP2 POP POP JUMP JUMPDEST PUSH1 0x0 PUSH2 0x83B DUP4 DUP4 PUSH2 0x811 JUMP JUMPDEST SWAP2 POP DUP3 PUSH1 0x2 MUL DUP3 OR SWAP1 POP SWAP3 SWAP2 POP POP JUMP JUMPDEST PUSH2 0x854 DUP3 PUSH2 0x594 JUMP JUMPDEST PUSH8 0xFFFFFFFFFFFFFFFF DUP2 GT ISZERO PUSH2 0x86D JUMPI PUSH2 0x86C PUSH2 0x40D JUMP JUMPDEST JUMPDEST PUSH2 0x877 DUP3 SLOAD PUSH2 0x664 JUMP JUMPDEST PUSH2 0x882 DUP3 DUP3 DUP6 PUSH2 0x7BE JUMP JUMPDEST PUSH1 0x0 PUSH1 0x20 SWAP1 POP PUSH1 0x1F DUP4 GT PUSH1 0x1 DUP2 EQ PUSH2 0x8B5 JUMPI PUSH1 0x0 DUP5 ISZERO PUSH2 0x8A3 JUMPI DUP3 DUP8 ADD MLOAD SWAP1 POP JUMPDEST PUSH2 0x8AD DUP6 DUP3 PUSH2 0x82F JUMP JUMPDEST DUP7 SSTORE POP PUSH2 0x915 JUMP JUMPDEST PUSH1 0x1F NOT DUP5 AND PUSH2 0x8C3 DUP7 PUSH2 0x695 JUMP JUMPDEST PUSH1 0x0 JUMPDEST DUP3 DUP2 LT ISZERO PUSH2 0x8EB JUMPI DUP5 DUP10 ADD MLOAD DUP3 SSTORE PUSH1 0x1 DUP3 ADD SWAP2 POP PUSH1 0x20 DUP6 ADD SWAP5 POP PUSH1 0x20 DUP2 ADD SWAP1 POP PUSH2 0x8C6 JUMP JUMPDEST DUP7 DUP4 LT ISZERO PUSH2 0x908 JUMPI DUP5 DUP10 ADD MLOAD PUSH2 0x904 PUSH1 0x1F DUP10 AND DUP3 PUSH2 0x811 JUMP JUMPDEST DUP4 SSTORE POP JUMPDEST PUSH1 0x1 PUSH1 0x2 DUP9 MUL ADD DUP9 SSTORE POP POP POP JUMPDEST POP POP POP POP POP POP JUMP INVALID LOG2 PUSH5 0x6970667358 0x22 SLT KECCAK256 0xE4 0xD AND ADDRESS GASLIMIT PC 0x2A JUMPI 0xFB 0x4E 0x1F BLOCKHASH 0x27 0x2C CALL SWAP1 0xAF 0xD PUSH18 0xB574F8854010E98BC6ACA9BD9464736F6C63 NUMBER STOP ADDMOD SLT STOP CALLER "
				},
				"gasEstimates": {
					"creation": {
						"codeDepositCost": "477400",
						"executionCost": "511",
						"totalCost": "477911"
					},
					"external": {
						"Addtoname(address)": "infinite",
						"Addvalue(address,string)": "infinite",
						"Reset(address)": "infinite",
						"get(address)": "infinite"
					}
				},
				"methodIdentifiers": {
					"Addtoname(address)": "49ad234e",
					"Addvalue(address,string)": "3e845f34",
					"Reset(address)": "162f4678",
					"get(address)": "c2bc2efc"
				}
			},
			"storageLayout": {
				"storage": [
					{
						"astId": 5,
						"contract": "LAB 7-8-2023/mapping1.sol:mappings",
						"label": "Addtoname",
						"offset": 0,
						"slot": "0",
						"type": "t_mapping(t_address,t_string_storage)"
					}
				],
				"types": {
					"t_address": {
						"encoding": "inplace",
						"label": "address",
						"numberOfBytes": "20"
					},
					"t_mapping(t_address,t_string_storage)": {
						"encoding": "mapping",
						"key": "t_address",
						"label": "mapping(address => string)",
						"numberOfBytes": "32",
						"value": "t_string_storage"
					},
					"t_string_storage": {
						"encoding": "bytes",
						"label": "string",
						"numberOfBytes": "32"
					}
				}
			},
			"userdoc": {
				"kind": "user",
				"methods": {},
				"version": 1
			}
		}
	}
}