{
	"LAB 7-8-2023/Datalocations.sol": {
		"Excercise": {
			"abi": [
				{
					"inputs": [],
					"name": "initCar1",
					"outputs": [
						{
							"components": [
								{
									"internalType": "string",
									"name": "name",
									"type": "string"
								},
								{
									"internalType": "string",
									"name": "model",
									"type": "string"
								},
								{
									"internalType": "uint256",
									"name": "year",
									"type": "uint256"
								}
							],
							"internalType": "struct Excercise.CAR",
							"name": "state",
							"type": "tuple"
						},
						{
							"components": [
								{
									"internalType": "string",
									"name": "name",
									"type": "string"
								},
								{
									"internalType": "string",
									"name": "model",
									"type": "string"
								},
								{
									"internalType": "uint256",
									"name": "year",
									"type": "uint256"
								}
							],
							"internalType": "struct Excercise.CAR",
							"name": "local",
							"type": "tuple"
						}
					],
					"stateMutability": "nonpayable",
					"type": "function"
				},
				{
					"inputs": [],
					"name": "initCar2",
					"outputs": [
						{
							"components": [
								{
									"internalType": "string",
									"name": "name",
									"type": "string"
								},
								{
									"internalType": "string",
									"name": "model",
									"type": "string"
								},
								{
									"internalType": "uint256",
									"name": "year",
									"type": "uint256"
								}
							],
							"internalType": "struct Excercise.CAR",
							"name": "state",
							"type": "tuple"
						},
						{
							"components": [
								{
									"internalType": "string",
									"name": "name",
									"type": "string"
								},
								{
									"internalType": "string",
									"name": "model",
									"type": "string"
								},
								{
									"internalType": "uint256",
									"name": "year",
									"type": "uint256"
								}
							],
							"internalType": "struct Excercise.CAR",
							"name": "local",
							"type": "tuple"
						}
					],
					"stateMutability": "view",
					"type": "function"
				}
			],
			"devdoc": {
				"kind": "dev",
				"methods": {},
				"version": 1
			},
			"evm": {
				"assembly": "    /* \"LAB 7-8-2023/Datalocations.sol\":1083:1536  contract Excercise {... */\n  mstore(0x40, 0x80)\n    /* \"LAB 7-8-2023/Datalocations.sol\":1187:1215  CAR(\"Toyota\", \"Prado\", 2000) */\n  mload(0x40)\n  dup1\n  0x60\n  add\n  0x40\n  mstore\n  dup1\n  mload(0x40)\n  dup1\n  0x40\n  add\n  0x40\n  mstore\n  dup1\n  0x06\n  dup2\n  mstore\n  0x20\n  add\n  0x546f796f74610000000000000000000000000000000000000000000000000000\n  dup2\n  mstore\n  pop\n  dup2\n  mstore\n  0x20\n  add\n  mload(0x40)\n  dup1\n  0x40\n  add\n  0x40\n  mstore\n  dup1\n  0x05\n  dup2\n  mstore\n  0x20\n  add\n  0x507261646f000000000000000000000000000000000000000000000000000000\n  dup2\n  mstore\n  pop\n  dup2\n  mstore\n  0x20\n  add\n    /* \"LAB 7-8-2023/Datalocations.sol\":1210:1214  2000 */\n  0x07d0\n    /* \"LAB 7-8-2023/Datalocations.sol\":1187:1215  CAR(\"Toyota\", \"Prado\", 2000) */\n  dup2\n  mstore\n  pop\n    /* \"LAB 7-8-2023/Datalocations.sol\":1179:1215  CAR car=CAR(\"Toyota\", \"Prado\", 2000) */\n  0x00\n  dup1\n  dup3\n  add\n  mload\n  dup2\n  0x00\n  add\n  swap1\n  dup2\n  tag_1\n  swap2\n  swap1\n  tag_2\n  jump\t// in\ntag_1:\n  pop\n  0x20\n  dup3\n  add\n  mload\n  dup2\n  0x01\n  add\n  swap1\n  dup2\n  tag_3\n  swap2\n  swap1\n  tag_2\n  jump\t// in\ntag_3:\n  pop\n  0x40\n  dup3\n  add\n  mload\n  dup2\n  0x02\n  add\n  sstore\n  pop\n  pop\n    /* \"LAB 7-8-2023/Datalocations.sol\":1083:1536  contract Excercise {... */\n  callvalue\n  dup1\n  iszero\n  tag_4\n  jumpi\n  0x00\n  dup1\n  revert\ntag_4:\n  pop\n  jump(tag_5)\n    /* \"#utility.yul\":7:106   */\ntag_6:\n    /* \"#utility.yul\":59:65   */\n  0x00\n    /* \"#utility.yul\":93:98   */\n  dup2\n    /* \"#utility.yul\":87:99   */\n  mload\n    /* \"#utility.yul\":77:99   */\n  swap1\n  pop\n    /* \"#utility.yul\":7:106   */\n  swap2\n  swap1\n  pop\n  jump\t// out\n    /* \"#utility.yul\":112:292   */\ntag_7:\n    /* \"#utility.yul\":160:237   */\n  0x4e487b7100000000000000000000000000000000000000000000000000000000\n    /* \"#utility.yul\":157:158   */\n  0x00\n    /* \"#utility.yul\":150:238   */\n  mstore\n    /* \"#utility.yul\":257:261   */\n  0x41\n    /* \"#utility.yul\":254:255   */\n  0x04\n    /* \"#utility.yul\":247:262   */\n  mstore\n    /* \"#utility.yul\":281:285   */\n  0x24\n    /* \"#utility.yul\":278:279   */\n  0x00\n    /* \"#utility.yul\":271:286   */\n  revert\n    /* \"#utility.yul\":298:478   */\ntag_8:\n    /* \"#utility.yul\":346:423   */\n  0x4e487b7100000000000000000000000000000000000000000000000000000000\n    /* \"#utility.yul\":343:344   */\n  0x00\n    /* \"#utility.yul\":336:424   */\n  mstore\n    /* \"#utility.yul\":443:447   */\n  0x22\n    /* \"#utility.yul\":440:441   */\n  0x04\n    /* \"#utility.yul\":433:448   */\n  mstore\n    /* \"#utility.yul\":467:471   */\n  0x24\n    /* \"#utility.yul\":464:465   */\n  0x00\n    /* \"#utility.yul\":457:472   */\n  revert\n    /* \"#utility.yul\":484:804   */\ntag_9:\n    /* \"#utility.yul\":528:534   */\n  0x00\n    /* \"#utility.yul\":565:566   */\n  0x02\n    /* \"#utility.yul\":559:563   */\n  dup3\n    /* \"#utility.yul\":555:567   */\n  div\n    /* \"#utility.yul\":545:567   */\n  swap1\n  pop\n    /* \"#utility.yul\":612:613   */\n  0x01\n    /* \"#utility.yul\":606:610   */\n  dup3\n    /* \"#utility.yul\":602:614   */\n  and\n    /* \"#utility.yul\":633:651   */\n  dup1\n    /* \"#utility.yul\":623:704   */\n  tag_31\n  jumpi\n    /* \"#utility.yul\":689:693   */\n  0x7f\n    /* \"#utility.yul\":681:687   */\n  dup3\n    /* \"#utility.yul\":677:694   */\n  and\n    /* \"#utility.yul\":667:694   */\n  swap2\n  pop\n    /* \"#utility.yul\":623:704   */\ntag_31:\n    /* \"#utility.yul\":751:753   */\n  0x20\n    /* \"#utility.yul\":743:749   */\n  dup3\n    /* \"#utility.yul\":740:754   */\n  lt\n    /* \"#utility.yul\":720:738   */\n  dup2\n    /* \"#utility.yul\":717:755   */\n  sub\n    /* \"#utility.yul\":714:798   */\n  tag_32\n  jumpi\n    /* \"#utility.yul\":770:788   */\n  tag_33\n  tag_8\n  jump\t// in\ntag_33:\n    /* \"#utility.yul\":714:798   */\ntag_32:\n    /* \"#utility.yul\":535:804   */\n  pop\n    /* \"#utility.yul\":484:804   */\n  swap2\n  swap1\n  pop\n  jump\t// out\n    /* \"#utility.yul\":810:951   */\ntag_10:\n    /* \"#utility.yul\":859:863   */\n  0x00\n    /* \"#utility.yul\":882:885   */\n  dup2\n    /* \"#utility.yul\":874:885   */\n  swap1\n  pop\n    /* \"#utility.yul\":905:908   */\n  dup2\n    /* \"#utility.yul\":902:903   */\n  0x00\n    /* \"#utility.yul\":895:909   */\n  mstore\n    /* \"#utility.yul\":939:943   */\n  0x20\n    /* \"#utility.yul\":936:937   */\n  0x00\n    /* \"#utility.yul\":926:944   */\n  keccak256\n    /* \"#utility.yul\":918:944   */\n  swap1\n  pop\n    /* \"#utility.yul\":810:951   */\n  swap2\n  swap1\n  pop\n  jump\t// out\n    /* \"#utility.yul\":957:1050   */\ntag_11:\n    /* \"#utility.yul\":994:1000   */\n  0x00\n    /* \"#utility.yul\":1041:1043   */\n  0x20\n    /* \"#utility.yul\":1036:1038   */\n  0x1f\n    /* \"#utility.yul\":1029:1034   */\n  dup4\n    /* \"#utility.yul\":1025:1039   */\n  add\n    /* \"#utility.yul\":1021:1044   */\n  div\n    /* \"#utility.yul\":1011:1044   */\n  swap1\n  pop\n    /* \"#utility.yul\":957:1050   */\n  swap2\n  swap1\n  pop\n  jump\t// out\n    /* \"#utility.yul\":1056:1163   */\ntag_12:\n    /* \"#utility.yul\":1100:1108   */\n  0x00\n    /* \"#utility.yul\":1150:1155   */\n  dup3\n    /* \"#utility.yul\":1144:1148   */\n  dup3\n    /* \"#utility.yul\":1140:1156   */\n  shl\n    /* \"#utility.yul\":1119:1156   */\n  swap1\n  pop\n    /* \"#utility.yul\":1056:1163   */\n  swap3\n  swap2\n  pop\n  pop\n  jump\t// out\n    /* \"#utility.yul\":1169:1562   */\ntag_13:\n    /* \"#utility.yul\":1238:1244   */\n  0x00\n    /* \"#utility.yul\":1288:1289   */\n  0x08\n    /* \"#utility.yul\":1276:1286   */\n  dup4\n    /* \"#utility.yul\":1272:1290   */\n  mul\n    /* \"#utility.yul\":1311:1408   */\n  tag_38\n    /* \"#utility.yul\":1341:1407   */\n  0xffffffffffffffffffffffffffffffffffffffffffffffffffffffffffffffff\n    /* \"#utility.yul\":1330:1339   */\n  dup3\n    /* \"#utility.yul\":1311:1408   */\n  tag_12\n  jump\t// in\ntag_38:\n    /* \"#utility.yul\":1429:1468   */\n  tag_39\n    /* \"#utility.yul\":1459:1467   */\n  dup7\n    /* \"#utility.yul\":1448:1457   */\n  dup4\n    /* \"#utility.yul\":1429:1468   */\n  tag_12\n  jump\t// in\ntag_39:\n    /* \"#utility.yul\":1417:1468   */\n  swap6\n  pop\n    /* \"#utility.yul\":1501:1505   */\n  dup1\n    /* \"#utility.yul\":1497:1506   */\n  not\n    /* \"#utility.yul\":1490:1495   */\n  dup5\n    /* \"#utility.yul\":1486:1507   */\n  and\n    /* \"#utility.yul\":1477:1507   */\n  swap4\n  pop\n    /* \"#utility.yul\":1550:1554   */\n  dup1\n    /* \"#utility.yul\":1540:1548   */\n  dup7\n    /* \"#utility.yul\":1536:1555   */\n  and\n    /* \"#utility.yul\":1529:1534   */\n  dup5\n    /* \"#utility.yul\":1526:1556   */\n  or\n    /* \"#utility.yul\":1516:1556   */\n  swap3\n  pop\n    /* \"#utility.yul\":1245:1562   */\n  pop\n  pop\n    /* \"#utility.yul\":1169:1562   */\n  swap4\n  swap3\n  pop\n  pop\n  pop\n  jump\t// out\n    /* \"#utility.yul\":1568:1645   */\ntag_14:\n    /* \"#utility.yul\":1605:1612   */\n  0x00\n    /* \"#utility.yul\":1634:1639   */\n  dup2\n    /* \"#utility.yul\":1623:1639   */\n  swap1\n  pop\n    /* \"#utility.yul\":1568:1645   */\n  swap2\n  swap1\n  pop\n  jump\t// out\n    /* \"#utility.yul\":1651:1711   */\ntag_15:\n    /* \"#utility.yul\":1679:1682   */\n  0x00\n    /* \"#utility.yul\":1700:1705   */\n  dup2\n    /* \"#utility.yul\":1693:1705   */\n  swap1\n  pop\n    /* \"#utility.yul\":1651:1711   */\n  swap2\n  swap1\n  pop\n  jump\t// out\n    /* \"#utility.yul\":1717:1859   */\ntag_16:\n    /* \"#utility.yul\":1767:1776   */\n  0x00\n    /* \"#utility.yul\":1800:1853   */\n  tag_43\n    /* \"#utility.yul\":1818:1852   */\n  tag_44\n    /* \"#utility.yul\":1827:1851   */\n  tag_45\n    /* \"#utility.yul\":1845:1850   */\n  dup5\n    /* \"#utility.yul\":1827:1851   */\n  tag_14\n  jump\t// in\ntag_45:\n    /* \"#utility.yul\":1818:1852   */\n  tag_15\n  jump\t// in\ntag_44:\n    /* \"#utility.yul\":1800:1853   */\n  tag_14\n  jump\t// in\ntag_43:\n    /* \"#utility.yul\":1787:1853   */\n  swap1\n  pop\n    /* \"#utility.yul\":1717:1859   */\n  swap2\n  swap1\n  pop\n  jump\t// out\n    /* \"#utility.yul\":1865:1940   */\ntag_17:\n    /* \"#utility.yul\":1908:1911   */\n  0x00\n    /* \"#utility.yul\":1929:1934   */\n  dup2\n    /* \"#utility.yul\":1922:1934   */\n  swap1\n  pop\n    /* \"#utility.yul\":1865:1940   */\n  swap2\n  swap1\n  pop\n  jump\t// out\n    /* \"#utility.yul\":1946:2215   */\ntag_18:\n    /* \"#utility.yul\":2056:2095   */\n  tag_48\n    /* \"#utility.yul\":2087:2094   */\n  dup4\n    /* \"#utility.yul\":2056:2095   */\n  tag_16\n  jump\t// in\ntag_48:\n    /* \"#utility.yul\":2117:2208   */\n  tag_49\n    /* \"#utility.yul\":2166:2207   */\n  tag_50\n    /* \"#utility.yul\":2190:2206   */\n  dup3\n    /* \"#utility.yul\":2166:2207   */\n  tag_17\n  jump\t// in\ntag_50:\n    /* \"#utility.yul\":2158:2164   */\n  dup5\n    /* \"#utility.yul\":2151:2155   */\n  dup5\n    /* \"#utility.yul\":2145:2156   */\n  sload\n    /* \"#utility.yul\":2117:2208   */\n  tag_13\n  jump\t// in\ntag_49:\n    /* \"#utility.yul\":2111:2115   */\n  dup3\n    /* \"#utility.yul\":2104:2209   */\n  sstore\n    /* \"#utility.yul\":2022:2215   */\n  pop\n    /* \"#utility.yul\":1946:2215   */\n  pop\n  pop\n  pop\n  jump\t// out\n    /* \"#utility.yul\":2221:2294   */\ntag_19:\n    /* \"#utility.yul\":2266:2269   */\n  0x00\n    /* \"#utility.yul\":2221:2294   */\n  swap1\n  jump\t// out\n    /* \"#utility.yul\":2300:2489   */\ntag_20:\n    /* \"#utility.yul\":2377:2409   */\n  tag_53\n  tag_19\n  jump\t// in\ntag_53:\n    /* \"#utility.yul\":2418:2483   */\n  tag_54\n    /* \"#utility.yul\":2476:2482   */\n  dup2\n    /* \"#utility.yul\":2468:2474   */\n  dup5\n    /* \"#utility.yul\":2462:2466   */\n  dup5\n    /* \"#utility.yul\":2418:2483   */\n  tag_18\n  jump\t// in\ntag_54:\n    /* \"#utility.yul\":2353:2489   */\n  pop\n    /* \"#utility.yul\":2300:2489   */\n  pop\n  pop\n  jump\t// out\n    /* \"#utility.yul\":2495:2681   */\ntag_21:\n    /* \"#utility.yul\":2555:2675   */\ntag_56:\n    /* \"#utility.yul\":2572:2575   */\n  dup2\n    /* \"#utility.yul\":2565:2570   */\n  dup2\n    /* \"#utility.yul\":2562:2576   */\n  lt\n    /* \"#utility.yul\":2555:2675   */\n  iszero\n  tag_58\n  jumpi\n    /* \"#utility.yul\":2626:2665   */\n  tag_59\n    /* \"#utility.yul\":2663:2664   */\n  0x00\n    /* \"#utility.yul\":2656:2661   */\n  dup3\n    /* \"#utility.yul\":2626:2665   */\n  tag_20\n  jump\t// in\ntag_59:\n    /* \"#utility.yul\":2599:2600   */\n  0x01\n    /* \"#utility.yul\":2592:2597   */\n  dup2\n    /* \"#utility.yul\":2588:2601   */\n  add\n    /* \"#utility.yul\":2579:2601   */\n  swap1\n  pop\n    /* \"#utility.yul\":2555:2675   */\n  jump(tag_56)\ntag_58:\n    /* \"#utility.yul\":2495:2681   */\n  pop\n  pop\n  jump\t// out\n    /* \"#utility.yul\":2687:3230   */\ntag_22:\n    /* \"#utility.yul\":2788:2790   */\n  0x1f\n    /* \"#utility.yul\":2783:2786   */\n  dup3\n    /* \"#utility.yul\":2780:2791   */\n  gt\n    /* \"#utility.yul\":2777:3223   */\n  iszero\n  tag_61\n  jumpi\n    /* \"#utility.yul\":2822:2860   */\n  tag_62\n    /* \"#utility.yul\":2854:2859   */\n  dup2\n    /* \"#utility.yul\":2822:2860   */\n  tag_10\n  jump\t// in\ntag_62:\n    /* \"#utility.yul\":2906:2935   */\n  tag_63\n    /* \"#utility.yul\":2924:2934   */\n  dup5\n    /* \"#utility.yul\":2906:2935   */\n  tag_11\n  jump\t// in\ntag_63:\n    /* \"#utility.yul\":2896:2904   */\n  dup2\n    /* \"#utility.yul\":2892:2936   */\n  add\n    /* \"#utility.yul\":3089:3091   */\n  0x20\n    /* \"#utility.yul\":3077:3087   */\n  dup6\n    /* \"#utility.yul\":3074:3092   */\n  lt\n    /* \"#utility.yul\":3071:3120   */\n  iszero\n  tag_64\n  jumpi\n    /* \"#utility.yul\":3110:3118   */\n  dup2\n    /* \"#utility.yul\":3095:3118   */\n  swap1\n  pop\n    /* \"#utility.yul\":3071:3120   */\ntag_64:\n    /* \"#utility.yul\":3133:3213   */\n  tag_65\n    /* \"#utility.yul\":3189:3211   */\n  tag_66\n    /* \"#utility.yul\":3207:3210   */\n  dup6\n    /* \"#utility.yul\":3189:3211   */\n  tag_11\n  jump\t// in\ntag_66:\n    /* \"#utility.yul\":3179:3187   */\n  dup4\n    /* \"#utility.yul\":3175:3212   */\n  add\n    /* \"#utility.yul\":3162:3173   */\n  dup3\n    /* \"#utility.yul\":3133:3213   */\n  tag_21\n  jump\t// in\ntag_65:\n    /* \"#utility.yul\":2792:3223   */\n  pop\n  pop\n    /* \"#utility.yul\":2777:3223   */\ntag_61:\n    /* \"#utility.yul\":2687:3230   */\n  pop\n  pop\n  pop\n  jump\t// out\n    /* \"#utility.yul\":3236:3353   */\ntag_23:\n    /* \"#utility.yul\":3290:3298   */\n  0x00\n    /* \"#utility.yul\":3340:3345   */\n  dup3\n    /* \"#utility.yul\":3334:3338   */\n  dup3\n    /* \"#utility.yul\":3330:3346   */\n  shr\n    /* \"#utility.yul\":3309:3346   */\n  swap1\n  pop\n    /* \"#utility.yul\":3236:3353   */\n  swap3\n  swap2\n  pop\n  pop\n  jump\t// out\n    /* \"#utility.yul\":3359:3528   */\ntag_24:\n    /* \"#utility.yul\":3403:3409   */\n  0x00\n    /* \"#utility.yul\":3436:3487   */\n  tag_69\n    /* \"#utility.yul\":3484:3485   */\n  0x00\n    /* \"#utility.yul\":3480:3486   */\n  not\n    /* \"#utility.yul\":3472:3477   */\n  dup5\n    /* \"#utility.yul\":3469:3470   */\n  0x08\n    /* \"#utility.yul\":3465:3478   */\n  mul\n    /* \"#utility.yul\":3436:3487   */\n  tag_23\n  jump\t// in\ntag_69:\n    /* \"#utility.yul\":3432:3488   */\n  not\n    /* \"#utility.yul\":3517:3521   */\n  dup1\n    /* \"#utility.yul\":3511:3515   */\n  dup4\n    /* \"#utility.yul\":3507:3522   */\n  and\n    /* \"#utility.yul\":3497:3522   */\n  swap2\n  pop\n    /* \"#utility.yul\":3410:3528   */\n  pop\n    /* \"#utility.yul\":3359:3528   */\n  swap3\n  swap2\n  pop\n  pop\n  jump\t// out\n    /* \"#utility.yul\":3533:3828   */\ntag_25:\n    /* \"#utility.yul\":3609:3613   */\n  0x00\n    /* \"#utility.yul\":3755:3784   */\n  tag_71\n    /* \"#utility.yul\":3780:3783   */\n  dup4\n    /* \"#utility.yul\":3774:3778   */\n  dup4\n    /* \"#utility.yul\":3755:3784   */\n  tag_24\n  jump\t// in\ntag_71:\n    /* \"#utility.yul\":3747:3784   */\n  swap2\n  pop\n    /* \"#utility.yul\":3817:3820   */\n  dup3\n    /* \"#utility.yul\":3814:3815   */\n  0x02\n    /* \"#utility.yul\":3810:3821   */\n  mul\n    /* \"#utility.yul\":3804:3808   */\n  dup3\n    /* \"#utility.yul\":3801:3822   */\n  or\n    /* \"#utility.yul\":3793:3822   */\n  swap1\n  pop\n    /* \"#utility.yul\":3533:3828   */\n  swap3\n  swap2\n  pop\n  pop\n  jump\t// out\n    /* \"#utility.yul\":3833:5228   */\ntag_2:\n    /* \"#utility.yul\":3950:3987   */\n  tag_73\n    /* \"#utility.yul\":3983:3986   */\n  dup3\n    /* \"#utility.yul\":3950:3987   */\n  tag_6\n  jump\t// in\ntag_73:\n    /* \"#utility.yul\":4052:4070   */\n  0xffffffffffffffff\n    /* \"#utility.yul\":4044:4050   */\n  dup2\n    /* \"#utility.yul\":4041:4071   */\n  gt\n    /* \"#utility.yul\":4038:4094   */\n  iszero\n  tag_74\n  jumpi\n    /* \"#utility.yul\":4074:4092   */\n  tag_75\n  tag_7\n  jump\t// in\ntag_75:\n    /* \"#utility.yul\":4038:4094   */\ntag_74:\n    /* \"#utility.yul\":4118:4156   */\n  tag_76\n    /* \"#utility.yul\":4150:4154   */\n  dup3\n    /* \"#utility.yul\":4144:4155   */\n  sload\n    /* \"#utility.yul\":4118:4156   */\n  tag_9\n  jump\t// in\ntag_76:\n    /* \"#utility.yul\":4203:4270   */\n  tag_77\n    /* \"#utility.yul\":4263:4269   */\n  dup3\n    /* \"#utility.yul\":4255:4261   */\n  dup3\n    /* \"#utility.yul\":4249:4253   */\n  dup6\n    /* \"#utility.yul\":4203:4270   */\n  tag_22\n  jump\t// in\ntag_77:\n    /* \"#utility.yul\":4297:4298   */\n  0x00\n    /* \"#utility.yul\":4321:4325   */\n  0x20\n    /* \"#utility.yul\":4308:4325   */\n  swap1\n  pop\n    /* \"#utility.yul\":4353:4355   */\n  0x1f\n    /* \"#utility.yul\":4345:4351   */\n  dup4\n    /* \"#utility.yul\":4342:4356   */\n  gt\n    /* \"#utility.yul\":4370:4371   */\n  0x01\n    /* \"#utility.yul\":4365:4983   */\n  dup2\n  eq\n  tag_79\n  jumpi\n    /* \"#utility.yul\":5027:5028   */\n  0x00\n    /* \"#utility.yul\":5044:5050   */\n  dup5\n    /* \"#utility.yul\":5041:5118   */\n  iszero\n  tag_80\n  jumpi\n    /* \"#utility.yul\":5093:5102   */\n  dup3\n    /* \"#utility.yul\":5088:5091   */\n  dup8\n    /* \"#utility.yul\":5084:5103   */\n  add\n    /* \"#utility.yul\":5078:5104   */\n  mload\n    /* \"#utility.yul\":5069:5104   */\n  swap1\n  pop\n    /* \"#utility.yul\":5041:5118   */\ntag_80:\n    /* \"#utility.yul\":5144:5211   */\n  tag_81\n    /* \"#utility.yul\":5204:5210   */\n  dup6\n    /* \"#utility.yul\":5197:5202   */\n  dup3\n    /* \"#utility.yul\":5144:5211   */\n  tag_25\n  jump\t// in\ntag_81:\n    /* \"#utility.yul\":5138:5142   */\n  dup7\n    /* \"#utility.yul\":5131:5212   */\n  sstore\n    /* \"#utility.yul\":5000:5222   */\n  pop\n    /* \"#utility.yul\":4335:5222   */\n  jump(tag_78)\n    /* \"#utility.yul\":4365:4983   */\ntag_79:\n    /* \"#utility.yul\":4417:4421   */\n  0x1f\n    /* \"#utility.yul\":4413:4422   */\n  not\n    /* \"#utility.yul\":4405:4411   */\n  dup5\n    /* \"#utility.yul\":4401:4423   */\n  and\n    /* \"#utility.yul\":4451:4488   */\n  tag_82\n    /* \"#utility.yul\":4483:4487   */\n  dup7\n    /* \"#utility.yul\":4451:4488   */\n  tag_10\n  jump\t// in\ntag_82:\n    /* \"#utility.yul\":4510:4511   */\n  0x00\n    /* \"#utility.yul\":4524:4732   */\ntag_83:\n    /* \"#utility.yul\":4538:4545   */\n  dup3\n    /* \"#utility.yul\":4535:4536   */\n  dup2\n    /* \"#utility.yul\":4532:4546   */\n  lt\n    /* \"#utility.yul\":4524:4732   */\n  iszero\n  tag_85\n  jumpi\n    /* \"#utility.yul\":4617:4626   */\n  dup5\n    /* \"#utility.yul\":4612:4615   */\n  dup10\n    /* \"#utility.yul\":4608:4627   */\n  add\n    /* \"#utility.yul\":4602:4628   */\n  mload\n    /* \"#utility.yul\":4594:4600   */\n  dup3\n    /* \"#utility.yul\":4587:4629   */\n  sstore\n    /* \"#utility.yul\":4668:4669   */\n  0x01\n    /* \"#utility.yul\":4660:4666   */\n  dup3\n    /* \"#utility.yul\":4656:4670   */\n  add\n    /* \"#utility.yul\":4646:4670   */\n  swap2\n  pop\n    /* \"#utility.yul\":4715:4717   */\n  0x20\n    /* \"#utility.yul\":4704:4713   */\n  dup6\n    /* \"#utility.yul\":4700:4718   */\n  add\n    /* \"#utility.yul\":4687:4718   */\n  swap5\n  pop\n    /* \"#utility.yul\":4561:4565   */\n  0x20\n    /* \"#utility.yul\":4558:4559   */\n  dup2\n    /* \"#utility.yul\":4554:4566   */\n  add\n    /* \"#utility.yul\":4549:4566   */\n  swap1\n  pop\n    /* \"#utility.yul\":4524:4732   */\n  jump(tag_83)\ntag_85:\n    /* \"#utility.yul\":4760:4766   */\n  dup7\n    /* \"#utility.yul\":4751:4758   */\n  dup4\n    /* \"#utility.yul\":4748:4767   */\n  lt\n    /* \"#utility.yul\":4745:4924   */\n  iszero\n  tag_86\n  jumpi\n    /* \"#utility.yul\":4818:4827   */\n  dup5\n    /* \"#utility.yul\":4813:4816   */\n  dup10\n    /* \"#utility.yul\":4809:4828   */\n  add\n    /* \"#utility.yul\":4803:4829   */\n  mload\n    /* \"#utility.yul\":4861:4909   */\n  tag_87\n    /* \"#utility.yul\":4903:4907   */\n  0x1f\n    /* \"#utility.yul\":4895:4901   */\n  dup10\n    /* \"#utility.yul\":4891:4908   */\n  and\n    /* \"#utility.yul\":4880:4889   */\n  dup3\n    /* \"#utility.yul\":4861:4909   */\n  tag_24\n  jump\t// in\ntag_87:\n    /* \"#utility.yul\":4853:4859   */\n  dup4\n    /* \"#utility.yul\":4846:4910   */\n  sstore\n    /* \"#utility.yul\":4768:4924   */\n  pop\n    /* \"#utility.yul\":4745:4924   */\ntag_86:\n    /* \"#utility.yul\":4970:4971   */\n  0x01\n    /* \"#utility.yul\":4966:4967   */\n  0x02\n    /* \"#utility.yul\":4958:4964   */\n  dup9\n    /* \"#utility.yul\":4954:4968   */\n  mul\n    /* \"#utility.yul\":4950:4972   */\n  add\n    /* \"#utility.yul\":4944:4948   */\n  dup9\n    /* \"#utility.yul\":4937:4973   */\n  sstore\n    /* \"#utility.yul\":4372:4983   */\n  pop\n  pop\n  pop\n    /* \"#utility.yul\":4335:5222   */\ntag_78:\n  pop\n    /* \"#utility.yul\":3925:5228   */\n  pop\n  pop\n  pop\n    /* \"#utility.yul\":3833:5228   */\n  pop\n  pop\n  jump\t// out\n    /* \"LAB 7-8-2023/Datalocations.sol\":1083:1536  contract Excercise {... */\ntag_5:\n  dataSize(sub_0)\n  dup1\n  dataOffset(sub_0)\n  0x00\n  codecopy\n  0x00\n  return\nstop\n\nsub_0: assembly {\n        /* \"LAB 7-8-2023/Datalocations.sol\":1083:1536  contract Excercise {... */\n      mstore(0x40, 0x80)\n      callvalue\n      dup1\n      iszero\n      tag_1\n      jumpi\n      0x00\n      dup1\n      revert\n    tag_1:\n      pop\n      jumpi(tag_2, lt(calldatasize, 0x04))\n      shr(0xe0, calldataload(0x00))\n      dup1\n      0x1d2aec85\n      eq\n      tag_3\n      jumpi\n      dup1\n      0x6f674521\n      eq\n      tag_4\n      jumpi\n    tag_2:\n      0x00\n      dup1\n      revert\n        /* \"LAB 7-8-2023/Datalocations.sol\":1223:1409  function initCar1() public returns (CAR memory state, CAR  memory local) {... */\n    tag_3:\n      tag_5\n      tag_6\n      jump\t// in\n    tag_5:\n      mload(0x40)\n      tag_7\n      swap3\n      swap2\n      swap1\n      tag_8\n      jump\t// in\n    tag_7:\n      mload(0x40)\n      dup1\n      swap2\n      sub\n      swap1\n      return\n        /* \"LAB 7-8-2023/Datalocations.sol\":1413:1523  function initCar2() public view returns (CAR memory state, CAR  memory local) {... */\n    tag_4:\n      tag_9\n      tag_10\n      jump\t// in\n    tag_9:\n      mload(0x40)\n      tag_11\n      swap3\n      swap2\n      swap1\n      tag_8\n      jump\t// in\n    tag_11:\n      mload(0x40)\n      dup1\n      swap2\n      sub\n      swap1\n      return\n        /* \"LAB 7-8-2023/Datalocations.sol\":1223:1409  function initCar1() public returns (CAR memory state, CAR  memory local) {... */\n    tag_6:\n        /* \"LAB 7-8-2023/Datalocations.sol\":1259:1275  CAR memory state */\n      tag_12\n      tag_13\n      jump\t// in\n    tag_12:\n        /* \"LAB 7-8-2023/Datalocations.sol\":1277:1294  CAR  memory local */\n      tag_14\n      tag_13\n      jump\t// in\n    tag_14:\n        /* \"LAB 7-8-2023/Datalocations.sol\":1300:1316  CAR storage _car */\n      0x00\n        /* \"LAB 7-8-2023/Datalocations.sol\":1326:1342  _car.name=\"alto\" */\n      mload(0x40)\n      dup1\n      0x40\n      add\n      0x40\n      mstore\n      dup1\n      0x04\n      dup2\n      mstore\n      0x20\n      add\n      0x616c746f00000000000000000000000000000000000000000000000000000000\n      dup2\n      mstore\n      pop\n        /* \"LAB 7-8-2023/Datalocations.sol\":1326:1330  _car */\n      dup2\n        /* \"LAB 7-8-2023/Datalocations.sol\":1326:1335  _car.name */\n      0x00\n      add\n        /* \"LAB 7-8-2023/Datalocations.sol\":1326:1342  _car.name=\"alto\" */\n      swap1\n      dup2\n      tag_16\n      swap2\n      swap1\n      tag_17\n      jump\t// in\n    tag_16:\n      pop\n        /* \"LAB 7-8-2023/Datalocations.sol\":1346:1362  _car.model=\"kia\" */\n      mload(0x40)\n      dup1\n      0x40\n      add\n      0x40\n      mstore\n      dup1\n      0x03\n      dup2\n      mstore\n      0x20\n      add\n      0x6b69610000000000000000000000000000000000000000000000000000000000\n      dup2\n      mstore\n      pop\n        /* \"LAB 7-8-2023/Datalocations.sol\":1346:1350  _car */\n      dup2\n        /* \"LAB 7-8-2023/Datalocations.sol\":1346:1356  _car.model */\n      0x01\n      add\n        /* \"LAB 7-8-2023/Datalocations.sol\":1346:1362  _car.model=\"kia\" */\n      swap1\n      dup2\n      tag_18\n      swap2\n      swap1\n      tag_17\n      jump\t// in\n    tag_18:\n      pop\n        /* \"LAB 7-8-2023/Datalocations.sol\":1376:1380  2012 */\n      0x07dc\n        /* \"LAB 7-8-2023/Datalocations.sol\":1366:1370  _car */\n      dup2\n        /* \"LAB 7-8-2023/Datalocations.sol\":1366:1375  _car.year */\n      0x02\n      add\n        /* \"LAB 7-8-2023/Datalocations.sol\":1366:1380  _car.year=2012 */\n      dup2\n      swap1\n      sstore\n      pop\n        /* \"LAB 7-8-2023/Datalocations.sol\":1394:1397  car */\n      0x00\n        /* \"LAB 7-8-2023/Datalocations.sol\":1399:1403  _car */\n      dup2\n        /* \"LAB 7-8-2023/Datalocations.sol\":1386:1404  return (car, _car) */\n      dup2\n      mload(0x40)\n      dup1\n      0x60\n      add\n      0x40\n      mstore\n      swap1\n      dup2\n      0x00\n      dup3\n      add\n      dup1\n      sload\n      tag_19\n      swap1\n      tag_20\n      jump\t// in\n    tag_19:\n      dup1\n      0x1f\n      add\n      0x20\n      dup1\n      swap2\n      div\n      mul\n      0x20\n      add\n      mload(0x40)\n      swap1\n      dup2\n      add\n      0x40\n      mstore\n      dup1\n      swap3\n      swap2\n      swap1\n      dup2\n      dup2\n      mstore\n      0x20\n      add\n      dup3\n      dup1\n      sload\n      tag_21\n      swap1\n      tag_20\n      jump\t// in\n    tag_21:\n      dup1\n      iszero\n      tag_22\n      jumpi\n      dup1\n      0x1f\n      lt\n      tag_23\n      jumpi\n      0x0100\n      dup1\n      dup4\n      sload\n      div\n      mul\n      dup4\n      mstore\n      swap2\n      0x20\n      add\n      swap2\n      jump(tag_22)\n    tag_23:\n      dup3\n      add\n      swap2\n      swap1\n      0x00\n      mstore\n      keccak256(0x00, 0x20)\n      swap1\n    tag_24:\n      dup2\n      sload\n      dup2\n      mstore\n      swap1\n      0x01\n      add\n      swap1\n      0x20\n      add\n      dup1\n      dup4\n      gt\n      tag_24\n      jumpi\n      dup3\n      swap1\n      sub\n      0x1f\n      and\n      dup3\n      add\n      swap2\n    tag_22:\n      pop\n      pop\n      pop\n      pop\n      pop\n      dup2\n      mstore\n      0x20\n      add\n      0x01\n      dup3\n      add\n      dup1\n      sload\n      tag_25\n      swap1\n      tag_20\n      jump\t// in\n    tag_25:\n      dup1\n      0x1f\n      add\n      0x20\n      dup1\n      swap2\n      div\n      mul\n      0x20\n      add\n      mload(0x40)\n      swap1\n      dup2\n      add\n      0x40\n      mstore\n      dup1\n      swap3\n      swap2\n      swap1\n      dup2\n      dup2\n      mstore\n      0x20\n      add\n      dup3\n      dup1\n      sload\n      tag_26\n      swap1\n      tag_20\n      jump\t// in\n    tag_26:\n      dup1\n      iszero\n      tag_27\n      jumpi\n      dup1\n      0x1f\n      lt\n      tag_28\n      jumpi\n      0x0100\n      dup1\n      dup4\n      sload\n      div\n      mul\n      dup4\n      mstore\n      swap2\n      0x20\n      add\n      swap2\n      jump(tag_27)\n    tag_28:\n      dup3\n      add\n      swap2\n      swap1\n      0x00\n      mstore\n      keccak256(0x00, 0x20)\n      swap1\n    tag_29:\n      dup2\n      sload\n      dup2\n      mstore\n      swap1\n      0x01\n      add\n      swap1\n      0x20\n      add\n      dup1\n      dup4\n      gt\n      tag_29\n      jumpi\n      dup3\n      swap1\n      sub\n      0x1f\n      and\n      dup3\n      add\n      swap2\n    tag_27:\n      pop\n      pop\n      pop\n      pop\n      pop\n      dup2\n      mstore\n      0x20\n      add\n      0x02\n      dup3\n      add\n      sload\n      dup2\n      mstore\n      pop\n      pop\n      swap2\n      pop\n      dup1\n      mload(0x40)\n      dup1\n      0x60\n      add\n      0x40\n      mstore\n      swap1\n      dup2\n      0x00\n      dup3\n      add\n      dup1\n      sload\n      tag_30\n      swap1\n      tag_20\n      jump\t// in\n    tag_30:\n      dup1\n      0x1f\n      add\n      0x20\n      dup1\n      swap2\n      div\n      mul\n      0x20\n      add\n      mload(0x40)\n      swap1\n      dup2\n      add\n      0x40\n      mstore\n      dup1\n      swap3\n      swap2\n      swap1\n      dup2\n      dup2\n      mstore\n      0x20\n      add\n      dup3\n      dup1\n      sload\n      tag_31\n      swap1\n      tag_20\n      jump\t// in\n    tag_31:\n      dup1\n      iszero\n      tag_32\n      jumpi\n      dup1\n      0x1f\n      lt\n      tag_33\n      jumpi\n      0x0100\n      dup1\n      dup4\n      sload\n      div\n      mul\n      dup4\n      mstore\n      swap2\n      0x20\n      add\n      swap2\n      jump(tag_32)\n    tag_33:\n      dup3\n      add\n      swap2\n      swap1\n      0x00\n      mstore\n      keccak256(0x00, 0x20)\n      swap1\n    tag_34:\n      dup2\n      sload\n      dup2\n      mstore\n      swap1\n      0x01\n      add\n      swap1\n      0x20\n      add\n      dup1\n      dup4\n      gt\n      tag_34\n      jumpi\n      dup3\n      swap1\n      sub\n      0x1f\n      and\n      dup3\n      add\n      swap2\n    tag_32:\n      pop\n      pop\n      pop\n      pop\n      pop\n      dup2\n      mstore\n      0x20\n      add\n      0x01\n      dup3\n      add\n      dup1\n      sload\n      tag_35\n      swap1\n      tag_20\n      jump\t// in\n    tag_35:\n      dup1\n      0x1f\n      add\n      0x20\n      dup1\n      swap2\n      div\n      mul\n      0x20\n      add\n      mload(0x40)\n      swap1\n      dup2\n      add\n      0x40\n      mstore\n      dup1\n      swap3\n      swap2\n      swap1\n      dup2\n      dup2\n      mstore\n      0x20\n      add\n      dup3\n      dup1\n      sload\n      tag_36\n      swap1\n      tag_20\n      jump\t// in\n    tag_36:\n      dup1\n      iszero\n      tag_37\n      jumpi\n      dup1\n      0x1f\n      lt\n      tag_38\n      jumpi\n      0x0100\n      dup1\n      dup4\n      sload\n      div\n      mul\n      dup4\n      mstore\n      swap2\n      0x20\n      add\n      swap2\n      jump(tag_37)\n    tag_38:\n      dup3\n      add\n      swap2\n      swap1\n      0x00\n      mstore\n      keccak256(0x00, 0x20)\n      swap1\n    tag_39:\n      dup2\n      sload\n      dup2\n      mstore\n      swap1\n      0x01\n      add\n      swap1\n      0x20\n      add\n      dup1\n      dup4\n      gt\n      tag_39\n      jumpi\n      dup3\n      swap1\n      sub\n      0x1f\n      and\n      dup3\n      add\n      swap2\n    tag_37:\n      pop\n      pop\n      pop\n      pop\n      pop\n      dup2\n      mstore\n      0x20\n      add\n      0x02\n      dup3\n      add\n      sload\n      dup2\n      mstore\n      pop\n      pop\n      swap1\n      pop\n      swap3\n      pop\n      swap3\n      pop\n      pop\n        /* \"LAB 7-8-2023/Datalocations.sol\":1223:1409  function initCar1() public returns (CAR memory state, CAR  memory local) {... */\n      swap1\n      swap2\n      jump\t// out\n        /* \"LAB 7-8-2023/Datalocations.sol\":1413:1523  function initCar2() public view returns (CAR memory state, CAR  memory local) {... */\n    tag_10:\n        /* \"LAB 7-8-2023/Datalocations.sol\":1454:1470  CAR memory state */\n      tag_40\n      tag_13\n      jump\t// in\n    tag_40:\n        /* \"LAB 7-8-2023/Datalocations.sol\":1472:1489  CAR  memory local */\n      tag_41\n      tag_13\n      jump\t// in\n    tag_41:\n        /* \"LAB 7-8-2023/Datalocations.sol\":1495:1510  CAR memory _car */\n      0x00\n        /* \"LAB 7-8-2023/Datalocations.sol\":1513:1516  car */\n      dup1\n        /* \"LAB 7-8-2023/Datalocations.sol\":1495:1516  CAR memory _car = car */\n      mload(0x40)\n      dup1\n      0x60\n      add\n      0x40\n      mstore\n      swap1\n      dup2\n      0x00\n      dup3\n      add\n      dup1\n      sload\n      tag_43\n      swap1\n      tag_20\n      jump\t// in\n    tag_43:\n      dup1\n      0x1f\n      add\n      0x20\n      dup1\n      swap2\n      div\n      mul\n      0x20\n      add\n      mload(0x40)\n      swap1\n      dup2\n      add\n      0x40\n      mstore\n      dup1\n      swap3\n      swap2\n      swap1\n      dup2\n      dup2\n      mstore\n      0x20\n      add\n      dup3\n      dup1\n      sload\n      tag_44\n      swap1\n      tag_20\n      jump\t// in\n    tag_44:\n      dup1\n      iszero\n      tag_45\n      jumpi\n      dup1\n      0x1f\n      lt\n      tag_46\n      jumpi\n      0x0100\n      dup1\n      dup4\n      sload\n      div\n      mul\n      dup4\n      mstore\n      swap2\n      0x20\n      add\n      swap2\n      jump(tag_45)\n    tag_46:\n      dup3\n      add\n      swap2\n      swap1\n      0x00\n      mstore\n      keccak256(0x00, 0x20)\n      swap1\n    tag_47:\n      dup2\n      sload\n      dup2\n      mstore\n      swap1\n      0x01\n      add\n      swap1\n      0x20\n      add\n      dup1\n      dup4\n      gt\n      tag_47\n      jumpi\n      dup3\n      swap1\n      sub\n      0x1f\n      and\n      dup3\n      add\n      swap2\n    tag_45:\n      pop\n      pop\n      pop\n      pop\n      pop\n      dup2\n      mstore\n      0x20\n      add\n      0x01\n      dup3\n      add\n      dup1\n      sload\n      tag_48\n      swap1\n      tag_20\n      jump\t// in\n    tag_48:\n      dup1\n      0x1f\n      add\n      0x20\n      dup1\n      swap2\n      div\n      mul\n      0x20\n      add\n      mload(0x40)\n      swap1\n      dup2\n      add\n      0x40\n      mstore\n      dup1\n      swap3\n      swap2\n      swap1\n      dup2\n      dup2\n      mstore\n      0x20\n      add\n      dup3\n      dup1\n      sload\n      tag_49\n      swap1\n      tag_20\n      jump\t// in\n    tag_49:\n      dup1\n      iszero\n      tag_50\n      jumpi\n      dup1\n      0x1f\n      lt\n      tag_51\n      jumpi\n      0x0100\n      dup1\n      dup4\n      sload\n      div\n      mul\n      dup4\n      mstore\n      swap2\n      0x20\n      add\n      swap2\n      jump(tag_50)\n    tag_51:\n      dup3\n      add\n      swap2\n      swap1\n      0x00\n      mstore\n      keccak256(0x00, 0x20)\n      swap1\n    tag_52:\n      dup2\n      sload\n      dup2\n      mstore\n      swap1\n      0x01\n      add\n      swap1\n      0x20\n      add\n      dup1\n      dup4\n      gt\n      tag_52\n      jumpi\n      dup3\n      swap1\n      sub\n      0x1f\n      and\n      dup3\n      add\n      swap2\n    tag_50:\n      pop\n      pop\n      pop\n      pop\n      pop\n      dup2\n      mstore\n      0x20\n      add\n      0x02\n      dup3\n      add\n      sload\n      dup2\n      mstore\n      pop\n      pop\n      swap1\n      pop\n        /* \"LAB 7-8-2023/Datalocations.sol\":1491:1523  {... */\n      pop\n        /* \"LAB 7-8-2023/Datalocations.sol\":1413:1523  function initCar2() public view returns (CAR memory state, CAR  memory local) {... */\n      swap1\n      swap2\n      jump\t// out\n    tag_13:\n      mload(0x40)\n      dup1\n      0x60\n      add\n      0x40\n      mstore\n      dup1\n      0x60\n      dup2\n      mstore\n      0x20\n      add\n      0x60\n      dup2\n      mstore\n      0x20\n      add\n      0x00\n      dup2\n      mstore\n      pop\n      swap1\n      jump\t// out\n        /* \"#utility.yul\":7:106   */\n    tag_53:\n        /* \"#utility.yul\":59:65   */\n      0x00\n        /* \"#utility.yul\":93:98   */\n      dup2\n        /* \"#utility.yul\":87:99   */\n      mload\n        /* \"#utility.yul\":77:99   */\n      swap1\n      pop\n        /* \"#utility.yul\":7:106   */\n      swap2\n      swap1\n      pop\n      jump\t// out\n        /* \"#utility.yul\":112:271   */\n    tag_54:\n        /* \"#utility.yul\":186:197   */\n      0x00\n        /* \"#utility.yul\":220:226   */\n      dup3\n        /* \"#utility.yul\":215:218   */\n      dup3\n        /* \"#utility.yul\":208:227   */\n      mstore\n        /* \"#utility.yul\":260:264   */\n      0x20\n        /* \"#utility.yul\":255:258   */\n      dup3\n        /* \"#utility.yul\":251:265   */\n      add\n        /* \"#utility.yul\":236:265   */\n      swap1\n      pop\n        /* \"#utility.yul\":112:271   */\n      swap3\n      swap2\n      pop\n      pop\n      jump\t// out\n        /* \"#utility.yul\":277:523   */\n    tag_55:\n        /* \"#utility.yul\":358:359   */\n      0x00\n        /* \"#utility.yul\":368:481   */\n    tag_82:\n        /* \"#utility.yul\":382:388   */\n      dup4\n        /* \"#utility.yul\":379:380   */\n      dup2\n        /* \"#utility.yul\":376:389   */\n      lt\n        /* \"#utility.yul\":368:481   */\n      iszero\n      tag_84\n      jumpi\n        /* \"#utility.yul\":467:468   */\n      dup1\n        /* \"#utility.yul\":462:465   */\n      dup3\n        /* \"#utility.yul\":458:469   */\n      add\n        /* \"#utility.yul\":452:470   */\n      mload\n        /* \"#utility.yul\":448:449   */\n      dup2\n        /* \"#utility.yul\":443:446   */\n      dup5\n        /* \"#utility.yul\":439:450   */\n      add\n        /* \"#utility.yul\":432:471   */\n      mstore\n        /* \"#utility.yul\":404:406   */\n      0x20\n        /* \"#utility.yul\":401:402   */\n      dup2\n        /* \"#utility.yul\":397:407   */\n      add\n        /* \"#utility.yul\":392:407   */\n      swap1\n      pop\n        /* \"#utility.yul\":368:481   */\n      jump(tag_82)\n    tag_84:\n        /* \"#utility.yul\":515:516   */\n      0x00\n        /* \"#utility.yul\":506:512   */\n      dup5\n        /* \"#utility.yul\":501:504   */\n      dup5\n        /* \"#utility.yul\":497:513   */\n      add\n        /* \"#utility.yul\":490:517   */\n      mstore\n        /* \"#utility.yul\":339:523   */\n      pop\n        /* \"#utility.yul\":277:523   */\n      pop\n      pop\n      pop\n      jump\t// out\n        /* \"#utility.yul\":529:631   */\n    tag_56:\n        /* \"#utility.yul\":570:576   */\n      0x00\n        /* \"#utility.yul\":621:623   */\n      0x1f\n        /* \"#utility.yul\":617:624   */\n      not\n        /* \"#utility.yul\":612:614   */\n      0x1f\n        /* \"#utility.yul\":605:610   */\n      dup4\n        /* \"#utility.yul\":601:615   */\n      add\n        /* \"#utility.yul\":597:625   */\n      and\n        /* \"#utility.yul\":587:625   */\n      swap1\n      pop\n        /* \"#utility.yul\":529:631   */\n      swap2\n      swap1\n      pop\n      jump\t// out\n        /* \"#utility.yul\":637:994   */\n    tag_57:\n        /* \"#utility.yul\":715:718   */\n      0x00\n        /* \"#utility.yul\":743:782   */\n      tag_87\n        /* \"#utility.yul\":776:781   */\n      dup3\n        /* \"#utility.yul\":743:782   */\n      tag_53\n      jump\t// in\n    tag_87:\n        /* \"#utility.yul\":798:859   */\n      tag_88\n        /* \"#utility.yul\":852:858   */\n      dup2\n        /* \"#utility.yul\":847:850   */\n      dup6\n        /* \"#utility.yul\":798:859   */\n      tag_54\n      jump\t// in\n    tag_88:\n        /* \"#utility.yul\":791:859   */\n      swap4\n      pop\n        /* \"#utility.yul\":868:933   */\n      tag_89\n        /* \"#utility.yul\":926:932   */\n      dup2\n        /* \"#utility.yul\":921:924   */\n      dup6\n        /* \"#utility.yul\":914:918   */\n      0x20\n        /* \"#utility.yul\":907:912   */\n      dup7\n        /* \"#utility.yul\":903:919   */\n      add\n        /* \"#utility.yul\":868:933   */\n      tag_55\n      jump\t// in\n    tag_89:\n        /* \"#utility.yul\":958:987   */\n      tag_90\n        /* \"#utility.yul\":980:986   */\n      dup2\n        /* \"#utility.yul\":958:987   */\n      tag_56\n      jump\t// in\n    tag_90:\n        /* \"#utility.yul\":953:956   */\n      dup5\n        /* \"#utility.yul\":949:988   */\n      add\n        /* \"#utility.yul\":942:988   */\n      swap2\n      pop\n        /* \"#utility.yul\":719:994   */\n      pop\n        /* \"#utility.yul\":637:994   */\n      swap3\n      swap2\n      pop\n      pop\n      jump\t// out\n        /* \"#utility.yul\":1000:1077   */\n    tag_58:\n        /* \"#utility.yul\":1037:1044   */\n      0x00\n        /* \"#utility.yul\":1066:1071   */\n      dup2\n        /* \"#utility.yul\":1055:1071   */\n      swap1\n      pop\n        /* \"#utility.yul\":1000:1077   */\n      swap2\n      swap1\n      pop\n      jump\t// out\n        /* \"#utility.yul\":1083:1191   */\n    tag_59:\n        /* \"#utility.yul\":1160:1184   */\n      tag_93\n        /* \"#utility.yul\":1178:1183   */\n      dup2\n        /* \"#utility.yul\":1160:1184   */\n      tag_58\n      jump\t// in\n    tag_93:\n        /* \"#utility.yul\":1155:1158   */\n      dup3\n        /* \"#utility.yul\":1148:1185   */\n      mstore\n        /* \"#utility.yul\":1083:1191   */\n      pop\n      pop\n      jump\t// out\n        /* \"#utility.yul\":1249:2087   */\n    tag_60:\n        /* \"#utility.yul\":1354:1357   */\n      0x00\n        /* \"#utility.yul\":1390:1394   */\n      0x60\n        /* \"#utility.yul\":1385:1388   */\n      dup4\n        /* \"#utility.yul\":1381:1395   */\n      add\n        /* \"#utility.yul\":1477:1481   */\n      0x00\n        /* \"#utility.yul\":1470:1475   */\n      dup4\n        /* \"#utility.yul\":1466:1482   */\n      add\n        /* \"#utility.yul\":1460:1483   */\n      mload\n        /* \"#utility.yul\":1530:1533   */\n      dup5\n        /* \"#utility.yul\":1524:1528   */\n      dup3\n        /* \"#utility.yul\":1520:1534   */\n      sub\n        /* \"#utility.yul\":1513:1517   */\n      0x00\n        /* \"#utility.yul\":1508:1511   */\n      dup7\n        /* \"#utility.yul\":1504:1518   */\n      add\n        /* \"#utility.yul\":1497:1535   */\n      mstore\n        /* \"#utility.yul\":1556:1629   */\n      tag_95\n        /* \"#utility.yul\":1624:1628   */\n      dup3\n        /* \"#utility.yul\":1610:1622   */\n      dup3\n        /* \"#utility.yul\":1556:1629   */\n      tag_57\n      jump\t// in\n    tag_95:\n        /* \"#utility.yul\":1548:1629   */\n      swap2\n      pop\n        /* \"#utility.yul\":1405:1640   */\n      pop\n        /* \"#utility.yul\":1723:1727   */\n      0x20\n        /* \"#utility.yul\":1716:1721   */\n      dup4\n        /* \"#utility.yul\":1712:1728   */\n      add\n        /* \"#utility.yul\":1706:1729   */\n      mload\n        /* \"#utility.yul\":1776:1779   */\n      dup5\n        /* \"#utility.yul\":1770:1774   */\n      dup3\n        /* \"#utility.yul\":1766:1780   */\n      sub\n        /* \"#utility.yul\":1759:1763   */\n      0x20\n        /* \"#utility.yul\":1754:1757   */\n      dup7\n        /* \"#utility.yul\":1750:1764   */\n      add\n        /* \"#utility.yul\":1743:1781   */\n      mstore\n        /* \"#utility.yul\":1802:1875   */\n      tag_96\n        /* \"#utility.yul\":1870:1874   */\n      dup3\n        /* \"#utility.yul\":1856:1868   */\n      dup3\n        /* \"#utility.yul\":1802:1875   */\n      tag_57\n      jump\t// in\n    tag_96:\n        /* \"#utility.yul\":1794:1875   */\n      swap2\n      pop\n        /* \"#utility.yul\":1650:1886   */\n      pop\n        /* \"#utility.yul\":1968:1972   */\n      0x40\n        /* \"#utility.yul\":1961:1966   */\n      dup4\n        /* \"#utility.yul\":1957:1973   */\n      add\n        /* \"#utility.yul\":1951:1974   */\n      mload\n        /* \"#utility.yul\":1987:2050   */\n      tag_97\n        /* \"#utility.yul\":2044:2048   */\n      0x40\n        /* \"#utility.yul\":2039:2042   */\n      dup7\n        /* \"#utility.yul\":2035:2049   */\n      add\n        /* \"#utility.yul\":2021:2033   */\n      dup3\n        /* \"#utility.yul\":1987:2050   */\n      tag_59\n      jump\t// in\n    tag_97:\n        /* \"#utility.yul\":1896:2060   */\n      pop\n        /* \"#utility.yul\":2077:2081   */\n      dup1\n        /* \"#utility.yul\":2070:2081   */\n      swap2\n      pop\n        /* \"#utility.yul\":1359:2087   */\n      pop\n        /* \"#utility.yul\":1249:2087   */\n      swap3\n      swap2\n      pop\n      pop\n      jump\t// out\n        /* \"#utility.yul\":2093:2671   */\n    tag_8:\n        /* \"#utility.yul\":2286:2290   */\n      0x00\n        /* \"#utility.yul\":2324:2326   */\n      0x40\n        /* \"#utility.yul\":2313:2322   */\n      dup3\n        /* \"#utility.yul\":2309:2327   */\n      add\n        /* \"#utility.yul\":2301:2327   */\n      swap1\n      pop\n        /* \"#utility.yul\":2373:2382   */\n      dup2\n        /* \"#utility.yul\":2367:2371   */\n      dup2\n        /* \"#utility.yul\":2363:2383   */\n      sub\n        /* \"#utility.yul\":2359:2360   */\n      0x00\n        /* \"#utility.yul\":2348:2357   */\n      dup4\n        /* \"#utility.yul\":2344:2361   */\n      add\n        /* \"#utility.yul\":2337:2384   */\n      mstore\n        /* \"#utility.yul\":2401:2495   */\n      tag_99\n        /* \"#utility.yul\":2490:2494   */\n      dup2\n        /* \"#utility.yul\":2481:2487   */\n      dup6\n        /* \"#utility.yul\":2401:2495   */\n      tag_60\n      jump\t// in\n    tag_99:\n        /* \"#utility.yul\":2393:2495   */\n      swap1\n      pop\n        /* \"#utility.yul\":2542:2551   */\n      dup2\n        /* \"#utility.yul\":2536:2540   */\n      dup2\n        /* \"#utility.yul\":2532:2552   */\n      sub\n        /* \"#utility.yul\":2527:2529   */\n      0x20\n        /* \"#utility.yul\":2516:2525   */\n      dup4\n        /* \"#utility.yul\":2512:2530   */\n      add\n        /* \"#utility.yul\":2505:2553   */\n      mstore\n        /* \"#utility.yul\":2570:2664   */\n      tag_100\n        /* \"#utility.yul\":2659:2663   */\n      dup2\n        /* \"#utility.yul\":2650:2656   */\n      dup5\n        /* \"#utility.yul\":2570:2664   */\n      tag_60\n      jump\t// in\n    tag_100:\n        /* \"#utility.yul\":2562:2664   */\n      swap1\n      pop\n        /* \"#utility.yul\":2093:2671   */\n      swap4\n      swap3\n      pop\n      pop\n      pop\n      jump\t// out\n        /* \"#utility.yul\":2677:2857   */\n    tag_61:\n        /* \"#utility.yul\":2725:2802   */\n      0x4e487b7100000000000000000000000000000000000000000000000000000000\n        /* \"#utility.yul\":2722:2723   */\n      0x00\n        /* \"#utility.yul\":2715:2803   */\n      mstore\n        /* \"#utility.yul\":2822:2826   */\n      0x41\n        /* \"#utility.yul\":2819:2820   */\n      0x04\n        /* \"#utility.yul\":2812:2827   */\n      mstore\n        /* \"#utility.yul\":2846:2850   */\n      0x24\n        /* \"#utility.yul\":2843:2844   */\n      0x00\n        /* \"#utility.yul\":2836:2851   */\n      revert\n        /* \"#utility.yul\":2863:3043   */\n    tag_62:\n        /* \"#utility.yul\":2911:2988   */\n      0x4e487b7100000000000000000000000000000000000000000000000000000000\n        /* \"#utility.yul\":2908:2909   */\n      0x00\n        /* \"#utility.yul\":2901:2989   */\n      mstore\n        /* \"#utility.yul\":3008:3012   */\n      0x22\n        /* \"#utility.yul\":3005:3006   */\n      0x04\n        /* \"#utility.yul\":2998:3013   */\n      mstore\n        /* \"#utility.yul\":3032:3036   */\n      0x24\n        /* \"#utility.yul\":3029:3030   */\n      0x00\n        /* \"#utility.yul\":3022:3037   */\n      revert\n        /* \"#utility.yul\":3049:3369   */\n    tag_20:\n        /* \"#utility.yul\":3093:3099   */\n      0x00\n        /* \"#utility.yul\":3130:3131   */\n      0x02\n        /* \"#utility.yul\":3124:3128   */\n      dup3\n        /* \"#utility.yul\":3120:3132   */\n      div\n        /* \"#utility.yul\":3110:3132   */\n      swap1\n      pop\n        /* \"#utility.yul\":3177:3178   */\n      0x01\n        /* \"#utility.yul\":3171:3175   */\n      dup3\n        /* \"#utility.yul\":3167:3179   */\n      and\n        /* \"#utility.yul\":3198:3216   */\n      dup1\n        /* \"#utility.yul\":3188:3269   */\n      tag_104\n      jumpi\n        /* \"#utility.yul\":3254:3258   */\n      0x7f\n        /* \"#utility.yul\":3246:3252   */\n      dup3\n        /* \"#utility.yul\":3242:3259   */\n      and\n        /* \"#utility.yul\":3232:3259   */\n      swap2\n      pop\n        /* \"#utility.yul\":3188:3269   */\n    tag_104:\n        /* \"#utility.yul\":3316:3318   */\n      0x20\n        /* \"#utility.yul\":3308:3314   */\n      dup3\n        /* \"#utility.yul\":3305:3319   */\n      lt\n        /* \"#utility.yul\":3285:3303   */\n      dup2\n        /* \"#utility.yul\":3282:3320   */\n      sub\n        /* \"#utility.yul\":3279:3363   */\n      tag_105\n      jumpi\n        /* \"#utility.yul\":3335:3353   */\n      tag_106\n      tag_62\n      jump\t// in\n    tag_106:\n        /* \"#utility.yul\":3279:3363   */\n    tag_105:\n        /* \"#utility.yul\":3100:3369   */\n      pop\n        /* \"#utility.yul\":3049:3369   */\n      swap2\n      swap1\n      pop\n      jump\t// out\n        /* \"#utility.yul\":3375:3516   */\n    tag_63:\n        /* \"#utility.yul\":3424:3428   */\n      0x00\n        /* \"#utility.yul\":3447:3450   */\n      dup2\n        /* \"#utility.yul\":3439:3450   */\n      swap1\n      pop\n        /* \"#utility.yul\":3470:3473   */\n      dup2\n        /* \"#utility.yul\":3467:3468   */\n      0x00\n        /* \"#utility.yul\":3460:3474   */\n      mstore\n        /* \"#utility.yul\":3504:3508   */\n      0x20\n        /* \"#utility.yul\":3501:3502   */\n      0x00\n        /* \"#utility.yul\":3491:3509   */\n      keccak256\n        /* \"#utility.yul\":3483:3509   */\n      swap1\n      pop\n        /* \"#utility.yul\":3375:3516   */\n      swap2\n      swap1\n      pop\n      jump\t// out\n        /* \"#utility.yul\":3522:3615   */\n    tag_64:\n        /* \"#utility.yul\":3559:3565   */\n      0x00\n        /* \"#utility.yul\":3606:3608   */\n      0x20\n        /* \"#utility.yul\":3601:3603   */\n      0x1f\n        /* \"#utility.yul\":3594:3599   */\n      dup4\n        /* \"#utility.yul\":3590:3604   */\n      add\n        /* \"#utility.yul\":3586:3609   */\n      div\n        /* \"#utility.yul\":3576:3609   */\n      swap1\n      pop\n        /* \"#utility.yul\":3522:3615   */\n      swap2\n      swap1\n      pop\n      jump\t// out\n        /* \"#utility.yul\":3621:3728   */\n    tag_65:\n        /* \"#utility.yul\":3665:3673   */\n      0x00\n        /* \"#utility.yul\":3715:3720   */\n      dup3\n        /* \"#utility.yul\":3709:3713   */\n      dup3\n        /* \"#utility.yul\":3705:3721   */\n      shl\n        /* \"#utility.yul\":3684:3721   */\n      swap1\n      pop\n        /* \"#utility.yul\":3621:3728   */\n      swap3\n      swap2\n      pop\n      pop\n      jump\t// out\n        /* \"#utility.yul\":3734:4127   */\n    tag_66:\n        /* \"#utility.yul\":3803:3809   */\n      0x00\n        /* \"#utility.yul\":3853:3854   */\n      0x08\n        /* \"#utility.yul\":3841:3851   */\n      dup4\n        /* \"#utility.yul\":3837:3855   */\n      mul\n        /* \"#utility.yul\":3876:3973   */\n      tag_111\n        /* \"#utility.yul\":3906:3972   */\n      0xffffffffffffffffffffffffffffffffffffffffffffffffffffffffffffffff\n        /* \"#utility.yul\":3895:3904   */\n      dup3\n        /* \"#utility.yul\":3876:3973   */\n      tag_65\n      jump\t// in\n    tag_111:\n        /* \"#utility.yul\":3994:4033   */\n      tag_112\n        /* \"#utility.yul\":4024:4032   */\n      dup7\n        /* \"#utility.yul\":4013:4022   */\n      dup4\n        /* \"#utility.yul\":3994:4033   */\n      tag_65\n      jump\t// in\n    tag_112:\n        /* \"#utility.yul\":3982:4033   */\n      swap6\n      pop\n        /* \"#utility.yul\":4066:4070   */\n      dup1\n        /* \"#utility.yul\":4062:4071   */\n      not\n        /* \"#utility.yul\":4055:4060   */\n      dup5\n        /* \"#utility.yul\":4051:4072   */\n      and\n        /* \"#utility.yul\":4042:4072   */\n      swap4\n      pop\n        /* \"#utility.yul\":4115:4119   */\n      dup1\n        /* \"#utility.yul\":4105:4113   */\n      dup7\n        /* \"#utility.yul\":4101:4120   */\n      and\n        /* \"#utility.yul\":4094:4099   */\n      dup5\n        /* \"#utility.yul\":4091:4121   */\n      or\n        /* \"#utility.yul\":4081:4121   */\n      swap3\n      pop\n        /* \"#utility.yul\":3810:4127   */\n      pop\n      pop\n        /* \"#utility.yul\":3734:4127   */\n      swap4\n      swap3\n      pop\n      pop\n      pop\n      jump\t// out\n        /* \"#utility.yul\":4133:4193   */\n    tag_67:\n        /* \"#utility.yul\":4161:4164   */\n      0x00\n        /* \"#utility.yul\":4182:4187   */\n      dup2\n        /* \"#utility.yul\":4175:4187   */\n      swap1\n      pop\n        /* \"#utility.yul\":4133:4193   */\n      swap2\n      swap1\n      pop\n      jump\t// out\n        /* \"#utility.yul\":4199:4341   */\n    tag_68:\n        /* \"#utility.yul\":4249:4258   */\n      0x00\n        /* \"#utility.yul\":4282:4335   */\n      tag_115\n        /* \"#utility.yul\":4300:4334   */\n      tag_116\n        /* \"#utility.yul\":4309:4333   */\n      tag_117\n        /* \"#utility.yul\":4327:4332   */\n      dup5\n        /* \"#utility.yul\":4309:4333   */\n      tag_58\n      jump\t// in\n    tag_117:\n        /* \"#utility.yul\":4300:4334   */\n      tag_67\n      jump\t// in\n    tag_116:\n        /* \"#utility.yul\":4282:4335   */\n      tag_58\n      jump\t// in\n    tag_115:\n        /* \"#utility.yul\":4269:4335   */\n      swap1\n      pop\n        /* \"#utility.yul\":4199:4341   */\n      swap2\n      swap1\n      pop\n      jump\t// out\n        /* \"#utility.yul\":4347:4422   */\n    tag_69:\n        /* \"#utility.yul\":4390:4393   */\n      0x00\n        /* \"#utility.yul\":4411:4416   */\n      dup2\n        /* \"#utility.yul\":4404:4416   */\n      swap1\n      pop\n        /* \"#utility.yul\":4347:4422   */\n      swap2\n      swap1\n      pop\n      jump\t// out\n        /* \"#utility.yul\":4428:4697   */\n    tag_70:\n        /* \"#utility.yul\":4538:4577   */\n      tag_120\n        /* \"#utility.yul\":4569:4576   */\n      dup4\n        /* \"#utility.yul\":4538:4577   */\n      tag_68\n      jump\t// in\n    tag_120:\n        /* \"#utility.yul\":4599:4690   */\n      tag_121\n        /* \"#utility.yul\":4648:4689   */\n      tag_122\n        /* \"#utility.yul\":4672:4688   */\n      dup3\n        /* \"#utility.yul\":4648:4689   */\n      tag_69\n      jump\t// in\n    tag_122:\n        /* \"#utility.yul\":4640:4646   */\n      dup5\n        /* \"#utility.yul\":4633:4637   */\n      dup5\n        /* \"#utility.yul\":4627:4638   */\n      sload\n        /* \"#utility.yul\":4599:4690   */\n      tag_66\n      jump\t// in\n    tag_121:\n        /* \"#utility.yul\":4593:4597   */\n      dup3\n        /* \"#utility.yul\":4586:4691   */\n      sstore\n        /* \"#utility.yul\":4504:4697   */\n      pop\n        /* \"#utility.yul\":4428:4697   */\n      pop\n      pop\n      pop\n      jump\t// out\n        /* \"#utility.yul\":4703:4776   */\n    tag_71:\n        /* \"#utility.yul\":4748:4751   */\n      0x00\n        /* \"#utility.yul\":4703:4776   */\n      swap1\n      jump\t// out\n        /* \"#utility.yul\":4782:4971   */\n    tag_72:\n        /* \"#utility.yul\":4859:4891   */\n      tag_125\n      tag_71\n      jump\t// in\n    tag_125:\n        /* \"#utility.yul\":4900:4965   */\n      tag_126\n        /* \"#utility.yul\":4958:4964   */\n      dup2\n        /* \"#utility.yul\":4950:4956   */\n      dup5\n        /* \"#utility.yul\":4944:4948   */\n      dup5\n        /* \"#utility.yul\":4900:4965   */\n      tag_70\n      jump\t// in\n    tag_126:\n        /* \"#utility.yul\":4835:4971   */\n      pop\n        /* \"#utility.yul\":4782:4971   */\n      pop\n      pop\n      jump\t// out\n        /* \"#utility.yul\":4977:5163   */\n    tag_73:\n        /* \"#utility.yul\":5037:5157   */\n    tag_128:\n        /* \"#utility.yul\":5054:5057   */\n      dup2\n        /* \"#utility.yul\":5047:5052   */\n      dup2\n        /* \"#utility.yul\":5044:5058   */\n      lt\n        /* \"#utility.yul\":5037:5157   */\n      iszero\n      tag_130\n      jumpi\n        /* \"#utility.yul\":5108:5147   */\n      tag_131\n        /* \"#utility.yul\":5145:5146   */\n      0x00\n        /* \"#utility.yul\":5138:5143   */\n      dup3\n        /* \"#utility.yul\":5108:5147   */\n      tag_72\n      jump\t// in\n    tag_131:\n        /* \"#utility.yul\":5081:5082   */\n      0x01\n        /* \"#utility.yul\":5074:5079   */\n      dup2\n        /* \"#utility.yul\":5070:5083   */\n      add\n        /* \"#utility.yul\":5061:5083   */\n      swap1\n      pop\n        /* \"#utility.yul\":5037:5157   */\n      jump(tag_128)\n    tag_130:\n        /* \"#utility.yul\":4977:5163   */\n      pop\n      pop\n      jump\t// out\n        /* \"#utility.yul\":5169:5712   */\n    tag_74:\n        /* \"#utility.yul\":5270:5272   */\n      0x1f\n        /* \"#utility.yul\":5265:5268   */\n      dup3\n        /* \"#utility.yul\":5262:5273   */\n      gt\n        /* \"#utility.yul\":5259:5705   */\n      iszero\n      tag_133\n      jumpi\n        /* \"#utility.yul\":5304:5342   */\n      tag_134\n        /* \"#utility.yul\":5336:5341   */\n      dup2\n        /* \"#utility.yul\":5304:5342   */\n      tag_63\n      jump\t// in\n    tag_134:\n        /* \"#utility.yul\":5388:5417   */\n      tag_135\n        /* \"#utility.yul\":5406:5416   */\n      dup5\n        /* \"#utility.yul\":5388:5417   */\n      tag_64\n      jump\t// in\n    tag_135:\n        /* \"#utility.yul\":5378:5386   */\n      dup2\n        /* \"#utility.yul\":5374:5418   */\n      add\n        /* \"#utility.yul\":5571:5573   */\n      0x20\n        /* \"#utility.yul\":5559:5569   */\n      dup6\n        /* \"#utility.yul\":5556:5574   */\n      lt\n        /* \"#utility.yul\":5553:5602   */\n      iszero\n      tag_136\n      jumpi\n        /* \"#utility.yul\":5592:5600   */\n      dup2\n        /* \"#utility.yul\":5577:5600   */\n      swap1\n      pop\n        /* \"#utility.yul\":5553:5602   */\n    tag_136:\n        /* \"#utility.yul\":5615:5695   */\n      tag_137\n        /* \"#utility.yul\":5671:5693   */\n      tag_138\n        /* \"#utility.yul\":5689:5692   */\n      dup6\n        /* \"#utility.yul\":5671:5693   */\n      tag_64\n      jump\t// in\n    tag_138:\n        /* \"#utility.yul\":5661:5669   */\n      dup4\n        /* \"#utility.yul\":5657:5694   */\n      add\n        /* \"#utility.yul\":5644:5655   */\n      dup3\n        /* \"#utility.yul\":5615:5695   */\n      tag_73\n      jump\t// in\n    tag_137:\n        /* \"#utility.yul\":5274:5705   */\n      pop\n      pop\n        /* \"#utility.yul\":5259:5705   */\n    tag_133:\n        /* \"#utility.yul\":5169:5712   */\n      pop\n      pop\n      pop\n      jump\t// out\n        /* \"#utility.yul\":5718:5835   */\n    tag_75:\n        /* \"#utility.yul\":5772:5780   */\n      0x00\n        /* \"#utility.yul\":5822:5827   */\n      dup3\n        /* \"#utility.yul\":5816:5820   */\n      dup3\n        /* \"#utility.yul\":5812:5828   */\n      shr\n        /* \"#utility.yul\":5791:5828   */\n      swap1\n      pop\n        /* \"#utility.yul\":5718:5835   */\n      swap3\n      swap2\n      pop\n      pop\n      jump\t// out\n        /* \"#utility.yul\":5841:6010   */\n    tag_76:\n        /* \"#utility.yul\":5885:5891   */\n      0x00\n        /* \"#utility.yul\":5918:5969   */\n      tag_141\n        /* \"#utility.yul\":5966:5967   */\n      0x00\n        /* \"#utility.yul\":5962:5968   */\n      not\n        /* \"#utility.yul\":5954:5959   */\n      dup5\n        /* \"#utility.yul\":5951:5952   */\n      0x08\n        /* \"#utility.yul\":5947:5960   */\n      mul\n        /* \"#utility.yul\":5918:5969   */\n      tag_75\n      jump\t// in\n    tag_141:\n        /* \"#utility.yul\":5914:5970   */\n      not\n        /* \"#utility.yul\":5999:6003   */\n      dup1\n        /* \"#utility.yul\":5993:5997   */\n      dup4\n        /* \"#utility.yul\":5989:6004   */\n      and\n        /* \"#utility.yul\":5979:6004   */\n      swap2\n      pop\n        /* \"#utility.yul\":5892:6010   */\n      pop\n        /* \"#utility.yul\":5841:6010   */\n      swap3\n      swap2\n      pop\n      pop\n      jump\t// out\n        /* \"#utility.yul\":6015:6310   */\n    tag_77:\n        /* \"#utility.yul\":6091:6095   */\n      0x00\n        /* \"#utility.yul\":6237:6266   */\n      tag_143\n        /* \"#utility.yul\":6262:6265   */\n      dup4\n        /* \"#utility.yul\":6256:6260   */\n      dup4\n        /* \"#utility.yul\":6237:6266   */\n      tag_76\n      jump\t// in\n    tag_143:\n        /* \"#utility.yul\":6229:6266   */\n      swap2\n      pop\n        /* \"#utility.yul\":6299:6302   */\n      dup3\n        /* \"#utility.yul\":6296:6297   */\n      0x02\n        /* \"#utility.yul\":6292:6303   */\n      mul\n        /* \"#utility.yul\":6286:6290   */\n      dup3\n        /* \"#utility.yul\":6283:6304   */\n      or\n        /* \"#utility.yul\":6275:6304   */\n      swap1\n      pop\n        /* \"#utility.yul\":6015:6310   */\n      swap3\n      swap2\n      pop\n      pop\n      jump\t// out\n        /* \"#utility.yul\":6315:7710   */\n    tag_17:\n        /* \"#utility.yul\":6432:6469   */\n      tag_145\n        /* \"#utility.yul\":6465:6468   */\n      dup3\n        /* \"#utility.yul\":6432:6469   */\n      tag_53\n      jump\t// in\n    tag_145:\n        /* \"#utility.yul\":6534:6552   */\n      0xffffffffffffffff\n        /* \"#utility.yul\":6526:6532   */\n      dup2\n        /* \"#utility.yul\":6523:6553   */\n      gt\n        /* \"#utility.yul\":6520:6576   */\n      iszero\n      tag_146\n      jumpi\n        /* \"#utility.yul\":6556:6574   */\n      tag_147\n      tag_61\n      jump\t// in\n    tag_147:\n        /* \"#utility.yul\":6520:6576   */\n    tag_146:\n        /* \"#utility.yul\":6600:6638   */\n      tag_148\n        /* \"#utility.yul\":6632:6636   */\n      dup3\n        /* \"#utility.yul\":6626:6637   */\n      sload\n        /* \"#utility.yul\":6600:6638   */\n      tag_20\n      jump\t// in\n    tag_148:\n        /* \"#utility.yul\":6685:6752   */\n      tag_149\n        /* \"#utility.yul\":6745:6751   */\n      dup3\n        /* \"#utility.yul\":6737:6743   */\n      dup3\n        /* \"#utility.yul\":6731:6735   */\n      dup6\n        /* \"#utility.yul\":6685:6752   */\n      tag_74\n      jump\t// in\n    tag_149:\n        /* \"#utility.yul\":6779:6780   */\n      0x00\n        /* \"#utility.yul\":6803:6807   */\n      0x20\n        /* \"#utility.yul\":6790:6807   */\n      swap1\n      pop\n        /* \"#utility.yul\":6835:6837   */\n      0x1f\n        /* \"#utility.yul\":6827:6833   */\n      dup4\n        /* \"#utility.yul\":6824:6838   */\n      gt\n        /* \"#utility.yul\":6852:6853   */\n      0x01\n        /* \"#utility.yul\":6847:7465   */\n      dup2\n      eq\n      tag_151\n      jumpi\n        /* \"#utility.yul\":7509:7510   */\n      0x00\n        /* \"#utility.yul\":7526:7532   */\n      dup5\n        /* \"#utility.yul\":7523:7600   */\n      iszero\n      tag_152\n      jumpi\n        /* \"#utility.yul\":7575:7584   */\n      dup3\n        /* \"#utility.yul\":7570:7573   */\n      dup8\n        /* \"#utility.yul\":7566:7585   */\n      add\n        /* \"#utility.yul\":7560:7586   */\n      mload\n        /* \"#utility.yul\":7551:7586   */\n      swap1\n      pop\n        /* \"#utility.yul\":7523:7600   */\n    tag_152:\n        /* \"#utility.yul\":7626:7693   */\n      tag_153\n        /* \"#utility.yul\":7686:7692   */\n      dup6\n        /* \"#utility.yul\":7679:7684   */\n      dup3\n        /* \"#utility.yul\":7626:7693   */\n      tag_77\n      jump\t// in\n    tag_153:\n        /* \"#utility.yul\":7620:7624   */\n      dup7\n        /* \"#utility.yul\":7613:7694   */\n      sstore\n        /* \"#utility.yul\":7482:7704   */\n      pop\n        /* \"#utility.yul\":6817:7704   */\n      jump(tag_150)\n        /* \"#utility.yul\":6847:7465   */\n    tag_151:\n        /* \"#utility.yul\":6899:6903   */\n      0x1f\n        /* \"#utility.yul\":6895:6904   */\n      not\n        /* \"#utility.yul\":6887:6893   */\n      dup5\n        /* \"#utility.yul\":6883:6905   */\n      and\n        /* \"#utility.yul\":6933:6970   */\n      tag_154\n        /* \"#utility.yul\":6965:6969   */\n      dup7\n        /* \"#utility.yul\":6933:6970   */\n      tag_63\n      jump\t// in\n    tag_154:\n        /* \"#utility.yul\":6992:6993   */\n      0x00\n        /* \"#utility.yul\":7006:7214   */\n    tag_155:\n        /* \"#utility.yul\":7020:7027   */\n      dup3\n        /* \"#utility.yul\":7017:7018   */\n      dup2\n        /* \"#utility.yul\":7014:7028   */\n      lt\n        /* \"#utility.yul\":7006:7214   */\n      iszero\n      tag_157\n      jumpi\n        /* \"#utility.yul\":7099:7108   */\n      dup5\n        /* \"#utility.yul\":7094:7097   */\n      dup10\n        /* \"#utility.yul\":7090:7109   */\n      add\n        /* \"#utility.yul\":7084:7110   */\n      mload\n        /* \"#utility.yul\":7076:7082   */\n      dup3\n        /* \"#utility.yul\":7069:7111   */\n      sstore\n        /* \"#utility.yul\":7150:7151   */\n      0x01\n        /* \"#utility.yul\":7142:7148   */\n      dup3\n        /* \"#utility.yul\":7138:7152   */\n      add\n        /* \"#utility.yul\":7128:7152   */\n      swap2\n      pop\n        /* \"#utility.yul\":7197:7199   */\n      0x20\n        /* \"#utility.yul\":7186:7195   */\n      dup6\n        /* \"#utility.yul\":7182:7200   */\n      add\n        /* \"#utility.yul\":7169:7200   */\n      swap5\n      pop\n        /* \"#utility.yul\":7043:7047   */\n      0x20\n        /* \"#utility.yul\":7040:7041   */\n      dup2\n        /* \"#utility.yul\":7036:7048   */\n      add\n        /* \"#utility.yul\":7031:7048   */\n      swap1\n      pop\n        /* \"#utility.yul\":7006:7214   */\n      jump(tag_155)\n    tag_157:\n        /* \"#utility.yul\":7242:7248   */\n      dup7\n        /* \"#utility.yul\":7233:7240   */\n      dup4\n        /* \"#utility.yul\":7230:7249   */\n      lt\n        /* \"#utility.yul\":7227:7406   */\n      iszero\n      tag_158\n      jumpi\n        /* \"#utility.yul\":7300:7309   */\n      dup5\n        /* \"#utility.yul\":7295:7298   */\n      dup10\n        /* \"#utility.yul\":7291:7310   */\n      add\n        /* \"#utility.yul\":7285:7311   */\n      mload\n        /* \"#utility.yul\":7343:7391   */\n      tag_159\n        /* \"#utility.yul\":7385:7389   */\n      0x1f\n        /* \"#utility.yul\":7377:7383   */\n      dup10\n        /* \"#utility.yul\":7373:7390   */\n      and\n        /* \"#utility.yul\":7362:7371   */\n      dup3\n        /* \"#utility.yul\":7343:7391   */\n      tag_76\n      jump\t// in\n    tag_159:\n        /* \"#utility.yul\":7335:7341   */\n      dup4\n        /* \"#utility.yul\":7328:7392   */\n      sstore\n        /* \"#utility.yul\":7250:7406   */\n      pop\n        /* \"#utility.yul\":7227:7406   */\n    tag_158:\n        /* \"#utility.yul\":7452:7453   */\n      0x01\n        /* \"#utility.yul\":7448:7449   */\n      0x02\n        /* \"#utility.yul\":7440:7446   */\n      dup9\n        /* \"#utility.yul\":7436:7450   */\n      mul\n        /* \"#utility.yul\":7432:7454   */\n      add\n        /* \"#utility.yul\":7426:7430   */\n      dup9\n        /* \"#utility.yul\":7419:7455   */\n      sstore\n        /* \"#utility.yul\":6854:7465   */\n      pop\n      pop\n      pop\n        /* \"#utility.yul\":6817:7704   */\n    tag_150:\n      pop\n        /* \"#utility.yul\":6407:7710   */\n      pop\n      pop\n      pop\n        /* \"#utility.yul\":6315:7710   */\n      pop\n      pop\n      jump\t// out\n\n    auxdata: 0xa264697066735822122039f6c94886d3ad208137eb0d418bfea7aa57d80bdf10e60146a8b20518f2bb8f64736f6c63430008120033\n}\n",
				"bytecode": {
					"linkReferences": {},
					"object": "608060405260405180606001604052806040518060400160405280600681526020017f546f796f7461000000000000000000000000000000000000000000000000000081525081526020016040518060400160405280600581526020017f507261646f00000000000000000000000000000000000000000000000000000081525081526020016107d0815250600080820151816000019081620000a3919062000356565b506020820151816001019081620000bb919062000356565b50604082015181600201555050348015620000d557600080fd5b506200043d565b600081519050919050565b7f4e487b7100000000000000000000000000000000000000000000000000000000600052604160045260246000fd5b7f4e487b7100000000000000000000000000000000000000000000000000000000600052602260045260246000fd5b600060028204905060018216806200015e57607f821691505b60208210810362000174576200017362000116565b5b50919050565b60008190508160005260206000209050919050565b60006020601f8301049050919050565b600082821b905092915050565b600060088302620001de7fffffffffffffffffffffffffffffffffffffffffffffffffffffffffffffffff826200019f565b620001ea86836200019f565b95508019841693508086168417925050509392505050565b6000819050919050565b6000819050919050565b600062000237620002316200022b8462000202565b6200020c565b62000202565b9050919050565b6000819050919050565b620002538362000216565b6200026b62000262826200023e565b848454620001ac565b825550505050565b600090565b6200028262000273565b6200028f81848462000248565b505050565b5b81811015620002b757620002ab60008262000278565b60018101905062000295565b5050565b601f8211156200030657620002d0816200017a565b620002db846200018f565b81016020851015620002eb578190505b62000303620002fa856200018f565b83018262000294565b50505b505050565b600082821c905092915050565b60006200032b600019846008026200030b565b1980831691505092915050565b600062000346838362000318565b9150826002028217905092915050565b6200036182620000dc565b67ffffffffffffffff8111156200037d576200037c620000e7565b5b62000389825462000145565b62000396828285620002bb565b600060209050601f831160018114620003ce5760008415620003b9578287015190505b620003c5858262000338565b86555062000435565b601f198416620003de866200017a565b60005b828110156200040857848901518255600182019150602085019450602081019050620003e1565b8683101562000428578489015162000424601f89168262000318565b8355505b6001600288020188555050505b505050505050565b610996806200044d6000396000f3fe608060405234801561001057600080fd5b50600436106100365760003560e01c80631d2aec851461003b5780636f6745211461005a575b600080fd5b610043610079565b60405161005192919061061c565b60405180910390f35b6100626103a8565b60405161007092919061061c565b60405180910390f35b6100816104fb565b6100896104fb565b60006040518060400160405280600481526020017f616c746f000000000000000000000000000000000000000000000000000000008152508160000190816100d1919061088e565b506040518060400160405280600381526020017f6b69610000000000000000000000000000000000000000000000000000000000815250816001019081610118919061088e565b506107dc816002018190555060008181604051806060016040529081600082018054610143906106b1565b80601f016020809104026020016040519081016040528092919081815260200182805461016f906106b1565b80156101bc5780601f10610191576101008083540402835291602001916101bc565b820191906000526020600020905b81548152906001019060200180831161019f57829003601f168201915b505050505081526020016001820180546101d5906106b1565b80601f0160208091040260200160405190810160405280929190818152602001828054610201906106b1565b801561024e5780601f106102235761010080835404028352916020019161024e565b820191906000526020600020905b81548152906001019060200180831161023157829003601f168201915b5050505050815260200160028201548152505091508060405180606001604052908160008201805461027f906106b1565b80601f01602080910402602001604051908101604052809291908181526020018280546102ab906106b1565b80156102f85780601f106102cd576101008083540402835291602001916102f8565b820191906000526020600020905b8154815290600101906020018083116102db57829003601f168201915b50505050508152602001600182018054610311906106b1565b80601f016020809104026020016040519081016040528092919081815260200182805461033d906106b1565b801561038a5780601f1061035f5761010080835404028352916020019161038a565b820191906000526020600020905b81548152906001019060200180831161036d57829003601f168201915b50505050508152602001600282015481525050905092509250509091565b6103b06104fb565b6103b86104fb565b6000806040518060600160405290816000820180546103d6906106b1565b80601f0160208091040260200160405190810160405280929190818152602001828054610402906106b1565b801561044f5780601f106104245761010080835404028352916020019161044f565b820191906000526020600020905b81548152906001019060200180831161043257829003601f168201915b50505050508152602001600182018054610468906106b1565b80601f0160208091040260200160405190810160405280929190818152602001828054610494906106b1565b80156104e15780601f106104b6576101008083540402835291602001916104e1565b820191906000526020600020905b8154815290600101906020018083116104c457829003601f168201915b505050505081526020016002820154815250509050509091565b60405180606001604052806060815260200160608152602001600081525090565b600081519050919050565b600082825260208201905092915050565b60005b8381101561055657808201518184015260208101905061053b565b60008484015250505050565b6000601f19601f8301169050919050565b600061057e8261051c565b6105888185610527565b9350610598818560208601610538565b6105a181610562565b840191505092915050565b6000819050919050565b6105bf816105ac565b82525050565b600060608301600083015184820360008601526105e28282610573565b915050602083015184820360208601526105fc8282610573565b915050604083015161061160408601826105b6565b508091505092915050565b6000604082019050818103600083015261063681856105c5565b9050818103602083015261064a81846105c5565b90509392505050565b7f4e487b7100000000000000000000000000000000000000000000000000000000600052604160045260246000fd5b7f4e487b7100000000000000000000000000000000000000000000000000000000600052602260045260246000fd5b600060028204905060018216806106c957607f821691505b6020821081036106dc576106db610682565b5b50919050565b60008190508160005260206000209050919050565b60006020601f8301049050919050565b600082821b905092915050565b6000600883026107447fffffffffffffffffffffffffffffffffffffffffffffffffffffffffffffffff82610707565b61074e8683610707565b95508019841693508086168417925050509392505050565b6000819050919050565b600061078b610786610781846105ac565b610766565b6105ac565b9050919050565b6000819050919050565b6107a583610770565b6107b96107b182610792565b848454610714565b825550505050565b600090565b6107ce6107c1565b6107d981848461079c565b505050565b5b818110156107fd576107f26000826107c6565b6001810190506107df565b5050565b601f82111561084257610813816106e2565b61081c846106f7565b8101602085101561082b578190505b61083f610837856106f7565b8301826107de565b50505b505050565b600082821c905092915050565b600061086560001984600802610847565b1980831691505092915050565b600061087e8383610854565b9150826002028217905092915050565b6108978261051c565b67ffffffffffffffff8111156108b0576108af610653565b5b6108ba82546106b1565b6108c5828285610801565b600060209050601f8311600181146108f857600084156108e6578287015190505b6108f08582610872565b865550610958565b601f198416610906866106e2565b60005b8281101561092e57848901518255600182019150602085019450602081019050610909565b8683101561094b5784890151610947601f891682610854565b8355505b6001600288020188555050505b50505050505056fea264697066735822122039f6c94886d3ad208137eb0d418bfea7aa57d80bdf10e60146a8b20518f2bb8f64736f6c63430008120033",
					"opcodes": "PUSH1 0x80 PUSH1 0x40 MSTORE PUSH1 0x40 MLOAD DUP1 PUSH1 0x60 ADD PUSH1 0x40 MSTORE DUP1 PUSH1 0x40 MLOAD DUP1 PUSH1 0x40 ADD PUSH1 0x40 MSTORE DUP1 PUSH1 0x6 DUP2 MSTORE PUSH1 0x20 ADD PUSH32 0x546F796F74610000000000000000000000000000000000000000000000000000 DUP2 MSTORE POP DUP2 MSTORE PUSH1 0x20 ADD PUSH1 0x40 MLOAD DUP1 PUSH1 0x40 ADD PUSH1 0x40 MSTORE DUP1 PUSH1 0x5 DUP2 MSTORE PUSH1 0x20 ADD PUSH32 0x507261646F000000000000000000000000000000000000000000000000000000 DUP2 MSTORE POP DUP2 MSTORE PUSH1 0x20 ADD PUSH2 0x7D0 DUP2 MSTORE POP PUSH1 0x0 DUP1 DUP3 ADD MLOAD DUP2 PUSH1 0x0 ADD SWAP1 DUP2 PUSH3 0xA3 SWAP2 SWAP1 PUSH3 0x356 JUMP JUMPDEST POP PUSH1 0x20 DUP3 ADD MLOAD DUP2 PUSH1 0x1 ADD SWAP1 DUP2 PUSH3 0xBB SWAP2 SWAP1 PUSH3 0x356 JUMP JUMPDEST POP PUSH1 0x40 DUP3 ADD MLOAD DUP2 PUSH1 0x2 ADD SSTORE POP POP CALLVALUE DUP1 ISZERO PUSH3 0xD5 JUMPI PUSH1 0x0 DUP1 REVERT JUMPDEST POP PUSH3 0x43D JUMP JUMPDEST PUSH1 0x0 DUP2 MLOAD SWAP1 POP SWAP2 SWAP1 POP JUMP JUMPDEST PUSH32 0x4E487B7100000000000000000000000000000000000000000000000000000000 PUSH1 0x0 MSTORE PUSH1 0x41 PUSH1 0x4 MSTORE PUSH1 0x24 PUSH1 0x0 REVERT JUMPDEST PUSH32 0x4E487B7100000000000000000000000000000000000000000000000000000000 PUSH1 0x0 MSTORE PUSH1 0x22 PUSH1 0x4 MSTORE PUSH1 0x24 PUSH1 0x0 REVERT JUMPDEST PUSH1 0x0 PUSH1 0x2 DUP3 DIV SWAP1 POP PUSH1 0x1 DUP3 AND DUP1 PUSH3 0x15E JUMPI PUSH1 0x7F DUP3 AND SWAP2 POP JUMPDEST PUSH1 0x20 DUP3 LT DUP2 SUB PUSH3 0x174 JUMPI PUSH3 0x173 PUSH3 0x116 JUMP JUMPDEST JUMPDEST POP SWAP2 SWAP1 POP JUMP JUMPDEST PUSH1 0x0 DUP2 SWAP1 POP DUP2 PUSH1 0x0 MSTORE PUSH1 0x20 PUSH1 0x0 KECCAK256 SWAP1 POP SWAP2 SWAP1 POP JUMP JUMPDEST PUSH1 0x0 PUSH1 0x20 PUSH1 0x1F DUP4 ADD DIV SWAP1 POP SWAP2 SWAP1 POP JUMP JUMPDEST PUSH1 0x0 DUP3 DUP3 SHL SWAP1 POP SWAP3 SWAP2 POP POP JUMP JUMPDEST PUSH1 0x0 PUSH1 0x8 DUP4 MUL PUSH3 0x1DE PUSH32 0xFFFFFFFFFFFFFFFFFFFFFFFFFFFFFFFFFFFFFFFFFFFFFFFFFFFFFFFFFFFFFFFF DUP3 PUSH3 0x19F JUMP JUMPDEST PUSH3 0x1EA DUP7 DUP4 PUSH3 0x19F JUMP JUMPDEST SWAP6 POP DUP1 NOT DUP5 AND SWAP4 POP DUP1 DUP7 AND DUP5 OR SWAP3 POP POP POP SWAP4 SWAP3 POP POP POP JUMP JUMPDEST PUSH1 0x0 DUP2 SWAP1 POP SWAP2 SWAP1 POP JUMP JUMPDEST PUSH1 0x0 DUP2 SWAP1 POP SWAP2 SWAP1 POP JUMP JUMPDEST PUSH1 0x0 PUSH3 0x237 PUSH3 0x231 PUSH3 0x22B DUP5 PUSH3 0x202 JUMP JUMPDEST PUSH3 0x20C JUMP JUMPDEST PUSH3 0x202 JUMP JUMPDEST SWAP1 POP SWAP2 SWAP1 POP JUMP JUMPDEST PUSH1 0x0 DUP2 SWAP1 POP SWAP2 SWAP1 POP JUMP JUMPDEST PUSH3 0x253 DUP4 PUSH3 0x216 JUMP JUMPDEST PUSH3 0x26B PUSH3 0x262 DUP3 PUSH3 0x23E JUMP JUMPDEST DUP5 DUP5 SLOAD PUSH3 0x1AC JUMP JUMPDEST DUP3 SSTORE POP POP POP POP JUMP JUMPDEST PUSH1 0x0 SWAP1 JUMP JUMPDEST PUSH3 0x282 PUSH3 0x273 JUMP JUMPDEST PUSH3 0x28F DUP2 DUP5 DUP5 PUSH3 0x248 JUMP JUMPDEST POP POP POP JUMP JUMPDEST JUMPDEST DUP2 DUP2 LT ISZERO PUSH3 0x2B7 JUMPI PUSH3 0x2AB PUSH1 0x0 DUP3 PUSH3 0x278 JUMP JUMPDEST PUSH1 0x1 DUP2 ADD SWAP1 POP PUSH3 0x295 JUMP JUMPDEST POP POP JUMP JUMPDEST PUSH1 0x1F DUP3 GT ISZERO PUSH3 0x306 JUMPI PUSH3 0x2D0 DUP2 PUSH3 0x17A JUMP JUMPDEST PUSH3 0x2DB DUP5 PUSH3 0x18F JUMP JUMPDEST DUP2 ADD PUSH1 0x20 DUP6 LT ISZERO PUSH3 0x2EB JUMPI DUP2 SWAP1 POP JUMPDEST PUSH3 0x303 PUSH3 0x2FA DUP6 PUSH3 0x18F JUMP JUMPDEST DUP4 ADD DUP3 PUSH3 0x294 JUMP JUMPDEST POP POP JUMPDEST POP POP POP JUMP JUMPDEST PUSH1 0x0 DUP3 DUP3 SHR SWAP1 POP SWAP3 SWAP2 POP POP JUMP JUMPDEST PUSH1 0x0 PUSH3 0x32B PUSH1 0x0 NOT DUP5 PUSH1 0x8 MUL PUSH3 0x30B JUMP JUMPDEST NOT DUP1 DUP4 AND SWAP2 POP POP SWAP3 SWAP2 POP POP JUMP JUMPDEST PUSH1 0x0 PUSH3 0x346 DUP4 DUP4 PUSH3 0x318 JUMP JUMPDEST SWAP2 POP DUP3 PUSH1 0x2 MUL DUP3 OR SWAP1 POP SWAP3 SWAP2 POP POP JUMP JUMPDEST PUSH3 0x361 DUP3 PUSH3 0xDC JUMP JUMPDEST PUSH8 0xFFFFFFFFFFFFFFFF DUP2 GT ISZERO PUSH3 0x37D JUMPI PUSH3 0x37C PUSH3 0xE7 JUMP JUMPDEST JUMPDEST PUSH3 0x389 DUP3 SLOAD PUSH3 0x145 JUMP JUMPDEST PUSH3 0x396 DUP3 DUP3 DUP6 PUSH3 0x2BB JUMP JUMPDEST PUSH1 0x0 PUSH1 0x20 SWAP1 POP PUSH1 0x1F DUP4 GT PUSH1 0x1 DUP2 EQ PUSH3 0x3CE JUMPI PUSH1 0x0 DUP5 ISZERO PUSH3 0x3B9 JUMPI DUP3 DUP8 ADD MLOAD SWAP1 POP JUMPDEST PUSH3 0x3C5 DUP6 DUP3 PUSH3 0x338 JUMP JUMPDEST DUP7 SSTORE POP PUSH3 0x435 JUMP JUMPDEST PUSH1 0x1F NOT DUP5 AND PUSH3 0x3DE DUP7 PUSH3 0x17A JUMP JUMPDEST PUSH1 0x0 JUMPDEST DUP3 DUP2 LT ISZERO PUSH3 0x408 JUMPI DUP5 DUP10 ADD MLOAD DUP3 SSTORE PUSH1 0x1 DUP3 ADD SWAP2 POP PUSH1 0x20 DUP6 ADD SWAP5 POP PUSH1 0x20 DUP2 ADD SWAP1 POP PUSH3 0x3E1 JUMP JUMPDEST DUP7 DUP4 LT ISZERO PUSH3 0x428 JUMPI DUP5 DUP10 ADD MLOAD PUSH3 0x424 PUSH1 0x1F DUP10 AND DUP3 PUSH3 0x318 JUMP JUMPDEST DUP4 SSTORE POP JUMPDEST PUSH1 0x1 PUSH1 0x2 DUP9 MUL ADD DUP9 SSTORE POP POP POP JUMPDEST POP POP POP POP POP POP JUMP JUMPDEST PUSH2 0x996 DUP1 PUSH3 0x44D PUSH1 0x0 CODECOPY PUSH1 0x0 RETURN INVALID PUSH1 0x80 PUSH1 0x40 MSTORE CALLVALUE DUP1 ISZERO PUSH2 0x10 JUMPI PUSH1 0x0 DUP1 REVERT JUMPDEST POP PUSH1 0x4 CALLDATASIZE LT PUSH2 0x36 JUMPI PUSH1 0x0 CALLDATALOAD PUSH1 0xE0 SHR DUP1 PUSH4 0x1D2AEC85 EQ PUSH2 0x3B JUMPI DUP1 PUSH4 0x6F674521 EQ PUSH2 0x5A JUMPI JUMPDEST PUSH1 0x0 DUP1 REVERT JUMPDEST PUSH2 0x43 PUSH2 0x79 JUMP JUMPDEST PUSH1 0x40 MLOAD PUSH2 0x51 SWAP3 SWAP2 SWAP1 PUSH2 0x61C JUMP JUMPDEST PUSH1 0x40 MLOAD DUP1 SWAP2 SUB SWAP1 RETURN JUMPDEST PUSH2 0x62 PUSH2 0x3A8 JUMP JUMPDEST PUSH1 0x40 MLOAD PUSH2 0x70 SWAP3 SWAP2 SWAP1 PUSH2 0x61C JUMP JUMPDEST PUSH1 0x40 MLOAD DUP1 SWAP2 SUB SWAP1 RETURN JUMPDEST PUSH2 0x81 PUSH2 0x4FB JUMP JUMPDEST PUSH2 0x89 PUSH2 0x4FB JUMP JUMPDEST PUSH1 0x0 PUSH1 0x40 MLOAD DUP1 PUSH1 0x40 ADD PUSH1 0x40 MSTORE DUP1 PUSH1 0x4 DUP2 MSTORE PUSH1 0x20 ADD PUSH32 0x616C746F00000000000000000000000000000000000000000000000000000000 DUP2 MSTORE POP DUP2 PUSH1 0x0 ADD SWAP1 DUP2 PUSH2 0xD1 SWAP2 SWAP1 PUSH2 0x88E JUMP JUMPDEST POP PUSH1 0x40 MLOAD DUP1 PUSH1 0x40 ADD PUSH1 0x40 MSTORE DUP1 PUSH1 0x3 DUP2 MSTORE PUSH1 0x20 ADD PUSH32 0x6B69610000000000000000000000000000000000000000000000000000000000 DUP2 MSTORE POP DUP2 PUSH1 0x1 ADD SWAP1 DUP2 PUSH2 0x118 SWAP2 SWAP1 PUSH2 0x88E JUMP JUMPDEST POP PUSH2 0x7DC DUP2 PUSH1 0x2 ADD DUP2 SWAP1 SSTORE POP PUSH1 0x0 DUP2 DUP2 PUSH1 0x40 MLOAD DUP1 PUSH1 0x60 ADD PUSH1 0x40 MSTORE SWAP1 DUP2 PUSH1 0x0 DUP3 ADD DUP1 SLOAD PUSH2 0x143 SWAP1 PUSH2 0x6B1 JUMP JUMPDEST DUP1 PUSH1 0x1F ADD PUSH1 0x20 DUP1 SWAP2 DIV MUL PUSH1 0x20 ADD PUSH1 0x40 MLOAD SWAP1 DUP2 ADD PUSH1 0x40 MSTORE DUP1 SWAP3 SWAP2 SWAP1 DUP2 DUP2 MSTORE PUSH1 0x20 ADD DUP3 DUP1 SLOAD PUSH2 0x16F SWAP1 PUSH2 0x6B1 JUMP JUMPDEST DUP1 ISZERO PUSH2 0x1BC JUMPI DUP1 PUSH1 0x1F LT PUSH2 0x191 JUMPI PUSH2 0x100 DUP1 DUP4 SLOAD DIV MUL DUP4 MSTORE SWAP2 PUSH1 0x20 ADD SWAP2 PUSH2 0x1BC JUMP JUMPDEST DUP3 ADD SWAP2 SWAP1 PUSH1 0x0 MSTORE PUSH1 0x20 PUSH1 0x0 KECCAK256 SWAP1 JUMPDEST DUP2 SLOAD DUP2 MSTORE SWAP1 PUSH1 0x1 ADD SWAP1 PUSH1 0x20 ADD DUP1 DUP4 GT PUSH2 0x19F JUMPI DUP3 SWAP1 SUB PUSH1 0x1F AND DUP3 ADD SWAP2 JUMPDEST POP POP POP POP POP DUP2 MSTORE PUSH1 0x20 ADD PUSH1 0x1 DUP3 ADD DUP1 SLOAD PUSH2 0x1D5 SWAP1 PUSH2 0x6B1 JUMP JUMPDEST DUP1 PUSH1 0x1F ADD PUSH1 0x20 DUP1 SWAP2 DIV MUL PUSH1 0x20 ADD PUSH1 0x40 MLOAD SWAP1 DUP2 ADD PUSH1 0x40 MSTORE DUP1 SWAP3 SWAP2 SWAP1 DUP2 DUP2 MSTORE PUSH1 0x20 ADD DUP3 DUP1 SLOAD PUSH2 0x201 SWAP1 PUSH2 0x6B1 JUMP JUMPDEST DUP1 ISZERO PUSH2 0x24E JUMPI DUP1 PUSH1 0x1F LT PUSH2 0x223 JUMPI PUSH2 0x100 DUP1 DUP4 SLOAD DIV MUL DUP4 MSTORE SWAP2 PUSH1 0x20 ADD SWAP2 PUSH2 0x24E JUMP JUMPDEST DUP3 ADD SWAP2 SWAP1 PUSH1 0x0 MSTORE PUSH1 0x20 PUSH1 0x0 KECCAK256 SWAP1 JUMPDEST DUP2 SLOAD DUP2 MSTORE SWAP1 PUSH1 0x1 ADD SWAP1 PUSH1 0x20 ADD DUP1 DUP4 GT PUSH2 0x231 JUMPI DUP3 SWAP1 SUB PUSH1 0x1F AND DUP3 ADD SWAP2 JUMPDEST POP POP POP POP POP DUP2 MSTORE PUSH1 0x20 ADD PUSH1 0x2 DUP3 ADD SLOAD DUP2 MSTORE POP POP SWAP2 POP DUP1 PUSH1 0x40 MLOAD DUP1 PUSH1 0x60 ADD PUSH1 0x40 MSTORE SWAP1 DUP2 PUSH1 0x0 DUP3 ADD DUP1 SLOAD PUSH2 0x27F SWAP1 PUSH2 0x6B1 JUMP JUMPDEST DUP1 PUSH1 0x1F ADD PUSH1 0x20 DUP1 SWAP2 DIV MUL PUSH1 0x20 ADD PUSH1 0x40 MLOAD SWAP1 DUP2 ADD PUSH1 0x40 MSTORE DUP1 SWAP3 SWAP2 SWAP1 DUP2 DUP2 MSTORE PUSH1 0x20 ADD DUP3 DUP1 SLOAD PUSH2 0x2AB SWAP1 PUSH2 0x6B1 JUMP JUMPDEST DUP1 ISZERO PUSH2 0x2F8 JUMPI DUP1 PUSH1 0x1F LT PUSH2 0x2CD JUMPI PUSH2 0x100 DUP1 DUP4 SLOAD DIV MUL DUP4 MSTORE SWAP2 PUSH1 0x20 ADD SWAP2 PUSH2 0x2F8 JUMP JUMPDEST DUP3 ADD SWAP2 SWAP1 PUSH1 0x0 MSTORE PUSH1 0x20 PUSH1 0x0 KECCAK256 SWAP1 JUMPDEST DUP2 SLOAD DUP2 MSTORE SWAP1 PUSH1 0x1 ADD SWAP1 PUSH1 0x20 ADD DUP1 DUP4 GT PUSH2 0x2DB JUMPI DUP3 SWAP1 SUB PUSH1 0x1F AND DUP3 ADD SWAP2 JUMPDEST POP POP POP POP POP DUP2 MSTORE PUSH1 0x20 ADD PUSH1 0x1 DUP3 ADD DUP1 SLOAD PUSH2 0x311 SWAP1 PUSH2 0x6B1 JUMP JUMPDEST DUP1 PUSH1 0x1F ADD PUSH1 0x20 DUP1 SWAP2 DIV MUL PUSH1 0x20 ADD PUSH1 0x40 MLOAD SWAP1 DUP2 ADD PUSH1 0x40 MSTORE DUP1 SWAP3 SWAP2 SWAP1 DUP2 DUP2 MSTORE PUSH1 0x20 ADD DUP3 DUP1 SLOAD PUSH2 0x33D SWAP1 PUSH2 0x6B1 JUMP JUMPDEST DUP1 ISZERO PUSH2 0x38A JUMPI DUP1 PUSH1 0x1F LT PUSH2 0x35F JUMPI PUSH2 0x100 DUP1 DUP4 SLOAD DIV MUL DUP4 MSTORE SWAP2 PUSH1 0x20 ADD SWAP2 PUSH2 0x38A JUMP JUMPDEST DUP3 ADD SWAP2 SWAP1 PUSH1 0x0 MSTORE PUSH1 0x20 PUSH1 0x0 KECCAK256 SWAP1 JUMPDEST DUP2 SLOAD DUP2 MSTORE SWAP1 PUSH1 0x1 ADD SWAP1 PUSH1 0x20 ADD DUP1 DUP4 GT PUSH2 0x36D JUMPI DUP3 SWAP1 SUB PUSH1 0x1F AND DUP3 ADD SWAP2 JUMPDEST POP POP POP POP POP DUP2 MSTORE PUSH1 0x20 ADD PUSH1 0x2 DUP3 ADD SLOAD DUP2 MSTORE POP POP SWAP1 POP SWAP3 POP SWAP3 POP POP SWAP1 SWAP2 JUMP JUMPDEST PUSH2 0x3B0 PUSH2 0x4FB JUMP JUMPDEST PUSH2 0x3B8 PUSH2 0x4FB JUMP JUMPDEST PUSH1 0x0 DUP1 PUSH1 0x40 MLOAD DUP1 PUSH1 0x60 ADD PUSH1 0x40 MSTORE SWAP1 DUP2 PUSH1 0x0 DUP3 ADD DUP1 SLOAD PUSH2 0x3D6 SWAP1 PUSH2 0x6B1 JUMP JUMPDEST DUP1 PUSH1 0x1F ADD PUSH1 0x20 DUP1 SWAP2 DIV MUL PUSH1 0x20 ADD PUSH1 0x40 MLOAD SWAP1 DUP2 ADD PUSH1 0x40 MSTORE DUP1 SWAP3 SWAP2 SWAP1 DUP2 DUP2 MSTORE PUSH1 0x20 ADD DUP3 DUP1 SLOAD PUSH2 0x402 SWAP1 PUSH2 0x6B1 JUMP JUMPDEST DUP1 ISZERO PUSH2 0x44F JUMPI DUP1 PUSH1 0x1F LT PUSH2 0x424 JUMPI PUSH2 0x100 DUP1 DUP4 SLOAD DIV MUL DUP4 MSTORE SWAP2 PUSH1 0x20 ADD SWAP2 PUSH2 0x44F JUMP JUMPDEST DUP3 ADD SWAP2 SWAP1 PUSH1 0x0 MSTORE PUSH1 0x20 PUSH1 0x0 KECCAK256 SWAP1 JUMPDEST DUP2 SLOAD DUP2 MSTORE SWAP1 PUSH1 0x1 ADD SWAP1 PUSH1 0x20 ADD DUP1 DUP4 GT PUSH2 0x432 JUMPI DUP3 SWAP1 SUB PUSH1 0x1F AND DUP3 ADD SWAP2 JUMPDEST POP POP POP POP POP DUP2 MSTORE PUSH1 0x20 ADD PUSH1 0x1 DUP3 ADD DUP1 SLOAD PUSH2 0x468 SWAP1 PUSH2 0x6B1 JUMP JUMPDEST DUP1 PUSH1 0x1F ADD PUSH1 0x20 DUP1 SWAP2 DIV MUL PUSH1 0x20 ADD PUSH1 0x40 MLOAD SWAP1 DUP2 ADD PUSH1 0x40 MSTORE DUP1 SWAP3 SWAP2 SWAP1 DUP2 DUP2 MSTORE PUSH1 0x20 ADD DUP3 DUP1 SLOAD PUSH2 0x494 SWAP1 PUSH2 0x6B1 JUMP JUMPDEST DUP1 ISZERO PUSH2 0x4E1 JUMPI DUP1 PUSH1 0x1F LT PUSH2 0x4B6 JUMPI PUSH2 0x100 DUP1 DUP4 SLOAD DIV MUL DUP4 MSTORE SWAP2 PUSH1 0x20 ADD SWAP2 PUSH2 0x4E1 JUMP JUMPDEST DUP3 ADD SWAP2 SWAP1 PUSH1 0x0 MSTORE PUSH1 0x20 PUSH1 0x0 KECCAK256 SWAP1 JUMPDEST DUP2 SLOAD DUP2 MSTORE SWAP1 PUSH1 0x1 ADD SWAP1 PUSH1 0x20 ADD DUP1 DUP4 GT PUSH2 0x4C4 JUMPI DUP3 SWAP1 SUB PUSH1 0x1F AND DUP3 ADD SWAP2 JUMPDEST POP POP POP POP POP DUP2 MSTORE PUSH1 0x20 ADD PUSH1 0x2 DUP3 ADD SLOAD DUP2 MSTORE POP POP SWAP1 POP POP SWAP1 SWAP2 JUMP JUMPDEST PUSH1 0x40 MLOAD DUP1 PUSH1 0x60 ADD PUSH1 0x40 MSTORE DUP1 PUSH1 0x60 DUP2 MSTORE PUSH1 0x20 ADD PUSH1 0x60 DUP2 MSTORE PUSH1 0x20 ADD PUSH1 0x0 DUP2 MSTORE POP SWAP1 JUMP JUMPDEST PUSH1 0x0 DUP2 MLOAD SWAP1 POP SWAP2 SWAP1 POP JUMP JUMPDEST PUSH1 0x0 DUP3 DUP3 MSTORE PUSH1 0x20 DUP3 ADD SWAP1 POP SWAP3 SWAP2 POP POP JUMP JUMPDEST PUSH1 0x0 JUMPDEST DUP4 DUP2 LT ISZERO PUSH2 0x556 JUMPI DUP1 DUP3 ADD MLOAD DUP2 DUP5 ADD MSTORE PUSH1 0x20 DUP2 ADD SWAP1 POP PUSH2 0x53B JUMP JUMPDEST PUSH1 0x0 DUP5 DUP5 ADD MSTORE POP POP POP POP JUMP JUMPDEST PUSH1 0x0 PUSH1 0x1F NOT PUSH1 0x1F DUP4 ADD AND SWAP1 POP SWAP2 SWAP1 POP JUMP JUMPDEST PUSH1 0x0 PUSH2 0x57E DUP3 PUSH2 0x51C JUMP JUMPDEST PUSH2 0x588 DUP2 DUP6 PUSH2 0x527 JUMP JUMPDEST SWAP4 POP PUSH2 0x598 DUP2 DUP6 PUSH1 0x20 DUP7 ADD PUSH2 0x538 JUMP JUMPDEST PUSH2 0x5A1 DUP2 PUSH2 0x562 JUMP JUMPDEST DUP5 ADD SWAP2 POP POP SWAP3 SWAP2 POP POP JUMP JUMPDEST PUSH1 0x0 DUP2 SWAP1 POP SWAP2 SWAP1 POP JUMP JUMPDEST PUSH2 0x5BF DUP2 PUSH2 0x5AC JUMP JUMPDEST DUP3 MSTORE POP POP JUMP JUMPDEST PUSH1 0x0 PUSH1 0x60 DUP4 ADD PUSH1 0x0 DUP4 ADD MLOAD DUP5 DUP3 SUB PUSH1 0x0 DUP7 ADD MSTORE PUSH2 0x5E2 DUP3 DUP3 PUSH2 0x573 JUMP JUMPDEST SWAP2 POP POP PUSH1 0x20 DUP4 ADD MLOAD DUP5 DUP3 SUB PUSH1 0x20 DUP7 ADD MSTORE PUSH2 0x5FC DUP3 DUP3 PUSH2 0x573 JUMP JUMPDEST SWAP2 POP POP PUSH1 0x40 DUP4 ADD MLOAD PUSH2 0x611 PUSH1 0x40 DUP7 ADD DUP3 PUSH2 0x5B6 JUMP JUMPDEST POP DUP1 SWAP2 POP POP SWAP3 SWAP2 POP POP JUMP JUMPDEST PUSH1 0x0 PUSH1 0x40 DUP3 ADD SWAP1 POP DUP2 DUP2 SUB PUSH1 0x0 DUP4 ADD MSTORE PUSH2 0x636 DUP2 DUP6 PUSH2 0x5C5 JUMP JUMPDEST SWAP1 POP DUP2 DUP2 SUB PUSH1 0x20 DUP4 ADD MSTORE PUSH2 0x64A DUP2 DUP5 PUSH2 0x5C5 JUMP JUMPDEST SWAP1 POP SWAP4 SWAP3 POP POP POP JUMP JUMPDEST PUSH32 0x4E487B7100000000000000000000000000000000000000000000000000000000 PUSH1 0x0 MSTORE PUSH1 0x41 PUSH1 0x4 MSTORE PUSH1 0x24 PUSH1 0x0 REVERT JUMPDEST PUSH32 0x4E487B7100000000000000000000000000000000000000000000000000000000 PUSH1 0x0 MSTORE PUSH1 0x22 PUSH1 0x4 MSTORE PUSH1 0x24 PUSH1 0x0 REVERT JUMPDEST PUSH1 0x0 PUSH1 0x2 DUP3 DIV SWAP1 POP PUSH1 0x1 DUP3 AND DUP1 PUSH2 0x6C9 JUMPI PUSH1 0x7F DUP3 AND SWAP2 POP JUMPDEST PUSH1 0x20 DUP3 LT DUP2 SUB PUSH2 0x6DC JUMPI PUSH2 0x6DB PUSH2 0x682 JUMP JUMPDEST JUMPDEST POP SWAP2 SWAP1 POP JUMP JUMPDEST PUSH1 0x0 DUP2 SWAP1 POP DUP2 PUSH1 0x0 MSTORE PUSH1 0x20 PUSH1 0x0 KECCAK256 SWAP1 POP SWAP2 SWAP1 POP JUMP JUMPDEST PUSH1 0x0 PUSH1 0x20 PUSH1 0x1F DUP4 ADD DIV SWAP1 POP SWAP2 SWAP1 POP JUMP JUMPDEST PUSH1 0x0 DUP3 DUP3 SHL SWAP1 POP SWAP3 SWAP2 POP POP JUMP JUMPDEST PUSH1 0x0 PUSH1 0x8 DUP4 MUL PUSH2 0x744 PUSH32 0xFFFFFFFFFFFFFFFFFFFFFFFFFFFFFFFFFFFFFFFFFFFFFFFFFFFFFFFFFFFFFFFF DUP3 PUSH2 0x707 JUMP JUMPDEST PUSH2 0x74E DUP7 DUP4 PUSH2 0x707 JUMP JUMPDEST SWAP6 POP DUP1 NOT DUP5 AND SWAP4 POP DUP1 DUP7 AND DUP5 OR SWAP3 POP POP POP SWAP4 SWAP3 POP POP POP JUMP JUMPDEST PUSH1 0x0 DUP2 SWAP1 POP SWAP2 SWAP1 POP JUMP JUMPDEST PUSH1 0x0 PUSH2 0x78B PUSH2 0x786 PUSH2 0x781 DUP5 PUSH2 0x5AC JUMP JUMPDEST PUSH2 0x766 JUMP JUMPDEST PUSH2 0x5AC JUMP JUMPDEST SWAP1 POP SWAP2 SWAP1 POP JUMP JUMPDEST PUSH1 0x0 DUP2 SWAP1 POP SWAP2 SWAP1 POP JUMP JUMPDEST PUSH2 0x7A5 DUP4 PUSH2 0x770 JUMP JUMPDEST PUSH2 0x7B9 PUSH2 0x7B1 DUP3 PUSH2 0x792 JUMP JUMPDEST DUP5 DUP5 SLOAD PUSH2 0x714 JUMP JUMPDEST DUP3 SSTORE POP POP POP POP JUMP JUMPDEST PUSH1 0x0 SWAP1 JUMP JUMPDEST PUSH2 0x7CE PUSH2 0x7C1 JUMP JUMPDEST PUSH2 0x7D9 DUP2 DUP5 DUP5 PUSH2 0x79C JUMP JUMPDEST POP POP POP JUMP JUMPDEST JUMPDEST DUP2 DUP2 LT ISZERO PUSH2 0x7FD JUMPI PUSH2 0x7F2 PUSH1 0x0 DUP3 PUSH2 0x7C6 JUMP JUMPDEST PUSH1 0x1 DUP2 ADD SWAP1 POP PUSH2 0x7DF JUMP JUMPDEST POP POP JUMP JUMPDEST PUSH1 0x1F DUP3 GT ISZERO PUSH2 0x842 JUMPI PUSH2 0x813 DUP2 PUSH2 0x6E2 JUMP JUMPDEST PUSH2 0x81C DUP5 PUSH2 0x6F7 JUMP JUMPDEST DUP2 ADD PUSH1 0x20 DUP6 LT ISZERO PUSH2 0x82B JUMPI DUP2 SWAP1 POP JUMPDEST PUSH2 0x83F PUSH2 0x837 DUP6 PUSH2 0x6F7 JUMP JUMPDEST DUP4 ADD DUP3 PUSH2 0x7DE JUMP JUMPDEST POP POP JUMPDEST POP POP POP JUMP JUMPDEST PUSH1 0x0 DUP3 DUP3 SHR SWAP1 POP SWAP3 SWAP2 POP POP JUMP JUMPDEST PUSH1 0x0 PUSH2 0x865 PUSH1 0x0 NOT DUP5 PUSH1 0x8 MUL PUSH2 0x847 JUMP JUMPDEST NOT DUP1 DUP4 AND SWAP2 POP POP SWAP3 SWAP2 POP POP JUMP JUMPDEST PUSH1 0x0 PUSH2 0x87E DUP4 DUP4 PUSH2 0x854 JUMP JUMPDEST SWAP2 POP DUP3 PUSH1 0x2 MUL DUP3 OR SWAP1 POP SWAP3 SWAP2 POP POP JUMP JUMPDEST PUSH2 0x897 DUP3 PUSH2 0x51C JUMP JUMPDEST PUSH8 0xFFFFFFFFFFFFFFFF DUP2 GT ISZERO PUSH2 0x8B0 JUMPI PUSH2 0x8AF PUSH2 0x653 JUMP JUMPDEST JUMPDEST PUSH2 0x8BA DUP3 SLOAD PUSH2 0x6B1 JUMP JUMPDEST PUSH2 0x8C5 DUP3 DUP3 DUP6 PUSH2 0x801 JUMP JUMPDEST PUSH1 0x0 PUSH1 0x20 SWAP1 POP PUSH1 0x1F DUP4 GT PUSH1 0x1 DUP2 EQ PUSH2 0x8F8 JUMPI PUSH1 0x0 DUP5 ISZERO PUSH2 0x8E6 JUMPI DUP3 DUP8 ADD MLOAD SWAP1 POP JUMPDEST PUSH2 0x8F0 DUP6 DUP3 PUSH2 0x872 JUMP JUMPDEST DUP7 SSTORE POP PUSH2 0x958 JUMP JUMPDEST PUSH1 0x1F NOT DUP5 AND PUSH2 0x906 DUP7 PUSH2 0x6E2 JUMP JUMPDEST PUSH1 0x0 JUMPDEST DUP3 DUP2 LT ISZERO PUSH2 0x92E JUMPI DUP5 DUP10 ADD MLOAD DUP3 SSTORE PUSH1 0x1 DUP3 ADD SWAP2 POP PUSH1 0x20 DUP6 ADD SWAP5 POP PUSH1 0x20 DUP2 ADD SWAP1 POP PUSH2 0x909 JUMP JUMPDEST DUP7 DUP4 LT ISZERO PUSH2 0x94B JUMPI DUP5 DUP10 ADD MLOAD PUSH2 0x947 PUSH1 0x1F DUP10 AND DUP3 PUSH2 0x854 JUMP JUMPDEST DUP4 SSTORE POP JUMPDEST PUSH1 0x1 PUSH1 0x2 DUP9 MUL ADD DUP9 SSTORE POP POP POP JUMPDEST POP POP POP POP POP POP JUMP INVALID LOG2 PUSH5 0x6970667358 0x22 SLT KECCAK256 CODECOPY 0xF6 0xC9 BASEFEE DUP7 0xD3 0xAD KECCAK256 DUP2 CALLDATACOPY 0xEB 0xD COINBASE DUP12 INVALID 0xA7 0xAA JUMPI 0xD8 SIGNEXTEND 0xDF LT 0xE6 ADD CHAINID 0xA8 0xB2 SDIV XOR CALLCODE 0xBB DUP16 PUSH5 0x736F6C6343 STOP ADDMOD SLT STOP CALLER "
				},
				"gasEstimates": {
					"creation": {
						"codeDepositCost": "490800",
						"executionCost": "infinite",
						"totalCost": "infinite"
					},
					"external": {
						"initCar1()": "infinite",
						"initCar2()": "infinite"
					}
				},
				"methodIdentifiers": {
					"initCar1()": "1d2aec85",
					"initCar2()": "6f674521"
				}
			},
			"storageLayout": {
				"storage": [
					{
						"astId": 16,
						"contract": "LAB 7-8-2023/Datalocations.sol:Excercise",
						"label": "car",
						"offset": 0,
						"slot": "0",
						"type": "t_struct(CAR)8_storage"
					}
				],
				"types": {
					"t_string_storage": {
						"encoding": "bytes",
						"label": "string",
						"numberOfBytes": "32"
					},
					"t_struct(CAR)8_storage": {
						"encoding": "inplace",
						"label": "struct Excercise.CAR",
						"members": [
							{
								"astId": 3,
								"contract": "LAB 7-8-2023/Datalocations.sol:Excercise",
								"label": "name",
								"offset": 0,
								"slot": "0",
								"type": "t_string_storage"
							},
							{
								"astId": 5,
								"contract": "LAB 7-8-2023/Datalocations.sol:Excercise",
								"label": "model",
								"offset": 0,
								"slot": "1",
								"type": "t_string_storage"
							},
							{
								"astId": 7,
								"contract": "LAB 7-8-2023/Datalocations.sol:Excercise",
								"label": "year",
								"offset": 0,
								"slot": "2",
								"type": "t_uint256"
							}
						],
						"numberOfBytes": "96"
					},
					"t_uint256": {
						"encoding": "inplace",
						"label": "uint256",
						"numberOfBytes": "32"
					}
				}
			},
			"userdoc": {
				"kind": "user",
				"methods": {},
				"version": 1
			}
		}
	}
}