{
	"Lab 4-08-2023.sol": {
		"merkle": {
			"abi": [
				{
					"inputs": [],
					"name": "get",
					"outputs": [
						{
							"internalType": "uint256[]",
							"name": "",
							"type": "uint256[]"
						}
					],
					"stateMutability": "view",
					"type": "function"
				},
				{
					"inputs": [],
					"name": "merkletree",
					"outputs": [
						{
							"internalType": "uint256",
							"name": "",
							"type": "uint256"
						}
					],
					"stateMutability": "nonpayable",
					"type": "function"
				}
			],
			"devdoc": {
				"kind": "dev",
				"methods": {},
				"version": 1
			},
			"evm": {
				"assembly": "    /* \"Lab 4-08-2023.sol\":61:789  contract merkle {... */\n  mstore(0x40, 0x80)\n    /* \"Lab 4-08-2023.sol\":183:211  uint256[] values = [1,2,3,4] */\n  mload(0x40)\n  dup1\n  0x80\n  add\n  0x40\n  mstore\n  dup1\n    /* \"Lab 4-08-2023.sol\":203:204  1 */\n  0x01\n    /* \"Lab 4-08-2023.sol\":183:211  uint256[] values = [1,2,3,4] */\n  0xff\n  and\n  dup2\n  mstore\n  0x20\n  add\n    /* \"Lab 4-08-2023.sol\":205:206  2 */\n  0x02\n    /* \"Lab 4-08-2023.sol\":183:211  uint256[] values = [1,2,3,4] */\n  0xff\n  and\n  dup2\n  mstore\n  0x20\n  add\n    /* \"Lab 4-08-2023.sol\":207:208  3 */\n  0x03\n    /* \"Lab 4-08-2023.sol\":183:211  uint256[] values = [1,2,3,4] */\n  0xff\n  and\n  dup2\n  mstore\n  0x20\n  add\n    /* \"Lab 4-08-2023.sol\":209:210  4 */\n  0x04\n    /* \"Lab 4-08-2023.sol\":183:211  uint256[] values = [1,2,3,4] */\n  0xff\n  and\n  dup2\n  mstore\n  pop\n  0x00\n  swap1\n  0x04\n  tag_1\n  swap3\n  swap2\n  swap1\n  tag_2\n  jump\t// in\ntag_1:\n  pop\n    /* \"Lab 4-08-2023.sol\":61:789  contract merkle {... */\n  callvalue\n  dup1\n  iszero\n  tag_3\n  jumpi\n  0x00\n  dup1\n  revert\ntag_3:\n  pop\n  jump(tag_4)\ntag_2:\n  dup3\n  dup1\n  sload\n  dup3\n  dup3\n  sstore\n  swap1\n  0x00\n  mstore\n  keccak256(0x00, 0x20)\n  swap1\n  dup2\n  add\n  swap3\n  dup3\n  iszero\n  tag_5\n  jumpi\n  swap2\n  0x20\n  mul\n  dup3\n  add\ntag_6:\n  dup3\n  dup2\n  gt\n  iszero\n  tag_7\n  jumpi\n  dup3\n  mload\n  dup3\n  swap1\n  0xff\n  and\n  swap1\n  sstore\n  swap2\n  0x20\n  add\n  swap2\n  swap1\n  0x01\n  add\n  swap1\n  jump(tag_6)\ntag_7:\ntag_5:\n  pop\n  swap1\n  pop\n  tag_8\n  swap2\n  swap1\n  tag_9\n  jump\t// in\ntag_8:\n  pop\n  swap1\n  jump\t// out\ntag_9:\ntag_10:\n  dup1\n  dup3\n  gt\n  iszero\n  tag_11\n  jumpi\n  0x00\n  dup2\n  0x00\n  swap1\n  sstore\n  pop\n  0x01\n  add\n  jump(tag_10)\ntag_11:\n  pop\n  swap1\n  jump\t// out\ntag_4:\n  dataSize(sub_0)\n  dup1\n  dataOffset(sub_0)\n  0x00\n  codecopy\n  0x00\n  return\nstop\n\nsub_0: assembly {\n        /* \"Lab 4-08-2023.sol\":61:789  contract merkle {... */\n      mstore(0x40, 0x80)\n      callvalue\n      dup1\n      iszero\n      tag_1\n      jumpi\n      0x00\n      dup1\n      revert\n    tag_1:\n      pop\n      jumpi(tag_2, lt(calldatasize, 0x04))\n      shr(0xe0, calldataload(0x00))\n      dup1\n      0x6d4ce63c\n      eq\n      tag_3\n      jumpi\n      dup1\n      0xb420dcb2\n      eq\n      tag_4\n      jumpi\n    tag_2:\n      0x00\n      dup1\n      revert\n        /* \"Lab 4-08-2023.sol\":692:769  function get() public view returns (uint [] memory) {... */\n    tag_3:\n      tag_5\n      tag_6\n      jump\t// in\n    tag_5:\n      mload(0x40)\n      tag_7\n      swap2\n      swap1\n      tag_8\n      jump\t// in\n    tag_7:\n      mload(0x40)\n      dup1\n      swap2\n      sub\n      swap1\n      return\n        /* \"Lab 4-08-2023.sol\":217:688  function merkletree() public  returns (uint256 )  {... */\n    tag_4:\n      tag_9\n      tag_10\n      jump\t// in\n    tag_9:\n      mload(0x40)\n      tag_11\n      swap2\n      swap1\n      tag_12\n      jump\t// in\n    tag_11:\n      mload(0x40)\n      dup1\n      swap2\n      sub\n      swap1\n      return\n        /* \"Lab 4-08-2023.sol\":692:769  function get() public view returns (uint [] memory) {... */\n    tag_6:\n        /* \"Lab 4-08-2023.sol\":728:742  uint [] memory */\n      0x60\n        /* \"Lab 4-08-2023.sol\":759:765  values */\n      0x00\n        /* \"Lab 4-08-2023.sol\":751:765  return  values */\n      dup1\n      sload\n      dup1\n      0x20\n      mul\n      0x20\n      add\n      mload(0x40)\n      swap1\n      dup2\n      add\n      0x40\n      mstore\n      dup1\n      swap3\n      swap2\n      swap1\n      dup2\n      dup2\n      mstore\n      0x20\n      add\n      dup3\n      dup1\n      sload\n      dup1\n      iszero\n      tag_14\n      jumpi\n      0x20\n      mul\n      dup3\n      add\n      swap2\n      swap1\n      0x00\n      mstore\n      keccak256(0x00, 0x20)\n      swap1\n    tag_15:\n      dup2\n      sload\n      dup2\n      mstore\n      0x20\n      add\n      swap1\n      0x01\n      add\n      swap1\n      dup1\n      dup4\n      gt\n      tag_15\n      jumpi\n    tag_14:\n      pop\n      pop\n      pop\n      pop\n      pop\n      swap1\n      pop\n        /* \"Lab 4-08-2023.sol\":692:769  function get() public view returns (uint [] memory) {... */\n      swap1\n      jump\t// out\n        /* \"Lab 4-08-2023.sol\":217:688  function merkletree() public  returns (uint256 )  {... */\n    tag_10:\n        /* \"Lab 4-08-2023.sol\":256:263  uint256 */\n      0x00\n        /* \"Lab 4-08-2023.sol\":296:661  while (values.length>1){ ... */\n    tag_17:\n        /* \"Lab 4-08-2023.sol\":317:318  1 */\n      0x01\n        /* \"Lab 4-08-2023.sol\":303:309  values */\n      0x00\n        /* \"Lab 4-08-2023.sol\":303:316  values.length */\n      dup1\n      sload\n      swap1\n      pop\n        /* \"Lab 4-08-2023.sol\":303:318  values.length>1 */\n      gt\n        /* \"Lab 4-08-2023.sol\":296:661  while (values.length>1){ ... */\n      iszero\n      tag_18\n      jumpi\n        /* \"Lab 4-08-2023.sol\":355:356  1 */\n      0x01\n        /* \"Lab 4-08-2023.sol\":351:352  2 */\n      0x02\n        /* \"Lab 4-08-2023.sol\":335:341  values */\n      0x00\n        /* \"Lab 4-08-2023.sol\":335:348  values.length */\n      dup1\n      sload\n      swap1\n      pop\n        /* \"Lab 4-08-2023.sol\":335:352  values.length % 2 */\n      tag_19\n      swap2\n      swap1\n      tag_20\n      jump\t// in\n    tag_19:\n        /* \"Lab 4-08-2023.sol\":335:356  values.length % 2 ==1 */\n      sub\n        /* \"Lab 4-08-2023.sol\":331:391  if (values.length % 2 ==1) {... */\n      tag_21\n      jumpi\n        /* \"Lab 4-08-2023.sol\":366:372  values */\n      0x00\n        /* \"Lab 4-08-2023.sol\":378:379  0 */\n      dup1\n        /* \"Lab 4-08-2023.sol\":366:380  values.push(0) */\n      dup1\n      0x01\n      dup2\n      sload\n      add\n      dup1\n      dup3\n      sstore\n      dup1\n      swap2\n      pop\n      pop\n      0x01\n      swap1\n      sub\n      swap1\n      0x00\n      mstore\n      keccak256(0x00, 0x20)\n      add\n      0x00\n      swap1\n      swap2\n      swap1\n      swap2\n      swap1\n      swap2\n      pop\n      sstore\n        /* \"Lab 4-08-2023.sol\":331:391  if (values.length % 2 ==1) {... */\n    tag_21:\n        /* \"Lab 4-08-2023.sol\":410:416  uint i */\n      0x00\n        /* \"Lab 4-08-2023.sol\":405:534  for (uint i=0; i <values.length/2; i++) ... */\n    tag_23:\n        /* \"Lab 4-08-2023.sol\":437:438  2 */\n      0x02\n        /* \"Lab 4-08-2023.sol\":423:429  values */\n      0x00\n        /* \"Lab 4-08-2023.sol\":423:436  values.length */\n      dup1\n      sload\n      swap1\n      pop\n        /* \"Lab 4-08-2023.sol\":423:438  values.length/2 */\n      tag_26\n      swap2\n      swap1\n      tag_27\n      jump\t// in\n    tag_26:\n        /* \"Lab 4-08-2023.sol\":420:421  i */\n      dup2\n        /* \"Lab 4-08-2023.sol\":420:438  i <values.length/2 */\n      lt\n        /* \"Lab 4-08-2023.sol\":405:534  for (uint i=0; i <values.length/2; i++) ... */\n      iszero\n      tag_24\n      jumpi\n        /* \"Lab 4-08-2023.sol\":485:516  add(values[i*2], values[i*2+1]) */\n      tag_28\n        /* \"Lab 4-08-2023.sol\":489:495  values */\n      0x00\n        /* \"Lab 4-08-2023.sol\":498:499  2 */\n      0x02\n        /* \"Lab 4-08-2023.sol\":496:497  i */\n      dup4\n        /* \"Lab 4-08-2023.sol\":496:499  i*2 */\n      tag_29\n      swap2\n      swap1\n      tag_30\n      jump\t// in\n    tag_29:\n        /* \"Lab 4-08-2023.sol\":489:500  values[i*2] */\n      dup2\n      sload\n      dup2\n      lt\n      tag_31\n      jumpi\n      tag_32\n      tag_33\n      jump\t// in\n    tag_32:\n    tag_31:\n      swap1\n      0x00\n      mstore\n      keccak256(0x00, 0x20)\n      add\n      sload\n        /* \"Lab 4-08-2023.sol\":502:508  values */\n      0x00\n        /* \"Lab 4-08-2023.sol\":513:514  1 */\n      0x01\n        /* \"Lab 4-08-2023.sol\":511:512  2 */\n      0x02\n        /* \"Lab 4-08-2023.sol\":509:510  i */\n      dup6\n        /* \"Lab 4-08-2023.sol\":509:512  i*2 */\n      tag_35\n      swap2\n      swap1\n      tag_30\n      jump\t// in\n    tag_35:\n        /* \"Lab 4-08-2023.sol\":509:514  i*2+1 */\n      tag_36\n      swap2\n      swap1\n      tag_37\n      jump\t// in\n    tag_36:\n        /* \"Lab 4-08-2023.sol\":502:515  values[i*2+1] */\n      dup2\n      sload\n      dup2\n      lt\n      tag_38\n      jumpi\n      tag_39\n      tag_33\n      jump\t// in\n    tag_39:\n    tag_38:\n      swap1\n      0x00\n      mstore\n      keccak256(0x00, 0x20)\n      add\n      sload\n        /* \"Lab 4-08-2023.sol\":485:488  add */\n      tag_41\n        /* \"Lab 4-08-2023.sol\":485:516  add(values[i*2], values[i*2+1]) */\n      jump\t// in\n    tag_28:\n        /* \"Lab 4-08-2023.sol\":473:479  values */\n      0x00\n        /* \"Lab 4-08-2023.sol\":480:481  i */\n      dup3\n        /* \"Lab 4-08-2023.sol\":473:482  values[i] */\n      dup2\n      sload\n      dup2\n      lt\n      tag_42\n      jumpi\n      tag_43\n      tag_33\n      jump\t// in\n    tag_43:\n    tag_42:\n      swap1\n      0x00\n      mstore\n      keccak256(0x00, 0x20)\n      add\n        /* \"Lab 4-08-2023.sol\":473:516  values[i] = add(values[i*2], values[i*2+1]) */\n      dup2\n      swap1\n      sstore\n      pop\n        /* \"Lab 4-08-2023.sol\":440:443  i++ */\n      dup1\n      dup1\n      tag_45\n      swap1\n      tag_46\n      jump\t// in\n    tag_45:\n      swap2\n      pop\n      pop\n        /* \"Lab 4-08-2023.sol\":405:534  for (uint i=0; i <values.length/2; i++) ... */\n      jump(tag_23)\n    tag_24:\n      pop\n        /* \"Lab 4-08-2023.sol\":549:555  uint i */\n      0x00\n        /* \"Lab 4-08-2023.sol\":544:620  for (uint i=0; i <values.length; i++) ... */\n    tag_47:\n        /* \"Lab 4-08-2023.sol\":562:568  values */\n      0x00\n        /* \"Lab 4-08-2023.sol\":562:575  values.length */\n      dup1\n      sload\n      swap1\n      pop\n        /* \"Lab 4-08-2023.sol\":559:560  i */\n      dup2\n        /* \"Lab 4-08-2023.sol\":559:575  i <values.length */\n      lt\n        /* \"Lab 4-08-2023.sol\":544:620  for (uint i=0; i <values.length; i++) ... */\n      iszero\n      tag_48\n      jumpi\n        /* \"Lab 4-08-2023.sol\":600:606  values */\n      0x00\n        /* \"Lab 4-08-2023.sol\":600:612  values.pop() */\n      dup1\n      sload\n      dup1\n      tag_50\n      jumpi\n      tag_51\n      tag_52\n      jump\t// in\n    tag_51:\n    tag_50:\n      0x01\n      swap1\n      sub\n      dup2\n      dup2\n      swap1\n      0x00\n      mstore\n      keccak256(0x00, 0x20)\n      add\n      0x00\n      swap1\n      sstore\n      swap1\n      sstore\n        /* \"Lab 4-08-2023.sol\":577:580  i++ */\n      dup1\n      dup1\n      tag_54\n      swap1\n      tag_46\n      jump\t// in\n    tag_54:\n      swap2\n      pop\n      pop\n        /* \"Lab 4-08-2023.sol\":544:620  for (uint i=0; i <values.length; i++) ... */\n      jump(tag_47)\n    tag_48:\n      pop\n        /* \"Lab 4-08-2023.sol\":296:661  while (values.length>1){ ... */\n      jump(tag_17)\n    tag_18:\n        /* \"Lab 4-08-2023.sol\":671:677  values */\n      0x00\n        /* \"Lab 4-08-2023.sol\":678:679  0 */\n      dup1\n        /* \"Lab 4-08-2023.sol\":671:680  values[0] */\n      dup2\n      sload\n      dup2\n      lt\n      tag_55\n      jumpi\n      tag_56\n      tag_33\n      jump\t// in\n    tag_56:\n    tag_55:\n      swap1\n      0x00\n      mstore\n      keccak256(0x00, 0x20)\n      add\n      sload\n        /* \"Lab 4-08-2023.sol\":663:680  return  values[0] */\n      swap1\n      pop\n        /* \"Lab 4-08-2023.sol\":217:688  function merkletree() public  returns (uint256 )  {... */\n      swap1\n      jump\t// out\n        /* \"Lab 4-08-2023.sol\":86:179  function add(uint x , uint y) private   pure   returns (uint) {... */\n    tag_41:\n        /* \"Lab 4-08-2023.sol\":142:146  uint */\n      0x00\n        /* \"Lab 4-08-2023.sol\":172:173  y */\n      dup2\n        /* \"Lab 4-08-2023.sol\":169:170  x */\n      dup4\n        /* \"Lab 4-08-2023.sol\":169:173  x +y */\n      tag_59\n      swap2\n      swap1\n      tag_37\n      jump\t// in\n    tag_59:\n        /* \"Lab 4-08-2023.sol\":161:173  return  x +y */\n      swap1\n      pop\n        /* \"Lab 4-08-2023.sol\":86:179  function add(uint x , uint y) private   pure   returns (uint) {... */\n      swap3\n      swap2\n      pop\n      pop\n      jump\t// out\n        /* \"#utility.yul\":7:121   */\n    tag_60:\n        /* \"#utility.yul\":74:80   */\n      0x00\n        /* \"#utility.yul\":108:113   */\n      dup2\n        /* \"#utility.yul\":102:114   */\n      mload\n        /* \"#utility.yul\":92:114   */\n      swap1\n      pop\n        /* \"#utility.yul\":7:121   */\n      swap2\n      swap1\n      pop\n      jump\t// out\n        /* \"#utility.yul\":127:311   */\n    tag_61:\n        /* \"#utility.yul\":226:237   */\n      0x00\n        /* \"#utility.yul\":260:266   */\n      dup3\n        /* \"#utility.yul\":255:258   */\n      dup3\n        /* \"#utility.yul\":248:267   */\n      mstore\n        /* \"#utility.yul\":300:304   */\n      0x20\n        /* \"#utility.yul\":295:298   */\n      dup3\n        /* \"#utility.yul\":291:305   */\n      add\n        /* \"#utility.yul\":276:305   */\n      swap1\n      pop\n        /* \"#utility.yul\":127:311   */\n      swap3\n      swap2\n      pop\n      pop\n      jump\t// out\n        /* \"#utility.yul\":317:449   */\n    tag_62:\n        /* \"#utility.yul\":384:388   */\n      0x00\n        /* \"#utility.yul\":407:410   */\n      dup2\n        /* \"#utility.yul\":399:410   */\n      swap1\n      pop\n        /* \"#utility.yul\":437:441   */\n      0x20\n        /* \"#utility.yul\":432:435   */\n      dup3\n        /* \"#utility.yul\":428:442   */\n      add\n        /* \"#utility.yul\":420:442   */\n      swap1\n      pop\n        /* \"#utility.yul\":317:449   */\n      swap2\n      swap1\n      pop\n      jump\t// out\n        /* \"#utility.yul\":455:532   */\n    tag_63:\n        /* \"#utility.yul\":492:499   */\n      0x00\n        /* \"#utility.yul\":521:526   */\n      dup2\n        /* \"#utility.yul\":510:526   */\n      swap1\n      pop\n        /* \"#utility.yul\":455:532   */\n      swap2\n      swap1\n      pop\n      jump\t// out\n        /* \"#utility.yul\":538:646   */\n    tag_64:\n        /* \"#utility.yul\":615:639   */\n      tag_77\n        /* \"#utility.yul\":633:638   */\n      dup2\n        /* \"#utility.yul\":615:639   */\n      tag_63\n      jump\t// in\n    tag_77:\n        /* \"#utility.yul\":610:613   */\n      dup3\n        /* \"#utility.yul\":603:640   */\n      mstore\n        /* \"#utility.yul\":538:646   */\n      pop\n      pop\n      jump\t// out\n        /* \"#utility.yul\":652:831   */\n    tag_65:\n        /* \"#utility.yul\":721:731   */\n      0x00\n        /* \"#utility.yul\":742:788   */\n      tag_79\n        /* \"#utility.yul\":784:787   */\n      dup4\n        /* \"#utility.yul\":776:782   */\n      dup4\n        /* \"#utility.yul\":742:788   */\n      tag_64\n      jump\t// in\n    tag_79:\n        /* \"#utility.yul\":820:824   */\n      0x20\n        /* \"#utility.yul\":815:818   */\n      dup4\n        /* \"#utility.yul\":811:825   */\n      add\n        /* \"#utility.yul\":797:825   */\n      swap1\n      pop\n        /* \"#utility.yul\":652:831   */\n      swap3\n      swap2\n      pop\n      pop\n      jump\t// out\n        /* \"#utility.yul\":837:950   */\n    tag_66:\n        /* \"#utility.yul\":907:911   */\n      0x00\n        /* \"#utility.yul\":939:943   */\n      0x20\n        /* \"#utility.yul\":934:937   */\n      dup3\n        /* \"#utility.yul\":930:944   */\n      add\n        /* \"#utility.yul\":922:944   */\n      swap1\n      pop\n        /* \"#utility.yul\":837:950   */\n      swap2\n      swap1\n      pop\n      jump\t// out\n        /* \"#utility.yul\":986:1718   */\n    tag_67:\n        /* \"#utility.yul\":1105:1108   */\n      0x00\n        /* \"#utility.yul\":1134:1188   */\n      tag_82\n        /* \"#utility.yul\":1182:1187   */\n      dup3\n        /* \"#utility.yul\":1134:1188   */\n      tag_60\n      jump\t// in\n    tag_82:\n        /* \"#utility.yul\":1204:1290   */\n      tag_83\n        /* \"#utility.yul\":1283:1289   */\n      dup2\n        /* \"#utility.yul\":1278:1281   */\n      dup6\n        /* \"#utility.yul\":1204:1290   */\n      tag_61\n      jump\t// in\n    tag_83:\n        /* \"#utility.yul\":1197:1290   */\n      swap4\n      pop\n        /* \"#utility.yul\":1314:1370   */\n      tag_84\n        /* \"#utility.yul\":1364:1369   */\n      dup4\n        /* \"#utility.yul\":1314:1370   */\n      tag_62\n      jump\t// in\n    tag_84:\n        /* \"#utility.yul\":1393:1400   */\n      dup1\n        /* \"#utility.yul\":1424:1425   */\n      0x00\n        /* \"#utility.yul\":1409:1693   */\n    tag_85:\n        /* \"#utility.yul\":1434:1440   */\n      dup4\n        /* \"#utility.yul\":1431:1432   */\n      dup2\n        /* \"#utility.yul\":1428:1441   */\n      lt\n        /* \"#utility.yul\":1409:1693   */\n      iszero\n      tag_87\n      jumpi\n        /* \"#utility.yul\":1510:1516   */\n      dup2\n        /* \"#utility.yul\":1504:1517   */\n      mload\n        /* \"#utility.yul\":1537:1600   */\n      tag_88\n        /* \"#utility.yul\":1596:1599   */\n      dup9\n        /* \"#utility.yul\":1581:1594   */\n      dup3\n        /* \"#utility.yul\":1537:1600   */\n      tag_65\n      jump\t// in\n    tag_88:\n        /* \"#utility.yul\":1530:1600   */\n      swap8\n      pop\n        /* \"#utility.yul\":1623:1683   */\n      tag_89\n        /* \"#utility.yul\":1676:1682   */\n      dup4\n        /* \"#utility.yul\":1623:1683   */\n      tag_66\n      jump\t// in\n    tag_89:\n        /* \"#utility.yul\":1613:1683   */\n      swap3\n      pop\n        /* \"#utility.yul\":1469:1693   */\n      pop\n        /* \"#utility.yul\":1456:1457   */\n      0x01\n        /* \"#utility.yul\":1453:1454   */\n      dup2\n        /* \"#utility.yul\":1449:1458   */\n      add\n        /* \"#utility.yul\":1444:1458   */\n      swap1\n      pop\n        /* \"#utility.yul\":1409:1693   */\n      jump(tag_85)\n    tag_87:\n        /* \"#utility.yul\":1413:1427   */\n      pop\n        /* \"#utility.yul\":1709:1712   */\n      dup6\n        /* \"#utility.yul\":1702:1712   */\n      swap4\n      pop\n        /* \"#utility.yul\":1110:1718   */\n      pop\n      pop\n      pop\n        /* \"#utility.yul\":986:1718   */\n      swap3\n      swap2\n      pop\n      pop\n      jump\t// out\n        /* \"#utility.yul\":1724:2097   */\n    tag_8:\n        /* \"#utility.yul\":1867:1871   */\n      0x00\n        /* \"#utility.yul\":1905:1907   */\n      0x20\n        /* \"#utility.yul\":1894:1903   */\n      dup3\n        /* \"#utility.yul\":1890:1908   */\n      add\n        /* \"#utility.yul\":1882:1908   */\n      swap1\n      pop\n        /* \"#utility.yul\":1954:1963   */\n      dup2\n        /* \"#utility.yul\":1948:1952   */\n      dup2\n        /* \"#utility.yul\":1944:1964   */\n      sub\n        /* \"#utility.yul\":1940:1941   */\n      0x00\n        /* \"#utility.yul\":1929:1938   */\n      dup4\n        /* \"#utility.yul\":1925:1942   */\n      add\n        /* \"#utility.yul\":1918:1965   */\n      mstore\n        /* \"#utility.yul\":1982:2090   */\n      tag_91\n        /* \"#utility.yul\":2085:2089   */\n      dup2\n        /* \"#utility.yul\":2076:2082   */\n      dup5\n        /* \"#utility.yul\":1982:2090   */\n      tag_67\n      jump\t// in\n    tag_91:\n        /* \"#utility.yul\":1974:2090   */\n      swap1\n      pop\n        /* \"#utility.yul\":1724:2097   */\n      swap3\n      swap2\n      pop\n      pop\n      jump\t// out\n        /* \"#utility.yul\":2103:2221   */\n    tag_68:\n        /* \"#utility.yul\":2190:2214   */\n      tag_93\n        /* \"#utility.yul\":2208:2213   */\n      dup2\n        /* \"#utility.yul\":2190:2214   */\n      tag_63\n      jump\t// in\n    tag_93:\n        /* \"#utility.yul\":2185:2188   */\n      dup3\n        /* \"#utility.yul\":2178:2215   */\n      mstore\n        /* \"#utility.yul\":2103:2221   */\n      pop\n      pop\n      jump\t// out\n        /* \"#utility.yul\":2227:2449   */\n    tag_12:\n        /* \"#utility.yul\":2320:2324   */\n      0x00\n        /* \"#utility.yul\":2358:2360   */\n      0x20\n        /* \"#utility.yul\":2347:2356   */\n      dup3\n        /* \"#utility.yul\":2343:2361   */\n      add\n        /* \"#utility.yul\":2335:2361   */\n      swap1\n      pop\n        /* \"#utility.yul\":2371:2442   */\n      tag_95\n        /* \"#utility.yul\":2439:2440   */\n      0x00\n        /* \"#utility.yul\":2428:2437   */\n      dup4\n        /* \"#utility.yul\":2424:2441   */\n      add\n        /* \"#utility.yul\":2415:2421   */\n      dup5\n        /* \"#utility.yul\":2371:2442   */\n      tag_68\n      jump\t// in\n    tag_95:\n        /* \"#utility.yul\":2227:2449   */\n      swap3\n      swap2\n      pop\n      pop\n      jump\t// out\n        /* \"#utility.yul\":2455:2635   */\n    tag_69:\n        /* \"#utility.yul\":2503:2580   */\n      0x4e487b7100000000000000000000000000000000000000000000000000000000\n        /* \"#utility.yul\":2500:2501   */\n      0x00\n        /* \"#utility.yul\":2493:2581   */\n      mstore\n        /* \"#utility.yul\":2600:2604   */\n      0x12\n        /* \"#utility.yul\":2597:2598   */\n      0x04\n        /* \"#utility.yul\":2590:2605   */\n      mstore\n        /* \"#utility.yul\":2624:2628   */\n      0x24\n        /* \"#utility.yul\":2621:2622   */\n      0x00\n        /* \"#utility.yul\":2614:2629   */\n      revert\n        /* \"#utility.yul\":2641:2817   */\n    tag_20:\n        /* \"#utility.yul\":2673:2674   */\n      0x00\n        /* \"#utility.yul\":2690:2710   */\n      tag_98\n        /* \"#utility.yul\":2708:2709   */\n      dup3\n        /* \"#utility.yul\":2690:2710   */\n      tag_63\n      jump\t// in\n    tag_98:\n        /* \"#utility.yul\":2685:2710   */\n      swap2\n      pop\n        /* \"#utility.yul\":2724:2744   */\n      tag_99\n        /* \"#utility.yul\":2742:2743   */\n      dup4\n        /* \"#utility.yul\":2724:2744   */\n      tag_63\n      jump\t// in\n    tag_99:\n        /* \"#utility.yul\":2719:2744   */\n      swap3\n      pop\n        /* \"#utility.yul\":2763:2764   */\n      dup3\n        /* \"#utility.yul\":2753:2788   */\n      tag_100\n      jumpi\n        /* \"#utility.yul\":2768:2786   */\n      tag_101\n      tag_69\n      jump\t// in\n    tag_101:\n        /* \"#utility.yul\":2753:2788   */\n    tag_100:\n        /* \"#utility.yul\":2809:2810   */\n      dup3\n        /* \"#utility.yul\":2806:2807   */\n      dup3\n        /* \"#utility.yul\":2802:2811   */\n      mod\n        /* \"#utility.yul\":2797:2811   */\n      swap1\n      pop\n        /* \"#utility.yul\":2641:2817   */\n      swap3\n      swap2\n      pop\n      pop\n      jump\t// out\n        /* \"#utility.yul\":2823:3003   */\n    tag_70:\n        /* \"#utility.yul\":2871:2948   */\n      0x4e487b7100000000000000000000000000000000000000000000000000000000\n        /* \"#utility.yul\":2868:2869   */\n      0x00\n        /* \"#utility.yul\":2861:2949   */\n      mstore\n        /* \"#utility.yul\":2968:2972   */\n      0x11\n        /* \"#utility.yul\":2965:2966   */\n      0x04\n        /* \"#utility.yul\":2958:2973   */\n      mstore\n        /* \"#utility.yul\":2992:2996   */\n      0x24\n        /* \"#utility.yul\":2989:2990   */\n      0x00\n        /* \"#utility.yul\":2982:2997   */\n      revert\n        /* \"#utility.yul\":3009:3194   */\n    tag_27:\n        /* \"#utility.yul\":3049:3050   */\n      0x00\n        /* \"#utility.yul\":3066:3086   */\n      tag_104\n        /* \"#utility.yul\":3084:3085   */\n      dup3\n        /* \"#utility.yul\":3066:3086   */\n      tag_63\n      jump\t// in\n    tag_104:\n        /* \"#utility.yul\":3061:3086   */\n      swap2\n      pop\n        /* \"#utility.yul\":3100:3120   */\n      tag_105\n        /* \"#utility.yul\":3118:3119   */\n      dup4\n        /* \"#utility.yul\":3100:3120   */\n      tag_63\n      jump\t// in\n    tag_105:\n        /* \"#utility.yul\":3095:3120   */\n      swap3\n      pop\n        /* \"#utility.yul\":3139:3140   */\n      dup3\n        /* \"#utility.yul\":3129:3164   */\n      tag_106\n      jumpi\n        /* \"#utility.yul\":3144:3162   */\n      tag_107\n      tag_69\n      jump\t// in\n    tag_107:\n        /* \"#utility.yul\":3129:3164   */\n    tag_106:\n        /* \"#utility.yul\":3186:3187   */\n      dup3\n        /* \"#utility.yul\":3183:3184   */\n      dup3\n        /* \"#utility.yul\":3179:3188   */\n      div\n        /* \"#utility.yul\":3174:3188   */\n      swap1\n      pop\n        /* \"#utility.yul\":3009:3194   */\n      swap3\n      swap2\n      pop\n      pop\n      jump\t// out\n        /* \"#utility.yul\":3200:3610   */\n    tag_30:\n        /* \"#utility.yul\":3240:3247   */\n      0x00\n        /* \"#utility.yul\":3263:3283   */\n      tag_109\n        /* \"#utility.yul\":3281:3282   */\n      dup3\n        /* \"#utility.yul\":3263:3283   */\n      tag_63\n      jump\t// in\n    tag_109:\n        /* \"#utility.yul\":3258:3283   */\n      swap2\n      pop\n        /* \"#utility.yul\":3297:3317   */\n      tag_110\n        /* \"#utility.yul\":3315:3316   */\n      dup4\n        /* \"#utility.yul\":3297:3317   */\n      tag_63\n      jump\t// in\n    tag_110:\n        /* \"#utility.yul\":3292:3317   */\n      swap3\n      pop\n        /* \"#utility.yul\":3352:3353   */\n      dup3\n        /* \"#utility.yul\":3349:3350   */\n      dup3\n        /* \"#utility.yul\":3345:3354   */\n      mul\n        /* \"#utility.yul\":3374:3404   */\n      tag_111\n        /* \"#utility.yul\":3392:3403   */\n      dup2\n        /* \"#utility.yul\":3374:3404   */\n      tag_63\n      jump\t// in\n    tag_111:\n        /* \"#utility.yul\":3363:3404   */\n      swap2\n      pop\n        /* \"#utility.yul\":3553:3554   */\n      dup3\n        /* \"#utility.yul\":3544:3551   */\n      dup3\n        /* \"#utility.yul\":3540:3555   */\n      div\n        /* \"#utility.yul\":3537:3538   */\n      dup5\n        /* \"#utility.yul\":3534:3556   */\n      eq\n        /* \"#utility.yul\":3514:3515   */\n      dup4\n        /* \"#utility.yul\":3507:3516   */\n      iszero\n        /* \"#utility.yul\":3487:3570   */\n      or\n        /* \"#utility.yul\":3464:3603   */\n      tag_112\n      jumpi\n        /* \"#utility.yul\":3583:3601   */\n      tag_113\n      tag_70\n      jump\t// in\n    tag_113:\n        /* \"#utility.yul\":3464:3603   */\n    tag_112:\n        /* \"#utility.yul\":3248:3610   */\n      pop\n        /* \"#utility.yul\":3200:3610   */\n      swap3\n      swap2\n      pop\n      pop\n      jump\t// out\n        /* \"#utility.yul\":3616:3796   */\n    tag_33:\n        /* \"#utility.yul\":3664:3741   */\n      0x4e487b7100000000000000000000000000000000000000000000000000000000\n        /* \"#utility.yul\":3661:3662   */\n      0x00\n        /* \"#utility.yul\":3654:3742   */\n      mstore\n        /* \"#utility.yul\":3761:3765   */\n      0x32\n        /* \"#utility.yul\":3758:3759   */\n      0x04\n        /* \"#utility.yul\":3751:3766   */\n      mstore\n        /* \"#utility.yul\":3785:3789   */\n      0x24\n        /* \"#utility.yul\":3782:3783   */\n      0x00\n        /* \"#utility.yul\":3775:3790   */\n      revert\n        /* \"#utility.yul\":3802:3993   */\n    tag_37:\n        /* \"#utility.yul\":3842:3845   */\n      0x00\n        /* \"#utility.yul\":3861:3881   */\n      tag_116\n        /* \"#utility.yul\":3879:3880   */\n      dup3\n        /* \"#utility.yul\":3861:3881   */\n      tag_63\n      jump\t// in\n    tag_116:\n        /* \"#utility.yul\":3856:3881   */\n      swap2\n      pop\n        /* \"#utility.yul\":3895:3915   */\n      tag_117\n        /* \"#utility.yul\":3913:3914   */\n      dup4\n        /* \"#utility.yul\":3895:3915   */\n      tag_63\n      jump\t// in\n    tag_117:\n        /* \"#utility.yul\":3890:3915   */\n      swap3\n      pop\n        /* \"#utility.yul\":3938:3939   */\n      dup3\n        /* \"#utility.yul\":3935:3936   */\n      dup3\n        /* \"#utility.yul\":3931:3940   */\n      add\n        /* \"#utility.yul\":3924:3940   */\n      swap1\n      pop\n        /* \"#utility.yul\":3959:3962   */\n      dup1\n        /* \"#utility.yul\":3956:3957   */\n      dup3\n        /* \"#utility.yul\":3953:3963   */\n      gt\n        /* \"#utility.yul\":3950:3986   */\n      iszero\n      tag_118\n      jumpi\n        /* \"#utility.yul\":3966:3984   */\n      tag_119\n      tag_70\n      jump\t// in\n    tag_119:\n        /* \"#utility.yul\":3950:3986   */\n    tag_118:\n        /* \"#utility.yul\":3802:3993   */\n      swap3\n      swap2\n      pop\n      pop\n      jump\t// out\n        /* \"#utility.yul\":3999:4232   */\n    tag_46:\n        /* \"#utility.yul\":4038:4041   */\n      0x00\n        /* \"#utility.yul\":4061:4085   */\n      tag_121\n        /* \"#utility.yul\":4079:4084   */\n      dup3\n        /* \"#utility.yul\":4061:4085   */\n      tag_63\n      jump\t// in\n    tag_121:\n        /* \"#utility.yul\":4052:4085   */\n      swap2\n      pop\n        /* \"#utility.yul\":4107:4173   */\n      0xffffffffffffffffffffffffffffffffffffffffffffffffffffffffffffffff\n        /* \"#utility.yul\":4100:4105   */\n      dup3\n        /* \"#utility.yul\":4097:4174   */\n      sub\n        /* \"#utility.yul\":4094:4197   */\n      tag_122\n      jumpi\n        /* \"#utility.yul\":4177:4195   */\n      tag_123\n      tag_70\n      jump\t// in\n    tag_123:\n        /* \"#utility.yul\":4094:4197   */\n    tag_122:\n        /* \"#utility.yul\":4224:4225   */\n      0x01\n        /* \"#utility.yul\":4217:4222   */\n      dup3\n        /* \"#utility.yul\":4213:4226   */\n      add\n        /* \"#utility.yul\":4206:4226   */\n      swap1\n      pop\n        /* \"#utility.yul\":3999:4232   */\n      swap2\n      swap1\n      pop\n      jump\t// out\n        /* \"#utility.yul\":4238:4418   */\n    tag_52:\n        /* \"#utility.yul\":4286:4363   */\n      0x4e487b7100000000000000000000000000000000000000000000000000000000\n        /* \"#utility.yul\":4283:4284   */\n      0x00\n        /* \"#utility.yul\":4276:4364   */\n      mstore\n        /* \"#utility.yul\":4383:4387   */\n      0x31\n        /* \"#utility.yul\":4380:4381   */\n      0x04\n        /* \"#utility.yul\":4373:4388   */\n      mstore\n        /* \"#utility.yul\":4407:4411   */\n      0x24\n        /* \"#utility.yul\":4404:4405   */\n      0x00\n        /* \"#utility.yul\":4397:4412   */\n      revert\n\n    auxdata: 0xa2646970667358221220f80bca4e651c6c777d3a51bf27b2e5ed75cc4e168c84721aed9b81f88b97076b64736f6c63430008120033\n}\n",
				"bytecode": {
					"linkReferences": {},
					"object": "60806040526040518060800160405280600160ff168152602001600260ff168152602001600360ff168152602001600460ff168152506000906004610045929190610058565b5034801561005257600080fd5b506100c7565b828054828255906000526020600020908101928215610099579160200282015b82811115610098578251829060ff16905591602001919060010190610078565b5b5090506100a691906100aa565b5090565b5b808211156100c35760008160009055506001016100ab565b5090565b61058f806100d66000396000f3fe608060405234801561001057600080fd5b50600436106100365760003560e01c80636d4ce63c1461003b578063b420dcb214610059575b600080fd5b610043610077565b6040516100509190610331565b60405180910390f35b6100616100cf565b60405161006e9190610362565b60405180910390f35b606060008054806020026020016040519081016040528092919081815260200182805480156100c557602002820191906000526020600020905b8154815260200190600101908083116100b1575b5050505050905090565b60005b6001600080549050111561022f57600160026000805490506100f491906103ac565b0361012257600080806001815401808255809150506001900390600052602060002001600090919091909150555b60005b6002600080549050610137919061040c565b8110156101dd576101a86000600283610150919061043d565b815481106101615761016061047f565b5b90600052602060002001546000600160028561017d919061043d565b61018791906104ae565b815481106101985761019761047f565b5b9060005260206000200154610253565b600082815481106101bc576101bb61047f565b5b906000526020600020018190555080806101d5906104e2565b915050610125565b5060005b600080549050811015610229576000805480610200576101ff61052a565b5b600190038181906000526020600020016000905590558080610221906104e2565b9150506101e1565b506100d2565b600080815481106102435761024261047f565b5b9060005260206000200154905090565b6000818361026191906104ae565b905092915050565b600081519050919050565b600082825260208201905092915050565b6000819050602082019050919050565b6000819050919050565b6102a881610295565b82525050565b60006102ba838361029f565b60208301905092915050565b6000602082019050919050565b60006102de82610269565b6102e88185610274565b93506102f383610285565b8060005b8381101561032457815161030b88826102ae565b9750610316836102c6565b9250506001810190506102f7565b5085935050505092915050565b6000602082019050818103600083015261034b81846102d3565b905092915050565b61035c81610295565b82525050565b60006020820190506103776000830184610353565b92915050565b7f4e487b7100000000000000000000000000000000000000000000000000000000600052601260045260246000fd5b60006103b782610295565b91506103c283610295565b9250826103d2576103d161037d565b5b828206905092915050565b7f4e487b7100000000000000000000000000000000000000000000000000000000600052601160045260246000fd5b600061041782610295565b915061042283610295565b9250826104325761043161037d565b5b828204905092915050565b600061044882610295565b915061045383610295565b925082820261046181610295565b91508282048414831517610478576104776103dd565b5b5092915050565b7f4e487b7100000000000000000000000000000000000000000000000000000000600052603260045260246000fd5b60006104b982610295565b91506104c483610295565b92508282019050808211156104dc576104db6103dd565b5b92915050565b60006104ed82610295565b91507fffffffffffffffffffffffffffffffffffffffffffffffffffffffffffffffff820361051f5761051e6103dd565b5b600182019050919050565b7f4e487b7100000000000000000000000000000000000000000000000000000000600052603160045260246000fdfea2646970667358221220f80bca4e651c6c777d3a51bf27b2e5ed75cc4e168c84721aed9b81f88b97076b64736f6c63430008120033",
					"opcodes": "PUSH1 0x80 PUSH1 0x40 MSTORE PUSH1 0x40 MLOAD DUP1 PUSH1 0x80 ADD PUSH1 0x40 MSTORE DUP1 PUSH1 0x1 PUSH1 0xFF AND DUP2 MSTORE PUSH1 0x20 ADD PUSH1 0x2 PUSH1 0xFF AND DUP2 MSTORE PUSH1 0x20 ADD PUSH1 0x3 PUSH1 0xFF AND DUP2 MSTORE PUSH1 0x20 ADD PUSH1 0x4 PUSH1 0xFF AND DUP2 MSTORE POP PUSH1 0x0 SWAP1 PUSH1 0x4 PUSH2 0x45 SWAP3 SWAP2 SWAP1 PUSH2 0x58 JUMP JUMPDEST POP CALLVALUE DUP1 ISZERO PUSH2 0x52 JUMPI PUSH1 0x0 DUP1 REVERT JUMPDEST POP PUSH2 0xC7 JUMP JUMPDEST DUP3 DUP1 SLOAD DUP3 DUP3 SSTORE SWAP1 PUSH1 0x0 MSTORE PUSH1 0x20 PUSH1 0x0 KECCAK256 SWAP1 DUP2 ADD SWAP3 DUP3 ISZERO PUSH2 0x99 JUMPI SWAP2 PUSH1 0x20 MUL DUP3 ADD JUMPDEST DUP3 DUP2 GT ISZERO PUSH2 0x98 JUMPI DUP3 MLOAD DUP3 SWAP1 PUSH1 0xFF AND SWAP1 SSTORE SWAP2 PUSH1 0x20 ADD SWAP2 SWAP1 PUSH1 0x1 ADD SWAP1 PUSH2 0x78 JUMP JUMPDEST JUMPDEST POP SWAP1 POP PUSH2 0xA6 SWAP2 SWAP1 PUSH2 0xAA JUMP JUMPDEST POP SWAP1 JUMP JUMPDEST JUMPDEST DUP1 DUP3 GT ISZERO PUSH2 0xC3 JUMPI PUSH1 0x0 DUP2 PUSH1 0x0 SWAP1 SSTORE POP PUSH1 0x1 ADD PUSH2 0xAB JUMP JUMPDEST POP SWAP1 JUMP JUMPDEST PUSH2 0x58F DUP1 PUSH2 0xD6 PUSH1 0x0 CODECOPY PUSH1 0x0 RETURN INVALID PUSH1 0x80 PUSH1 0x40 MSTORE CALLVALUE DUP1 ISZERO PUSH2 0x10 JUMPI PUSH1 0x0 DUP1 REVERT JUMPDEST POP PUSH1 0x4 CALLDATASIZE LT PUSH2 0x36 JUMPI PUSH1 0x0 CALLDATALOAD PUSH1 0xE0 SHR DUP1 PUSH4 0x6D4CE63C EQ PUSH2 0x3B JUMPI DUP1 PUSH4 0xB420DCB2 EQ PUSH2 0x59 JUMPI JUMPDEST PUSH1 0x0 DUP1 REVERT JUMPDEST PUSH2 0x43 PUSH2 0x77 JUMP JUMPDEST PUSH1 0x40 MLOAD PUSH2 0x50 SWAP2 SWAP1 PUSH2 0x331 JUMP JUMPDEST PUSH1 0x40 MLOAD DUP1 SWAP2 SUB SWAP1 RETURN JUMPDEST PUSH2 0x61 PUSH2 0xCF JUMP JUMPDEST PUSH1 0x40 MLOAD PUSH2 0x6E SWAP2 SWAP1 PUSH2 0x362 JUMP JUMPDEST PUSH1 0x40 MLOAD DUP1 SWAP2 SUB SWAP1 RETURN JUMPDEST PUSH1 0x60 PUSH1 0x0 DUP1 SLOAD DUP1 PUSH1 0x20 MUL PUSH1 0x20 ADD PUSH1 0x40 MLOAD SWAP1 DUP2 ADD PUSH1 0x40 MSTORE DUP1 SWAP3 SWAP2 SWAP1 DUP2 DUP2 MSTORE PUSH1 0x20 ADD DUP3 DUP1 SLOAD DUP1 ISZERO PUSH2 0xC5 JUMPI PUSH1 0x20 MUL DUP3 ADD SWAP2 SWAP1 PUSH1 0x0 MSTORE PUSH1 0x20 PUSH1 0x0 KECCAK256 SWAP1 JUMPDEST DUP2 SLOAD DUP2 MSTORE PUSH1 0x20 ADD SWAP1 PUSH1 0x1 ADD SWAP1 DUP1 DUP4 GT PUSH2 0xB1 JUMPI JUMPDEST POP POP POP POP POP SWAP1 POP SWAP1 JUMP JUMPDEST PUSH1 0x0 JUMPDEST PUSH1 0x1 PUSH1 0x0 DUP1 SLOAD SWAP1 POP GT ISZERO PUSH2 0x22F JUMPI PUSH1 0x1 PUSH1 0x2 PUSH1 0x0 DUP1 SLOAD SWAP1 POP PUSH2 0xF4 SWAP2 SWAP1 PUSH2 0x3AC JUMP JUMPDEST SUB PUSH2 0x122 JUMPI PUSH1 0x0 DUP1 DUP1 PUSH1 0x1 DUP2 SLOAD ADD DUP1 DUP3 SSTORE DUP1 SWAP2 POP POP PUSH1 0x1 SWAP1 SUB SWAP1 PUSH1 0x0 MSTORE PUSH1 0x20 PUSH1 0x0 KECCAK256 ADD PUSH1 0x0 SWAP1 SWAP2 SWAP1 SWAP2 SWAP1 SWAP2 POP SSTORE JUMPDEST PUSH1 0x0 JUMPDEST PUSH1 0x2 PUSH1 0x0 DUP1 SLOAD SWAP1 POP PUSH2 0x137 SWAP2 SWAP1 PUSH2 0x40C JUMP JUMPDEST DUP2 LT ISZERO PUSH2 0x1DD JUMPI PUSH2 0x1A8 PUSH1 0x0 PUSH1 0x2 DUP4 PUSH2 0x150 SWAP2 SWAP1 PUSH2 0x43D JUMP JUMPDEST DUP2 SLOAD DUP2 LT PUSH2 0x161 JUMPI PUSH2 0x160 PUSH2 0x47F JUMP JUMPDEST JUMPDEST SWAP1 PUSH1 0x0 MSTORE PUSH1 0x20 PUSH1 0x0 KECCAK256 ADD SLOAD PUSH1 0x0 PUSH1 0x1 PUSH1 0x2 DUP6 PUSH2 0x17D SWAP2 SWAP1 PUSH2 0x43D JUMP JUMPDEST PUSH2 0x187 SWAP2 SWAP1 PUSH2 0x4AE JUMP JUMPDEST DUP2 SLOAD DUP2 LT PUSH2 0x198 JUMPI PUSH2 0x197 PUSH2 0x47F JUMP JUMPDEST JUMPDEST SWAP1 PUSH1 0x0 MSTORE PUSH1 0x20 PUSH1 0x0 KECCAK256 ADD SLOAD PUSH2 0x253 JUMP JUMPDEST PUSH1 0x0 DUP3 DUP2 SLOAD DUP2 LT PUSH2 0x1BC JUMPI PUSH2 0x1BB PUSH2 0x47F JUMP JUMPDEST JUMPDEST SWAP1 PUSH1 0x0 MSTORE PUSH1 0x20 PUSH1 0x0 KECCAK256 ADD DUP2 SWAP1 SSTORE POP DUP1 DUP1 PUSH2 0x1D5 SWAP1 PUSH2 0x4E2 JUMP JUMPDEST SWAP2 POP POP PUSH2 0x125 JUMP JUMPDEST POP PUSH1 0x0 JUMPDEST PUSH1 0x0 DUP1 SLOAD SWAP1 POP DUP2 LT ISZERO PUSH2 0x229 JUMPI PUSH1 0x0 DUP1 SLOAD DUP1 PUSH2 0x200 JUMPI PUSH2 0x1FF PUSH2 0x52A JUMP JUMPDEST JUMPDEST PUSH1 0x1 SWAP1 SUB DUP2 DUP2 SWAP1 PUSH1 0x0 MSTORE PUSH1 0x20 PUSH1 0x0 KECCAK256 ADD PUSH1 0x0 SWAP1 SSTORE SWAP1 SSTORE DUP1 DUP1 PUSH2 0x221 SWAP1 PUSH2 0x4E2 JUMP JUMPDEST SWAP2 POP POP PUSH2 0x1E1 JUMP JUMPDEST POP PUSH2 0xD2 JUMP JUMPDEST PUSH1 0x0 DUP1 DUP2 SLOAD DUP2 LT PUSH2 0x243 JUMPI PUSH2 0x242 PUSH2 0x47F JUMP JUMPDEST JUMPDEST SWAP1 PUSH1 0x0 MSTORE PUSH1 0x20 PUSH1 0x0 KECCAK256 ADD SLOAD SWAP1 POP SWAP1 JUMP JUMPDEST PUSH1 0x0 DUP2 DUP4 PUSH2 0x261 SWAP2 SWAP1 PUSH2 0x4AE JUMP JUMPDEST SWAP1 POP SWAP3 SWAP2 POP POP JUMP JUMPDEST PUSH1 0x0 DUP2 MLOAD SWAP1 POP SWAP2 SWAP1 POP JUMP JUMPDEST PUSH1 0x0 DUP3 DUP3 MSTORE PUSH1 0x20 DUP3 ADD SWAP1 POP SWAP3 SWAP2 POP POP JUMP JUMPDEST PUSH1 0x0 DUP2 SWAP1 POP PUSH1 0x20 DUP3 ADD SWAP1 POP SWAP2 SWAP1 POP JUMP JUMPDEST PUSH1 0x0 DUP2 SWAP1 POP SWAP2 SWAP1 POP JUMP JUMPDEST PUSH2 0x2A8 DUP2 PUSH2 0x295 JUMP JUMPDEST DUP3 MSTORE POP POP JUMP JUMPDEST PUSH1 0x0 PUSH2 0x2BA DUP4 DUP4 PUSH2 0x29F JUMP JUMPDEST PUSH1 0x20 DUP4 ADD SWAP1 POP SWAP3 SWAP2 POP POP JUMP JUMPDEST PUSH1 0x0 PUSH1 0x20 DUP3 ADD SWAP1 POP SWAP2 SWAP1 POP JUMP JUMPDEST PUSH1 0x0 PUSH2 0x2DE DUP3 PUSH2 0x269 JUMP JUMPDEST PUSH2 0x2E8 DUP2 DUP6 PUSH2 0x274 JUMP JUMPDEST SWAP4 POP PUSH2 0x2F3 DUP4 PUSH2 0x285 JUMP JUMPDEST DUP1 PUSH1 0x0 JUMPDEST DUP4 DUP2 LT ISZERO PUSH2 0x324 JUMPI DUP2 MLOAD PUSH2 0x30B DUP9 DUP3 PUSH2 0x2AE JUMP JUMPDEST SWAP8 POP PUSH2 0x316 DUP4 PUSH2 0x2C6 JUMP JUMPDEST SWAP3 POP POP PUSH1 0x1 DUP2 ADD SWAP1 POP PUSH2 0x2F7 JUMP JUMPDEST POP DUP6 SWAP4 POP POP POP POP SWAP3 SWAP2 POP POP JUMP JUMPDEST PUSH1 0x0 PUSH1 0x20 DUP3 ADD SWAP1 POP DUP2 DUP2 SUB PUSH1 0x0 DUP4 ADD MSTORE PUSH2 0x34B DUP2 DUP5 PUSH2 0x2D3 JUMP JUMPDEST SWAP1 POP SWAP3 SWAP2 POP POP JUMP JUMPDEST PUSH2 0x35C DUP2 PUSH2 0x295 JUMP JUMPDEST DUP3 MSTORE POP POP JUMP JUMPDEST PUSH1 0x0 PUSH1 0x20 DUP3 ADD SWAP1 POP PUSH2 0x377 PUSH1 0x0 DUP4 ADD DUP5 PUSH2 0x353 JUMP JUMPDEST SWAP3 SWAP2 POP POP JUMP JUMPDEST PUSH32 0x4E487B7100000000000000000000000000000000000000000000000000000000 PUSH1 0x0 MSTORE PUSH1 0x12 PUSH1 0x4 MSTORE PUSH1 0x24 PUSH1 0x0 REVERT JUMPDEST PUSH1 0x0 PUSH2 0x3B7 DUP3 PUSH2 0x295 JUMP JUMPDEST SWAP2 POP PUSH2 0x3C2 DUP4 PUSH2 0x295 JUMP JUMPDEST SWAP3 POP DUP3 PUSH2 0x3D2 JUMPI PUSH2 0x3D1 PUSH2 0x37D JUMP JUMPDEST JUMPDEST DUP3 DUP3 MOD SWAP1 POP SWAP3 SWAP2 POP POP JUMP JUMPDEST PUSH32 0x4E487B7100000000000000000000000000000000000000000000000000000000 PUSH1 0x0 MSTORE PUSH1 0x11 PUSH1 0x4 MSTORE PUSH1 0x24 PUSH1 0x0 REVERT JUMPDEST PUSH1 0x0 PUSH2 0x417 DUP3 PUSH2 0x295 JUMP JUMPDEST SWAP2 POP PUSH2 0x422 DUP4 PUSH2 0x295 JUMP JUMPDEST SWAP3 POP DUP3 PUSH2 0x432 JUMPI PUSH2 0x431 PUSH2 0x37D JUMP JUMPDEST JUMPDEST DUP3 DUP3 DIV SWAP1 POP SWAP3 SWAP2 POP POP JUMP JUMPDEST PUSH1 0x0 PUSH2 0x448 DUP3 PUSH2 0x295 JUMP JUMPDEST SWAP2 POP PUSH2 0x453 DUP4 PUSH2 0x295 JUMP JUMPDEST SWAP3 POP DUP3 DUP3 MUL PUSH2 0x461 DUP2 PUSH2 0x295 JUMP JUMPDEST SWAP2 POP DUP3 DUP3 DIV DUP5 EQ DUP4 ISZERO OR PUSH2 0x478 JUMPI PUSH2 0x477 PUSH2 0x3DD JUMP JUMPDEST JUMPDEST POP SWAP3 SWAP2 POP POP JUMP JUMPDEST PUSH32 0x4E487B7100000000000000000000000000000000000000000000000000000000 PUSH1 0x0 MSTORE PUSH1 0x32 PUSH1 0x4 MSTORE PUSH1 0x24 PUSH1 0x0 REVERT JUMPDEST PUSH1 0x0 PUSH2 0x4B9 DUP3 PUSH2 0x295 JUMP JUMPDEST SWAP2 POP PUSH2 0x4C4 DUP4 PUSH2 0x295 JUMP JUMPDEST SWAP3 POP DUP3 DUP3 ADD SWAP1 POP DUP1 DUP3 GT ISZERO PUSH2 0x4DC JUMPI PUSH2 0x4DB PUSH2 0x3DD JUMP JUMPDEST JUMPDEST SWAP3 SWAP2 POP POP JUMP JUMPDEST PUSH1 0x0 PUSH2 0x4ED DUP3 PUSH2 0x295 JUMP JUMPDEST SWAP2 POP PUSH32 0xFFFFFFFFFFFFFFFFFFFFFFFFFFFFFFFFFFFFFFFFFFFFFFFFFFFFFFFFFFFFFFFF DUP3 SUB PUSH2 0x51F JUMPI PUSH2 0x51E PUSH2 0x3DD JUMP JUMPDEST JUMPDEST PUSH1 0x1 DUP3 ADD SWAP1 POP SWAP2 SWAP1 POP JUMP JUMPDEST PUSH32 0x4E487B7100000000000000000000000000000000000000000000000000000000 PUSH1 0x0 MSTORE PUSH1 0x31 PUSH1 0x4 MSTORE PUSH1 0x24 PUSH1 0x0 REVERT INVALID LOG2 PUSH5 0x6970667358 0x22 SLT KECCAK256 0xF8 SIGNEXTEND 0xCA 0x4E PUSH6 0x1C6C777D3A51 0xBF 0x27 0xB2 0xE5 0xED PUSH22 0xCC4E168C84721AED9B81F88B97076B64736F6C634300 ADDMOD SLT STOP CALLER "
				},
				"gasEstimates": {
					"creation": {
						"codeDepositCost": "284600",
						"executionCost": "infinite",
						"totalCost": "infinite"
					},
					"external": {
						"get()": "infinite",
						"merkletree()": "infinite"
					},
					"internal": {
						"add(uint256,uint256)": "infinite"
					}
				},
				"methodIdentifiers": {
					"get()": "6d4ce63c",
					"merkletree()": "b420dcb2"
				}
			},
			"storageLayout": {
				"storage": [
					{
						"astId": 23,
						"contract": "Lab 4-08-2023.sol:merkle",
						"label": "values",
						"offset": 0,
						"slot": "0",
						"type": "t_array(t_uint256)dyn_storage"
					}
				],
				"types": {
					"t_array(t_uint256)dyn_storage": {
						"base": "t_uint256",
						"encoding": "dynamic_array",
						"label": "uint256[]",
						"numberOfBytes": "32"
					},
					"t_uint256": {
						"encoding": "inplace",
						"label": "uint256",
						"numberOfBytes": "32"
					}
				}
			},
			"userdoc": {
				"kind": "user",
				"methods": {},
				"version": 1
			}
		}
	}
}