{
	"lab 21-08-2023/Abidecode/Task.sol": {
		"VotingDataArraySerializer": {
			"abi": [
				{
					"inputs": [
						{
							"internalType": "bytes",
							"name": "data",
							"type": "bytes"
						}
					],
					"name": "decode",
					"outputs": [
						{
							"components": [
								{
									"internalType": "address",
									"name": "voterAddress",
									"type": "address"
								},
								{
									"internalType": "uint256",
									"name": "voterID",
									"type": "uint256"
								},
								{
									"internalType": "string",
									"name": "name",
									"type": "string"
								},
								{
									"internalType": "uint256[3]",
									"name": "dateOfBirth",
									"type": "uint256[3]"
								}
							],
							"internalType": "struct VotingDataArraySerializer.VoterData[]",
							"name": "voters",
							"type": "tuple[]"
						}
					],
					"stateMutability": "pure",
					"type": "function"
				},
				{
					"inputs": [
						{
							"components": [
								{
									"internalType": "address",
									"name": "voterAddress",
									"type": "address"
								},
								{
									"internalType": "uint256",
									"name": "voterID",
									"type": "uint256"
								},
								{
									"internalType": "string",
									"name": "name",
									"type": "string"
								},
								{
									"internalType": "uint256[3]",
									"name": "dateOfBirth",
									"type": "uint256[3]"
								}
							],
							"internalType": "struct VotingDataArraySerializer.VoterData[]",
							"name": "voters",
							"type": "tuple[]"
						}
					],
					"name": "serializeVoterDataArray",
					"outputs": [
						{
							"internalType": "bytes",
							"name": "",
							"type": "bytes"
						}
					],
					"stateMutability": "pure",
					"type": "function"
				}
			],
			"devdoc": {
				"kind": "dev",
				"methods": {},
				"version": 1
			},
			"evm": {
				"assembly": "    /* \"lab 21-08-2023/Abidecode/Task.sol\":61:552  contract VotingDataArraySerializer {... */\n  mstore(0x40, 0x80)\n  callvalue\n  dup1\n  iszero\n  tag_1\n  jumpi\n  0x00\n  dup1\n  revert\ntag_1:\n  pop\n  dataSize(sub_0)\n  dup1\n  dataOffset(sub_0)\n  0x00\n  codecopy\n  0x00\n  return\nstop\n\nsub_0: assembly {\n        /* \"lab 21-08-2023/Abidecode/Task.sol\":61:552  contract VotingDataArraySerializer {... */\n      mstore(0x40, 0x80)\n      callvalue\n      dup1\n      iszero\n      tag_1\n      jumpi\n      0x00\n      dup1\n      revert\n    tag_1:\n      pop\n      jumpi(tag_2, lt(calldatasize, 0x04))\n      shr(0xe0, calldataload(0x00))\n      dup1\n      0x2e830044\n      eq\n      tag_3\n      jumpi\n      dup1\n      0xe5c5e9a3\n      eq\n      tag_4\n      jumpi\n    tag_2:\n      0x00\n      dup1\n      revert\n        /* \"lab 21-08-2023/Abidecode/Task.sol\":242:381  function serializeVoterDataArray(VoterData[] memory voters) public pure returns (bytes memory) {... */\n    tag_3:\n      tag_5\n      0x04\n      dup1\n      calldatasize\n      sub\n      dup2\n      add\n      swap1\n      tag_6\n      swap2\n      swap1\n      tag_7\n      jump\t// in\n    tag_6:\n      tag_8\n      jump\t// in\n    tag_5:\n      mload(0x40)\n      tag_9\n      swap2\n      swap1\n      tag_10\n      jump\t// in\n    tag_9:\n      mload(0x40)\n      dup1\n      swap2\n      sub\n      swap1\n      return\n        /* \"lab 21-08-2023/Abidecode/Task.sol\":387:547  function  decode(bytes memory data) public pure returns (VoterData[] memory voters)  {... */\n    tag_4:\n      tag_11\n      0x04\n      dup1\n      calldatasize\n      sub\n      dup2\n      add\n      swap1\n      tag_12\n      swap2\n      swap1\n      tag_13\n      jump\t// in\n    tag_12:\n      tag_14\n      jump\t// in\n    tag_11:\n      mload(0x40)\n      tag_15\n      swap2\n      swap1\n      tag_16\n      jump\t// in\n    tag_15:\n      mload(0x40)\n      dup1\n      swap2\n      sub\n      swap1\n      return\n        /* \"lab 21-08-2023/Abidecode/Task.sol\":242:381  function serializeVoterDataArray(VoterData[] memory voters) public pure returns (bytes memory) {... */\n    tag_8:\n        /* \"lab 21-08-2023/Abidecode/Task.sol\":323:335  bytes memory */\n      0x60\n        /* \"lab 21-08-2023/Abidecode/Task.sol\":366:372  voters */\n      dup2\n        /* \"lab 21-08-2023/Abidecode/Task.sol\":355:373  abi.encode(voters) */\n      add(0x20, mload(0x40))\n      tag_18\n      swap2\n      swap1\n      tag_16\n      jump\t// in\n    tag_18:\n      mload(0x40)\n      0x20\n      dup2\n      dup4\n      sub\n      sub\n      dup2\n      mstore\n      swap1\n      0x40\n      mstore\n        /* \"lab 21-08-2023/Abidecode/Task.sol\":348:373  return abi.encode(voters) */\n      swap1\n      pop\n        /* \"lab 21-08-2023/Abidecode/Task.sol\":242:381  function serializeVoterDataArray(VoterData[] memory voters) public pure returns (bytes memory) {... */\n      swap2\n      swap1\n      pop\n      jump\t// out\n        /* \"lab 21-08-2023/Abidecode/Task.sol\":387:547  function  decode(bytes memory data) public pure returns (VoterData[] memory voters)  {... */\n    tag_14:\n        /* \"lab 21-08-2023/Abidecode/Task.sol\":444:469  VoterData[] memory voters */\n      0x60\n        /* \"lab 21-08-2023/Abidecode/Task.sol\":499:503  data */\n      dup2\n        /* \"lab 21-08-2023/Abidecode/Task.sol\":488:519  abi.decode(data, (VoterData[])) */\n      dup1\n      0x20\n      add\n      swap1\n      mload\n      dup2\n      add\n      swap1\n      tag_20\n      swap2\n      swap1\n      tag_21\n      jump\t// in\n    tag_20:\n        /* \"lab 21-08-2023/Abidecode/Task.sol\":479:519  voters = abi.decode(data, (VoterData[])) */\n      swap1\n      pop\n        /* \"lab 21-08-2023/Abidecode/Task.sol\":387:547  function  decode(bytes memory data) public pure returns (VoterData[] memory voters)  {... */\n      swap2\n      swap1\n      pop\n      jump\t// out\n        /* \"#utility.yul\":7:82   */\n    tag_22:\n        /* \"#utility.yul\":40:46   */\n      0x00\n        /* \"#utility.yul\":73:75   */\n      0x40\n        /* \"#utility.yul\":67:76   */\n      mload\n        /* \"#utility.yul\":57:76   */\n      swap1\n      pop\n        /* \"#utility.yul\":7:82   */\n      swap1\n      jump\t// out\n        /* \"#utility.yul\":88:205   */\n    tag_23:\n        /* \"#utility.yul\":197:198   */\n      0x00\n        /* \"#utility.yul\":194:195   */\n      dup1\n        /* \"#utility.yul\":187:199   */\n      revert\n        /* \"#utility.yul\":211:328   */\n    tag_24:\n        /* \"#utility.yul\":320:321   */\n      0x00\n        /* \"#utility.yul\":317:318   */\n      dup1\n        /* \"#utility.yul\":310:322   */\n      revert\n        /* \"#utility.yul\":334:451   */\n    tag_25:\n        /* \"#utility.yul\":443:444   */\n      0x00\n        /* \"#utility.yul\":440:441   */\n      dup1\n        /* \"#utility.yul\":433:445   */\n      revert\n        /* \"#utility.yul\":457:559   */\n    tag_26:\n        /* \"#utility.yul\":498:504   */\n      0x00\n        /* \"#utility.yul\":549:551   */\n      0x1f\n        /* \"#utility.yul\":545:552   */\n      not\n        /* \"#utility.yul\":540:542   */\n      0x1f\n        /* \"#utility.yul\":533:538   */\n      dup4\n        /* \"#utility.yul\":529:543   */\n      add\n        /* \"#utility.yul\":525:553   */\n      and\n        /* \"#utility.yul\":515:553   */\n      swap1\n      pop\n        /* \"#utility.yul\":457:559   */\n      swap2\n      swap1\n      pop\n      jump\t// out\n        /* \"#utility.yul\":565:745   */\n    tag_27:\n        /* \"#utility.yul\":613:690   */\n      0x4e487b7100000000000000000000000000000000000000000000000000000000\n        /* \"#utility.yul\":610:611   */\n      0x00\n        /* \"#utility.yul\":603:691   */\n      mstore\n        /* \"#utility.yul\":710:714   */\n      0x41\n        /* \"#utility.yul\":707:708   */\n      0x04\n        /* \"#utility.yul\":700:715   */\n      mstore\n        /* \"#utility.yul\":734:738   */\n      0x24\n        /* \"#utility.yul\":731:732   */\n      0x00\n        /* \"#utility.yul\":724:739   */\n      revert\n        /* \"#utility.yul\":751:1032   */\n    tag_28:\n        /* \"#utility.yul\":834:861   */\n      tag_94\n        /* \"#utility.yul\":856:860   */\n      dup3\n        /* \"#utility.yul\":834:861   */\n      tag_26\n      jump\t// in\n    tag_94:\n        /* \"#utility.yul\":826:832   */\n      dup2\n        /* \"#utility.yul\":822:862   */\n      add\n        /* \"#utility.yul\":964:970   */\n      dup2\n        /* \"#utility.yul\":952:962   */\n      dup2\n        /* \"#utility.yul\":949:971   */\n      lt\n        /* \"#utility.yul\":928:946   */\n      0xffffffffffffffff\n        /* \"#utility.yul\":916:926   */\n      dup3\n        /* \"#utility.yul\":913:947   */\n      gt\n        /* \"#utility.yul\":910:972   */\n      or\n        /* \"#utility.yul\":907:995   */\n      iszero\n      tag_95\n      jumpi\n        /* \"#utility.yul\":975:993   */\n      tag_96\n      tag_27\n      jump\t// in\n    tag_96:\n        /* \"#utility.yul\":907:995   */\n    tag_95:\n        /* \"#utility.yul\":1015:1025   */\n      dup1\n        /* \"#utility.yul\":1011:1013   */\n      0x40\n        /* \"#utility.yul\":1004:1026   */\n      mstore\n        /* \"#utility.yul\":794:1032   */\n      pop\n        /* \"#utility.yul\":751:1032   */\n      pop\n      pop\n      jump\t// out\n        /* \"#utility.yul\":1038:1167   */\n    tag_29:\n        /* \"#utility.yul\":1072:1078   */\n      0x00\n        /* \"#utility.yul\":1099:1119   */\n      tag_98\n      tag_22\n      jump\t// in\n    tag_98:\n        /* \"#utility.yul\":1089:1119   */\n      swap1\n      pop\n        /* \"#utility.yul\":1128:1161   */\n      tag_99\n        /* \"#utility.yul\":1156:1160   */\n      dup3\n        /* \"#utility.yul\":1148:1154   */\n      dup3\n        /* \"#utility.yul\":1128:1161   */\n      tag_28\n      jump\t// in\n    tag_99:\n        /* \"#utility.yul\":1038:1167   */\n      swap2\n      swap1\n      pop\n      jump\t// out\n        /* \"#utility.yul\":1173:1509   */\n    tag_30:\n        /* \"#utility.yul\":1275:1279   */\n      0x00\n        /* \"#utility.yul\":1365:1383   */\n      0xffffffffffffffff\n        /* \"#utility.yul\":1357:1363   */\n      dup3\n        /* \"#utility.yul\":1354:1384   */\n      gt\n        /* \"#utility.yul\":1351:1407   */\n      iszero\n      tag_101\n      jumpi\n        /* \"#utility.yul\":1387:1405   */\n      tag_102\n      tag_27\n      jump\t// in\n    tag_102:\n        /* \"#utility.yul\":1351:1407   */\n    tag_101:\n        /* \"#utility.yul\":1437:1441   */\n      0x20\n        /* \"#utility.yul\":1429:1435   */\n      dup3\n        /* \"#utility.yul\":1425:1442   */\n      mul\n        /* \"#utility.yul\":1417:1442   */\n      swap1\n      pop\n        /* \"#utility.yul\":1497:1501   */\n      0x20\n        /* \"#utility.yul\":1491:1495   */\n      dup2\n        /* \"#utility.yul\":1487:1502   */\n      add\n        /* \"#utility.yul\":1479:1502   */\n      swap1\n      pop\n        /* \"#utility.yul\":1173:1509   */\n      swap2\n      swap1\n      pop\n      jump\t// out\n        /* \"#utility.yul\":1515:1632   */\n    tag_31:\n        /* \"#utility.yul\":1624:1625   */\n      0x00\n        /* \"#utility.yul\":1621:1622   */\n      dup1\n        /* \"#utility.yul\":1614:1626   */\n      revert\n        /* \"#utility.yul\":1638:1755   */\n    tag_32:\n        /* \"#utility.yul\":1747:1748   */\n      0x00\n        /* \"#utility.yul\":1744:1745   */\n      dup1\n        /* \"#utility.yul\":1737:1749   */\n      revert\n        /* \"#utility.yul\":1761:1878   */\n    tag_33:\n        /* \"#utility.yul\":1870:1871   */\n      0x00\n        /* \"#utility.yul\":1867:1868   */\n      dup1\n        /* \"#utility.yul\":1860:1872   */\n      revert\n        /* \"#utility.yul\":1884:2010   */\n    tag_34:\n        /* \"#utility.yul\":1921:1928   */\n      0x00\n        /* \"#utility.yul\":1961:2003   */\n      0xffffffffffffffffffffffffffffffffffffffff\n        /* \"#utility.yul\":1954:1959   */\n      dup3\n        /* \"#utility.yul\":1950:2004   */\n      and\n        /* \"#utility.yul\":1939:2004   */\n      swap1\n      pop\n        /* \"#utility.yul\":1884:2010   */\n      swap2\n      swap1\n      pop\n      jump\t// out\n        /* \"#utility.yul\":2016:2112   */\n    tag_35:\n        /* \"#utility.yul\":2053:2060   */\n      0x00\n        /* \"#utility.yul\":2082:2106   */\n      tag_108\n        /* \"#utility.yul\":2100:2105   */\n      dup3\n        /* \"#utility.yul\":2082:2106   */\n      tag_34\n      jump\t// in\n    tag_108:\n        /* \"#utility.yul\":2071:2106   */\n      swap1\n      pop\n        /* \"#utility.yul\":2016:2112   */\n      swap2\n      swap1\n      pop\n      jump\t// out\n        /* \"#utility.yul\":2118:2240   */\n    tag_36:\n        /* \"#utility.yul\":2191:2215   */\n      tag_110\n        /* \"#utility.yul\":2209:2214   */\n      dup2\n        /* \"#utility.yul\":2191:2215   */\n      tag_35\n      jump\t// in\n    tag_110:\n        /* \"#utility.yul\":2184:2189   */\n      dup2\n        /* \"#utility.yul\":2181:2216   */\n      eq\n        /* \"#utility.yul\":2171:2234   */\n      tag_111\n      jumpi\n        /* \"#utility.yul\":2230:2231   */\n      0x00\n        /* \"#utility.yul\":2227:2228   */\n      dup1\n        /* \"#utility.yul\":2220:2232   */\n      revert\n        /* \"#utility.yul\":2171:2234   */\n    tag_111:\n        /* \"#utility.yul\":2118:2240   */\n      pop\n      jump\t// out\n        /* \"#utility.yul\":2246:2385   */\n    tag_37:\n        /* \"#utility.yul\":2292:2297   */\n      0x00\n        /* \"#utility.yul\":2330:2336   */\n      dup2\n        /* \"#utility.yul\":2317:2337   */\n      calldataload\n        /* \"#utility.yul\":2308:2337   */\n      swap1\n      pop\n        /* \"#utility.yul\":2346:2379   */\n      tag_113\n        /* \"#utility.yul\":2373:2378   */\n      dup2\n        /* \"#utility.yul\":2346:2379   */\n      tag_36\n      jump\t// in\n    tag_113:\n        /* \"#utility.yul\":2246:2385   */\n      swap3\n      swap2\n      pop\n      pop\n      jump\t// out\n        /* \"#utility.yul\":2391:2468   */\n    tag_38:\n        /* \"#utility.yul\":2428:2435   */\n      0x00\n        /* \"#utility.yul\":2457:2462   */\n      dup2\n        /* \"#utility.yul\":2446:2462   */\n      swap1\n      pop\n        /* \"#utility.yul\":2391:2468   */\n      swap2\n      swap1\n      pop\n      jump\t// out\n        /* \"#utility.yul\":2474:2596   */\n    tag_39:\n        /* \"#utility.yul\":2547:2571   */\n      tag_116\n        /* \"#utility.yul\":2565:2570   */\n      dup2\n        /* \"#utility.yul\":2547:2571   */\n      tag_38\n      jump\t// in\n    tag_116:\n        /* \"#utility.yul\":2540:2545   */\n      dup2\n        /* \"#utility.yul\":2537:2572   */\n      eq\n        /* \"#utility.yul\":2527:2590   */\n      tag_117\n      jumpi\n        /* \"#utility.yul\":2586:2587   */\n      0x00\n        /* \"#utility.yul\":2583:2584   */\n      dup1\n        /* \"#utility.yul\":2576:2588   */\n      revert\n        /* \"#utility.yul\":2527:2590   */\n    tag_117:\n        /* \"#utility.yul\":2474:2596   */\n      pop\n      jump\t// out\n        /* \"#utility.yul\":2602:2741   */\n    tag_40:\n        /* \"#utility.yul\":2648:2653   */\n      0x00\n        /* \"#utility.yul\":2686:2692   */\n      dup2\n        /* \"#utility.yul\":2673:2693   */\n      calldataload\n        /* \"#utility.yul\":2664:2693   */\n      swap1\n      pop\n        /* \"#utility.yul\":2702:2735   */\n      tag_119\n        /* \"#utility.yul\":2729:2734   */\n      dup2\n        /* \"#utility.yul\":2702:2735   */\n      tag_39\n      jump\t// in\n    tag_119:\n        /* \"#utility.yul\":2602:2741   */\n      swap3\n      swap2\n      pop\n      pop\n      jump\t// out\n        /* \"#utility.yul\":2747:2864   */\n    tag_41:\n        /* \"#utility.yul\":2856:2857   */\n      0x00\n        /* \"#utility.yul\":2853:2854   */\n      dup1\n        /* \"#utility.yul\":2846:2858   */\n      revert\n        /* \"#utility.yul\":2870:3178   */\n    tag_42:\n        /* \"#utility.yul\":2932:2936   */\n      0x00\n        /* \"#utility.yul\":3022:3040   */\n      0xffffffffffffffff\n        /* \"#utility.yul\":3014:3020   */\n      dup3\n        /* \"#utility.yul\":3011:3041   */\n      gt\n        /* \"#utility.yul\":3008:3064   */\n      iszero\n      tag_122\n      jumpi\n        /* \"#utility.yul\":3044:3062   */\n      tag_123\n      tag_27\n      jump\t// in\n    tag_123:\n        /* \"#utility.yul\":3008:3064   */\n    tag_122:\n        /* \"#utility.yul\":3082:3111   */\n      tag_124\n        /* \"#utility.yul\":3104:3110   */\n      dup3\n        /* \"#utility.yul\":3082:3111   */\n      tag_26\n      jump\t// in\n    tag_124:\n        /* \"#utility.yul\":3074:3111   */\n      swap1\n      pop\n        /* \"#utility.yul\":3166:3170   */\n      0x20\n        /* \"#utility.yul\":3160:3164   */\n      dup2\n        /* \"#utility.yul\":3156:3171   */\n      add\n        /* \"#utility.yul\":3148:3171   */\n      swap1\n      pop\n        /* \"#utility.yul\":2870:3178   */\n      swap2\n      swap1\n      pop\n      jump\t// out\n        /* \"#utility.yul\":3184:3330   */\n    tag_43:\n        /* \"#utility.yul\":3281:3287   */\n      dup3\n        /* \"#utility.yul\":3276:3279   */\n      dup2\n        /* \"#utility.yul\":3271:3274   */\n      dup4\n        /* \"#utility.yul\":3258:3288   */\n      calldatacopy\n        /* \"#utility.yul\":3322:3323   */\n      0x00\n        /* \"#utility.yul\":3313:3319   */\n      dup4\n        /* \"#utility.yul\":3308:3311   */\n      dup4\n        /* \"#utility.yul\":3304:3320   */\n      add\n        /* \"#utility.yul\":3297:3324   */\n      mstore\n        /* \"#utility.yul\":3184:3330   */\n      pop\n      pop\n      pop\n      jump\t// out\n        /* \"#utility.yul\":3336:3761   */\n    tag_44:\n        /* \"#utility.yul\":3414:3419   */\n      0x00\n        /* \"#utility.yul\":3439:3505   */\n      tag_127\n        /* \"#utility.yul\":3455:3504   */\n      tag_128\n        /* \"#utility.yul\":3497:3503   */\n      dup5\n        /* \"#utility.yul\":3455:3504   */\n      tag_42\n      jump\t// in\n    tag_128:\n        /* \"#utility.yul\":3439:3505   */\n      tag_29\n      jump\t// in\n    tag_127:\n        /* \"#utility.yul\":3430:3505   */\n      swap1\n      pop\n        /* \"#utility.yul\":3528:3534   */\n      dup3\n        /* \"#utility.yul\":3521:3526   */\n      dup2\n        /* \"#utility.yul\":3514:3535   */\n      mstore\n        /* \"#utility.yul\":3566:3570   */\n      0x20\n        /* \"#utility.yul\":3559:3564   */\n      dup2\n        /* \"#utility.yul\":3555:3571   */\n      add\n        /* \"#utility.yul\":3604:3607   */\n      dup5\n        /* \"#utility.yul\":3595:3601   */\n      dup5\n        /* \"#utility.yul\":3590:3593   */\n      dup5\n        /* \"#utility.yul\":3586:3602   */\n      add\n        /* \"#utility.yul\":3583:3608   */\n      gt\n        /* \"#utility.yul\":3580:3692   */\n      iszero\n      tag_129\n      jumpi\n        /* \"#utility.yul\":3611:3690   */\n      tag_130\n      tag_41\n      jump\t// in\n    tag_130:\n        /* \"#utility.yul\":3580:3692   */\n    tag_129:\n        /* \"#utility.yul\":3701:3755   */\n      tag_131\n        /* \"#utility.yul\":3748:3754   */\n      dup5\n        /* \"#utility.yul\":3743:3746   */\n      dup3\n        /* \"#utility.yul\":3738:3741   */\n      dup6\n        /* \"#utility.yul\":3701:3755   */\n      tag_43\n      jump\t// in\n    tag_131:\n        /* \"#utility.yul\":3420:3761   */\n      pop\n        /* \"#utility.yul\":3336:3761   */\n      swap4\n      swap3\n      pop\n      pop\n      pop\n      jump\t// out\n        /* \"#utility.yul\":3781:4121   */\n    tag_45:\n        /* \"#utility.yul\":3837:3842   */\n      0x00\n        /* \"#utility.yul\":3886:3889   */\n      dup3\n        /* \"#utility.yul\":3879:3883   */\n      0x1f\n        /* \"#utility.yul\":3871:3877   */\n      dup4\n        /* \"#utility.yul\":3867:3884   */\n      add\n        /* \"#utility.yul\":3863:3890   */\n      slt\n        /* \"#utility.yul\":3853:3975   */\n      tag_133\n      jumpi\n        /* \"#utility.yul\":3894:3973   */\n      tag_134\n      tag_25\n      jump\t// in\n    tag_134:\n        /* \"#utility.yul\":3853:3975   */\n    tag_133:\n        /* \"#utility.yul\":4011:4017   */\n      dup2\n        /* \"#utility.yul\":3998:4018   */\n      calldataload\n        /* \"#utility.yul\":4036:4115   */\n      tag_135\n        /* \"#utility.yul\":4111:4114   */\n      dup5\n        /* \"#utility.yul\":4103:4109   */\n      dup3\n        /* \"#utility.yul\":4096:4100   */\n      0x20\n        /* \"#utility.yul\":4088:4094   */\n      dup7\n        /* \"#utility.yul\":4084:4101   */\n      add\n        /* \"#utility.yul\":4036:4115   */\n      tag_44\n      jump\t// in\n    tag_135:\n        /* \"#utility.yul\":4027:4115   */\n      swap2\n      pop\n        /* \"#utility.yul\":3843:4121   */\n      pop\n        /* \"#utility.yul\":3781:4121   */\n      swap3\n      swap2\n      pop\n      pop\n      jump\t// out\n        /* \"#utility.yul\":4127:4376   */\n    tag_46:\n        /* \"#utility.yul\":4202:4206   */\n      0x00\n        /* \"#utility.yul\":4292:4310   */\n      0xffffffffffffffff\n        /* \"#utility.yul\":4284:4290   */\n      dup3\n        /* \"#utility.yul\":4281:4311   */\n      gt\n        /* \"#utility.yul\":4278:4334   */\n      iszero\n      tag_137\n      jumpi\n        /* \"#utility.yul\":4314:4332   */\n      tag_138\n      tag_27\n      jump\t// in\n    tag_138:\n        /* \"#utility.yul\":4278:4334   */\n    tag_137:\n        /* \"#utility.yul\":4364:4368   */\n      0x20\n        /* \"#utility.yul\":4356:4362   */\n      dup3\n        /* \"#utility.yul\":4352:4369   */\n      mul\n        /* \"#utility.yul\":4344:4369   */\n      swap1\n      pop\n        /* \"#utility.yul\":4127:4376   */\n      swap2\n      swap1\n      pop\n      jump\t// out\n        /* \"#utility.yul\":4400:5043   */\n    tag_47:\n        /* \"#utility.yul\":4494:4499   */\n      0x00\n        /* \"#utility.yul\":4519:4598   */\n      tag_140\n        /* \"#utility.yul\":4535:4597   */\n      tag_141\n        /* \"#utility.yul\":4590:4596   */\n      dup5\n        /* \"#utility.yul\":4535:4597   */\n      tag_46\n      jump\t// in\n    tag_141:\n        /* \"#utility.yul\":4519:4598   */\n      tag_29\n      jump\t// in\n    tag_140:\n        /* \"#utility.yul\":4510:4598   */\n      swap1\n      pop\n        /* \"#utility.yul\":4618:4623   */\n      dup1\n        /* \"#utility.yul\":4671:4675   */\n      0x20\n        /* \"#utility.yul\":4663:4669   */\n      dup5\n        /* \"#utility.yul\":4659:4676   */\n      mul\n        /* \"#utility.yul\":4651:4657   */\n      dup4\n        /* \"#utility.yul\":4647:4677   */\n      add\n        /* \"#utility.yul\":4700:4703   */\n      dup6\n        /* \"#utility.yul\":4692:4698   */\n      dup2\n        /* \"#utility.yul\":4689:4704   */\n      gt\n        /* \"#utility.yul\":4686:4808   */\n      iszero\n      tag_142\n      jumpi\n        /* \"#utility.yul\":4719:4798   */\n      tag_143\n      tag_31\n      jump\t// in\n    tag_143:\n        /* \"#utility.yul\":4686:4808   */\n    tag_142:\n        /* \"#utility.yul\":4834:4840   */\n      dup4\n        /* \"#utility.yul\":4817:5037   */\n    tag_144:\n        /* \"#utility.yul\":4851:4857   */\n      dup2\n        /* \"#utility.yul\":4846:4849   */\n      dup2\n        /* \"#utility.yul\":4843:4858   */\n      lt\n        /* \"#utility.yul\":4817:5037   */\n      iszero\n      tag_146\n      jumpi\n        /* \"#utility.yul\":4926:4929   */\n      dup1\n        /* \"#utility.yul\":4955:4992   */\n      tag_147\n        /* \"#utility.yul\":4988:4991   */\n      dup9\n        /* \"#utility.yul\":4976:4986   */\n      dup3\n        /* \"#utility.yul\":4955:4992   */\n      tag_40\n      jump\t// in\n    tag_147:\n        /* \"#utility.yul\":4950:4953   */\n      dup5\n        /* \"#utility.yul\":4943:4993   */\n      mstore\n        /* \"#utility.yul\":5022:5026   */\n      0x20\n        /* \"#utility.yul\":5017:5020   */\n      dup5\n        /* \"#utility.yul\":5013:5027   */\n      add\n        /* \"#utility.yul\":5006:5027   */\n      swap4\n      pop\n        /* \"#utility.yul\":4893:5037   */\n      pop\n        /* \"#utility.yul\":4877:4881   */\n      0x20\n        /* \"#utility.yul\":4872:4875   */\n      dup2\n        /* \"#utility.yul\":4868:4882   */\n      add\n        /* \"#utility.yul\":4861:4882   */\n      swap1\n      pop\n        /* \"#utility.yul\":4817:5037   */\n      jump(tag_144)\n    tag_146:\n        /* \"#utility.yul\":4821:4842   */\n      pop\n        /* \"#utility.yul\":4500:5043   */\n      pop\n      pop\n        /* \"#utility.yul\":4400:5043   */\n      swap4\n      swap3\n      pop\n      pop\n      pop\n      jump\t// out\n        /* \"#utility.yul\":5067:5406   */\n    tag_48:\n        /* \"#utility.yul\":5136:5141   */\n      0x00\n        /* \"#utility.yul\":5185:5188   */\n      dup3\n        /* \"#utility.yul\":5178:5182   */\n      0x1f\n        /* \"#utility.yul\":5170:5176   */\n      dup4\n        /* \"#utility.yul\":5166:5183   */\n      add\n        /* \"#utility.yul\":5162:5189   */\n      slt\n        /* \"#utility.yul\":5152:5274   */\n      tag_149\n      jumpi\n        /* \"#utility.yul\":5193:5272   */\n      tag_150\n      tag_25\n      jump\t// in\n    tag_150:\n        /* \"#utility.yul\":5152:5274   */\n    tag_149:\n        /* \"#utility.yul\":5297:5301   */\n      0x03\n        /* \"#utility.yul\":5319:5400   */\n      tag_151\n        /* \"#utility.yul\":5396:5399   */\n      dup5\n        /* \"#utility.yul\":5388:5394   */\n      dup3\n        /* \"#utility.yul\":5380:5386   */\n      dup6\n        /* \"#utility.yul\":5319:5400   */\n      tag_47\n      jump\t// in\n    tag_151:\n        /* \"#utility.yul\":5310:5400   */\n      swap2\n      pop\n        /* \"#utility.yul\":5142:5406   */\n      pop\n        /* \"#utility.yul\":5067:5406   */\n      swap3\n      swap2\n      pop\n      pop\n      jump\t// out\n        /* \"#utility.yul\":5462:6569   */\n    tag_49:\n        /* \"#utility.yul\":5536:5541   */\n      0x00\n        /* \"#utility.yul\":5580:5584   */\n      0xc0\n        /* \"#utility.yul\":5568:5577   */\n      dup3\n        /* \"#utility.yul\":5563:5566   */\n      dup5\n        /* \"#utility.yul\":5559:5578   */\n      sub\n        /* \"#utility.yul\":5555:5585   */\n      slt\n        /* \"#utility.yul\":5552:5669   */\n      iszero\n      tag_153\n      jumpi\n        /* \"#utility.yul\":5588:5667   */\n      tag_154\n      tag_32\n      jump\t// in\n    tag_154:\n        /* \"#utility.yul\":5552:5669   */\n    tag_153:\n        /* \"#utility.yul\":5687:5708   */\n      tag_155\n        /* \"#utility.yul\":5703:5707   */\n      0x80\n        /* \"#utility.yul\":5687:5708   */\n      tag_29\n      jump\t// in\n    tag_155:\n        /* \"#utility.yul\":5678:5708   */\n      swap1\n      pop\n        /* \"#utility.yul\":5775:5776   */\n      0x00\n        /* \"#utility.yul\":5815:5864   */\n      tag_156\n        /* \"#utility.yul\":5860:5863   */\n      dup5\n        /* \"#utility.yul\":5851:5857   */\n      dup3\n        /* \"#utility.yul\":5840:5849   */\n      dup6\n        /* \"#utility.yul\":5836:5858   */\n      add\n        /* \"#utility.yul\":5815:5864   */\n      tag_37\n      jump\t// in\n    tag_156:\n        /* \"#utility.yul\":5808:5812   */\n      0x00\n        /* \"#utility.yul\":5801:5806   */\n      dup4\n        /* \"#utility.yul\":5797:5813   */\n      add\n        /* \"#utility.yul\":5790:5865   */\n      mstore\n        /* \"#utility.yul\":5718:5876   */\n      pop\n        /* \"#utility.yul\":5938:5940   */\n      0x20\n        /* \"#utility.yul\":5979:6028   */\n      tag_157\n        /* \"#utility.yul\":6024:6027   */\n      dup5\n        /* \"#utility.yul\":6015:6021   */\n      dup3\n        /* \"#utility.yul\":6004:6013   */\n      dup6\n        /* \"#utility.yul\":6000:6022   */\n      add\n        /* \"#utility.yul\":5979:6028   */\n      tag_40\n      jump\t// in\n    tag_157:\n        /* \"#utility.yul\":5972:5976   */\n      0x20\n        /* \"#utility.yul\":5965:5970   */\n      dup4\n        /* \"#utility.yul\":5961:5977   */\n      add\n        /* \"#utility.yul\":5954:6029   */\n      mstore\n        /* \"#utility.yul\":5886:6040   */\n      pop\n        /* \"#utility.yul\":6127:6129   */\n      0x40\n        /* \"#utility.yul\":6116:6125   */\n      dup3\n        /* \"#utility.yul\":6112:6130   */\n      add\n        /* \"#utility.yul\":6099:6131   */\n      calldataload\n        /* \"#utility.yul\":6158:6176   */\n      0xffffffffffffffff\n        /* \"#utility.yul\":6150:6156   */\n      dup2\n        /* \"#utility.yul\":6147:6177   */\n      gt\n        /* \"#utility.yul\":6144:6261   */\n      iszero\n      tag_158\n      jumpi\n        /* \"#utility.yul\":6180:6259   */\n      tag_159\n      tag_33\n      jump\t// in\n    tag_159:\n        /* \"#utility.yul\":6144:6261   */\n    tag_158:\n        /* \"#utility.yul\":6300:6359   */\n      tag_160\n        /* \"#utility.yul\":6355:6358   */\n      dup5\n        /* \"#utility.yul\":6346:6352   */\n      dup3\n        /* \"#utility.yul\":6335:6344   */\n      dup6\n        /* \"#utility.yul\":6331:6353   */\n      add\n        /* \"#utility.yul\":6300:6359   */\n      tag_45\n      jump\t// in\n    tag_160:\n        /* \"#utility.yul\":6293:6297   */\n      0x40\n        /* \"#utility.yul\":6286:6291   */\n      dup4\n        /* \"#utility.yul\":6282:6298   */\n      add\n        /* \"#utility.yul\":6275:6360   */\n      mstore\n        /* \"#utility.yul\":6050:6371   */\n      pop\n        /* \"#utility.yul\":6437:6439   */\n      0x60\n        /* \"#utility.yul\":6478:6550   */\n      tag_161\n        /* \"#utility.yul\":6546:6549   */\n      dup5\n        /* \"#utility.yul\":6537:6543   */\n      dup3\n        /* \"#utility.yul\":6526:6535   */\n      dup6\n        /* \"#utility.yul\":6522:6544   */\n      add\n        /* \"#utility.yul\":6478:6550   */\n      tag_48\n      jump\t// in\n    tag_161:\n        /* \"#utility.yul\":6471:6475   */\n      0x60\n        /* \"#utility.yul\":6464:6469   */\n      dup4\n        /* \"#utility.yul\":6460:6476   */\n      add\n        /* \"#utility.yul\":6453:6551   */\n      mstore\n        /* \"#utility.yul\":6381:6562   */\n      pop\n        /* \"#utility.yul\":5462:6569   */\n      swap3\n      swap2\n      pop\n      pop\n      jump\t// out\n        /* \"#utility.yul\":6627:7617   */\n    tag_50:\n        /* \"#utility.yul\":6748:6753   */\n      0x00\n        /* \"#utility.yul\":6773:6879   */\n      tag_163\n        /* \"#utility.yul\":6789:6878   */\n      tag_164\n        /* \"#utility.yul\":6871:6877   */\n      dup5\n        /* \"#utility.yul\":6789:6878   */\n      tag_30\n      jump\t// in\n    tag_164:\n        /* \"#utility.yul\":6773:6879   */\n      tag_29\n      jump\t// in\n    tag_163:\n        /* \"#utility.yul\":6764:6879   */\n      swap1\n      pop\n        /* \"#utility.yul\":6899:6904   */\n      dup1\n        /* \"#utility.yul\":6928:6934   */\n      dup4\n        /* \"#utility.yul\":6921:6926   */\n      dup3\n        /* \"#utility.yul\":6914:6935   */\n      mstore\n        /* \"#utility.yul\":6962:6966   */\n      0x20\n        /* \"#utility.yul\":6955:6960   */\n      dup3\n        /* \"#utility.yul\":6951:6967   */\n      add\n        /* \"#utility.yul\":6944:6967   */\n      swap1\n      pop\n        /* \"#utility.yul\":7015:7019   */\n      0x20\n        /* \"#utility.yul\":7007:7013   */\n      dup5\n        /* \"#utility.yul\":7003:7020   */\n      mul\n        /* \"#utility.yul\":6995:7001   */\n      dup4\n        /* \"#utility.yul\":6991:7021   */\n      add\n        /* \"#utility.yul\":7044:7047   */\n      dup6\n        /* \"#utility.yul\":7036:7042   */\n      dup2\n        /* \"#utility.yul\":7033:7048   */\n      gt\n        /* \"#utility.yul\":7030:7152   */\n      iszero\n      tag_165\n      jumpi\n        /* \"#utility.yul\":7063:7142   */\n      tag_166\n      tag_31\n      jump\t// in\n    tag_166:\n        /* \"#utility.yul\":7030:7152   */\n    tag_165:\n        /* \"#utility.yul\":7178:7184   */\n      dup4\n        /* \"#utility.yul\":7161:7611   */\n    tag_167:\n        /* \"#utility.yul\":7195:7201   */\n      dup2\n        /* \"#utility.yul\":7190:7193   */\n      dup2\n        /* \"#utility.yul\":7187:7202   */\n      lt\n        /* \"#utility.yul\":7161:7611   */\n      iszero\n      tag_169\n      jumpi\n        /* \"#utility.yul\":7284:7287   */\n      dup1\n        /* \"#utility.yul\":7271:7288   */\n      calldataload\n        /* \"#utility.yul\":7320:7338   */\n      0xffffffffffffffff\n        /* \"#utility.yul\":7307:7318   */\n      dup2\n        /* \"#utility.yul\":7304:7339   */\n      gt\n        /* \"#utility.yul\":7301:7423   */\n      iszero\n      tag_170\n      jumpi\n        /* \"#utility.yul\":7342:7421   */\n      tag_171\n      tag_25\n      jump\t// in\n    tag_171:\n        /* \"#utility.yul\":7301:7423   */\n    tag_170:\n        /* \"#utility.yul\":7466:7477   */\n      dup1\n        /* \"#utility.yul\":7458:7464   */\n      dup7\n        /* \"#utility.yul\":7454:7478   */\n      add\n        /* \"#utility.yul\":7504:7566   */\n      tag_172\n        /* \"#utility.yul\":7562:7565   */\n      dup10\n        /* \"#utility.yul\":7550:7560   */\n      dup3\n        /* \"#utility.yul\":7504:7566   */\n      tag_49\n      jump\t// in\n    tag_172:\n        /* \"#utility.yul\":7499:7502   */\n      dup6\n        /* \"#utility.yul\":7492:7567   */\n      mstore\n        /* \"#utility.yul\":7596:7600   */\n      0x20\n        /* \"#utility.yul\":7591:7594   */\n      dup6\n        /* \"#utility.yul\":7587:7601   */\n      add\n        /* \"#utility.yul\":7580:7601   */\n      swap5\n      pop\n        /* \"#utility.yul\":7237:7611   */\n      pop\n      pop\n        /* \"#utility.yul\":7221:7225   */\n      0x20\n        /* \"#utility.yul\":7216:7219   */\n      dup2\n        /* \"#utility.yul\":7212:7226   */\n      add\n        /* \"#utility.yul\":7205:7226   */\n      swap1\n      pop\n        /* \"#utility.yul\":7161:7611   */\n      jump(tag_167)\n    tag_169:\n        /* \"#utility.yul\":7165:7186   */\n      pop\n        /* \"#utility.yul\":6754:7617   */\n      pop\n      pop\n        /* \"#utility.yul\":6627:7617   */\n      swap4\n      swap3\n      pop\n      pop\n      pop\n      jump\t// out\n        /* \"#utility.yul\":7675:8095   */\n    tag_51:\n        /* \"#utility.yul\":7771:7776   */\n      0x00\n        /* \"#utility.yul\":7820:7823   */\n      dup3\n        /* \"#utility.yul\":7813:7817   */\n      0x1f\n        /* \"#utility.yul\":7805:7811   */\n      dup4\n        /* \"#utility.yul\":7801:7818   */\n      add\n        /* \"#utility.yul\":7797:7824   */\n      slt\n        /* \"#utility.yul\":7787:7909   */\n      tag_174\n      jumpi\n        /* \"#utility.yul\":7828:7907   */\n      tag_175\n      tag_25\n      jump\t// in\n    tag_175:\n        /* \"#utility.yul\":7787:7909   */\n    tag_174:\n        /* \"#utility.yul\":7945:7951   */\n      dup2\n        /* \"#utility.yul\":7932:7952   */\n      calldataload\n        /* \"#utility.yul\":7970:8089   */\n      tag_176\n        /* \"#utility.yul\":8085:8088   */\n      dup5\n        /* \"#utility.yul\":8077:8083   */\n      dup3\n        /* \"#utility.yul\":8070:8074   */\n      0x20\n        /* \"#utility.yul\":8062:8068   */\n      dup7\n        /* \"#utility.yul\":8058:8075   */\n      add\n        /* \"#utility.yul\":7970:8089   */\n      tag_50\n      jump\t// in\n    tag_176:\n        /* \"#utility.yul\":7961:8089   */\n      swap2\n      pop\n        /* \"#utility.yul\":7777:8095   */\n      pop\n        /* \"#utility.yul\":7675:8095   */\n      swap3\n      swap2\n      pop\n      pop\n      jump\t// out\n        /* \"#utility.yul\":8101:8690   */\n    tag_7:\n        /* \"#utility.yul\":8210:8216   */\n      0x00\n        /* \"#utility.yul\":8259:8261   */\n      0x20\n        /* \"#utility.yul\":8247:8256   */\n      dup3\n        /* \"#utility.yul\":8238:8245   */\n      dup5\n        /* \"#utility.yul\":8234:8257   */\n      sub\n        /* \"#utility.yul\":8230:8262   */\n      slt\n        /* \"#utility.yul\":8227:8346   */\n      iszero\n      tag_178\n      jumpi\n        /* \"#utility.yul\":8265:8344   */\n      tag_179\n      tag_23\n      jump\t// in\n    tag_179:\n        /* \"#utility.yul\":8227:8346   */\n    tag_178:\n        /* \"#utility.yul\":8413:8414   */\n      0x00\n        /* \"#utility.yul\":8402:8411   */\n      dup3\n        /* \"#utility.yul\":8398:8415   */\n      add\n        /* \"#utility.yul\":8385:8416   */\n      calldataload\n        /* \"#utility.yul\":8443:8461   */\n      0xffffffffffffffff\n        /* \"#utility.yul\":8435:8441   */\n      dup2\n        /* \"#utility.yul\":8432:8462   */\n      gt\n        /* \"#utility.yul\":8429:8546   */\n      iszero\n      tag_180\n      jumpi\n        /* \"#utility.yul\":8465:8544   */\n      tag_181\n      tag_24\n      jump\t// in\n    tag_181:\n        /* \"#utility.yul\":8429:8546   */\n    tag_180:\n        /* \"#utility.yul\":8570:8673   */\n      tag_182\n        /* \"#utility.yul\":8665:8672   */\n      dup5\n        /* \"#utility.yul\":8656:8662   */\n      dup3\n        /* \"#utility.yul\":8645:8654   */\n      dup6\n        /* \"#utility.yul\":8641:8663   */\n      add\n        /* \"#utility.yul\":8570:8673   */\n      tag_51\n      jump\t// in\n    tag_182:\n        /* \"#utility.yul\":8560:8673   */\n      swap2\n      pop\n        /* \"#utility.yul\":8356:8683   */\n      pop\n        /* \"#utility.yul\":8101:8690   */\n      swap3\n      swap2\n      pop\n      pop\n      jump\t// out\n        /* \"#utility.yul\":8696:8794   */\n    tag_52:\n        /* \"#utility.yul\":8747:8753   */\n      0x00\n        /* \"#utility.yul\":8781:8786   */\n      dup2\n        /* \"#utility.yul\":8775:8787   */\n      mload\n        /* \"#utility.yul\":8765:8787   */\n      swap1\n      pop\n        /* \"#utility.yul\":8696:8794   */\n      swap2\n      swap1\n      pop\n      jump\t// out\n        /* \"#utility.yul\":8800:8968   */\n    tag_53:\n        /* \"#utility.yul\":8883:8894   */\n      0x00\n        /* \"#utility.yul\":8917:8923   */\n      dup3\n        /* \"#utility.yul\":8912:8915   */\n      dup3\n        /* \"#utility.yul\":8905:8924   */\n      mstore\n        /* \"#utility.yul\":8957:8961   */\n      0x20\n        /* \"#utility.yul\":8952:8955   */\n      dup3\n        /* \"#utility.yul\":8948:8962   */\n      add\n        /* \"#utility.yul\":8933:8962   */\n      swap1\n      pop\n        /* \"#utility.yul\":8800:8968   */\n      swap3\n      swap2\n      pop\n      pop\n      jump\t// out\n        /* \"#utility.yul\":8974:9220   */\n    tag_54:\n        /* \"#utility.yul\":9055:9056   */\n      0x00\n        /* \"#utility.yul\":9065:9178   */\n    tag_186:\n        /* \"#utility.yul\":9079:9085   */\n      dup4\n        /* \"#utility.yul\":9076:9077   */\n      dup2\n        /* \"#utility.yul\":9073:9086   */\n      lt\n        /* \"#utility.yul\":9065:9178   */\n      iszero\n      tag_188\n      jumpi\n        /* \"#utility.yul\":9164:9165   */\n      dup1\n        /* \"#utility.yul\":9159:9162   */\n      dup3\n        /* \"#utility.yul\":9155:9166   */\n      add\n        /* \"#utility.yul\":9149:9167   */\n      mload\n        /* \"#utility.yul\":9145:9146   */\n      dup2\n        /* \"#utility.yul\":9140:9143   */\n      dup5\n        /* \"#utility.yul\":9136:9147   */\n      add\n        /* \"#utility.yul\":9129:9168   */\n      mstore\n        /* \"#utility.yul\":9101:9103   */\n      0x20\n        /* \"#utility.yul\":9098:9099   */\n      dup2\n        /* \"#utility.yul\":9094:9104   */\n      add\n        /* \"#utility.yul\":9089:9104   */\n      swap1\n      pop\n        /* \"#utility.yul\":9065:9178   */\n      jump(tag_186)\n    tag_188:\n        /* \"#utility.yul\":9212:9213   */\n      0x00\n        /* \"#utility.yul\":9203:9209   */\n      dup5\n        /* \"#utility.yul\":9198:9201   */\n      dup5\n        /* \"#utility.yul\":9194:9210   */\n      add\n        /* \"#utility.yul\":9187:9214   */\n      mstore\n        /* \"#utility.yul\":9036:9220   */\n      pop\n        /* \"#utility.yul\":8974:9220   */\n      pop\n      pop\n      pop\n      jump\t// out\n        /* \"#utility.yul\":9226:9599   */\n    tag_55:\n        /* \"#utility.yul\":9312:9315   */\n      0x00\n        /* \"#utility.yul\":9340:9378   */\n      tag_190\n        /* \"#utility.yul\":9372:9377   */\n      dup3\n        /* \"#utility.yul\":9340:9378   */\n      tag_52\n      jump\t// in\n    tag_190:\n        /* \"#utility.yul\":9394:9464   */\n      tag_191\n        /* \"#utility.yul\":9457:9463   */\n      dup2\n        /* \"#utility.yul\":9452:9455   */\n      dup6\n        /* \"#utility.yul\":9394:9464   */\n      tag_53\n      jump\t// in\n    tag_191:\n        /* \"#utility.yul\":9387:9464   */\n      swap4\n      pop\n        /* \"#utility.yul\":9473:9538   */\n      tag_192\n        /* \"#utility.yul\":9531:9537   */\n      dup2\n        /* \"#utility.yul\":9526:9529   */\n      dup6\n        /* \"#utility.yul\":9519:9523   */\n      0x20\n        /* \"#utility.yul\":9512:9517   */\n      dup7\n        /* \"#utility.yul\":9508:9524   */\n      add\n        /* \"#utility.yul\":9473:9538   */\n      tag_54\n      jump\t// in\n    tag_192:\n        /* \"#utility.yul\":9563:9592   */\n      tag_193\n        /* \"#utility.yul\":9585:9591   */\n      dup2\n        /* \"#utility.yul\":9563:9592   */\n      tag_26\n      jump\t// in\n    tag_193:\n        /* \"#utility.yul\":9558:9561   */\n      dup5\n        /* \"#utility.yul\":9554:9593   */\n      add\n        /* \"#utility.yul\":9547:9593   */\n      swap2\n      pop\n        /* \"#utility.yul\":9316:9599   */\n      pop\n        /* \"#utility.yul\":9226:9599   */\n      swap3\n      swap2\n      pop\n      pop\n      jump\t// out\n        /* \"#utility.yul\":9605:9914   */\n    tag_10:\n        /* \"#utility.yul\":9716:9720   */\n      0x00\n        /* \"#utility.yul\":9754:9756   */\n      0x20\n        /* \"#utility.yul\":9743:9752   */\n      dup3\n        /* \"#utility.yul\":9739:9757   */\n      add\n        /* \"#utility.yul\":9731:9757   */\n      swap1\n      pop\n        /* \"#utility.yul\":9803:9812   */\n      dup2\n        /* \"#utility.yul\":9797:9801   */\n      dup2\n        /* \"#utility.yul\":9793:9813   */\n      sub\n        /* \"#utility.yul\":9789:9790   */\n      0x00\n        /* \"#utility.yul\":9778:9787   */\n      dup4\n        /* \"#utility.yul\":9774:9791   */\n      add\n        /* \"#utility.yul\":9767:9814   */\n      mstore\n        /* \"#utility.yul\":9831:9907   */\n      tag_195\n        /* \"#utility.yul\":9902:9906   */\n      dup2\n        /* \"#utility.yul\":9893:9899   */\n      dup5\n        /* \"#utility.yul\":9831:9907   */\n      tag_55\n      jump\t// in\n    tag_195:\n        /* \"#utility.yul\":9823:9907   */\n      swap1\n      pop\n        /* \"#utility.yul\":9605:9914   */\n      swap3\n      swap2\n      pop\n      pop\n      jump\t// out\n        /* \"#utility.yul\":9920:10227   */\n    tag_56:\n        /* \"#utility.yul\":9981:9985   */\n      0x00\n        /* \"#utility.yul\":10071:10089   */\n      0xffffffffffffffff\n        /* \"#utility.yul\":10063:10069   */\n      dup3\n        /* \"#utility.yul\":10060:10090   */\n      gt\n        /* \"#utility.yul\":10057:10113   */\n      iszero\n      tag_197\n      jumpi\n        /* \"#utility.yul\":10093:10111   */\n      tag_198\n      tag_27\n      jump\t// in\n    tag_198:\n        /* \"#utility.yul\":10057:10113   */\n    tag_197:\n        /* \"#utility.yul\":10131:10160   */\n      tag_199\n        /* \"#utility.yul\":10153:10159   */\n      dup3\n        /* \"#utility.yul\":10131:10160   */\n      tag_26\n      jump\t// in\n    tag_199:\n        /* \"#utility.yul\":10123:10160   */\n      swap1\n      pop\n        /* \"#utility.yul\":10215:10219   */\n      0x20\n        /* \"#utility.yul\":10209:10213   */\n      dup2\n        /* \"#utility.yul\":10205:10220   */\n      add\n        /* \"#utility.yul\":10197:10220   */\n      swap1\n      pop\n        /* \"#utility.yul\":9920:10227   */\n      swap2\n      swap1\n      pop\n      jump\t// out\n        /* \"#utility.yul\":10233:10656   */\n    tag_57:\n        /* \"#utility.yul\":10310:10315   */\n      0x00\n        /* \"#utility.yul\":10335:10400   */\n      tag_201\n        /* \"#utility.yul\":10351:10399   */\n      tag_202\n        /* \"#utility.yul\":10392:10398   */\n      dup5\n        /* \"#utility.yul\":10351:10399   */\n      tag_56\n      jump\t// in\n    tag_202:\n        /* \"#utility.yul\":10335:10400   */\n      tag_29\n      jump\t// in\n    tag_201:\n        /* \"#utility.yul\":10326:10400   */\n      swap1\n      pop\n        /* \"#utility.yul\":10423:10429   */\n      dup3\n        /* \"#utility.yul\":10416:10421   */\n      dup2\n        /* \"#utility.yul\":10409:10430   */\n      mstore\n        /* \"#utility.yul\":10461:10465   */\n      0x20\n        /* \"#utility.yul\":10454:10459   */\n      dup2\n        /* \"#utility.yul\":10450:10466   */\n      add\n        /* \"#utility.yul\":10499:10502   */\n      dup5\n        /* \"#utility.yul\":10490:10496   */\n      dup5\n        /* \"#utility.yul\":10485:10488   */\n      dup5\n        /* \"#utility.yul\":10481:10497   */\n      add\n        /* \"#utility.yul\":10478:10503   */\n      gt\n        /* \"#utility.yul\":10475:10587   */\n      iszero\n      tag_203\n      jumpi\n        /* \"#utility.yul\":10506:10585   */\n      tag_204\n      tag_41\n      jump\t// in\n    tag_204:\n        /* \"#utility.yul\":10475:10587   */\n    tag_203:\n        /* \"#utility.yul\":10596:10650   */\n      tag_205\n        /* \"#utility.yul\":10643:10649   */\n      dup5\n        /* \"#utility.yul\":10638:10641   */\n      dup3\n        /* \"#utility.yul\":10633:10636   */\n      dup6\n        /* \"#utility.yul\":10596:10650   */\n      tag_43\n      jump\t// in\n    tag_205:\n        /* \"#utility.yul\":10316:10656   */\n      pop\n        /* \"#utility.yul\":10233:10656   */\n      swap4\n      swap3\n      pop\n      pop\n      pop\n      jump\t// out\n        /* \"#utility.yul\":10675:11013   */\n    tag_58:\n        /* \"#utility.yul\":10730:10735   */\n      0x00\n        /* \"#utility.yul\":10779:10782   */\n      dup3\n        /* \"#utility.yul\":10772:10776   */\n      0x1f\n        /* \"#utility.yul\":10764:10770   */\n      dup4\n        /* \"#utility.yul\":10760:10777   */\n      add\n        /* \"#utility.yul\":10756:10783   */\n      slt\n        /* \"#utility.yul\":10746:10868   */\n      tag_207\n      jumpi\n        /* \"#utility.yul\":10787:10866   */\n      tag_208\n      tag_25\n      jump\t// in\n    tag_208:\n        /* \"#utility.yul\":10746:10868   */\n    tag_207:\n        /* \"#utility.yul\":10904:10910   */\n      dup2\n        /* \"#utility.yul\":10891:10911   */\n      calldataload\n        /* \"#utility.yul\":10929:11007   */\n      tag_209\n        /* \"#utility.yul\":11003:11006   */\n      dup5\n        /* \"#utility.yul\":10995:11001   */\n      dup3\n        /* \"#utility.yul\":10988:10992   */\n      0x20\n        /* \"#utility.yul\":10980:10986   */\n      dup7\n        /* \"#utility.yul\":10976:10993   */\n      add\n        /* \"#utility.yul\":10929:11007   */\n      tag_57\n      jump\t// in\n    tag_209:\n        /* \"#utility.yul\":10920:11007   */\n      swap2\n      pop\n        /* \"#utility.yul\":10736:11013   */\n      pop\n        /* \"#utility.yul\":10675:11013   */\n      swap3\n      swap2\n      pop\n      pop\n      jump\t// out\n        /* \"#utility.yul\":11019:11526   */\n    tag_13:\n        /* \"#utility.yul\":11087:11093   */\n      0x00\n        /* \"#utility.yul\":11136:11138   */\n      0x20\n        /* \"#utility.yul\":11124:11133   */\n      dup3\n        /* \"#utility.yul\":11115:11122   */\n      dup5\n        /* \"#utility.yul\":11111:11134   */\n      sub\n        /* \"#utility.yul\":11107:11139   */\n      slt\n        /* \"#utility.yul\":11104:11223   */\n      iszero\n      tag_211\n      jumpi\n        /* \"#utility.yul\":11142:11221   */\n      tag_212\n      tag_23\n      jump\t// in\n    tag_212:\n        /* \"#utility.yul\":11104:11223   */\n    tag_211:\n        /* \"#utility.yul\":11290:11291   */\n      0x00\n        /* \"#utility.yul\":11279:11288   */\n      dup3\n        /* \"#utility.yul\":11275:11292   */\n      add\n        /* \"#utility.yul\":11262:11293   */\n      calldataload\n        /* \"#utility.yul\":11320:11338   */\n      0xffffffffffffffff\n        /* \"#utility.yul\":11312:11318   */\n      dup2\n        /* \"#utility.yul\":11309:11339   */\n      gt\n        /* \"#utility.yul\":11306:11423   */\n      iszero\n      tag_213\n      jumpi\n        /* \"#utility.yul\":11342:11421   */\n      tag_214\n      tag_24\n      jump\t// in\n    tag_214:\n        /* \"#utility.yul\":11306:11423   */\n    tag_213:\n        /* \"#utility.yul\":11447:11509   */\n      tag_215\n        /* \"#utility.yul\":11501:11508   */\n      dup5\n        /* \"#utility.yul\":11492:11498   */\n      dup3\n        /* \"#utility.yul\":11481:11490   */\n      dup6\n        /* \"#utility.yul\":11477:11499   */\n      add\n        /* \"#utility.yul\":11447:11509   */\n      tag_58\n      jump\t// in\n    tag_215:\n        /* \"#utility.yul\":11437:11509   */\n      swap2\n      pop\n        /* \"#utility.yul\":11233:11519   */\n      pop\n        /* \"#utility.yul\":11019:11526   */\n      swap3\n      swap2\n      pop\n      pop\n      jump\t// out\n        /* \"#utility.yul\":11532:11671   */\n    tag_59:\n        /* \"#utility.yul\":11624:11630   */\n      0x00\n        /* \"#utility.yul\":11658:11663   */\n      dup2\n        /* \"#utility.yul\":11652:11664   */\n      mload\n        /* \"#utility.yul\":11642:11664   */\n      swap1\n      pop\n        /* \"#utility.yul\":11532:11671   */\n      swap2\n      swap1\n      pop\n      jump\t// out\n        /* \"#utility.yul\":11677:11886   */\n    tag_60:\n        /* \"#utility.yul\":11801:11812   */\n      0x00\n        /* \"#utility.yul\":11835:11841   */\n      dup3\n        /* \"#utility.yul\":11830:11833   */\n      dup3\n        /* \"#utility.yul\":11823:11842   */\n      mstore\n        /* \"#utility.yul\":11875:11879   */\n      0x20\n        /* \"#utility.yul\":11870:11873   */\n      dup3\n        /* \"#utility.yul\":11866:11880   */\n      add\n        /* \"#utility.yul\":11851:11880   */\n      swap1\n      pop\n        /* \"#utility.yul\":11677:11886   */\n      swap3\n      swap2\n      pop\n      pop\n      jump\t// out\n        /* \"#utility.yul\":11892:12049   */\n    tag_61:\n        /* \"#utility.yul\":11984:11988   */\n      0x00\n        /* \"#utility.yul\":12007:12010   */\n      dup2\n        /* \"#utility.yul\":11999:12010   */\n      swap1\n      pop\n        /* \"#utility.yul\":12037:12041   */\n      0x20\n        /* \"#utility.yul\":12032:12035   */\n      dup3\n        /* \"#utility.yul\":12028:12042   */\n      add\n        /* \"#utility.yul\":12020:12042   */\n      swap1\n      pop\n        /* \"#utility.yul\":11892:12049   */\n      swap2\n      swap1\n      pop\n      jump\t// out\n        /* \"#utility.yul\":12055:12163   */\n    tag_62:\n        /* \"#utility.yul\":12132:12156   */\n      tag_220\n        /* \"#utility.yul\":12150:12155   */\n      dup2\n        /* \"#utility.yul\":12132:12156   */\n      tag_35\n      jump\t// in\n    tag_220:\n        /* \"#utility.yul\":12127:12130   */\n      dup3\n        /* \"#utility.yul\":12120:12157   */\n      mstore\n        /* \"#utility.yul\":12055:12163   */\n      pop\n      pop\n      jump\t// out\n        /* \"#utility.yul\":12169:12277   */\n    tag_63:\n        /* \"#utility.yul\":12246:12270   */\n      tag_222\n        /* \"#utility.yul\":12264:12269   */\n      dup2\n        /* \"#utility.yul\":12246:12270   */\n      tag_38\n      jump\t// in\n    tag_222:\n        /* \"#utility.yul\":12241:12244   */\n      dup3\n        /* \"#utility.yul\":12234:12271   */\n      mstore\n        /* \"#utility.yul\":12169:12277   */\n      pop\n      pop\n      jump\t// out\n        /* \"#utility.yul\":12283:12382   */\n    tag_64:\n        /* \"#utility.yul\":12335:12341   */\n      0x00\n        /* \"#utility.yul\":12369:12374   */\n      dup2\n        /* \"#utility.yul\":12363:12375   */\n      mload\n        /* \"#utility.yul\":12353:12375   */\n      swap1\n      pop\n        /* \"#utility.yul\":12283:12382   */\n      swap2\n      swap1\n      pop\n      jump\t// out\n        /* \"#utility.yul\":12388:12547   */\n    tag_65:\n        /* \"#utility.yul\":12462:12473   */\n      0x00\n        /* \"#utility.yul\":12496:12502   */\n      dup3\n        /* \"#utility.yul\":12491:12494   */\n      dup3\n        /* \"#utility.yul\":12484:12503   */\n      mstore\n        /* \"#utility.yul\":12536:12540   */\n      0x20\n        /* \"#utility.yul\":12531:12534   */\n      dup3\n        /* \"#utility.yul\":12527:12541   */\n      add\n        /* \"#utility.yul\":12512:12541   */\n      swap1\n      pop\n        /* \"#utility.yul\":12388:12547   */\n      swap3\n      swap2\n      pop\n      pop\n      jump\t// out\n        /* \"#utility.yul\":12553:12910   */\n    tag_66:\n        /* \"#utility.yul\":12631:12634   */\n      0x00\n        /* \"#utility.yul\":12659:12698   */\n      tag_226\n        /* \"#utility.yul\":12692:12697   */\n      dup3\n        /* \"#utility.yul\":12659:12698   */\n      tag_64\n      jump\t// in\n    tag_226:\n        /* \"#utility.yul\":12714:12775   */\n      tag_227\n        /* \"#utility.yul\":12768:12774   */\n      dup2\n        /* \"#utility.yul\":12763:12766   */\n      dup6\n        /* \"#utility.yul\":12714:12775   */\n      tag_65\n      jump\t// in\n    tag_227:\n        /* \"#utility.yul\":12707:12775   */\n      swap4\n      pop\n        /* \"#utility.yul\":12784:12849   */\n      tag_228\n        /* \"#utility.yul\":12842:12848   */\n      dup2\n        /* \"#utility.yul\":12837:12840   */\n      dup6\n        /* \"#utility.yul\":12830:12834   */\n      0x20\n        /* \"#utility.yul\":12823:12828   */\n      dup7\n        /* \"#utility.yul\":12819:12835   */\n      add\n        /* \"#utility.yul\":12784:12849   */\n      tag_54\n      jump\t// in\n    tag_228:\n        /* \"#utility.yul\":12874:12903   */\n      tag_229\n        /* \"#utility.yul\":12896:12902   */\n      dup2\n        /* \"#utility.yul\":12874:12903   */\n      tag_26\n      jump\t// in\n    tag_229:\n        /* \"#utility.yul\":12869:12872   */\n      dup5\n        /* \"#utility.yul\":12865:12904   */\n      add\n        /* \"#utility.yul\":12858:12904   */\n      swap2\n      pop\n        /* \"#utility.yul\":12635:12910   */\n      pop\n        /* \"#utility.yul\":12553:12910   */\n      swap3\n      swap2\n      pop\n      pop\n      jump\t// out\n        /* \"#utility.yul\":12916:13020   */\n    tag_67:\n        /* \"#utility.yul\":12981:12987   */\n      0x00\n        /* \"#utility.yul\":13009:13013   */\n      0x03\n        /* \"#utility.yul\":12999:13013   */\n      swap1\n      pop\n        /* \"#utility.yul\":12916:13020   */\n      swap2\n      swap1\n      pop\n      jump\t// out\n        /* \"#utility.yul\":13026:13159   */\n    tag_68:\n        /* \"#utility.yul\":13113:13124   */\n      0x00\n        /* \"#utility.yul\":13150:13153   */\n      dup2\n        /* \"#utility.yul\":13135:13153   */\n      swap1\n      pop\n        /* \"#utility.yul\":13026:13159   */\n      swap3\n      swap2\n      pop\n      pop\n      jump\t// out\n        /* \"#utility.yul\":13165:13263   */\n    tag_69:\n        /* \"#utility.yul\":13230:13234   */\n      0x00\n        /* \"#utility.yul\":13253:13256   */\n      dup2\n        /* \"#utility.yul\":13245:13256   */\n      swap1\n      pop\n        /* \"#utility.yul\":13165:13263   */\n      swap2\n      swap1\n      pop\n      jump\t// out\n        /* \"#utility.yul\":13269:13448   */\n    tag_70:\n        /* \"#utility.yul\":13338:13348   */\n      0x00\n        /* \"#utility.yul\":13359:13405   */\n      tag_234\n        /* \"#utility.yul\":13401:13404   */\n      dup4\n        /* \"#utility.yul\":13393:13399   */\n      dup4\n        /* \"#utility.yul\":13359:13405   */\n      tag_63\n      jump\t// in\n    tag_234:\n        /* \"#utility.yul\":13437:13441   */\n      0x20\n        /* \"#utility.yul\":13432:13435   */\n      dup4\n        /* \"#utility.yul\":13428:13442   */\n      add\n        /* \"#utility.yul\":13414:13442   */\n      swap1\n      pop\n        /* \"#utility.yul\":13269:13448   */\n      swap3\n      swap2\n      pop\n      pop\n      jump\t// out\n        /* \"#utility.yul\":13454:13565   */\n    tag_71:\n        /* \"#utility.yul\":13522:13526   */\n      0x00\n        /* \"#utility.yul\":13554:13558   */\n      0x20\n        /* \"#utility.yul\":13549:13552   */\n      dup3\n        /* \"#utility.yul\":13545:13559   */\n      add\n        /* \"#utility.yul\":13537:13559   */\n      swap1\n      pop\n        /* \"#utility.yul\":13454:13565   */\n      swap2\n      swap1\n      pop\n      jump\t// out\n        /* \"#utility.yul\":13603:14277   */\n    tag_72:\n        /* \"#utility.yul\":13729:13781   */\n      tag_237\n        /* \"#utility.yul\":13775:13780   */\n      dup2\n        /* \"#utility.yul\":13729:13781   */\n      tag_67\n      jump\t// in\n    tag_237:\n        /* \"#utility.yul\":13797:13871   */\n      tag_238\n        /* \"#utility.yul\":13864:13870   */\n      dup2\n        /* \"#utility.yul\":13859:13862   */\n      dup5\n        /* \"#utility.yul\":13797:13871   */\n      tag_68\n      jump\t// in\n    tag_238:\n        /* \"#utility.yul\":13790:13871   */\n      swap3\n      pop\n        /* \"#utility.yul\":13895:13949   */\n      tag_239\n        /* \"#utility.yul\":13943:13948   */\n      dup3\n        /* \"#utility.yul\":13895:13949   */\n      tag_69\n      jump\t// in\n    tag_239:\n        /* \"#utility.yul\":13972:13979   */\n      dup1\n        /* \"#utility.yul\":14003:14004   */\n      0x00\n        /* \"#utility.yul\":13988:14270   */\n    tag_240:\n        /* \"#utility.yul\":14013:14019   */\n      dup4\n        /* \"#utility.yul\":14010:14011   */\n      dup2\n        /* \"#utility.yul\":14007:14020   */\n      lt\n        /* \"#utility.yul\":13988:14270   */\n      iszero\n      tag_242\n      jumpi\n        /* \"#utility.yul\":14089:14095   */\n      dup2\n        /* \"#utility.yul\":14083:14096   */\n      mload\n        /* \"#utility.yul\":14116:14179   */\n      tag_243\n        /* \"#utility.yul\":14175:14178   */\n      dup8\n        /* \"#utility.yul\":14160:14173   */\n      dup3\n        /* \"#utility.yul\":14116:14179   */\n      tag_70\n      jump\t// in\n    tag_243:\n        /* \"#utility.yul\":14109:14179   */\n      swap7\n      pop\n        /* \"#utility.yul\":14202:14260   */\n      tag_244\n        /* \"#utility.yul\":14253:14259   */\n      dup4\n        /* \"#utility.yul\":14202:14260   */\n      tag_71\n      jump\t// in\n    tag_244:\n        /* \"#utility.yul\":14192:14260   */\n      swap3\n      pop\n        /* \"#utility.yul\":14048:14270   */\n      pop\n        /* \"#utility.yul\":14035:14036   */\n      0x01\n        /* \"#utility.yul\":14032:14033   */\n      dup2\n        /* \"#utility.yul\":14028:14037   */\n      add\n        /* \"#utility.yul\":14023:14037   */\n      swap1\n      pop\n        /* \"#utility.yul\":13988:14270   */\n      jump(tag_240)\n    tag_242:\n        /* \"#utility.yul\":13992:14006   */\n      pop\n        /* \"#utility.yul\":13705:14277   */\n      pop\n      pop\n      pop\n        /* \"#utility.yul\":13603:14277   */\n      pop\n      pop\n      jump\t// out\n        /* \"#utility.yul\":14379:15387   */\n    tag_73:\n        /* \"#utility.yul\":14488:14491   */\n      0x00\n        /* \"#utility.yul\":14524:14528   */\n      0xc0\n        /* \"#utility.yul\":14519:14522   */\n      dup4\n        /* \"#utility.yul\":14515:14529   */\n      add\n        /* \"#utility.yul\":14619:14623   */\n      0x00\n        /* \"#utility.yul\":14612:14617   */\n      dup4\n        /* \"#utility.yul\":14608:14624   */\n      add\n        /* \"#utility.yul\":14602:14625   */\n      mload\n        /* \"#utility.yul\":14638:14701   */\n      tag_246\n        /* \"#utility.yul\":14695:14699   */\n      0x00\n        /* \"#utility.yul\":14690:14693   */\n      dup7\n        /* \"#utility.yul\":14686:14700   */\n      add\n        /* \"#utility.yul\":14672:14684   */\n      dup3\n        /* \"#utility.yul\":14638:14701   */\n      tag_62\n      jump\t// in\n    tag_246:\n        /* \"#utility.yul\":14539:14711   */\n      pop\n        /* \"#utility.yul\":14796:14800   */\n      0x20\n        /* \"#utility.yul\":14789:14794   */\n      dup4\n        /* \"#utility.yul\":14785:14801   */\n      add\n        /* \"#utility.yul\":14779:14802   */\n      mload\n        /* \"#utility.yul\":14815:14878   */\n      tag_247\n        /* \"#utility.yul\":14872:14876   */\n      0x20\n        /* \"#utility.yul\":14867:14870   */\n      dup7\n        /* \"#utility.yul\":14863:14877   */\n      add\n        /* \"#utility.yul\":14849:14861   */\n      dup3\n        /* \"#utility.yul\":14815:14878   */\n      tag_63\n      jump\t// in\n    tag_247:\n        /* \"#utility.yul\":14721:14888   */\n      pop\n        /* \"#utility.yul\":14970:14974   */\n      0x40\n        /* \"#utility.yul\":14963:14968   */\n      dup4\n        /* \"#utility.yul\":14959:14975   */\n      add\n        /* \"#utility.yul\":14953:14976   */\n      mload\n        /* \"#utility.yul\":15023:15026   */\n      dup5\n        /* \"#utility.yul\":15017:15021   */\n      dup3\n        /* \"#utility.yul\":15013:15027   */\n      sub\n        /* \"#utility.yul\":15006:15010   */\n      0x40\n        /* \"#utility.yul\":15001:15004   */\n      dup7\n        /* \"#utility.yul\":14997:15011   */\n      add\n        /* \"#utility.yul\":14990:15028   */\n      mstore\n        /* \"#utility.yul\":15049:15122   */\n      tag_248\n        /* \"#utility.yul\":15117:15121   */\n      dup3\n        /* \"#utility.yul\":15103:15115   */\n      dup3\n        /* \"#utility.yul\":15049:15122   */\n      tag_66\n      jump\t// in\n    tag_248:\n        /* \"#utility.yul\":15041:15122   */\n      swap2\n      pop\n        /* \"#utility.yul\":14898:15133   */\n      pop\n        /* \"#utility.yul\":15222:15226   */\n      0x60\n        /* \"#utility.yul\":15215:15220   */\n      dup4\n        /* \"#utility.yul\":15211:15227   */\n      add\n        /* \"#utility.yul\":15205:15228   */\n      mload\n        /* \"#utility.yul\":15241:15350   */\n      tag_249\n        /* \"#utility.yul\":15344:15348   */\n      0x60\n        /* \"#utility.yul\":15339:15342   */\n      dup7\n        /* \"#utility.yul\":15335:15349   */\n      add\n        /* \"#utility.yul\":15321:15333   */\n      dup3\n        /* \"#utility.yul\":15241:15350   */\n      tag_72\n      jump\t// in\n    tag_249:\n        /* \"#utility.yul\":15143:15360   */\n      pop\n        /* \"#utility.yul\":15377:15381   */\n      dup1\n        /* \"#utility.yul\":15370:15381   */\n      swap2\n      pop\n        /* \"#utility.yul\":14493:15387   */\n      pop\n        /* \"#utility.yul\":14379:15387   */\n      swap3\n      swap2\n      pop\n      pop\n      jump\t// out\n        /* \"#utility.yul\":15393:15649   */\n    tag_74:\n        /* \"#utility.yul\":15512:15522   */\n      0x00\n        /* \"#utility.yul\":15547:15643   */\n      tag_251\n        /* \"#utility.yul\":15639:15642   */\n      dup4\n        /* \"#utility.yul\":15631:15637   */\n      dup4\n        /* \"#utility.yul\":15547:15643   */\n      tag_73\n      jump\t// in\n    tag_251:\n        /* \"#utility.yul\":15533:15643   */\n      swap1\n      pop\n        /* \"#utility.yul\":15393:15649   */\n      swap3\n      swap2\n      pop\n      pop\n      jump\t// out\n        /* \"#utility.yul\":15655:15793   */\n    tag_75:\n        /* \"#utility.yul\":15750:15754   */\n      0x00\n        /* \"#utility.yul\":15782:15786   */\n      0x20\n        /* \"#utility.yul\":15777:15780   */\n      dup3\n        /* \"#utility.yul\":15773:15787   */\n      add\n        /* \"#utility.yul\":15765:15787   */\n      swap1\n      pop\n        /* \"#utility.yul\":15655:15793   */\n      swap2\n      swap1\n      pop\n      jump\t// out\n        /* \"#utility.yul\":15899:17010   */\n    tag_76:\n        /* \"#utility.yul\":16068:16071   */\n      0x00\n        /* \"#utility.yul\":16097:16176   */\n      tag_254\n        /* \"#utility.yul\":16170:16175   */\n      dup3\n        /* \"#utility.yul\":16097:16176   */\n      tag_59\n      jump\t// in\n    tag_254:\n        /* \"#utility.yul\":16192:16303   */\n      tag_255\n        /* \"#utility.yul\":16296:16302   */\n      dup2\n        /* \"#utility.yul\":16291:16294   */\n      dup6\n        /* \"#utility.yul\":16192:16303   */\n      tag_60\n      jump\t// in\n    tag_255:\n        /* \"#utility.yul\":16185:16303   */\n      swap4\n      pop\n        /* \"#utility.yul\":16329:16332   */\n      dup4\n        /* \"#utility.yul\":16374:16378   */\n      0x20\n        /* \"#utility.yul\":16366:16372   */\n      dup3\n        /* \"#utility.yul\":16362:16379   */\n      mul\n        /* \"#utility.yul\":16357:16360   */\n      dup6\n        /* \"#utility.yul\":16353:16380   */\n      add\n        /* \"#utility.yul\":16404:16485   */\n      tag_256\n        /* \"#utility.yul\":16479:16484   */\n      dup6\n        /* \"#utility.yul\":16404:16485   */\n      tag_61\n      jump\t// in\n    tag_256:\n        /* \"#utility.yul\":16508:16515   */\n      dup1\n        /* \"#utility.yul\":16539:16540   */\n      0x00\n        /* \"#utility.yul\":16524:16965   */\n    tag_257:\n        /* \"#utility.yul\":16549:16555   */\n      dup6\n        /* \"#utility.yul\":16546:16547   */\n      dup2\n        /* \"#utility.yul\":16543:16556   */\n      lt\n        /* \"#utility.yul\":16524:16965   */\n      iszero\n      tag_259\n      jumpi\n        /* \"#utility.yul\":16620:16629   */\n      dup5\n        /* \"#utility.yul\":16614:16618   */\n      dup5\n        /* \"#utility.yul\":16610:16630   */\n      sub\n        /* \"#utility.yul\":16605:16608   */\n      dup10\n        /* \"#utility.yul\":16598:16631   */\n      mstore\n        /* \"#utility.yul\":16671:16677   */\n      dup2\n        /* \"#utility.yul\":16665:16678   */\n      mload\n        /* \"#utility.yul\":16699:16813   */\n      tag_260\n        /* \"#utility.yul\":16808:16812   */\n      dup6\n        /* \"#utility.yul\":16793:16806   */\n      dup3\n        /* \"#utility.yul\":16699:16813   */\n      tag_74\n      jump\t// in\n    tag_260:\n        /* \"#utility.yul\":16691:16813   */\n      swap5\n      pop\n        /* \"#utility.yul\":16836:16921   */\n      tag_261\n        /* \"#utility.yul\":16914:16920   */\n      dup4\n        /* \"#utility.yul\":16836:16921   */\n      tag_75\n      jump\t// in\n    tag_261:\n        /* \"#utility.yul\":16826:16921   */\n      swap3\n      pop\n        /* \"#utility.yul\":16950:16954   */\n      0x20\n        /* \"#utility.yul\":16945:16948   */\n      dup11\n        /* \"#utility.yul\":16941:16955   */\n      add\n        /* \"#utility.yul\":16934:16955   */\n      swap10\n      pop\n        /* \"#utility.yul\":16584:16965   */\n      pop\n        /* \"#utility.yul\":16571:16572   */\n      0x01\n        /* \"#utility.yul\":16568:16569   */\n      dup2\n        /* \"#utility.yul\":16564:16573   */\n      add\n        /* \"#utility.yul\":16559:16573   */\n      swap1\n      pop\n        /* \"#utility.yul\":16524:16965   */\n      jump(tag_257)\n    tag_259:\n        /* \"#utility.yul\":16528:16542   */\n      pop\n        /* \"#utility.yul\":16981:16985   */\n      dup3\n        /* \"#utility.yul\":16974:16985   */\n      swap8\n      pop\n        /* \"#utility.yul\":17001:17004   */\n      dup8\n        /* \"#utility.yul\":16994:17004   */\n      swap6\n      pop\n        /* \"#utility.yul\":16073:17010   */\n      pop\n      pop\n      pop\n      pop\n      pop\n        /* \"#utility.yul\":15899:17010   */\n      swap3\n      swap2\n      pop\n      pop\n      jump\t// out\n        /* \"#utility.yul\":17016:17489   */\n    tag_16:\n        /* \"#utility.yul\":17209:17213   */\n      0x00\n        /* \"#utility.yul\":17247:17249   */\n      0x20\n        /* \"#utility.yul\":17236:17245   */\n      dup3\n        /* \"#utility.yul\":17232:17250   */\n      add\n        /* \"#utility.yul\":17224:17250   */\n      swap1\n      pop\n        /* \"#utility.yul\":17296:17305   */\n      dup2\n        /* \"#utility.yul\":17290:17294   */\n      dup2\n        /* \"#utility.yul\":17286:17306   */\n      sub\n        /* \"#utility.yul\":17282:17283   */\n      0x00\n        /* \"#utility.yul\":17271:17280   */\n      dup4\n        /* \"#utility.yul\":17267:17284   */\n      add\n        /* \"#utility.yul\":17260:17307   */\n      mstore\n        /* \"#utility.yul\":17324:17482   */\n      tag_263\n        /* \"#utility.yul\":17477:17481   */\n      dup2\n        /* \"#utility.yul\":17468:17474   */\n      dup5\n        /* \"#utility.yul\":17324:17482   */\n      tag_76\n      jump\t// in\n    tag_263:\n        /* \"#utility.yul\":17316:17482   */\n      swap1\n      pop\n        /* \"#utility.yul\":17016:17489   */\n      swap3\n      swap2\n      pop\n      pop\n      jump\t// out\n        /* \"#utility.yul\":17495:17638   */\n    tag_77:\n        /* \"#utility.yul\":17552:17557   */\n      0x00\n        /* \"#utility.yul\":17583:17589   */\n      dup2\n        /* \"#utility.yul\":17577:17590   */\n      mload\n        /* \"#utility.yul\":17568:17590   */\n      swap1\n      pop\n        /* \"#utility.yul\":17599:17632   */\n      tag_265\n        /* \"#utility.yul\":17626:17631   */\n      dup2\n        /* \"#utility.yul\":17599:17632   */\n      tag_36\n      jump\t// in\n    tag_265:\n        /* \"#utility.yul\":17495:17638   */\n      swap3\n      swap2\n      pop\n      pop\n      jump\t// out\n        /* \"#utility.yul\":17644:17787   */\n    tag_78:\n        /* \"#utility.yul\":17701:17706   */\n      0x00\n        /* \"#utility.yul\":17732:17738   */\n      dup2\n        /* \"#utility.yul\":17726:17739   */\n      mload\n        /* \"#utility.yul\":17717:17739   */\n      swap1\n      pop\n        /* \"#utility.yul\":17748:17781   */\n      tag_267\n        /* \"#utility.yul\":17775:17780   */\n      dup2\n        /* \"#utility.yul\":17748:17781   */\n      tag_39\n      jump\t// in\n    tag_267:\n        /* \"#utility.yul\":17644:17787   */\n      swap3\n      swap2\n      pop\n      pop\n      jump\t// out\n        /* \"#utility.yul\":17793:18227   */\n    tag_79:\n        /* \"#utility.yul\":17882:17887   */\n      0x00\n        /* \"#utility.yul\":17907:17973   */\n      tag_269\n        /* \"#utility.yul\":17923:17972   */\n      tag_270\n        /* \"#utility.yul\":17965:17971   */\n      dup5\n        /* \"#utility.yul\":17923:17972   */\n      tag_42\n      jump\t// in\n    tag_270:\n        /* \"#utility.yul\":17907:17973   */\n      tag_29\n      jump\t// in\n    tag_269:\n        /* \"#utility.yul\":17898:17973   */\n      swap1\n      pop\n        /* \"#utility.yul\":17996:18002   */\n      dup3\n        /* \"#utility.yul\":17989:17994   */\n      dup2\n        /* \"#utility.yul\":17982:18003   */\n      mstore\n        /* \"#utility.yul\":18034:18038   */\n      0x20\n        /* \"#utility.yul\":18027:18032   */\n      dup2\n        /* \"#utility.yul\":18023:18039   */\n      add\n        /* \"#utility.yul\":18072:18075   */\n      dup5\n        /* \"#utility.yul\":18063:18069   */\n      dup5\n        /* \"#utility.yul\":18058:18061   */\n      dup5\n        /* \"#utility.yul\":18054:18070   */\n      add\n        /* \"#utility.yul\":18051:18076   */\n      gt\n        /* \"#utility.yul\":18048:18160   */\n      iszero\n      tag_271\n      jumpi\n        /* \"#utility.yul\":18079:18158   */\n      tag_272\n      tag_41\n      jump\t// in\n    tag_272:\n        /* \"#utility.yul\":18048:18160   */\n    tag_271:\n        /* \"#utility.yul\":18169:18221   */\n      tag_273\n        /* \"#utility.yul\":18214:18220   */\n      dup5\n        /* \"#utility.yul\":18209:18212   */\n      dup3\n        /* \"#utility.yul\":18204:18207   */\n      dup6\n        /* \"#utility.yul\":18169:18221   */\n      tag_54\n      jump\t// in\n    tag_273:\n        /* \"#utility.yul\":17888:18227   */\n      pop\n        /* \"#utility.yul\":17793:18227   */\n      swap4\n      swap3\n      pop\n      pop\n      pop\n      jump\t// out\n        /* \"#utility.yul\":18247:18602   */\n    tag_80:\n        /* \"#utility.yul\":18314:18319   */\n      0x00\n        /* \"#utility.yul\":18363:18366   */\n      dup3\n        /* \"#utility.yul\":18356:18360   */\n      0x1f\n        /* \"#utility.yul\":18348:18354   */\n      dup4\n        /* \"#utility.yul\":18344:18361   */\n      add\n        /* \"#utility.yul\":18340:18367   */\n      slt\n        /* \"#utility.yul\":18330:18452   */\n      tag_275\n      jumpi\n        /* \"#utility.yul\":18371:18450   */\n      tag_276\n      tag_25\n      jump\t// in\n    tag_276:\n        /* \"#utility.yul\":18330:18452   */\n    tag_275:\n        /* \"#utility.yul\":18481:18487   */\n      dup2\n        /* \"#utility.yul\":18475:18488   */\n      mload\n        /* \"#utility.yul\":18506:18596   */\n      tag_277\n        /* \"#utility.yul\":18592:18595   */\n      dup5\n        /* \"#utility.yul\":18584:18590   */\n      dup3\n        /* \"#utility.yul\":18577:18581   */\n      0x20\n        /* \"#utility.yul\":18569:18575   */\n      dup7\n        /* \"#utility.yul\":18565:18582   */\n      add\n        /* \"#utility.yul\":18506:18596   */\n      tag_79\n      jump\t// in\n    tag_277:\n        /* \"#utility.yul\":18497:18596   */\n      swap2\n      pop\n        /* \"#utility.yul\":18320:18602   */\n      pop\n        /* \"#utility.yul\":18247:18602   */\n      swap3\n      swap2\n      pop\n      pop\n      jump\t// out\n        /* \"#utility.yul\":18626:19291   */\n    tag_81:\n        /* \"#utility.yul\":18731:18736   */\n      0x00\n        /* \"#utility.yul\":18756:18835   */\n      tag_279\n        /* \"#utility.yul\":18772:18834   */\n      tag_280\n        /* \"#utility.yul\":18827:18833   */\n      dup5\n        /* \"#utility.yul\":18772:18834   */\n      tag_46\n      jump\t// in\n    tag_280:\n        /* \"#utility.yul\":18756:18835   */\n      tag_29\n      jump\t// in\n    tag_279:\n        /* \"#utility.yul\":18747:18835   */\n      swap1\n      pop\n        /* \"#utility.yul\":18855:18860   */\n      dup1\n        /* \"#utility.yul\":18908:18912   */\n      0x20\n        /* \"#utility.yul\":18900:18906   */\n      dup5\n        /* \"#utility.yul\":18896:18913   */\n      mul\n        /* \"#utility.yul\":18888:18894   */\n      dup4\n        /* \"#utility.yul\":18884:18914   */\n      add\n        /* \"#utility.yul\":18937:18940   */\n      dup6\n        /* \"#utility.yul\":18929:18935   */\n      dup2\n        /* \"#utility.yul\":18926:18941   */\n      gt\n        /* \"#utility.yul\":18923:19045   */\n      iszero\n      tag_281\n      jumpi\n        /* \"#utility.yul\":18956:19035   */\n      tag_282\n      tag_31\n      jump\t// in\n    tag_282:\n        /* \"#utility.yul\":18923:19045   */\n    tag_281:\n        /* \"#utility.yul\":19071:19077   */\n      dup4\n        /* \"#utility.yul\":19054:19285   */\n    tag_283:\n        /* \"#utility.yul\":19088:19094   */\n      dup2\n        /* \"#utility.yul\":19083:19086   */\n      dup2\n        /* \"#utility.yul\":19080:19095   */\n      lt\n        /* \"#utility.yul\":19054:19285   */\n      iszero\n      tag_285\n      jumpi\n        /* \"#utility.yul\":19163:19166   */\n      dup1\n        /* \"#utility.yul\":19192:19240   */\n      tag_286\n        /* \"#utility.yul\":19236:19239   */\n      dup9\n        /* \"#utility.yul\":19224:19234   */\n      dup3\n        /* \"#utility.yul\":19192:19240   */\n      tag_78\n      jump\t// in\n    tag_286:\n        /* \"#utility.yul\":19187:19190   */\n      dup5\n        /* \"#utility.yul\":19180:19241   */\n      mstore\n        /* \"#utility.yul\":19270:19274   */\n      0x20\n        /* \"#utility.yul\":19265:19268   */\n      dup5\n        /* \"#utility.yul\":19261:19275   */\n      add\n        /* \"#utility.yul\":19254:19275   */\n      swap4\n      pop\n        /* \"#utility.yul\":19130:19285   */\n      pop\n        /* \"#utility.yul\":19114:19118   */\n      0x20\n        /* \"#utility.yul\":19109:19112   */\n      dup2\n        /* \"#utility.yul\":19105:19119   */\n      add\n        /* \"#utility.yul\":19098:19119   */\n      swap1\n      pop\n        /* \"#utility.yul\":19054:19285   */\n      jump(tag_283)\n    tag_285:\n        /* \"#utility.yul\":19058:19079   */\n      pop\n        /* \"#utility.yul\":18737:19291   */\n      pop\n      pop\n        /* \"#utility.yul\":18626:19291   */\n      swap4\n      swap3\n      pop\n      pop\n      pop\n      jump\t// out\n        /* \"#utility.yul\":19315:19676   */\n    tag_82:\n        /* \"#utility.yul\":19395:19400   */\n      0x00\n        /* \"#utility.yul\":19444:19447   */\n      dup3\n        /* \"#utility.yul\":19437:19441   */\n      0x1f\n        /* \"#utility.yul\":19429:19435   */\n      dup4\n        /* \"#utility.yul\":19425:19442   */\n      add\n        /* \"#utility.yul\":19421:19448   */\n      slt\n        /* \"#utility.yul\":19411:19533   */\n      tag_288\n      jumpi\n        /* \"#utility.yul\":19452:19531   */\n      tag_289\n      tag_25\n      jump\t// in\n    tag_289:\n        /* \"#utility.yul\":19411:19533   */\n    tag_288:\n        /* \"#utility.yul\":19556:19560   */\n      0x03\n        /* \"#utility.yul\":19578:19670   */\n      tag_290\n        /* \"#utility.yul\":19666:19669   */\n      dup5\n        /* \"#utility.yul\":19658:19664   */\n      dup3\n        /* \"#utility.yul\":19650:19656   */\n      dup6\n        /* \"#utility.yul\":19578:19670   */\n      tag_81\n      jump\t// in\n    tag_290:\n        /* \"#utility.yul\":19569:19670   */\n      swap2\n      pop\n        /* \"#utility.yul\":19401:19676   */\n      pop\n        /* \"#utility.yul\":19315:19676   */\n      swap3\n      swap2\n      pop\n      pop\n      jump\t// out\n        /* \"#utility.yul\":19732:20887   */\n    tag_83:\n        /* \"#utility.yul\":19817:19822   */\n      0x00\n        /* \"#utility.yul\":19861:19865   */\n      0xc0\n        /* \"#utility.yul\":19849:19858   */\n      dup3\n        /* \"#utility.yul\":19844:19847   */\n      dup5\n        /* \"#utility.yul\":19840:19859   */\n      sub\n        /* \"#utility.yul\":19836:19866   */\n      slt\n        /* \"#utility.yul\":19833:19950   */\n      iszero\n      tag_292\n      jumpi\n        /* \"#utility.yul\":19869:19948   */\n      tag_293\n      tag_32\n      jump\t// in\n    tag_293:\n        /* \"#utility.yul\":19833:19950   */\n    tag_292:\n        /* \"#utility.yul\":19968:19989   */\n      tag_294\n        /* \"#utility.yul\":19984:19988   */\n      0x80\n        /* \"#utility.yul\":19968:19989   */\n      tag_29\n      jump\t// in\n    tag_294:\n        /* \"#utility.yul\":19959:19989   */\n      swap1\n      pop\n        /* \"#utility.yul\":20056:20057   */\n      0x00\n        /* \"#utility.yul\":20096:20156   */\n      tag_295\n        /* \"#utility.yul\":20152:20155   */\n      dup5\n        /* \"#utility.yul\":20143:20149   */\n      dup3\n        /* \"#utility.yul\":20132:20141   */\n      dup6\n        /* \"#utility.yul\":20128:20150   */\n      add\n        /* \"#utility.yul\":20096:20156   */\n      tag_77\n      jump\t// in\n    tag_295:\n        /* \"#utility.yul\":20089:20093   */\n      0x00\n        /* \"#utility.yul\":20082:20087   */\n      dup4\n        /* \"#utility.yul\":20078:20094   */\n      add\n        /* \"#utility.yul\":20071:20157   */\n      mstore\n        /* \"#utility.yul\":19999:20168   */\n      pop\n        /* \"#utility.yul\":20230:20232   */\n      0x20\n        /* \"#utility.yul\":20271:20331   */\n      tag_296\n        /* \"#utility.yul\":20327:20330   */\n      dup5\n        /* \"#utility.yul\":20318:20324   */\n      dup3\n        /* \"#utility.yul\":20307:20316   */\n      dup6\n        /* \"#utility.yul\":20303:20325   */\n      add\n        /* \"#utility.yul\":20271:20331   */\n      tag_78\n      jump\t// in\n    tag_296:\n        /* \"#utility.yul\":20264:20268   */\n      0x20\n        /* \"#utility.yul\":20257:20262   */\n      dup4\n        /* \"#utility.yul\":20253:20269   */\n      add\n        /* \"#utility.yul\":20246:20332   */\n      mstore\n        /* \"#utility.yul\":20178:20343   */\n      pop\n        /* \"#utility.yul\":20423:20425   */\n      0x40\n        /* \"#utility.yul\":20412:20421   */\n      dup3\n        /* \"#utility.yul\":20408:20426   */\n      add\n        /* \"#utility.yul\":20402:20427   */\n      mload\n        /* \"#utility.yul\":20454:20472   */\n      0xffffffffffffffff\n        /* \"#utility.yul\":20446:20452   */\n      dup2\n        /* \"#utility.yul\":20443:20473   */\n      gt\n        /* \"#utility.yul\":20440:20557   */\n      iszero\n      tag_297\n      jumpi\n        /* \"#utility.yul\":20476:20555   */\n      tag_298\n      tag_33\n      jump\t// in\n    tag_298:\n        /* \"#utility.yul\":20440:20557   */\n    tag_297:\n        /* \"#utility.yul\":20596:20666   */\n      tag_299\n        /* \"#utility.yul\":20662:20665   */\n      dup5\n        /* \"#utility.yul\":20653:20659   */\n      dup3\n        /* \"#utility.yul\":20642:20651   */\n      dup6\n        /* \"#utility.yul\":20638:20660   */\n      add\n        /* \"#utility.yul\":20596:20666   */\n      tag_80\n      jump\t// in\n    tag_299:\n        /* \"#utility.yul\":20589:20593   */\n      0x40\n        /* \"#utility.yul\":20582:20587   */\n      dup4\n        /* \"#utility.yul\":20578:20594   */\n      add\n        /* \"#utility.yul\":20571:20667   */\n      mstore\n        /* \"#utility.yul\":20353:20678   */\n      pop\n        /* \"#utility.yul\":20744:20746   */\n      0x60\n        /* \"#utility.yul\":20785:20868   */\n      tag_300\n        /* \"#utility.yul\":20864:20867   */\n      dup5\n        /* \"#utility.yul\":20855:20861   */\n      dup3\n        /* \"#utility.yul\":20844:20853   */\n      dup6\n        /* \"#utility.yul\":20840:20862   */\n      add\n        /* \"#utility.yul\":20785:20868   */\n      tag_82\n      jump\t// in\n    tag_300:\n        /* \"#utility.yul\":20778:20782   */\n      0x60\n        /* \"#utility.yul\":20771:20776   */\n      dup4\n        /* \"#utility.yul\":20767:20783   */\n      add\n        /* \"#utility.yul\":20760:20869   */\n      mstore\n        /* \"#utility.yul\":20688:20880   */\n      pop\n        /* \"#utility.yul\":19732:20887   */\n      swap3\n      swap2\n      pop\n      pop\n      jump\t// out\n        /* \"#utility.yul\":20945:21950   */\n    tag_84:\n        /* \"#utility.yul\":21077:21082   */\n      0x00\n        /* \"#utility.yul\":21102:21208   */\n      tag_302\n        /* \"#utility.yul\":21118:21207   */\n      tag_303\n        /* \"#utility.yul\":21200:21206   */\n      dup5\n        /* \"#utility.yul\":21118:21207   */\n      tag_30\n      jump\t// in\n    tag_303:\n        /* \"#utility.yul\":21102:21208   */\n      tag_29\n      jump\t// in\n    tag_302:\n        /* \"#utility.yul\":21093:21208   */\n      swap1\n      pop\n        /* \"#utility.yul\":21228:21233   */\n      dup1\n        /* \"#utility.yul\":21257:21263   */\n      dup4\n        /* \"#utility.yul\":21250:21255   */\n      dup3\n        /* \"#utility.yul\":21243:21264   */\n      mstore\n        /* \"#utility.yul\":21291:21295   */\n      0x20\n        /* \"#utility.yul\":21284:21289   */\n      dup3\n        /* \"#utility.yul\":21280:21296   */\n      add\n        /* \"#utility.yul\":21273:21296   */\n      swap1\n      pop\n        /* \"#utility.yul\":21344:21348   */\n      0x20\n        /* \"#utility.yul\":21336:21342   */\n      dup5\n        /* \"#utility.yul\":21332:21349   */\n      mul\n        /* \"#utility.yul\":21324:21330   */\n      dup4\n        /* \"#utility.yul\":21320:21350   */\n      add\n        /* \"#utility.yul\":21373:21376   */\n      dup6\n        /* \"#utility.yul\":21365:21371   */\n      dup2\n        /* \"#utility.yul\":21362:21377   */\n      gt\n        /* \"#utility.yul\":21359:21481   */\n      iszero\n      tag_304\n      jumpi\n        /* \"#utility.yul\":21392:21471   */\n      tag_305\n      tag_31\n      jump\t// in\n    tag_305:\n        /* \"#utility.yul\":21359:21481   */\n    tag_304:\n        /* \"#utility.yul\":21507:21513   */\n      dup4\n        /* \"#utility.yul\":21490:21944   */\n    tag_306:\n        /* \"#utility.yul\":21524:21530   */\n      dup2\n        /* \"#utility.yul\":21519:21522   */\n      dup2\n        /* \"#utility.yul\":21516:21531   */\n      lt\n        /* \"#utility.yul\":21490:21944   */\n      iszero\n      tag_308\n      jumpi\n        /* \"#utility.yul\":21606:21609   */\n      dup1\n        /* \"#utility.yul\":21600:21610   */\n      mload\n        /* \"#utility.yul\":21642:21660   */\n      0xffffffffffffffff\n        /* \"#utility.yul\":21629:21640   */\n      dup2\n        /* \"#utility.yul\":21626:21661   */\n      gt\n        /* \"#utility.yul\":21623:21745   */\n      iszero\n      tag_309\n      jumpi\n        /* \"#utility.yul\":21664:21743   */\n      tag_310\n      tag_25\n      jump\t// in\n    tag_310:\n        /* \"#utility.yul\":21623:21745   */\n    tag_309:\n        /* \"#utility.yul\":21788:21799   */\n      dup1\n        /* \"#utility.yul\":21780:21786   */\n      dup7\n        /* \"#utility.yul\":21776:21800   */\n      add\n        /* \"#utility.yul\":21826:21899   */\n      tag_311\n        /* \"#utility.yul\":21895:21898   */\n      dup10\n        /* \"#utility.yul\":21883:21893   */\n      dup3\n        /* \"#utility.yul\":21826:21899   */\n      tag_83\n      jump\t// in\n    tag_311:\n        /* \"#utility.yul\":21821:21824   */\n      dup6\n        /* \"#utility.yul\":21814:21900   */\n      mstore\n        /* \"#utility.yul\":21929:21933   */\n      0x20\n        /* \"#utility.yul\":21924:21927   */\n      dup6\n        /* \"#utility.yul\":21920:21934   */\n      add\n        /* \"#utility.yul\":21913:21934   */\n      swap5\n      pop\n        /* \"#utility.yul\":21566:21944   */\n      pop\n      pop\n        /* \"#utility.yul\":21550:21554   */\n      0x20\n        /* \"#utility.yul\":21545:21548   */\n      dup2\n        /* \"#utility.yul\":21541:21555   */\n      add\n        /* \"#utility.yul\":21534:21555   */\n      swap1\n      pop\n        /* \"#utility.yul\":21490:21944   */\n      jump(tag_306)\n    tag_308:\n        /* \"#utility.yul\":21494:21515   */\n      pop\n        /* \"#utility.yul\":21083:21950   */\n      pop\n      pop\n        /* \"#utility.yul\":20945:21950   */\n      swap4\n      swap3\n      pop\n      pop\n      pop\n      jump\t// out\n        /* \"#utility.yul\":22008:22443   */\n    tag_85:\n        /* \"#utility.yul\":22115:22120   */\n      0x00\n        /* \"#utility.yul\":22164:22167   */\n      dup3\n        /* \"#utility.yul\":22157:22161   */\n      0x1f\n        /* \"#utility.yul\":22149:22155   */\n      dup4\n        /* \"#utility.yul\":22145:22162   */\n      add\n        /* \"#utility.yul\":22141:22168   */\n      slt\n        /* \"#utility.yul\":22131:22253   */\n      tag_313\n      jumpi\n        /* \"#utility.yul\":22172:22251   */\n      tag_314\n      tag_25\n      jump\t// in\n    tag_314:\n        /* \"#utility.yul\":22131:22253   */\n    tag_313:\n        /* \"#utility.yul\":22282:22288   */\n      dup2\n        /* \"#utility.yul\":22276:22289   */\n      mload\n        /* \"#utility.yul\":22307:22437   */\n      tag_315\n        /* \"#utility.yul\":22433:22436   */\n      dup5\n        /* \"#utility.yul\":22425:22431   */\n      dup3\n        /* \"#utility.yul\":22418:22422   */\n      0x20\n        /* \"#utility.yul\":22410:22416   */\n      dup7\n        /* \"#utility.yul\":22406:22423   */\n      add\n        /* \"#utility.yul\":22307:22437   */\n      tag_84\n      jump\t// in\n    tag_315:\n        /* \"#utility.yul\":22298:22437   */\n      swap2\n      pop\n        /* \"#utility.yul\":22121:22443   */\n      pop\n        /* \"#utility.yul\":22008:22443   */\n      swap3\n      swap2\n      pop\n      pop\n      jump\t// out\n        /* \"#utility.yul\":22449:23053   */\n    tag_21:\n        /* \"#utility.yul\":22569:22575   */\n      0x00\n        /* \"#utility.yul\":22618:22620   */\n      0x20\n        /* \"#utility.yul\":22606:22615   */\n      dup3\n        /* \"#utility.yul\":22597:22604   */\n      dup5\n        /* \"#utility.yul\":22593:22616   */\n      sub\n        /* \"#utility.yul\":22589:22621   */\n      slt\n        /* \"#utility.yul\":22586:22705   */\n      iszero\n      tag_317\n      jumpi\n        /* \"#utility.yul\":22624:22703   */\n      tag_318\n      tag_23\n      jump\t// in\n    tag_318:\n        /* \"#utility.yul\":22586:22705   */\n    tag_317:\n        /* \"#utility.yul\":22765:22766   */\n      0x00\n        /* \"#utility.yul\":22754:22763   */\n      dup3\n        /* \"#utility.yul\":22750:22767   */\n      add\n        /* \"#utility.yul\":22744:22768   */\n      mload\n        /* \"#utility.yul\":22795:22813   */\n      0xffffffffffffffff\n        /* \"#utility.yul\":22787:22793   */\n      dup2\n        /* \"#utility.yul\":22784:22814   */\n      gt\n        /* \"#utility.yul\":22781:22898   */\n      iszero\n      tag_319\n      jumpi\n        /* \"#utility.yul\":22817:22896   */\n      tag_320\n      tag_24\n      jump\t// in\n    tag_320:\n        /* \"#utility.yul\":22781:22898   */\n    tag_319:\n        /* \"#utility.yul\":22922:23036   */\n      tag_321\n        /* \"#utility.yul\":23028:23035   */\n      dup5\n        /* \"#utility.yul\":23019:23025   */\n      dup3\n        /* \"#utility.yul\":23008:23017   */\n      dup6\n        /* \"#utility.yul\":23004:23026   */\n      add\n        /* \"#utility.yul\":22922:23036   */\n      tag_85\n      jump\t// in\n    tag_321:\n        /* \"#utility.yul\":22912:23036   */\n      swap2\n      pop\n        /* \"#utility.yul\":22715:23046   */\n      pop\n        /* \"#utility.yul\":22449:23053   */\n      swap3\n      swap2\n      pop\n      pop\n      jump\t// out\n\n    auxdata: 0xa2646970667358221220bf0b9a2cc6a8a0d911aa90e9271f1cae0442260f20542f31ea817b23d5070bd764736f6c63430008120033\n}\n",
				"bytecode": {
					"linkReferences": {},
					"object": "608060405234801561001057600080fd5b50610c1b806100206000396000f3fe608060405234801561001057600080fd5b50600436106100365760003560e01c80632e8300441461003b578063e5c5e9a31461006b575b600080fd5b61005560048036038101906100509190610504565b61009b565b60405161006291906105cc565b60405180910390f35b6100856004803603810190610080919061068f565b6100c4565b604051610092919061090c565b60405180910390f35b6060816040516020016100ae919061090c565b6040516020818303038152906040529050919050565b6060818060200190518101906100da9190610b9c565b9050919050565b6000604051905090565b600080fd5b600080fd5b600080fd5b6000601f19601f8301169050919050565b7f4e487b7100000000000000000000000000000000000000000000000000000000600052604160045260246000fd5b610143826100fa565b810181811067ffffffffffffffff821117156101625761016161010b565b5b80604052505050565b60006101756100e1565b9050610181828261013a565b919050565b600067ffffffffffffffff8211156101a1576101a061010b565b5b602082029050602081019050919050565b600080fd5b600080fd5b600080fd5b600073ffffffffffffffffffffffffffffffffffffffff82169050919050565b60006101ec826101c1565b9050919050565b6101fc816101e1565b811461020757600080fd5b50565b600081359050610219816101f3565b92915050565b6000819050919050565b6102328161021f565b811461023d57600080fd5b50565b60008135905061024f81610229565b92915050565b600080fd5b600067ffffffffffffffff8211156102755761027461010b565b5b61027e826100fa565b9050602081019050919050565b82818337600083830152505050565b60006102ad6102a88461025a565b61016b565b9050828152602081018484840111156102c9576102c8610255565b5b6102d484828561028b565b509392505050565b600082601f8301126102f1576102f06100f5565b5b813561030184826020860161029a565b91505092915050565b600067ffffffffffffffff8211156103255761032461010b565b5b602082029050919050565b600061034361033e8461030a565b61016b565b9050806020840283018581111561035d5761035c6101b2565b5b835b8181101561038657806103728882610240565b84526020840193505060208101905061035f565b5050509392505050565b600082601f8301126103a5576103a46100f5565b5b60036103b2848285610330565b91505092915050565b600060c082840312156103d1576103d06101b7565b5b6103db608061016b565b905060006103eb8482850161020a565b60008301525060206103ff84828501610240565b602083015250604082013567ffffffffffffffff811115610423576104226101bc565b5b61042f848285016102dc565b604083015250606061044384828501610390565b60608301525092915050565b600061046261045d84610186565b61016b565b90508083825260208201905060208402830185811115610485576104846101b2565b5b835b818110156104cc57803567ffffffffffffffff8111156104aa576104a96100f5565b5b8086016104b789826103bb565b85526020850194505050602081019050610487565b5050509392505050565b600082601f8301126104eb576104ea6100f5565b5b81356104fb84826020860161044f565b91505092915050565b60006020828403121561051a576105196100eb565b5b600082013567ffffffffffffffff811115610538576105376100f0565b5b610544848285016104d6565b91505092915050565b600081519050919050565b600082825260208201905092915050565b60005b8381101561058757808201518184015260208101905061056c565b60008484015250505050565b600061059e8261054d565b6105a88185610558565b93506105b8818560208601610569565b6105c1816100fa565b840191505092915050565b600060208201905081810360008301526105e68184610593565b905092915050565b600067ffffffffffffffff8211156106095761060861010b565b5b610612826100fa565b9050602081019050919050565b600061063261062d846105ee565b61016b565b90508281526020810184848401111561064e5761064d610255565b5b61065984828561028b565b509392505050565b600082601f830112610676576106756100f5565b5b813561068684826020860161061f565b91505092915050565b6000602082840312156106a5576106a46100eb565b5b600082013567ffffffffffffffff8111156106c3576106c26100f0565b5b6106cf84828501610661565b91505092915050565b600081519050919050565b600082825260208201905092915050565b6000819050602082019050919050565b61070d816101e1565b82525050565b61071c8161021f565b82525050565b600081519050919050565b600082825260208201905092915050565b600061074982610722565b610753818561072d565b9350610763818560208601610569565b61076c816100fa565b840191505092915050565b600060039050919050565b600081905092915050565b6000819050919050565b60006107a38383610713565b60208301905092915050565b6000602082019050919050565b6107c581610777565b6107cf8184610782565b92506107da8261078d565b8060005b8381101561080b5781516107f28782610797565b96506107fd836107af565b9250506001810190506107de565b505050505050565b600060c08301600083015161082b6000860182610704565b50602083015161083e6020860182610713565b5060408301518482036040860152610856828261073e565b915050606083015161086b60608601826107bc565b508091505092915050565b60006108828383610813565b905092915050565b6000602082019050919050565b60006108a2826106d8565b6108ac81856106e3565b9350836020820285016108be856106f4565b8060005b858110156108fa57848403895281516108db8582610876565b94506108e68361088a565b925060208a019950506001810190506108c2565b50829750879550505050505092915050565b600060208201905081810360008301526109268184610897565b905092915050565b60008151905061093d816101f3565b92915050565b60008151905061095281610229565b92915050565b600061096b6109668461025a565b61016b565b90508281526020810184848401111561098757610986610255565b5b610992848285610569565b509392505050565b600082601f8301126109af576109ae6100f5565b5b81516109bf848260208601610958565b91505092915050565b60006109db6109d68461030a565b61016b565b905080602084028301858111156109f5576109f46101b2565b5b835b81811015610a1e5780610a0a8882610943565b8452602084019350506020810190506109f7565b5050509392505050565b600082601f830112610a3d57610a3c6100f5565b5b6003610a4a8482856109c8565b91505092915050565b600060c08284031215610a6957610a686101b7565b5b610a73608061016b565b90506000610a838482850161092e565b6000830152506020610a9784828501610943565b602083015250604082015167ffffffffffffffff811115610abb57610aba6101bc565b5b610ac78482850161099a565b6040830152506060610adb84828501610a28565b60608301525092915050565b6000610afa610af584610186565b61016b565b90508083825260208201905060208402830185811115610b1d57610b1c6101b2565b5b835b81811015610b6457805167ffffffffffffffff811115610b4257610b416100f5565b5b808601610b4f8982610a53565b85526020850194505050602081019050610b1f565b5050509392505050565b600082601f830112610b8357610b826100f5565b5b8151610b93848260208601610ae7565b91505092915050565b600060208284031215610bb257610bb16100eb565b5b600082015167ffffffffffffffff811115610bd057610bcf6100f0565b5b610bdc84828501610b6e565b9150509291505056fea2646970667358221220bf0b9a2cc6a8a0d911aa90e9271f1cae0442260f20542f31ea817b23d5070bd764736f6c63430008120033",
					"opcodes": "PUSH1 0x80 PUSH1 0x40 MSTORE CALLVALUE DUP1 ISZERO PUSH2 0x10 JUMPI PUSH1 0x0 DUP1 REVERT JUMPDEST POP PUSH2 0xC1B DUP1 PUSH2 0x20 PUSH1 0x0 CODECOPY PUSH1 0x0 RETURN INVALID PUSH1 0x80 PUSH1 0x40 MSTORE CALLVALUE DUP1 ISZERO PUSH2 0x10 JUMPI PUSH1 0x0 DUP1 REVERT JUMPDEST POP PUSH1 0x4 CALLDATASIZE LT PUSH2 0x36 JUMPI PUSH1 0x0 CALLDATALOAD PUSH1 0xE0 SHR DUP1 PUSH4 0x2E830044 EQ PUSH2 0x3B JUMPI DUP1 PUSH4 0xE5C5E9A3 EQ PUSH2 0x6B JUMPI JUMPDEST PUSH1 0x0 DUP1 REVERT JUMPDEST PUSH2 0x55 PUSH1 0x4 DUP1 CALLDATASIZE SUB DUP2 ADD SWAP1 PUSH2 0x50 SWAP2 SWAP1 PUSH2 0x504 JUMP JUMPDEST PUSH2 0x9B JUMP JUMPDEST PUSH1 0x40 MLOAD PUSH2 0x62 SWAP2 SWAP1 PUSH2 0x5CC JUMP JUMPDEST PUSH1 0x40 MLOAD DUP1 SWAP2 SUB SWAP1 RETURN JUMPDEST PUSH2 0x85 PUSH1 0x4 DUP1 CALLDATASIZE SUB DUP2 ADD SWAP1 PUSH2 0x80 SWAP2 SWAP1 PUSH2 0x68F JUMP JUMPDEST PUSH2 0xC4 JUMP JUMPDEST PUSH1 0x40 MLOAD PUSH2 0x92 SWAP2 SWAP1 PUSH2 0x90C JUMP JUMPDEST PUSH1 0x40 MLOAD DUP1 SWAP2 SUB SWAP1 RETURN JUMPDEST PUSH1 0x60 DUP2 PUSH1 0x40 MLOAD PUSH1 0x20 ADD PUSH2 0xAE SWAP2 SWAP1 PUSH2 0x90C JUMP JUMPDEST PUSH1 0x40 MLOAD PUSH1 0x20 DUP2 DUP4 SUB SUB DUP2 MSTORE SWAP1 PUSH1 0x40 MSTORE SWAP1 POP SWAP2 SWAP1 POP JUMP JUMPDEST PUSH1 0x60 DUP2 DUP1 PUSH1 0x20 ADD SWAP1 MLOAD DUP2 ADD SWAP1 PUSH2 0xDA SWAP2 SWAP1 PUSH2 0xB9C JUMP JUMPDEST SWAP1 POP SWAP2 SWAP1 POP JUMP JUMPDEST PUSH1 0x0 PUSH1 0x40 MLOAD SWAP1 POP SWAP1 JUMP JUMPDEST PUSH1 0x0 DUP1 REVERT JUMPDEST PUSH1 0x0 DUP1 REVERT JUMPDEST PUSH1 0x0 DUP1 REVERT JUMPDEST PUSH1 0x0 PUSH1 0x1F NOT PUSH1 0x1F DUP4 ADD AND SWAP1 POP SWAP2 SWAP1 POP JUMP JUMPDEST PUSH32 0x4E487B7100000000000000000000000000000000000000000000000000000000 PUSH1 0x0 MSTORE PUSH1 0x41 PUSH1 0x4 MSTORE PUSH1 0x24 PUSH1 0x0 REVERT JUMPDEST PUSH2 0x143 DUP3 PUSH2 0xFA JUMP JUMPDEST DUP2 ADD DUP2 DUP2 LT PUSH8 0xFFFFFFFFFFFFFFFF DUP3 GT OR ISZERO PUSH2 0x162 JUMPI PUSH2 0x161 PUSH2 0x10B JUMP JUMPDEST JUMPDEST DUP1 PUSH1 0x40 MSTORE POP POP POP JUMP JUMPDEST PUSH1 0x0 PUSH2 0x175 PUSH2 0xE1 JUMP JUMPDEST SWAP1 POP PUSH2 0x181 DUP3 DUP3 PUSH2 0x13A JUMP JUMPDEST SWAP2 SWAP1 POP JUMP JUMPDEST PUSH1 0x0 PUSH8 0xFFFFFFFFFFFFFFFF DUP3 GT ISZERO PUSH2 0x1A1 JUMPI PUSH2 0x1A0 PUSH2 0x10B JUMP JUMPDEST JUMPDEST PUSH1 0x20 DUP3 MUL SWAP1 POP PUSH1 0x20 DUP2 ADD SWAP1 POP SWAP2 SWAP1 POP JUMP JUMPDEST PUSH1 0x0 DUP1 REVERT JUMPDEST PUSH1 0x0 DUP1 REVERT JUMPDEST PUSH1 0x0 DUP1 REVERT JUMPDEST PUSH1 0x0 PUSH20 0xFFFFFFFFFFFFFFFFFFFFFFFFFFFFFFFFFFFFFFFF DUP3 AND SWAP1 POP SWAP2 SWAP1 POP JUMP JUMPDEST PUSH1 0x0 PUSH2 0x1EC DUP3 PUSH2 0x1C1 JUMP JUMPDEST SWAP1 POP SWAP2 SWAP1 POP JUMP JUMPDEST PUSH2 0x1FC DUP2 PUSH2 0x1E1 JUMP JUMPDEST DUP2 EQ PUSH2 0x207 JUMPI PUSH1 0x0 DUP1 REVERT JUMPDEST POP JUMP JUMPDEST PUSH1 0x0 DUP2 CALLDATALOAD SWAP1 POP PUSH2 0x219 DUP2 PUSH2 0x1F3 JUMP JUMPDEST SWAP3 SWAP2 POP POP JUMP JUMPDEST PUSH1 0x0 DUP2 SWAP1 POP SWAP2 SWAP1 POP JUMP JUMPDEST PUSH2 0x232 DUP2 PUSH2 0x21F JUMP JUMPDEST DUP2 EQ PUSH2 0x23D JUMPI PUSH1 0x0 DUP1 REVERT JUMPDEST POP JUMP JUMPDEST PUSH1 0x0 DUP2 CALLDATALOAD SWAP1 POP PUSH2 0x24F DUP2 PUSH2 0x229 JUMP JUMPDEST SWAP3 SWAP2 POP POP JUMP JUMPDEST PUSH1 0x0 DUP1 REVERT JUMPDEST PUSH1 0x0 PUSH8 0xFFFFFFFFFFFFFFFF DUP3 GT ISZERO PUSH2 0x275 JUMPI PUSH2 0x274 PUSH2 0x10B JUMP JUMPDEST JUMPDEST PUSH2 0x27E DUP3 PUSH2 0xFA JUMP JUMPDEST SWAP1 POP PUSH1 0x20 DUP2 ADD SWAP1 POP SWAP2 SWAP1 POP JUMP JUMPDEST DUP3 DUP2 DUP4 CALLDATACOPY PUSH1 0x0 DUP4 DUP4 ADD MSTORE POP POP POP JUMP JUMPDEST PUSH1 0x0 PUSH2 0x2AD PUSH2 0x2A8 DUP5 PUSH2 0x25A JUMP JUMPDEST PUSH2 0x16B JUMP JUMPDEST SWAP1 POP DUP3 DUP2 MSTORE PUSH1 0x20 DUP2 ADD DUP5 DUP5 DUP5 ADD GT ISZERO PUSH2 0x2C9 JUMPI PUSH2 0x2C8 PUSH2 0x255 JUMP JUMPDEST JUMPDEST PUSH2 0x2D4 DUP5 DUP3 DUP6 PUSH2 0x28B JUMP JUMPDEST POP SWAP4 SWAP3 POP POP POP JUMP JUMPDEST PUSH1 0x0 DUP3 PUSH1 0x1F DUP4 ADD SLT PUSH2 0x2F1 JUMPI PUSH2 0x2F0 PUSH2 0xF5 JUMP JUMPDEST JUMPDEST DUP2 CALLDATALOAD PUSH2 0x301 DUP5 DUP3 PUSH1 0x20 DUP7 ADD PUSH2 0x29A JUMP JUMPDEST SWAP2 POP POP SWAP3 SWAP2 POP POP JUMP JUMPDEST PUSH1 0x0 PUSH8 0xFFFFFFFFFFFFFFFF DUP3 GT ISZERO PUSH2 0x325 JUMPI PUSH2 0x324 PUSH2 0x10B JUMP JUMPDEST JUMPDEST PUSH1 0x20 DUP3 MUL SWAP1 POP SWAP2 SWAP1 POP JUMP JUMPDEST PUSH1 0x0 PUSH2 0x343 PUSH2 0x33E DUP5 PUSH2 0x30A JUMP JUMPDEST PUSH2 0x16B JUMP JUMPDEST SWAP1 POP DUP1 PUSH1 0x20 DUP5 MUL DUP4 ADD DUP6 DUP2 GT ISZERO PUSH2 0x35D JUMPI PUSH2 0x35C PUSH2 0x1B2 JUMP JUMPDEST JUMPDEST DUP4 JUMPDEST DUP2 DUP2 LT ISZERO PUSH2 0x386 JUMPI DUP1 PUSH2 0x372 DUP9 DUP3 PUSH2 0x240 JUMP JUMPDEST DUP5 MSTORE PUSH1 0x20 DUP5 ADD SWAP4 POP POP PUSH1 0x20 DUP2 ADD SWAP1 POP PUSH2 0x35F JUMP JUMPDEST POP POP POP SWAP4 SWAP3 POP POP POP JUMP JUMPDEST PUSH1 0x0 DUP3 PUSH1 0x1F DUP4 ADD SLT PUSH2 0x3A5 JUMPI PUSH2 0x3A4 PUSH2 0xF5 JUMP JUMPDEST JUMPDEST PUSH1 0x3 PUSH2 0x3B2 DUP5 DUP3 DUP6 PUSH2 0x330 JUMP JUMPDEST SWAP2 POP POP SWAP3 SWAP2 POP POP JUMP JUMPDEST PUSH1 0x0 PUSH1 0xC0 DUP3 DUP5 SUB SLT ISZERO PUSH2 0x3D1 JUMPI PUSH2 0x3D0 PUSH2 0x1B7 JUMP JUMPDEST JUMPDEST PUSH2 0x3DB PUSH1 0x80 PUSH2 0x16B JUMP JUMPDEST SWAP1 POP PUSH1 0x0 PUSH2 0x3EB DUP5 DUP3 DUP6 ADD PUSH2 0x20A JUMP JUMPDEST PUSH1 0x0 DUP4 ADD MSTORE POP PUSH1 0x20 PUSH2 0x3FF DUP5 DUP3 DUP6 ADD PUSH2 0x240 JUMP JUMPDEST PUSH1 0x20 DUP4 ADD MSTORE POP PUSH1 0x40 DUP3 ADD CALLDATALOAD PUSH8 0xFFFFFFFFFFFFFFFF DUP2 GT ISZERO PUSH2 0x423 JUMPI PUSH2 0x422 PUSH2 0x1BC JUMP JUMPDEST JUMPDEST PUSH2 0x42F DUP5 DUP3 DUP6 ADD PUSH2 0x2DC JUMP JUMPDEST PUSH1 0x40 DUP4 ADD MSTORE POP PUSH1 0x60 PUSH2 0x443 DUP5 DUP3 DUP6 ADD PUSH2 0x390 JUMP JUMPDEST PUSH1 0x60 DUP4 ADD MSTORE POP SWAP3 SWAP2 POP POP JUMP JUMPDEST PUSH1 0x0 PUSH2 0x462 PUSH2 0x45D DUP5 PUSH2 0x186 JUMP JUMPDEST PUSH2 0x16B JUMP JUMPDEST SWAP1 POP DUP1 DUP4 DUP3 MSTORE PUSH1 0x20 DUP3 ADD SWAP1 POP PUSH1 0x20 DUP5 MUL DUP4 ADD DUP6 DUP2 GT ISZERO PUSH2 0x485 JUMPI PUSH2 0x484 PUSH2 0x1B2 JUMP JUMPDEST JUMPDEST DUP4 JUMPDEST DUP2 DUP2 LT ISZERO PUSH2 0x4CC JUMPI DUP1 CALLDATALOAD PUSH8 0xFFFFFFFFFFFFFFFF DUP2 GT ISZERO PUSH2 0x4AA JUMPI PUSH2 0x4A9 PUSH2 0xF5 JUMP JUMPDEST JUMPDEST DUP1 DUP7 ADD PUSH2 0x4B7 DUP10 DUP3 PUSH2 0x3BB JUMP JUMPDEST DUP6 MSTORE PUSH1 0x20 DUP6 ADD SWAP5 POP POP POP PUSH1 0x20 DUP2 ADD SWAP1 POP PUSH2 0x487 JUMP JUMPDEST POP POP POP SWAP4 SWAP3 POP POP POP JUMP JUMPDEST PUSH1 0x0 DUP3 PUSH1 0x1F DUP4 ADD SLT PUSH2 0x4EB JUMPI PUSH2 0x4EA PUSH2 0xF5 JUMP JUMPDEST JUMPDEST DUP2 CALLDATALOAD PUSH2 0x4FB DUP5 DUP3 PUSH1 0x20 DUP7 ADD PUSH2 0x44F JUMP JUMPDEST SWAP2 POP POP SWAP3 SWAP2 POP POP JUMP JUMPDEST PUSH1 0x0 PUSH1 0x20 DUP3 DUP5 SUB SLT ISZERO PUSH2 0x51A JUMPI PUSH2 0x519 PUSH2 0xEB JUMP JUMPDEST JUMPDEST PUSH1 0x0 DUP3 ADD CALLDATALOAD PUSH8 0xFFFFFFFFFFFFFFFF DUP2 GT ISZERO PUSH2 0x538 JUMPI PUSH2 0x537 PUSH2 0xF0 JUMP JUMPDEST JUMPDEST PUSH2 0x544 DUP5 DUP3 DUP6 ADD PUSH2 0x4D6 JUMP JUMPDEST SWAP2 POP POP SWAP3 SWAP2 POP POP JUMP JUMPDEST PUSH1 0x0 DUP2 MLOAD SWAP1 POP SWAP2 SWAP1 POP JUMP JUMPDEST PUSH1 0x0 DUP3 DUP3 MSTORE PUSH1 0x20 DUP3 ADD SWAP1 POP SWAP3 SWAP2 POP POP JUMP JUMPDEST PUSH1 0x0 JUMPDEST DUP4 DUP2 LT ISZERO PUSH2 0x587 JUMPI DUP1 DUP3 ADD MLOAD DUP2 DUP5 ADD MSTORE PUSH1 0x20 DUP2 ADD SWAP1 POP PUSH2 0x56C JUMP JUMPDEST PUSH1 0x0 DUP5 DUP5 ADD MSTORE POP POP POP POP JUMP JUMPDEST PUSH1 0x0 PUSH2 0x59E DUP3 PUSH2 0x54D JUMP JUMPDEST PUSH2 0x5A8 DUP2 DUP6 PUSH2 0x558 JUMP JUMPDEST SWAP4 POP PUSH2 0x5B8 DUP2 DUP6 PUSH1 0x20 DUP7 ADD PUSH2 0x569 JUMP JUMPDEST PUSH2 0x5C1 DUP2 PUSH2 0xFA JUMP JUMPDEST DUP5 ADD SWAP2 POP POP SWAP3 SWAP2 POP POP JUMP JUMPDEST PUSH1 0x0 PUSH1 0x20 DUP3 ADD SWAP1 POP DUP2 DUP2 SUB PUSH1 0x0 DUP4 ADD MSTORE PUSH2 0x5E6 DUP2 DUP5 PUSH2 0x593 JUMP JUMPDEST SWAP1 POP SWAP3 SWAP2 POP POP JUMP JUMPDEST PUSH1 0x0 PUSH8 0xFFFFFFFFFFFFFFFF DUP3 GT ISZERO PUSH2 0x609 JUMPI PUSH2 0x608 PUSH2 0x10B JUMP JUMPDEST JUMPDEST PUSH2 0x612 DUP3 PUSH2 0xFA JUMP JUMPDEST SWAP1 POP PUSH1 0x20 DUP2 ADD SWAP1 POP SWAP2 SWAP1 POP JUMP JUMPDEST PUSH1 0x0 PUSH2 0x632 PUSH2 0x62D DUP5 PUSH2 0x5EE JUMP JUMPDEST PUSH2 0x16B JUMP JUMPDEST SWAP1 POP DUP3 DUP2 MSTORE PUSH1 0x20 DUP2 ADD DUP5 DUP5 DUP5 ADD GT ISZERO PUSH2 0x64E JUMPI PUSH2 0x64D PUSH2 0x255 JUMP JUMPDEST JUMPDEST PUSH2 0x659 DUP5 DUP3 DUP6 PUSH2 0x28B JUMP JUMPDEST POP SWAP4 SWAP3 POP POP POP JUMP JUMPDEST PUSH1 0x0 DUP3 PUSH1 0x1F DUP4 ADD SLT PUSH2 0x676 JUMPI PUSH2 0x675 PUSH2 0xF5 JUMP JUMPDEST JUMPDEST DUP2 CALLDATALOAD PUSH2 0x686 DUP5 DUP3 PUSH1 0x20 DUP7 ADD PUSH2 0x61F JUMP JUMPDEST SWAP2 POP POP SWAP3 SWAP2 POP POP JUMP JUMPDEST PUSH1 0x0 PUSH1 0x20 DUP3 DUP5 SUB SLT ISZERO PUSH2 0x6A5 JUMPI PUSH2 0x6A4 PUSH2 0xEB JUMP JUMPDEST JUMPDEST PUSH1 0x0 DUP3 ADD CALLDATALOAD PUSH8 0xFFFFFFFFFFFFFFFF DUP2 GT ISZERO PUSH2 0x6C3 JUMPI PUSH2 0x6C2 PUSH2 0xF0 JUMP JUMPDEST JUMPDEST PUSH2 0x6CF DUP5 DUP3 DUP6 ADD PUSH2 0x661 JUMP JUMPDEST SWAP2 POP POP SWAP3 SWAP2 POP POP JUMP JUMPDEST PUSH1 0x0 DUP2 MLOAD SWAP1 POP SWAP2 SWAP1 POP JUMP JUMPDEST PUSH1 0x0 DUP3 DUP3 MSTORE PUSH1 0x20 DUP3 ADD SWAP1 POP SWAP3 SWAP2 POP POP JUMP JUMPDEST PUSH1 0x0 DUP2 SWAP1 POP PUSH1 0x20 DUP3 ADD SWAP1 POP SWAP2 SWAP1 POP JUMP JUMPDEST PUSH2 0x70D DUP2 PUSH2 0x1E1 JUMP JUMPDEST DUP3 MSTORE POP POP JUMP JUMPDEST PUSH2 0x71C DUP2 PUSH2 0x21F JUMP JUMPDEST DUP3 MSTORE POP POP JUMP JUMPDEST PUSH1 0x0 DUP2 MLOAD SWAP1 POP SWAP2 SWAP1 POP JUMP JUMPDEST PUSH1 0x0 DUP3 DUP3 MSTORE PUSH1 0x20 DUP3 ADD SWAP1 POP SWAP3 SWAP2 POP POP JUMP JUMPDEST PUSH1 0x0 PUSH2 0x749 DUP3 PUSH2 0x722 JUMP JUMPDEST PUSH2 0x753 DUP2 DUP6 PUSH2 0x72D JUMP JUMPDEST SWAP4 POP PUSH2 0x763 DUP2 DUP6 PUSH1 0x20 DUP7 ADD PUSH2 0x569 JUMP JUMPDEST PUSH2 0x76C DUP2 PUSH2 0xFA JUMP JUMPDEST DUP5 ADD SWAP2 POP POP SWAP3 SWAP2 POP POP JUMP JUMPDEST PUSH1 0x0 PUSH1 0x3 SWAP1 POP SWAP2 SWAP1 POP JUMP JUMPDEST PUSH1 0x0 DUP2 SWAP1 POP SWAP3 SWAP2 POP POP JUMP JUMPDEST PUSH1 0x0 DUP2 SWAP1 POP SWAP2 SWAP1 POP JUMP JUMPDEST PUSH1 0x0 PUSH2 0x7A3 DUP4 DUP4 PUSH2 0x713 JUMP JUMPDEST PUSH1 0x20 DUP4 ADD SWAP1 POP SWAP3 SWAP2 POP POP JUMP JUMPDEST PUSH1 0x0 PUSH1 0x20 DUP3 ADD SWAP1 POP SWAP2 SWAP1 POP JUMP JUMPDEST PUSH2 0x7C5 DUP2 PUSH2 0x777 JUMP JUMPDEST PUSH2 0x7CF DUP2 DUP5 PUSH2 0x782 JUMP JUMPDEST SWAP3 POP PUSH2 0x7DA DUP3 PUSH2 0x78D JUMP JUMPDEST DUP1 PUSH1 0x0 JUMPDEST DUP4 DUP2 LT ISZERO PUSH2 0x80B JUMPI DUP2 MLOAD PUSH2 0x7F2 DUP8 DUP3 PUSH2 0x797 JUMP JUMPDEST SWAP7 POP PUSH2 0x7FD DUP4 PUSH2 0x7AF JUMP JUMPDEST SWAP3 POP POP PUSH1 0x1 DUP2 ADD SWAP1 POP PUSH2 0x7DE JUMP JUMPDEST POP POP POP POP POP POP JUMP JUMPDEST PUSH1 0x0 PUSH1 0xC0 DUP4 ADD PUSH1 0x0 DUP4 ADD MLOAD PUSH2 0x82B PUSH1 0x0 DUP7 ADD DUP3 PUSH2 0x704 JUMP JUMPDEST POP PUSH1 0x20 DUP4 ADD MLOAD PUSH2 0x83E PUSH1 0x20 DUP7 ADD DUP3 PUSH2 0x713 JUMP JUMPDEST POP PUSH1 0x40 DUP4 ADD MLOAD DUP5 DUP3 SUB PUSH1 0x40 DUP7 ADD MSTORE PUSH2 0x856 DUP3 DUP3 PUSH2 0x73E JUMP JUMPDEST SWAP2 POP POP PUSH1 0x60 DUP4 ADD MLOAD PUSH2 0x86B PUSH1 0x60 DUP7 ADD DUP3 PUSH2 0x7BC JUMP JUMPDEST POP DUP1 SWAP2 POP POP SWAP3 SWAP2 POP POP JUMP JUMPDEST PUSH1 0x0 PUSH2 0x882 DUP4 DUP4 PUSH2 0x813 JUMP JUMPDEST SWAP1 POP SWAP3 SWAP2 POP POP JUMP JUMPDEST PUSH1 0x0 PUSH1 0x20 DUP3 ADD SWAP1 POP SWAP2 SWAP1 POP JUMP JUMPDEST PUSH1 0x0 PUSH2 0x8A2 DUP3 PUSH2 0x6D8 JUMP JUMPDEST PUSH2 0x8AC DUP2 DUP6 PUSH2 0x6E3 JUMP JUMPDEST SWAP4 POP DUP4 PUSH1 0x20 DUP3 MUL DUP6 ADD PUSH2 0x8BE DUP6 PUSH2 0x6F4 JUMP JUMPDEST DUP1 PUSH1 0x0 JUMPDEST DUP6 DUP2 LT ISZERO PUSH2 0x8FA JUMPI DUP5 DUP5 SUB DUP10 MSTORE DUP2 MLOAD PUSH2 0x8DB DUP6 DUP3 PUSH2 0x876 JUMP JUMPDEST SWAP5 POP PUSH2 0x8E6 DUP4 PUSH2 0x88A JUMP JUMPDEST SWAP3 POP PUSH1 0x20 DUP11 ADD SWAP10 POP POP PUSH1 0x1 DUP2 ADD SWAP1 POP PUSH2 0x8C2 JUMP JUMPDEST POP DUP3 SWAP8 POP DUP8 SWAP6 POP POP POP POP POP POP SWAP3 SWAP2 POP POP JUMP JUMPDEST PUSH1 0x0 PUSH1 0x20 DUP3 ADD SWAP1 POP DUP2 DUP2 SUB PUSH1 0x0 DUP4 ADD MSTORE PUSH2 0x926 DUP2 DUP5 PUSH2 0x897 JUMP JUMPDEST SWAP1 POP SWAP3 SWAP2 POP POP JUMP JUMPDEST PUSH1 0x0 DUP2 MLOAD SWAP1 POP PUSH2 0x93D DUP2 PUSH2 0x1F3 JUMP JUMPDEST SWAP3 SWAP2 POP POP JUMP JUMPDEST PUSH1 0x0 DUP2 MLOAD SWAP1 POP PUSH2 0x952 DUP2 PUSH2 0x229 JUMP JUMPDEST SWAP3 SWAP2 POP POP JUMP JUMPDEST PUSH1 0x0 PUSH2 0x96B PUSH2 0x966 DUP5 PUSH2 0x25A JUMP JUMPDEST PUSH2 0x16B JUMP JUMPDEST SWAP1 POP DUP3 DUP2 MSTORE PUSH1 0x20 DUP2 ADD DUP5 DUP5 DUP5 ADD GT ISZERO PUSH2 0x987 JUMPI PUSH2 0x986 PUSH2 0x255 JUMP JUMPDEST JUMPDEST PUSH2 0x992 DUP5 DUP3 DUP6 PUSH2 0x569 JUMP JUMPDEST POP SWAP4 SWAP3 POP POP POP JUMP JUMPDEST PUSH1 0x0 DUP3 PUSH1 0x1F DUP4 ADD SLT PUSH2 0x9AF JUMPI PUSH2 0x9AE PUSH2 0xF5 JUMP JUMPDEST JUMPDEST DUP2 MLOAD PUSH2 0x9BF DUP5 DUP3 PUSH1 0x20 DUP7 ADD PUSH2 0x958 JUMP JUMPDEST SWAP2 POP POP SWAP3 SWAP2 POP POP JUMP JUMPDEST PUSH1 0x0 PUSH2 0x9DB PUSH2 0x9D6 DUP5 PUSH2 0x30A JUMP JUMPDEST PUSH2 0x16B JUMP JUMPDEST SWAP1 POP DUP1 PUSH1 0x20 DUP5 MUL DUP4 ADD DUP6 DUP2 GT ISZERO PUSH2 0x9F5 JUMPI PUSH2 0x9F4 PUSH2 0x1B2 JUMP JUMPDEST JUMPDEST DUP4 JUMPDEST DUP2 DUP2 LT ISZERO PUSH2 0xA1E JUMPI DUP1 PUSH2 0xA0A DUP9 DUP3 PUSH2 0x943 JUMP JUMPDEST DUP5 MSTORE PUSH1 0x20 DUP5 ADD SWAP4 POP POP PUSH1 0x20 DUP2 ADD SWAP1 POP PUSH2 0x9F7 JUMP JUMPDEST POP POP POP SWAP4 SWAP3 POP POP POP JUMP JUMPDEST PUSH1 0x0 DUP3 PUSH1 0x1F DUP4 ADD SLT PUSH2 0xA3D JUMPI PUSH2 0xA3C PUSH2 0xF5 JUMP JUMPDEST JUMPDEST PUSH1 0x3 PUSH2 0xA4A DUP5 DUP3 DUP6 PUSH2 0x9C8 JUMP JUMPDEST SWAP2 POP POP SWAP3 SWAP2 POP POP JUMP JUMPDEST PUSH1 0x0 PUSH1 0xC0 DUP3 DUP5 SUB SLT ISZERO PUSH2 0xA69 JUMPI PUSH2 0xA68 PUSH2 0x1B7 JUMP JUMPDEST JUMPDEST PUSH2 0xA73 PUSH1 0x80 PUSH2 0x16B JUMP JUMPDEST SWAP1 POP PUSH1 0x0 PUSH2 0xA83 DUP5 DUP3 DUP6 ADD PUSH2 0x92E JUMP JUMPDEST PUSH1 0x0 DUP4 ADD MSTORE POP PUSH1 0x20 PUSH2 0xA97 DUP5 DUP3 DUP6 ADD PUSH2 0x943 JUMP JUMPDEST PUSH1 0x20 DUP4 ADD MSTORE POP PUSH1 0x40 DUP3 ADD MLOAD PUSH8 0xFFFFFFFFFFFFFFFF DUP2 GT ISZERO PUSH2 0xABB JUMPI PUSH2 0xABA PUSH2 0x1BC JUMP JUMPDEST JUMPDEST PUSH2 0xAC7 DUP5 DUP3 DUP6 ADD PUSH2 0x99A JUMP JUMPDEST PUSH1 0x40 DUP4 ADD MSTORE POP PUSH1 0x60 PUSH2 0xADB DUP5 DUP3 DUP6 ADD PUSH2 0xA28 JUMP JUMPDEST PUSH1 0x60 DUP4 ADD MSTORE POP SWAP3 SWAP2 POP POP JUMP JUMPDEST PUSH1 0x0 PUSH2 0xAFA PUSH2 0xAF5 DUP5 PUSH2 0x186 JUMP JUMPDEST PUSH2 0x16B JUMP JUMPDEST SWAP1 POP DUP1 DUP4 DUP3 MSTORE PUSH1 0x20 DUP3 ADD SWAP1 POP PUSH1 0x20 DUP5 MUL DUP4 ADD DUP6 DUP2 GT ISZERO PUSH2 0xB1D JUMPI PUSH2 0xB1C PUSH2 0x1B2 JUMP JUMPDEST JUMPDEST DUP4 JUMPDEST DUP2 DUP2 LT ISZERO PUSH2 0xB64 JUMPI DUP1 MLOAD PUSH8 0xFFFFFFFFFFFFFFFF DUP2 GT ISZERO PUSH2 0xB42 JUMPI PUSH2 0xB41 PUSH2 0xF5 JUMP JUMPDEST JUMPDEST DUP1 DUP7 ADD PUSH2 0xB4F DUP10 DUP3 PUSH2 0xA53 JUMP JUMPDEST DUP6 MSTORE PUSH1 0x20 DUP6 ADD SWAP5 POP POP POP PUSH1 0x20 DUP2 ADD SWAP1 POP PUSH2 0xB1F JUMP JUMPDEST POP POP POP SWAP4 SWAP3 POP POP POP JUMP JUMPDEST PUSH1 0x0 DUP3 PUSH1 0x1F DUP4 ADD SLT PUSH2 0xB83 JUMPI PUSH2 0xB82 PUSH2 0xF5 JUMP JUMPDEST JUMPDEST DUP2 MLOAD PUSH2 0xB93 DUP5 DUP3 PUSH1 0x20 DUP7 ADD PUSH2 0xAE7 JUMP JUMPDEST SWAP2 POP POP SWAP3 SWAP2 POP POP JUMP JUMPDEST PUSH1 0x0 PUSH1 0x20 DUP3 DUP5 SUB SLT ISZERO PUSH2 0xBB2 JUMPI PUSH2 0xBB1 PUSH2 0xEB JUMP JUMPDEST JUMPDEST PUSH1 0x0 DUP3 ADD MLOAD PUSH8 0xFFFFFFFFFFFFFFFF DUP2 GT ISZERO PUSH2 0xBD0 JUMPI PUSH2 0xBCF PUSH2 0xF0 JUMP JUMPDEST JUMPDEST PUSH2 0xBDC DUP5 DUP3 DUP6 ADD PUSH2 0xB6E JUMP JUMPDEST SWAP2 POP POP SWAP3 SWAP2 POP POP JUMP INVALID LOG2 PUSH5 0x6970667358 0x22 SLT KECCAK256 0xBF SIGNEXTEND SWAP11 0x2C 0xC6 0xA8 LOG0 0xD9 GT 0xAA SWAP1 0xE9 0x27 0x1F SHR 0xAE DIV TIMESTAMP 0x26 0xF KECCAK256 SLOAD 0x2F BALANCE 0xEA DUP2 PUSH28 0x23D5070BD764736F6C63430008120033000000000000000000000000 "
				},
				"gasEstimates": {
					"creation": {
						"codeDepositCost": "619800",
						"executionCost": "651",
						"totalCost": "620451"
					},
					"external": {
						"decode(bytes)": "infinite",
						"serializeVoterDataArray((address,uint256,string,uint256[3])[])": "infinite"
					}
				},
				"methodIdentifiers": {
					"decode(bytes)": "e5c5e9a3",
					"serializeVoterDataArray((address,uint256,string,uint256[3])[])": "2e830044"
				}
			},
			"storageLayout": {
				"storage": [],
				"types": null
			},
			"userdoc": {
				"kind": "user",
				"methods": {},
				"version": 1
			}
		}
	}
}