{
	"data": {
		"bytecode": {
			"linkReferences": {},
			"object": "608060405234801561001057600080fd5b50610250806100206000396000f3fe608060405234801561001057600080fd5b506004361061002b5760003560e01c8063cb37050b14610030575b600080fd5b61004a600480360381019061004591906100f3565b610060565b604051610057919061012f565b60405180910390f35b600060128210610075576203390c90506100b3565b600e6040517f0e39084a0000000000000000000000000000000000000000000000000000000081526004016100aa91906101ec565b60405180910390fd5b919050565b600080fd5b6000819050919050565b6100d0816100bd565b81146100db57600080fd5b50565b6000813590506100ed816100c7565b92915050565b600060208284031215610109576101086100b8565b5b6000610117848285016100de565b91505092915050565b610129816100bd565b82525050565b60006020820190506101446000830184610120565b92915050565b600082825260208201905092915050565b7f74686520706572736f6e206973206d696e6f7200000000000000000000000000600082015250565b600061019160138361014a565b915061019c8261015b565b602082019050919050565b6000819050919050565b6000819050919050565b60006101d66101d16101cc846101a7565b6101b1565b6100bd565b9050919050565b6101e6816101bb565b82525050565b6000604082019050818103600083015261020581610184565b905061021460208301846101dd565b9291505056fea2646970667358221220a3e77d131df6efed8ea50abd39e48912d91e3e8a2014e339f7e2de5ec1a31cc864736f6c63430008120033",
			"opcodes": "PUSH1 0x80 PUSH1 0x40 MSTORE CALLVALUE DUP1 ISZERO PUSH2 0x10 JUMPI PUSH1 0x0 DUP1 REVERT JUMPDEST POP PUSH2 0x250 DUP1 PUSH2 0x20 PUSH1 0x0 CODECOPY PUSH1 0x0 RETURN INVALID PUSH1 0x80 PUSH1 0x40 MSTORE CALLVALUE DUP1 ISZERO PUSH2 0x10 JUMPI PUSH1 0x0 DUP1 REVERT JUMPDEST POP PUSH1 0x4 CALLDATASIZE LT PUSH2 0x2B JUMPI PUSH1 0x0 CALLDATALOAD PUSH1 0xE0 SHR DUP1 PUSH4 0xCB37050B EQ PUSH2 0x30 JUMPI JUMPDEST PUSH1 0x0 DUP1 REVERT JUMPDEST PUSH2 0x4A PUSH1 0x4 DUP1 CALLDATASIZE SUB DUP2 ADD SWAP1 PUSH2 0x45 SWAP2 SWAP1 PUSH2 0xF3 JUMP JUMPDEST PUSH2 0x60 JUMP JUMPDEST PUSH1 0x40 MLOAD PUSH2 0x57 SWAP2 SWAP1 PUSH2 0x12F JUMP JUMPDEST PUSH1 0x40 MLOAD DUP1 SWAP2 SUB SWAP1 RETURN JUMPDEST PUSH1 0x0 PUSH1 0x12 DUP3 LT PUSH2 0x75 JUMPI PUSH3 0x3390C SWAP1 POP PUSH2 0xB3 JUMP JUMPDEST PUSH1 0xE PUSH1 0x40 MLOAD PUSH32 0xE39084A00000000000000000000000000000000000000000000000000000000 DUP2 MSTORE PUSH1 0x4 ADD PUSH2 0xAA SWAP2 SWAP1 PUSH2 0x1EC JUMP JUMPDEST PUSH1 0x40 MLOAD DUP1 SWAP2 SUB SWAP1 REVERT JUMPDEST SWAP2 SWAP1 POP JUMP JUMPDEST PUSH1 0x0 DUP1 REVERT JUMPDEST PUSH1 0x0 DUP2 SWAP1 POP SWAP2 SWAP1 POP JUMP JUMPDEST PUSH2 0xD0 DUP2 PUSH2 0xBD JUMP JUMPDEST DUP2 EQ PUSH2 0xDB JUMPI PUSH1 0x0 DUP1 REVERT JUMPDEST POP JUMP JUMPDEST PUSH1 0x0 DUP2 CALLDATALOAD SWAP1 POP PUSH2 0xED DUP2 PUSH2 0xC7 JUMP JUMPDEST SWAP3 SWAP2 POP POP JUMP JUMPDEST PUSH1 0x0 PUSH1 0x20 DUP3 DUP5 SUB SLT ISZERO PUSH2 0x109 JUMPI PUSH2 0x108 PUSH2 0xB8 JUMP JUMPDEST JUMPDEST PUSH1 0x0 PUSH2 0x117 DUP5 DUP3 DUP6 ADD PUSH2 0xDE JUMP JUMPDEST SWAP2 POP POP SWAP3 SWAP2 POP POP JUMP JUMPDEST PUSH2 0x129 DUP2 PUSH2 0xBD JUMP JUMPDEST DUP3 MSTORE POP POP JUMP JUMPDEST PUSH1 0x0 PUSH1 0x20 DUP3 ADD SWAP1 POP PUSH2 0x144 PUSH1 0x0 DUP4 ADD DUP5 PUSH2 0x120 JUMP JUMPDEST SWAP3 SWAP2 POP POP JUMP JUMPDEST PUSH1 0x0 DUP3 DUP3 MSTORE PUSH1 0x20 DUP3 ADD SWAP1 POP SWAP3 SWAP2 POP POP JUMP JUMPDEST PUSH32 0x74686520706572736F6E206973206D696E6F7200000000000000000000000000 PUSH1 0x0 DUP3 ADD MSTORE POP JUMP JUMPDEST PUSH1 0x0 PUSH2 0x191 PUSH1 0x13 DUP4 PUSH2 0x14A JUMP JUMPDEST SWAP2 POP PUSH2 0x19C DUP3 PUSH2 0x15B JUMP JUMPDEST PUSH1 0x20 DUP3 ADD SWAP1 POP SWAP2 SWAP1 POP JUMP JUMPDEST PUSH1 0x0 DUP2 SWAP1 POP SWAP2 SWAP1 POP JUMP JUMPDEST PUSH1 0x0 DUP2 SWAP1 POP SWAP2 SWAP1 POP JUMP JUMPDEST PUSH1 0x0 PUSH2 0x1D6 PUSH2 0x1D1 PUSH2 0x1CC DUP5 PUSH2 0x1A7 JUMP JUMPDEST PUSH2 0x1B1 JUMP JUMPDEST PUSH2 0xBD JUMP JUMPDEST SWAP1 POP SWAP2 SWAP1 POP JUMP JUMPDEST PUSH2 0x1E6 DUP2 PUSH2 0x1BB JUMP JUMPDEST DUP3 MSTORE POP POP JUMP JUMPDEST PUSH1 0x0 PUSH1 0x40 DUP3 ADD SWAP1 POP DUP2 DUP2 SUB PUSH1 0x0 DUP4 ADD MSTORE PUSH2 0x205 DUP2 PUSH2 0x184 JUMP JUMPDEST SWAP1 POP PUSH2 0x214 PUSH1 0x20 DUP4 ADD DUP5 PUSH2 0x1DD JUMP JUMPDEST SWAP3 SWAP2 POP POP JUMP INVALID LOG2 PUSH5 0x6970667358 0x22 SLT KECCAK256 LOG3 0xE7 PUSH30 0x131DF6EFED8EA50ABD39E48912D91E3E8A2014E339F7E2DE5EC1A31CC864 PUSH20 0x6F6C634300081200330000000000000000000000 "
		},
		"gasEstimates": {
			"creation": {
				"codeDepositCost": "118400",
				"executionCost": "165",
				"totalCost": "118565"
			},
			"external": {
				"DriverID(uint256)": "infinite"
			}
		},
		"methodIdentifiers": {
			"DriverID(uint256)": "cb37050b"
		}
	},
	"abi": [
		{
			"inputs": [
				{
					"internalType": "string",
					"name": "message",
					"type": "string"
				},
				{
					"internalType": "uint256",
					"name": "requiredage",
					"type": "uint256"
				}
			],
			"name": "tooyoung",
			"type": "error"
		},
		{
			"inputs": [
				{
					"internalType": "uint256",
					"name": "age",
					"type": "uint256"
				}
			],
			"name": "DriverID",
			"outputs": [
				{
					"internalType": "uint256",
					"name": "x",
					"type": "uint256"
				}
			],
			"stateMutability": "pure",
			"type": "function"
		}
	]
}