{
	"lab 21-08-2023/Abiencode/Abiencode.sol": {
		"abiencode": {
			"abi": [
				{
					"inputs": [
						{
							"internalType": "address",
							"name": "_address",
							"type": "address"
						},
						{
							"internalType": "uint256",
							"name": "data",
							"type": "uint256"
						}
					],
					"name": "encode",
					"outputs": [
						{
							"internalType": "bytes",
							"name": "",
							"type": "bytes"
						}
					],
					"stateMutability": "pure",
					"type": "function"
				}
			],
			"devdoc": {
				"kind": "dev",
				"methods": {},
				"version": 1
			},
			"evm": {
				"assembly": "    /* \"lab 21-08-2023/Abiencode/Abiencode.sol\":60:235  contract  abiencode {... */\n  mstore(0x40, 0x80)\n  callvalue\n  dup1\n  iszero\n  tag_1\n  jumpi\n  0x00\n  dup1\n  revert\ntag_1:\n  pop\n  dataSize(sub_0)\n  dup1\n  dataOffset(sub_0)\n  0x00\n  codecopy\n  0x00\n  return\nstop\n\nsub_0: assembly {\n        /* \"lab 21-08-2023/Abiencode/Abiencode.sol\":60:235  contract  abiencode {... */\n      mstore(0x40, 0x80)\n      callvalue\n      dup1\n      iszero\n      tag_1\n      jumpi\n      0x00\n      dup1\n      revert\n    tag_1:\n      pop\n      jumpi(tag_2, lt(calldatasize, 0x04))\n      shr(0xe0, calldataload(0x00))\n      dup1\n      0xa4357f49\n      eq\n      tag_3\n      jumpi\n    tag_2:\n      0x00\n      dup1\n      revert\n        /* \"lab 21-08-2023/Abiencode/Abiencode.sol\":93:228  function  encode(address _address , uint data) public  pure returns(bytes memory) {... */\n    tag_3:\n      tag_4\n      0x04\n      dup1\n      calldatasize\n      sub\n      dup2\n      add\n      swap1\n      tag_5\n      swap2\n      swap1\n      tag_6\n      jump\t// in\n    tag_5:\n      tag_7\n      jump\t// in\n    tag_4:\n      mload(0x40)\n      tag_8\n      swap2\n      swap1\n      tag_9\n      jump\t// in\n    tag_8:\n      mload(0x40)\n      dup1\n      swap2\n      sub\n      swap1\n      return\n    tag_7:\n        /* \"lab 21-08-2023/Abiencode/Abiencode.sol\":161:173  bytes memory */\n      0x60\n        /* \"lab 21-08-2023/Abiencode/Abiencode.sol\":207:215  _address */\n      dup3\n        /* \"lab 21-08-2023/Abiencode/Abiencode.sol\":218:222  data */\n      dup3\n        /* \"lab 21-08-2023/Abiencode/Abiencode.sol\":196:223  abi.encode(_address , data) */\n      add(0x20, mload(0x40))\n      tag_11\n      swap3\n      swap2\n      swap1\n      tag_12\n      jump\t// in\n    tag_11:\n      mload(0x40)\n      0x20\n      dup2\n      dup4\n      sub\n      sub\n      dup2\n      mstore\n      swap1\n      0x40\n      mstore\n        /* \"lab 21-08-2023/Abiencode/Abiencode.sol\":188:224  return (abi.encode(_address , data)) */\n      swap1\n      pop\n        /* \"lab 21-08-2023/Abiencode/Abiencode.sol\":93:228  function  encode(address _address , uint data) public  pure returns(bytes memory) {... */\n      swap3\n      swap2\n      pop\n      pop\n      jump\t// out\n        /* \"#utility.yul\":88:205   */\n    tag_14:\n        /* \"#utility.yul\":197:198   */\n      0x00\n        /* \"#utility.yul\":194:195   */\n      dup1\n        /* \"#utility.yul\":187:199   */\n      revert\n        /* \"#utility.yul\":334:460   */\n    tag_16:\n        /* \"#utility.yul\":371:378   */\n      0x00\n        /* \"#utility.yul\":411:453   */\n      0xffffffffffffffffffffffffffffffffffffffff\n        /* \"#utility.yul\":404:409   */\n      dup3\n        /* \"#utility.yul\":400:454   */\n      and\n        /* \"#utility.yul\":389:454   */\n      swap1\n      pop\n        /* \"#utility.yul\":334:460   */\n      swap2\n      swap1\n      pop\n      jump\t// out\n        /* \"#utility.yul\":466:562   */\n    tag_17:\n        /* \"#utility.yul\":503:510   */\n      0x00\n        /* \"#utility.yul\":532:556   */\n      tag_36\n        /* \"#utility.yul\":550:555   */\n      dup3\n        /* \"#utility.yul\":532:556   */\n      tag_16\n      jump\t// in\n    tag_36:\n        /* \"#utility.yul\":521:556   */\n      swap1\n      pop\n        /* \"#utility.yul\":466:562   */\n      swap2\n      swap1\n      pop\n      jump\t// out\n        /* \"#utility.yul\":568:690   */\n    tag_18:\n        /* \"#utility.yul\":641:665   */\n      tag_38\n        /* \"#utility.yul\":659:664   */\n      dup2\n        /* \"#utility.yul\":641:665   */\n      tag_17\n      jump\t// in\n    tag_38:\n        /* \"#utility.yul\":634:639   */\n      dup2\n        /* \"#utility.yul\":631:666   */\n      eq\n        /* \"#utility.yul\":621:684   */\n      tag_39\n      jumpi\n        /* \"#utility.yul\":680:681   */\n      0x00\n        /* \"#utility.yul\":677:678   */\n      dup1\n        /* \"#utility.yul\":670:682   */\n      revert\n        /* \"#utility.yul\":621:684   */\n    tag_39:\n        /* \"#utility.yul\":568:690   */\n      pop\n      jump\t// out\n        /* \"#utility.yul\":696:835   */\n    tag_19:\n        /* \"#utility.yul\":742:747   */\n      0x00\n        /* \"#utility.yul\":780:786   */\n      dup2\n        /* \"#utility.yul\":767:787   */\n      calldataload\n        /* \"#utility.yul\":758:787   */\n      swap1\n      pop\n        /* \"#utility.yul\":796:829   */\n      tag_41\n        /* \"#utility.yul\":823:828   */\n      dup2\n        /* \"#utility.yul\":796:829   */\n      tag_18\n      jump\t// in\n    tag_41:\n        /* \"#utility.yul\":696:835   */\n      swap3\n      swap2\n      pop\n      pop\n      jump\t// out\n        /* \"#utility.yul\":841:918   */\n    tag_20:\n        /* \"#utility.yul\":878:885   */\n      0x00\n        /* \"#utility.yul\":907:912   */\n      dup2\n        /* \"#utility.yul\":896:912   */\n      swap1\n      pop\n        /* \"#utility.yul\":841:918   */\n      swap2\n      swap1\n      pop\n      jump\t// out\n        /* \"#utility.yul\":924:1046   */\n    tag_21:\n        /* \"#utility.yul\":997:1021   */\n      tag_44\n        /* \"#utility.yul\":1015:1020   */\n      dup2\n        /* \"#utility.yul\":997:1021   */\n      tag_20\n      jump\t// in\n    tag_44:\n        /* \"#utility.yul\":990:995   */\n      dup2\n        /* \"#utility.yul\":987:1022   */\n      eq\n        /* \"#utility.yul\":977:1040   */\n      tag_45\n      jumpi\n        /* \"#utility.yul\":1036:1037   */\n      0x00\n        /* \"#utility.yul\":1033:1034   */\n      dup1\n        /* \"#utility.yul\":1026:1038   */\n      revert\n        /* \"#utility.yul\":977:1040   */\n    tag_45:\n        /* \"#utility.yul\":924:1046   */\n      pop\n      jump\t// out\n        /* \"#utility.yul\":1052:1191   */\n    tag_22:\n        /* \"#utility.yul\":1098:1103   */\n      0x00\n        /* \"#utility.yul\":1136:1142   */\n      dup2\n        /* \"#utility.yul\":1123:1143   */\n      calldataload\n        /* \"#utility.yul\":1114:1143   */\n      swap1\n      pop\n        /* \"#utility.yul\":1152:1185   */\n      tag_47\n        /* \"#utility.yul\":1179:1184   */\n      dup2\n        /* \"#utility.yul\":1152:1185   */\n      tag_21\n      jump\t// in\n    tag_47:\n        /* \"#utility.yul\":1052:1191   */\n      swap3\n      swap2\n      pop\n      pop\n      jump\t// out\n        /* \"#utility.yul\":1197:1671   */\n    tag_6:\n        /* \"#utility.yul\":1265:1271   */\n      0x00\n        /* \"#utility.yul\":1273:1279   */\n      dup1\n        /* \"#utility.yul\":1322:1324   */\n      0x40\n        /* \"#utility.yul\":1310:1319   */\n      dup4\n        /* \"#utility.yul\":1301:1308   */\n      dup6\n        /* \"#utility.yul\":1297:1320   */\n      sub\n        /* \"#utility.yul\":1293:1325   */\n      slt\n        /* \"#utility.yul\":1290:1409   */\n      iszero\n      tag_49\n      jumpi\n        /* \"#utility.yul\":1328:1407   */\n      tag_50\n      tag_14\n      jump\t// in\n    tag_50:\n        /* \"#utility.yul\":1290:1409   */\n    tag_49:\n        /* \"#utility.yul\":1448:1449   */\n      0x00\n        /* \"#utility.yul\":1473:1526   */\n      tag_51\n        /* \"#utility.yul\":1518:1525   */\n      dup6\n        /* \"#utility.yul\":1509:1515   */\n      dup3\n        /* \"#utility.yul\":1498:1507   */\n      dup7\n        /* \"#utility.yul\":1494:1516   */\n      add\n        /* \"#utility.yul\":1473:1526   */\n      tag_19\n      jump\t// in\n    tag_51:\n        /* \"#utility.yul\":1463:1526   */\n      swap3\n      pop\n        /* \"#utility.yul\":1419:1536   */\n      pop\n        /* \"#utility.yul\":1575:1577   */\n      0x20\n        /* \"#utility.yul\":1601:1654   */\n      tag_52\n        /* \"#utility.yul\":1646:1653   */\n      dup6\n        /* \"#utility.yul\":1637:1643   */\n      dup3\n        /* \"#utility.yul\":1626:1635   */\n      dup7\n        /* \"#utility.yul\":1622:1644   */\n      add\n        /* \"#utility.yul\":1601:1654   */\n      tag_22\n      jump\t// in\n    tag_52:\n        /* \"#utility.yul\":1591:1654   */\n      swap2\n      pop\n        /* \"#utility.yul\":1546:1664   */\n      pop\n        /* \"#utility.yul\":1197:1671   */\n      swap3\n      pop\n      swap3\n      swap1\n      pop\n      jump\t// out\n        /* \"#utility.yul\":1677:1775   */\n    tag_23:\n        /* \"#utility.yul\":1728:1734   */\n      0x00\n        /* \"#utility.yul\":1762:1767   */\n      dup2\n        /* \"#utility.yul\":1756:1768   */\n      mload\n        /* \"#utility.yul\":1746:1768   */\n      swap1\n      pop\n        /* \"#utility.yul\":1677:1775   */\n      swap2\n      swap1\n      pop\n      jump\t// out\n        /* \"#utility.yul\":1781:1949   */\n    tag_24:\n        /* \"#utility.yul\":1864:1875   */\n      0x00\n        /* \"#utility.yul\":1898:1904   */\n      dup3\n        /* \"#utility.yul\":1893:1896   */\n      dup3\n        /* \"#utility.yul\":1886:1905   */\n      mstore\n        /* \"#utility.yul\":1938:1942   */\n      0x20\n        /* \"#utility.yul\":1933:1936   */\n      dup3\n        /* \"#utility.yul\":1929:1943   */\n      add\n        /* \"#utility.yul\":1914:1943   */\n      swap1\n      pop\n        /* \"#utility.yul\":1781:1949   */\n      swap3\n      swap2\n      pop\n      pop\n      jump\t// out\n        /* \"#utility.yul\":1955:2201   */\n    tag_25:\n        /* \"#utility.yul\":2036:2037   */\n      0x00\n        /* \"#utility.yul\":2046:2159   */\n    tag_56:\n        /* \"#utility.yul\":2060:2066   */\n      dup4\n        /* \"#utility.yul\":2057:2058   */\n      dup2\n        /* \"#utility.yul\":2054:2067   */\n      lt\n        /* \"#utility.yul\":2046:2159   */\n      iszero\n      tag_58\n      jumpi\n        /* \"#utility.yul\":2145:2146   */\n      dup1\n        /* \"#utility.yul\":2140:2143   */\n      dup3\n        /* \"#utility.yul\":2136:2147   */\n      add\n        /* \"#utility.yul\":2130:2148   */\n      mload\n        /* \"#utility.yul\":2126:2127   */\n      dup2\n        /* \"#utility.yul\":2121:2124   */\n      dup5\n        /* \"#utility.yul\":2117:2128   */\n      add\n        /* \"#utility.yul\":2110:2149   */\n      mstore\n        /* \"#utility.yul\":2082:2084   */\n      0x20\n        /* \"#utility.yul\":2079:2080   */\n      dup2\n        /* \"#utility.yul\":2075:2085   */\n      add\n        /* \"#utility.yul\":2070:2085   */\n      swap1\n      pop\n        /* \"#utility.yul\":2046:2159   */\n      jump(tag_56)\n    tag_58:\n        /* \"#utility.yul\":2193:2194   */\n      0x00\n        /* \"#utility.yul\":2184:2190   */\n      dup5\n        /* \"#utility.yul\":2179:2182   */\n      dup5\n        /* \"#utility.yul\":2175:2191   */\n      add\n        /* \"#utility.yul\":2168:2195   */\n      mstore\n        /* \"#utility.yul\":2017:2201   */\n      pop\n        /* \"#utility.yul\":1955:2201   */\n      pop\n      pop\n      pop\n      jump\t// out\n        /* \"#utility.yul\":2207:2309   */\n    tag_26:\n        /* \"#utility.yul\":2248:2254   */\n      0x00\n        /* \"#utility.yul\":2299:2301   */\n      0x1f\n        /* \"#utility.yul\":2295:2302   */\n      not\n        /* \"#utility.yul\":2290:2292   */\n      0x1f\n        /* \"#utility.yul\":2283:2288   */\n      dup4\n        /* \"#utility.yul\":2279:2293   */\n      add\n        /* \"#utility.yul\":2275:2303   */\n      and\n        /* \"#utility.yul\":2265:2303   */\n      swap1\n      pop\n        /* \"#utility.yul\":2207:2309   */\n      swap2\n      swap1\n      pop\n      jump\t// out\n        /* \"#utility.yul\":2315:2688   */\n    tag_27:\n        /* \"#utility.yul\":2401:2404   */\n      0x00\n        /* \"#utility.yul\":2429:2467   */\n      tag_61\n        /* \"#utility.yul\":2461:2466   */\n      dup3\n        /* \"#utility.yul\":2429:2467   */\n      tag_23\n      jump\t// in\n    tag_61:\n        /* \"#utility.yul\":2483:2553   */\n      tag_62\n        /* \"#utility.yul\":2546:2552   */\n      dup2\n        /* \"#utility.yul\":2541:2544   */\n      dup6\n        /* \"#utility.yul\":2483:2553   */\n      tag_24\n      jump\t// in\n    tag_62:\n        /* \"#utility.yul\":2476:2553   */\n      swap4\n      pop\n        /* \"#utility.yul\":2562:2627   */\n      tag_63\n        /* \"#utility.yul\":2620:2626   */\n      dup2\n        /* \"#utility.yul\":2615:2618   */\n      dup6\n        /* \"#utility.yul\":2608:2612   */\n      0x20\n        /* \"#utility.yul\":2601:2606   */\n      dup7\n        /* \"#utility.yul\":2597:2613   */\n      add\n        /* \"#utility.yul\":2562:2627   */\n      tag_25\n      jump\t// in\n    tag_63:\n        /* \"#utility.yul\":2652:2681   */\n      tag_64\n        /* \"#utility.yul\":2674:2680   */\n      dup2\n        /* \"#utility.yul\":2652:2681   */\n      tag_26\n      jump\t// in\n    tag_64:\n        /* \"#utility.yul\":2647:2650   */\n      dup5\n        /* \"#utility.yul\":2643:2682   */\n      add\n        /* \"#utility.yul\":2636:2682   */\n      swap2\n      pop\n        /* \"#utility.yul\":2405:2688   */\n      pop\n        /* \"#utility.yul\":2315:2688   */\n      swap3\n      swap2\n      pop\n      pop\n      jump\t// out\n        /* \"#utility.yul\":2694:3003   */\n    tag_9:\n        /* \"#utility.yul\":2805:2809   */\n      0x00\n        /* \"#utility.yul\":2843:2845   */\n      0x20\n        /* \"#utility.yul\":2832:2841   */\n      dup3\n        /* \"#utility.yul\":2828:2846   */\n      add\n        /* \"#utility.yul\":2820:2846   */\n      swap1\n      pop\n        /* \"#utility.yul\":2892:2901   */\n      dup2\n        /* \"#utility.yul\":2886:2890   */\n      dup2\n        /* \"#utility.yul\":2882:2902   */\n      sub\n        /* \"#utility.yul\":2878:2879   */\n      0x00\n        /* \"#utility.yul\":2867:2876   */\n      dup4\n        /* \"#utility.yul\":2863:2880   */\n      add\n        /* \"#utility.yul\":2856:2903   */\n      mstore\n        /* \"#utility.yul\":2920:2996   */\n      tag_66\n        /* \"#utility.yul\":2991:2995   */\n      dup2\n        /* \"#utility.yul\":2982:2988   */\n      dup5\n        /* \"#utility.yul\":2920:2996   */\n      tag_27\n      jump\t// in\n    tag_66:\n        /* \"#utility.yul\":2912:2996   */\n      swap1\n      pop\n        /* \"#utility.yul\":2694:3003   */\n      swap3\n      swap2\n      pop\n      pop\n      jump\t// out\n        /* \"#utility.yul\":3009:3127   */\n    tag_28:\n        /* \"#utility.yul\":3096:3120   */\n      tag_68\n        /* \"#utility.yul\":3114:3119   */\n      dup2\n        /* \"#utility.yul\":3096:3120   */\n      tag_17\n      jump\t// in\n    tag_68:\n        /* \"#utility.yul\":3091:3094   */\n      dup3\n        /* \"#utility.yul\":3084:3121   */\n      mstore\n        /* \"#utility.yul\":3009:3127   */\n      pop\n      pop\n      jump\t// out\n        /* \"#utility.yul\":3133:3251   */\n    tag_29:\n        /* \"#utility.yul\":3220:3244   */\n      tag_70\n        /* \"#utility.yul\":3238:3243   */\n      dup2\n        /* \"#utility.yul\":3220:3244   */\n      tag_20\n      jump\t// in\n    tag_70:\n        /* \"#utility.yul\":3215:3218   */\n      dup3\n        /* \"#utility.yul\":3208:3245   */\n      mstore\n        /* \"#utility.yul\":3133:3251   */\n      pop\n      pop\n      jump\t// out\n        /* \"#utility.yul\":3257:3589   */\n    tag_12:\n        /* \"#utility.yul\":3378:3382   */\n      0x00\n        /* \"#utility.yul\":3416:3418   */\n      0x40\n        /* \"#utility.yul\":3405:3414   */\n      dup3\n        /* \"#utility.yul\":3401:3419   */\n      add\n        /* \"#utility.yul\":3393:3419   */\n      swap1\n      pop\n        /* \"#utility.yul\":3429:3500   */\n      tag_72\n        /* \"#utility.yul\":3497:3498   */\n      0x00\n        /* \"#utility.yul\":3486:3495   */\n      dup4\n        /* \"#utility.yul\":3482:3499   */\n      add\n        /* \"#utility.yul\":3473:3479   */\n      dup6\n        /* \"#utility.yul\":3429:3500   */\n      tag_28\n      jump\t// in\n    tag_72:\n        /* \"#utility.yul\":3510:3582   */\n      tag_73\n        /* \"#utility.yul\":3578:3580   */\n      0x20\n        /* \"#utility.yul\":3567:3576   */\n      dup4\n        /* \"#utility.yul\":3563:3581   */\n      add\n        /* \"#utility.yul\":3554:3560   */\n      dup5\n        /* \"#utility.yul\":3510:3582   */\n      tag_29\n      jump\t// in\n    tag_73:\n        /* \"#utility.yul\":3257:3589   */\n      swap4\n      swap3\n      pop\n      pop\n      pop\n      jump\t// out\n\n    auxdata: 0xa2646970667358221220c0b80eb223e4d09ccf85afed93541e10d900047353da27e051ca0458bd10740c64736f6c63430008120033\n}\n",
				"bytecode": {
					"linkReferences": {},
					"object": "608060405234801561001057600080fd5b50610294806100206000396000f3fe608060405234801561001057600080fd5b506004361061002b5760003560e01c8063a4357f4914610030575b600080fd5b61004a60048036038101906100459190610125565b610060565b60405161005791906101f5565b60405180910390f35b60608282604051602001610075929190610235565b604051602081830303815290604052905092915050565b600080fd5b600073ffffffffffffffffffffffffffffffffffffffff82169050919050565b60006100bc82610091565b9050919050565b6100cc816100b1565b81146100d757600080fd5b50565b6000813590506100e9816100c3565b92915050565b6000819050919050565b610102816100ef565b811461010d57600080fd5b50565b60008135905061011f816100f9565b92915050565b6000806040838503121561013c5761013b61008c565b5b600061014a858286016100da565b925050602061015b85828601610110565b9150509250929050565b600081519050919050565b600082825260208201905092915050565b60005b8381101561019f578082015181840152602081019050610184565b60008484015250505050565b6000601f19601f8301169050919050565b60006101c782610165565b6101d18185610170565b93506101e1818560208601610181565b6101ea816101ab565b840191505092915050565b6000602082019050818103600083015261020f81846101bc565b905092915050565b610220816100b1565b82525050565b61022f816100ef565b82525050565b600060408201905061024a6000830185610217565b6102576020830184610226565b939250505056fea2646970667358221220c0b80eb223e4d09ccf85afed93541e10d900047353da27e051ca0458bd10740c64736f6c63430008120033",
					"opcodes": "PUSH1 0x80 PUSH1 0x40 MSTORE CALLVALUE DUP1 ISZERO PUSH2 0x10 JUMPI PUSH1 0x0 DUP1 REVERT JUMPDEST POP PUSH2 0x294 DUP1 PUSH2 0x20 PUSH1 0x0 CODECOPY PUSH1 0x0 RETURN INVALID PUSH1 0x80 PUSH1 0x40 MSTORE CALLVALUE DUP1 ISZERO PUSH2 0x10 JUMPI PUSH1 0x0 DUP1 REVERT JUMPDEST POP PUSH1 0x4 CALLDATASIZE LT PUSH2 0x2B JUMPI PUSH1 0x0 CALLDATALOAD PUSH1 0xE0 SHR DUP1 PUSH4 0xA4357F49 EQ PUSH2 0x30 JUMPI JUMPDEST PUSH1 0x0 DUP1 REVERT JUMPDEST PUSH2 0x4A PUSH1 0x4 DUP1 CALLDATASIZE SUB DUP2 ADD SWAP1 PUSH2 0x45 SWAP2 SWAP1 PUSH2 0x125 JUMP JUMPDEST PUSH2 0x60 JUMP JUMPDEST PUSH1 0x40 MLOAD PUSH2 0x57 SWAP2 SWAP1 PUSH2 0x1F5 JUMP JUMPDEST PUSH1 0x40 MLOAD DUP1 SWAP2 SUB SWAP1 RETURN JUMPDEST PUSH1 0x60 DUP3 DUP3 PUSH1 0x40 MLOAD PUSH1 0x20 ADD PUSH2 0x75 SWAP3 SWAP2 SWAP1 PUSH2 0x235 JUMP JUMPDEST PUSH1 0x40 MLOAD PUSH1 0x20 DUP2 DUP4 SUB SUB DUP2 MSTORE SWAP1 PUSH1 0x40 MSTORE SWAP1 POP SWAP3 SWAP2 POP POP JUMP JUMPDEST PUSH1 0x0 DUP1 REVERT JUMPDEST PUSH1 0x0 PUSH20 0xFFFFFFFFFFFFFFFFFFFFFFFFFFFFFFFFFFFFFFFF DUP3 AND SWAP1 POP SWAP2 SWAP1 POP JUMP JUMPDEST PUSH1 0x0 PUSH2 0xBC DUP3 PUSH2 0x91 JUMP JUMPDEST SWAP1 POP SWAP2 SWAP1 POP JUMP JUMPDEST PUSH2 0xCC DUP2 PUSH2 0xB1 JUMP JUMPDEST DUP2 EQ PUSH2 0xD7 JUMPI PUSH1 0x0 DUP1 REVERT JUMPDEST POP JUMP JUMPDEST PUSH1 0x0 DUP2 CALLDATALOAD SWAP1 POP PUSH2 0xE9 DUP2 PUSH2 0xC3 JUMP JUMPDEST SWAP3 SWAP2 POP POP JUMP JUMPDEST PUSH1 0x0 DUP2 SWAP1 POP SWAP2 SWAP1 POP JUMP JUMPDEST PUSH2 0x102 DUP2 PUSH2 0xEF JUMP JUMPDEST DUP2 EQ PUSH2 0x10D JUMPI PUSH1 0x0 DUP1 REVERT JUMPDEST POP JUMP JUMPDEST PUSH1 0x0 DUP2 CALLDATALOAD SWAP1 POP PUSH2 0x11F DUP2 PUSH2 0xF9 JUMP JUMPDEST SWAP3 SWAP2 POP POP JUMP JUMPDEST PUSH1 0x0 DUP1 PUSH1 0x40 DUP4 DUP6 SUB SLT ISZERO PUSH2 0x13C JUMPI PUSH2 0x13B PUSH2 0x8C JUMP JUMPDEST JUMPDEST PUSH1 0x0 PUSH2 0x14A DUP6 DUP3 DUP7 ADD PUSH2 0xDA JUMP JUMPDEST SWAP3 POP POP PUSH1 0x20 PUSH2 0x15B DUP6 DUP3 DUP7 ADD PUSH2 0x110 JUMP JUMPDEST SWAP2 POP POP SWAP3 POP SWAP3 SWAP1 POP JUMP JUMPDEST PUSH1 0x0 DUP2 MLOAD SWAP1 POP SWAP2 SWAP1 POP JUMP JUMPDEST PUSH1 0x0 DUP3 DUP3 MSTORE PUSH1 0x20 DUP3 ADD SWAP1 POP SWAP3 SWAP2 POP POP JUMP JUMPDEST PUSH1 0x0 JUMPDEST DUP4 DUP2 LT ISZERO PUSH2 0x19F JUMPI DUP1 DUP3 ADD MLOAD DUP2 DUP5 ADD MSTORE PUSH1 0x20 DUP2 ADD SWAP1 POP PUSH2 0x184 JUMP JUMPDEST PUSH1 0x0 DUP5 DUP5 ADD MSTORE POP POP POP POP JUMP JUMPDEST PUSH1 0x0 PUSH1 0x1F NOT PUSH1 0x1F DUP4 ADD AND SWAP1 POP SWAP2 SWAP1 POP JUMP JUMPDEST PUSH1 0x0 PUSH2 0x1C7 DUP3 PUSH2 0x165 JUMP JUMPDEST PUSH2 0x1D1 DUP2 DUP6 PUSH2 0x170 JUMP JUMPDEST SWAP4 POP PUSH2 0x1E1 DUP2 DUP6 PUSH1 0x20 DUP7 ADD PUSH2 0x181 JUMP JUMPDEST PUSH2 0x1EA DUP2 PUSH2 0x1AB JUMP JUMPDEST DUP5 ADD SWAP2 POP POP SWAP3 SWAP2 POP POP JUMP JUMPDEST PUSH1 0x0 PUSH1 0x20 DUP3 ADD SWAP1 POP DUP2 DUP2 SUB PUSH1 0x0 DUP4 ADD MSTORE PUSH2 0x20F DUP2 DUP5 PUSH2 0x1BC JUMP JUMPDEST SWAP1 POP SWAP3 SWAP2 POP POP JUMP JUMPDEST PUSH2 0x220 DUP2 PUSH2 0xB1 JUMP JUMPDEST DUP3 MSTORE POP POP JUMP JUMPDEST PUSH2 0x22F DUP2 PUSH2 0xEF JUMP JUMPDEST DUP3 MSTORE POP POP JUMP JUMPDEST PUSH1 0x0 PUSH1 0x40 DUP3 ADD SWAP1 POP PUSH2 0x24A PUSH1 0x0 DUP4 ADD DUP6 PUSH2 0x217 JUMP JUMPDEST PUSH2 0x257 PUSH1 0x20 DUP4 ADD DUP5 PUSH2 0x226 JUMP JUMPDEST SWAP4 SWAP3 POP POP POP JUMP INVALID LOG2 PUSH5 0x6970667358 0x22 SLT KECCAK256 0xC0 0xB8 0xE 0xB2 0x23 0xE4 0xD0 SWAP13 0xCF DUP6 0xAF 0xED SWAP4 SLOAD 0x1E LT 0xD9 STOP DIV PUSH20 0x53DA27E051CA0458BD10740C64736F6C63430008 SLT STOP CALLER "
				},
				"gasEstimates": {
					"creation": {
						"codeDepositCost": "132000",
						"executionCost": "177",
						"totalCost": "132177"
					},
					"external": {
						"encode(address,uint256)": "infinite"
					}
				},
				"methodIdentifiers": {
					"encode(address,uint256)": "a4357f49"
				}
			},
			"storageLayout": {
				"storage": [],
				"types": null
			},
			"userdoc": {
				"kind": "user",
				"methods": {},
				"version": 1
			}
		}
	}
}