{
	"data": {
		"bytecode": {
			"linkReferences": {},
			"object": "60806040526001600c60006101000a81548160ff0219169083151502179055506000600d556000600e5560014262000038919062000268565b600f5560006010553480156200004d57600080fd5b50604051620011a8380380620011a8833981810160405281019062000073919062000467565b336000806101000a81548173ffffffffffffffffffffffffffffffffffffffff021916908373ffffffffffffffffffffffffffffffffffffffff16021790555032600160006101000a81548173ffffffffffffffffffffffffffffffffffffffff021916908373ffffffffffffffffffffffffffffffffffffffff160217905550816005819055508360028190555082600681905550826006819055506200012e600554600254620001e160201b620005841790919060201c565b600381905550620001526006546003546200021260201b620005b01790919060201c565b60088190555080600b908162000169919062000739565b504260098190555042600160009054906101000a900473ffffffffffffffffffffffffffffffffffffffff1673ffffffffffffffffffffffffffffffffffffffff167ff9f75c99c0e3522cd19ffc66fd6c94989a3f0821d37d5c5bb176aab904c6335d60405160405180910390a350505050620008b6565b6000808284620001f2919062000268565b90508281101562000208576200020762000820565b5b8091505092915050565b60008082846200022391906200087e565b90508091505092915050565b6000819050919050565b7f4e487b7100000000000000000000000000000000000000000000000000000000600052601160045260246000fd5b600062000275826200022f565b915062000282836200022f565b92508282019050808211156200029d576200029c62000239565b5b92915050565b6000604051905090565b600080fd5b600080fd5b620002c2816200022f565b8114620002ce57600080fd5b50565b600081519050620002e281620002b7565b92915050565b600080fd5b600080fd5b6000601f19601f8301169050919050565b7f4e487b7100000000000000000000000000000000000000000000000000000000600052604160045260246000fd5b6200033d82620002f2565b810181811067ffffffffffffffff821117156200035f576200035e62000303565b5b80604052505050565b600062000374620002a3565b905062000382828262000332565b919050565b600067ffffffffffffffff821115620003a557620003a462000303565b5b620003b082620002f2565b9050602081019050919050565b60005b83811015620003dd578082015181840152602081019050620003c0565b60008484015250505050565b600062000400620003fa8462000387565b62000368565b9050828152602081018484840111156200041f576200041e620002ed565b5b6200042c848285620003bd565b509392505050565b600082601f8301126200044c576200044b620002e8565b5b81516200045e848260208601620003e9565b91505092915050565b60008060008060808587031215620004845762000483620002ad565b5b60006200049487828801620002d1565b9450506020620004a787828801620002d1565b9350506040620004ba87828801620002d1565b925050606085015167ffffffffffffffff811115620004de57620004dd620002b2565b5b620004ec8782880162000434565b91505092959194509250565b600081519050919050565b7f4e487b7100000000000000000000000000000000000000000000000000000000600052602260045260246000fd5b600060028204905060018216806200054b57607f821691505b60208210810362000561576200056062000503565b5b50919050565b60008190508160005260206000209050919050565b60006020601f8301049050919050565b600082821b905092915050565b600060088302620005cb7fffffffffffffffffffffffffffffffffffffffffffffffffffffffffffffffff826200058c565b620005d786836200058c565b95508019841693508086168417925050509392505050565b6000819050919050565b60006200061a620006146200060e846200022f565b620005ef565b6200022f565b9050919050565b6000819050919050565b6200063683620005f9565b6200064e620006458262000621565b84845462000599565b825550505050565b600090565b6200066562000656565b620006728184846200062b565b505050565b5b818110156200069a576200068e6000826200065b565b60018101905062000678565b5050565b601f821115620006e957620006b38162000567565b620006be846200057c565b81016020851015620006ce578190505b620006e6620006dd856200057c565b83018262000677565b50505b505050565b600082821c905092915050565b60006200070e60001984600802620006ee565b1980831691505092915050565b6000620007298383620006fb565b9150826002028217905092915050565b6200074482620004f8565b67ffffffffffffffff81111562000760576200075f62000303565b5b6200076c825462000532565b620007798282856200069e565b600060209050601f831160018114620007b157600084156200079c578287015190505b620007a885826200071b565b86555062000818565b601f198416620007c18662000567565b60005b82811015620007eb57848901518255600182019150602085019450602081019050620007c4565b868310156200080b578489015162000807601f891682620006fb565b8355505b6001600288020188555050505b505050505050565b7f4e487b7100000000000000000000000000000000000000000000000000000000600052600160045260246000fd5b7f4e487b7100000000000000000000000000000000000000000000000000000000600052601260045260246000fd5b60006200088b826200022f565b915062000898836200022f565b925082620008ab57620008aa6200084f565b5b828204905092915050565b6108e280620008c66000396000f3fe60806040526004361061004a5760003560e01c806312065fe01461004f578063268f11531461007a57806329c68dc1146100a35780638da5cb5b146100ce578063e8b5e51f146100f9575b600080fd5b34801561005b57600080fd5b50610064610103565b604051610071919061060b565b60405180910390f35b34801561008657600080fd5b506100a1600480360381019061009c9190610650565b61010b565b005b3480156100af57600080fd5b506100b86101df565b6040516100c59190610698565b60405180910390f35b3480156100da57600080fd5b506100e36102b8565b6040516100f091906106f4565b60405180910390f35b6101016102dc565b005b600047905090565b60008054906101000a900473ffffffffffffffffffffffffffffffffffffffff1673ffffffffffffffffffffffffffffffffffffffff163373ffffffffffffffffffffffffffffffffffffffff161461016357600080fd5b80601460006101000a81548160ff021916908360058111156101885761018761070f565b5b021790555042601460009054906101000a900460ff1660058111156101b0576101af61070f565b5b7faaae373901e745122c2e0925ad006227969c6cd190b7d5ea2fb7fdbd1d955b3560405160405180910390a350565b60008060009054906101000a900473ffffffffffffffffffffffffffffffffffffffff1673ffffffffffffffffffffffffffffffffffffffff163373ffffffffffffffffffffffffffffffffffffffff161461023a57600080fd5b600c60009054906101000a900460ff1615600c60006101000a81548160ff02191690831515021790555042600c60009054906101000a900460ff1615157f160914ea27c60aa29a5f3a69d74e6069869de36e38939de1e0a66b921d8623d260405160405180910390a3600c60009054906101000a900460ff16905090565b60008054906101000a900473ffffffffffffffffffffffffffffffffffffffff1681565b600060058111156102f0576102ef61070f565b5b601460009054906101000a900460ff1660058111156103125761031161070f565b5b1461031c57600080fd5b6000600254471061033f5761033c600254476105cb90919063ffffffff16565b90505b348111156103505761034f61073e565b5b60008111156103f0573373ffffffffffffffffffffffffffffffffffffffff166108fc829081150290604051600060405180830381858888f1935050505015801561039f573d6000803e3d6000fd5b50423373ffffffffffffffffffffffffffffffffffffffff167f566803f6e271b911c84f87631bcd310d6a6510bf8882577a96fc76975703e431836040516103e7919061060b565b60405180910390a35b6001601460006101000a81548160ff021916908360058111156104165761041561070f565b5b021790555042601460009054906101000a900460ff16600581111561043e5761043d61070f565b5b7faaae373901e745122c2e0925ad006227969c6cd190b7d5ea2fb7fdbd1d955b3560405160405180910390a36001601160003373ffffffffffffffffffffffffffffffffffffffff1673ffffffffffffffffffffffffffffffffffffffff16815260200190815260200160002060006101000a81548160ff021916908315150217905550600d60008154809291906104d59061079c565b919050555061053e6104f082346105cb90919063ffffffff16565b601260003373ffffffffffffffffffffffffffffffffffffffff1673ffffffffffffffffffffffffffffffffffffffff1681526020019081526020016000205461058490919063ffffffff16565b601260003373ffffffffffffffffffffffffffffffffffffffff1673ffffffffffffffffffffffffffffffffffffffff1681526020019081526020016000208190555050565b600080828461059391906107e4565b9050828110156105a6576105a561073e565b5b8091505092915050565b60008082846105bf9190610847565b90508091505092915050565b6000828211156105de576105dd61073e565b5b81836105ea9190610878565b905092915050565b6000819050919050565b610605816105f2565b82525050565b600060208201905061062060008301846105fc565b92915050565b600080fd5b6006811061063857600080fd5b50565b60008135905061064a8161062b565b92915050565b60006020828403121561066657610665610626565b5b60006106748482850161063b565b91505092915050565b60008115159050919050565b6106928161067d565b82525050565b60006020820190506106ad6000830184610689565b92915050565b600073ffffffffffffffffffffffffffffffffffffffff82169050919050565b60006106de826106b3565b9050919050565b6106ee816106d3565b82525050565b600060208201905061070960008301846106e5565b92915050565b7f4e487b7100000000000000000000000000000000000000000000000000000000600052602160045260246000fd5b7f4e487b7100000000000000000000000000000000000000000000000000000000600052600160045260246000fd5b7f4e487b7100000000000000000000000000000000000000000000000000000000600052601160045260246000fd5b60006107a7826105f2565b91507fffffffffffffffffffffffffffffffffffffffffffffffffffffffffffffffff82036107d9576107d861076d565b5b600182019050919050565b60006107ef826105f2565b91506107fa836105f2565b92508282019050808211156108125761081161076d565b5b92915050565b7f4e487b7100000000000000000000000000000000000000000000000000000000600052601260045260246000fd5b6000610852826105f2565b915061085d836105f2565b92508261086d5761086c610818565b5b828204905092915050565b6000610883826105f2565b915061088e836105f2565b92508282039050818111156108a6576108a561076d565b5b9291505056fea2646970667358221220fe973fa4a28e5b74a9bee10c209c8fc6b05022c67b67d089d633a76ba341f98f64736f6c63430008120033",
			"opcodes": "PUSH1 0x80 PUSH1 0x40 MSTORE PUSH1 0x1 PUSH1 0xC PUSH1 0x0 PUSH2 0x100 EXP DUP2 SLOAD DUP2 PUSH1 0xFF MUL NOT AND SWAP1 DUP4 ISZERO ISZERO MUL OR SWAP1 SSTORE POP PUSH1 0x0 PUSH1 0xD SSTORE PUSH1 0x0 PUSH1 0xE SSTORE PUSH1 0x1 TIMESTAMP PUSH3 0x38 SWAP2 SWAP1 PUSH3 0x268 JUMP JUMPDEST PUSH1 0xF SSTORE PUSH1 0x0 PUSH1 0x10 SSTORE CALLVALUE DUP1 ISZERO PUSH3 0x4D JUMPI PUSH1 0x0 DUP1 REVERT JUMPDEST POP PUSH1 0x40 MLOAD PUSH3 0x11A8 CODESIZE SUB DUP1 PUSH3 0x11A8 DUP4 CODECOPY DUP2 DUP2 ADD PUSH1 0x40 MSTORE DUP2 ADD SWAP1 PUSH3 0x73 SWAP2 SWAP1 PUSH3 0x467 JUMP JUMPDEST CALLER PUSH1 0x0 DUP1 PUSH2 0x100 EXP DUP2 SLOAD DUP2 PUSH20 0xFFFFFFFFFFFFFFFFFFFFFFFFFFFFFFFFFFFFFFFF MUL NOT AND SWAP1 DUP4 PUSH20 0xFFFFFFFFFFFFFFFFFFFFFFFFFFFFFFFFFFFFFFFF AND MUL OR SWAP1 SSTORE POP ORIGIN PUSH1 0x1 PUSH1 0x0 PUSH2 0x100 EXP DUP2 SLOAD DUP2 PUSH20 0xFFFFFFFFFFFFFFFFFFFFFFFFFFFFFFFFFFFFFFFF MUL NOT AND SWAP1 DUP4 PUSH20 0xFFFFFFFFFFFFFFFFFFFFFFFFFFFFFFFFFFFFFFFF AND MUL OR SWAP1 SSTORE POP DUP2 PUSH1 0x5 DUP2 SWAP1 SSTORE POP DUP4 PUSH1 0x2 DUP2 SWAP1 SSTORE POP DUP3 PUSH1 0x6 DUP2 SWAP1 SSTORE POP DUP3 PUSH1 0x6 DUP2 SWAP1 SSTORE POP PUSH3 0x12E PUSH1 0x5 SLOAD PUSH1 0x2 SLOAD PUSH3 0x1E1 PUSH1 0x20 SHL PUSH3 0x584 OR SWAP1 SWAP2 SWAP1 PUSH1 0x20 SHR JUMP JUMPDEST PUSH1 0x3 DUP2 SWAP1 SSTORE POP PUSH3 0x152 PUSH1 0x6 SLOAD PUSH1 0x3 SLOAD PUSH3 0x212 PUSH1 0x20 SHL PUSH3 0x5B0 OR SWAP1 SWAP2 SWAP1 PUSH1 0x20 SHR JUMP JUMPDEST PUSH1 0x8 DUP2 SWAP1 SSTORE POP DUP1 PUSH1 0xB SWAP1 DUP2 PUSH3 0x169 SWAP2 SWAP1 PUSH3 0x739 JUMP JUMPDEST POP TIMESTAMP PUSH1 0x9 DUP2 SWAP1 SSTORE POP TIMESTAMP PUSH1 0x1 PUSH1 0x0 SWAP1 SLOAD SWAP1 PUSH2 0x100 EXP SWAP1 DIV PUSH20 0xFFFFFFFFFFFFFFFFFFFFFFFFFFFFFFFFFFFFFFFF AND PUSH20 0xFFFFFFFFFFFFFFFFFFFFFFFFFFFFFFFFFFFFFFFF AND PUSH32 0xF9F75C99C0E3522CD19FFC66FD6C94989A3F0821D37D5C5BB176AAB904C6335D PUSH1 0x40 MLOAD PUSH1 0x40 MLOAD DUP1 SWAP2 SUB SWAP1 LOG3 POP POP POP POP PUSH3 0x8B6 JUMP JUMPDEST PUSH1 0x0 DUP1 DUP3 DUP5 PUSH3 0x1F2 SWAP2 SWAP1 PUSH3 0x268 JUMP JUMPDEST SWAP1 POP DUP3 DUP2 LT ISZERO PUSH3 0x208 JUMPI PUSH3 0x207 PUSH3 0x820 JUMP JUMPDEST JUMPDEST DUP1 SWAP2 POP POP SWAP3 SWAP2 POP POP JUMP JUMPDEST PUSH1 0x0 DUP1 DUP3 DUP5 PUSH3 0x223 SWAP2 SWAP1 PUSH3 0x87E JUMP JUMPDEST SWAP1 POP DUP1 SWAP2 POP POP SWAP3 SWAP2 POP POP JUMP JUMPDEST PUSH1 0x0 DUP2 SWAP1 POP SWAP2 SWAP1 POP JUMP JUMPDEST PUSH32 0x4E487B7100000000000000000000000000000000000000000000000000000000 PUSH1 0x0 MSTORE PUSH1 0x11 PUSH1 0x4 MSTORE PUSH1 0x24 PUSH1 0x0 REVERT JUMPDEST PUSH1 0x0 PUSH3 0x275 DUP3 PUSH3 0x22F JUMP JUMPDEST SWAP2 POP PUSH3 0x282 DUP4 PUSH3 0x22F JUMP JUMPDEST SWAP3 POP DUP3 DUP3 ADD SWAP1 POP DUP1 DUP3 GT ISZERO PUSH3 0x29D JUMPI PUSH3 0x29C PUSH3 0x239 JUMP JUMPDEST JUMPDEST SWAP3 SWAP2 POP POP JUMP JUMPDEST PUSH1 0x0 PUSH1 0x40 MLOAD SWAP1 POP SWAP1 JUMP JUMPDEST PUSH1 0x0 DUP1 REVERT JUMPDEST PUSH1 0x0 DUP1 REVERT JUMPDEST PUSH3 0x2C2 DUP2 PUSH3 0x22F JUMP JUMPDEST DUP2 EQ PUSH3 0x2CE JUMPI PUSH1 0x0 DUP1 REVERT JUMPDEST POP JUMP JUMPDEST PUSH1 0x0 DUP2 MLOAD SWAP1 POP PUSH3 0x2E2 DUP2 PUSH3 0x2B7 JUMP JUMPDEST SWAP3 SWAP2 POP POP JUMP JUMPDEST PUSH1 0x0 DUP1 REVERT JUMPDEST PUSH1 0x0 DUP1 REVERT JUMPDEST PUSH1 0x0 PUSH1 0x1F NOT PUSH1 0x1F DUP4 ADD AND SWAP1 POP SWAP2 SWAP1 POP JUMP JUMPDEST PUSH32 0x4E487B7100000000000000000000000000000000000000000000000000000000 PUSH1 0x0 MSTORE PUSH1 0x41 PUSH1 0x4 MSTORE PUSH1 0x24 PUSH1 0x0 REVERT JUMPDEST PUSH3 0x33D DUP3 PUSH3 0x2F2 JUMP JUMPDEST DUP2 ADD DUP2 DUP2 LT PUSH8 0xFFFFFFFFFFFFFFFF DUP3 GT OR ISZERO PUSH3 0x35F JUMPI PUSH3 0x35E PUSH3 0x303 JUMP JUMPDEST JUMPDEST DUP1 PUSH1 0x40 MSTORE POP POP POP JUMP JUMPDEST PUSH1 0x0 PUSH3 0x374 PUSH3 0x2A3 JUMP JUMPDEST SWAP1 POP PUSH3 0x382 DUP3 DUP3 PUSH3 0x332 JUMP JUMPDEST SWAP2 SWAP1 POP JUMP JUMPDEST PUSH1 0x0 PUSH8 0xFFFFFFFFFFFFFFFF DUP3 GT ISZERO PUSH3 0x3A5 JUMPI PUSH3 0x3A4 PUSH3 0x303 JUMP JUMPDEST JUMPDEST PUSH3 0x3B0 DUP3 PUSH3 0x2F2 JUMP JUMPDEST SWAP1 POP PUSH1 0x20 DUP2 ADD SWAP1 POP SWAP2 SWAP1 POP JUMP JUMPDEST PUSH1 0x0 JUMPDEST DUP4 DUP2 LT ISZERO PUSH3 0x3DD JUMPI DUP1 DUP3 ADD MLOAD DUP2 DUP5 ADD MSTORE PUSH1 0x20 DUP2 ADD SWAP1 POP PUSH3 0x3C0 JUMP JUMPDEST PUSH1 0x0 DUP5 DUP5 ADD MSTORE POP POP POP POP JUMP JUMPDEST PUSH1 0x0 PUSH3 0x400 PUSH3 0x3FA DUP5 PUSH3 0x387 JUMP JUMPDEST PUSH3 0x368 JUMP JUMPDEST SWAP1 POP DUP3 DUP2 MSTORE PUSH1 0x20 DUP2 ADD DUP5 DUP5 DUP5 ADD GT ISZERO PUSH3 0x41F JUMPI PUSH3 0x41E PUSH3 0x2ED JUMP JUMPDEST JUMPDEST PUSH3 0x42C DUP5 DUP3 DUP6 PUSH3 0x3BD JUMP JUMPDEST POP SWAP4 SWAP3 POP POP POP JUMP JUMPDEST PUSH1 0x0 DUP3 PUSH1 0x1F DUP4 ADD SLT PUSH3 0x44C JUMPI PUSH3 0x44B PUSH3 0x2E8 JUMP JUMPDEST JUMPDEST DUP2 MLOAD PUSH3 0x45E DUP5 DUP3 PUSH1 0x20 DUP7 ADD PUSH3 0x3E9 JUMP JUMPDEST SWAP2 POP POP SWAP3 SWAP2 POP POP JUMP JUMPDEST PUSH1 0x0 DUP1 PUSH1 0x0 DUP1 PUSH1 0x80 DUP6 DUP8 SUB SLT ISZERO PUSH3 0x484 JUMPI PUSH3 0x483 PUSH3 0x2AD JUMP JUMPDEST JUMPDEST PUSH1 0x0 PUSH3 0x494 DUP8 DUP3 DUP9 ADD PUSH3 0x2D1 JUMP JUMPDEST SWAP5 POP POP PUSH1 0x20 PUSH3 0x4A7 DUP8 DUP3 DUP9 ADD PUSH3 0x2D1 JUMP JUMPDEST SWAP4 POP POP PUSH1 0x40 PUSH3 0x4BA DUP8 DUP3 DUP9 ADD PUSH3 0x2D1 JUMP JUMPDEST SWAP3 POP POP PUSH1 0x60 DUP6 ADD MLOAD PUSH8 0xFFFFFFFFFFFFFFFF DUP2 GT ISZERO PUSH3 0x4DE JUMPI PUSH3 0x4DD PUSH3 0x2B2 JUMP JUMPDEST JUMPDEST PUSH3 0x4EC DUP8 DUP3 DUP9 ADD PUSH3 0x434 JUMP JUMPDEST SWAP2 POP POP SWAP3 SWAP6 SWAP2 SWAP5 POP SWAP3 POP JUMP JUMPDEST PUSH1 0x0 DUP2 MLOAD SWAP1 POP SWAP2 SWAP1 POP JUMP JUMPDEST PUSH32 0x4E487B7100000000000000000000000000000000000000000000000000000000 PUSH1 0x0 MSTORE PUSH1 0x22 PUSH1 0x4 MSTORE PUSH1 0x24 PUSH1 0x0 REVERT JUMPDEST PUSH1 0x0 PUSH1 0x2 DUP3 DIV SWAP1 POP PUSH1 0x1 DUP3 AND DUP1 PUSH3 0x54B JUMPI PUSH1 0x7F DUP3 AND SWAP2 POP JUMPDEST PUSH1 0x20 DUP3 LT DUP2 SUB PUSH3 0x561 JUMPI PUSH3 0x560 PUSH3 0x503 JUMP JUMPDEST JUMPDEST POP SWAP2 SWAP1 POP JUMP JUMPDEST PUSH1 0x0 DUP2 SWAP1 POP DUP2 PUSH1 0x0 MSTORE PUSH1 0x20 PUSH1 0x0 KECCAK256 SWAP1 POP SWAP2 SWAP1 POP JUMP JUMPDEST PUSH1 0x0 PUSH1 0x20 PUSH1 0x1F DUP4 ADD DIV SWAP1 POP SWAP2 SWAP1 POP JUMP JUMPDEST PUSH1 0x0 DUP3 DUP3 SHL SWAP1 POP SWAP3 SWAP2 POP POP JUMP JUMPDEST PUSH1 0x0 PUSH1 0x8 DUP4 MUL PUSH3 0x5CB PUSH32 0xFFFFFFFFFFFFFFFFFFFFFFFFFFFFFFFFFFFFFFFFFFFFFFFFFFFFFFFFFFFFFFFF DUP3 PUSH3 0x58C JUMP JUMPDEST PUSH3 0x5D7 DUP7 DUP4 PUSH3 0x58C JUMP JUMPDEST SWAP6 POP DUP1 NOT DUP5 AND SWAP4 POP DUP1 DUP7 AND DUP5 OR SWAP3 POP POP POP SWAP4 SWAP3 POP POP POP JUMP JUMPDEST PUSH1 0x0 DUP2 SWAP1 POP SWAP2 SWAP1 POP JUMP JUMPDEST PUSH1 0x0 PUSH3 0x61A PUSH3 0x614 PUSH3 0x60E DUP5 PUSH3 0x22F JUMP JUMPDEST PUSH3 0x5EF JUMP JUMPDEST PUSH3 0x22F JUMP JUMPDEST SWAP1 POP SWAP2 SWAP1 POP JUMP JUMPDEST PUSH1 0x0 DUP2 SWAP1 POP SWAP2 SWAP1 POP JUMP JUMPDEST PUSH3 0x636 DUP4 PUSH3 0x5F9 JUMP JUMPDEST PUSH3 0x64E PUSH3 0x645 DUP3 PUSH3 0x621 JUMP JUMPDEST DUP5 DUP5 SLOAD PUSH3 0x599 JUMP JUMPDEST DUP3 SSTORE POP POP POP POP JUMP JUMPDEST PUSH1 0x0 SWAP1 JUMP JUMPDEST PUSH3 0x665 PUSH3 0x656 JUMP JUMPDEST PUSH3 0x672 DUP2 DUP5 DUP5 PUSH3 0x62B JUMP JUMPDEST POP POP POP JUMP JUMPDEST JUMPDEST DUP2 DUP2 LT ISZERO PUSH3 0x69A JUMPI PUSH3 0x68E PUSH1 0x0 DUP3 PUSH3 0x65B JUMP JUMPDEST PUSH1 0x1 DUP2 ADD SWAP1 POP PUSH3 0x678 JUMP JUMPDEST POP POP JUMP JUMPDEST PUSH1 0x1F DUP3 GT ISZERO PUSH3 0x6E9 JUMPI PUSH3 0x6B3 DUP2 PUSH3 0x567 JUMP JUMPDEST PUSH3 0x6BE DUP5 PUSH3 0x57C JUMP JUMPDEST DUP2 ADD PUSH1 0x20 DUP6 LT ISZERO PUSH3 0x6CE JUMPI DUP2 SWAP1 POP JUMPDEST PUSH3 0x6E6 PUSH3 0x6DD DUP6 PUSH3 0x57C JUMP JUMPDEST DUP4 ADD DUP3 PUSH3 0x677 JUMP JUMPDEST POP POP JUMPDEST POP POP POP JUMP JUMPDEST PUSH1 0x0 DUP3 DUP3 SHR SWAP1 POP SWAP3 SWAP2 POP POP JUMP JUMPDEST PUSH1 0x0 PUSH3 0x70E PUSH1 0x0 NOT DUP5 PUSH1 0x8 MUL PUSH3 0x6EE JUMP JUMPDEST NOT DUP1 DUP4 AND SWAP2 POP POP SWAP3 SWAP2 POP POP JUMP JUMPDEST PUSH1 0x0 PUSH3 0x729 DUP4 DUP4 PUSH3 0x6FB JUMP JUMPDEST SWAP2 POP DUP3 PUSH1 0x2 MUL DUP3 OR SWAP1 POP SWAP3 SWAP2 POP POP JUMP JUMPDEST PUSH3 0x744 DUP3 PUSH3 0x4F8 JUMP JUMPDEST PUSH8 0xFFFFFFFFFFFFFFFF DUP2 GT ISZERO PUSH3 0x760 JUMPI PUSH3 0x75F PUSH3 0x303 JUMP JUMPDEST JUMPDEST PUSH3 0x76C DUP3 SLOAD PUSH3 0x532 JUMP JUMPDEST PUSH3 0x779 DUP3 DUP3 DUP6 PUSH3 0x69E JUMP JUMPDEST PUSH1 0x0 PUSH1 0x20 SWAP1 POP PUSH1 0x1F DUP4 GT PUSH1 0x1 DUP2 EQ PUSH3 0x7B1 JUMPI PUSH1 0x0 DUP5 ISZERO PUSH3 0x79C JUMPI DUP3 DUP8 ADD MLOAD SWAP1 POP JUMPDEST PUSH3 0x7A8 DUP6 DUP3 PUSH3 0x71B JUMP JUMPDEST DUP7 SSTORE POP PUSH3 0x818 JUMP JUMPDEST PUSH1 0x1F NOT DUP5 AND PUSH3 0x7C1 DUP7 PUSH3 0x567 JUMP JUMPDEST PUSH1 0x0 JUMPDEST DUP3 DUP2 LT ISZERO PUSH3 0x7EB JUMPI DUP5 DUP10 ADD MLOAD DUP3 SSTORE PUSH1 0x1 DUP3 ADD SWAP2 POP PUSH1 0x20 DUP6 ADD SWAP5 POP PUSH1 0x20 DUP2 ADD SWAP1 POP PUSH3 0x7C4 JUMP JUMPDEST DUP7 DUP4 LT ISZERO PUSH3 0x80B JUMPI DUP5 DUP10 ADD MLOAD PUSH3 0x807 PUSH1 0x1F DUP10 AND DUP3 PUSH3 0x6FB JUMP JUMPDEST DUP4 SSTORE POP JUMPDEST PUSH1 0x1 PUSH1 0x2 DUP9 MUL ADD DUP9 SSTORE POP POP POP JUMPDEST POP POP POP POP POP POP JUMP JUMPDEST PUSH32 0x4E487B7100000000000000000000000000000000000000000000000000000000 PUSH1 0x0 MSTORE PUSH1 0x1 PUSH1 0x4 MSTORE PUSH1 0x24 PUSH1 0x0 REVERT JUMPDEST PUSH32 0x4E487B7100000000000000000000000000000000000000000000000000000000 PUSH1 0x0 MSTORE PUSH1 0x12 PUSH1 0x4 MSTORE PUSH1 0x24 PUSH1 0x0 REVERT JUMPDEST PUSH1 0x0 PUSH3 0x88B DUP3 PUSH3 0x22F JUMP JUMPDEST SWAP2 POP PUSH3 0x898 DUP4 PUSH3 0x22F JUMP JUMPDEST SWAP3 POP DUP3 PUSH3 0x8AB JUMPI PUSH3 0x8AA PUSH3 0x84F JUMP JUMPDEST JUMPDEST DUP3 DUP3 DIV SWAP1 POP SWAP3 SWAP2 POP POP JUMP JUMPDEST PUSH2 0x8E2 DUP1 PUSH3 0x8C6 PUSH1 0x0 CODECOPY PUSH1 0x0 RETURN INVALID PUSH1 0x80 PUSH1 0x40 MSTORE PUSH1 0x4 CALLDATASIZE LT PUSH2 0x4A JUMPI PUSH1 0x0 CALLDATALOAD PUSH1 0xE0 SHR DUP1 PUSH4 0x12065FE0 EQ PUSH2 0x4F JUMPI DUP1 PUSH4 0x268F1153 EQ PUSH2 0x7A JUMPI DUP1 PUSH4 0x29C68DC1 EQ PUSH2 0xA3 JUMPI DUP1 PUSH4 0x8DA5CB5B EQ PUSH2 0xCE JUMPI DUP1 PUSH4 0xE8B5E51F EQ PUSH2 0xF9 JUMPI JUMPDEST PUSH1 0x0 DUP1 REVERT JUMPDEST CALLVALUE DUP1 ISZERO PUSH2 0x5B JUMPI PUSH1 0x0 DUP1 REVERT JUMPDEST POP PUSH2 0x64 PUSH2 0x103 JUMP JUMPDEST PUSH1 0x40 MLOAD PUSH2 0x71 SWAP2 SWAP1 PUSH2 0x60B JUMP JUMPDEST PUSH1 0x40 MLOAD DUP1 SWAP2 SUB SWAP1 RETURN JUMPDEST CALLVALUE DUP1 ISZERO PUSH2 0x86 JUMPI PUSH1 0x0 DUP1 REVERT JUMPDEST POP PUSH2 0xA1 PUSH1 0x4 DUP1 CALLDATASIZE SUB DUP2 ADD SWAP1 PUSH2 0x9C SWAP2 SWAP1 PUSH2 0x650 JUMP JUMPDEST PUSH2 0x10B JUMP JUMPDEST STOP JUMPDEST CALLVALUE DUP1 ISZERO PUSH2 0xAF JUMPI PUSH1 0x0 DUP1 REVERT JUMPDEST POP PUSH2 0xB8 PUSH2 0x1DF JUMP JUMPDEST PUSH1 0x40 MLOAD PUSH2 0xC5 SWAP2 SWAP1 PUSH2 0x698 JUMP JUMPDEST PUSH1 0x40 MLOAD DUP1 SWAP2 SUB SWAP1 RETURN JUMPDEST CALLVALUE DUP1 ISZERO PUSH2 0xDA JUMPI PUSH1 0x0 DUP1 REVERT JUMPDEST POP PUSH2 0xE3 PUSH2 0x2B8 JUMP JUMPDEST PUSH1 0x40 MLOAD PUSH2 0xF0 SWAP2 SWAP1 PUSH2 0x6F4 JUMP JUMPDEST PUSH1 0x40 MLOAD DUP1 SWAP2 SUB SWAP1 RETURN JUMPDEST PUSH2 0x101 PUSH2 0x2DC JUMP JUMPDEST STOP JUMPDEST PUSH1 0x0 SELFBALANCE SWAP1 POP SWAP1 JUMP JUMPDEST PUSH1 0x0 DUP1 SLOAD SWAP1 PUSH2 0x100 EXP SWAP1 DIV PUSH20 0xFFFFFFFFFFFFFFFFFFFFFFFFFFFFFFFFFFFFFFFF AND PUSH20 0xFFFFFFFFFFFFFFFFFFFFFFFFFFFFFFFFFFFFFFFF AND CALLER PUSH20 0xFFFFFFFFFFFFFFFFFFFFFFFFFFFFFFFFFFFFFFFF AND EQ PUSH2 0x163 JUMPI PUSH1 0x0 DUP1 REVERT JUMPDEST DUP1 PUSH1 0x14 PUSH1 0x0 PUSH2 0x100 EXP DUP2 SLOAD DUP2 PUSH1 0xFF MUL NOT AND SWAP1 DUP4 PUSH1 0x5 DUP2 GT ISZERO PUSH2 0x188 JUMPI PUSH2 0x187 PUSH2 0x70F JUMP JUMPDEST JUMPDEST MUL OR SWAP1 SSTORE POP TIMESTAMP PUSH1 0x14 PUSH1 0x0 SWAP1 SLOAD SWAP1 PUSH2 0x100 EXP SWAP1 DIV PUSH1 0xFF AND PUSH1 0x5 DUP2 GT ISZERO PUSH2 0x1B0 JUMPI PUSH2 0x1AF PUSH2 0x70F JUMP JUMPDEST JUMPDEST PUSH32 0xAAAE373901E745122C2E0925AD006227969C6CD190B7D5EA2FB7FDBD1D955B35 PUSH1 0x40 MLOAD PUSH1 0x40 MLOAD DUP1 SWAP2 SUB SWAP1 LOG3 POP JUMP JUMPDEST PUSH1 0x0 DUP1 PUSH1 0x0 SWAP1 SLOAD SWAP1 PUSH2 0x100 EXP SWAP1 DIV PUSH20 0xFFFFFFFFFFFFFFFFFFFFFFFFFFFFFFFFFFFFFFFF AND PUSH20 0xFFFFFFFFFFFFFFFFFFFFFFFFFFFFFFFFFFFFFFFF AND CALLER PUSH20 0xFFFFFFFFFFFFFFFFFFFFFFFFFFFFFFFFFFFFFFFF AND EQ PUSH2 0x23A JUMPI PUSH1 0x0 DUP1 REVERT JUMPDEST PUSH1 0xC PUSH1 0x0 SWAP1 SLOAD SWAP1 PUSH2 0x100 EXP SWAP1 DIV PUSH1 0xFF AND ISZERO PUSH1 0xC PUSH1 0x0 PUSH2 0x100 EXP DUP2 SLOAD DUP2 PUSH1 0xFF MUL NOT AND SWAP1 DUP4 ISZERO ISZERO MUL OR SWAP1 SSTORE POP TIMESTAMP PUSH1 0xC PUSH1 0x0 SWAP1 SLOAD SWAP1 PUSH2 0x100 EXP SWAP1 DIV PUSH1 0xFF AND ISZERO ISZERO PUSH32 0x160914EA27C60AA29A5F3A69D74E6069869DE36E38939DE1E0A66B921D8623D2 PUSH1 0x40 MLOAD PUSH1 0x40 MLOAD DUP1 SWAP2 SUB SWAP1 LOG3 PUSH1 0xC PUSH1 0x0 SWAP1 SLOAD SWAP1 PUSH2 0x100 EXP SWAP1 DIV PUSH1 0xFF AND SWAP1 POP SWAP1 JUMP JUMPDEST PUSH1 0x0 DUP1 SLOAD SWAP1 PUSH2 0x100 EXP SWAP1 DIV PUSH20 0xFFFFFFFFFFFFFFFFFFFFFFFFFFFFFFFFFFFFFFFF AND DUP2 JUMP JUMPDEST PUSH1 0x0 PUSH1 0x5 DUP2 GT ISZERO PUSH2 0x2F0 JUMPI PUSH2 0x2EF PUSH2 0x70F JUMP JUMPDEST JUMPDEST PUSH1 0x14 PUSH1 0x0 SWAP1 SLOAD SWAP1 PUSH2 0x100 EXP SWAP1 DIV PUSH1 0xFF AND PUSH1 0x5 DUP2 GT ISZERO PUSH2 0x312 JUMPI PUSH2 0x311 PUSH2 0x70F JUMP JUMPDEST JUMPDEST EQ PUSH2 0x31C JUMPI PUSH1 0x0 DUP1 REVERT JUMPDEST PUSH1 0x0 PUSH1 0x2 SLOAD SELFBALANCE LT PUSH2 0x33F JUMPI PUSH2 0x33C PUSH1 0x2 SLOAD SELFBALANCE PUSH2 0x5CB SWAP1 SWAP2 SWAP1 PUSH4 0xFFFFFFFF AND JUMP JUMPDEST SWAP1 POP JUMPDEST CALLVALUE DUP2 GT ISZERO PUSH2 0x350 JUMPI PUSH2 0x34F PUSH2 0x73E JUMP JUMPDEST JUMPDEST PUSH1 0x0 DUP2 GT ISZERO PUSH2 0x3F0 JUMPI CALLER PUSH20 0xFFFFFFFFFFFFFFFFFFFFFFFFFFFFFFFFFFFFFFFF AND PUSH2 0x8FC DUP3 SWAP1 DUP2 ISZERO MUL SWAP1 PUSH1 0x40 MLOAD PUSH1 0x0 PUSH1 0x40 MLOAD DUP1 DUP4 SUB DUP2 DUP6 DUP9 DUP9 CALL SWAP4 POP POP POP POP ISZERO DUP1 ISZERO PUSH2 0x39F JUMPI RETURNDATASIZE PUSH1 0x0 DUP1 RETURNDATACOPY RETURNDATASIZE PUSH1 0x0 REVERT JUMPDEST POP TIMESTAMP CALLER PUSH20 0xFFFFFFFFFFFFFFFFFFFFFFFFFFFFFFFFFFFFFFFF AND PUSH32 0x566803F6E271B911C84F87631BCD310D6A6510BF8882577A96FC76975703E431 DUP4 PUSH1 0x40 MLOAD PUSH2 0x3E7 SWAP2 SWAP1 PUSH2 0x60B JUMP JUMPDEST PUSH1 0x40 MLOAD DUP1 SWAP2 SUB SWAP1 LOG3 JUMPDEST PUSH1 0x1 PUSH1 0x14 PUSH1 0x0 PUSH2 0x100 EXP DUP2 SLOAD DUP2 PUSH1 0xFF MUL NOT AND SWAP1 DUP4 PUSH1 0x5 DUP2 GT ISZERO PUSH2 0x416 JUMPI PUSH2 0x415 PUSH2 0x70F JUMP JUMPDEST JUMPDEST MUL OR SWAP1 SSTORE POP TIMESTAMP PUSH1 0x14 PUSH1 0x0 SWAP1 SLOAD SWAP1 PUSH2 0x100 EXP SWAP1 DIV PUSH1 0xFF AND PUSH1 0x5 DUP2 GT ISZERO PUSH2 0x43E JUMPI PUSH2 0x43D PUSH2 0x70F JUMP JUMPDEST JUMPDEST PUSH32 0xAAAE373901E745122C2E0925AD006227969C6CD190B7D5EA2FB7FDBD1D955B35 PUSH1 0x40 MLOAD PUSH1 0x40 MLOAD DUP1 SWAP2 SUB SWAP1 LOG3 PUSH1 0x1 PUSH1 0x11 PUSH1 0x0 CALLER PUSH20 0xFFFFFFFFFFFFFFFFFFFFFFFFFFFFFFFFFFFFFFFF AND PUSH20 0xFFFFFFFFFFFFFFFFFFFFFFFFFFFFFFFFFFFFFFFF AND DUP2 MSTORE PUSH1 0x20 ADD SWAP1 DUP2 MSTORE PUSH1 0x20 ADD PUSH1 0x0 KECCAK256 PUSH1 0x0 PUSH2 0x100 EXP DUP2 SLOAD DUP2 PUSH1 0xFF MUL NOT AND SWAP1 DUP4 ISZERO ISZERO MUL OR SWAP1 SSTORE POP PUSH1 0xD PUSH1 0x0 DUP2 SLOAD DUP1 SWAP3 SWAP2 SWAP1 PUSH2 0x4D5 SWAP1 PUSH2 0x79C JUMP JUMPDEST SWAP2 SWAP1 POP SSTORE POP PUSH2 0x53E PUSH2 0x4F0 DUP3 CALLVALUE PUSH2 0x5CB SWAP1 SWAP2 SWAP1 PUSH4 0xFFFFFFFF AND JUMP JUMPDEST PUSH1 0x12 PUSH1 0x0 CALLER PUSH20 0xFFFFFFFFFFFFFFFFFFFFFFFFFFFFFFFFFFFFFFFF AND PUSH20 0xFFFFFFFFFFFFFFFFFFFFFFFFFFFFFFFFFFFFFFFF AND DUP2 MSTORE PUSH1 0x20 ADD SWAP1 DUP2 MSTORE PUSH1 0x20 ADD PUSH1 0x0 KECCAK256 SLOAD PUSH2 0x584 SWAP1 SWAP2 SWAP1 PUSH4 0xFFFFFFFF AND JUMP JUMPDEST PUSH1 0x12 PUSH1 0x0 CALLER PUSH20 0xFFFFFFFFFFFFFFFFFFFFFFFFFFFFFFFFFFFFFFFF AND PUSH20 0xFFFFFFFFFFFFFFFFFFFFFFFFFFFFFFFFFFFFFFFF AND DUP2 MSTORE PUSH1 0x20 ADD SWAP1 DUP2 MSTORE PUSH1 0x20 ADD PUSH1 0x0 KECCAK256 DUP2 SWAP1 SSTORE POP POP JUMP JUMPDEST PUSH1 0x0 DUP1 DUP3 DUP5 PUSH2 0x593 SWAP2 SWAP1 PUSH2 0x7E4 JUMP JUMPDEST SWAP1 POP DUP3 DUP2 LT ISZERO PUSH2 0x5A6 JUMPI PUSH2 0x5A5 PUSH2 0x73E JUMP JUMPDEST JUMPDEST DUP1 SWAP2 POP POP SWAP3 SWAP2 POP POP JUMP JUMPDEST PUSH1 0x0 DUP1 DUP3 DUP5 PUSH2 0x5BF SWAP2 SWAP1 PUSH2 0x847 JUMP JUMPDEST SWAP1 POP DUP1 SWAP2 POP POP SWAP3 SWAP2 POP POP JUMP JUMPDEST PUSH1 0x0 DUP3 DUP3 GT ISZERO PUSH2 0x5DE JUMPI PUSH2 0x5DD PUSH2 0x73E JUMP JUMPDEST JUMPDEST DUP2 DUP4 PUSH2 0x5EA SWAP2 SWAP1 PUSH2 0x878 JUMP JUMPDEST SWAP1 POP SWAP3 SWAP2 POP POP JUMP JUMPDEST PUSH1 0x0 DUP2 SWAP1 POP SWAP2 SWAP1 POP JUMP JUMPDEST PUSH2 0x605 DUP2 PUSH2 0x5F2 JUMP JUMPDEST DUP3 MSTORE POP POP JUMP JUMPDEST PUSH1 0x0 PUSH1 0x20 DUP3 ADD SWAP1 POP PUSH2 0x620 PUSH1 0x0 DUP4 ADD DUP5 PUSH2 0x5FC JUMP JUMPDEST SWAP3 SWAP2 POP POP JUMP JUMPDEST PUSH1 0x0 DUP1 REVERT JUMPDEST PUSH1 0x6 DUP2 LT PUSH2 0x638 JUMPI PUSH1 0x0 DUP1 REVERT JUMPDEST POP JUMP JUMPDEST PUSH1 0x0 DUP2 CALLDATALOAD SWAP1 POP PUSH2 0x64A DUP2 PUSH2 0x62B JUMP JUMPDEST SWAP3 SWAP2 POP POP JUMP JUMPDEST PUSH1 0x0 PUSH1 0x20 DUP3 DUP5 SUB SLT ISZERO PUSH2 0x666 JUMPI PUSH2 0x665 PUSH2 0x626 JUMP JUMPDEST JUMPDEST PUSH1 0x0 PUSH2 0x674 DUP5 DUP3 DUP6 ADD PUSH2 0x63B JUMP JUMPDEST SWAP2 POP POP SWAP3 SWAP2 POP POP JUMP JUMPDEST PUSH1 0x0 DUP2 ISZERO ISZERO SWAP1 POP SWAP2 SWAP1 POP JUMP JUMPDEST PUSH2 0x692 DUP2 PUSH2 0x67D JUMP JUMPDEST DUP3 MSTORE POP POP JUMP JUMPDEST PUSH1 0x0 PUSH1 0x20 DUP3 ADD SWAP1 POP PUSH2 0x6AD PUSH1 0x0 DUP4 ADD DUP5 PUSH2 0x689 JUMP JUMPDEST SWAP3 SWAP2 POP POP JUMP JUMPDEST PUSH1 0x0 PUSH20 0xFFFFFFFFFFFFFFFFFFFFFFFFFFFFFFFFFFFFFFFF DUP3 AND SWAP1 POP SWAP2 SWAP1 POP JUMP JUMPDEST PUSH1 0x0 PUSH2 0x6DE DUP3 PUSH2 0x6B3 JUMP JUMPDEST SWAP1 POP SWAP2 SWAP1 POP JUMP JUMPDEST PUSH2 0x6EE DUP2 PUSH2 0x6D3 JUMP JUMPDEST DUP3 MSTORE POP POP JUMP JUMPDEST PUSH1 0x0 PUSH1 0x20 DUP3 ADD SWAP1 POP PUSH2 0x709 PUSH1 0x0 DUP4 ADD DUP5 PUSH2 0x6E5 JUMP JUMPDEST SWAP3 SWAP2 POP POP JUMP JUMPDEST PUSH32 0x4E487B7100000000000000000000000000000000000000000000000000000000 PUSH1 0x0 MSTORE PUSH1 0x21 PUSH1 0x4 MSTORE PUSH1 0x24 PUSH1 0x0 REVERT JUMPDEST PUSH32 0x4E487B7100000000000000000000000000000000000000000000000000000000 PUSH1 0x0 MSTORE PUSH1 0x1 PUSH1 0x4 MSTORE PUSH1 0x24 PUSH1 0x0 REVERT JUMPDEST PUSH32 0x4E487B7100000000000000000000000000000000000000000000000000000000 PUSH1 0x0 MSTORE PUSH1 0x11 PUSH1 0x4 MSTORE PUSH1 0x24 PUSH1 0x0 REVERT JUMPDEST PUSH1 0x0 PUSH2 0x7A7 DUP3 PUSH2 0x5F2 JUMP JUMPDEST SWAP2 POP PUSH32 0xFFFFFFFFFFFFFFFFFFFFFFFFFFFFFFFFFFFFFFFFFFFFFFFFFFFFFFFFFFFFFFFF DUP3 SUB PUSH2 0x7D9 JUMPI PUSH2 0x7D8 PUSH2 0x76D JUMP JUMPDEST JUMPDEST PUSH1 0x1 DUP3 ADD SWAP1 POP SWAP2 SWAP1 POP JUMP JUMPDEST PUSH1 0x0 PUSH2 0x7EF DUP3 PUSH2 0x5F2 JUMP JUMPDEST SWAP2 POP PUSH2 0x7FA DUP4 PUSH2 0x5F2 JUMP JUMPDEST SWAP3 POP DUP3 DUP3 ADD SWAP1 POP DUP1 DUP3 GT ISZERO PUSH2 0x812 JUMPI PUSH2 0x811 PUSH2 0x76D JUMP JUMPDEST JUMPDEST SWAP3 SWAP2 POP POP JUMP JUMPDEST PUSH32 0x4E487B7100000000000000000000000000000000000000000000000000000000 PUSH1 0x0 MSTORE PUSH1 0x12 PUSH1 0x4 MSTORE PUSH1 0x24 PUSH1 0x0 REVERT JUMPDEST PUSH1 0x0 PUSH2 0x852 DUP3 PUSH2 0x5F2 JUMP JUMPDEST SWAP2 POP PUSH2 0x85D DUP4 PUSH2 0x5F2 JUMP JUMPDEST SWAP3 POP DUP3 PUSH2 0x86D JUMPI PUSH2 0x86C PUSH2 0x818 JUMP JUMPDEST JUMPDEST DUP3 DUP3 DIV SWAP1 POP SWAP3 SWAP2 POP POP JUMP JUMPDEST PUSH1 0x0 PUSH2 0x883 DUP3 PUSH2 0x5F2 JUMP JUMPDEST SWAP2 POP PUSH2 0x88E DUP4 PUSH2 0x5F2 JUMP JUMPDEST SWAP3 POP DUP3 DUP3 SUB SWAP1 POP DUP2 DUP2 GT ISZERO PUSH2 0x8A6 JUMPI PUSH2 0x8A5 PUSH2 0x76D JUMP JUMPDEST JUMPDEST SWAP3 SWAP2 POP POP JUMP INVALID LOG2 PUSH5 0x6970667358 0x22 SLT KECCAK256 INVALID SWAP8 EXTCODEHASH LOG4 LOG2 DUP15 JUMPDEST PUSH21 0xA9BEE10C209C8FC6B05022C67B67D089D633A76BA3 COINBASE 0xF9 DUP16 PUSH5 0x736F6C6343 STOP ADDMOD SLT STOP CALLER "
		},
		"gasEstimates": {
			"creation": {
				"codeDepositCost": "454800",
				"executionCost": "infinite",
				"totalCost": "infinite"
			},
			"external": {
				"changeState(uint8)": "30511",
				"getBalance()": "317",
				"invest()": "infinite",
				"owner()": "2555",
				"toggleActive()": "34751"
			}
		},
		"methodIdentifiers": {
			"changeState(uint8)": "268f1153",
			"getBalance()": "12065fe0",
			"invest()": "e8b5e51f",
			"owner()": "8da5cb5b",
			"toggleActive()": "29c68dc1"
		}
	},
	"abi": [
		{
			"inputs": [
				{
					"internalType": "uint256",
					"name": "_requestedAmount",
					"type": "uint256"
				},
				{
					"internalType": "uint256",
					"name": "_requestedRepayments",
					"type": "uint256"
				},
				{
					"internalType": "uint256",
					"name": "_interest",
					"type": "uint256"
				},
				{
					"internalType": "bytes",
					"name": "_description",
					"type": "bytes"
				}
			],
			"stateMutability": "nonpayable",
			"type": "constructor"
		},
		{
			"anonymous": false,
			"inputs": [
				{
					"indexed": true,
					"internalType": "address",
					"name": "_address",
					"type": "address"
				},
				{
					"indexed": false,
					"internalType": "uint256",
					"name": "_amount",
					"type": "uint256"
				},
				{
					"indexed": true,
					"internalType": "uint256",
					"name": "timestamp",
					"type": "uint256"
				}
			],
			"name": "LogBorrowerChangeReturned",
			"type": "event"
		},
		{
			"anonymous": false,
			"inputs": [
				{
					"indexed": true,
					"internalType": "address",
					"name": "_address",
					"type": "address"
				},
				{
					"indexed": true,
					"internalType": "uint256",
					"name": "timestamp",
					"type": "uint256"
				}
			],
			"name": "LogBorrowerFinished",
			"type": "event"
		},
		{
			"anonymous": false,
			"inputs": [
				{
					"indexed": true,
					"internalType": "address",
					"name": "_address",
					"type": "address"
				},
				{
					"indexed": true,
					"internalType": "uint256",
					"name": "timestamp",
					"type": "uint256"
				}
			],
			"name": "LogBorrowerInstallment",
			"type": "event"
		},
		{
			"anonymous": false,
			"inputs": [
				{
					"indexed": true,
					"internalType": "address",
					"name": "_address",
					"type": "address"
				},
				{
					"indexed": true,
					"internalType": "uint256",
					"name": "_amount",
					"type": "uint256"
				},
				{
					"indexed": true,
					"internalType": "uint256",
					"name": "timestamp",
					"type": "uint256"
				}
			],
			"name": "LogBorrowerWithdrawal",
			"type": "event"
		},
		{
			"anonymous": false,
			"inputs": [
				{
					"indexed": true,
					"internalType": "address",
					"name": "_address",
					"type": "address"
				},
				{
					"indexed": true,
					"internalType": "uint256",
					"name": "timestamp",
					"type": "uint256"
				}
			],
			"name": "LogCreditInitialized",
			"type": "event"
		},
		{
			"anonymous": false,
			"inputs": [
				{
					"indexed": true,
					"internalType": "bool",
					"name": "active",
					"type": "bool"
				},
				{
					"indexed": true,
					"internalType": "uint256",
					"name": "timestamp",
					"type": "uint256"
				}
			],
			"name": "LogCreditStateActiveChanged",
			"type": "event"
		},
		{
			"anonymous": false,
			"inputs": [
				{
					"indexed": true,
					"internalType": "enum Credit.State",
					"name": "state",
					"type": "uint8"
				},
				{
					"indexed": true,
					"internalType": "uint256",
					"name": "timestamp",
					"type": "uint256"
				}
			],
			"name": "LogCreditStateChanged",
			"type": "event"
		},
		{
			"anonymous": false,
			"inputs": [
				{
					"indexed": true,
					"internalType": "address",
					"name": "_address",
					"type": "address"
				},
				{
					"indexed": false,
					"internalType": "uint256",
					"name": "_amount",
					"type": "uint256"
				},
				{
					"indexed": true,
					"internalType": "uint256",
					"name": "timestamp",
					"type": "uint256"
				}
			],
			"name": "LogLenderChangeReturned",
			"type": "event"
		},
		{
			"anonymous": false,
			"inputs": [
				{
					"indexed": true,
					"internalType": "address",
					"name": "_address",
					"type": "address"
				},
				{
					"indexed": false,
					"internalType": "uint256",
					"name": "_amount",
					"type": "uint256"
				},
				{
					"indexed": true,
					"internalType": "uint256",
					"name": "timestamp",
					"type": "uint256"
				}
			],
			"name": "LogLenderInvestment",
			"type": "event"
		},
		{
			"anonymous": false,
			"inputs": [
				{
					"indexed": true,
					"internalType": "address",
					"name": "_address",
					"type": "address"
				},
				{
					"indexed": false,
					"internalType": "uint256",
					"name": "_amount",
					"type": "uint256"
				},
				{
					"indexed": true,
					"internalType": "uint256",
					"name": "timestamp",
					"type": "uint256"
				}
			],
			"name": "LogLenderRefunded",
			"type": "event"
		},
		{
			"anonymous": false,
			"inputs": [
				{
					"indexed": true,
					"internalType": "address",
					"name": "_address",
					"type": "address"
				},
				{
					"indexed": true,
					"internalType": "uint256",
					"name": "timestamp",
					"type": "uint256"
				}
			],
			"name": "LogLenderVoteForFraud",
			"type": "event"
		},
		{
			"anonymous": false,
			"inputs": [
				{
					"indexed": true,
					"internalType": "address",
					"name": "_address",
					"type": "address"
				},
				{
					"indexed": true,
					"internalType": "uint256",
					"name": "timestamp",
					"type": "uint256"
				}
			],
			"name": "LogLenderVoteForRevoking",
			"type": "event"
		},
		{
			"anonymous": false,
			"inputs": [
				{
					"indexed": true,
					"internalType": "address",
					"name": "_address",
					"type": "address"
				},
				{
					"indexed": false,
					"internalType": "uint256",
					"name": "_amount",
					"type": "uint256"
				},
				{
					"indexed": true,
					"internalType": "uint256",
					"name": "timestamp",
					"type": "uint256"
				}
			],
			"name": "LogLenderWithdrawal",
			"type": "event"
		},
		{
			"anonymous": false,
			"inputs": [
				{
					"indexed": true,
					"internalType": "address",
					"name": "_currentowner",
					"type": "address"
				},
				{
					"indexed": true,
					"internalType": "address",
					"name": "_newowner",
					"type": "address"
				}
			],
			"name": "LogOwnershipTransfered",
			"type": "event"
		},
		{
			"inputs": [
				{
					"internalType": "enum Credit.State",
					"name": "_state",
					"type": "uint8"
				}
			],
			"name": "changeState",
			"outputs": [],
			"stateMutability": "nonpayable",
			"type": "function"
		},
		{
			"inputs": [],
			"name": "getBalance",
			"outputs": [
				{
					"internalType": "uint256",
					"name": "",
					"type": "uint256"
				}
			],
			"stateMutability": "view",
			"type": "function"
		},
		{
			"inputs": [],
			"name": "invest",
			"outputs": [],
			"stateMutability": "payable",
			"type": "function"
		},
		{
			"inputs": [],
			"name": "owner",
			"outputs": [
				{
					"internalType": "address",
					"name": "",
					"type": "address"
				}
			],
			"stateMutability": "view",
			"type": "function"
		},
		{
			"inputs": [],
			"name": "toggleActive",
			"outputs": [
				{
					"internalType": "bool",
					"name": "",
					"type": "bool"
				}
			],
			"stateMutability": "nonpayable",
			"type": "function"
		}
	]
}