{
	"data": {
		"bytecode": {
			"linkReferences": {},
			"object": "608060405234801561001057600080fd5b5061099a806100206000396000f3fe608060405234801561001057600080fd5b50600436106100365760003560e01c8063c2a2747b1461003b578063ce731a8e1461005c575b600080fd5b610043610078565b60405161005394939291906103d9565b60405180910390f35b6100766004803603810190610071919061065b565b6101a6565b005b6000806000018054610089906106d3565b80601f01602080910402602001604051908101604052809291908181526020018280546100b5906106d3565b80156101025780601f106100d757610100808354040283529160200191610102565b820191906000526020600020905b8154815290600101906020018083116100e557829003601f168201915b50505050509080600101549080600201805461011d906106d3565b80601f0160208091040260200160405190810160405280929190818152602001828054610149906106d3565b80156101965780601f1061016b57610100808354040283529160200191610196565b820191906000526020600020905b81548152906001019060200180831161017957829003601f168201915b5050505050908060030154905084565b6000806040518060800160405290816000820180546101c4906106d3565b80601f01602080910402602001604051908101604052809291908181526020018280546101f0906106d3565b801561023d5780601f106102125761010080835404028352916020019161023d565b820191906000526020600020905b81548152906001019060200180831161022057829003601f168201915b5050505050815260200160018201548152602001600282018054610260906106d3565b80601f016020809104026020016040519081016040528092919081815260200182805461028c906106d3565b80156102d95780601f106102ae576101008083540402835291602001916102d9565b820191906000526020600020905b8154815290600101906020018083116102bc57829003601f168201915b5050505050815260200160038201548152505090507f678c69cb410c2e7747d2a9047d7323c866bd91a1affb961d032bf6d7e7267b6181600042436040516103249493929190610911565b60405180910390a15050565b600081519050919050565b600082825260208201905092915050565b60005b8381101561036a57808201518184015260208101905061034f565b60008484015250505050565b6000601f19601f8301169050919050565b600061039282610330565b61039c818561033b565b93506103ac81856020860161034c565b6103b581610376565b840191505092915050565b6000819050919050565b6103d3816103c0565b82525050565b600060808201905081810360008301526103f38187610387565b905061040260208301866103ca565b81810360408301526104148185610387565b905061042360608301846103ca565b95945050505050565b6000604051905090565b600080fd5b600080fd5b600080fd5b7f4e487b7100000000000000000000000000000000000000000000000000000000600052604160045260246000fd5b61047d82610376565b810181811067ffffffffffffffff8211171561049c5761049b610445565b5b80604052505050565b60006104af61042c565b90506104bb8282610474565b919050565b600080fd5b600080fd5b600080fd5b600067ffffffffffffffff8211156104ea576104e9610445565b5b6104f382610376565b9050602081019050919050565b82818337600083830152505050565b600061052261051d846104cf565b6104a5565b90508281526020810184848401111561053e5761053d6104ca565b5b610549848285610500565b509392505050565b600082601f830112610566576105656104c5565b5b813561057684826020860161050f565b91505092915050565b610588816103c0565b811461059357600080fd5b50565b6000813590506105a58161057f565b92915050565b6000608082840312156105c1576105c0610440565b5b6105cb60806104a5565b9050600082013567ffffffffffffffff8111156105eb576105ea6104c0565b5b6105f784828501610551565b600083015250602061060b84828501610596565b602083015250604082013567ffffffffffffffff81111561062f5761062e6104c0565b5b61063b84828501610551565b604083015250606061064f84828501610596565b60608301525092915050565b60006020828403121561067157610670610436565b5b600082013567ffffffffffffffff81111561068f5761068e61043b565b5b61069b848285016105ab565b91505092915050565b7f4e487b7100000000000000000000000000000000000000000000000000000000600052602260045260246000fd5b600060028204905060018216806106eb57607f821691505b6020821081036106fe576106fd6106a4565b5b50919050565b600082825260208201905092915050565b600061072082610330565b61072a8185610704565b935061073a81856020860161034c565b61074381610376565b840191505092915050565b610757816103c0565b82525050565b6000608083016000830151848203600086015261077a8282610715565b915050602083015161078f602086018261074e565b50604083015184820360408601526107a78282610715565b91505060608301516107bc606086018261074e565b508091505092915050565b60008190508160005260206000209050919050565b600081546107e9816106d3565b6107f38186610704565b9450600182166000811461080e576001811461082457610857565b60ff198316865281151560200286019350610857565b61082d856107c7565b60005b8381101561084f57815481890152600182019150602081019050610830565b808801955050505b50505092915050565b60008160001c9050919050565b6000819050919050565b600061088a61088583610860565b61086d565b9050919050565b600060808301600080840185830360008701526108ae83826107dc565b925050600184015490506108c181610877565b6108ce602087018261074e565b506002840185830360408701526108e583826107dc565b925050600384015490506108f881610877565b610905606087018261074e565b50819250505092915050565b6000608082019050818103600083015261092b818761075d565b9050818103602083015261093f8186610891565b905061094e60408301856103ca565b61095b60608301846103ca565b9594505050505056fea26469706673582212205c73d4a5b05771c3e4633898d3ef7fd1dc434fa825168d53b7fc897864d6ca0f64736f6c63430008120033",
			"opcodes": "PUSH1 0x80 PUSH1 0x40 MSTORE CALLVALUE DUP1 ISZERO PUSH2 0x10 JUMPI PUSH1 0x0 DUP1 REVERT JUMPDEST POP PUSH2 0x99A DUP1 PUSH2 0x20 PUSH1 0x0 CODECOPY PUSH1 0x0 RETURN INVALID PUSH1 0x80 PUSH1 0x40 MSTORE CALLVALUE DUP1 ISZERO PUSH2 0x10 JUMPI PUSH1 0x0 DUP1 REVERT JUMPDEST POP PUSH1 0x4 CALLDATASIZE LT PUSH2 0x36 JUMPI PUSH1 0x0 CALLDATALOAD PUSH1 0xE0 SHR DUP1 PUSH4 0xC2A2747B EQ PUSH2 0x3B JUMPI DUP1 PUSH4 0xCE731A8E EQ PUSH2 0x5C JUMPI JUMPDEST PUSH1 0x0 DUP1 REVERT JUMPDEST PUSH2 0x43 PUSH2 0x78 JUMP JUMPDEST PUSH1 0x40 MLOAD PUSH2 0x53 SWAP5 SWAP4 SWAP3 SWAP2 SWAP1 PUSH2 0x3D9 JUMP JUMPDEST PUSH1 0x40 MLOAD DUP1 SWAP2 SUB SWAP1 RETURN JUMPDEST PUSH2 0x76 PUSH1 0x4 DUP1 CALLDATASIZE SUB DUP2 ADD SWAP1 PUSH2 0x71 SWAP2 SWAP1 PUSH2 0x65B JUMP JUMPDEST PUSH2 0x1A6 JUMP JUMPDEST STOP JUMPDEST PUSH1 0x0 DUP1 PUSH1 0x0 ADD DUP1 SLOAD PUSH2 0x89 SWAP1 PUSH2 0x6D3 JUMP JUMPDEST DUP1 PUSH1 0x1F ADD PUSH1 0x20 DUP1 SWAP2 DIV MUL PUSH1 0x20 ADD PUSH1 0x40 MLOAD SWAP1 DUP2 ADD PUSH1 0x40 MSTORE DUP1 SWAP3 SWAP2 SWAP1 DUP2 DUP2 MSTORE PUSH1 0x20 ADD DUP3 DUP1 SLOAD PUSH2 0xB5 SWAP1 PUSH2 0x6D3 JUMP JUMPDEST DUP1 ISZERO PUSH2 0x102 JUMPI DUP1 PUSH1 0x1F LT PUSH2 0xD7 JUMPI PUSH2 0x100 DUP1 DUP4 SLOAD DIV MUL DUP4 MSTORE SWAP2 PUSH1 0x20 ADD SWAP2 PUSH2 0x102 JUMP JUMPDEST DUP3 ADD SWAP2 SWAP1 PUSH1 0x0 MSTORE PUSH1 0x20 PUSH1 0x0 KECCAK256 SWAP1 JUMPDEST DUP2 SLOAD DUP2 MSTORE SWAP1 PUSH1 0x1 ADD SWAP1 PUSH1 0x20 ADD DUP1 DUP4 GT PUSH2 0xE5 JUMPI DUP3 SWAP1 SUB PUSH1 0x1F AND DUP3 ADD SWAP2 JUMPDEST POP POP POP POP POP SWAP1 DUP1 PUSH1 0x1 ADD SLOAD SWAP1 DUP1 PUSH1 0x2 ADD DUP1 SLOAD PUSH2 0x11D SWAP1 PUSH2 0x6D3 JUMP JUMPDEST DUP1 PUSH1 0x1F ADD PUSH1 0x20 DUP1 SWAP2 DIV MUL PUSH1 0x20 ADD PUSH1 0x40 MLOAD SWAP1 DUP2 ADD PUSH1 0x40 MSTORE DUP1 SWAP3 SWAP2 SWAP1 DUP2 DUP2 MSTORE PUSH1 0x20 ADD DUP3 DUP1 SLOAD PUSH2 0x149 SWAP1 PUSH2 0x6D3 JUMP JUMPDEST DUP1 ISZERO PUSH2 0x196 JUMPI DUP1 PUSH1 0x1F LT PUSH2 0x16B JUMPI PUSH2 0x100 DUP1 DUP4 SLOAD DIV MUL DUP4 MSTORE SWAP2 PUSH1 0x20 ADD SWAP2 PUSH2 0x196 JUMP JUMPDEST DUP3 ADD SWAP2 SWAP1 PUSH1 0x0 MSTORE PUSH1 0x20 PUSH1 0x0 KECCAK256 SWAP1 JUMPDEST DUP2 SLOAD DUP2 MSTORE SWAP1 PUSH1 0x1 ADD SWAP1 PUSH1 0x20 ADD DUP1 DUP4 GT PUSH2 0x179 JUMPI DUP3 SWAP1 SUB PUSH1 0x1F AND DUP3 ADD SWAP2 JUMPDEST POP POP POP POP POP SWAP1 DUP1 PUSH1 0x3 ADD SLOAD SWAP1 POP DUP5 JUMP JUMPDEST PUSH1 0x0 DUP1 PUSH1 0x40 MLOAD DUP1 PUSH1 0x80 ADD PUSH1 0x40 MSTORE SWAP1 DUP2 PUSH1 0x0 DUP3 ADD DUP1 SLOAD PUSH2 0x1C4 SWAP1 PUSH2 0x6D3 JUMP JUMPDEST DUP1 PUSH1 0x1F ADD PUSH1 0x20 DUP1 SWAP2 DIV MUL PUSH1 0x20 ADD PUSH1 0x40 MLOAD SWAP1 DUP2 ADD PUSH1 0x40 MSTORE DUP1 SWAP3 SWAP2 SWAP1 DUP2 DUP2 MSTORE PUSH1 0x20 ADD DUP3 DUP1 SLOAD PUSH2 0x1F0 SWAP1 PUSH2 0x6D3 JUMP JUMPDEST DUP1 ISZERO PUSH2 0x23D JUMPI DUP1 PUSH1 0x1F LT PUSH2 0x212 JUMPI PUSH2 0x100 DUP1 DUP4 SLOAD DIV MUL DUP4 MSTORE SWAP2 PUSH1 0x20 ADD SWAP2 PUSH2 0x23D JUMP JUMPDEST DUP3 ADD SWAP2 SWAP1 PUSH1 0x0 MSTORE PUSH1 0x20 PUSH1 0x0 KECCAK256 SWAP1 JUMPDEST DUP2 SLOAD DUP2 MSTORE SWAP1 PUSH1 0x1 ADD SWAP1 PUSH1 0x20 ADD DUP1 DUP4 GT PUSH2 0x220 JUMPI DUP3 SWAP1 SUB PUSH1 0x1F AND DUP3 ADD SWAP2 JUMPDEST POP POP POP POP POP DUP2 MSTORE PUSH1 0x20 ADD PUSH1 0x1 DUP3 ADD SLOAD DUP2 MSTORE PUSH1 0x20 ADD PUSH1 0x2 DUP3 ADD DUP1 SLOAD PUSH2 0x260 SWAP1 PUSH2 0x6D3 JUMP JUMPDEST DUP1 PUSH1 0x1F ADD PUSH1 0x20 DUP1 SWAP2 DIV MUL PUSH1 0x20 ADD PUSH1 0x40 MLOAD SWAP1 DUP2 ADD PUSH1 0x40 MSTORE DUP1 SWAP3 SWAP2 SWAP1 DUP2 DUP2 MSTORE PUSH1 0x20 ADD DUP3 DUP1 SLOAD PUSH2 0x28C SWAP1 PUSH2 0x6D3 JUMP JUMPDEST DUP1 ISZERO PUSH2 0x2D9 JUMPI DUP1 PUSH1 0x1F LT PUSH2 0x2AE JUMPI PUSH2 0x100 DUP1 DUP4 SLOAD DIV MUL DUP4 MSTORE SWAP2 PUSH1 0x20 ADD SWAP2 PUSH2 0x2D9 JUMP JUMPDEST DUP3 ADD SWAP2 SWAP1 PUSH1 0x0 MSTORE PUSH1 0x20 PUSH1 0x0 KECCAK256 SWAP1 JUMPDEST DUP2 SLOAD DUP2 MSTORE SWAP1 PUSH1 0x1 ADD SWAP1 PUSH1 0x20 ADD DUP1 DUP4 GT PUSH2 0x2BC JUMPI DUP3 SWAP1 SUB PUSH1 0x1F AND DUP3 ADD SWAP2 JUMPDEST POP POP POP POP POP DUP2 MSTORE PUSH1 0x20 ADD PUSH1 0x3 DUP3 ADD SLOAD DUP2 MSTORE POP POP SWAP1 POP PUSH32 0x678C69CB410C2E7747D2A9047D7323C866BD91A1AFFB961D032BF6D7E7267B61 DUP2 PUSH1 0x0 TIMESTAMP NUMBER PUSH1 0x40 MLOAD PUSH2 0x324 SWAP5 SWAP4 SWAP3 SWAP2 SWAP1 PUSH2 0x911 JUMP JUMPDEST PUSH1 0x40 MLOAD DUP1 SWAP2 SUB SWAP1 LOG1 POP POP JUMP JUMPDEST PUSH1 0x0 DUP2 MLOAD SWAP1 POP SWAP2 SWAP1 POP JUMP JUMPDEST PUSH1 0x0 DUP3 DUP3 MSTORE PUSH1 0x20 DUP3 ADD SWAP1 POP SWAP3 SWAP2 POP POP JUMP JUMPDEST PUSH1 0x0 JUMPDEST DUP4 DUP2 LT ISZERO PUSH2 0x36A JUMPI DUP1 DUP3 ADD MLOAD DUP2 DUP5 ADD MSTORE PUSH1 0x20 DUP2 ADD SWAP1 POP PUSH2 0x34F JUMP JUMPDEST PUSH1 0x0 DUP5 DUP5 ADD MSTORE POP POP POP POP JUMP JUMPDEST PUSH1 0x0 PUSH1 0x1F NOT PUSH1 0x1F DUP4 ADD AND SWAP1 POP SWAP2 SWAP1 POP JUMP JUMPDEST PUSH1 0x0 PUSH2 0x392 DUP3 PUSH2 0x330 JUMP JUMPDEST PUSH2 0x39C DUP2 DUP6 PUSH2 0x33B JUMP JUMPDEST SWAP4 POP PUSH2 0x3AC DUP2 DUP6 PUSH1 0x20 DUP7 ADD PUSH2 0x34C JUMP JUMPDEST PUSH2 0x3B5 DUP2 PUSH2 0x376 JUMP JUMPDEST DUP5 ADD SWAP2 POP POP SWAP3 SWAP2 POP POP JUMP JUMPDEST PUSH1 0x0 DUP2 SWAP1 POP SWAP2 SWAP1 POP JUMP JUMPDEST PUSH2 0x3D3 DUP2 PUSH2 0x3C0 JUMP JUMPDEST DUP3 MSTORE POP POP JUMP JUMPDEST PUSH1 0x0 PUSH1 0x80 DUP3 ADD SWAP1 POP DUP2 DUP2 SUB PUSH1 0x0 DUP4 ADD MSTORE PUSH2 0x3F3 DUP2 DUP8 PUSH2 0x387 JUMP JUMPDEST SWAP1 POP PUSH2 0x402 PUSH1 0x20 DUP4 ADD DUP7 PUSH2 0x3CA JUMP JUMPDEST DUP2 DUP2 SUB PUSH1 0x40 DUP4 ADD MSTORE PUSH2 0x414 DUP2 DUP6 PUSH2 0x387 JUMP JUMPDEST SWAP1 POP PUSH2 0x423 PUSH1 0x60 DUP4 ADD DUP5 PUSH2 0x3CA JUMP JUMPDEST SWAP6 SWAP5 POP POP POP POP POP JUMP JUMPDEST PUSH1 0x0 PUSH1 0x40 MLOAD SWAP1 POP SWAP1 JUMP JUMPDEST PUSH1 0x0 DUP1 REVERT JUMPDEST PUSH1 0x0 DUP1 REVERT JUMPDEST PUSH1 0x0 DUP1 REVERT JUMPDEST PUSH32 0x4E487B7100000000000000000000000000000000000000000000000000000000 PUSH1 0x0 MSTORE PUSH1 0x41 PUSH1 0x4 MSTORE PUSH1 0x24 PUSH1 0x0 REVERT JUMPDEST PUSH2 0x47D DUP3 PUSH2 0x376 JUMP JUMPDEST DUP2 ADD DUP2 DUP2 LT PUSH8 0xFFFFFFFFFFFFFFFF DUP3 GT OR ISZERO PUSH2 0x49C JUMPI PUSH2 0x49B PUSH2 0x445 JUMP JUMPDEST JUMPDEST DUP1 PUSH1 0x40 MSTORE POP POP POP JUMP JUMPDEST PUSH1 0x0 PUSH2 0x4AF PUSH2 0x42C JUMP JUMPDEST SWAP1 POP PUSH2 0x4BB DUP3 DUP3 PUSH2 0x474 JUMP JUMPDEST SWAP2 SWAP1 POP JUMP JUMPDEST PUSH1 0x0 DUP1 REVERT JUMPDEST PUSH1 0x0 DUP1 REVERT JUMPDEST PUSH1 0x0 DUP1 REVERT JUMPDEST PUSH1 0x0 PUSH8 0xFFFFFFFFFFFFFFFF DUP3 GT ISZERO PUSH2 0x4EA JUMPI PUSH2 0x4E9 PUSH2 0x445 JUMP JUMPDEST JUMPDEST PUSH2 0x4F3 DUP3 PUSH2 0x376 JUMP JUMPDEST SWAP1 POP PUSH1 0x20 DUP2 ADD SWAP1 POP SWAP2 SWAP1 POP JUMP JUMPDEST DUP3 DUP2 DUP4 CALLDATACOPY PUSH1 0x0 DUP4 DUP4 ADD MSTORE POP POP POP JUMP JUMPDEST PUSH1 0x0 PUSH2 0x522 PUSH2 0x51D DUP5 PUSH2 0x4CF JUMP JUMPDEST PUSH2 0x4A5 JUMP JUMPDEST SWAP1 POP DUP3 DUP2 MSTORE PUSH1 0x20 DUP2 ADD DUP5 DUP5 DUP5 ADD GT ISZERO PUSH2 0x53E JUMPI PUSH2 0x53D PUSH2 0x4CA JUMP JUMPDEST JUMPDEST PUSH2 0x549 DUP5 DUP3 DUP6 PUSH2 0x500 JUMP JUMPDEST POP SWAP4 SWAP3 POP POP POP JUMP JUMPDEST PUSH1 0x0 DUP3 PUSH1 0x1F DUP4 ADD SLT PUSH2 0x566 JUMPI PUSH2 0x565 PUSH2 0x4C5 JUMP JUMPDEST JUMPDEST DUP2 CALLDATALOAD PUSH2 0x576 DUP5 DUP3 PUSH1 0x20 DUP7 ADD PUSH2 0x50F JUMP JUMPDEST SWAP2 POP POP SWAP3 SWAP2 POP POP JUMP JUMPDEST PUSH2 0x588 DUP2 PUSH2 0x3C0 JUMP JUMPDEST DUP2 EQ PUSH2 0x593 JUMPI PUSH1 0x0 DUP1 REVERT JUMPDEST POP JUMP JUMPDEST PUSH1 0x0 DUP2 CALLDATALOAD SWAP1 POP PUSH2 0x5A5 DUP2 PUSH2 0x57F JUMP JUMPDEST SWAP3 SWAP2 POP POP JUMP JUMPDEST PUSH1 0x0 PUSH1 0x80 DUP3 DUP5 SUB SLT ISZERO PUSH2 0x5C1 JUMPI PUSH2 0x5C0 PUSH2 0x440 JUMP JUMPDEST JUMPDEST PUSH2 0x5CB PUSH1 0x80 PUSH2 0x4A5 JUMP JUMPDEST SWAP1 POP PUSH1 0x0 DUP3 ADD CALLDATALOAD PUSH8 0xFFFFFFFFFFFFFFFF DUP2 GT ISZERO PUSH2 0x5EB JUMPI PUSH2 0x5EA PUSH2 0x4C0 JUMP JUMPDEST JUMPDEST PUSH2 0x5F7 DUP5 DUP3 DUP6 ADD PUSH2 0x551 JUMP JUMPDEST PUSH1 0x0 DUP4 ADD MSTORE POP PUSH1 0x20 PUSH2 0x60B DUP5 DUP3 DUP6 ADD PUSH2 0x596 JUMP JUMPDEST PUSH1 0x20 DUP4 ADD MSTORE POP PUSH1 0x40 DUP3 ADD CALLDATALOAD PUSH8 0xFFFFFFFFFFFFFFFF DUP2 GT ISZERO PUSH2 0x62F JUMPI PUSH2 0x62E PUSH2 0x4C0 JUMP JUMPDEST JUMPDEST PUSH2 0x63B DUP5 DUP3 DUP6 ADD PUSH2 0x551 JUMP JUMPDEST PUSH1 0x40 DUP4 ADD MSTORE POP PUSH1 0x60 PUSH2 0x64F DUP5 DUP3 DUP6 ADD PUSH2 0x596 JUMP JUMPDEST PUSH1 0x60 DUP4 ADD MSTORE POP SWAP3 SWAP2 POP POP JUMP JUMPDEST PUSH1 0x0 PUSH1 0x20 DUP3 DUP5 SUB SLT ISZERO PUSH2 0x671 JUMPI PUSH2 0x670 PUSH2 0x436 JUMP JUMPDEST JUMPDEST PUSH1 0x0 DUP3 ADD CALLDATALOAD PUSH8 0xFFFFFFFFFFFFFFFF DUP2 GT ISZERO PUSH2 0x68F JUMPI PUSH2 0x68E PUSH2 0x43B JUMP JUMPDEST JUMPDEST PUSH2 0x69B DUP5 DUP3 DUP6 ADD PUSH2 0x5AB JUMP JUMPDEST SWAP2 POP POP SWAP3 SWAP2 POP POP JUMP JUMPDEST PUSH32 0x4E487B7100000000000000000000000000000000000000000000000000000000 PUSH1 0x0 MSTORE PUSH1 0x22 PUSH1 0x4 MSTORE PUSH1 0x24 PUSH1 0x0 REVERT JUMPDEST PUSH1 0x0 PUSH1 0x2 DUP3 DIV SWAP1 POP PUSH1 0x1 DUP3 AND DUP1 PUSH2 0x6EB JUMPI PUSH1 0x7F DUP3 AND SWAP2 POP JUMPDEST PUSH1 0x20 DUP3 LT DUP2 SUB PUSH2 0x6FE JUMPI PUSH2 0x6FD PUSH2 0x6A4 JUMP JUMPDEST JUMPDEST POP SWAP2 SWAP1 POP JUMP JUMPDEST PUSH1 0x0 DUP3 DUP3 MSTORE PUSH1 0x20 DUP3 ADD SWAP1 POP SWAP3 SWAP2 POP POP JUMP JUMPDEST PUSH1 0x0 PUSH2 0x720 DUP3 PUSH2 0x330 JUMP JUMPDEST PUSH2 0x72A DUP2 DUP6 PUSH2 0x704 JUMP JUMPDEST SWAP4 POP PUSH2 0x73A DUP2 DUP6 PUSH1 0x20 DUP7 ADD PUSH2 0x34C JUMP JUMPDEST PUSH2 0x743 DUP2 PUSH2 0x376 JUMP JUMPDEST DUP5 ADD SWAP2 POP POP SWAP3 SWAP2 POP POP JUMP JUMPDEST PUSH2 0x757 DUP2 PUSH2 0x3C0 JUMP JUMPDEST DUP3 MSTORE POP POP JUMP JUMPDEST PUSH1 0x0 PUSH1 0x80 DUP4 ADD PUSH1 0x0 DUP4 ADD MLOAD DUP5 DUP3 SUB PUSH1 0x0 DUP7 ADD MSTORE PUSH2 0x77A DUP3 DUP3 PUSH2 0x715 JUMP JUMPDEST SWAP2 POP POP PUSH1 0x20 DUP4 ADD MLOAD PUSH2 0x78F PUSH1 0x20 DUP7 ADD DUP3 PUSH2 0x74E JUMP JUMPDEST POP PUSH1 0x40 DUP4 ADD MLOAD DUP5 DUP3 SUB PUSH1 0x40 DUP7 ADD MSTORE PUSH2 0x7A7 DUP3 DUP3 PUSH2 0x715 JUMP JUMPDEST SWAP2 POP POP PUSH1 0x60 DUP4 ADD MLOAD PUSH2 0x7BC PUSH1 0x60 DUP7 ADD DUP3 PUSH2 0x74E JUMP JUMPDEST POP DUP1 SWAP2 POP POP SWAP3 SWAP2 POP POP JUMP JUMPDEST PUSH1 0x0 DUP2 SWAP1 POP DUP2 PUSH1 0x0 MSTORE PUSH1 0x20 PUSH1 0x0 KECCAK256 SWAP1 POP SWAP2 SWAP1 POP JUMP JUMPDEST PUSH1 0x0 DUP2 SLOAD PUSH2 0x7E9 DUP2 PUSH2 0x6D3 JUMP JUMPDEST PUSH2 0x7F3 DUP2 DUP7 PUSH2 0x704 JUMP JUMPDEST SWAP5 POP PUSH1 0x1 DUP3 AND PUSH1 0x0 DUP2 EQ PUSH2 0x80E JUMPI PUSH1 0x1 DUP2 EQ PUSH2 0x824 JUMPI PUSH2 0x857 JUMP JUMPDEST PUSH1 0xFF NOT DUP4 AND DUP7 MSTORE DUP2 ISZERO ISZERO PUSH1 0x20 MUL DUP7 ADD SWAP4 POP PUSH2 0x857 JUMP JUMPDEST PUSH2 0x82D DUP6 PUSH2 0x7C7 JUMP JUMPDEST PUSH1 0x0 JUMPDEST DUP4 DUP2 LT ISZERO PUSH2 0x84F JUMPI DUP2 SLOAD DUP2 DUP10 ADD MSTORE PUSH1 0x1 DUP3 ADD SWAP2 POP PUSH1 0x20 DUP2 ADD SWAP1 POP PUSH2 0x830 JUMP JUMPDEST DUP1 DUP9 ADD SWAP6 POP POP POP JUMPDEST POP POP POP SWAP3 SWAP2 POP POP JUMP JUMPDEST PUSH1 0x0 DUP2 PUSH1 0x0 SHR SWAP1 POP SWAP2 SWAP1 POP JUMP JUMPDEST PUSH1 0x0 DUP2 SWAP1 POP SWAP2 SWAP1 POP JUMP JUMPDEST PUSH1 0x0 PUSH2 0x88A PUSH2 0x885 DUP4 PUSH2 0x860 JUMP JUMPDEST PUSH2 0x86D JUMP JUMPDEST SWAP1 POP SWAP2 SWAP1 POP JUMP JUMPDEST PUSH1 0x0 PUSH1 0x80 DUP4 ADD PUSH1 0x0 DUP1 DUP5 ADD DUP6 DUP4 SUB PUSH1 0x0 DUP8 ADD MSTORE PUSH2 0x8AE DUP4 DUP3 PUSH2 0x7DC JUMP JUMPDEST SWAP3 POP POP PUSH1 0x1 DUP5 ADD SLOAD SWAP1 POP PUSH2 0x8C1 DUP2 PUSH2 0x877 JUMP JUMPDEST PUSH2 0x8CE PUSH1 0x20 DUP8 ADD DUP3 PUSH2 0x74E JUMP JUMPDEST POP PUSH1 0x2 DUP5 ADD DUP6 DUP4 SUB PUSH1 0x40 DUP8 ADD MSTORE PUSH2 0x8E5 DUP4 DUP3 PUSH2 0x7DC JUMP JUMPDEST SWAP3 POP POP PUSH1 0x3 DUP5 ADD SLOAD SWAP1 POP PUSH2 0x8F8 DUP2 PUSH2 0x877 JUMP JUMPDEST PUSH2 0x905 PUSH1 0x60 DUP8 ADD DUP3 PUSH2 0x74E JUMP JUMPDEST POP DUP2 SWAP3 POP POP POP SWAP3 SWAP2 POP POP JUMP JUMPDEST PUSH1 0x0 PUSH1 0x80 DUP3 ADD SWAP1 POP DUP2 DUP2 SUB PUSH1 0x0 DUP4 ADD MSTORE PUSH2 0x92B DUP2 DUP8 PUSH2 0x75D JUMP JUMPDEST SWAP1 POP DUP2 DUP2 SUB PUSH1 0x20 DUP4 ADD MSTORE PUSH2 0x93F DUP2 DUP7 PUSH2 0x891 JUMP JUMPDEST SWAP1 POP PUSH2 0x94E PUSH1 0x40 DUP4 ADD DUP6 PUSH2 0x3CA JUMP JUMPDEST PUSH2 0x95B PUSH1 0x60 DUP4 ADD DUP5 PUSH2 0x3CA JUMP JUMPDEST SWAP6 SWAP5 POP POP POP POP POP JUMP INVALID LOG2 PUSH5 0x6970667358 0x22 SLT KECCAK256 0x5C PUSH20 0xD4A5B05771C3E4633898D3EF7FD1DC434FA82516 DUP14 MSTORE8 0xB7 0xFC DUP10 PUSH25 0x64D6CA0F64736F6C6343000812003300000000000000000000 "
		},
		"gasEstimates": {
			"creation": {
				"codeDepositCost": "491600",
				"executionCost": "524",
				"totalCost": "492124"
			},
			"external": {
				"p1()": "infinite",
				"setter((string,uint256,string,uint256))": "infinite"
			}
		},
		"methodIdentifiers": {
			"p1()": "c2a2747b",
			"setter((string,uint256,string,uint256))": "ce731a8e"
		}
	},
	"abi": [
		{
			"anonymous": false,
			"inputs": [
				{
					"components": [
						{
							"internalType": "string",
							"name": "name",
							"type": "string"
						},
						{
							"internalType": "uint256",
							"name": "age",
							"type": "uint256"
						},
						{
							"internalType": "string",
							"name": "gender",
							"type": "string"
						},
						{
							"internalType": "uint256",
							"name": "salary",
							"type": "uint256"
						}
					],
					"indexed": false,
					"internalType": "struct Personcontact.PersonInfo",
					"name": "OldValue",
					"type": "tuple"
				},
				{
					"components": [
						{
							"internalType": "string",
							"name": "name",
							"type": "string"
						},
						{
							"internalType": "uint256",
							"name": "age",
							"type": "uint256"
						},
						{
							"internalType": "string",
							"name": "gender",
							"type": "string"
						},
						{
							"internalType": "uint256",
							"name": "salary",
							"type": "uint256"
						}
					],
					"indexed": false,
					"internalType": "struct Personcontact.PersonInfo",
					"name": "NewValue",
					"type": "tuple"
				},
				{
					"indexed": false,
					"internalType": "uint256",
					"name": "timestamp",
					"type": "uint256"
				},
				{
					"indexed": false,
					"internalType": "uint256",
					"name": "blockNumber",
					"type": "uint256"
				}
			],
			"name": "Update",
			"type": "event"
		},
		{
			"inputs": [],
			"name": "p1",
			"outputs": [
				{
					"internalType": "string",
					"name": "name",
					"type": "string"
				},
				{
					"internalType": "uint256",
					"name": "age",
					"type": "uint256"
				},
				{
					"internalType": "string",
					"name": "gender",
					"type": "string"
				},
				{
					"internalType": "uint256",
					"name": "salary",
					"type": "uint256"
				}
			],
			"stateMutability": "view",
			"type": "function"
		},
		{
			"inputs": [
				{
					"components": [
						{
							"internalType": "string",
							"name": "name",
							"type": "string"
						},
						{
							"internalType": "uint256",
							"name": "age",
							"type": "uint256"
						},
						{
							"internalType": "string",
							"name": "gender",
							"type": "string"
						},
						{
							"internalType": "uint256",
							"name": "salary",
							"type": "uint256"
						}
					],
					"internalType": "struct Personcontact.PersonInfo",
					"name": "",
					"type": "tuple"
				}
			],
			"name": "setter",
			"outputs": [],
			"stateMutability": "nonpayable",
			"type": "function"
		}
	]
}