{
	"lab 21-08-2023/trycatch/task.sol": {
		"TryCatchExample": {
			"abi": [
				{
					"inputs": [],
					"stateMutability": "nonpayable",
					"type": "constructor"
				},
				{
					"inputs": [
						{
							"internalType": "uint256",
							"name": "x",
							"type": "uint256"
						},
						{
							"internalType": "uint256",
							"name": "y",
							"type": "uint256"
						}
					],
					"name": "safeDivision",
					"outputs": [
						{
							"internalType": "uint256",
							"name": "result",
							"type": "uint256"
						},
						{
							"internalType": "bool",
							"name": "success",
							"type": "bool"
						}
					],
					"stateMutability": "view",
					"type": "function"
				},
				{
					"inputs": [],
					"name": "simpleDivision",
					"outputs": [
						{
							"internalType": "contract SimpleDivision",
							"name": "",
							"type": "address"
						}
					],
					"stateMutability": "view",
					"type": "function"
				}
			],
			"devdoc": {
				"kind": "dev",
				"methods": {},
				"version": 1
			},
			"evm": {
				"assembly": "    /* \"lab 21-08-2023/trycatch/task.sol\":258:1060  contract TryCatchExample {... */\n  mstore(0x40, 0x80)\n    /* \"lab 21-08-2023/trycatch/task.sol\":335:405  constructor() {... */\n  callvalue\n  dup1\n  iszero\n  tag_1\n  jumpi\n  0x00\n  dup1\n  revert\ntag_1:\n  pop\n    /* \"lab 21-08-2023/trycatch/task.sol\":377:397  new SimpleDivision() */\n  mload(0x40)\n  tag_4\n  swap1\n  tag_5\n  jump\t// in\ntag_4:\n  mload(0x40)\n  dup1\n  swap2\n  sub\n  swap1\n  0x00\n  create\n  dup1\n  iszero\n  dup1\n  iszero\n  tag_6\n  jumpi\n  returndatasize\n  0x00\n  dup1\n  returndatacopy\n  revert(0x00, returndatasize)\ntag_6:\n  pop\n    /* \"lab 21-08-2023/trycatch/task.sol\":360:374  simpleDivision */\n  0x00\n  dup1\n    /* \"lab 21-08-2023/trycatch/task.sol\":360:397  simpleDivision = new SimpleDivision() */\n  0x0100\n  exp\n  dup2\n  sload\n  dup2\n  0xffffffffffffffffffffffffffffffffffffffff\n  mul\n  not\n  and\n  swap1\n  dup4\n  0xffffffffffffffffffffffffffffffffffffffff\n  and\n  mul\n  or\n  swap1\n  sstore\n  pop\n    /* \"lab 21-08-2023/trycatch/task.sol\":258:1060  contract TryCatchExample {... */\n  jump(tag_7)\ntag_5:\n  dataSize(sub_1)\n  dup1\n  dataOffset(sub_1)\n  dup4\n  codecopy\n  add\n  swap1\n  jump\t// out\ntag_7:\n  dataSize(sub_0)\n  dup1\n  dataOffset(sub_0)\n  0x00\n  codecopy\n  0x00\n  return\nstop\n\nsub_0: assembly {\n        /* \"lab 21-08-2023/trycatch/task.sol\":258:1060  contract TryCatchExample {... */\n      mstore(0x40, 0x80)\n      callvalue\n      dup1\n      iszero\n      tag_1\n      jumpi\n      0x00\n      dup1\n      revert\n    tag_1:\n      pop\n      jumpi(tag_2, lt(calldatasize, 0x04))\n      shr(0xe0, calldataload(0x00))\n      dup1\n      0x3eeab704\n      eq\n      tag_3\n      jumpi\n      dup1\n      0xaf0bb483\n      eq\n      tag_4\n      jumpi\n    tag_2:\n      0x00\n      dup1\n      revert\n        /* \"lab 21-08-2023/trycatch/task.sol\":413:1057  function safeDivision(uint x, uint y) external view returns (uint result, bool success) {... */\n    tag_3:\n      tag_5\n      0x04\n      dup1\n      calldatasize\n      sub\n      dup2\n      add\n      swap1\n      tag_6\n      swap2\n      swap1\n      tag_7\n      jump\t// in\n    tag_6:\n      tag_8\n      jump\t// in\n    tag_5:\n      mload(0x40)\n      tag_9\n      swap3\n      swap2\n      swap1\n      tag_10\n      jump\t// in\n    tag_9:\n      mload(0x40)\n      dup1\n      swap2\n      sub\n      swap1\n      return\n        /* \"lab 21-08-2023/trycatch/task.sol\":290:326  SimpleDivision public simpleDivision */\n    tag_4:\n      tag_11\n      tag_12\n      jump\t// in\n    tag_11:\n      mload(0x40)\n      tag_13\n      swap2\n      swap1\n      tag_14\n      jump\t// in\n    tag_13:\n      mload(0x40)\n      dup1\n      swap2\n      sub\n      swap1\n      return\n        /* \"lab 21-08-2023/trycatch/task.sol\":413:1057  function safeDivision(uint x, uint y) external view returns (uint result, bool success) {... */\n    tag_8:\n        /* \"lab 21-08-2023/trycatch/task.sol\":474:485  uint result */\n      0x00\n        /* \"lab 21-08-2023/trycatch/task.sol\":487:499  bool success */\n      dup1\n        /* \"lab 21-08-2023/trycatch/task.sol\":516:530  simpleDivision */\n      0x00\n      dup1\n      sload\n      swap1\n      0x0100\n      exp\n      swap1\n      div\n      0xffffffffffffffffffffffffffffffffffffffff\n      and\n        /* \"lab 21-08-2023/trycatch/task.sol\":516:539  simpleDivision.Division */\n      0xffffffffffffffffffffffffffffffffffffffff\n      and\n      0x407787e6\n        /* \"lab 21-08-2023/trycatch/task.sol\":540:541  x */\n      dup6\n        /* \"lab 21-08-2023/trycatch/task.sol\":543:544  y */\n      dup6\n        /* \"lab 21-08-2023/trycatch/task.sol\":516:545  simpleDivision.Division(x, y) */\n      mload(0x40)\n      dup4\n      0xffffffff\n      and\n      0xe0\n      shl\n      dup2\n      mstore\n      0x04\n      add\n      tag_16\n      swap3\n      swap2\n      swap1\n      tag_17\n      jump\t// in\n    tag_16:\n      0x20\n      mload(0x40)\n      dup1\n      dup4\n      sub\n      dup2\n      dup7\n      gas\n      staticcall\n      swap3\n      pop\n      pop\n      pop\n      dup1\n      iszero\n      tag_18\n      jumpi\n      pop\n      mload(0x40)\n      returndatasize\n      not(0x1f)\n      0x1f\n      dup3\n      add\n      and\n      dup3\n      add\n      dup1\n      0x40\n      mstore\n      pop\n      dup2\n      add\n      swap1\n      tag_19\n      swap2\n      swap1\n      tag_20\n      jump\t// in\n    tag_19:\n      0x01\n    tag_18:\n        /* \"lab 21-08-2023/trycatch/task.sol\":512:1050  try simpleDivision.Division(x, y) returns (uint _result) {... */\n      tag_21\n      jumpi\n      tag_25\n      tag_26\n      jump\t// in\n    tag_25:\n      dup1\n      0x08c379a0\n      sub\n      tag_24\n      jumpi\n      pop\n      tag_27\n      tag_28\n      jump\t// in\n    tag_27:\n      dup1\n      tag_29\n      jumpi\n      pop\n      jump(tag_23)\n    tag_29:\n        /* \"lab 21-08-2023/trycatch/task.sol\":700:701  0 */\n      0x00\n        /* \"lab 21-08-2023/trycatch/task.sol\":691:701  result = 0 */\n      swap3\n      pop\n        /* \"lab 21-08-2023/trycatch/task.sol\":764:769  false */\n      0x00\n        /* \"lab 21-08-2023/trycatch/task.sol\":754:769  success = false */\n      swap2\n      pop\n        /* \"lab 21-08-2023/trycatch/task.sol\":642:850  catch Error(string memory reason) {... */\n      pop\n        /* \"lab 21-08-2023/trycatch/task.sol\":512:1050  try simpleDivision.Division(x, y) returns (uint _result) {... */\n      jump(tag_22)\n    tag_24:\n      pop\n    tag_23:\n      returndatasize\n      dup1\n      0x00\n      dup2\n      eq\n      tag_31\n      jumpi\n      mload(0x40)\n      swap2\n      pop\n      and(add(returndatasize, 0x3f), not(0x1f))\n      dup3\n      add\n      0x40\n      mstore\n      returndatasize\n      dup3\n      mstore\n      returndatasize\n      0x00\n      0x20\n      dup5\n      add\n      returndatacopy\n      jump(tag_30)\n    tag_31:\n      0x60\n      swap2\n      pop\n    tag_30:\n      pop\n        /* \"lab 21-08-2023/trycatch/task.sol\":913:914  0 */\n      0x00\n        /* \"lab 21-08-2023/trycatch/task.sol\":904:914  result = 0 */\n      swap3\n      pop\n        /* \"lab 21-08-2023/trycatch/task.sol\":977:982  false */\n      0x00\n        /* \"lab 21-08-2023/trycatch/task.sol\":967:982  success = false */\n      swap2\n      pop\n        /* \"lab 21-08-2023/trycatch/task.sol\":851:1050  catch (bytes memory /*lowLevelData*/) {... */\n      pop\n        /* \"lab 21-08-2023/trycatch/task.sol\":512:1050  try simpleDivision.Division(x, y) returns (uint _result) {... */\n    tag_22:\n      jump(tag_32)\n    tag_21:\n        /* \"lab 21-08-2023/trycatch/task.sol\":593:600  _result */\n      dup1\n        /* \"lab 21-08-2023/trycatch/task.sol\":584:600  result = _result */\n      swap3\n      pop\n        /* \"lab 21-08-2023/trycatch/task.sol\":625:629  true */\n      0x01\n        /* \"lab 21-08-2023/trycatch/task.sol\":615:629  success = true */\n      swap2\n      pop\n        /* \"lab 21-08-2023/trycatch/task.sol\":546:641  returns (uint _result) {... */\n      pop\n        /* \"lab 21-08-2023/trycatch/task.sol\":512:1050  try simpleDivision.Division(x, y) returns (uint _result) {... */\n    tag_32:\n        /* \"lab 21-08-2023/trycatch/task.sol\":413:1057  function safeDivision(uint x, uint y) external view returns (uint result, bool success) {... */\n      swap3\n      pop\n      swap3\n      swap1\n      pop\n      jump\t// out\n        /* \"lab 21-08-2023/trycatch/task.sol\":290:326  SimpleDivision public simpleDivision */\n    tag_12:\n      0x00\n      dup1\n      sload\n      swap1\n      0x0100\n      exp\n      swap1\n      div\n      0xffffffffffffffffffffffffffffffffffffffff\n      and\n      dup2\n      jump\t// out\n        /* \"#utility.yul\":7:82   */\n    tag_33:\n        /* \"#utility.yul\":40:46   */\n      0x00\n        /* \"#utility.yul\":73:75   */\n      0x40\n        /* \"#utility.yul\":67:76   */\n      mload\n        /* \"#utility.yul\":57:76   */\n      swap1\n      pop\n        /* \"#utility.yul\":7:82   */\n      swap1\n      jump\t// out\n        /* \"#utility.yul\":88:205   */\n    tag_34:\n        /* \"#utility.yul\":197:198   */\n      0x00\n        /* \"#utility.yul\":194:195   */\n      dup1\n        /* \"#utility.yul\":187:199   */\n      revert\n        /* \"#utility.yul\":334:411   */\n    tag_36:\n        /* \"#utility.yul\":371:378   */\n      0x00\n        /* \"#utility.yul\":400:405   */\n      dup2\n        /* \"#utility.yul\":389:405   */\n      swap1\n      pop\n        /* \"#utility.yul\":334:411   */\n      swap2\n      swap1\n      pop\n      jump\t// out\n        /* \"#utility.yul\":417:539   */\n    tag_37:\n        /* \"#utility.yul\":490:514   */\n      tag_59\n        /* \"#utility.yul\":508:513   */\n      dup2\n        /* \"#utility.yul\":490:514   */\n      tag_36\n      jump\t// in\n    tag_59:\n        /* \"#utility.yul\":483:488   */\n      dup2\n        /* \"#utility.yul\":480:515   */\n      eq\n        /* \"#utility.yul\":470:533   */\n      tag_60\n      jumpi\n        /* \"#utility.yul\":529:530   */\n      0x00\n        /* \"#utility.yul\":526:527   */\n      dup1\n        /* \"#utility.yul\":519:531   */\n      revert\n        /* \"#utility.yul\":470:533   */\n    tag_60:\n        /* \"#utility.yul\":417:539   */\n      pop\n      jump\t// out\n        /* \"#utility.yul\":545:684   */\n    tag_38:\n        /* \"#utility.yul\":591:596   */\n      0x00\n        /* \"#utility.yul\":629:635   */\n      dup2\n        /* \"#utility.yul\":616:636   */\n      calldataload\n        /* \"#utility.yul\":607:636   */\n      swap1\n      pop\n        /* \"#utility.yul\":645:678   */\n      tag_62\n        /* \"#utility.yul\":672:677   */\n      dup2\n        /* \"#utility.yul\":645:678   */\n      tag_37\n      jump\t// in\n    tag_62:\n        /* \"#utility.yul\":545:684   */\n      swap3\n      swap2\n      pop\n      pop\n      jump\t// out\n        /* \"#utility.yul\":690:1164   */\n    tag_7:\n        /* \"#utility.yul\":758:764   */\n      0x00\n        /* \"#utility.yul\":766:772   */\n      dup1\n        /* \"#utility.yul\":815:817   */\n      0x40\n        /* \"#utility.yul\":803:812   */\n      dup4\n        /* \"#utility.yul\":794:801   */\n      dup6\n        /* \"#utility.yul\":790:813   */\n      sub\n        /* \"#utility.yul\":786:818   */\n      slt\n        /* \"#utility.yul\":783:902   */\n      iszero\n      tag_64\n      jumpi\n        /* \"#utility.yul\":821:900   */\n      tag_65\n      tag_34\n      jump\t// in\n    tag_65:\n        /* \"#utility.yul\":783:902   */\n    tag_64:\n        /* \"#utility.yul\":941:942   */\n      0x00\n        /* \"#utility.yul\":966:1019   */\n      tag_66\n        /* \"#utility.yul\":1011:1018   */\n      dup6\n        /* \"#utility.yul\":1002:1008   */\n      dup3\n        /* \"#utility.yul\":991:1000   */\n      dup7\n        /* \"#utility.yul\":987:1009   */\n      add\n        /* \"#utility.yul\":966:1019   */\n      tag_38\n      jump\t// in\n    tag_66:\n        /* \"#utility.yul\":956:1019   */\n      swap3\n      pop\n        /* \"#utility.yul\":912:1029   */\n      pop\n        /* \"#utility.yul\":1068:1070   */\n      0x20\n        /* \"#utility.yul\":1094:1147   */\n      tag_67\n        /* \"#utility.yul\":1139:1146   */\n      dup6\n        /* \"#utility.yul\":1130:1136   */\n      dup3\n        /* \"#utility.yul\":1119:1128   */\n      dup7\n        /* \"#utility.yul\":1115:1137   */\n      add\n        /* \"#utility.yul\":1094:1147   */\n      tag_38\n      jump\t// in\n    tag_67:\n        /* \"#utility.yul\":1084:1147   */\n      swap2\n      pop\n        /* \"#utility.yul\":1039:1157   */\n      pop\n        /* \"#utility.yul\":690:1164   */\n      swap3\n      pop\n      swap3\n      swap1\n      pop\n      jump\t// out\n        /* \"#utility.yul\":1170:1288   */\n    tag_39:\n        /* \"#utility.yul\":1257:1281   */\n      tag_69\n        /* \"#utility.yul\":1275:1280   */\n      dup2\n        /* \"#utility.yul\":1257:1281   */\n      tag_36\n      jump\t// in\n    tag_69:\n        /* \"#utility.yul\":1252:1255   */\n      dup3\n        /* \"#utility.yul\":1245:1282   */\n      mstore\n        /* \"#utility.yul\":1170:1288   */\n      pop\n      pop\n      jump\t// out\n        /* \"#utility.yul\":1294:1384   */\n    tag_40:\n        /* \"#utility.yul\":1328:1335   */\n      0x00\n        /* \"#utility.yul\":1371:1376   */\n      dup2\n        /* \"#utility.yul\":1364:1377   */\n      iszero\n        /* \"#utility.yul\":1357:1378   */\n      iszero\n        /* \"#utility.yul\":1346:1378   */\n      swap1\n      pop\n        /* \"#utility.yul\":1294:1384   */\n      swap2\n      swap1\n      pop\n      jump\t// out\n        /* \"#utility.yul\":1390:1499   */\n    tag_41:\n        /* \"#utility.yul\":1471:1492   */\n      tag_72\n        /* \"#utility.yul\":1486:1491   */\n      dup2\n        /* \"#utility.yul\":1471:1492   */\n      tag_40\n      jump\t// in\n    tag_72:\n        /* \"#utility.yul\":1466:1469   */\n      dup3\n        /* \"#utility.yul\":1459:1493   */\n      mstore\n        /* \"#utility.yul\":1390:1499   */\n      pop\n      pop\n      jump\t// out\n        /* \"#utility.yul\":1505:1825   */\n    tag_10:\n        /* \"#utility.yul\":1620:1624   */\n      0x00\n        /* \"#utility.yul\":1658:1660   */\n      0x40\n        /* \"#utility.yul\":1647:1656   */\n      dup3\n        /* \"#utility.yul\":1643:1661   */\n      add\n        /* \"#utility.yul\":1635:1661   */\n      swap1\n      pop\n        /* \"#utility.yul\":1671:1742   */\n      tag_74\n        /* \"#utility.yul\":1739:1740   */\n      0x00\n        /* \"#utility.yul\":1728:1737   */\n      dup4\n        /* \"#utility.yul\":1724:1741   */\n      add\n        /* \"#utility.yul\":1715:1721   */\n      dup6\n        /* \"#utility.yul\":1671:1742   */\n      tag_39\n      jump\t// in\n    tag_74:\n        /* \"#utility.yul\":1752:1818   */\n      tag_75\n        /* \"#utility.yul\":1814:1816   */\n      0x20\n        /* \"#utility.yul\":1803:1812   */\n      dup4\n        /* \"#utility.yul\":1799:1817   */\n      add\n        /* \"#utility.yul\":1790:1796   */\n      dup5\n        /* \"#utility.yul\":1752:1818   */\n      tag_41\n      jump\t// in\n    tag_75:\n        /* \"#utility.yul\":1505:1825   */\n      swap4\n      swap3\n      pop\n      pop\n      pop\n      jump\t// out\n        /* \"#utility.yul\":1831:1957   */\n    tag_42:\n        /* \"#utility.yul\":1868:1875   */\n      0x00\n        /* \"#utility.yul\":1908:1950   */\n      0xffffffffffffffffffffffffffffffffffffffff\n        /* \"#utility.yul\":1901:1906   */\n      dup3\n        /* \"#utility.yul\":1897:1951   */\n      and\n        /* \"#utility.yul\":1886:1951   */\n      swap1\n      pop\n        /* \"#utility.yul\":1831:1957   */\n      swap2\n      swap1\n      pop\n      jump\t// out\n        /* \"#utility.yul\":1963:2023   */\n    tag_43:\n        /* \"#utility.yul\":1991:1994   */\n      0x00\n        /* \"#utility.yul\":2012:2017   */\n      dup2\n        /* \"#utility.yul\":2005:2017   */\n      swap1\n      pop\n        /* \"#utility.yul\":1963:2023   */\n      swap2\n      swap1\n      pop\n      jump\t// out\n        /* \"#utility.yul\":2029:2171   */\n    tag_44:\n        /* \"#utility.yul\":2079:2088   */\n      0x00\n        /* \"#utility.yul\":2112:2165   */\n      tag_79\n        /* \"#utility.yul\":2130:2164   */\n      tag_80\n        /* \"#utility.yul\":2139:2163   */\n      tag_81\n        /* \"#utility.yul\":2157:2162   */\n      dup5\n        /* \"#utility.yul\":2139:2163   */\n      tag_42\n      jump\t// in\n    tag_81:\n        /* \"#utility.yul\":2130:2164   */\n      tag_43\n      jump\t// in\n    tag_80:\n        /* \"#utility.yul\":2112:2165   */\n      tag_42\n      jump\t// in\n    tag_79:\n        /* \"#utility.yul\":2099:2165   */\n      swap1\n      pop\n        /* \"#utility.yul\":2029:2171   */\n      swap2\n      swap1\n      pop\n      jump\t// out\n        /* \"#utility.yul\":2177:2303   */\n    tag_45:\n        /* \"#utility.yul\":2227:2236   */\n      0x00\n        /* \"#utility.yul\":2260:2297   */\n      tag_83\n        /* \"#utility.yul\":2291:2296   */\n      dup3\n        /* \"#utility.yul\":2260:2297   */\n      tag_44\n      jump\t// in\n    tag_83:\n        /* \"#utility.yul\":2247:2297   */\n      swap1\n      pop\n        /* \"#utility.yul\":2177:2303   */\n      swap2\n      swap1\n      pop\n      jump\t// out\n        /* \"#utility.yul\":2309:2456   */\n    tag_46:\n        /* \"#utility.yul\":2380:2389   */\n      0x00\n        /* \"#utility.yul\":2413:2450   */\n      tag_85\n        /* \"#utility.yul\":2444:2449   */\n      dup3\n        /* \"#utility.yul\":2413:2450   */\n      tag_45\n      jump\t// in\n    tag_85:\n        /* \"#utility.yul\":2400:2450   */\n      swap1\n      pop\n        /* \"#utility.yul\":2309:2456   */\n      swap2\n      swap1\n      pop\n      jump\t// out\n        /* \"#utility.yul\":2462:2635   */\n    tag_47:\n        /* \"#utility.yul\":2570:2628   */\n      tag_87\n        /* \"#utility.yul\":2622:2627   */\n      dup2\n        /* \"#utility.yul\":2570:2628   */\n      tag_46\n      jump\t// in\n    tag_87:\n        /* \"#utility.yul\":2565:2568   */\n      dup3\n        /* \"#utility.yul\":2558:2629   */\n      mstore\n        /* \"#utility.yul\":2462:2635   */\n      pop\n      pop\n      jump\t// out\n        /* \"#utility.yul\":2641:2905   */\n    tag_14:\n        /* \"#utility.yul\":2755:2759   */\n      0x00\n        /* \"#utility.yul\":2793:2795   */\n      0x20\n        /* \"#utility.yul\":2782:2791   */\n      dup3\n        /* \"#utility.yul\":2778:2796   */\n      add\n        /* \"#utility.yul\":2770:2796   */\n      swap1\n      pop\n        /* \"#utility.yul\":2806:2898   */\n      tag_89\n        /* \"#utility.yul\":2895:2896   */\n      0x00\n        /* \"#utility.yul\":2884:2893   */\n      dup4\n        /* \"#utility.yul\":2880:2897   */\n      add\n        /* \"#utility.yul\":2871:2877   */\n      dup5\n        /* \"#utility.yul\":2806:2898   */\n      tag_47\n      jump\t// in\n    tag_89:\n        /* \"#utility.yul\":2641:2905   */\n      swap3\n      swap2\n      pop\n      pop\n      jump\t// out\n        /* \"#utility.yul\":2911:3243   */\n    tag_17:\n        /* \"#utility.yul\":3032:3036   */\n      0x00\n        /* \"#utility.yul\":3070:3072   */\n      0x40\n        /* \"#utility.yul\":3059:3068   */\n      dup3\n        /* \"#utility.yul\":3055:3073   */\n      add\n        /* \"#utility.yul\":3047:3073   */\n      swap1\n      pop\n        /* \"#utility.yul\":3083:3154   */\n      tag_91\n        /* \"#utility.yul\":3151:3152   */\n      0x00\n        /* \"#utility.yul\":3140:3149   */\n      dup4\n        /* \"#utility.yul\":3136:3153   */\n      add\n        /* \"#utility.yul\":3127:3133   */\n      dup6\n        /* \"#utility.yul\":3083:3154   */\n      tag_39\n      jump\t// in\n    tag_91:\n        /* \"#utility.yul\":3164:3236   */\n      tag_92\n        /* \"#utility.yul\":3232:3234   */\n      0x20\n        /* \"#utility.yul\":3221:3230   */\n      dup4\n        /* \"#utility.yul\":3217:3235   */\n      add\n        /* \"#utility.yul\":3208:3214   */\n      dup5\n        /* \"#utility.yul\":3164:3236   */\n      tag_39\n      jump\t// in\n    tag_92:\n        /* \"#utility.yul\":2911:3243   */\n      swap4\n      swap3\n      pop\n      pop\n      pop\n      jump\t// out\n        /* \"#utility.yul\":3249:3392   */\n    tag_48:\n        /* \"#utility.yul\":3306:3311   */\n      0x00\n        /* \"#utility.yul\":3337:3343   */\n      dup2\n        /* \"#utility.yul\":3331:3344   */\n      mload\n        /* \"#utility.yul\":3322:3344   */\n      swap1\n      pop\n        /* \"#utility.yul\":3353:3386   */\n      tag_94\n        /* \"#utility.yul\":3380:3385   */\n      dup2\n        /* \"#utility.yul\":3353:3386   */\n      tag_37\n      jump\t// in\n    tag_94:\n        /* \"#utility.yul\":3249:3392   */\n      swap3\n      swap2\n      pop\n      pop\n      jump\t// out\n        /* \"#utility.yul\":3398:3749   */\n    tag_20:\n        /* \"#utility.yul\":3468:3474   */\n      0x00\n        /* \"#utility.yul\":3517:3519   */\n      0x20\n        /* \"#utility.yul\":3505:3514   */\n      dup3\n        /* \"#utility.yul\":3496:3503   */\n      dup5\n        /* \"#utility.yul\":3492:3515   */\n      sub\n        /* \"#utility.yul\":3488:3520   */\n      slt\n        /* \"#utility.yul\":3485:3604   */\n      iszero\n      tag_96\n      jumpi\n        /* \"#utility.yul\":3523:3602   */\n      tag_97\n      tag_34\n      jump\t// in\n    tag_97:\n        /* \"#utility.yul\":3485:3604   */\n    tag_96:\n        /* \"#utility.yul\":3643:3644   */\n      0x00\n        /* \"#utility.yul\":3668:3732   */\n      tag_98\n        /* \"#utility.yul\":3724:3731   */\n      dup5\n        /* \"#utility.yul\":3715:3721   */\n      dup3\n        /* \"#utility.yul\":3704:3713   */\n      dup6\n        /* \"#utility.yul\":3700:3722   */\n      add\n        /* \"#utility.yul\":3668:3732   */\n      tag_48\n      jump\t// in\n    tag_98:\n        /* \"#utility.yul\":3658:3732   */\n      swap2\n      pop\n        /* \"#utility.yul\":3614:3742   */\n      pop\n        /* \"#utility.yul\":3398:3749   */\n      swap3\n      swap2\n      pop\n      pop\n      jump\t// out\n        /* \"#utility.yul\":3755:3861   */\n    tag_49:\n        /* \"#utility.yul\":3799:3807   */\n      0x00\n        /* \"#utility.yul\":3848:3853   */\n      dup2\n        /* \"#utility.yul\":3843:3846   */\n      0xe0\n        /* \"#utility.yul\":3839:3854   */\n      shr\n        /* \"#utility.yul\":3818:3854   */\n      swap1\n      pop\n        /* \"#utility.yul\":3755:3861   */\n      swap2\n      swap1\n      pop\n      jump\t// out\n        /* \"#utility.yul\":3867:4050   */\n    tag_26:\n        /* \"#utility.yul\":3902:3905   */\n      0x00\n        /* \"#utility.yul\":3940:3941   */\n      0x03\n        /* \"#utility.yul\":3922:3938   */\n      returndatasize\n        /* \"#utility.yul\":3919:3942   */\n      gt\n        /* \"#utility.yul\":3916:4044   */\n      iszero\n      tag_101\n      jumpi\n        /* \"#utility.yul\":3978:3979   */\n      0x04\n        /* \"#utility.yul\":3975:3976   */\n      0x00\n        /* \"#utility.yul\":3972:3973   */\n      dup1\n        /* \"#utility.yul\":3957:3980   */\n      returndatacopy\n        /* \"#utility.yul\":4000:4034   */\n      tag_102\n        /* \"#utility.yul\":4031:4032   */\n      0x00\n        /* \"#utility.yul\":4025:4033   */\n      mload\n        /* \"#utility.yul\":4000:4034   */\n      tag_49\n      jump\t// in\n    tag_102:\n        /* \"#utility.yul\":3993:4034   */\n      swap1\n      pop\n        /* \"#utility.yul\":3916:4044   */\n    tag_101:\n        /* \"#utility.yul\":3867:4050   */\n      swap1\n      jump\t// out\n        /* \"#utility.yul\":4056:4158   */\n    tag_50:\n        /* \"#utility.yul\":4097:4103   */\n      0x00\n        /* \"#utility.yul\":4148:4150   */\n      0x1f\n        /* \"#utility.yul\":4144:4151   */\n      not\n        /* \"#utility.yul\":4139:4141   */\n      0x1f\n        /* \"#utility.yul\":4132:4137   */\n      dup4\n        /* \"#utility.yul\":4128:4142   */\n      add\n        /* \"#utility.yul\":4124:4152   */\n      and\n        /* \"#utility.yul\":4114:4152   */\n      swap1\n      pop\n        /* \"#utility.yul\":4056:4158   */\n      swap2\n      swap1\n      pop\n      jump\t// out\n        /* \"#utility.yul\":4164:4344   */\n    tag_51:\n        /* \"#utility.yul\":4212:4289   */\n      0x4e487b7100000000000000000000000000000000000000000000000000000000\n        /* \"#utility.yul\":4209:4210   */\n      0x00\n        /* \"#utility.yul\":4202:4290   */\n      mstore\n        /* \"#utility.yul\":4309:4313   */\n      0x41\n        /* \"#utility.yul\":4306:4307   */\n      0x04\n        /* \"#utility.yul\":4299:4314   */\n      mstore\n        /* \"#utility.yul\":4333:4337   */\n      0x24\n        /* \"#utility.yul\":4330:4331   */\n      0x00\n        /* \"#utility.yul\":4323:4338   */\n      revert\n        /* \"#utility.yul\":4350:4631   */\n    tag_52:\n        /* \"#utility.yul\":4433:4460   */\n      tag_106\n        /* \"#utility.yul\":4455:4459   */\n      dup3\n        /* \"#utility.yul\":4433:4460   */\n      tag_50\n      jump\t// in\n    tag_106:\n        /* \"#utility.yul\":4425:4431   */\n      dup2\n        /* \"#utility.yul\":4421:4461   */\n      add\n        /* \"#utility.yul\":4563:4569   */\n      dup2\n        /* \"#utility.yul\":4551:4561   */\n      dup2\n        /* \"#utility.yul\":4548:4570   */\n      lt\n        /* \"#utility.yul\":4527:4545   */\n      0xffffffffffffffff\n        /* \"#utility.yul\":4515:4525   */\n      dup3\n        /* \"#utility.yul\":4512:4546   */\n      gt\n        /* \"#utility.yul\":4509:4571   */\n      or\n        /* \"#utility.yul\":4506:4594   */\n      iszero\n      tag_107\n      jumpi\n        /* \"#utility.yul\":4574:4592   */\n      tag_108\n      tag_51\n      jump\t// in\n    tag_108:\n        /* \"#utility.yul\":4506:4594   */\n    tag_107:\n        /* \"#utility.yul\":4614:4624   */\n      dup1\n        /* \"#utility.yul\":4610:4612   */\n      0x40\n        /* \"#utility.yul\":4603:4625   */\n      mstore\n        /* \"#utility.yul\":4393:4631   */\n      pop\n        /* \"#utility.yul\":4350:4631   */\n      pop\n      pop\n      jump\t// out\n        /* \"#utility.yul\":4637:5348   */\n    tag_28:\n        /* \"#utility.yul\":4676:4679   */\n      0x00\n        /* \"#utility.yul\":4714:4718   */\n      0x44\n        /* \"#utility.yul\":4696:4712   */\n      returndatasize\n        /* \"#utility.yul\":4693:4719   */\n      lt\n        /* \"#utility.yul\":4722:4727   */\n      tag_109\n        /* \"#utility.yul\":4690:4729   */\n      jumpi\n        /* \"#utility.yul\":4751:4771   */\n      tag_111\n      tag_33\n      jump\t// in\n    tag_111:\n        /* \"#utility.yul\":4826:4827   */\n      0x04\n        /* \"#utility.yul\":4808:4824   */\n      returndatasize\n        /* \"#utility.yul\":4804:4828   */\n      sub\n        /* \"#utility.yul\":4801:4802   */\n      0x04\n        /* \"#utility.yul\":4795:4799   */\n      dup3\n        /* \"#utility.yul\":4780:4829   */\n      returndatacopy\n        /* \"#utility.yul\":4859:4863   */\n      dup1\n        /* \"#utility.yul\":4853:4864   */\n      mload\n        /* \"#utility.yul\":4958:4974   */\n      returndatasize\n        /* \"#utility.yul\":4951:4955   */\n      0x24\n        /* \"#utility.yul\":4943:4949   */\n      dup3\n        /* \"#utility.yul\":4939:4956   */\n      add\n        /* \"#utility.yul\":4936:4975   */\n      gt\n        /* \"#utility.yul\":4903:4921   */\n      0xffffffffffffffff\n        /* \"#utility.yul\":4895:4901   */\n      dup3\n        /* \"#utility.yul\":4892:4922   */\n      gt\n        /* \"#utility.yul\":4876:4989   */\n      or\n        /* \"#utility.yul\":4873:5019   */\n      iszero\n      tag_112\n      jumpi\n        /* \"#utility.yul\":5004:5009   */\n      pop\n      pop\n      jump(tag_109)\n        /* \"#utility.yul\":4873:5019   */\n    tag_112:\n        /* \"#utility.yul\":5050:5056   */\n      dup1\n        /* \"#utility.yul\":5044:5048   */\n      dup3\n        /* \"#utility.yul\":5040:5057   */\n      add\n        /* \"#utility.yul\":5086:5089   */\n      dup1\n        /* \"#utility.yul\":5080:5090   */\n      mload\n        /* \"#utility.yul\":5113:5131   */\n      0xffffffffffffffff\n        /* \"#utility.yul\":5105:5111   */\n      dup2\n        /* \"#utility.yul\":5102:5132   */\n      gt\n        /* \"#utility.yul\":5099:5142   */\n      iszero\n      tag_113\n      jumpi\n        /* \"#utility.yul\":5135:5140   */\n      pop\n      pop\n      pop\n      pop\n      jump(tag_109)\n        /* \"#utility.yul\":5099:5142   */\n    tag_113:\n        /* \"#utility.yul\":5183:5189   */\n      dup1\n        /* \"#utility.yul\":5176:5180   */\n      0x20\n        /* \"#utility.yul\":5171:5174   */\n      dup4\n        /* \"#utility.yul\":5167:5181   */\n      add\n        /* \"#utility.yul\":5163:5190   */\n      add\n        /* \"#utility.yul\":5242:5243   */\n      0x04\n        /* \"#utility.yul\":5224:5240   */\n      returndatasize\n        /* \"#utility.yul\":5220:5244   */\n      sub\n        /* \"#utility.yul\":5214:5218   */\n      dup6\n        /* \"#utility.yul\":5210:5245   */\n      add\n        /* \"#utility.yul\":5205:5208   */\n      dup2\n        /* \"#utility.yul\":5202:5246   */\n      gt\n        /* \"#utility.yul\":5199:5256   */\n      iszero\n      tag_114\n      jumpi\n        /* \"#utility.yul\":5249:5254   */\n      pop\n      pop\n      pop\n      pop\n      pop\n      jump(tag_109)\n        /* \"#utility.yul\":5199:5256   */\n    tag_114:\n        /* \"#utility.yul\":5266:5323   */\n      tag_115\n        /* \"#utility.yul\":5314:5320   */\n      dup3\n        /* \"#utility.yul\":5308:5312   */\n      0x20\n        /* \"#utility.yul\":5304:5321   */\n      add\n        /* \"#utility.yul\":5296:5302   */\n      dup6\n        /* \"#utility.yul\":5292:5322   */\n      add\n        /* \"#utility.yul\":5286:5290   */\n      dup7\n        /* \"#utility.yul\":5266:5323   */\n      tag_52\n      jump\t// in\n    tag_115:\n        /* \"#utility.yul\":5339:5342   */\n      dup3\n        /* \"#utility.yul\":5332:5342   */\n      swap6\n      pop\n        /* \"#utility.yul\":4680:5348   */\n      pop\n      pop\n      pop\n      pop\n      pop\n        /* \"#utility.yul\":4637:5348   */\n    tag_109:\n      swap1\n      jump\t// out\n\n    auxdata: 0xa26469706673582212200b2a96b6af774859d5d172827570bf04d9f00cfb03637b619b0798d000fd777964736f6c63430008120033\n}\n\nsub_1: assembly {\n        /* \"lab 21-08-2023/trycatch/task.sol\":61:254  contract SimpleDivision {... */\n      mstore(0x40, 0x80)\n      callvalue\n      dup1\n      iszero\n      tag_1\n      jumpi\n      0x00\n      dup1\n      revert\n    tag_1:\n      pop\n      dataSize(sub_0)\n      dup1\n      dataOffset(sub_0)\n      0x00\n      codecopy\n      0x00\n      return\n    stop\n\n    sub_0: assembly {\n            /* \"lab 21-08-2023/trycatch/task.sol\":61:254  contract SimpleDivision {... */\n          mstore(0x40, 0x80)\n          callvalue\n          dup1\n          iszero\n          tag_1\n          jumpi\n          0x00\n          dup1\n          revert\n        tag_1:\n          pop\n          jumpi(tag_2, lt(calldatasize, 0x04))\n          shr(0xe0, calldataload(0x00))\n          dup1\n          0x407787e6\n          eq\n          tag_3\n          jumpi\n        tag_2:\n          0x00\n          dup1\n          revert\n            /* \"lab 21-08-2023/trycatch/task.sol\":92:251  function Division(uint x, uint y) external pure returns (uint divide) {... */\n        tag_3:\n          tag_4\n          0x04\n          dup1\n          calldatasize\n          sub\n          dup2\n          add\n          swap1\n          tag_5\n          swap2\n          swap1\n          tag_6\n          jump\t// in\n        tag_5:\n          tag_7\n          jump\t// in\n        tag_4:\n          mload(0x40)\n          tag_8\n          swap2\n          swap1\n          tag_9\n          jump\t// in\n        tag_8:\n          mload(0x40)\n          dup1\n          swap2\n          sub\n          swap1\n          return\n        tag_7:\n            /* \"lab 21-08-2023/trycatch/task.sol\":149:160  uint divide */\n          0x00\n            /* \"lab 21-08-2023/trycatch/task.sol\":186:187  0 */\n          dup1\n            /* \"lab 21-08-2023/trycatch/task.sol\":181:182  y */\n          dup3\n            /* \"lab 21-08-2023/trycatch/task.sol\":181:187  y != 0 */\n          sub\n            /* \"lab 21-08-2023/trycatch/task.sol\":173:218  require(y != 0, \"Denominator cannot be zero\") */\n          tag_11\n          jumpi\n          mload(0x40)\n          0x08c379a000000000000000000000000000000000000000000000000000000000\n          dup2\n          mstore\n          0x04\n          add\n          tag_12\n          swap1\n          tag_13\n          jump\t// in\n        tag_12:\n          mload(0x40)\n          dup1\n          swap2\n          sub\n          swap1\n          revert\n        tag_11:\n            /* \"lab 21-08-2023/trycatch/task.sol\":242:243  y */\n          dup2\n            /* \"lab 21-08-2023/trycatch/task.sol\":238:239  x */\n          dup4\n            /* \"lab 21-08-2023/trycatch/task.sol\":238:243  x / y */\n          tag_14\n          swap2\n          swap1\n          tag_15\n          jump\t// in\n        tag_14:\n            /* \"lab 21-08-2023/trycatch/task.sol\":229:243  divide = x / y */\n          swap1\n          pop\n            /* \"lab 21-08-2023/trycatch/task.sol\":92:251  function Division(uint x, uint y) external pure returns (uint divide) {... */\n          swap3\n          swap2\n          pop\n          pop\n          jump\t// out\n            /* \"#utility.yul\":88:205   */\n        tag_17:\n            /* \"#utility.yul\":197:198   */\n          0x00\n            /* \"#utility.yul\":194:195   */\n          dup1\n            /* \"#utility.yul\":187:199   */\n          revert\n            /* \"#utility.yul\":334:411   */\n        tag_19:\n            /* \"#utility.yul\":371:378   */\n          0x00\n            /* \"#utility.yul\":400:405   */\n          dup2\n            /* \"#utility.yul\":389:405   */\n          swap1\n          pop\n            /* \"#utility.yul\":334:411   */\n          swap2\n          swap1\n          pop\n          jump\t// out\n            /* \"#utility.yul\":417:539   */\n        tag_20:\n            /* \"#utility.yul\":490:514   */\n          tag_34\n            /* \"#utility.yul\":508:513   */\n          dup2\n            /* \"#utility.yul\":490:514   */\n          tag_19\n          jump\t// in\n        tag_34:\n            /* \"#utility.yul\":483:488   */\n          dup2\n            /* \"#utility.yul\":480:515   */\n          eq\n            /* \"#utility.yul\":470:533   */\n          tag_35\n          jumpi\n            /* \"#utility.yul\":529:530   */\n          0x00\n            /* \"#utility.yul\":526:527   */\n          dup1\n            /* \"#utility.yul\":519:531   */\n          revert\n            /* \"#utility.yul\":470:533   */\n        tag_35:\n            /* \"#utility.yul\":417:539   */\n          pop\n          jump\t// out\n            /* \"#utility.yul\":545:684   */\n        tag_21:\n            /* \"#utility.yul\":591:596   */\n          0x00\n            /* \"#utility.yul\":629:635   */\n          dup2\n            /* \"#utility.yul\":616:636   */\n          calldataload\n            /* \"#utility.yul\":607:636   */\n          swap1\n          pop\n            /* \"#utility.yul\":645:678   */\n          tag_37\n            /* \"#utility.yul\":672:677   */\n          dup2\n            /* \"#utility.yul\":645:678   */\n          tag_20\n          jump\t// in\n        tag_37:\n            /* \"#utility.yul\":545:684   */\n          swap3\n          swap2\n          pop\n          pop\n          jump\t// out\n            /* \"#utility.yul\":690:1164   */\n        tag_6:\n            /* \"#utility.yul\":758:764   */\n          0x00\n            /* \"#utility.yul\":766:772   */\n          dup1\n            /* \"#utility.yul\":815:817   */\n          0x40\n            /* \"#utility.yul\":803:812   */\n          dup4\n            /* \"#utility.yul\":794:801   */\n          dup6\n            /* \"#utility.yul\":790:813   */\n          sub\n            /* \"#utility.yul\":786:818   */\n          slt\n            /* \"#utility.yul\":783:902   */\n          iszero\n          tag_39\n          jumpi\n            /* \"#utility.yul\":821:900   */\n          tag_40\n          tag_17\n          jump\t// in\n        tag_40:\n            /* \"#utility.yul\":783:902   */\n        tag_39:\n            /* \"#utility.yul\":941:942   */\n          0x00\n            /* \"#utility.yul\":966:1019   */\n          tag_41\n            /* \"#utility.yul\":1011:1018   */\n          dup6\n            /* \"#utility.yul\":1002:1008   */\n          dup3\n            /* \"#utility.yul\":991:1000   */\n          dup7\n            /* \"#utility.yul\":987:1009   */\n          add\n            /* \"#utility.yul\":966:1019   */\n          tag_21\n          jump\t// in\n        tag_41:\n            /* \"#utility.yul\":956:1019   */\n          swap3\n          pop\n            /* \"#utility.yul\":912:1029   */\n          pop\n            /* \"#utility.yul\":1068:1070   */\n          0x20\n            /* \"#utility.yul\":1094:1147   */\n          tag_42\n            /* \"#utility.yul\":1139:1146   */\n          dup6\n            /* \"#utility.yul\":1130:1136   */\n          dup3\n            /* \"#utility.yul\":1119:1128   */\n          dup7\n            /* \"#utility.yul\":1115:1137   */\n          add\n            /* \"#utility.yul\":1094:1147   */\n          tag_21\n          jump\t// in\n        tag_42:\n            /* \"#utility.yul\":1084:1147   */\n          swap2\n          pop\n            /* \"#utility.yul\":1039:1157   */\n          pop\n            /* \"#utility.yul\":690:1164   */\n          swap3\n          pop\n          swap3\n          swap1\n          pop\n          jump\t// out\n            /* \"#utility.yul\":1170:1288   */\n        tag_22:\n            /* \"#utility.yul\":1257:1281   */\n          tag_44\n            /* \"#utility.yul\":1275:1280   */\n          dup2\n            /* \"#utility.yul\":1257:1281   */\n          tag_19\n          jump\t// in\n        tag_44:\n            /* \"#utility.yul\":1252:1255   */\n          dup3\n            /* \"#utility.yul\":1245:1282   */\n          mstore\n            /* \"#utility.yul\":1170:1288   */\n          pop\n          pop\n          jump\t// out\n            /* \"#utility.yul\":1294:1516   */\n        tag_9:\n            /* \"#utility.yul\":1387:1391   */\n          0x00\n            /* \"#utility.yul\":1425:1427   */\n          0x20\n            /* \"#utility.yul\":1414:1423   */\n          dup3\n            /* \"#utility.yul\":1410:1428   */\n          add\n            /* \"#utility.yul\":1402:1428   */\n          swap1\n          pop\n            /* \"#utility.yul\":1438:1509   */\n          tag_46\n            /* \"#utility.yul\":1506:1507   */\n          0x00\n            /* \"#utility.yul\":1495:1504   */\n          dup4\n            /* \"#utility.yul\":1491:1508   */\n          add\n            /* \"#utility.yul\":1482:1488   */\n          dup5\n            /* \"#utility.yul\":1438:1509   */\n          tag_22\n          jump\t// in\n        tag_46:\n            /* \"#utility.yul\":1294:1516   */\n          swap3\n          swap2\n          pop\n          pop\n          jump\t// out\n            /* \"#utility.yul\":1522:1691   */\n        tag_23:\n            /* \"#utility.yul\":1606:1617   */\n          0x00\n            /* \"#utility.yul\":1640:1646   */\n          dup3\n            /* \"#utility.yul\":1635:1638   */\n          dup3\n            /* \"#utility.yul\":1628:1647   */\n          mstore\n            /* \"#utility.yul\":1680:1684   */\n          0x20\n            /* \"#utility.yul\":1675:1678   */\n          dup3\n            /* \"#utility.yul\":1671:1685   */\n          add\n            /* \"#utility.yul\":1656:1685   */\n          swap1\n          pop\n            /* \"#utility.yul\":1522:1691   */\n          swap3\n          swap2\n          pop\n          pop\n          jump\t// out\n            /* \"#utility.yul\":1697:1873   */\n        tag_24:\n            /* \"#utility.yul\":1837:1865   */\n          0x44656e6f6d696e61746f722063616e6e6f74206265207a65726f000000000000\n            /* \"#utility.yul\":1833:1834   */\n          0x00\n            /* \"#utility.yul\":1825:1831   */\n          dup3\n            /* \"#utility.yul\":1821:1835   */\n          add\n            /* \"#utility.yul\":1814:1866   */\n          mstore\n            /* \"#utility.yul\":1697:1873   */\n          pop\n          jump\t// out\n            /* \"#utility.yul\":1879:2245   */\n        tag_25:\n            /* \"#utility.yul\":2021:2024   */\n          0x00\n            /* \"#utility.yul\":2042:2109   */\n          tag_50\n            /* \"#utility.yul\":2106:2108   */\n          0x1a\n            /* \"#utility.yul\":2101:2104   */\n          dup4\n            /* \"#utility.yul\":2042:2109   */\n          tag_23\n          jump\t// in\n        tag_50:\n            /* \"#utility.yul\":2035:2109   */\n          swap2\n          pop\n            /* \"#utility.yul\":2118:2211   */\n          tag_51\n            /* \"#utility.yul\":2207:2210   */\n          dup3\n            /* \"#utility.yul\":2118:2211   */\n          tag_24\n          jump\t// in\n        tag_51:\n            /* \"#utility.yul\":2236:2238   */\n          0x20\n            /* \"#utility.yul\":2231:2234   */\n          dup3\n            /* \"#utility.yul\":2227:2239   */\n          add\n            /* \"#utility.yul\":2220:2239   */\n          swap1\n          pop\n            /* \"#utility.yul\":1879:2245   */\n          swap2\n          swap1\n          pop\n          jump\t// out\n            /* \"#utility.yul\":2251:2670   */\n        tag_13:\n            /* \"#utility.yul\":2417:2421   */\n          0x00\n            /* \"#utility.yul\":2455:2457   */\n          0x20\n            /* \"#utility.yul\":2444:2453   */\n          dup3\n            /* \"#utility.yul\":2440:2458   */\n          add\n            /* \"#utility.yul\":2432:2458   */\n          swap1\n          pop\n            /* \"#utility.yul\":2504:2513   */\n          dup2\n            /* \"#utility.yul\":2498:2502   */\n          dup2\n            /* \"#utility.yul\":2494:2514   */\n          sub\n            /* \"#utility.yul\":2490:2491   */\n          0x00\n            /* \"#utility.yul\":2479:2488   */\n          dup4\n            /* \"#utility.yul\":2475:2492   */\n          add\n            /* \"#utility.yul\":2468:2515   */\n          mstore\n            /* \"#utility.yul\":2532:2663   */\n          tag_53\n            /* \"#utility.yul\":2658:2662   */\n          dup2\n            /* \"#utility.yul\":2532:2663   */\n          tag_25\n          jump\t// in\n        tag_53:\n            /* \"#utility.yul\":2524:2663   */\n          swap1\n          pop\n            /* \"#utility.yul\":2251:2670   */\n          swap2\n          swap1\n          pop\n          jump\t// out\n            /* \"#utility.yul\":2676:2856   */\n        tag_26:\n            /* \"#utility.yul\":2724:2801   */\n          0x4e487b7100000000000000000000000000000000000000000000000000000000\n            /* \"#utility.yul\":2721:2722   */\n          0x00\n            /* \"#utility.yul\":2714:2802   */\n          mstore\n            /* \"#utility.yul\":2821:2825   */\n          0x12\n            /* \"#utility.yul\":2818:2819   */\n          0x04\n            /* \"#utility.yul\":2811:2826   */\n          mstore\n            /* \"#utility.yul\":2845:2849   */\n          0x24\n            /* \"#utility.yul\":2842:2843   */\n          0x00\n            /* \"#utility.yul\":2835:2850   */\n          revert\n            /* \"#utility.yul\":3048:3233   */\n        tag_15:\n            /* \"#utility.yul\":3088:3089   */\n          0x00\n            /* \"#utility.yul\":3105:3125   */\n          tag_57\n            /* \"#utility.yul\":3123:3124   */\n          dup3\n            /* \"#utility.yul\":3105:3125   */\n          tag_19\n          jump\t// in\n        tag_57:\n            /* \"#utility.yul\":3100:3125   */\n          swap2\n          pop\n            /* \"#utility.yul\":3139:3159   */\n          tag_58\n            /* \"#utility.yul\":3157:3158   */\n          dup4\n            /* \"#utility.yul\":3139:3159   */\n          tag_19\n          jump\t// in\n        tag_58:\n            /* \"#utility.yul\":3134:3159   */\n          swap3\n          pop\n            /* \"#utility.yul\":3178:3179   */\n          dup3\n            /* \"#utility.yul\":3168:3203   */\n          tag_59\n          jumpi\n            /* \"#utility.yul\":3183:3201   */\n          tag_60\n          tag_26\n          jump\t// in\n        tag_60:\n            /* \"#utility.yul\":3168:3203   */\n        tag_59:\n            /* \"#utility.yul\":3225:3226   */\n          dup3\n            /* \"#utility.yul\":3222:3223   */\n          dup3\n            /* \"#utility.yul\":3218:3227   */\n          div\n            /* \"#utility.yul\":3213:3227   */\n          swap1\n          pop\n            /* \"#utility.yul\":3048:3233   */\n          swap3\n          swap2\n          pop\n          pop\n          jump\t// out\n\n        auxdata: 0xa2646970667358221220d40cb2fea1fba5923315789cc24dbf027047c3fea42174344992bf01c08bf8c164736f6c63430008120033\n    }\n}\n",
				"bytecode": {
					"linkReferences": {},
					"object": "608060405234801561001057600080fd5b5060405161001d9061007e565b604051809103906000f080158015610039573d6000803e3d6000fd5b506000806101000a81548173ffffffffffffffffffffffffffffffffffffffff021916908373ffffffffffffffffffffffffffffffffffffffff16021790555061008b565b610290806105af83390190565b6105158061009a6000396000f3fe608060405234801561001057600080fd5b50600436106100365760003560e01c80633eeab7041461003b578063af0bb4831461006c575b600080fd5b61005560048036038101906100509190610217565b61008a565b604051610063929190610281565b60405180910390f35b6100746101ae565b6040516100819190610329565b60405180910390f35b60008060008054906101000a900473ffffffffffffffffffffffffffffffffffffffff1673ffffffffffffffffffffffffffffffffffffffff1663407787e685856040518363ffffffff1660e01b81526004016100e8929190610344565b602060405180830381865afa92505050801561012257506040513d601f19601f8201168201806040525081019061011f9190610382565b60015b61019e5761012e6103bc565b806308c379a00361015b575061014261044f565b8061014d575061015d565b600092506000915050610199565b505b3d8060008114610189576040519150601f19603f3d011682016040523d82523d6000602084013e61018e565b606091505b506000925060009150505b6101a7565b80925060019150505b9250929050565b60008054906101000a900473ffffffffffffffffffffffffffffffffffffffff1681565b6000604051905090565b600080fd5b6000819050919050565b6101f4816101e1565b81146101ff57600080fd5b50565b600081359050610211816101eb565b92915050565b6000806040838503121561022e5761022d6101dc565b5b600061023c85828601610202565b925050602061024d85828601610202565b9150509250929050565b610260816101e1565b82525050565b60008115159050919050565b61027b81610266565b82525050565b60006040820190506102966000830185610257565b6102a36020830184610272565b9392505050565b600073ffffffffffffffffffffffffffffffffffffffff82169050919050565b6000819050919050565b60006102ef6102ea6102e5846102aa565b6102ca565b6102aa565b9050919050565b6000610301826102d4565b9050919050565b6000610313826102f6565b9050919050565b61032381610308565b82525050565b600060208201905061033e600083018461031a565b92915050565b60006040820190506103596000830185610257565b6103666020830184610257565b9392505050565b60008151905061037c816101eb565b92915050565b600060208284031215610398576103976101dc565b5b60006103a68482850161036d565b91505092915050565b60008160e01c9050919050565b600060033d11156103db5760046000803e6103d86000516103af565b90505b90565b6000601f19601f8301169050919050565b7f4e487b7100000000000000000000000000000000000000000000000000000000600052604160045260246000fd5b610427826103de565b810181811067ffffffffffffffff82111715610446576104456103ef565b5b80604052505050565b600060443d106104dc576104616101d2565b60043d036004823e80513d602482011167ffffffffffffffff821117156104895750506104dc565b808201805167ffffffffffffffff8111156104a757505050506104dc565b80602083010160043d0385018111156104c45750505050506104dc565b6104d38260200185018661041e565b82955050505050505b9056fea26469706673582212200b2a96b6af774859d5d172827570bf04d9f00cfb03637b619b0798d000fd777964736f6c63430008120033608060405234801561001057600080fd5b50610270806100206000396000f3fe608060405234801561001057600080fd5b506004361061002b5760003560e01c8063407787e614610030575b600080fd5b61004a600480360381019061004591906100f3565b610060565b6040516100579190610142565b60405180910390f35b60008082036100a4576040517f08c379a000000000000000000000000000000000000000000000000000000000815260040161009b906101ba565b60405180910390fd5b81836100b09190610209565b905092915050565b600080fd5b6000819050919050565b6100d0816100bd565b81146100db57600080fd5b50565b6000813590506100ed816100c7565b92915050565b6000806040838503121561010a576101096100b8565b5b6000610118858286016100de565b9250506020610129858286016100de565b9150509250929050565b61013c816100bd565b82525050565b60006020820190506101576000830184610133565b92915050565b600082825260208201905092915050565b7f44656e6f6d696e61746f722063616e6e6f74206265207a65726f000000000000600082015250565b60006101a4601a8361015d565b91506101af8261016e565b602082019050919050565b600060208201905081810360008301526101d381610197565b9050919050565b7f4e487b7100000000000000000000000000000000000000000000000000000000600052601260045260246000fd5b6000610214826100bd565b915061021f836100bd565b92508261022f5761022e6101da565b5b82820490509291505056fea2646970667358221220d40cb2fea1fba5923315789cc24dbf027047c3fea42174344992bf01c08bf8c164736f6c63430008120033",
					"opcodes": "PUSH1 0x80 PUSH1 0x40 MSTORE CALLVALUE DUP1 ISZERO PUSH2 0x10 JUMPI PUSH1 0x0 DUP1 REVERT JUMPDEST POP PUSH1 0x40 MLOAD PUSH2 0x1D SWAP1 PUSH2 0x7E JUMP JUMPDEST PUSH1 0x40 MLOAD DUP1 SWAP2 SUB SWAP1 PUSH1 0x0 CREATE DUP1 ISZERO DUP1 ISZERO PUSH2 0x39 JUMPI RETURNDATASIZE PUSH1 0x0 DUP1 RETURNDATACOPY RETURNDATASIZE PUSH1 0x0 REVERT JUMPDEST POP PUSH1 0x0 DUP1 PUSH2 0x100 EXP DUP2 SLOAD DUP2 PUSH20 0xFFFFFFFFFFFFFFFFFFFFFFFFFFFFFFFFFFFFFFFF MUL NOT AND SWAP1 DUP4 PUSH20 0xFFFFFFFFFFFFFFFFFFFFFFFFFFFFFFFFFFFFFFFF AND MUL OR SWAP1 SSTORE POP PUSH2 0x8B JUMP JUMPDEST PUSH2 0x290 DUP1 PUSH2 0x5AF DUP4 CODECOPY ADD SWAP1 JUMP JUMPDEST PUSH2 0x515 DUP1 PUSH2 0x9A PUSH1 0x0 CODECOPY PUSH1 0x0 RETURN INVALID PUSH1 0x80 PUSH1 0x40 MSTORE CALLVALUE DUP1 ISZERO PUSH2 0x10 JUMPI PUSH1 0x0 DUP1 REVERT JUMPDEST POP PUSH1 0x4 CALLDATASIZE LT PUSH2 0x36 JUMPI PUSH1 0x0 CALLDATALOAD PUSH1 0xE0 SHR DUP1 PUSH4 0x3EEAB704 EQ PUSH2 0x3B JUMPI DUP1 PUSH4 0xAF0BB483 EQ PUSH2 0x6C JUMPI JUMPDEST PUSH1 0x0 DUP1 REVERT JUMPDEST PUSH2 0x55 PUSH1 0x4 DUP1 CALLDATASIZE SUB DUP2 ADD SWAP1 PUSH2 0x50 SWAP2 SWAP1 PUSH2 0x217 JUMP JUMPDEST PUSH2 0x8A JUMP JUMPDEST PUSH1 0x40 MLOAD PUSH2 0x63 SWAP3 SWAP2 SWAP1 PUSH2 0x281 JUMP JUMPDEST PUSH1 0x40 MLOAD DUP1 SWAP2 SUB SWAP1 RETURN JUMPDEST PUSH2 0x74 PUSH2 0x1AE JUMP JUMPDEST PUSH1 0x40 MLOAD PUSH2 0x81 SWAP2 SWAP1 PUSH2 0x329 JUMP JUMPDEST PUSH1 0x40 MLOAD DUP1 SWAP2 SUB SWAP1 RETURN JUMPDEST PUSH1 0x0 DUP1 PUSH1 0x0 DUP1 SLOAD SWAP1 PUSH2 0x100 EXP SWAP1 DIV PUSH20 0xFFFFFFFFFFFFFFFFFFFFFFFFFFFFFFFFFFFFFFFF AND PUSH20 0xFFFFFFFFFFFFFFFFFFFFFFFFFFFFFFFFFFFFFFFF AND PUSH4 0x407787E6 DUP6 DUP6 PUSH1 0x40 MLOAD DUP4 PUSH4 0xFFFFFFFF AND PUSH1 0xE0 SHL DUP2 MSTORE PUSH1 0x4 ADD PUSH2 0xE8 SWAP3 SWAP2 SWAP1 PUSH2 0x344 JUMP JUMPDEST PUSH1 0x20 PUSH1 0x40 MLOAD DUP1 DUP4 SUB DUP2 DUP7 GAS STATICCALL SWAP3 POP POP POP DUP1 ISZERO PUSH2 0x122 JUMPI POP PUSH1 0x40 MLOAD RETURNDATASIZE PUSH1 0x1F NOT PUSH1 0x1F DUP3 ADD AND DUP3 ADD DUP1 PUSH1 0x40 MSTORE POP DUP2 ADD SWAP1 PUSH2 0x11F SWAP2 SWAP1 PUSH2 0x382 JUMP JUMPDEST PUSH1 0x1 JUMPDEST PUSH2 0x19E JUMPI PUSH2 0x12E PUSH2 0x3BC JUMP JUMPDEST DUP1 PUSH4 0x8C379A0 SUB PUSH2 0x15B JUMPI POP PUSH2 0x142 PUSH2 0x44F JUMP JUMPDEST DUP1 PUSH2 0x14D JUMPI POP PUSH2 0x15D JUMP JUMPDEST PUSH1 0x0 SWAP3 POP PUSH1 0x0 SWAP2 POP POP PUSH2 0x199 JUMP JUMPDEST POP JUMPDEST RETURNDATASIZE DUP1 PUSH1 0x0 DUP2 EQ PUSH2 0x189 JUMPI PUSH1 0x40 MLOAD SWAP2 POP PUSH1 0x1F NOT PUSH1 0x3F RETURNDATASIZE ADD AND DUP3 ADD PUSH1 0x40 MSTORE RETURNDATASIZE DUP3 MSTORE RETURNDATASIZE PUSH1 0x0 PUSH1 0x20 DUP5 ADD RETURNDATACOPY PUSH2 0x18E JUMP JUMPDEST PUSH1 0x60 SWAP2 POP JUMPDEST POP PUSH1 0x0 SWAP3 POP PUSH1 0x0 SWAP2 POP POP JUMPDEST PUSH2 0x1A7 JUMP JUMPDEST DUP1 SWAP3 POP PUSH1 0x1 SWAP2 POP POP JUMPDEST SWAP3 POP SWAP3 SWAP1 POP JUMP JUMPDEST PUSH1 0x0 DUP1 SLOAD SWAP1 PUSH2 0x100 EXP SWAP1 DIV PUSH20 0xFFFFFFFFFFFFFFFFFFFFFFFFFFFFFFFFFFFFFFFF AND DUP2 JUMP JUMPDEST PUSH1 0x0 PUSH1 0x40 MLOAD SWAP1 POP SWAP1 JUMP JUMPDEST PUSH1 0x0 DUP1 REVERT JUMPDEST PUSH1 0x0 DUP2 SWAP1 POP SWAP2 SWAP1 POP JUMP JUMPDEST PUSH2 0x1F4 DUP2 PUSH2 0x1E1 JUMP JUMPDEST DUP2 EQ PUSH2 0x1FF JUMPI PUSH1 0x0 DUP1 REVERT JUMPDEST POP JUMP JUMPDEST PUSH1 0x0 DUP2 CALLDATALOAD SWAP1 POP PUSH2 0x211 DUP2 PUSH2 0x1EB JUMP JUMPDEST SWAP3 SWAP2 POP POP JUMP JUMPDEST PUSH1 0x0 DUP1 PUSH1 0x40 DUP4 DUP6 SUB SLT ISZERO PUSH2 0x22E JUMPI PUSH2 0x22D PUSH2 0x1DC JUMP JUMPDEST JUMPDEST PUSH1 0x0 PUSH2 0x23C DUP6 DUP3 DUP7 ADD PUSH2 0x202 JUMP JUMPDEST SWAP3 POP POP PUSH1 0x20 PUSH2 0x24D DUP6 DUP3 DUP7 ADD PUSH2 0x202 JUMP JUMPDEST SWAP2 POP POP SWAP3 POP SWAP3 SWAP1 POP JUMP JUMPDEST PUSH2 0x260 DUP2 PUSH2 0x1E1 JUMP JUMPDEST DUP3 MSTORE POP POP JUMP JUMPDEST PUSH1 0x0 DUP2 ISZERO ISZERO SWAP1 POP SWAP2 SWAP1 POP JUMP JUMPDEST PUSH2 0x27B DUP2 PUSH2 0x266 JUMP JUMPDEST DUP3 MSTORE POP POP JUMP JUMPDEST PUSH1 0x0 PUSH1 0x40 DUP3 ADD SWAP1 POP PUSH2 0x296 PUSH1 0x0 DUP4 ADD DUP6 PUSH2 0x257 JUMP JUMPDEST PUSH2 0x2A3 PUSH1 0x20 DUP4 ADD DUP5 PUSH2 0x272 JUMP JUMPDEST SWAP4 SWAP3 POP POP POP JUMP JUMPDEST PUSH1 0x0 PUSH20 0xFFFFFFFFFFFFFFFFFFFFFFFFFFFFFFFFFFFFFFFF DUP3 AND SWAP1 POP SWAP2 SWAP1 POP JUMP JUMPDEST PUSH1 0x0 DUP2 SWAP1 POP SWAP2 SWAP1 POP JUMP JUMPDEST PUSH1 0x0 PUSH2 0x2EF PUSH2 0x2EA PUSH2 0x2E5 DUP5 PUSH2 0x2AA JUMP JUMPDEST PUSH2 0x2CA JUMP JUMPDEST PUSH2 0x2AA JUMP JUMPDEST SWAP1 POP SWAP2 SWAP1 POP JUMP JUMPDEST PUSH1 0x0 PUSH2 0x301 DUP3 PUSH2 0x2D4 JUMP JUMPDEST SWAP1 POP SWAP2 SWAP1 POP JUMP JUMPDEST PUSH1 0x0 PUSH2 0x313 DUP3 PUSH2 0x2F6 JUMP JUMPDEST SWAP1 POP SWAP2 SWAP1 POP JUMP JUMPDEST PUSH2 0x323 DUP2 PUSH2 0x308 JUMP JUMPDEST DUP3 MSTORE POP POP JUMP JUMPDEST PUSH1 0x0 PUSH1 0x20 DUP3 ADD SWAP1 POP PUSH2 0x33E PUSH1 0x0 DUP4 ADD DUP5 PUSH2 0x31A JUMP JUMPDEST SWAP3 SWAP2 POP POP JUMP JUMPDEST PUSH1 0x0 PUSH1 0x40 DUP3 ADD SWAP1 POP PUSH2 0x359 PUSH1 0x0 DUP4 ADD DUP6 PUSH2 0x257 JUMP JUMPDEST PUSH2 0x366 PUSH1 0x20 DUP4 ADD DUP5 PUSH2 0x257 JUMP JUMPDEST SWAP4 SWAP3 POP POP POP JUMP JUMPDEST PUSH1 0x0 DUP2 MLOAD SWAP1 POP PUSH2 0x37C DUP2 PUSH2 0x1EB JUMP JUMPDEST SWAP3 SWAP2 POP POP JUMP JUMPDEST PUSH1 0x0 PUSH1 0x20 DUP3 DUP5 SUB SLT ISZERO PUSH2 0x398 JUMPI PUSH2 0x397 PUSH2 0x1DC JUMP JUMPDEST JUMPDEST PUSH1 0x0 PUSH2 0x3A6 DUP5 DUP3 DUP6 ADD PUSH2 0x36D JUMP JUMPDEST SWAP2 POP POP SWAP3 SWAP2 POP POP JUMP JUMPDEST PUSH1 0x0 DUP2 PUSH1 0xE0 SHR SWAP1 POP SWAP2 SWAP1 POP JUMP JUMPDEST PUSH1 0x0 PUSH1 0x3 RETURNDATASIZE GT ISZERO PUSH2 0x3DB JUMPI PUSH1 0x4 PUSH1 0x0 DUP1 RETURNDATACOPY PUSH2 0x3D8 PUSH1 0x0 MLOAD PUSH2 0x3AF JUMP JUMPDEST SWAP1 POP JUMPDEST SWAP1 JUMP JUMPDEST PUSH1 0x0 PUSH1 0x1F NOT PUSH1 0x1F DUP4 ADD AND SWAP1 POP SWAP2 SWAP1 POP JUMP JUMPDEST PUSH32 0x4E487B7100000000000000000000000000000000000000000000000000000000 PUSH1 0x0 MSTORE PUSH1 0x41 PUSH1 0x4 MSTORE PUSH1 0x24 PUSH1 0x0 REVERT JUMPDEST PUSH2 0x427 DUP3 PUSH2 0x3DE JUMP JUMPDEST DUP2 ADD DUP2 DUP2 LT PUSH8 0xFFFFFFFFFFFFFFFF DUP3 GT OR ISZERO PUSH2 0x446 JUMPI PUSH2 0x445 PUSH2 0x3EF JUMP JUMPDEST JUMPDEST DUP1 PUSH1 0x40 MSTORE POP POP POP JUMP JUMPDEST PUSH1 0x0 PUSH1 0x44 RETURNDATASIZE LT PUSH2 0x4DC JUMPI PUSH2 0x461 PUSH2 0x1D2 JUMP JUMPDEST PUSH1 0x4 RETURNDATASIZE SUB PUSH1 0x4 DUP3 RETURNDATACOPY DUP1 MLOAD RETURNDATASIZE PUSH1 0x24 DUP3 ADD GT PUSH8 0xFFFFFFFFFFFFFFFF DUP3 GT OR ISZERO PUSH2 0x489 JUMPI POP POP PUSH2 0x4DC JUMP JUMPDEST DUP1 DUP3 ADD DUP1 MLOAD PUSH8 0xFFFFFFFFFFFFFFFF DUP2 GT ISZERO PUSH2 0x4A7 JUMPI POP POP POP POP PUSH2 0x4DC JUMP JUMPDEST DUP1 PUSH1 0x20 DUP4 ADD ADD PUSH1 0x4 RETURNDATASIZE SUB DUP6 ADD DUP2 GT ISZERO PUSH2 0x4C4 JUMPI POP POP POP POP POP PUSH2 0x4DC JUMP JUMPDEST PUSH2 0x4D3 DUP3 PUSH1 0x20 ADD DUP6 ADD DUP7 PUSH2 0x41E JUMP JUMPDEST DUP3 SWAP6 POP POP POP POP POP POP JUMPDEST SWAP1 JUMP INVALID LOG2 PUSH5 0x6970667358 0x22 SLT KECCAK256 SIGNEXTEND 0x2A SWAP7 0xB6 0xAF PUSH24 0x4859D5D172827570BF04D9F00CFB03637B619B0798D000FD PUSH24 0x7964736F6C63430008120033608060405234801561001057 PUSH1 0x0 DUP1 REVERT JUMPDEST POP PUSH2 0x270 DUP1 PUSH2 0x20 PUSH1 0x0 CODECOPY PUSH1 0x0 RETURN INVALID PUSH1 0x80 PUSH1 0x40 MSTORE CALLVALUE DUP1 ISZERO PUSH2 0x10 JUMPI PUSH1 0x0 DUP1 REVERT JUMPDEST POP PUSH1 0x4 CALLDATASIZE LT PUSH2 0x2B JUMPI PUSH1 0x0 CALLDATALOAD PUSH1 0xE0 SHR DUP1 PUSH4 0x407787E6 EQ PUSH2 0x30 JUMPI JUMPDEST PUSH1 0x0 DUP1 REVERT JUMPDEST PUSH2 0x4A PUSH1 0x4 DUP1 CALLDATASIZE SUB DUP2 ADD SWAP1 PUSH2 0x45 SWAP2 SWAP1 PUSH2 0xF3 JUMP JUMPDEST PUSH2 0x60 JUMP JUMPDEST PUSH1 0x40 MLOAD PUSH2 0x57 SWAP2 SWAP1 PUSH2 0x142 JUMP JUMPDEST PUSH1 0x40 MLOAD DUP1 SWAP2 SUB SWAP1 RETURN JUMPDEST PUSH1 0x0 DUP1 DUP3 SUB PUSH2 0xA4 JUMPI PUSH1 0x40 MLOAD PUSH32 0x8C379A000000000000000000000000000000000000000000000000000000000 DUP2 MSTORE PUSH1 0x4 ADD PUSH2 0x9B SWAP1 PUSH2 0x1BA JUMP JUMPDEST PUSH1 0x40 MLOAD DUP1 SWAP2 SUB SWAP1 REVERT JUMPDEST DUP2 DUP4 PUSH2 0xB0 SWAP2 SWAP1 PUSH2 0x209 JUMP JUMPDEST SWAP1 POP SWAP3 SWAP2 POP POP JUMP JUMPDEST PUSH1 0x0 DUP1 REVERT JUMPDEST PUSH1 0x0 DUP2 SWAP1 POP SWAP2 SWAP1 POP JUMP JUMPDEST PUSH2 0xD0 DUP2 PUSH2 0xBD JUMP JUMPDEST DUP2 EQ PUSH2 0xDB JUMPI PUSH1 0x0 DUP1 REVERT JUMPDEST POP JUMP JUMPDEST PUSH1 0x0 DUP2 CALLDATALOAD SWAP1 POP PUSH2 0xED DUP2 PUSH2 0xC7 JUMP JUMPDEST SWAP3 SWAP2 POP POP JUMP JUMPDEST PUSH1 0x0 DUP1 PUSH1 0x40 DUP4 DUP6 SUB SLT ISZERO PUSH2 0x10A JUMPI PUSH2 0x109 PUSH2 0xB8 JUMP JUMPDEST JUMPDEST PUSH1 0x0 PUSH2 0x118 DUP6 DUP3 DUP7 ADD PUSH2 0xDE JUMP JUMPDEST SWAP3 POP POP PUSH1 0x20 PUSH2 0x129 DUP6 DUP3 DUP7 ADD PUSH2 0xDE JUMP JUMPDEST SWAP2 POP POP SWAP3 POP SWAP3 SWAP1 POP JUMP JUMPDEST PUSH2 0x13C DUP2 PUSH2 0xBD JUMP JUMPDEST DUP3 MSTORE POP POP JUMP JUMPDEST PUSH1 0x0 PUSH1 0x20 DUP3 ADD SWAP1 POP PUSH2 0x157 PUSH1 0x0 DUP4 ADD DUP5 PUSH2 0x133 JUMP JUMPDEST SWAP3 SWAP2 POP POP JUMP JUMPDEST PUSH1 0x0 DUP3 DUP3 MSTORE PUSH1 0x20 DUP3 ADD SWAP1 POP SWAP3 SWAP2 POP POP JUMP JUMPDEST PUSH32 0x44656E6F6D696E61746F722063616E6E6F74206265207A65726F000000000000 PUSH1 0x0 DUP3 ADD MSTORE POP JUMP JUMPDEST PUSH1 0x0 PUSH2 0x1A4 PUSH1 0x1A DUP4 PUSH2 0x15D JUMP JUMPDEST SWAP2 POP PUSH2 0x1AF DUP3 PUSH2 0x16E JUMP JUMPDEST PUSH1 0x20 DUP3 ADD SWAP1 POP SWAP2 SWAP1 POP JUMP JUMPDEST PUSH1 0x0 PUSH1 0x20 DUP3 ADD SWAP1 POP DUP2 DUP2 SUB PUSH1 0x0 DUP4 ADD MSTORE PUSH2 0x1D3 DUP2 PUSH2 0x197 JUMP JUMPDEST SWAP1 POP SWAP2 SWAP1 POP JUMP JUMPDEST PUSH32 0x4E487B7100000000000000000000000000000000000000000000000000000000 PUSH1 0x0 MSTORE PUSH1 0x12 PUSH1 0x4 MSTORE PUSH1 0x24 PUSH1 0x0 REVERT JUMPDEST PUSH1 0x0 PUSH2 0x214 DUP3 PUSH2 0xBD JUMP JUMPDEST SWAP2 POP PUSH2 0x21F DUP4 PUSH2 0xBD JUMP JUMPDEST SWAP3 POP DUP3 PUSH2 0x22F JUMPI PUSH2 0x22E PUSH2 0x1DA JUMP JUMPDEST JUMPDEST DUP3 DUP3 DIV SWAP1 POP SWAP3 SWAP2 POP POP JUMP INVALID LOG2 PUSH5 0x6970667358 0x22 SLT KECCAK256 0xD4 0xC 0xB2 INVALID LOG1 0xFB 0xA5 SWAP3 CALLER ISZERO PUSH25 0x9CC24DBF027047C3FEA42174344992BF01C08BF8C164736F6C PUSH4 0x43000812 STOP CALLER "
				},
				"gasEstimates": {
					"creation": {
						"codeDepositCost": "260200",
						"executionCost": "infinite",
						"totalCost": "infinite"
					},
					"external": {
						"safeDivision(uint256,uint256)": "infinite",
						"simpleDivision()": "infinite"
					}
				},
				"methodIdentifiers": {
					"safeDivision(uint256,uint256)": "3eeab704",
					"simpleDivision()": "af0bb483"
				}
			},
			"storageLayout": {
				"storage": [
					{
						"astId": 28,
						"contract": "lab 21-08-2023/trycatch/task.sol:TryCatchExample",
						"label": "simpleDivision",
						"offset": 0,
						"slot": "0",
						"type": "t_contract(SimpleDivision)25"
					}
				],
				"types": {
					"t_contract(SimpleDivision)25": {
						"encoding": "inplace",
						"label": "contract SimpleDivision",
						"numberOfBytes": "20"
					}
				}
			},
			"userdoc": {
				"kind": "user",
				"methods": {},
				"version": 1
			}
		}
	}
}