{
	"data": {
		"bytecode": {
			"linkReferences": {},
			"object": "608060405234801561001057600080fd5b50610668806100206000396000f3fe608060405234801561001057600080fd5b50600436106100365760003560e01c8063b8e94f1a1461003b578063fdf9e90114610057575b600080fd5b61005560048036038101906100509190610267565b610087565b005b610071600480360381019061006c91906102f2565b6100b3565b60405161007e919061032e565b60405180910390f35b82600090816100969190610560565b508160018190555080600290816100ad9190610560565b50505050565b600381815481106100c357600080fd5b906000526020600020016000915090505481565b6000604051905090565b600080fd5b600080fd5b600080fd5b600080fd5b6000601f19601f8301169050919050565b7f4e487b7100000000000000000000000000000000000000000000000000000000600052604160045260246000fd5b61013e826100f5565b810181811067ffffffffffffffff8211171561015d5761015c610106565b5b80604052505050565b60006101706100d7565b905061017c8282610135565b919050565b600067ffffffffffffffff82111561019c5761019b610106565b5b6101a5826100f5565b9050602081019050919050565b82818337600083830152505050565b60006101d46101cf84610181565b610166565b9050828152602081018484840111156101f0576101ef6100f0565b5b6101fb8482856101b2565b509392505050565b600082601f830112610218576102176100eb565b5b81356102288482602086016101c1565b91505092915050565b6000819050919050565b61024481610231565b811461024f57600080fd5b50565b6000813590506102618161023b565b92915050565b6000806000606084860312156102805761027f6100e1565b5b600084013567ffffffffffffffff81111561029e5761029d6100e6565b5b6102aa86828701610203565b93505060206102bb86828701610252565b925050604084013567ffffffffffffffff8111156102dc576102db6100e6565b5b6102e886828701610203565b9150509250925092565b600060208284031215610308576103076100e1565b5b600061031684828501610252565b91505092915050565b61032881610231565b82525050565b6000602082019050610343600083018461031f565b92915050565b600081519050919050565b7f4e487b7100000000000000000000000000000000000000000000000000000000600052602260045260246000fd5b6000600282049050600182168061039b57607f821691505b6020821081036103ae576103ad610354565b5b50919050565b60008190508160005260206000209050919050565b60006020601f8301049050919050565b600082821b905092915050565b6000600883026104167fffffffffffffffffffffffffffffffffffffffffffffffffffffffffffffffff826103d9565b61042086836103d9565b95508019841693508086168417925050509392505050565b6000819050919050565b600061045d61045861045384610231565b610438565b610231565b9050919050565b6000819050919050565b61047783610442565b61048b61048382610464565b8484546103e6565b825550505050565b600090565b6104a0610493565b6104ab81848461046e565b505050565b5b818110156104cf576104c4600082610498565b6001810190506104b1565b5050565b601f821115610514576104e5816103b4565b6104ee846103c9565b810160208510156104fd578190505b610511610509856103c9565b8301826104b0565b50505b505050565b600082821c905092915050565b600061053760001984600802610519565b1980831691505092915050565b60006105508383610526565b9150826002028217905092915050565b61056982610349565b67ffffffffffffffff81111561058257610581610106565b5b61058c8254610383565b6105978282856104d3565b600060209050601f8311600181146105ca57600084156105b8578287015190505b6105c28582610544565b86555061062a565b601f1984166105d8866103b4565b60005b82811015610600578489015182556001820191506020850194506020810190506105db565b8683101561061d5784890151610619601f891682610526565b8355505b6001600288020188555050505b50505050505056fea2646970667358221220b7344393b50891e2ce20718386ac11dd55f79b498e66cc8e7ca041bd7c8a63d864736f6c63430008120033",
			"opcodes": "PUSH1 0x80 PUSH1 0x40 MSTORE CALLVALUE DUP1 ISZERO PUSH2 0x10 JUMPI PUSH1 0x0 DUP1 REVERT JUMPDEST POP PUSH2 0x668 DUP1 PUSH2 0x20 PUSH1 0x0 CODECOPY PUSH1 0x0 RETURN INVALID PUSH1 0x80 PUSH1 0x40 MSTORE CALLVALUE DUP1 ISZERO PUSH2 0x10 JUMPI PUSH1 0x0 DUP1 REVERT JUMPDEST POP PUSH1 0x4 CALLDATASIZE LT PUSH2 0x36 JUMPI PUSH1 0x0 CALLDATALOAD PUSH1 0xE0 SHR DUP1 PUSH4 0xB8E94F1A EQ PUSH2 0x3B JUMPI DUP1 PUSH4 0xFDF9E901 EQ PUSH2 0x57 JUMPI JUMPDEST PUSH1 0x0 DUP1 REVERT JUMPDEST PUSH2 0x55 PUSH1 0x4 DUP1 CALLDATASIZE SUB DUP2 ADD SWAP1 PUSH2 0x50 SWAP2 SWAP1 PUSH2 0x267 JUMP JUMPDEST PUSH2 0x87 JUMP JUMPDEST STOP JUMPDEST PUSH2 0x71 PUSH1 0x4 DUP1 CALLDATASIZE SUB DUP2 ADD SWAP1 PUSH2 0x6C SWAP2 SWAP1 PUSH2 0x2F2 JUMP JUMPDEST PUSH2 0xB3 JUMP JUMPDEST PUSH1 0x40 MLOAD PUSH2 0x7E SWAP2 SWAP1 PUSH2 0x32E JUMP JUMPDEST PUSH1 0x40 MLOAD DUP1 SWAP2 SUB SWAP1 RETURN JUMPDEST DUP3 PUSH1 0x0 SWAP1 DUP2 PUSH2 0x96 SWAP2 SWAP1 PUSH2 0x560 JUMP JUMPDEST POP DUP2 PUSH1 0x1 DUP2 SWAP1 SSTORE POP DUP1 PUSH1 0x2 SWAP1 DUP2 PUSH2 0xAD SWAP2 SWAP1 PUSH2 0x560 JUMP JUMPDEST POP POP POP POP JUMP JUMPDEST PUSH1 0x3 DUP2 DUP2 SLOAD DUP2 LT PUSH2 0xC3 JUMPI PUSH1 0x0 DUP1 REVERT JUMPDEST SWAP1 PUSH1 0x0 MSTORE PUSH1 0x20 PUSH1 0x0 KECCAK256 ADD PUSH1 0x0 SWAP2 POP SWAP1 POP SLOAD DUP2 JUMP JUMPDEST PUSH1 0x0 PUSH1 0x40 MLOAD SWAP1 POP SWAP1 JUMP JUMPDEST PUSH1 0x0 DUP1 REVERT JUMPDEST PUSH1 0x0 DUP1 REVERT JUMPDEST PUSH1 0x0 DUP1 REVERT JUMPDEST PUSH1 0x0 DUP1 REVERT JUMPDEST PUSH1 0x0 PUSH1 0x1F NOT PUSH1 0x1F DUP4 ADD AND SWAP1 POP SWAP2 SWAP1 POP JUMP JUMPDEST PUSH32 0x4E487B7100000000000000000000000000000000000000000000000000000000 PUSH1 0x0 MSTORE PUSH1 0x41 PUSH1 0x4 MSTORE PUSH1 0x24 PUSH1 0x0 REVERT JUMPDEST PUSH2 0x13E DUP3 PUSH2 0xF5 JUMP JUMPDEST DUP2 ADD DUP2 DUP2 LT PUSH8 0xFFFFFFFFFFFFFFFF DUP3 GT OR ISZERO PUSH2 0x15D JUMPI PUSH2 0x15C PUSH2 0x106 JUMP JUMPDEST JUMPDEST DUP1 PUSH1 0x40 MSTORE POP POP POP JUMP JUMPDEST PUSH1 0x0 PUSH2 0x170 PUSH2 0xD7 JUMP JUMPDEST SWAP1 POP PUSH2 0x17C DUP3 DUP3 PUSH2 0x135 JUMP JUMPDEST SWAP2 SWAP1 POP JUMP JUMPDEST PUSH1 0x0 PUSH8 0xFFFFFFFFFFFFFFFF DUP3 GT ISZERO PUSH2 0x19C JUMPI PUSH2 0x19B PUSH2 0x106 JUMP JUMPDEST JUMPDEST PUSH2 0x1A5 DUP3 PUSH2 0xF5 JUMP JUMPDEST SWAP1 POP PUSH1 0x20 DUP2 ADD SWAP1 POP SWAP2 SWAP1 POP JUMP JUMPDEST DUP3 DUP2 DUP4 CALLDATACOPY PUSH1 0x0 DUP4 DUP4 ADD MSTORE POP POP POP JUMP JUMPDEST PUSH1 0x0 PUSH2 0x1D4 PUSH2 0x1CF DUP5 PUSH2 0x181 JUMP JUMPDEST PUSH2 0x166 JUMP JUMPDEST SWAP1 POP DUP3 DUP2 MSTORE PUSH1 0x20 DUP2 ADD DUP5 DUP5 DUP5 ADD GT ISZERO PUSH2 0x1F0 JUMPI PUSH2 0x1EF PUSH2 0xF0 JUMP JUMPDEST JUMPDEST PUSH2 0x1FB DUP5 DUP3 DUP6 PUSH2 0x1B2 JUMP JUMPDEST POP SWAP4 SWAP3 POP POP POP JUMP JUMPDEST PUSH1 0x0 DUP3 PUSH1 0x1F DUP4 ADD SLT PUSH2 0x218 JUMPI PUSH2 0x217 PUSH2 0xEB JUMP JUMPDEST JUMPDEST DUP2 CALLDATALOAD PUSH2 0x228 DUP5 DUP3 PUSH1 0x20 DUP7 ADD PUSH2 0x1C1 JUMP JUMPDEST SWAP2 POP POP SWAP3 SWAP2 POP POP JUMP JUMPDEST PUSH1 0x0 DUP2 SWAP1 POP SWAP2 SWAP1 POP JUMP JUMPDEST PUSH2 0x244 DUP2 PUSH2 0x231 JUMP JUMPDEST DUP2 EQ PUSH2 0x24F JUMPI PUSH1 0x0 DUP1 REVERT JUMPDEST POP JUMP JUMPDEST PUSH1 0x0 DUP2 CALLDATALOAD SWAP1 POP PUSH2 0x261 DUP2 PUSH2 0x23B JUMP JUMPDEST SWAP3 SWAP2 POP POP JUMP JUMPDEST PUSH1 0x0 DUP1 PUSH1 0x0 PUSH1 0x60 DUP5 DUP7 SUB SLT ISZERO PUSH2 0x280 JUMPI PUSH2 0x27F PUSH2 0xE1 JUMP JUMPDEST JUMPDEST PUSH1 0x0 DUP5 ADD CALLDATALOAD PUSH8 0xFFFFFFFFFFFFFFFF DUP2 GT ISZERO PUSH2 0x29E JUMPI PUSH2 0x29D PUSH2 0xE6 JUMP JUMPDEST JUMPDEST PUSH2 0x2AA DUP7 DUP3 DUP8 ADD PUSH2 0x203 JUMP JUMPDEST SWAP4 POP POP PUSH1 0x20 PUSH2 0x2BB DUP7 DUP3 DUP8 ADD PUSH2 0x252 JUMP JUMPDEST SWAP3 POP POP PUSH1 0x40 DUP5 ADD CALLDATALOAD PUSH8 0xFFFFFFFFFFFFFFFF DUP2 GT ISZERO PUSH2 0x2DC JUMPI PUSH2 0x2DB PUSH2 0xE6 JUMP JUMPDEST JUMPDEST PUSH2 0x2E8 DUP7 DUP3 DUP8 ADD PUSH2 0x203 JUMP JUMPDEST SWAP2 POP POP SWAP3 POP SWAP3 POP SWAP3 JUMP JUMPDEST PUSH1 0x0 PUSH1 0x20 DUP3 DUP5 SUB SLT ISZERO PUSH2 0x308 JUMPI PUSH2 0x307 PUSH2 0xE1 JUMP JUMPDEST JUMPDEST PUSH1 0x0 PUSH2 0x316 DUP5 DUP3 DUP6 ADD PUSH2 0x252 JUMP JUMPDEST SWAP2 POP POP SWAP3 SWAP2 POP POP JUMP JUMPDEST PUSH2 0x328 DUP2 PUSH2 0x231 JUMP JUMPDEST DUP3 MSTORE POP POP JUMP JUMPDEST PUSH1 0x0 PUSH1 0x20 DUP3 ADD SWAP1 POP PUSH2 0x343 PUSH1 0x0 DUP4 ADD DUP5 PUSH2 0x31F JUMP JUMPDEST SWAP3 SWAP2 POP POP JUMP JUMPDEST PUSH1 0x0 DUP2 MLOAD SWAP1 POP SWAP2 SWAP1 POP JUMP JUMPDEST PUSH32 0x4E487B7100000000000000000000000000000000000000000000000000000000 PUSH1 0x0 MSTORE PUSH1 0x22 PUSH1 0x4 MSTORE PUSH1 0x24 PUSH1 0x0 REVERT JUMPDEST PUSH1 0x0 PUSH1 0x2 DUP3 DIV SWAP1 POP PUSH1 0x1 DUP3 AND DUP1 PUSH2 0x39B JUMPI PUSH1 0x7F DUP3 AND SWAP2 POP JUMPDEST PUSH1 0x20 DUP3 LT DUP2 SUB PUSH2 0x3AE JUMPI PUSH2 0x3AD PUSH2 0x354 JUMP JUMPDEST JUMPDEST POP SWAP2 SWAP1 POP JUMP JUMPDEST PUSH1 0x0 DUP2 SWAP1 POP DUP2 PUSH1 0x0 MSTORE PUSH1 0x20 PUSH1 0x0 KECCAK256 SWAP1 POP SWAP2 SWAP1 POP JUMP JUMPDEST PUSH1 0x0 PUSH1 0x20 PUSH1 0x1F DUP4 ADD DIV SWAP1 POP SWAP2 SWAP1 POP JUMP JUMPDEST PUSH1 0x0 DUP3 DUP3 SHL SWAP1 POP SWAP3 SWAP2 POP POP JUMP JUMPDEST PUSH1 0x0 PUSH1 0x8 DUP4 MUL PUSH2 0x416 PUSH32 0xFFFFFFFFFFFFFFFFFFFFFFFFFFFFFFFFFFFFFFFFFFFFFFFFFFFFFFFFFFFFFFFF DUP3 PUSH2 0x3D9 JUMP JUMPDEST PUSH2 0x420 DUP7 DUP4 PUSH2 0x3D9 JUMP JUMPDEST SWAP6 POP DUP1 NOT DUP5 AND SWAP4 POP DUP1 DUP7 AND DUP5 OR SWAP3 POP POP POP SWAP4 SWAP3 POP POP POP JUMP JUMPDEST PUSH1 0x0 DUP2 SWAP1 POP SWAP2 SWAP1 POP JUMP JUMPDEST PUSH1 0x0 PUSH2 0x45D PUSH2 0x458 PUSH2 0x453 DUP5 PUSH2 0x231 JUMP JUMPDEST PUSH2 0x438 JUMP JUMPDEST PUSH2 0x231 JUMP JUMPDEST SWAP1 POP SWAP2 SWAP1 POP JUMP JUMPDEST PUSH1 0x0 DUP2 SWAP1 POP SWAP2 SWAP1 POP JUMP JUMPDEST PUSH2 0x477 DUP4 PUSH2 0x442 JUMP JUMPDEST PUSH2 0x48B PUSH2 0x483 DUP3 PUSH2 0x464 JUMP JUMPDEST DUP5 DUP5 SLOAD PUSH2 0x3E6 JUMP JUMPDEST DUP3 SSTORE POP POP POP POP JUMP JUMPDEST PUSH1 0x0 SWAP1 JUMP JUMPDEST PUSH2 0x4A0 PUSH2 0x493 JUMP JUMPDEST PUSH2 0x4AB DUP2 DUP5 DUP5 PUSH2 0x46E JUMP JUMPDEST POP POP POP JUMP JUMPDEST JUMPDEST DUP2 DUP2 LT ISZERO PUSH2 0x4CF JUMPI PUSH2 0x4C4 PUSH1 0x0 DUP3 PUSH2 0x498 JUMP JUMPDEST PUSH1 0x1 DUP2 ADD SWAP1 POP PUSH2 0x4B1 JUMP JUMPDEST POP POP JUMP JUMPDEST PUSH1 0x1F DUP3 GT ISZERO PUSH2 0x514 JUMPI PUSH2 0x4E5 DUP2 PUSH2 0x3B4 JUMP JUMPDEST PUSH2 0x4EE DUP5 PUSH2 0x3C9 JUMP JUMPDEST DUP2 ADD PUSH1 0x20 DUP6 LT ISZERO PUSH2 0x4FD JUMPI DUP2 SWAP1 POP JUMPDEST PUSH2 0x511 PUSH2 0x509 DUP6 PUSH2 0x3C9 JUMP JUMPDEST DUP4 ADD DUP3 PUSH2 0x4B0 JUMP JUMPDEST POP POP JUMPDEST POP POP POP JUMP JUMPDEST PUSH1 0x0 DUP3 DUP3 SHR SWAP1 POP SWAP3 SWAP2 POP POP JUMP JUMPDEST PUSH1 0x0 PUSH2 0x537 PUSH1 0x0 NOT DUP5 PUSH1 0x8 MUL PUSH2 0x519 JUMP JUMPDEST NOT DUP1 DUP4 AND SWAP2 POP POP SWAP3 SWAP2 POP POP JUMP JUMPDEST PUSH1 0x0 PUSH2 0x550 DUP4 DUP4 PUSH2 0x526 JUMP JUMPDEST SWAP2 POP DUP3 PUSH1 0x2 MUL DUP3 OR SWAP1 POP SWAP3 SWAP2 POP POP JUMP JUMPDEST PUSH2 0x569 DUP3 PUSH2 0x349 JUMP JUMPDEST PUSH8 0xFFFFFFFFFFFFFFFF DUP2 GT ISZERO PUSH2 0x582 JUMPI PUSH2 0x581 PUSH2 0x106 JUMP JUMPDEST JUMPDEST PUSH2 0x58C DUP3 SLOAD PUSH2 0x383 JUMP JUMPDEST PUSH2 0x597 DUP3 DUP3 DUP6 PUSH2 0x4D3 JUMP JUMPDEST PUSH1 0x0 PUSH1 0x20 SWAP1 POP PUSH1 0x1F DUP4 GT PUSH1 0x1 DUP2 EQ PUSH2 0x5CA JUMPI PUSH1 0x0 DUP5 ISZERO PUSH2 0x5B8 JUMPI DUP3 DUP8 ADD MLOAD SWAP1 POP JUMPDEST PUSH2 0x5C2 DUP6 DUP3 PUSH2 0x544 JUMP JUMPDEST DUP7 SSTORE POP PUSH2 0x62A JUMP JUMPDEST PUSH1 0x1F NOT DUP5 AND PUSH2 0x5D8 DUP7 PUSH2 0x3B4 JUMP JUMPDEST PUSH1 0x0 JUMPDEST DUP3 DUP2 LT ISZERO PUSH2 0x600 JUMPI DUP5 DUP10 ADD MLOAD DUP3 SSTORE PUSH1 0x1 DUP3 ADD SWAP2 POP PUSH1 0x20 DUP6 ADD SWAP5 POP PUSH1 0x20 DUP2 ADD SWAP1 POP PUSH2 0x5DB JUMP JUMPDEST DUP7 DUP4 LT ISZERO PUSH2 0x61D JUMPI DUP5 DUP10 ADD MLOAD PUSH2 0x619 PUSH1 0x1F DUP10 AND DUP3 PUSH2 0x526 JUMP JUMPDEST DUP4 SSTORE POP JUMPDEST PUSH1 0x1 PUSH1 0x2 DUP9 MUL ADD DUP9 SSTORE POP POP POP JUMPDEST POP POP POP POP POP POP JUMP INVALID LOG2 PUSH5 0x6970667358 0x22 SLT KECCAK256 0xB7 CALLVALUE NUMBER SWAP4 0xB5 ADDMOD SWAP2 0xE2 0xCE KECCAK256 PUSH18 0x8386AC11DD55F79B498E66CC8E7CA041BD7C DUP11 PUSH4 0xD864736F PUSH13 0x63430008120033000000000000 "
		},
		"gasEstimates": {
			"creation": {
				"codeDepositCost": "328000",
				"executionCost": "368",
				"totalCost": "328368"
			},
			"external": {
				"HMS_data(uint256)": "infinite",
				"data(string,uint256,string)": "infinite"
			}
		},
		"methodIdentifiers": {
			"HMS_data(uint256)": "fdf9e901",
			"data(string,uint256,string)": "b8e94f1a"
		}
	},
	"abi": [
		{
			"inputs": [
				{
					"internalType": "uint256",
					"name": "",
					"type": "uint256"
				}
			],
			"name": "HMS_data",
			"outputs": [
				{
					"internalType": "uint256",
					"name": "",
					"type": "uint256"
				}
			],
			"stateMutability": "view",
			"type": "function"
		},
		{
			"inputs": [
				{
					"internalType": "string",
					"name": "_name",
					"type": "string"
				},
				{
					"internalType": "uint256",
					"name": "_age",
					"type": "uint256"
				},
				{
					"internalType": "string",
					"name": "_disease",
					"type": "string"
				}
			],
			"name": "data",
			"outputs": [],
			"stateMutability": "nonpayable",
			"type": "function"
		}
	]
}