{
	"Lab 15-08-2023/uni_admission.sol": {
		"uni_admission": {
			"abi": [
				{
					"inputs": [
						{
							"internalType": "uint256",
							"name": "",
							"type": "uint256"
						}
					],
					"name": "ChosenDepartment",
					"outputs": [
						{
							"internalType": "enum uni_admission.Department",
							"name": "",
							"type": "uint8"
						}
					],
					"stateMutability": "view",
					"type": "function"
				},
				{
					"inputs": [
						{
							"internalType": "uint256",
							"name": "",
							"type": "uint256"
						}
					],
					"name": "admissionStatus",
					"outputs": [
						{
							"internalType": "bool",
							"name": "",
							"type": "bool"
						}
					],
					"stateMutability": "view",
					"type": "function"
				},
				{
					"inputs": [
						{
							"internalType": "uint256",
							"name": "student",
							"type": "uint256"
						},
						{
							"internalType": "enum uni_admission.Department",
							"name": "selected_s",
							"type": "uint8"
						}
					],
					"name": "chooseDepartment",
					"outputs": [],
					"stateMutability": "nonpayable",
					"type": "function"
				},
				{
					"inputs": [
						{
							"internalType": "uint256",
							"name": "student",
							"type": "uint256"
						},
						{
							"internalType": "bool",
							"name": "hasPassed",
							"type": "bool"
						}
					],
					"name": "setAdmissionStatus",
					"outputs": [],
					"stateMutability": "nonpayable",
					"type": "function"
				}
			],
			"devdoc": {
				"kind": "dev",
				"methods": {},
				"version": 1
			},
			"evm": {
				"assembly": "    /* \"Lab 15-08-2023/uni_admission.sol\":62:574  contract  uni_admission {... */\n  mstore(0x40, 0x80)\n  callvalue\n  dup1\n  iszero\n  tag_1\n  jumpi\n  0x00\n  dup1\n  revert\ntag_1:\n  pop\n  dataSize(sub_0)\n  dup1\n  dataOffset(sub_0)\n  0x00\n  codecopy\n  0x00\n  return\nstop\n\nsub_0: assembly {\n        /* \"Lab 15-08-2023/uni_admission.sol\":62:574  contract  uni_admission {... */\n      mstore(0x40, 0x80)\n      callvalue\n      dup1\n      iszero\n      tag_1\n      jumpi\n      0x00\n      dup1\n      revert\n    tag_1:\n      pop\n      jumpi(tag_2, lt(calldatasize, 0x04))\n      shr(0xe0, calldataload(0x00))\n      dup1\n      0x12f8c2b0\n      eq\n      tag_3\n      jumpi\n      dup1\n      0xb71dfe48\n      eq\n      tag_4\n      jumpi\n      dup1\n      0xd54ab501\n      eq\n      tag_5\n      jumpi\n      dup1\n      0xdbf4ef2a\n      eq\n      tag_6\n      jumpi\n    tag_2:\n      0x00\n      dup1\n      revert\n        /* \"Lab 15-08-2023/uni_admission.sol\":160:205  mapping (uint => bool) public admissionStatus */\n    tag_3:\n      tag_7\n      0x04\n      dup1\n      calldatasize\n      sub\n      dup2\n      add\n      swap1\n      tag_8\n      swap2\n      swap1\n      tag_9\n      jump\t// in\n    tag_8:\n      tag_10\n      jump\t// in\n    tag_7:\n      mload(0x40)\n      tag_11\n      swap2\n      swap1\n      tag_12\n      jump\t// in\n    tag_11:\n      mload(0x40)\n      dup1\n      swap2\n      sub\n      swap1\n      return\n        /* \"Lab 15-08-2023/uni_admission.sol\":210:263  mapping (uint => Department) public  ChosenDepartment */\n    tag_4:\n      tag_13\n      0x04\n      dup1\n      calldatasize\n      sub\n      dup2\n      add\n      swap1\n      tag_14\n      swap2\n      swap1\n      tag_9\n      jump\t// in\n    tag_14:\n      tag_15\n      jump\t// in\n    tag_13:\n      mload(0x40)\n      tag_16\n      swap2\n      swap1\n      tag_17\n      jump\t// in\n    tag_16:\n      mload(0x40)\n      dup1\n      swap2\n      sub\n      swap1\n      return\n        /* \"Lab 15-08-2023/uni_admission.sol\":268:385  function  setAdmissionStatus(uint student , bool hasPassed ) public  {... */\n    tag_5:\n      tag_18\n      0x04\n      dup1\n      calldatasize\n      sub\n      dup2\n      add\n      swap1\n      tag_19\n      swap2\n      swap1\n      tag_20\n      jump\t// in\n    tag_19:\n      tag_21\n      jump\t// in\n    tag_18:\n      stop\n        /* \"Lab 15-08-2023/uni_admission.sol\":391:557  function  chooseDepartment(uint student ,   Department selected_s) public  {... */\n    tag_6:\n      tag_22\n      0x04\n      dup1\n      calldatasize\n      sub\n      dup2\n      add\n      swap1\n      tag_23\n      swap2\n      swap1\n      tag_24\n      jump\t// in\n    tag_23:\n      tag_25\n      jump\t// in\n    tag_22:\n      stop\n        /* \"Lab 15-08-2023/uni_admission.sol\":160:205  mapping (uint => bool) public admissionStatus */\n    tag_10:\n      mstore(0x20, 0x00)\n      dup1\n      0x00\n      mstore\n      keccak256(0x00, 0x40)\n      0x00\n      swap2\n      pop\n      sload\n      swap1\n      0x0100\n      exp\n      swap1\n      div\n      0xff\n      and\n      dup2\n      jump\t// out\n        /* \"Lab 15-08-2023/uni_admission.sol\":210:263  mapping (uint => Department) public  ChosenDepartment */\n    tag_15:\n      mstore(0x20, 0x01)\n      dup1\n      0x00\n      mstore\n      keccak256(0x00, 0x40)\n      0x00\n      swap2\n      pop\n      sload\n      swap1\n      0x0100\n      exp\n      swap1\n      div\n      0xff\n      and\n      dup2\n      jump\t// out\n        /* \"Lab 15-08-2023/uni_admission.sol\":268:385  function  setAdmissionStatus(uint student , bool hasPassed ) public  {... */\n    tag_21:\n        /* \"Lab 15-08-2023/uni_admission.sol\":368:377  hasPassed */\n      dup1\n        /* \"Lab 15-08-2023/uni_admission.sol\":341:356  admissionStatus */\n      0x00\n        /* \"Lab 15-08-2023/uni_admission.sol\":341:365  admissionStatus[student] */\n      dup1\n        /* \"Lab 15-08-2023/uni_admission.sol\":357:364  student */\n      dup5\n        /* \"Lab 15-08-2023/uni_admission.sol\":341:365  admissionStatus[student] */\n      dup2\n      mstore\n      0x20\n      add\n      swap1\n      dup2\n      mstore\n      0x20\n      add\n      0x00\n      keccak256\n      0x00\n        /* \"Lab 15-08-2023/uni_admission.sol\":341:377  admissionStatus[student] = hasPassed */\n      0x0100\n      exp\n      dup2\n      sload\n      dup2\n      0xff\n      mul\n      not\n      and\n      swap1\n      dup4\n      iszero\n      iszero\n      mul\n      or\n      swap1\n      sstore\n      pop\n        /* \"Lab 15-08-2023/uni_admission.sol\":268:385  function  setAdmissionStatus(uint student , bool hasPassed ) public  {... */\n      pop\n      pop\n      jump\t// out\n        /* \"Lab 15-08-2023/uni_admission.sol\":391:557  function  chooseDepartment(uint student ,   Department selected_s) public  {... */\n    tag_25:\n        /* \"Lab 15-08-2023/uni_admission.sol\":503:507  true */\n      0x01\n        /* \"Lab 15-08-2023/uni_admission.sol\":476:491  admissionStatus */\n      0x00\n        /* \"Lab 15-08-2023/uni_admission.sol\":476:500  admissionStatus[student] */\n      dup1\n        /* \"Lab 15-08-2023/uni_admission.sol\":492:499  student */\n      dup5\n        /* \"Lab 15-08-2023/uni_admission.sol\":476:500  admissionStatus[student] */\n      dup2\n      mstore\n      0x20\n      add\n      swap1\n      dup2\n      mstore\n      0x20\n      add\n      0x00\n      keccak256\n      0x00\n        /* \"Lab 15-08-2023/uni_admission.sol\":476:507  admissionStatus[student] = true */\n      0x0100\n      exp\n      dup2\n      sload\n      dup2\n      0xff\n      mul\n      not\n      and\n      swap1\n      dup4\n      iszero\n      iszero\n      mul\n      or\n      swap1\n      sstore\n        /* \"Lab 15-08-2023/uni_admission.sol\":469:508  assert(admissionStatus[student] = true) */\n      tag_28\n      jumpi\n      tag_29\n      tag_30\n      jump\t// in\n    tag_29:\n    tag_28:\n        /* \"Lab 15-08-2023/uni_admission.sol\":541:551  selected_s */\n      dup1\n        /* \"Lab 15-08-2023/uni_admission.sol\":513:529  ChosenDepartment */\n      0x01\n        /* \"Lab 15-08-2023/uni_admission.sol\":513:538  ChosenDepartment[student] */\n      0x00\n        /* \"Lab 15-08-2023/uni_admission.sol\":530:537  student */\n      dup5\n        /* \"Lab 15-08-2023/uni_admission.sol\":513:538  ChosenDepartment[student] */\n      dup2\n      mstore\n      0x20\n      add\n      swap1\n      dup2\n      mstore\n      0x20\n      add\n      0x00\n      keccak256\n      0x00\n        /* \"Lab 15-08-2023/uni_admission.sol\":513:551  ChosenDepartment[student] = selected_s */\n      0x0100\n      exp\n      dup2\n      sload\n      dup2\n      0xff\n      mul\n      not\n      and\n      swap1\n      dup4\n      0x03\n      dup2\n      gt\n      iszero\n      tag_31\n      jumpi\n      tag_32\n      tag_33\n      jump\t// in\n    tag_32:\n    tag_31:\n      mul\n      or\n      swap1\n      sstore\n      pop\n        /* \"Lab 15-08-2023/uni_admission.sol\":391:557  function  chooseDepartment(uint student ,   Department selected_s) public  {... */\n      pop\n      pop\n      jump\t// out\n        /* \"#utility.yul\":88:205   */\n    tag_35:\n        /* \"#utility.yul\":197:198   */\n      0x00\n        /* \"#utility.yul\":194:195   */\n      dup1\n        /* \"#utility.yul\":187:199   */\n      revert\n        /* \"#utility.yul\":334:411   */\n    tag_37:\n        /* \"#utility.yul\":371:378   */\n      0x00\n        /* \"#utility.yul\":400:405   */\n      dup2\n        /* \"#utility.yul\":389:405   */\n      swap1\n      pop\n        /* \"#utility.yul\":334:411   */\n      swap2\n      swap1\n      pop\n      jump\t// out\n        /* \"#utility.yul\":417:539   */\n    tag_38:\n        /* \"#utility.yul\":490:514   */\n      tag_56\n        /* \"#utility.yul\":508:513   */\n      dup2\n        /* \"#utility.yul\":490:514   */\n      tag_37\n      jump\t// in\n    tag_56:\n        /* \"#utility.yul\":483:488   */\n      dup2\n        /* \"#utility.yul\":480:515   */\n      eq\n        /* \"#utility.yul\":470:533   */\n      tag_57\n      jumpi\n        /* \"#utility.yul\":529:530   */\n      0x00\n        /* \"#utility.yul\":526:527   */\n      dup1\n        /* \"#utility.yul\":519:531   */\n      revert\n        /* \"#utility.yul\":470:533   */\n    tag_57:\n        /* \"#utility.yul\":417:539   */\n      pop\n      jump\t// out\n        /* \"#utility.yul\":545:684   */\n    tag_39:\n        /* \"#utility.yul\":591:596   */\n      0x00\n        /* \"#utility.yul\":629:635   */\n      dup2\n        /* \"#utility.yul\":616:636   */\n      calldataload\n        /* \"#utility.yul\":607:636   */\n      swap1\n      pop\n        /* \"#utility.yul\":645:678   */\n      tag_59\n        /* \"#utility.yul\":672:677   */\n      dup2\n        /* \"#utility.yul\":645:678   */\n      tag_38\n      jump\t// in\n    tag_59:\n        /* \"#utility.yul\":545:684   */\n      swap3\n      swap2\n      pop\n      pop\n      jump\t// out\n        /* \"#utility.yul\":690:1019   */\n    tag_9:\n        /* \"#utility.yul\":749:755   */\n      0x00\n        /* \"#utility.yul\":798:800   */\n      0x20\n        /* \"#utility.yul\":786:795   */\n      dup3\n        /* \"#utility.yul\":777:784   */\n      dup5\n        /* \"#utility.yul\":773:796   */\n      sub\n        /* \"#utility.yul\":769:801   */\n      slt\n        /* \"#utility.yul\":766:885   */\n      iszero\n      tag_61\n      jumpi\n        /* \"#utility.yul\":804:883   */\n      tag_62\n      tag_35\n      jump\t// in\n    tag_62:\n        /* \"#utility.yul\":766:885   */\n    tag_61:\n        /* \"#utility.yul\":924:925   */\n      0x00\n        /* \"#utility.yul\":949:1002   */\n      tag_63\n        /* \"#utility.yul\":994:1001   */\n      dup5\n        /* \"#utility.yul\":985:991   */\n      dup3\n        /* \"#utility.yul\":974:983   */\n      dup6\n        /* \"#utility.yul\":970:992   */\n      add\n        /* \"#utility.yul\":949:1002   */\n      tag_39\n      jump\t// in\n    tag_63:\n        /* \"#utility.yul\":939:1002   */\n      swap2\n      pop\n        /* \"#utility.yul\":895:1012   */\n      pop\n        /* \"#utility.yul\":690:1019   */\n      swap3\n      swap2\n      pop\n      pop\n      jump\t// out\n        /* \"#utility.yul\":1025:1115   */\n    tag_40:\n        /* \"#utility.yul\":1059:1066   */\n      0x00\n        /* \"#utility.yul\":1102:1107   */\n      dup2\n        /* \"#utility.yul\":1095:1108   */\n      iszero\n        /* \"#utility.yul\":1088:1109   */\n      iszero\n        /* \"#utility.yul\":1077:1109   */\n      swap1\n      pop\n        /* \"#utility.yul\":1025:1115   */\n      swap2\n      swap1\n      pop\n      jump\t// out\n        /* \"#utility.yul\":1121:1230   */\n    tag_41:\n        /* \"#utility.yul\":1202:1223   */\n      tag_66\n        /* \"#utility.yul\":1217:1222   */\n      dup2\n        /* \"#utility.yul\":1202:1223   */\n      tag_40\n      jump\t// in\n    tag_66:\n        /* \"#utility.yul\":1197:1200   */\n      dup3\n        /* \"#utility.yul\":1190:1224   */\n      mstore\n        /* \"#utility.yul\":1121:1230   */\n      pop\n      pop\n      jump\t// out\n        /* \"#utility.yul\":1236:1446   */\n    tag_12:\n        /* \"#utility.yul\":1323:1327   */\n      0x00\n        /* \"#utility.yul\":1361:1363   */\n      0x20\n        /* \"#utility.yul\":1350:1359   */\n      dup3\n        /* \"#utility.yul\":1346:1364   */\n      add\n        /* \"#utility.yul\":1338:1364   */\n      swap1\n      pop\n        /* \"#utility.yul\":1374:1439   */\n      tag_68\n        /* \"#utility.yul\":1436:1437   */\n      0x00\n        /* \"#utility.yul\":1425:1434   */\n      dup4\n        /* \"#utility.yul\":1421:1438   */\n      add\n        /* \"#utility.yul\":1412:1418   */\n      dup5\n        /* \"#utility.yul\":1374:1439   */\n      tag_41\n      jump\t// in\n    tag_68:\n        /* \"#utility.yul\":1236:1446   */\n      swap3\n      swap2\n      pop\n      pop\n      jump\t// out\n        /* \"#utility.yul\":1452:1632   */\n    tag_33:\n        /* \"#utility.yul\":1500:1577   */\n      0x4e487b7100000000000000000000000000000000000000000000000000000000\n        /* \"#utility.yul\":1497:1498   */\n      0x00\n        /* \"#utility.yul\":1490:1578   */\n      mstore\n        /* \"#utility.yul\":1597:1601   */\n      0x21\n        /* \"#utility.yul\":1594:1595   */\n      0x04\n        /* \"#utility.yul\":1587:1602   */\n      mstore\n        /* \"#utility.yul\":1621:1625   */\n      0x24\n        /* \"#utility.yul\":1618:1619   */\n      0x00\n        /* \"#utility.yul\":1611:1626   */\n      revert\n        /* \"#utility.yul\":1638:1755   */\n    tag_42:\n        /* \"#utility.yul\":1723:1724   */\n      0x04\n        /* \"#utility.yul\":1716:1721   */\n      dup2\n        /* \"#utility.yul\":1713:1725   */\n      lt\n        /* \"#utility.yul\":1703:1749   */\n      tag_71\n      jumpi\n        /* \"#utility.yul\":1729:1747   */\n      tag_72\n      tag_33\n      jump\t// in\n    tag_72:\n        /* \"#utility.yul\":1703:1749   */\n    tag_71:\n        /* \"#utility.yul\":1638:1755   */\n      pop\n      jump\t// out\n        /* \"#utility.yul\":1761:1896   */\n    tag_43:\n        /* \"#utility.yul\":1810:1817   */\n      0x00\n        /* \"#utility.yul\":1839:1844   */\n      dup2\n        /* \"#utility.yul\":1828:1844   */\n      swap1\n      pop\n        /* \"#utility.yul\":1845:1890   */\n      tag_74\n        /* \"#utility.yul\":1884:1889   */\n      dup3\n        /* \"#utility.yul\":1845:1890   */\n      tag_42\n      jump\t// in\n    tag_74:\n        /* \"#utility.yul\":1761:1896   */\n      swap2\n      swap1\n      pop\n      jump\t// out\n        /* \"#utility.yul\":1902:2037   */\n    tag_44:\n        /* \"#utility.yul\":1962:1971   */\n      0x00\n        /* \"#utility.yul\":1995:2031   */\n      tag_76\n        /* \"#utility.yul\":2025:2030   */\n      dup3\n        /* \"#utility.yul\":1995:2031   */\n      tag_43\n      jump\t// in\n    tag_76:\n        /* \"#utility.yul\":1982:2031   */\n      swap1\n      pop\n        /* \"#utility.yul\":1902:2037   */\n      swap2\n      swap1\n      pop\n      jump\t// out\n        /* \"#utility.yul\":2043:2194   */\n    tag_45:\n        /* \"#utility.yul\":2140:2187   */\n      tag_78\n        /* \"#utility.yul\":2181:2186   */\n      dup2\n        /* \"#utility.yul\":2140:2187   */\n      tag_44\n      jump\t// in\n    tag_78:\n        /* \"#utility.yul\":2135:2138   */\n      dup3\n        /* \"#utility.yul\":2128:2188   */\n      mstore\n        /* \"#utility.yul\":2043:2194   */\n      pop\n      pop\n      jump\t// out\n        /* \"#utility.yul\":2200:2442   */\n    tag_17:\n        /* \"#utility.yul\":2303:2307   */\n      0x00\n        /* \"#utility.yul\":2341:2343   */\n      0x20\n        /* \"#utility.yul\":2330:2339   */\n      dup3\n        /* \"#utility.yul\":2326:2344   */\n      add\n        /* \"#utility.yul\":2318:2344   */\n      swap1\n      pop\n        /* \"#utility.yul\":2354:2435   */\n      tag_80\n        /* \"#utility.yul\":2432:2433   */\n      0x00\n        /* \"#utility.yul\":2421:2430   */\n      dup4\n        /* \"#utility.yul\":2417:2434   */\n      add\n        /* \"#utility.yul\":2408:2414   */\n      dup5\n        /* \"#utility.yul\":2354:2435   */\n      tag_45\n      jump\t// in\n    tag_80:\n        /* \"#utility.yul\":2200:2442   */\n      swap3\n      swap2\n      pop\n      pop\n      jump\t// out\n        /* \"#utility.yul\":2448:2564   */\n    tag_46:\n        /* \"#utility.yul\":2518:2539   */\n      tag_82\n        /* \"#utility.yul\":2533:2538   */\n      dup2\n        /* \"#utility.yul\":2518:2539   */\n      tag_40\n      jump\t// in\n    tag_82:\n        /* \"#utility.yul\":2511:2516   */\n      dup2\n        /* \"#utility.yul\":2508:2540   */\n      eq\n        /* \"#utility.yul\":2498:2558   */\n      tag_83\n      jumpi\n        /* \"#utility.yul\":2554:2555   */\n      0x00\n        /* \"#utility.yul\":2551:2552   */\n      dup1\n        /* \"#utility.yul\":2544:2556   */\n      revert\n        /* \"#utility.yul\":2498:2558   */\n    tag_83:\n        /* \"#utility.yul\":2448:2564   */\n      pop\n      jump\t// out\n        /* \"#utility.yul\":2570:2703   */\n    tag_47:\n        /* \"#utility.yul\":2613:2618   */\n      0x00\n        /* \"#utility.yul\":2651:2657   */\n      dup2\n        /* \"#utility.yul\":2638:2658   */\n      calldataload\n        /* \"#utility.yul\":2629:2658   */\n      swap1\n      pop\n        /* \"#utility.yul\":2667:2697   */\n      tag_85\n        /* \"#utility.yul\":2691:2696   */\n      dup2\n        /* \"#utility.yul\":2667:2697   */\n      tag_46\n      jump\t// in\n    tag_85:\n        /* \"#utility.yul\":2570:2703   */\n      swap3\n      swap2\n      pop\n      pop\n      jump\t// out\n        /* \"#utility.yul\":2709:3177   */\n    tag_20:\n        /* \"#utility.yul\":2774:2780   */\n      0x00\n        /* \"#utility.yul\":2782:2788   */\n      dup1\n        /* \"#utility.yul\":2831:2833   */\n      0x40\n        /* \"#utility.yul\":2819:2828   */\n      dup4\n        /* \"#utility.yul\":2810:2817   */\n      dup6\n        /* \"#utility.yul\":2806:2829   */\n      sub\n        /* \"#utility.yul\":2802:2834   */\n      slt\n        /* \"#utility.yul\":2799:2918   */\n      iszero\n      tag_87\n      jumpi\n        /* \"#utility.yul\":2837:2916   */\n      tag_88\n      tag_35\n      jump\t// in\n    tag_88:\n        /* \"#utility.yul\":2799:2918   */\n    tag_87:\n        /* \"#utility.yul\":2957:2958   */\n      0x00\n        /* \"#utility.yul\":2982:3035   */\n      tag_89\n        /* \"#utility.yul\":3027:3034   */\n      dup6\n        /* \"#utility.yul\":3018:3024   */\n      dup3\n        /* \"#utility.yul\":3007:3016   */\n      dup7\n        /* \"#utility.yul\":3003:3025   */\n      add\n        /* \"#utility.yul\":2982:3035   */\n      tag_39\n      jump\t// in\n    tag_89:\n        /* \"#utility.yul\":2972:3035   */\n      swap3\n      pop\n        /* \"#utility.yul\":2928:3045   */\n      pop\n        /* \"#utility.yul\":3084:3086   */\n      0x20\n        /* \"#utility.yul\":3110:3160   */\n      tag_90\n        /* \"#utility.yul\":3152:3159   */\n      dup6\n        /* \"#utility.yul\":3143:3149   */\n      dup3\n        /* \"#utility.yul\":3132:3141   */\n      dup7\n        /* \"#utility.yul\":3128:3150   */\n      add\n        /* \"#utility.yul\":3110:3160   */\n      tag_47\n      jump\t// in\n    tag_90:\n        /* \"#utility.yul\":3100:3160   */\n      swap2\n      pop\n        /* \"#utility.yul\":3055:3170   */\n      pop\n        /* \"#utility.yul\":2709:3177   */\n      swap3\n      pop\n      swap3\n      swap1\n      pop\n      jump\t// out\n        /* \"#utility.yul\":3183:3294   */\n    tag_48:\n        /* \"#utility.yul\":3268:3269   */\n      0x04\n        /* \"#utility.yul\":3261:3266   */\n      dup2\n        /* \"#utility.yul\":3258:3270   */\n      lt\n        /* \"#utility.yul\":3248:3288   */\n      tag_92\n      jumpi\n        /* \"#utility.yul\":3284:3285   */\n      0x00\n        /* \"#utility.yul\":3281:3282   */\n      dup1\n        /* \"#utility.yul\":3274:3286   */\n      revert\n        /* \"#utility.yul\":3248:3288   */\n    tag_92:\n        /* \"#utility.yul\":3183:3294   */\n      pop\n      jump\t// out\n        /* \"#utility.yul\":3300:3463   */\n    tag_49:\n        /* \"#utility.yul\":3358:3363   */\n      0x00\n        /* \"#utility.yul\":3396:3402   */\n      dup2\n        /* \"#utility.yul\":3383:3403   */\n      calldataload\n        /* \"#utility.yul\":3374:3403   */\n      swap1\n      pop\n        /* \"#utility.yul\":3412:3457   */\n      tag_94\n        /* \"#utility.yul\":3451:3456   */\n      dup2\n        /* \"#utility.yul\":3412:3457   */\n      tag_48\n      jump\t// in\n    tag_94:\n        /* \"#utility.yul\":3300:3463   */\n      swap3\n      swap2\n      pop\n      pop\n      jump\t// out\n        /* \"#utility.yul\":3469:3967   */\n    tag_24:\n        /* \"#utility.yul\":3549:3555   */\n      0x00\n        /* \"#utility.yul\":3557:3563   */\n      dup1\n        /* \"#utility.yul\":3606:3608   */\n      0x40\n        /* \"#utility.yul\":3594:3603   */\n      dup4\n        /* \"#utility.yul\":3585:3592   */\n      dup6\n        /* \"#utility.yul\":3581:3604   */\n      sub\n        /* \"#utility.yul\":3577:3609   */\n      slt\n        /* \"#utility.yul\":3574:3693   */\n      iszero\n      tag_96\n      jumpi\n        /* \"#utility.yul\":3612:3691   */\n      tag_97\n      tag_35\n      jump\t// in\n    tag_97:\n        /* \"#utility.yul\":3574:3693   */\n    tag_96:\n        /* \"#utility.yul\":3732:3733   */\n      0x00\n        /* \"#utility.yul\":3757:3810   */\n      tag_98\n        /* \"#utility.yul\":3802:3809   */\n      dup6\n        /* \"#utility.yul\":3793:3799   */\n      dup3\n        /* \"#utility.yul\":3782:3791   */\n      dup7\n        /* \"#utility.yul\":3778:3800   */\n      add\n        /* \"#utility.yul\":3757:3810   */\n      tag_39\n      jump\t// in\n    tag_98:\n        /* \"#utility.yul\":3747:3810   */\n      swap3\n      pop\n        /* \"#utility.yul\":3703:3820   */\n      pop\n        /* \"#utility.yul\":3859:3861   */\n      0x20\n        /* \"#utility.yul\":3885:3950   */\n      tag_99\n        /* \"#utility.yul\":3942:3949   */\n      dup6\n        /* \"#utility.yul\":3933:3939   */\n      dup3\n        /* \"#utility.yul\":3922:3931   */\n      dup7\n        /* \"#utility.yul\":3918:3940   */\n      add\n        /* \"#utility.yul\":3885:3950   */\n      tag_49\n      jump\t// in\n    tag_99:\n        /* \"#utility.yul\":3875:3950   */\n      swap2\n      pop\n        /* \"#utility.yul\":3830:3960   */\n      pop\n        /* \"#utility.yul\":3469:3967   */\n      swap3\n      pop\n      swap3\n      swap1\n      pop\n      jump\t// out\n        /* \"#utility.yul\":3973:4153   */\n    tag_30:\n        /* \"#utility.yul\":4021:4098   */\n      0x4e487b7100000000000000000000000000000000000000000000000000000000\n        /* \"#utility.yul\":4018:4019   */\n      0x00\n        /* \"#utility.yul\":4011:4099   */\n      mstore\n        /* \"#utility.yul\":4118:4122   */\n      0x01\n        /* \"#utility.yul\":4115:4116   */\n      0x04\n        /* \"#utility.yul\":4108:4123   */\n      mstore\n        /* \"#utility.yul\":4142:4146   */\n      0x24\n        /* \"#utility.yul\":4139:4140   */\n      0x00\n        /* \"#utility.yul\":4132:4147   */\n      revert\n\n    auxdata: 0xa26469706673582212203b9f404f1f48bbde23159dcb386b45d578291b8f96fd59e934781c4b1126256664736f6c63430008120033\n}\n",
				"bytecode": {
					"linkReferences": {},
					"object": "608060405234801561001057600080fd5b50610433806100206000396000f3fe608060405234801561001057600080fd5b506004361061004c5760003560e01c806312f8c2b014610051578063b71dfe4814610081578063d54ab501146100b1578063dbf4ef2a146100cd575b600080fd5b61006b60048036038101906100669190610208565b6100e9565b6040516100789190610250565b60405180910390f35b61009b60048036038101906100969190610208565b610109565b6040516100a891906102e2565b60405180910390f35b6100cb60048036038101906100c69190610329565b610129565b005b6100e760048036038101906100e2919061038e565b610157565b005b60006020528060005260406000206000915054906101000a900460ff1681565b60016020528060005260406000206000915054906101000a900460ff1681565b8060008084815260200190815260200160002060006101000a81548160ff0219169083151502179055505050565b600160008084815260200190815260200160002060006101000a81548160ff021916908315150217905561018e5761018d6103ce565b5b806001600084815260200190815260200160002060006101000a81548160ff021916908360038111156101c4576101c361026b565b5b02179055505050565b600080fd5b6000819050919050565b6101e5816101d2565b81146101f057600080fd5b50565b600081359050610202816101dc565b92915050565b60006020828403121561021e5761021d6101cd565b5b600061022c848285016101f3565b91505092915050565b60008115159050919050565b61024a81610235565b82525050565b60006020820190506102656000830184610241565b92915050565b7f4e487b7100000000000000000000000000000000000000000000000000000000600052602160045260246000fd5b600481106102ab576102aa61026b565b5b50565b60008190506102bc8261029a565b919050565b60006102cc826102ae565b9050919050565b6102dc816102c1565b82525050565b60006020820190506102f760008301846102d3565b92915050565b61030681610235565b811461031157600080fd5b50565b600081359050610323816102fd565b92915050565b600080604083850312156103405761033f6101cd565b5b600061034e858286016101f3565b925050602061035f85828601610314565b9150509250929050565b6004811061037657600080fd5b50565b60008135905061038881610369565b92915050565b600080604083850312156103a5576103a46101cd565b5b60006103b3858286016101f3565b92505060206103c485828601610379565b9150509250929050565b7f4e487b7100000000000000000000000000000000000000000000000000000000600052600160045260246000fdfea26469706673582212203b9f404f1f48bbde23159dcb386b45d578291b8f96fd59e934781c4b1126256664736f6c63430008120033",
					"opcodes": "PUSH1 0x80 PUSH1 0x40 MSTORE CALLVALUE DUP1 ISZERO PUSH2 0x10 JUMPI PUSH1 0x0 DUP1 REVERT JUMPDEST POP PUSH2 0x433 DUP1 PUSH2 0x20 PUSH1 0x0 CODECOPY PUSH1 0x0 RETURN INVALID PUSH1 0x80 PUSH1 0x40 MSTORE CALLVALUE DUP1 ISZERO PUSH2 0x10 JUMPI PUSH1 0x0 DUP1 REVERT JUMPDEST POP PUSH1 0x4 CALLDATASIZE LT PUSH2 0x4C JUMPI PUSH1 0x0 CALLDATALOAD PUSH1 0xE0 SHR DUP1 PUSH4 0x12F8C2B0 EQ PUSH2 0x51 JUMPI DUP1 PUSH4 0xB71DFE48 EQ PUSH2 0x81 JUMPI DUP1 PUSH4 0xD54AB501 EQ PUSH2 0xB1 JUMPI DUP1 PUSH4 0xDBF4EF2A EQ PUSH2 0xCD JUMPI JUMPDEST PUSH1 0x0 DUP1 REVERT JUMPDEST PUSH2 0x6B PUSH1 0x4 DUP1 CALLDATASIZE SUB DUP2 ADD SWAP1 PUSH2 0x66 SWAP2 SWAP1 PUSH2 0x208 JUMP JUMPDEST PUSH2 0xE9 JUMP JUMPDEST PUSH1 0x40 MLOAD PUSH2 0x78 SWAP2 SWAP1 PUSH2 0x250 JUMP JUMPDEST PUSH1 0x40 MLOAD DUP1 SWAP2 SUB SWAP1 RETURN JUMPDEST PUSH2 0x9B PUSH1 0x4 DUP1 CALLDATASIZE SUB DUP2 ADD SWAP1 PUSH2 0x96 SWAP2 SWAP1 PUSH2 0x208 JUMP JUMPDEST PUSH2 0x109 JUMP JUMPDEST PUSH1 0x40 MLOAD PUSH2 0xA8 SWAP2 SWAP1 PUSH2 0x2E2 JUMP JUMPDEST PUSH1 0x40 MLOAD DUP1 SWAP2 SUB SWAP1 RETURN JUMPDEST PUSH2 0xCB PUSH1 0x4 DUP1 CALLDATASIZE SUB DUP2 ADD SWAP1 PUSH2 0xC6 SWAP2 SWAP1 PUSH2 0x329 JUMP JUMPDEST PUSH2 0x129 JUMP JUMPDEST STOP JUMPDEST PUSH2 0xE7 PUSH1 0x4 DUP1 CALLDATASIZE SUB DUP2 ADD SWAP1 PUSH2 0xE2 SWAP2 SWAP1 PUSH2 0x38E JUMP JUMPDEST PUSH2 0x157 JUMP JUMPDEST STOP JUMPDEST PUSH1 0x0 PUSH1 0x20 MSTORE DUP1 PUSH1 0x0 MSTORE PUSH1 0x40 PUSH1 0x0 KECCAK256 PUSH1 0x0 SWAP2 POP SLOAD SWAP1 PUSH2 0x100 EXP SWAP1 DIV PUSH1 0xFF AND DUP2 JUMP JUMPDEST PUSH1 0x1 PUSH1 0x20 MSTORE DUP1 PUSH1 0x0 MSTORE PUSH1 0x40 PUSH1 0x0 KECCAK256 PUSH1 0x0 SWAP2 POP SLOAD SWAP1 PUSH2 0x100 EXP SWAP1 DIV PUSH1 0xFF AND DUP2 JUMP JUMPDEST DUP1 PUSH1 0x0 DUP1 DUP5 DUP2 MSTORE PUSH1 0x20 ADD SWAP1 DUP2 MSTORE PUSH1 0x20 ADD PUSH1 0x0 KECCAK256 PUSH1 0x0 PUSH2 0x100 EXP DUP2 SLOAD DUP2 PUSH1 0xFF MUL NOT AND SWAP1 DUP4 ISZERO ISZERO MUL OR SWAP1 SSTORE POP POP POP JUMP JUMPDEST PUSH1 0x1 PUSH1 0x0 DUP1 DUP5 DUP2 MSTORE PUSH1 0x20 ADD SWAP1 DUP2 MSTORE PUSH1 0x20 ADD PUSH1 0x0 KECCAK256 PUSH1 0x0 PUSH2 0x100 EXP DUP2 SLOAD DUP2 PUSH1 0xFF MUL NOT AND SWAP1 DUP4 ISZERO ISZERO MUL OR SWAP1 SSTORE PUSH2 0x18E JUMPI PUSH2 0x18D PUSH2 0x3CE JUMP JUMPDEST JUMPDEST DUP1 PUSH1 0x1 PUSH1 0x0 DUP5 DUP2 MSTORE PUSH1 0x20 ADD SWAP1 DUP2 MSTORE PUSH1 0x20 ADD PUSH1 0x0 KECCAK256 PUSH1 0x0 PUSH2 0x100 EXP DUP2 SLOAD DUP2 PUSH1 0xFF MUL NOT AND SWAP1 DUP4 PUSH1 0x3 DUP2 GT ISZERO PUSH2 0x1C4 JUMPI PUSH2 0x1C3 PUSH2 0x26B JUMP JUMPDEST JUMPDEST MUL OR SWAP1 SSTORE POP POP POP JUMP JUMPDEST PUSH1 0x0 DUP1 REVERT JUMPDEST PUSH1 0x0 DUP2 SWAP1 POP SWAP2 SWAP1 POP JUMP JUMPDEST PUSH2 0x1E5 DUP2 PUSH2 0x1D2 JUMP JUMPDEST DUP2 EQ PUSH2 0x1F0 JUMPI PUSH1 0x0 DUP1 REVERT JUMPDEST POP JUMP JUMPDEST PUSH1 0x0 DUP2 CALLDATALOAD SWAP1 POP PUSH2 0x202 DUP2 PUSH2 0x1DC JUMP JUMPDEST SWAP3 SWAP2 POP POP JUMP JUMPDEST PUSH1 0x0 PUSH1 0x20 DUP3 DUP5 SUB SLT ISZERO PUSH2 0x21E JUMPI PUSH2 0x21D PUSH2 0x1CD JUMP JUMPDEST JUMPDEST PUSH1 0x0 PUSH2 0x22C DUP5 DUP3 DUP6 ADD PUSH2 0x1F3 JUMP JUMPDEST SWAP2 POP POP SWAP3 SWAP2 POP POP JUMP JUMPDEST PUSH1 0x0 DUP2 ISZERO ISZERO SWAP1 POP SWAP2 SWAP1 POP JUMP JUMPDEST PUSH2 0x24A DUP2 PUSH2 0x235 JUMP JUMPDEST DUP3 MSTORE POP POP JUMP JUMPDEST PUSH1 0x0 PUSH1 0x20 DUP3 ADD SWAP1 POP PUSH2 0x265 PUSH1 0x0 DUP4 ADD DUP5 PUSH2 0x241 JUMP JUMPDEST SWAP3 SWAP2 POP POP JUMP JUMPDEST PUSH32 0x4E487B7100000000000000000000000000000000000000000000000000000000 PUSH1 0x0 MSTORE PUSH1 0x21 PUSH1 0x4 MSTORE PUSH1 0x24 PUSH1 0x0 REVERT JUMPDEST PUSH1 0x4 DUP2 LT PUSH2 0x2AB JUMPI PUSH2 0x2AA PUSH2 0x26B JUMP JUMPDEST JUMPDEST POP JUMP JUMPDEST PUSH1 0x0 DUP2 SWAP1 POP PUSH2 0x2BC DUP3 PUSH2 0x29A JUMP JUMPDEST SWAP2 SWAP1 POP JUMP JUMPDEST PUSH1 0x0 PUSH2 0x2CC DUP3 PUSH2 0x2AE JUMP JUMPDEST SWAP1 POP SWAP2 SWAP1 POP JUMP JUMPDEST PUSH2 0x2DC DUP2 PUSH2 0x2C1 JUMP JUMPDEST DUP3 MSTORE POP POP JUMP JUMPDEST PUSH1 0x0 PUSH1 0x20 DUP3 ADD SWAP1 POP PUSH2 0x2F7 PUSH1 0x0 DUP4 ADD DUP5 PUSH2 0x2D3 JUMP JUMPDEST SWAP3 SWAP2 POP POP JUMP JUMPDEST PUSH2 0x306 DUP2 PUSH2 0x235 JUMP JUMPDEST DUP2 EQ PUSH2 0x311 JUMPI PUSH1 0x0 DUP1 REVERT JUMPDEST POP JUMP JUMPDEST PUSH1 0x0 DUP2 CALLDATALOAD SWAP1 POP PUSH2 0x323 DUP2 PUSH2 0x2FD JUMP JUMPDEST SWAP3 SWAP2 POP POP JUMP JUMPDEST PUSH1 0x0 DUP1 PUSH1 0x40 DUP4 DUP6 SUB SLT ISZERO PUSH2 0x340 JUMPI PUSH2 0x33F PUSH2 0x1CD JUMP JUMPDEST JUMPDEST PUSH1 0x0 PUSH2 0x34E DUP6 DUP3 DUP7 ADD PUSH2 0x1F3 JUMP JUMPDEST SWAP3 POP POP PUSH1 0x20 PUSH2 0x35F DUP6 DUP3 DUP7 ADD PUSH2 0x314 JUMP JUMPDEST SWAP2 POP POP SWAP3 POP SWAP3 SWAP1 POP JUMP JUMPDEST PUSH1 0x4 DUP2 LT PUSH2 0x376 JUMPI PUSH1 0x0 DUP1 REVERT JUMPDEST POP JUMP JUMPDEST PUSH1 0x0 DUP2 CALLDATALOAD SWAP1 POP PUSH2 0x388 DUP2 PUSH2 0x369 JUMP JUMPDEST SWAP3 SWAP2 POP POP JUMP JUMPDEST PUSH1 0x0 DUP1 PUSH1 0x40 DUP4 DUP6 SUB SLT ISZERO PUSH2 0x3A5 JUMPI PUSH2 0x3A4 PUSH2 0x1CD JUMP JUMPDEST JUMPDEST PUSH1 0x0 PUSH2 0x3B3 DUP6 DUP3 DUP7 ADD PUSH2 0x1F3 JUMP JUMPDEST SWAP3 POP POP PUSH1 0x20 PUSH2 0x3C4 DUP6 DUP3 DUP7 ADD PUSH2 0x379 JUMP JUMPDEST SWAP2 POP POP SWAP3 POP SWAP3 SWAP1 POP JUMP JUMPDEST PUSH32 0x4E487B7100000000000000000000000000000000000000000000000000000000 PUSH1 0x0 MSTORE PUSH1 0x1 PUSH1 0x4 MSTORE PUSH1 0x24 PUSH1 0x0 REVERT INVALID LOG2 PUSH5 0x6970667358 0x22 SLT KECCAK256 EXTCODESIZE SWAP16 BLOCKHASH 0x4F 0x1F BASEFEE 0xBB 0xDE 0x23 ISZERO SWAP14 0xCB CODESIZE PUSH12 0x45D578291B8F96FD59E93478 SHR 0x4B GT 0x26 0x25 PUSH7 0x64736F6C634300 ADDMOD SLT STOP CALLER "
				},
				"gasEstimates": {
					"creation": {
						"codeDepositCost": "215000",
						"executionCost": "257",
						"totalCost": "215257"
					},
					"external": {
						"ChosenDepartment(uint256)": "2885",
						"admissionStatus(uint256)": "2774",
						"chooseDepartment(uint256,uint8)": "49302",
						"setAdmissionStatus(uint256,bool)": "24952"
					}
				},
				"methodIdentifiers": {
					"ChosenDepartment(uint256)": "b71dfe48",
					"admissionStatus(uint256)": "12f8c2b0",
					"chooseDepartment(uint256,uint8)": "dbf4ef2a",
					"setAdmissionStatus(uint256,bool)": "d54ab501"
				}
			},
			"storageLayout": {
				"storage": [
					{
						"astId": 10,
						"contract": "Lab 15-08-2023/uni_admission.sol:uni_admission",
						"label": "admissionStatus",
						"offset": 0,
						"slot": "0",
						"type": "t_mapping(t_uint256,t_bool)"
					},
					{
						"astId": 15,
						"contract": "Lab 15-08-2023/uni_admission.sol:uni_admission",
						"label": "ChosenDepartment",
						"offset": 0,
						"slot": "1",
						"type": "t_mapping(t_uint256,t_enum(Department)6)"
					}
				],
				"types": {
					"t_bool": {
						"encoding": "inplace",
						"label": "bool",
						"numberOfBytes": "1"
					},
					"t_enum(Department)6": {
						"encoding": "inplace",
						"label": "enum uni_admission.Department",
						"numberOfBytes": "1"
					},
					"t_mapping(t_uint256,t_bool)": {
						"encoding": "mapping",
						"key": "t_uint256",
						"label": "mapping(uint256 => bool)",
						"numberOfBytes": "32",
						"value": "t_bool"
					},
					"t_mapping(t_uint256,t_enum(Department)6)": {
						"encoding": "mapping",
						"key": "t_uint256",
						"label": "mapping(uint256 => enum uni_admission.Department)",
						"numberOfBytes": "32",
						"value": "t_enum(Department)6"
					},
					"t_uint256": {
						"encoding": "inplace",
						"label": "uint256",
						"numberOfBytes": "32"
					}
				}
			},
			"userdoc": {
				"kind": "user",
				"methods": {},
				"version": 1
			}
		}
	}
}