{
	"Lab 15-08-2023/Atm.sol": {
		"Atm": {
			"abi": [
				{
					"inputs": [
						{
							"internalType": "string",
							"name": "message",
							"type": "string"
						},
						{
							"internalType": "uint256",
							"name": "cash",
							"type": "uint256"
						}
					],
					"name": "Insuffecient",
					"type": "error"
				},
				{
					"inputs": [
						{
							"internalType": "uint256",
							"name": "Refillamount",
							"type": "uint256"
						}
					],
					"name": "ATMrefill",
					"outputs": [],
					"stateMutability": "nonpayable",
					"type": "function"
				},
				{
					"inputs": [],
					"name": "CashAvailable",
					"outputs": [
						{
							"internalType": "uint256",
							"name": "",
							"type": "uint256"
						}
					],
					"stateMutability": "view",
					"type": "function"
				},
				{
					"inputs": [
						{
							"internalType": "uint256",
							"name": "withdrawAmount",
							"type": "uint256"
						}
					],
					"name": "Moneywithdraw",
					"outputs": [],
					"stateMutability": "view",
					"type": "function"
				}
			],
			"devdoc": {
				"kind": "dev",
				"methods": {},
				"version": 1
			},
			"evm": {
				"assembly": "    /* \"Lab 15-08-2023/Atm.sol\":62:431  contract Atm {... */\n  mstore(0x40, 0x80)\n  callvalue\n  dup1\n  iszero\n  tag_1\n  jumpi\n  0x00\n  dup1\n  revert\ntag_1:\n  pop\n  dataSize(sub_0)\n  dup1\n  dataOffset(sub_0)\n  0x00\n  codecopy\n  0x00\n  return\nstop\n\nsub_0: assembly {\n        /* \"Lab 15-08-2023/Atm.sol\":62:431  contract Atm {... */\n      mstore(0x40, 0x80)\n      callvalue\n      dup1\n      iszero\n      tag_1\n      jumpi\n      0x00\n      dup1\n      revert\n    tag_1:\n      pop\n      jumpi(tag_2, lt(calldatasize, 0x04))\n      shr(0xe0, calldataload(0x00))\n      dup1\n      0x08b92939\n      eq\n      tag_3\n      jumpi\n      dup1\n      0x36f0edf8\n      eq\n      tag_4\n      jumpi\n      dup1\n      0x5b74070b\n      eq\n      tag_5\n      jumpi\n    tag_2:\n      0x00\n      dup1\n      revert\n        /* \"Lab 15-08-2023/Atm.sol\":84:110  uint public  CashAvailable */\n    tag_3:\n      tag_6\n      tag_7\n      jump\t// in\n    tag_6:\n      mload(0x40)\n      tag_8\n      swap2\n      swap1\n      tag_9\n      jump\t// in\n    tag_8:\n      mload(0x40)\n      dup1\n      swap2\n      sub\n      swap1\n      return\n        /* \"Lab 15-08-2023/Atm.sol\":332:424  function  ATMrefill(uint Refillamount) public  {... */\n    tag_4:\n      tag_10\n      0x04\n      dup1\n      calldatasize\n      sub\n      dup2\n      add\n      swap1\n      tag_11\n      swap2\n      swap1\n      tag_12\n      jump\t// in\n    tag_11:\n      tag_13\n      jump\t// in\n    tag_10:\n      stop\n        /* \"Lab 15-08-2023/Atm.sol\":170:330  function Moneywithdraw(uint withdrawAmount) public view   {... */\n    tag_5:\n      tag_14\n      0x04\n      dup1\n      calldatasize\n      sub\n      dup2\n      add\n      swap1\n      tag_15\n      swap2\n      swap1\n      tag_12\n      jump\t// in\n    tag_15:\n      tag_16\n      jump\t// in\n    tag_14:\n      stop\n        /* \"Lab 15-08-2023/Atm.sol\":84:110  uint public  CashAvailable */\n    tag_7:\n      sload(0x00)\n      dup2\n      jump\t// out\n        /* \"Lab 15-08-2023/Atm.sol\":332:424  function  ATMrefill(uint Refillamount) public  {... */\n    tag_13:\n        /* \"Lab 15-08-2023/Atm.sol\":402:414  Refillamount */\n      dup1\n        /* \"Lab 15-08-2023/Atm.sol\":386:399  CashAvailable */\n      0x00\n      dup1\n        /* \"Lab 15-08-2023/Atm.sol\":386:414  CashAvailable +=Refillamount */\n      dup3\n      dup3\n      sload\n      tag_18\n      swap2\n      swap1\n      tag_19\n      jump\t// in\n    tag_18:\n      swap3\n      pop\n      pop\n      dup2\n      swap1\n      sstore\n      pop\n        /* \"Lab 15-08-2023/Atm.sol\":332:424  function  ATMrefill(uint Refillamount) public  {... */\n      pop\n      jump\t// out\n        /* \"Lab 15-08-2023/Atm.sol\":170:330  function Moneywithdraw(uint withdrawAmount) public view   {... */\n    tag_16:\n        /* \"Lab 15-08-2023/Atm.sol\":257:271  withdrawAmount */\n      dup1\n        /* \"Lab 15-08-2023/Atm.sol\":241:254  CashAvailable */\n      sload(0x00)\n        /* \"Lab 15-08-2023/Atm.sol\":241:271  CashAvailable < withdrawAmount */\n      lt\n        /* \"Lab 15-08-2023/Atm.sol\":237:327  if (CashAvailable < withdrawAmount) {... */\n      iszero\n      tag_21\n      jumpi\n        /* \"Lab 15-08-2023/Atm.sol\":318:320  12 */\n      0x0c\n        /* \"Lab 15-08-2023/Atm.sol\":289:321  Insuffecient(\"cash is low\" , 12) */\n      mload(0x40)\n      0x0ef73ac200000000000000000000000000000000000000000000000000000000\n      dup2\n      mstore\n      0x04\n      add\n      tag_22\n      swap2\n      swap1\n      tag_23\n      jump\t// in\n    tag_22:\n      mload(0x40)\n      dup1\n      swap2\n      sub\n      swap1\n      revert\n        /* \"Lab 15-08-2023/Atm.sol\":237:327  if (CashAvailable < withdrawAmount) {... */\n    tag_21:\n        /* \"Lab 15-08-2023/Atm.sol\":170:330  function Moneywithdraw(uint withdrawAmount) public view   {... */\n      pop\n      jump\t// out\n        /* \"#utility.yul\":7:84   */\n    tag_24:\n        /* \"#utility.yul\":44:51   */\n      0x00\n        /* \"#utility.yul\":73:78   */\n      dup2\n        /* \"#utility.yul\":62:78   */\n      swap1\n      pop\n        /* \"#utility.yul\":7:84   */\n      swap2\n      swap1\n      pop\n      jump\t// out\n        /* \"#utility.yul\":90:208   */\n    tag_25:\n        /* \"#utility.yul\":177:201   */\n      tag_42\n        /* \"#utility.yul\":195:200   */\n      dup2\n        /* \"#utility.yul\":177:201   */\n      tag_24\n      jump\t// in\n    tag_42:\n        /* \"#utility.yul\":172:175   */\n      dup3\n        /* \"#utility.yul\":165:202   */\n      mstore\n        /* \"#utility.yul\":90:208   */\n      pop\n      pop\n      jump\t// out\n        /* \"#utility.yul\":214:436   */\n    tag_9:\n        /* \"#utility.yul\":307:311   */\n      0x00\n        /* \"#utility.yul\":345:347   */\n      0x20\n        /* \"#utility.yul\":334:343   */\n      dup3\n        /* \"#utility.yul\":330:348   */\n      add\n        /* \"#utility.yul\":322:348   */\n      swap1\n      pop\n        /* \"#utility.yul\":358:429   */\n      tag_44\n        /* \"#utility.yul\":426:427   */\n      0x00\n        /* \"#utility.yul\":415:424   */\n      dup4\n        /* \"#utility.yul\":411:428   */\n      add\n        /* \"#utility.yul\":402:408   */\n      dup5\n        /* \"#utility.yul\":358:429   */\n      tag_25\n      jump\t// in\n    tag_44:\n        /* \"#utility.yul\":214:436   */\n      swap3\n      swap2\n      pop\n      pop\n      jump\t// out\n        /* \"#utility.yul\":523:640   */\n    tag_27:\n        /* \"#utility.yul\":632:633   */\n      0x00\n        /* \"#utility.yul\":629:630   */\n      dup1\n        /* \"#utility.yul\":622:634   */\n      revert\n        /* \"#utility.yul\":769:891   */\n    tag_29:\n        /* \"#utility.yul\":842:866   */\n      tag_49\n        /* \"#utility.yul\":860:865   */\n      dup2\n        /* \"#utility.yul\":842:866   */\n      tag_24\n      jump\t// in\n    tag_49:\n        /* \"#utility.yul\":835:840   */\n      dup2\n        /* \"#utility.yul\":832:867   */\n      eq\n        /* \"#utility.yul\":822:885   */\n      tag_50\n      jumpi\n        /* \"#utility.yul\":881:882   */\n      0x00\n        /* \"#utility.yul\":878:879   */\n      dup1\n        /* \"#utility.yul\":871:883   */\n      revert\n        /* \"#utility.yul\":822:885   */\n    tag_50:\n        /* \"#utility.yul\":769:891   */\n      pop\n      jump\t// out\n        /* \"#utility.yul\":897:1036   */\n    tag_30:\n        /* \"#utility.yul\":943:948   */\n      0x00\n        /* \"#utility.yul\":981:987   */\n      dup2\n        /* \"#utility.yul\":968:988   */\n      calldataload\n        /* \"#utility.yul\":959:988   */\n      swap1\n      pop\n        /* \"#utility.yul\":997:1030   */\n      tag_52\n        /* \"#utility.yul\":1024:1029   */\n      dup2\n        /* \"#utility.yul\":997:1030   */\n      tag_29\n      jump\t// in\n    tag_52:\n        /* \"#utility.yul\":897:1036   */\n      swap3\n      swap2\n      pop\n      pop\n      jump\t// out\n        /* \"#utility.yul\":1042:1371   */\n    tag_12:\n        /* \"#utility.yul\":1101:1107   */\n      0x00\n        /* \"#utility.yul\":1150:1152   */\n      0x20\n        /* \"#utility.yul\":1138:1147   */\n      dup3\n        /* \"#utility.yul\":1129:1136   */\n      dup5\n        /* \"#utility.yul\":1125:1148   */\n      sub\n        /* \"#utility.yul\":1121:1153   */\n      slt\n        /* \"#utility.yul\":1118:1237   */\n      iszero\n      tag_54\n      jumpi\n        /* \"#utility.yul\":1156:1235   */\n      tag_55\n      tag_27\n      jump\t// in\n    tag_55:\n        /* \"#utility.yul\":1118:1237   */\n    tag_54:\n        /* \"#utility.yul\":1276:1277   */\n      0x00\n        /* \"#utility.yul\":1301:1354   */\n      tag_56\n        /* \"#utility.yul\":1346:1353   */\n      dup5\n        /* \"#utility.yul\":1337:1343   */\n      dup3\n        /* \"#utility.yul\":1326:1335   */\n      dup6\n        /* \"#utility.yul\":1322:1344   */\n      add\n        /* \"#utility.yul\":1301:1354   */\n      tag_30\n      jump\t// in\n    tag_56:\n        /* \"#utility.yul\":1291:1354   */\n      swap2\n      pop\n        /* \"#utility.yul\":1247:1364   */\n      pop\n        /* \"#utility.yul\":1042:1371   */\n      swap3\n      swap2\n      pop\n      pop\n      jump\t// out\n        /* \"#utility.yul\":1377:1557   */\n    tag_31:\n        /* \"#utility.yul\":1425:1502   */\n      0x4e487b7100000000000000000000000000000000000000000000000000000000\n        /* \"#utility.yul\":1422:1423   */\n      0x00\n        /* \"#utility.yul\":1415:1503   */\n      mstore\n        /* \"#utility.yul\":1522:1526   */\n      0x11\n        /* \"#utility.yul\":1519:1520   */\n      0x04\n        /* \"#utility.yul\":1512:1527   */\n      mstore\n        /* \"#utility.yul\":1546:1550   */\n      0x24\n        /* \"#utility.yul\":1543:1544   */\n      0x00\n        /* \"#utility.yul\":1536:1551   */\n      revert\n        /* \"#utility.yul\":1563:1754   */\n    tag_19:\n        /* \"#utility.yul\":1603:1606   */\n      0x00\n        /* \"#utility.yul\":1622:1642   */\n      tag_59\n        /* \"#utility.yul\":1640:1641   */\n      dup3\n        /* \"#utility.yul\":1622:1642   */\n      tag_24\n      jump\t// in\n    tag_59:\n        /* \"#utility.yul\":1617:1642   */\n      swap2\n      pop\n        /* \"#utility.yul\":1656:1676   */\n      tag_60\n        /* \"#utility.yul\":1674:1675   */\n      dup4\n        /* \"#utility.yul\":1656:1676   */\n      tag_24\n      jump\t// in\n    tag_60:\n        /* \"#utility.yul\":1651:1676   */\n      swap3\n      pop\n        /* \"#utility.yul\":1699:1700   */\n      dup3\n        /* \"#utility.yul\":1696:1697   */\n      dup3\n        /* \"#utility.yul\":1692:1701   */\n      add\n        /* \"#utility.yul\":1685:1701   */\n      swap1\n      pop\n        /* \"#utility.yul\":1720:1723   */\n      dup1\n        /* \"#utility.yul\":1717:1718   */\n      dup3\n        /* \"#utility.yul\":1714:1724   */\n      gt\n        /* \"#utility.yul\":1711:1747   */\n      iszero\n      tag_61\n      jumpi\n        /* \"#utility.yul\":1727:1745   */\n      tag_62\n      tag_31\n      jump\t// in\n    tag_62:\n        /* \"#utility.yul\":1711:1747   */\n    tag_61:\n        /* \"#utility.yul\":1563:1754   */\n      swap3\n      swap2\n      pop\n      pop\n      jump\t// out\n        /* \"#utility.yul\":1760:1929   */\n    tag_32:\n        /* \"#utility.yul\":1844:1855   */\n      0x00\n        /* \"#utility.yul\":1878:1884   */\n      dup3\n        /* \"#utility.yul\":1873:1876   */\n      dup3\n        /* \"#utility.yul\":1866:1885   */\n      mstore\n        /* \"#utility.yul\":1918:1922   */\n      0x20\n        /* \"#utility.yul\":1913:1916   */\n      dup3\n        /* \"#utility.yul\":1909:1923   */\n      add\n        /* \"#utility.yul\":1894:1923   */\n      swap1\n      pop\n        /* \"#utility.yul\":1760:1929   */\n      swap3\n      swap2\n      pop\n      pop\n      jump\t// out\n        /* \"#utility.yul\":1935:2096   */\n    tag_33:\n        /* \"#utility.yul\":2075:2088   */\n      0x63617368206973206c6f77000000000000000000000000000000000000000000\n        /* \"#utility.yul\":2071:2072   */\n      0x00\n        /* \"#utility.yul\":2063:2069   */\n      dup3\n        /* \"#utility.yul\":2059:2073   */\n      add\n        /* \"#utility.yul\":2052:2089   */\n      mstore\n        /* \"#utility.yul\":1935:2096   */\n      pop\n      jump\t// out\n        /* \"#utility.yul\":2102:2468   */\n    tag_34:\n        /* \"#utility.yul\":2244:2247   */\n      0x00\n        /* \"#utility.yul\":2265:2332   */\n      tag_66\n        /* \"#utility.yul\":2329:2331   */\n      0x0b\n        /* \"#utility.yul\":2324:2327   */\n      dup4\n        /* \"#utility.yul\":2265:2332   */\n      tag_32\n      jump\t// in\n    tag_66:\n        /* \"#utility.yul\":2258:2332   */\n      swap2\n      pop\n        /* \"#utility.yul\":2341:2434   */\n      tag_67\n        /* \"#utility.yul\":2430:2433   */\n      dup3\n        /* \"#utility.yul\":2341:2434   */\n      tag_33\n      jump\t// in\n    tag_67:\n        /* \"#utility.yul\":2459:2461   */\n      0x20\n        /* \"#utility.yul\":2454:2457   */\n      dup3\n        /* \"#utility.yul\":2450:2462   */\n      add\n        /* \"#utility.yul\":2443:2462   */\n      swap1\n      pop\n        /* \"#utility.yul\":2102:2468   */\n      swap2\n      swap1\n      pop\n      jump\t// out\n        /* \"#utility.yul\":2474:2560   */\n    tag_35:\n        /* \"#utility.yul\":2520:2527   */\n      0x00\n        /* \"#utility.yul\":2549:2554   */\n      dup2\n        /* \"#utility.yul\":2538:2554   */\n      swap1\n      pop\n        /* \"#utility.yul\":2474:2560   */\n      swap2\n      swap1\n      pop\n      jump\t// out\n        /* \"#utility.yul\":2566:2626   */\n    tag_36:\n        /* \"#utility.yul\":2594:2597   */\n      0x00\n        /* \"#utility.yul\":2615:2620   */\n      dup2\n        /* \"#utility.yul\":2608:2620   */\n      swap1\n      pop\n        /* \"#utility.yul\":2566:2626   */\n      swap2\n      swap1\n      pop\n      jump\t// out\n        /* \"#utility.yul\":2632:2792   */\n    tag_37:\n        /* \"#utility.yul\":2691:2700   */\n      0x00\n        /* \"#utility.yul\":2724:2786   */\n      tag_71\n        /* \"#utility.yul\":2742:2785   */\n      tag_72\n        /* \"#utility.yul\":2751:2784   */\n      tag_73\n        /* \"#utility.yul\":2778:2783   */\n      dup5\n        /* \"#utility.yul\":2751:2784   */\n      tag_35\n      jump\t// in\n    tag_73:\n        /* \"#utility.yul\":2742:2785   */\n      tag_36\n      jump\t// in\n    tag_72:\n        /* \"#utility.yul\":2724:2786   */\n      tag_24\n      jump\t// in\n    tag_71:\n        /* \"#utility.yul\":2711:2786   */\n      swap1\n      pop\n        /* \"#utility.yul\":2632:2792   */\n      swap2\n      swap1\n      pop\n      jump\t// out\n        /* \"#utility.yul\":2798:2947   */\n    tag_38:\n        /* \"#utility.yul\":2894:2940   */\n      tag_75\n        /* \"#utility.yul\":2934:2939   */\n      dup2\n        /* \"#utility.yul\":2894:2940   */\n      tag_37\n      jump\t// in\n    tag_75:\n        /* \"#utility.yul\":2889:2892   */\n      dup3\n        /* \"#utility.yul\":2882:2941   */\n      mstore\n        /* \"#utility.yul\":2798:2947   */\n      pop\n      pop\n      jump\t// out\n        /* \"#utility.yul\":2953:3500   */\n    tag_23:\n        /* \"#utility.yul\":3156:3160   */\n      0x00\n        /* \"#utility.yul\":3194:3196   */\n      0x40\n        /* \"#utility.yul\":3183:3192   */\n      dup3\n        /* \"#utility.yul\":3179:3197   */\n      add\n        /* \"#utility.yul\":3171:3197   */\n      swap1\n      pop\n        /* \"#utility.yul\":3243:3252   */\n      dup2\n        /* \"#utility.yul\":3237:3241   */\n      dup2\n        /* \"#utility.yul\":3233:3253   */\n      sub\n        /* \"#utility.yul\":3229:3230   */\n      0x00\n        /* \"#utility.yul\":3218:3227   */\n      dup4\n        /* \"#utility.yul\":3214:3231   */\n      add\n        /* \"#utility.yul\":3207:3254   */\n      mstore\n        /* \"#utility.yul\":3271:3402   */\n      tag_77\n        /* \"#utility.yul\":3397:3401   */\n      dup2\n        /* \"#utility.yul\":3271:3402   */\n      tag_34\n      jump\t// in\n    tag_77:\n        /* \"#utility.yul\":3263:3402   */\n      swap1\n      pop\n        /* \"#utility.yul\":3412:3493   */\n      tag_78\n        /* \"#utility.yul\":3489:3491   */\n      0x20\n        /* \"#utility.yul\":3478:3487   */\n      dup4\n        /* \"#utility.yul\":3474:3492   */\n      add\n        /* \"#utility.yul\":3465:3471   */\n      dup5\n        /* \"#utility.yul\":3412:3493   */\n      tag_38\n      jump\t// in\n    tag_78:\n        /* \"#utility.yul\":2953:3500   */\n      swap3\n      swap2\n      pop\n      pop\n      jump\t// out\n\n    auxdata: 0xa2646970667358221220c6d18aaee25b83e0eaa944aed5f8c9a418e3d4f433a9c16bd923ae5737e6146664736f6c63430008120033\n}\n",
				"bytecode": {
					"linkReferences": {},
					"object": "608060405234801561001057600080fd5b50610303806100206000396000f3fe608060405234801561001057600080fd5b50600436106100415760003560e01c806308b929391461004657806336f0edf8146100645780635b74070b14610080575b600080fd5b61004e61009c565b60405161005b9190610121565b60405180910390f35b61007e6004803603810190610079919061016d565b6100a2565b005b61009a6004803603810190610095919061016d565b6100bd565b005b60005481565b806000808282546100b391906101c9565b9250508190555050565b80600054101561010557600c6040517f0ef73ac20000000000000000000000000000000000000000000000000000000081526004016100fc919061029f565b60405180910390fd5b50565b6000819050919050565b61011b81610108565b82525050565b60006020820190506101366000830184610112565b92915050565b600080fd5b61014a81610108565b811461015557600080fd5b50565b60008135905061016781610141565b92915050565b6000602082840312156101835761018261013c565b5b600061019184828501610158565b91505092915050565b7f4e487b7100000000000000000000000000000000000000000000000000000000600052601160045260246000fd5b60006101d482610108565b91506101df83610108565b92508282019050808211156101f7576101f661019a565b5b92915050565b600082825260208201905092915050565b7f63617368206973206c6f77000000000000000000000000000000000000000000600082015250565b6000610244600b836101fd565b915061024f8261020e565b602082019050919050565b6000819050919050565b6000819050919050565b600061028961028461027f8461025a565b610264565b610108565b9050919050565b6102998161026e565b82525050565b600060408201905081810360008301526102b881610237565b90506102c76020830184610290565b9291505056fea2646970667358221220c6d18aaee25b83e0eaa944aed5f8c9a418e3d4f433a9c16bd923ae5737e6146664736f6c63430008120033",
					"opcodes": "PUSH1 0x80 PUSH1 0x40 MSTORE CALLVALUE DUP1 ISZERO PUSH2 0x10 JUMPI PUSH1 0x0 DUP1 REVERT JUMPDEST POP PUSH2 0x303 DUP1 PUSH2 0x20 PUSH1 0x0 CODECOPY PUSH1 0x0 RETURN INVALID PUSH1 0x80 PUSH1 0x40 MSTORE CALLVALUE DUP1 ISZERO PUSH2 0x10 JUMPI PUSH1 0x0 DUP1 REVERT JUMPDEST POP PUSH1 0x4 CALLDATASIZE LT PUSH2 0x41 JUMPI PUSH1 0x0 CALLDATALOAD PUSH1 0xE0 SHR DUP1 PUSH4 0x8B92939 EQ PUSH2 0x46 JUMPI DUP1 PUSH4 0x36F0EDF8 EQ PUSH2 0x64 JUMPI DUP1 PUSH4 0x5B74070B EQ PUSH2 0x80 JUMPI JUMPDEST PUSH1 0x0 DUP1 REVERT JUMPDEST PUSH2 0x4E PUSH2 0x9C JUMP JUMPDEST PUSH1 0x40 MLOAD PUSH2 0x5B SWAP2 SWAP1 PUSH2 0x121 JUMP JUMPDEST PUSH1 0x40 MLOAD DUP1 SWAP2 SUB SWAP1 RETURN JUMPDEST PUSH2 0x7E PUSH1 0x4 DUP1 CALLDATASIZE SUB DUP2 ADD SWAP1 PUSH2 0x79 SWAP2 SWAP1 PUSH2 0x16D JUMP JUMPDEST PUSH2 0xA2 JUMP JUMPDEST STOP JUMPDEST PUSH2 0x9A PUSH1 0x4 DUP1 CALLDATASIZE SUB DUP2 ADD SWAP1 PUSH2 0x95 SWAP2 SWAP1 PUSH2 0x16D JUMP JUMPDEST PUSH2 0xBD JUMP JUMPDEST STOP JUMPDEST PUSH1 0x0 SLOAD DUP2 JUMP JUMPDEST DUP1 PUSH1 0x0 DUP1 DUP3 DUP3 SLOAD PUSH2 0xB3 SWAP2 SWAP1 PUSH2 0x1C9 JUMP JUMPDEST SWAP3 POP POP DUP2 SWAP1 SSTORE POP POP JUMP JUMPDEST DUP1 PUSH1 0x0 SLOAD LT ISZERO PUSH2 0x105 JUMPI PUSH1 0xC PUSH1 0x40 MLOAD PUSH32 0xEF73AC200000000000000000000000000000000000000000000000000000000 DUP2 MSTORE PUSH1 0x4 ADD PUSH2 0xFC SWAP2 SWAP1 PUSH2 0x29F JUMP JUMPDEST PUSH1 0x40 MLOAD DUP1 SWAP2 SUB SWAP1 REVERT JUMPDEST POP JUMP JUMPDEST PUSH1 0x0 DUP2 SWAP1 POP SWAP2 SWAP1 POP JUMP JUMPDEST PUSH2 0x11B DUP2 PUSH2 0x108 JUMP JUMPDEST DUP3 MSTORE POP POP JUMP JUMPDEST PUSH1 0x0 PUSH1 0x20 DUP3 ADD SWAP1 POP PUSH2 0x136 PUSH1 0x0 DUP4 ADD DUP5 PUSH2 0x112 JUMP JUMPDEST SWAP3 SWAP2 POP POP JUMP JUMPDEST PUSH1 0x0 DUP1 REVERT JUMPDEST PUSH2 0x14A DUP2 PUSH2 0x108 JUMP JUMPDEST DUP2 EQ PUSH2 0x155 JUMPI PUSH1 0x0 DUP1 REVERT JUMPDEST POP JUMP JUMPDEST PUSH1 0x0 DUP2 CALLDATALOAD SWAP1 POP PUSH2 0x167 DUP2 PUSH2 0x141 JUMP JUMPDEST SWAP3 SWAP2 POP POP JUMP JUMPDEST PUSH1 0x0 PUSH1 0x20 DUP3 DUP5 SUB SLT ISZERO PUSH2 0x183 JUMPI PUSH2 0x182 PUSH2 0x13C JUMP JUMPDEST JUMPDEST PUSH1 0x0 PUSH2 0x191 DUP5 DUP3 DUP6 ADD PUSH2 0x158 JUMP JUMPDEST SWAP2 POP POP SWAP3 SWAP2 POP POP JUMP JUMPDEST PUSH32 0x4E487B7100000000000000000000000000000000000000000000000000000000 PUSH1 0x0 MSTORE PUSH1 0x11 PUSH1 0x4 MSTORE PUSH1 0x24 PUSH1 0x0 REVERT JUMPDEST PUSH1 0x0 PUSH2 0x1D4 DUP3 PUSH2 0x108 JUMP JUMPDEST SWAP2 POP PUSH2 0x1DF DUP4 PUSH2 0x108 JUMP JUMPDEST SWAP3 POP DUP3 DUP3 ADD SWAP1 POP DUP1 DUP3 GT ISZERO PUSH2 0x1F7 JUMPI PUSH2 0x1F6 PUSH2 0x19A JUMP JUMPDEST JUMPDEST SWAP3 SWAP2 POP POP JUMP JUMPDEST PUSH1 0x0 DUP3 DUP3 MSTORE PUSH1 0x20 DUP3 ADD SWAP1 POP SWAP3 SWAP2 POP POP JUMP JUMPDEST PUSH32 0x63617368206973206C6F77000000000000000000000000000000000000000000 PUSH1 0x0 DUP3 ADD MSTORE POP JUMP JUMPDEST PUSH1 0x0 PUSH2 0x244 PUSH1 0xB DUP4 PUSH2 0x1FD JUMP JUMPDEST SWAP2 POP PUSH2 0x24F DUP3 PUSH2 0x20E JUMP JUMPDEST PUSH1 0x20 DUP3 ADD SWAP1 POP SWAP2 SWAP1 POP JUMP JUMPDEST PUSH1 0x0 DUP2 SWAP1 POP SWAP2 SWAP1 POP JUMP JUMPDEST PUSH1 0x0 DUP2 SWAP1 POP SWAP2 SWAP1 POP JUMP JUMPDEST PUSH1 0x0 PUSH2 0x289 PUSH2 0x284 PUSH2 0x27F DUP5 PUSH2 0x25A JUMP JUMPDEST PUSH2 0x264 JUMP JUMPDEST PUSH2 0x108 JUMP JUMPDEST SWAP1 POP SWAP2 SWAP1 POP JUMP JUMPDEST PUSH2 0x299 DUP2 PUSH2 0x26E JUMP JUMPDEST DUP3 MSTORE POP POP JUMP JUMPDEST PUSH1 0x0 PUSH1 0x40 DUP3 ADD SWAP1 POP DUP2 DUP2 SUB PUSH1 0x0 DUP4 ADD MSTORE PUSH2 0x2B8 DUP2 PUSH2 0x237 JUMP JUMPDEST SWAP1 POP PUSH2 0x2C7 PUSH1 0x20 DUP4 ADD DUP5 PUSH2 0x290 JUMP JUMPDEST SWAP3 SWAP2 POP POP JUMP INVALID LOG2 PUSH5 0x6970667358 0x22 SLT KECCAK256 0xC6 0xD1 DUP11 0xAE 0xE2 JUMPDEST DUP4 0xE0 0xEA 0xA9 PREVRANDAO 0xAE 0xD5 0xF8 0xC9 LOG4 XOR 0xE3 0xD4 DELEGATECALL CALLER 0xA9 0xC1 PUSH12 0xD923AE5737E6146664736F6C PUSH4 0x43000812 STOP CALLER "
				},
				"gasEstimates": {
					"creation": {
						"codeDepositCost": "154200",
						"executionCost": "202",
						"totalCost": "154402"
					},
					"external": {
						"ATMrefill(uint256)": "infinite",
						"CashAvailable()": "2407",
						"Moneywithdraw(uint256)": "infinite"
					}
				},
				"methodIdentifiers": {
					"ATMrefill(uint256)": "36f0edf8",
					"CashAvailable()": "08b92939",
					"Moneywithdraw(uint256)": "5b74070b"
				}
			},
			"storageLayout": {
				"storage": [
					{
						"astId": 3,
						"contract": "Lab 15-08-2023/Atm.sol:Atm",
						"label": "CashAvailable",
						"offset": 0,
						"slot": "0",
						"type": "t_uint256"
					}
				],
				"types": {
					"t_uint256": {
						"encoding": "inplace",
						"label": "uint256",
						"numberOfBytes": "32"
					}
				}
			},
			"userdoc": {
				"kind": "user",
				"methods": {},
				"version": 1
			}
		}
	}
}