{
	"Lab 15-08-2023/Task2.sol": {
		"QuotientCalculator": {
			"abi": [
				{
					"inputs": [
						{
							"internalType": "uint256",
							"name": "numerator",
							"type": "uint256"
						},
						{
							"internalType": "uint256",
							"name": "denominator",
							"type": "uint256"
						}
					],
					"name": "calculateQuotient",
					"outputs": [
						{
							"internalType": "uint256",
							"name": "",
							"type": "uint256"
						}
					],
					"stateMutability": "pure",
					"type": "function"
				}
			],
			"devdoc": {
				"kind": "dev",
				"methods": {},
				"version": 1
			},
			"evm": {
				"assembly": "    /* \"Lab 15-08-2023/Task2.sol\":63:320  contract QuotientCalculator {... */\n  mstore(0x40, 0x80)\n  callvalue\n  dup1\n  iszero\n  tag_1\n  jumpi\n  0x00\n  dup1\n  revert\ntag_1:\n  pop\n  dataSize(sub_0)\n  dup1\n  dataOffset(sub_0)\n  0x00\n  codecopy\n  0x00\n  return\nstop\n\nsub_0: assembly {\n        /* \"Lab 15-08-2023/Task2.sol\":63:320  contract QuotientCalculator {... */\n      mstore(0x40, 0x80)\n      callvalue\n      dup1\n      iszero\n      tag_1\n      jumpi\n      0x00\n      dup1\n      revert\n    tag_1:\n      pop\n      jumpi(tag_2, lt(calldatasize, 0x04))\n      shr(0xe0, calldataload(0x00))\n      dup1\n      0xa1617984\n      eq\n      tag_3\n      jumpi\n    tag_2:\n      0x00\n      dup1\n      revert\n        /* \"Lab 15-08-2023/Task2.sol\":98:309  function  calculateQuotient(uint256 numerator ,uint256 denominator ) external  ... */\n    tag_3:\n      tag_4\n      0x04\n      dup1\n      calldatasize\n      sub\n      dup2\n      add\n      swap1\n      tag_5\n      swap2\n      swap1\n      tag_6\n      jump\t// in\n    tag_5:\n      tag_7\n      jump\t// in\n    tag_4:\n      mload(0x40)\n      tag_8\n      swap2\n      swap1\n      tag_9\n      jump\t// in\n    tag_8:\n      mload(0x40)\n      dup1\n      swap2\n      sub\n      swap1\n      return\n    tag_7:\n        /* \"Lab 15-08-2023/Task2.sol\":193:200  uint256 */\n      0x00\n        /* \"Lab 15-08-2023/Task2.sol\":234:235  0 */\n      dup1\n        /* \"Lab 15-08-2023/Task2.sol\":220:231  denominator */\n      dup3\n        /* \"Lab 15-08-2023/Task2.sol\":220:235  denominator !=0 */\n      sub\n        /* \"Lab 15-08-2023/Task2.sol\":212:272  require(denominator !=0 , \"Division by zero is not allowed\") */\n      tag_11\n      jumpi\n      mload(0x40)\n      0x08c379a000000000000000000000000000000000000000000000000000000000\n      dup2\n      mstore\n      0x04\n      add\n      tag_12\n      swap1\n      tag_13\n      jump\t// in\n    tag_12:\n      mload(0x40)\n      dup1\n      swap2\n      sub\n      swap1\n      revert\n    tag_11:\n        /* \"Lab 15-08-2023/Task2.sol\":292:303  denominator */\n      dup2\n        /* \"Lab 15-08-2023/Task2.sol\":282:291  numerator */\n      dup4\n        /* \"Lab 15-08-2023/Task2.sol\":282:303  numerator/denominator */\n      tag_14\n      swap2\n      swap1\n      tag_15\n      jump\t// in\n    tag_14:\n        /* \"Lab 15-08-2023/Task2.sol\":275:303  return numerator/denominator */\n      swap1\n      pop\n        /* \"Lab 15-08-2023/Task2.sol\":98:309  function  calculateQuotient(uint256 numerator ,uint256 denominator ) external  ... */\n      swap3\n      swap2\n      pop\n      pop\n      jump\t// out\n        /* \"#utility.yul\":88:205   */\n    tag_17:\n        /* \"#utility.yul\":197:198   */\n      0x00\n        /* \"#utility.yul\":194:195   */\n      dup1\n        /* \"#utility.yul\":187:199   */\n      revert\n        /* \"#utility.yul\":334:411   */\n    tag_19:\n        /* \"#utility.yul\":371:378   */\n      0x00\n        /* \"#utility.yul\":400:405   */\n      dup2\n        /* \"#utility.yul\":389:405   */\n      swap1\n      pop\n        /* \"#utility.yul\":334:411   */\n      swap2\n      swap1\n      pop\n      jump\t// out\n        /* \"#utility.yul\":417:539   */\n    tag_20:\n        /* \"#utility.yul\":490:514   */\n      tag_34\n        /* \"#utility.yul\":508:513   */\n      dup2\n        /* \"#utility.yul\":490:514   */\n      tag_19\n      jump\t// in\n    tag_34:\n        /* \"#utility.yul\":483:488   */\n      dup2\n        /* \"#utility.yul\":480:515   */\n      eq\n        /* \"#utility.yul\":470:533   */\n      tag_35\n      jumpi\n        /* \"#utility.yul\":529:530   */\n      0x00\n        /* \"#utility.yul\":526:527   */\n      dup1\n        /* \"#utility.yul\":519:531   */\n      revert\n        /* \"#utility.yul\":470:533   */\n    tag_35:\n        /* \"#utility.yul\":417:539   */\n      pop\n      jump\t// out\n        /* \"#utility.yul\":545:684   */\n    tag_21:\n        /* \"#utility.yul\":591:596   */\n      0x00\n        /* \"#utility.yul\":629:635   */\n      dup2\n        /* \"#utility.yul\":616:636   */\n      calldataload\n        /* \"#utility.yul\":607:636   */\n      swap1\n      pop\n        /* \"#utility.yul\":645:678   */\n      tag_37\n        /* \"#utility.yul\":672:677   */\n      dup2\n        /* \"#utility.yul\":645:678   */\n      tag_20\n      jump\t// in\n    tag_37:\n        /* \"#utility.yul\":545:684   */\n      swap3\n      swap2\n      pop\n      pop\n      jump\t// out\n        /* \"#utility.yul\":690:1164   */\n    tag_6:\n        /* \"#utility.yul\":758:764   */\n      0x00\n        /* \"#utility.yul\":766:772   */\n      dup1\n        /* \"#utility.yul\":815:817   */\n      0x40\n        /* \"#utility.yul\":803:812   */\n      dup4\n        /* \"#utility.yul\":794:801   */\n      dup6\n        /* \"#utility.yul\":790:813   */\n      sub\n        /* \"#utility.yul\":786:818   */\n      slt\n        /* \"#utility.yul\":783:902   */\n      iszero\n      tag_39\n      jumpi\n        /* \"#utility.yul\":821:900   */\n      tag_40\n      tag_17\n      jump\t// in\n    tag_40:\n        /* \"#utility.yul\":783:902   */\n    tag_39:\n        /* \"#utility.yul\":941:942   */\n      0x00\n        /* \"#utility.yul\":966:1019   */\n      tag_41\n        /* \"#utility.yul\":1011:1018   */\n      dup6\n        /* \"#utility.yul\":1002:1008   */\n      dup3\n        /* \"#utility.yul\":991:1000   */\n      dup7\n        /* \"#utility.yul\":987:1009   */\n      add\n        /* \"#utility.yul\":966:1019   */\n      tag_21\n      jump\t// in\n    tag_41:\n        /* \"#utility.yul\":956:1019   */\n      swap3\n      pop\n        /* \"#utility.yul\":912:1029   */\n      pop\n        /* \"#utility.yul\":1068:1070   */\n      0x20\n        /* \"#utility.yul\":1094:1147   */\n      tag_42\n        /* \"#utility.yul\":1139:1146   */\n      dup6\n        /* \"#utility.yul\":1130:1136   */\n      dup3\n        /* \"#utility.yul\":1119:1128   */\n      dup7\n        /* \"#utility.yul\":1115:1137   */\n      add\n        /* \"#utility.yul\":1094:1147   */\n      tag_21\n      jump\t// in\n    tag_42:\n        /* \"#utility.yul\":1084:1147   */\n      swap2\n      pop\n        /* \"#utility.yul\":1039:1157   */\n      pop\n        /* \"#utility.yul\":690:1164   */\n      swap3\n      pop\n      swap3\n      swap1\n      pop\n      jump\t// out\n        /* \"#utility.yul\":1170:1288   */\n    tag_22:\n        /* \"#utility.yul\":1257:1281   */\n      tag_44\n        /* \"#utility.yul\":1275:1280   */\n      dup2\n        /* \"#utility.yul\":1257:1281   */\n      tag_19\n      jump\t// in\n    tag_44:\n        /* \"#utility.yul\":1252:1255   */\n      dup3\n        /* \"#utility.yul\":1245:1282   */\n      mstore\n        /* \"#utility.yul\":1170:1288   */\n      pop\n      pop\n      jump\t// out\n        /* \"#utility.yul\":1294:1516   */\n    tag_9:\n        /* \"#utility.yul\":1387:1391   */\n      0x00\n        /* \"#utility.yul\":1425:1427   */\n      0x20\n        /* \"#utility.yul\":1414:1423   */\n      dup3\n        /* \"#utility.yul\":1410:1428   */\n      add\n        /* \"#utility.yul\":1402:1428   */\n      swap1\n      pop\n        /* \"#utility.yul\":1438:1509   */\n      tag_46\n        /* \"#utility.yul\":1506:1507   */\n      0x00\n        /* \"#utility.yul\":1495:1504   */\n      dup4\n        /* \"#utility.yul\":1491:1508   */\n      add\n        /* \"#utility.yul\":1482:1488   */\n      dup5\n        /* \"#utility.yul\":1438:1509   */\n      tag_22\n      jump\t// in\n    tag_46:\n        /* \"#utility.yul\":1294:1516   */\n      swap3\n      swap2\n      pop\n      pop\n      jump\t// out\n        /* \"#utility.yul\":1522:1691   */\n    tag_23:\n        /* \"#utility.yul\":1606:1617   */\n      0x00\n        /* \"#utility.yul\":1640:1646   */\n      dup3\n        /* \"#utility.yul\":1635:1638   */\n      dup3\n        /* \"#utility.yul\":1628:1647   */\n      mstore\n        /* \"#utility.yul\":1680:1684   */\n      0x20\n        /* \"#utility.yul\":1675:1678   */\n      dup3\n        /* \"#utility.yul\":1671:1685   */\n      add\n        /* \"#utility.yul\":1656:1685   */\n      swap1\n      pop\n        /* \"#utility.yul\":1522:1691   */\n      swap3\n      swap2\n      pop\n      pop\n      jump\t// out\n        /* \"#utility.yul\":1697:1878   */\n    tag_24:\n        /* \"#utility.yul\":1837:1870   */\n      0x4469766973696f6e206279207a65726f206973206e6f7420616c6c6f77656400\n        /* \"#utility.yul\":1833:1834   */\n      0x00\n        /* \"#utility.yul\":1825:1831   */\n      dup3\n        /* \"#utility.yul\":1821:1835   */\n      add\n        /* \"#utility.yul\":1814:1871   */\n      mstore\n        /* \"#utility.yul\":1697:1878   */\n      pop\n      jump\t// out\n        /* \"#utility.yul\":1884:2250   */\n    tag_25:\n        /* \"#utility.yul\":2026:2029   */\n      0x00\n        /* \"#utility.yul\":2047:2114   */\n      tag_50\n        /* \"#utility.yul\":2111:2113   */\n      0x1f\n        /* \"#utility.yul\":2106:2109   */\n      dup4\n        /* \"#utility.yul\":2047:2114   */\n      tag_23\n      jump\t// in\n    tag_50:\n        /* \"#utility.yul\":2040:2114   */\n      swap2\n      pop\n        /* \"#utility.yul\":2123:2216   */\n      tag_51\n        /* \"#utility.yul\":2212:2215   */\n      dup3\n        /* \"#utility.yul\":2123:2216   */\n      tag_24\n      jump\t// in\n    tag_51:\n        /* \"#utility.yul\":2241:2243   */\n      0x20\n        /* \"#utility.yul\":2236:2239   */\n      dup3\n        /* \"#utility.yul\":2232:2244   */\n      add\n        /* \"#utility.yul\":2225:2244   */\n      swap1\n      pop\n        /* \"#utility.yul\":1884:2250   */\n      swap2\n      swap1\n      pop\n      jump\t// out\n        /* \"#utility.yul\":2256:2675   */\n    tag_13:\n        /* \"#utility.yul\":2422:2426   */\n      0x00\n        /* \"#utility.yul\":2460:2462   */\n      0x20\n        /* \"#utility.yul\":2449:2458   */\n      dup3\n        /* \"#utility.yul\":2445:2463   */\n      add\n        /* \"#utility.yul\":2437:2463   */\n      swap1\n      pop\n        /* \"#utility.yul\":2509:2518   */\n      dup2\n        /* \"#utility.yul\":2503:2507   */\n      dup2\n        /* \"#utility.yul\":2499:2519   */\n      sub\n        /* \"#utility.yul\":2495:2496   */\n      0x00\n        /* \"#utility.yul\":2484:2493   */\n      dup4\n        /* \"#utility.yul\":2480:2497   */\n      add\n        /* \"#utility.yul\":2473:2520   */\n      mstore\n        /* \"#utility.yul\":2537:2668   */\n      tag_53\n        /* \"#utility.yul\":2663:2667   */\n      dup2\n        /* \"#utility.yul\":2537:2668   */\n      tag_25\n      jump\t// in\n    tag_53:\n        /* \"#utility.yul\":2529:2668   */\n      swap1\n      pop\n        /* \"#utility.yul\":2256:2675   */\n      swap2\n      swap1\n      pop\n      jump\t// out\n        /* \"#utility.yul\":2681:2861   */\n    tag_26:\n        /* \"#utility.yul\":2729:2806   */\n      0x4e487b7100000000000000000000000000000000000000000000000000000000\n        /* \"#utility.yul\":2726:2727   */\n      0x00\n        /* \"#utility.yul\":2719:2807   */\n      mstore\n        /* \"#utility.yul\":2826:2830   */\n      0x12\n        /* \"#utility.yul\":2823:2824   */\n      0x04\n        /* \"#utility.yul\":2816:2831   */\n      mstore\n        /* \"#utility.yul\":2850:2854   */\n      0x24\n        /* \"#utility.yul\":2847:2848   */\n      0x00\n        /* \"#utility.yul\":2840:2855   */\n      revert\n        /* \"#utility.yul\":3053:3238   */\n    tag_15:\n        /* \"#utility.yul\":3093:3094   */\n      0x00\n        /* \"#utility.yul\":3110:3130   */\n      tag_57\n        /* \"#utility.yul\":3128:3129   */\n      dup3\n        /* \"#utility.yul\":3110:3130   */\n      tag_19\n      jump\t// in\n    tag_57:\n        /* \"#utility.yul\":3105:3130   */\n      swap2\n      pop\n        /* \"#utility.yul\":3144:3164   */\n      tag_58\n        /* \"#utility.yul\":3162:3163   */\n      dup4\n        /* \"#utility.yul\":3144:3164   */\n      tag_19\n      jump\t// in\n    tag_58:\n        /* \"#utility.yul\":3139:3164   */\n      swap3\n      pop\n        /* \"#utility.yul\":3183:3184   */\n      dup3\n        /* \"#utility.yul\":3173:3208   */\n      tag_59\n      jumpi\n        /* \"#utility.yul\":3188:3206   */\n      tag_60\n      tag_26\n      jump\t// in\n    tag_60:\n        /* \"#utility.yul\":3173:3208   */\n    tag_59:\n        /* \"#utility.yul\":3230:3231   */\n      dup3\n        /* \"#utility.yul\":3227:3228   */\n      dup3\n        /* \"#utility.yul\":3223:3232   */\n      div\n        /* \"#utility.yul\":3218:3232   */\n      swap1\n      pop\n        /* \"#utility.yul\":3053:3238   */\n      swap3\n      swap2\n      pop\n      pop\n      jump\t// out\n\n    auxdata: 0xa26469706673582212205d39f3e5217c4d3fb9c5f342857c6e1500cb23aa17ad744238a337705e4dcdb264736f6c63430008120033\n}\n",
				"bytecode": {
					"linkReferences": {},
					"object": "608060405234801561001057600080fd5b50610270806100206000396000f3fe608060405234801561001057600080fd5b506004361061002b5760003560e01c8063a161798414610030575b600080fd5b61004a600480360381019061004591906100f3565b610060565b6040516100579190610142565b60405180910390f35b60008082036100a4576040517f08c379a000000000000000000000000000000000000000000000000000000000815260040161009b906101ba565b60405180910390fd5b81836100b09190610209565b905092915050565b600080fd5b6000819050919050565b6100d0816100bd565b81146100db57600080fd5b50565b6000813590506100ed816100c7565b92915050565b6000806040838503121561010a576101096100b8565b5b6000610118858286016100de565b9250506020610129858286016100de565b9150509250929050565b61013c816100bd565b82525050565b60006020820190506101576000830184610133565b92915050565b600082825260208201905092915050565b7f4469766973696f6e206279207a65726f206973206e6f7420616c6c6f77656400600082015250565b60006101a4601f8361015d565b91506101af8261016e565b602082019050919050565b600060208201905081810360008301526101d381610197565b9050919050565b7f4e487b7100000000000000000000000000000000000000000000000000000000600052601260045260246000fd5b6000610214826100bd565b915061021f836100bd565b92508261022f5761022e6101da565b5b82820490509291505056fea26469706673582212205d39f3e5217c4d3fb9c5f342857c6e1500cb23aa17ad744238a337705e4dcdb264736f6c63430008120033",
					"opcodes": "PUSH1 0x80 PUSH1 0x40 MSTORE CALLVALUE DUP1 ISZERO PUSH2 0x10 JUMPI PUSH1 0x0 DUP1 REVERT JUMPDEST POP PUSH2 0x270 DUP1 PUSH2 0x20 PUSH1 0x0 CODECOPY PUSH1 0x0 RETURN INVALID PUSH1 0x80 PUSH1 0x40 MSTORE CALLVALUE DUP1 ISZERO PUSH2 0x10 JUMPI PUSH1 0x0 DUP1 REVERT JUMPDEST POP PUSH1 0x4 CALLDATASIZE LT PUSH2 0x2B JUMPI PUSH1 0x0 CALLDATALOAD PUSH1 0xE0 SHR DUP1 PUSH4 0xA1617984 EQ PUSH2 0x30 JUMPI JUMPDEST PUSH1 0x0 DUP1 REVERT JUMPDEST PUSH2 0x4A PUSH1 0x4 DUP1 CALLDATASIZE SUB DUP2 ADD SWAP1 PUSH2 0x45 SWAP2 SWAP1 PUSH2 0xF3 JUMP JUMPDEST PUSH2 0x60 JUMP JUMPDEST PUSH1 0x40 MLOAD PUSH2 0x57 SWAP2 SWAP1 PUSH2 0x142 JUMP JUMPDEST PUSH1 0x40 MLOAD DUP1 SWAP2 SUB SWAP1 RETURN JUMPDEST PUSH1 0x0 DUP1 DUP3 SUB PUSH2 0xA4 JUMPI PUSH1 0x40 MLOAD PUSH32 0x8C379A000000000000000000000000000000000000000000000000000000000 DUP2 MSTORE PUSH1 0x4 ADD PUSH2 0x9B SWAP1 PUSH2 0x1BA JUMP JUMPDEST PUSH1 0x40 MLOAD DUP1 SWAP2 SUB SWAP1 REVERT JUMPDEST DUP2 DUP4 PUSH2 0xB0 SWAP2 SWAP1 PUSH2 0x209 JUMP JUMPDEST SWAP1 POP SWAP3 SWAP2 POP POP JUMP JUMPDEST PUSH1 0x0 DUP1 REVERT JUMPDEST PUSH1 0x0 DUP2 SWAP1 POP SWAP2 SWAP1 POP JUMP JUMPDEST PUSH2 0xD0 DUP2 PUSH2 0xBD JUMP JUMPDEST DUP2 EQ PUSH2 0xDB JUMPI PUSH1 0x0 DUP1 REVERT JUMPDEST POP JUMP JUMPDEST PUSH1 0x0 DUP2 CALLDATALOAD SWAP1 POP PUSH2 0xED DUP2 PUSH2 0xC7 JUMP JUMPDEST SWAP3 SWAP2 POP POP JUMP JUMPDEST PUSH1 0x0 DUP1 PUSH1 0x40 DUP4 DUP6 SUB SLT ISZERO PUSH2 0x10A JUMPI PUSH2 0x109 PUSH2 0xB8 JUMP JUMPDEST JUMPDEST PUSH1 0x0 PUSH2 0x118 DUP6 DUP3 DUP7 ADD PUSH2 0xDE JUMP JUMPDEST SWAP3 POP POP PUSH1 0x20 PUSH2 0x129 DUP6 DUP3 DUP7 ADD PUSH2 0xDE JUMP JUMPDEST SWAP2 POP POP SWAP3 POP SWAP3 SWAP1 POP JUMP JUMPDEST PUSH2 0x13C DUP2 PUSH2 0xBD JUMP JUMPDEST DUP3 MSTORE POP POP JUMP JUMPDEST PUSH1 0x0 PUSH1 0x20 DUP3 ADD SWAP1 POP PUSH2 0x157 PUSH1 0x0 DUP4 ADD DUP5 PUSH2 0x133 JUMP JUMPDEST SWAP3 SWAP2 POP POP JUMP JUMPDEST PUSH1 0x0 DUP3 DUP3 MSTORE PUSH1 0x20 DUP3 ADD SWAP1 POP SWAP3 SWAP2 POP POP JUMP JUMPDEST PUSH32 0x4469766973696F6E206279207A65726F206973206E6F7420616C6C6F77656400 PUSH1 0x0 DUP3 ADD MSTORE POP JUMP JUMPDEST PUSH1 0x0 PUSH2 0x1A4 PUSH1 0x1F DUP4 PUSH2 0x15D JUMP JUMPDEST SWAP2 POP PUSH2 0x1AF DUP3 PUSH2 0x16E JUMP JUMPDEST PUSH1 0x20 DUP3 ADD SWAP1 POP SWAP2 SWAP1 POP JUMP JUMPDEST PUSH1 0x0 PUSH1 0x20 DUP3 ADD SWAP1 POP DUP2 DUP2 SUB PUSH1 0x0 DUP4 ADD MSTORE PUSH2 0x1D3 DUP2 PUSH2 0x197 JUMP JUMPDEST SWAP1 POP SWAP2 SWAP1 POP JUMP JUMPDEST PUSH32 0x4E487B7100000000000000000000000000000000000000000000000000000000 PUSH1 0x0 MSTORE PUSH1 0x12 PUSH1 0x4 MSTORE PUSH1 0x24 PUSH1 0x0 REVERT JUMPDEST PUSH1 0x0 PUSH2 0x214 DUP3 PUSH2 0xBD JUMP JUMPDEST SWAP2 POP PUSH2 0x21F DUP4 PUSH2 0xBD JUMP JUMPDEST SWAP3 POP DUP3 PUSH2 0x22F JUMPI PUSH2 0x22E PUSH2 0x1DA JUMP JUMPDEST JUMPDEST DUP3 DUP3 DIV SWAP1 POP SWAP3 SWAP2 POP POP JUMP INVALID LOG2 PUSH5 0x6970667358 0x22 SLT KECCAK256 0x5D CODECOPY RETURN 0xE5 0x21 PUSH29 0x4D3FB9C5F342857C6E1500CB23AA17AD744238A337705E4DCDB264736F PUSH13 0x63430008120033000000000000 "
				},
				"gasEstimates": {
					"creation": {
						"codeDepositCost": "124800",
						"executionCost": "171",
						"totalCost": "124971"
					},
					"external": {
						"calculateQuotient(uint256,uint256)": "infinite"
					}
				},
				"methodIdentifiers": {
					"calculateQuotient(uint256,uint256)": "a1617984"
				}
			},
			"storageLayout": {
				"storage": [],
				"types": null
			},
			"userdoc": {
				"kind": "user",
				"methods": {},
				"version": 1
			}
		}
	}
}