{
	"Lab 15-08-2023/Error.sol": {
		"CustomError": {
			"abi": [
				{
					"inputs": [
						{
							"internalType": "string",
							"name": "message",
							"type": "string"
						},
						{
							"internalType": "uint256",
							"name": "num",
							"type": "uint256"
						}
					],
					"name": "reverterror",
					"type": "error"
				},
				{
					"inputs": [
						{
							"internalType": "uint256",
							"name": "num",
							"type": "uint256"
						}
					],
					"name": "IsPrime",
					"outputs": [
						{
							"internalType": "bool",
							"name": "",
							"type": "bool"
						}
					],
					"stateMutability": "pure",
					"type": "function"
				},
				{
					"inputs": [
						{
							"internalType": "uint256",
							"name": "",
							"type": "uint256"
						}
					],
					"name": "arr",
					"outputs": [
						{
							"internalType": "uint256",
							"name": "",
							"type": "uint256"
						}
					],
					"stateMutability": "view",
					"type": "function"
				},
				{
					"inputs": [
						{
							"internalType": "uint256",
							"name": "num",
							"type": "uint256"
						}
					],
					"name": "upush",
					"outputs": [],
					"stateMutability": "nonpayable",
					"type": "function"
				}
			],
			"devdoc": {
				"kind": "dev",
				"methods": {},
				"version": 1
			},
			"evm": {
				"assembly": "    /* \"Lab 15-08-2023/Error.sol\":59:475  contract CustomError{... */\n  mstore(0x40, 0x80)\n  callvalue\n  dup1\n  iszero\n  tag_1\n  jumpi\n  0x00\n  dup1\n  revert\ntag_1:\n  pop\n  dataSize(sub_0)\n  dup1\n  dataOffset(sub_0)\n  0x00\n  codecopy\n  0x00\n  return\nstop\n\nsub_0: assembly {\n        /* \"Lab 15-08-2023/Error.sol\":59:475  contract CustomError{... */\n      mstore(0x40, 0x80)\n      callvalue\n      dup1\n      iszero\n      tag_1\n      jumpi\n      0x00\n      dup1\n      revert\n    tag_1:\n      pop\n      jumpi(tag_2, lt(calldatasize, 0x04))\n      shr(0xe0, calldataload(0x00))\n      dup1\n      0x234f0ec5\n      eq\n      tag_3\n      jumpi\n      dup1\n      0x71e5ee5f\n      eq\n      tag_4\n      jumpi\n      dup1\n      0xa8d4eb27\n      eq\n      tag_5\n      jumpi\n    tag_2:\n      0x00\n      dup1\n      revert\n        /* \"Lab 15-08-2023/Error.sol\":151:280  function upush(uint num) public{... */\n    tag_3:\n      tag_6\n      0x04\n      dup1\n      calldatasize\n      sub\n      dup2\n      add\n      swap1\n      tag_7\n      swap2\n      swap1\n      tag_8\n      jump\t// in\n    tag_7:\n      tag_9\n      jump\t// in\n    tag_6:\n      stop\n        /* \"Lab 15-08-2023/Error.sol\":82:99  uint[] public arr */\n    tag_4:\n      tag_10\n      0x04\n      dup1\n      calldatasize\n      sub\n      dup2\n      add\n      swap1\n      tag_11\n      swap2\n      swap1\n      tag_8\n      jump\t// in\n    tag_11:\n      tag_12\n      jump\t// in\n    tag_10:\n      mload(0x40)\n      tag_13\n      swap2\n      swap1\n      tag_14\n      jump\t// in\n    tag_13:\n      mload(0x40)\n      dup1\n      swap2\n      sub\n      swap1\n      return\n        /* \"Lab 15-08-2023/Error.sol\":282:472  function IsPrime(uint num) public pure returns(bool){... */\n    tag_5:\n      tag_15\n      0x04\n      dup1\n      calldatasize\n      sub\n      dup2\n      add\n      swap1\n      tag_16\n      swap2\n      swap1\n      tag_8\n      jump\t// in\n    tag_16:\n      tag_17\n      jump\t// in\n    tag_15:\n      mload(0x40)\n      tag_18\n      swap2\n      swap1\n      tag_19\n      jump\t// in\n    tag_18:\n      mload(0x40)\n      dup1\n      swap2\n      sub\n      swap1\n      return\n        /* \"Lab 15-08-2023/Error.sol\":151:280  function upush(uint num) public{... */\n    tag_9:\n        /* \"Lab 15-08-2023/Error.sol\":190:202  IsPrime(num) */\n      tag_21\n        /* \"Lab 15-08-2023/Error.sol\":198:201  num */\n      dup2\n        /* \"Lab 15-08-2023/Error.sol\":190:197  IsPrime */\n      tag_17\n        /* \"Lab 15-08-2023/Error.sol\":190:202  IsPrime(num) */\n      jump\t// in\n    tag_21:\n        /* \"Lab 15-08-2023/Error.sol\":187:261  if(IsPrime(num)){... */\n      iszero\n      tag_22\n      jumpi\n        /* \"Lab 15-08-2023/Error.sol\":255:256  3 */\n      0x03\n        /* \"Lab 15-08-2023/Error.sol\":215:257  reverterror(\"the number is not prime\" , 3) */\n      mload(0x40)\n      0x82a98bfa00000000000000000000000000000000000000000000000000000000\n      dup2\n      mstore\n      0x04\n      add\n      tag_23\n      swap2\n      swap1\n      tag_24\n      jump\t// in\n    tag_23:\n      mload(0x40)\n      dup1\n      swap2\n      sub\n      swap1\n      revert\n        /* \"Lab 15-08-2023/Error.sol\":187:261  if(IsPrime(num)){... */\n    tag_22:\n        /* \"Lab 15-08-2023/Error.sol\":263:266  arr */\n      0x00\n        /* \"Lab 15-08-2023/Error.sol\":272:275  num */\n      dup2\n        /* \"Lab 15-08-2023/Error.sol\":263:276  arr.push(num) */\n      swap1\n      dup1\n      0x01\n      dup2\n      sload\n      add\n      dup1\n      dup3\n      sstore\n      dup1\n      swap2\n      pop\n      pop\n      0x01\n      swap1\n      sub\n      swap1\n      0x00\n      mstore\n      keccak256(0x00, 0x20)\n      add\n      0x00\n      swap1\n      swap2\n      swap1\n      swap2\n      swap1\n      swap2\n      pop\n      sstore\n        /* \"Lab 15-08-2023/Error.sol\":151:280  function upush(uint num) public{... */\n      pop\n      jump\t// out\n        /* \"Lab 15-08-2023/Error.sol\":82:99  uint[] public arr */\n    tag_12:\n      0x00\n      dup2\n      dup2\n      sload\n      dup2\n      lt\n      tag_26\n      jumpi\n      0x00\n      dup1\n      revert\n    tag_26:\n      swap1\n      0x00\n      mstore\n      keccak256(0x00, 0x20)\n      add\n      0x00\n      swap2\n      pop\n      swap1\n      pop\n      sload\n      dup2\n      jump\t// out\n        /* \"Lab 15-08-2023/Error.sol\":282:472  function IsPrime(uint num) public pure returns(bool){... */\n    tag_17:\n        /* \"Lab 15-08-2023/Error.sol\":329:333  bool */\n      0x00\n        /* \"Lab 15-08-2023/Error.sol\":347:348  0 */\n      dup1\n        /* \"Lab 15-08-2023/Error.sol\":340:343  num */\n      dup3\n        /* \"Lab 15-08-2023/Error.sol\":340:348  num == 0 */\n      eq\n        /* \"Lab 15-08-2023/Error.sol\":340:360  num == 0 || num == 1 */\n      dup1\n      tag_29\n      jumpi\n      pop\n        /* \"Lab 15-08-2023/Error.sol\":359:360  1 */\n      0x01\n        /* \"Lab 15-08-2023/Error.sol\":352:355  num */\n      dup3\n        /* \"Lab 15-08-2023/Error.sol\":352:360  num == 1 */\n      eq\n        /* \"Lab 15-08-2023/Error.sol\":340:360  num == 0 || num == 1 */\n    tag_29:\n        /* \"Lab 15-08-2023/Error.sol\":337:380  if(num == 0 || num == 1){... */\n      iszero\n      tag_30\n      jumpi\n        /* \"Lab 15-08-2023/Error.sol\":371:376  false */\n      0x00\n        /* \"Lab 15-08-2023/Error.sol\":364:376  return false */\n      swap1\n      pop\n      jump(tag_28)\n        /* \"Lab 15-08-2023/Error.sol\":337:380  if(num == 0 || num == 1){... */\n    tag_30:\n        /* \"Lab 15-08-2023/Error.sol\":386:392  uint i */\n      0x00\n        /* \"Lab 15-08-2023/Error.sol\":395:396  2 */\n      0x02\n        /* \"Lab 15-08-2023/Error.sol\":386:396  uint i = 2 */\n      swap1\n      pop\n        /* \"Lab 15-08-2023/Error.sol\":382:454  for(uint i = 2; i <= num/2; i++){... */\n    tag_31:\n        /* \"Lab 15-08-2023/Error.sol\":407:408  2 */\n      0x02\n        /* \"Lab 15-08-2023/Error.sol\":403:406  num */\n      dup4\n        /* \"Lab 15-08-2023/Error.sol\":403:408  num/2 */\n      tag_34\n      swap2\n      swap1\n      tag_35\n      jump\t// in\n    tag_34:\n        /* \"Lab 15-08-2023/Error.sol\":398:399  i */\n      dup2\n        /* \"Lab 15-08-2023/Error.sol\":398:408  i <= num/2 */\n      gt\n        /* \"Lab 15-08-2023/Error.sol\":382:454  for(uint i = 2; i <= num/2; i++){... */\n      tag_32\n      jumpi\n        /* \"Lab 15-08-2023/Error.sol\":431:432  0 */\n      0x00\n        /* \"Lab 15-08-2023/Error.sol\":426:427  i */\n      dup2\n        /* \"Lab 15-08-2023/Error.sol\":420:423  num */\n      dup5\n        /* \"Lab 15-08-2023/Error.sol\":420:427  num % i */\n      tag_36\n      swap2\n      swap1\n      tag_37\n      jump\t// in\n    tag_36:\n        /* \"Lab 15-08-2023/Error.sol\":420:432  num % i == 0 */\n      sub\n        /* \"Lab 15-08-2023/Error.sol\":417:451  if(num % i == 0){... */\n      tag_38\n      jumpi\n        /* \"Lab 15-08-2023/Error.sol\":443:447  true */\n      0x01\n        /* \"Lab 15-08-2023/Error.sol\":436:447  return true */\n      swap2\n      pop\n      pop\n      jump(tag_28)\n        /* \"Lab 15-08-2023/Error.sol\":417:451  if(num % i == 0){... */\n    tag_38:\n        /* \"Lab 15-08-2023/Error.sol\":410:413  i++ */\n      dup1\n      dup1\n      tag_39\n      swap1\n      tag_40\n      jump\t// in\n    tag_39:\n      swap2\n      pop\n      pop\n        /* \"Lab 15-08-2023/Error.sol\":382:454  for(uint i = 2; i <= num/2; i++){... */\n      jump(tag_31)\n    tag_32:\n      pop\n        /* \"Lab 15-08-2023/Error.sol\":463:468  false */\n      0x00\n        /* \"Lab 15-08-2023/Error.sol\":456:468  return false */\n      swap1\n      pop\n        /* \"Lab 15-08-2023/Error.sol\":282:472  function IsPrime(uint num) public pure returns(bool){... */\n    tag_28:\n      swap2\n      swap1\n      pop\n      jump\t// out\n        /* \"#utility.yul\":88:205   */\n    tag_42:\n        /* \"#utility.yul\":197:198   */\n      0x00\n        /* \"#utility.yul\":194:195   */\n      dup1\n        /* \"#utility.yul\":187:199   */\n      revert\n        /* \"#utility.yul\":334:411   */\n    tag_44:\n        /* \"#utility.yul\":371:378   */\n      0x00\n        /* \"#utility.yul\":400:405   */\n      dup2\n        /* \"#utility.yul\":389:405   */\n      swap1\n      pop\n        /* \"#utility.yul\":334:411   */\n      swap2\n      swap1\n      pop\n      jump\t// out\n        /* \"#utility.yul\":417:539   */\n    tag_45:\n        /* \"#utility.yul\":490:514   */\n      tag_65\n        /* \"#utility.yul\":508:513   */\n      dup2\n        /* \"#utility.yul\":490:514   */\n      tag_44\n      jump\t// in\n    tag_65:\n        /* \"#utility.yul\":483:488   */\n      dup2\n        /* \"#utility.yul\":480:515   */\n      eq\n        /* \"#utility.yul\":470:533   */\n      tag_66\n      jumpi\n        /* \"#utility.yul\":529:530   */\n      0x00\n        /* \"#utility.yul\":526:527   */\n      dup1\n        /* \"#utility.yul\":519:531   */\n      revert\n        /* \"#utility.yul\":470:533   */\n    tag_66:\n        /* \"#utility.yul\":417:539   */\n      pop\n      jump\t// out\n        /* \"#utility.yul\":545:684   */\n    tag_46:\n        /* \"#utility.yul\":591:596   */\n      0x00\n        /* \"#utility.yul\":629:635   */\n      dup2\n        /* \"#utility.yul\":616:636   */\n      calldataload\n        /* \"#utility.yul\":607:636   */\n      swap1\n      pop\n        /* \"#utility.yul\":645:678   */\n      tag_68\n        /* \"#utility.yul\":672:677   */\n      dup2\n        /* \"#utility.yul\":645:678   */\n      tag_45\n      jump\t// in\n    tag_68:\n        /* \"#utility.yul\":545:684   */\n      swap3\n      swap2\n      pop\n      pop\n      jump\t// out\n        /* \"#utility.yul\":690:1019   */\n    tag_8:\n        /* \"#utility.yul\":749:755   */\n      0x00\n        /* \"#utility.yul\":798:800   */\n      0x20\n        /* \"#utility.yul\":786:795   */\n      dup3\n        /* \"#utility.yul\":777:784   */\n      dup5\n        /* \"#utility.yul\":773:796   */\n      sub\n        /* \"#utility.yul\":769:801   */\n      slt\n        /* \"#utility.yul\":766:885   */\n      iszero\n      tag_70\n      jumpi\n        /* \"#utility.yul\":804:883   */\n      tag_71\n      tag_42\n      jump\t// in\n    tag_71:\n        /* \"#utility.yul\":766:885   */\n    tag_70:\n        /* \"#utility.yul\":924:925   */\n      0x00\n        /* \"#utility.yul\":949:1002   */\n      tag_72\n        /* \"#utility.yul\":994:1001   */\n      dup5\n        /* \"#utility.yul\":985:991   */\n      dup3\n        /* \"#utility.yul\":974:983   */\n      dup6\n        /* \"#utility.yul\":970:992   */\n      add\n        /* \"#utility.yul\":949:1002   */\n      tag_46\n      jump\t// in\n    tag_72:\n        /* \"#utility.yul\":939:1002   */\n      swap2\n      pop\n        /* \"#utility.yul\":895:1012   */\n      pop\n        /* \"#utility.yul\":690:1019   */\n      swap3\n      swap2\n      pop\n      pop\n      jump\t// out\n        /* \"#utility.yul\":1025:1143   */\n    tag_47:\n        /* \"#utility.yul\":1112:1136   */\n      tag_74\n        /* \"#utility.yul\":1130:1135   */\n      dup2\n        /* \"#utility.yul\":1112:1136   */\n      tag_44\n      jump\t// in\n    tag_74:\n        /* \"#utility.yul\":1107:1110   */\n      dup3\n        /* \"#utility.yul\":1100:1137   */\n      mstore\n        /* \"#utility.yul\":1025:1143   */\n      pop\n      pop\n      jump\t// out\n        /* \"#utility.yul\":1149:1371   */\n    tag_14:\n        /* \"#utility.yul\":1242:1246   */\n      0x00\n        /* \"#utility.yul\":1280:1282   */\n      0x20\n        /* \"#utility.yul\":1269:1278   */\n      dup3\n        /* \"#utility.yul\":1265:1283   */\n      add\n        /* \"#utility.yul\":1257:1283   */\n      swap1\n      pop\n        /* \"#utility.yul\":1293:1364   */\n      tag_76\n        /* \"#utility.yul\":1361:1362   */\n      0x00\n        /* \"#utility.yul\":1350:1359   */\n      dup4\n        /* \"#utility.yul\":1346:1363   */\n      add\n        /* \"#utility.yul\":1337:1343   */\n      dup5\n        /* \"#utility.yul\":1293:1364   */\n      tag_47\n      jump\t// in\n    tag_76:\n        /* \"#utility.yul\":1149:1371   */\n      swap3\n      swap2\n      pop\n      pop\n      jump\t// out\n        /* \"#utility.yul\":1377:1467   */\n    tag_48:\n        /* \"#utility.yul\":1411:1418   */\n      0x00\n        /* \"#utility.yul\":1454:1459   */\n      dup2\n        /* \"#utility.yul\":1447:1460   */\n      iszero\n        /* \"#utility.yul\":1440:1461   */\n      iszero\n        /* \"#utility.yul\":1429:1461   */\n      swap1\n      pop\n        /* \"#utility.yul\":1377:1467   */\n      swap2\n      swap1\n      pop\n      jump\t// out\n        /* \"#utility.yul\":1473:1582   */\n    tag_49:\n        /* \"#utility.yul\":1554:1575   */\n      tag_79\n        /* \"#utility.yul\":1569:1574   */\n      dup2\n        /* \"#utility.yul\":1554:1575   */\n      tag_48\n      jump\t// in\n    tag_79:\n        /* \"#utility.yul\":1549:1552   */\n      dup3\n        /* \"#utility.yul\":1542:1576   */\n      mstore\n        /* \"#utility.yul\":1473:1582   */\n      pop\n      pop\n      jump\t// out\n        /* \"#utility.yul\":1588:1798   */\n    tag_19:\n        /* \"#utility.yul\":1675:1679   */\n      0x00\n        /* \"#utility.yul\":1713:1715   */\n      0x20\n        /* \"#utility.yul\":1702:1711   */\n      dup3\n        /* \"#utility.yul\":1698:1716   */\n      add\n        /* \"#utility.yul\":1690:1716   */\n      swap1\n      pop\n        /* \"#utility.yul\":1726:1791   */\n      tag_81\n        /* \"#utility.yul\":1788:1789   */\n      0x00\n        /* \"#utility.yul\":1777:1786   */\n      dup4\n        /* \"#utility.yul\":1773:1790   */\n      add\n        /* \"#utility.yul\":1764:1770   */\n      dup5\n        /* \"#utility.yul\":1726:1791   */\n      tag_49\n      jump\t// in\n    tag_81:\n        /* \"#utility.yul\":1588:1798   */\n      swap3\n      swap2\n      pop\n      pop\n      jump\t// out\n        /* \"#utility.yul\":1804:1973   */\n    tag_50:\n        /* \"#utility.yul\":1888:1899   */\n      0x00\n        /* \"#utility.yul\":1922:1928   */\n      dup3\n        /* \"#utility.yul\":1917:1920   */\n      dup3\n        /* \"#utility.yul\":1910:1929   */\n      mstore\n        /* \"#utility.yul\":1962:1966   */\n      0x20\n        /* \"#utility.yul\":1957:1960   */\n      dup3\n        /* \"#utility.yul\":1953:1967   */\n      add\n        /* \"#utility.yul\":1938:1967   */\n      swap1\n      pop\n        /* \"#utility.yul\":1804:1973   */\n      swap3\n      swap2\n      pop\n      pop\n      jump\t// out\n        /* \"#utility.yul\":1979:2152   */\n    tag_51:\n        /* \"#utility.yul\":2119:2144   */\n      0x746865206e756d626572206973206e6f74207072696d65000000000000000000\n        /* \"#utility.yul\":2115:2116   */\n      0x00\n        /* \"#utility.yul\":2107:2113   */\n      dup3\n        /* \"#utility.yul\":2103:2117   */\n      add\n        /* \"#utility.yul\":2096:2145   */\n      mstore\n        /* \"#utility.yul\":1979:2152   */\n      pop\n      jump\t// out\n        /* \"#utility.yul\":2158:2524   */\n    tag_52:\n        /* \"#utility.yul\":2300:2303   */\n      0x00\n        /* \"#utility.yul\":2321:2388   */\n      tag_85\n        /* \"#utility.yul\":2385:2387   */\n      0x17\n        /* \"#utility.yul\":2380:2383   */\n      dup4\n        /* \"#utility.yul\":2321:2388   */\n      tag_50\n      jump\t// in\n    tag_85:\n        /* \"#utility.yul\":2314:2388   */\n      swap2\n      pop\n        /* \"#utility.yul\":2397:2490   */\n      tag_86\n        /* \"#utility.yul\":2486:2489   */\n      dup3\n        /* \"#utility.yul\":2397:2490   */\n      tag_51\n      jump\t// in\n    tag_86:\n        /* \"#utility.yul\":2515:2517   */\n      0x20\n        /* \"#utility.yul\":2510:2513   */\n      dup3\n        /* \"#utility.yul\":2506:2518   */\n      add\n        /* \"#utility.yul\":2499:2518   */\n      swap1\n      pop\n        /* \"#utility.yul\":2158:2524   */\n      swap2\n      swap1\n      pop\n      jump\t// out\n        /* \"#utility.yul\":2530:2615   */\n    tag_53:\n        /* \"#utility.yul\":2575:2582   */\n      0x00\n        /* \"#utility.yul\":2604:2609   */\n      dup2\n        /* \"#utility.yul\":2593:2609   */\n      swap1\n      pop\n        /* \"#utility.yul\":2530:2615   */\n      swap2\n      swap1\n      pop\n      jump\t// out\n        /* \"#utility.yul\":2621:2681   */\n    tag_54:\n        /* \"#utility.yul\":2649:2652   */\n      0x00\n        /* \"#utility.yul\":2670:2675   */\n      dup2\n        /* \"#utility.yul\":2663:2675   */\n      swap1\n      pop\n        /* \"#utility.yul\":2621:2681   */\n      swap2\n      swap1\n      pop\n      jump\t// out\n        /* \"#utility.yul\":2687:2845   */\n    tag_55:\n        /* \"#utility.yul\":2745:2754   */\n      0x00\n        /* \"#utility.yul\":2778:2839   */\n      tag_90\n        /* \"#utility.yul\":2796:2838   */\n      tag_91\n        /* \"#utility.yul\":2805:2837   */\n      tag_92\n        /* \"#utility.yul\":2831:2836   */\n      dup5\n        /* \"#utility.yul\":2805:2837   */\n      tag_53\n      jump\t// in\n    tag_92:\n        /* \"#utility.yul\":2796:2838   */\n      tag_54\n      jump\t// in\n    tag_91:\n        /* \"#utility.yul\":2778:2839   */\n      tag_44\n      jump\t// in\n    tag_90:\n        /* \"#utility.yul\":2765:2839   */\n      swap1\n      pop\n        /* \"#utility.yul\":2687:2845   */\n      swap2\n      swap1\n      pop\n      jump\t// out\n        /* \"#utility.yul\":2851:2998   */\n    tag_56:\n        /* \"#utility.yul\":2946:2991   */\n      tag_94\n        /* \"#utility.yul\":2985:2990   */\n      dup2\n        /* \"#utility.yul\":2946:2991   */\n      tag_55\n      jump\t// in\n    tag_94:\n        /* \"#utility.yul\":2941:2944   */\n      dup3\n        /* \"#utility.yul\":2934:2992   */\n      mstore\n        /* \"#utility.yul\":2851:2998   */\n      pop\n      pop\n      jump\t// out\n        /* \"#utility.yul\":3004:3549   */\n    tag_24:\n        /* \"#utility.yul\":3206:3210   */\n      0x00\n        /* \"#utility.yul\":3244:3246   */\n      0x40\n        /* \"#utility.yul\":3233:3242   */\n      dup3\n        /* \"#utility.yul\":3229:3247   */\n      add\n        /* \"#utility.yul\":3221:3247   */\n      swap1\n      pop\n        /* \"#utility.yul\":3293:3302   */\n      dup2\n        /* \"#utility.yul\":3287:3291   */\n      dup2\n        /* \"#utility.yul\":3283:3303   */\n      sub\n        /* \"#utility.yul\":3279:3280   */\n      0x00\n        /* \"#utility.yul\":3268:3277   */\n      dup4\n        /* \"#utility.yul\":3264:3281   */\n      add\n        /* \"#utility.yul\":3257:3304   */\n      mstore\n        /* \"#utility.yul\":3321:3452   */\n      tag_96\n        /* \"#utility.yul\":3447:3451   */\n      dup2\n        /* \"#utility.yul\":3321:3452   */\n      tag_52\n      jump\t// in\n    tag_96:\n        /* \"#utility.yul\":3313:3452   */\n      swap1\n      pop\n        /* \"#utility.yul\":3462:3542   */\n      tag_97\n        /* \"#utility.yul\":3538:3540   */\n      0x20\n        /* \"#utility.yul\":3527:3536   */\n      dup4\n        /* \"#utility.yul\":3523:3541   */\n      add\n        /* \"#utility.yul\":3514:3520   */\n      dup5\n        /* \"#utility.yul\":3462:3542   */\n      tag_56\n      jump\t// in\n    tag_97:\n        /* \"#utility.yul\":3004:3549   */\n      swap3\n      swap2\n      pop\n      pop\n      jump\t// out\n        /* \"#utility.yul\":3555:3735   */\n    tag_57:\n        /* \"#utility.yul\":3603:3680   */\n      0x4e487b7100000000000000000000000000000000000000000000000000000000\n        /* \"#utility.yul\":3600:3601   */\n      0x00\n        /* \"#utility.yul\":3593:3681   */\n      mstore\n        /* \"#utility.yul\":3700:3704   */\n      0x12\n        /* \"#utility.yul\":3697:3698   */\n      0x04\n        /* \"#utility.yul\":3690:3705   */\n      mstore\n        /* \"#utility.yul\":3724:3728   */\n      0x24\n        /* \"#utility.yul\":3721:3722   */\n      0x00\n        /* \"#utility.yul\":3714:3729   */\n      revert\n        /* \"#utility.yul\":3741:3921   */\n    tag_58:\n        /* \"#utility.yul\":3789:3866   */\n      0x4e487b7100000000000000000000000000000000000000000000000000000000\n        /* \"#utility.yul\":3786:3787   */\n      0x00\n        /* \"#utility.yul\":3779:3867   */\n      mstore\n        /* \"#utility.yul\":3886:3890   */\n      0x11\n        /* \"#utility.yul\":3883:3884   */\n      0x04\n        /* \"#utility.yul\":3876:3891   */\n      mstore\n        /* \"#utility.yul\":3910:3914   */\n      0x24\n        /* \"#utility.yul\":3907:3908   */\n      0x00\n        /* \"#utility.yul\":3900:3915   */\n      revert\n        /* \"#utility.yul\":3927:4112   */\n    tag_35:\n        /* \"#utility.yul\":3967:3968   */\n      0x00\n        /* \"#utility.yul\":3984:4004   */\n      tag_101\n        /* \"#utility.yul\":4002:4003   */\n      dup3\n        /* \"#utility.yul\":3984:4004   */\n      tag_44\n      jump\t// in\n    tag_101:\n        /* \"#utility.yul\":3979:4004   */\n      swap2\n      pop\n        /* \"#utility.yul\":4018:4038   */\n      tag_102\n        /* \"#utility.yul\":4036:4037   */\n      dup4\n        /* \"#utility.yul\":4018:4038   */\n      tag_44\n      jump\t// in\n    tag_102:\n        /* \"#utility.yul\":4013:4038   */\n      swap3\n      pop\n        /* \"#utility.yul\":4057:4058   */\n      dup3\n        /* \"#utility.yul\":4047:4082   */\n      tag_103\n      jumpi\n        /* \"#utility.yul\":4062:4080   */\n      tag_104\n      tag_57\n      jump\t// in\n    tag_104:\n        /* \"#utility.yul\":4047:4082   */\n    tag_103:\n        /* \"#utility.yul\":4104:4105   */\n      dup3\n        /* \"#utility.yul\":4101:4102   */\n      dup3\n        /* \"#utility.yul\":4097:4106   */\n      div\n        /* \"#utility.yul\":4092:4106   */\n      swap1\n      pop\n        /* \"#utility.yul\":3927:4112   */\n      swap3\n      swap2\n      pop\n      pop\n      jump\t// out\n        /* \"#utility.yul\":4118:4294   */\n    tag_37:\n        /* \"#utility.yul\":4150:4151   */\n      0x00\n        /* \"#utility.yul\":4167:4187   */\n      tag_106\n        /* \"#utility.yul\":4185:4186   */\n      dup3\n        /* \"#utility.yul\":4167:4187   */\n      tag_44\n      jump\t// in\n    tag_106:\n        /* \"#utility.yul\":4162:4187   */\n      swap2\n      pop\n        /* \"#utility.yul\":4201:4221   */\n      tag_107\n        /* \"#utility.yul\":4219:4220   */\n      dup4\n        /* \"#utility.yul\":4201:4221   */\n      tag_44\n      jump\t// in\n    tag_107:\n        /* \"#utility.yul\":4196:4221   */\n      swap3\n      pop\n        /* \"#utility.yul\":4240:4241   */\n      dup3\n        /* \"#utility.yul\":4230:4265   */\n      tag_108\n      jumpi\n        /* \"#utility.yul\":4245:4263   */\n      tag_109\n      tag_57\n      jump\t// in\n    tag_109:\n        /* \"#utility.yul\":4230:4265   */\n    tag_108:\n        /* \"#utility.yul\":4286:4287   */\n      dup3\n        /* \"#utility.yul\":4283:4284   */\n      dup3\n        /* \"#utility.yul\":4279:4288   */\n      mod\n        /* \"#utility.yul\":4274:4288   */\n      swap1\n      pop\n        /* \"#utility.yul\":4118:4294   */\n      swap3\n      swap2\n      pop\n      pop\n      jump\t// out\n        /* \"#utility.yul\":4300:4533   */\n    tag_40:\n        /* \"#utility.yul\":4339:4342   */\n      0x00\n        /* \"#utility.yul\":4362:4386   */\n      tag_111\n        /* \"#utility.yul\":4380:4385   */\n      dup3\n        /* \"#utility.yul\":4362:4386   */\n      tag_44\n      jump\t// in\n    tag_111:\n        /* \"#utility.yul\":4353:4386   */\n      swap2\n      pop\n        /* \"#utility.yul\":4408:4474   */\n      0xffffffffffffffffffffffffffffffffffffffffffffffffffffffffffffffff\n        /* \"#utility.yul\":4401:4406   */\n      dup3\n        /* \"#utility.yul\":4398:4475   */\n      sub\n        /* \"#utility.yul\":4395:4498   */\n      tag_112\n      jumpi\n        /* \"#utility.yul\":4478:4496   */\n      tag_113\n      tag_58\n      jump\t// in\n    tag_113:\n        /* \"#utility.yul\":4395:4498   */\n    tag_112:\n        /* \"#utility.yul\":4525:4526   */\n      0x01\n        /* \"#utility.yul\":4518:4523   */\n      dup3\n        /* \"#utility.yul\":4514:4527   */\n      add\n        /* \"#utility.yul\":4507:4527   */\n      swap1\n      pop\n        /* \"#utility.yul\":4300:4533   */\n      swap2\n      swap1\n      pop\n      jump\t// out\n\n    auxdata: 0xa26469706673582212209c1cb0c2382844a15da6a3b8996e0df99a73e764e419159c70cc7f2f246ebbaa64736f6c63430008120033\n}\n",
				"bytecode": {
					"linkReferences": {},
					"object": "608060405234801561001057600080fd5b506104a7806100206000396000f3fe608060405234801561001057600080fd5b50600436106100415760003560e01c8063234f0ec51461004657806371e5ee5f14610062578063a8d4eb2714610092575b600080fd5b610060600480360381019061005b919061020c565b6100c2565b005b61007c6004803603810190610077919061020c565b61013a565b6040516100899190610248565b60405180910390f35b6100ac60048036038101906100a7919061020c565b61015e565b6040516100b9919061027e565b60405180910390f35b6100cb8161015e565b1561010e5760036040517f82a98bfa000000000000000000000000000000000000000000000000000000008152600401610105919061033b565b60405180910390fd5b600081908060018154018082558091505060019003906000526020600020016000909190919091505550565b6000818154811061014a57600080fd5b906000526020600020016000915090505481565b60008082148061016e5750600182145b1561017c57600090506101cc565b6000600290505b60028361019091906103c7565b81116101c657600081846101a491906103f8565b036101b35760019150506101cc565b80806101be90610429565b915050610183565b50600090505b919050565b600080fd5b6000819050919050565b6101e9816101d6565b81146101f457600080fd5b50565b600081359050610206816101e0565b92915050565b600060208284031215610222576102216101d1565b5b6000610230848285016101f7565b91505092915050565b610242816101d6565b82525050565b600060208201905061025d6000830184610239565b92915050565b60008115159050919050565b61027881610263565b82525050565b6000602082019050610293600083018461026f565b92915050565b600082825260208201905092915050565b7f746865206e756d626572206973206e6f74207072696d65000000000000000000600082015250565b60006102e0601783610299565b91506102eb826102aa565b602082019050919050565b6000819050919050565b6000819050919050565b600061032561032061031b846102f6565b610300565b6101d6565b9050919050565b6103358161030a565b82525050565b60006040820190508181036000830152610354816102d3565b9050610363602083018461032c565b92915050565b7f4e487b7100000000000000000000000000000000000000000000000000000000600052601260045260246000fd5b7f4e487b7100000000000000000000000000000000000000000000000000000000600052601160045260246000fd5b60006103d2826101d6565b91506103dd836101d6565b9250826103ed576103ec610369565b5b828204905092915050565b6000610403826101d6565b915061040e836101d6565b92508261041e5761041d610369565b5b828206905092915050565b6000610434826101d6565b91507fffffffffffffffffffffffffffffffffffffffffffffffffffffffffffffffff820361046657610465610398565b5b60018201905091905056fea26469706673582212209c1cb0c2382844a15da6a3b8996e0df99a73e764e419159c70cc7f2f246ebbaa64736f6c63430008120033",
					"opcodes": "PUSH1 0x80 PUSH1 0x40 MSTORE CALLVALUE DUP1 ISZERO PUSH2 0x10 JUMPI PUSH1 0x0 DUP1 REVERT JUMPDEST POP PUSH2 0x4A7 DUP1 PUSH2 0x20 PUSH1 0x0 CODECOPY PUSH1 0x0 RETURN INVALID PUSH1 0x80 PUSH1 0x40 MSTORE CALLVALUE DUP1 ISZERO PUSH2 0x10 JUMPI PUSH1 0x0 DUP1 REVERT JUMPDEST POP PUSH1 0x4 CALLDATASIZE LT PUSH2 0x41 JUMPI PUSH1 0x0 CALLDATALOAD PUSH1 0xE0 SHR DUP1 PUSH4 0x234F0EC5 EQ PUSH2 0x46 JUMPI DUP1 PUSH4 0x71E5EE5F EQ PUSH2 0x62 JUMPI DUP1 PUSH4 0xA8D4EB27 EQ PUSH2 0x92 JUMPI JUMPDEST PUSH1 0x0 DUP1 REVERT JUMPDEST PUSH2 0x60 PUSH1 0x4 DUP1 CALLDATASIZE SUB DUP2 ADD SWAP1 PUSH2 0x5B SWAP2 SWAP1 PUSH2 0x20C JUMP JUMPDEST PUSH2 0xC2 JUMP JUMPDEST STOP JUMPDEST PUSH2 0x7C PUSH1 0x4 DUP1 CALLDATASIZE SUB DUP2 ADD SWAP1 PUSH2 0x77 SWAP2 SWAP1 PUSH2 0x20C JUMP JUMPDEST PUSH2 0x13A JUMP JUMPDEST PUSH1 0x40 MLOAD PUSH2 0x89 SWAP2 SWAP1 PUSH2 0x248 JUMP JUMPDEST PUSH1 0x40 MLOAD DUP1 SWAP2 SUB SWAP1 RETURN JUMPDEST PUSH2 0xAC PUSH1 0x4 DUP1 CALLDATASIZE SUB DUP2 ADD SWAP1 PUSH2 0xA7 SWAP2 SWAP1 PUSH2 0x20C JUMP JUMPDEST PUSH2 0x15E JUMP JUMPDEST PUSH1 0x40 MLOAD PUSH2 0xB9 SWAP2 SWAP1 PUSH2 0x27E JUMP JUMPDEST PUSH1 0x40 MLOAD DUP1 SWAP2 SUB SWAP1 RETURN JUMPDEST PUSH2 0xCB DUP2 PUSH2 0x15E JUMP JUMPDEST ISZERO PUSH2 0x10E JUMPI PUSH1 0x3 PUSH1 0x40 MLOAD PUSH32 0x82A98BFA00000000000000000000000000000000000000000000000000000000 DUP2 MSTORE PUSH1 0x4 ADD PUSH2 0x105 SWAP2 SWAP1 PUSH2 0x33B JUMP JUMPDEST PUSH1 0x40 MLOAD DUP1 SWAP2 SUB SWAP1 REVERT JUMPDEST PUSH1 0x0 DUP2 SWAP1 DUP1 PUSH1 0x1 DUP2 SLOAD ADD DUP1 DUP3 SSTORE DUP1 SWAP2 POP POP PUSH1 0x1 SWAP1 SUB SWAP1 PUSH1 0x0 MSTORE PUSH1 0x20 PUSH1 0x0 KECCAK256 ADD PUSH1 0x0 SWAP1 SWAP2 SWAP1 SWAP2 SWAP1 SWAP2 POP SSTORE POP JUMP JUMPDEST PUSH1 0x0 DUP2 DUP2 SLOAD DUP2 LT PUSH2 0x14A JUMPI PUSH1 0x0 DUP1 REVERT JUMPDEST SWAP1 PUSH1 0x0 MSTORE PUSH1 0x20 PUSH1 0x0 KECCAK256 ADD PUSH1 0x0 SWAP2 POP SWAP1 POP SLOAD DUP2 JUMP JUMPDEST PUSH1 0x0 DUP1 DUP3 EQ DUP1 PUSH2 0x16E JUMPI POP PUSH1 0x1 DUP3 EQ JUMPDEST ISZERO PUSH2 0x17C JUMPI PUSH1 0x0 SWAP1 POP PUSH2 0x1CC JUMP JUMPDEST PUSH1 0x0 PUSH1 0x2 SWAP1 POP JUMPDEST PUSH1 0x2 DUP4 PUSH2 0x190 SWAP2 SWAP1 PUSH2 0x3C7 JUMP JUMPDEST DUP2 GT PUSH2 0x1C6 JUMPI PUSH1 0x0 DUP2 DUP5 PUSH2 0x1A4 SWAP2 SWAP1 PUSH2 0x3F8 JUMP JUMPDEST SUB PUSH2 0x1B3 JUMPI PUSH1 0x1 SWAP2 POP POP PUSH2 0x1CC JUMP JUMPDEST DUP1 DUP1 PUSH2 0x1BE SWAP1 PUSH2 0x429 JUMP JUMPDEST SWAP2 POP POP PUSH2 0x183 JUMP JUMPDEST POP PUSH1 0x0 SWAP1 POP JUMPDEST SWAP2 SWAP1 POP JUMP JUMPDEST PUSH1 0x0 DUP1 REVERT JUMPDEST PUSH1 0x0 DUP2 SWAP1 POP SWAP2 SWAP1 POP JUMP JUMPDEST PUSH2 0x1E9 DUP2 PUSH2 0x1D6 JUMP JUMPDEST DUP2 EQ PUSH2 0x1F4 JUMPI PUSH1 0x0 DUP1 REVERT JUMPDEST POP JUMP JUMPDEST PUSH1 0x0 DUP2 CALLDATALOAD SWAP1 POP PUSH2 0x206 DUP2 PUSH2 0x1E0 JUMP JUMPDEST SWAP3 SWAP2 POP POP JUMP JUMPDEST PUSH1 0x0 PUSH1 0x20 DUP3 DUP5 SUB SLT ISZERO PUSH2 0x222 JUMPI PUSH2 0x221 PUSH2 0x1D1 JUMP JUMPDEST JUMPDEST PUSH1 0x0 PUSH2 0x230 DUP5 DUP3 DUP6 ADD PUSH2 0x1F7 JUMP JUMPDEST SWAP2 POP POP SWAP3 SWAP2 POP POP JUMP JUMPDEST PUSH2 0x242 DUP2 PUSH2 0x1D6 JUMP JUMPDEST DUP3 MSTORE POP POP JUMP JUMPDEST PUSH1 0x0 PUSH1 0x20 DUP3 ADD SWAP1 POP PUSH2 0x25D PUSH1 0x0 DUP4 ADD DUP5 PUSH2 0x239 JUMP JUMPDEST SWAP3 SWAP2 POP POP JUMP JUMPDEST PUSH1 0x0 DUP2 ISZERO ISZERO SWAP1 POP SWAP2 SWAP1 POP JUMP JUMPDEST PUSH2 0x278 DUP2 PUSH2 0x263 JUMP JUMPDEST DUP3 MSTORE POP POP JUMP JUMPDEST PUSH1 0x0 PUSH1 0x20 DUP3 ADD SWAP1 POP PUSH2 0x293 PUSH1 0x0 DUP4 ADD DUP5 PUSH2 0x26F JUMP JUMPDEST SWAP3 SWAP2 POP POP JUMP JUMPDEST PUSH1 0x0 DUP3 DUP3 MSTORE PUSH1 0x20 DUP3 ADD SWAP1 POP SWAP3 SWAP2 POP POP JUMP JUMPDEST PUSH32 0x746865206E756D626572206973206E6F74207072696D65000000000000000000 PUSH1 0x0 DUP3 ADD MSTORE POP JUMP JUMPDEST PUSH1 0x0 PUSH2 0x2E0 PUSH1 0x17 DUP4 PUSH2 0x299 JUMP JUMPDEST SWAP2 POP PUSH2 0x2EB DUP3 PUSH2 0x2AA JUMP JUMPDEST PUSH1 0x20 DUP3 ADD SWAP1 POP SWAP2 SWAP1 POP JUMP JUMPDEST PUSH1 0x0 DUP2 SWAP1 POP SWAP2 SWAP1 POP JUMP JUMPDEST PUSH1 0x0 DUP2 SWAP1 POP SWAP2 SWAP1 POP JUMP JUMPDEST PUSH1 0x0 PUSH2 0x325 PUSH2 0x320 PUSH2 0x31B DUP5 PUSH2 0x2F6 JUMP JUMPDEST PUSH2 0x300 JUMP JUMPDEST PUSH2 0x1D6 JUMP JUMPDEST SWAP1 POP SWAP2 SWAP1 POP JUMP JUMPDEST PUSH2 0x335 DUP2 PUSH2 0x30A JUMP JUMPDEST DUP3 MSTORE POP POP JUMP JUMPDEST PUSH1 0x0 PUSH1 0x40 DUP3 ADD SWAP1 POP DUP2 DUP2 SUB PUSH1 0x0 DUP4 ADD MSTORE PUSH2 0x354 DUP2 PUSH2 0x2D3 JUMP JUMPDEST SWAP1 POP PUSH2 0x363 PUSH1 0x20 DUP4 ADD DUP5 PUSH2 0x32C JUMP JUMPDEST SWAP3 SWAP2 POP POP JUMP JUMPDEST PUSH32 0x4E487B7100000000000000000000000000000000000000000000000000000000 PUSH1 0x0 MSTORE PUSH1 0x12 PUSH1 0x4 MSTORE PUSH1 0x24 PUSH1 0x0 REVERT JUMPDEST PUSH32 0x4E487B7100000000000000000000000000000000000000000000000000000000 PUSH1 0x0 MSTORE PUSH1 0x11 PUSH1 0x4 MSTORE PUSH1 0x24 PUSH1 0x0 REVERT JUMPDEST PUSH1 0x0 PUSH2 0x3D2 DUP3 PUSH2 0x1D6 JUMP JUMPDEST SWAP2 POP PUSH2 0x3DD DUP4 PUSH2 0x1D6 JUMP JUMPDEST SWAP3 POP DUP3 PUSH2 0x3ED JUMPI PUSH2 0x3EC PUSH2 0x369 JUMP JUMPDEST JUMPDEST DUP3 DUP3 DIV SWAP1 POP SWAP3 SWAP2 POP POP JUMP JUMPDEST PUSH1 0x0 PUSH2 0x403 DUP3 PUSH2 0x1D6 JUMP JUMPDEST SWAP2 POP PUSH2 0x40E DUP4 PUSH2 0x1D6 JUMP JUMPDEST SWAP3 POP DUP3 PUSH2 0x41E JUMPI PUSH2 0x41D PUSH2 0x369 JUMP JUMPDEST JUMPDEST DUP3 DUP3 MOD SWAP1 POP SWAP3 SWAP2 POP POP JUMP JUMPDEST PUSH1 0x0 PUSH2 0x434 DUP3 PUSH2 0x1D6 JUMP JUMPDEST SWAP2 POP PUSH32 0xFFFFFFFFFFFFFFFFFFFFFFFFFFFFFFFFFFFFFFFFFFFFFFFFFFFFFFFFFFFFFFFF DUP3 SUB PUSH2 0x466 JUMPI PUSH2 0x465 PUSH2 0x398 JUMP JUMPDEST JUMPDEST PUSH1 0x1 DUP3 ADD SWAP1 POP SWAP2 SWAP1 POP JUMP INVALID LOG2 PUSH5 0x6970667358 0x22 SLT KECCAK256 SWAP13 SHR 0xB0 0xC2 CODESIZE 0x28 PREVRANDAO LOG1 0x5D 0xA6 LOG3 0xB8 SWAP10 PUSH15 0xDF99A73E764E419159C70CC7F2F24 PUSH15 0xBBAA64736F6C634300081200330000 "
				},
				"gasEstimates": {
					"creation": {
						"codeDepositCost": "238200",
						"executionCost": "281",
						"totalCost": "238481"
					},
					"external": {
						"IsPrime(uint256)": "infinite",
						"arr(uint256)": "infinite",
						"upush(uint256)": "infinite"
					}
				},
				"methodIdentifiers": {
					"IsPrime(uint256)": "a8d4eb27",
					"arr(uint256)": "71e5ee5f",
					"upush(uint256)": "234f0ec5"
				}
			},
			"storageLayout": {
				"storage": [
					{
						"astId": 4,
						"contract": "Lab 15-08-2023/Error.sol:CustomError",
						"label": "arr",
						"offset": 0,
						"slot": "0",
						"type": "t_array(t_uint256)dyn_storage"
					}
				],
				"types": {
					"t_array(t_uint256)dyn_storage": {
						"base": "t_uint256",
						"encoding": "dynamic_array",
						"label": "uint256[]",
						"numberOfBytes": "32"
					},
					"t_uint256": {
						"encoding": "inplace",
						"label": "uint256",
						"numberOfBytes": "32"
					}
				}
			},
			"userdoc": {
				"kind": "user",
				"methods": {},
				"version": 1
			}
		}
	}
}