{
	"Lab 15-08-2023/Task1.sol": {
		"InputValidator": {
			"abi": [
				{
					"inputs": [
						{
							"internalType": "uint256",
							"name": "amount",
							"type": "uint256"
						},
						{
							"internalType": "address payable",
							"name": "recipient",
							"type": "address"
						}
					],
					"name": "Transfer",
					"outputs": [],
					"stateMutability": "nonpayable",
					"type": "function"
				},
				{
					"inputs": [
						{
							"internalType": "address",
							"name": "",
							"type": "address"
						}
					],
					"name": "balances",
					"outputs": [
						{
							"internalType": "uint256",
							"name": "",
							"type": "uint256"
						}
					],
					"stateMutability": "view",
					"type": "function"
				}
			],
			"devdoc": {
				"kind": "dev",
				"methods": {},
				"version": 1
			},
			"evm": {
				"assembly": "    /* \"Lab 15-08-2023/Task1.sol\":60:631  contract InputValidator {... */\n  mstore(0x40, 0x80)\n  callvalue\n  dup1\n  iszero\n  tag_1\n  jumpi\n  0x00\n  dup1\n  revert\ntag_1:\n  pop\n  dataSize(sub_0)\n  dup1\n  dataOffset(sub_0)\n  0x00\n  codecopy\n  0x00\n  return\nstop\n\nsub_0: assembly {\n        /* \"Lab 15-08-2023/Task1.sol\":60:631  contract InputValidator {... */\n      mstore(0x40, 0x80)\n      callvalue\n      dup1\n      iszero\n      tag_1\n      jumpi\n      0x00\n      dup1\n      revert\n    tag_1:\n      pop\n      jumpi(tag_2, lt(calldatasize, 0x04))\n      shr(0xe0, calldataload(0x00))\n      dup1\n      0x27e235e3\n      eq\n      tag_3\n      jumpi\n      dup1\n      0xabe1dcf9\n      eq\n      tag_4\n      jumpi\n    tag_2:\n      0x00\n      dup1\n      revert\n        /* \"Lab 15-08-2023/Task1.sol\":91:134  mapping(address => uint256) public balances */\n    tag_3:\n      tag_5\n      0x04\n      dup1\n      calldatasize\n      sub\n      dup2\n      add\n      swap1\n      tag_6\n      swap2\n      swap1\n      tag_7\n      jump\t// in\n    tag_6:\n      tag_8\n      jump\t// in\n    tag_5:\n      mload(0x40)\n      tag_9\n      swap2\n      swap1\n      tag_10\n      jump\t// in\n    tag_9:\n      mload(0x40)\n      dup1\n      swap2\n      sub\n      swap1\n      return\n        /* \"Lab 15-08-2023/Task1.sol\":143:628  function Transfer(uint256 amount, address payable recipient) public {... */\n    tag_4:\n      tag_11\n      0x04\n      dup1\n      calldatasize\n      sub\n      dup2\n      add\n      swap1\n      tag_12\n      swap2\n      swap1\n      tag_13\n      jump\t// in\n    tag_12:\n      tag_14\n      jump\t// in\n    tag_11:\n      stop\n        /* \"Lab 15-08-2023/Task1.sol\":91:134  mapping(address => uint256) public balances */\n    tag_8:\n      mstore(0x20, 0x00)\n      dup1\n      0x00\n      mstore\n      keccak256(0x00, 0x40)\n      0x00\n      swap2\n      pop\n      swap1\n      pop\n      sload\n      dup2\n      jump\t// out\n        /* \"Lab 15-08-2023/Task1.sol\":143:628  function Transfer(uint256 amount, address payable recipient) public {... */\n    tag_14:\n        /* \"Lab 15-08-2023/Task1.sol\":239:240  0 */\n      0x00\n        /* \"Lab 15-08-2023/Task1.sol\":230:236  amount */\n      dup3\n        /* \"Lab 15-08-2023/Task1.sol\":230:240  amount > 0 */\n      gt\n        /* \"Lab 15-08-2023/Task1.sol\":230:256  amount > 0 && amount < 100 */\n      dup1\n      iszero\n      tag_16\n      jumpi\n      pop\n        /* \"Lab 15-08-2023/Task1.sol\":253:256  100 */\n      0x64\n        /* \"Lab 15-08-2023/Task1.sol\":244:250  amount */\n      dup3\n        /* \"Lab 15-08-2023/Task1.sol\":244:256  amount < 100 */\n      lt\n        /* \"Lab 15-08-2023/Task1.sol\":230:256  amount > 0 && amount < 100 */\n    tag_16:\n        /* \"Lab 15-08-2023/Task1.sol\":222:293  require(amount > 0 && amount < 100, \"Amount must be between 0 and 100\") */\n      tag_17\n      jumpi\n      mload(0x40)\n      0x08c379a000000000000000000000000000000000000000000000000000000000\n      dup2\n      mstore\n      0x04\n      add\n      tag_18\n      swap1\n      tag_19\n      jump\t// in\n    tag_18:\n      mload(0x40)\n      dup1\n      swap2\n      sub\n      swap1\n      revert\n    tag_17:\n        /* \"Lab 15-08-2023/Task1.sol\":343:344  0 */\n      0x00\n        /* \"Lab 15-08-2023/Task1.sol\":322:345  recipient != address(0) */\n      0xffffffffffffffffffffffffffffffffffffffff\n      and\n        /* \"Lab 15-08-2023/Task1.sol\":322:331  recipient */\n      dup2\n        /* \"Lab 15-08-2023/Task1.sol\":322:345  recipient != address(0) */\n      0xffffffffffffffffffffffffffffffffffffffff\n      and\n      sub\n        /* \"Lab 15-08-2023/Task1.sol\":314:382  require(recipient != address(0), \"Recipient address cannot be zero\") */\n      tag_20\n      jumpi\n      mload(0x40)\n      0x08c379a000000000000000000000000000000000000000000000000000000000\n      dup2\n      mstore\n      0x04\n      add\n      tag_21\n      swap1\n      tag_22\n      jump\t// in\n    tag_21:\n      mload(0x40)\n      dup1\n      swap2\n      sub\n      swap1\n      revert\n    tag_20:\n        /* \"Lab 15-08-2023/Task1.sol\":435:441  amount */\n      dup2\n        /* \"Lab 15-08-2023/Task1.sol\":411:419  balances */\n      0x00\n        /* \"Lab 15-08-2023/Task1.sol\":411:431  balances[msg.sender] */\n      dup1\n        /* \"Lab 15-08-2023/Task1.sol\":420:430  msg.sender */\n      caller\n        /* \"Lab 15-08-2023/Task1.sol\":411:431  balances[msg.sender] */\n      0xffffffffffffffffffffffffffffffffffffffff\n      and\n      0xffffffffffffffffffffffffffffffffffffffff\n      and\n      dup2\n      mstore\n      0x20\n      add\n      swap1\n      dup2\n      mstore\n      0x20\n      add\n      0x00\n      keccak256\n      sload\n        /* \"Lab 15-08-2023/Task1.sol\":411:441  balances[msg.sender] >= amount */\n      lt\n      iszero\n        /* \"Lab 15-08-2023/Task1.sol\":403:466  require(balances[msg.sender] >= amount, \"Insufficient balance\") */\n      tag_23\n      jumpi\n      mload(0x40)\n      0x08c379a000000000000000000000000000000000000000000000000000000000\n      dup2\n      mstore\n      0x04\n      add\n      tag_24\n      swap1\n      tag_25\n      jump\t// in\n    tag_24:\n      mload(0x40)\n      dup1\n      swap2\n      sub\n      swap1\n      revert\n    tag_23:\n        /* \"Lab 15-08-2023/Task1.sol\":513:519  amount */\n      dup2\n        /* \"Lab 15-08-2023/Task1.sol\":489:497  balances */\n      0x00\n        /* \"Lab 15-08-2023/Task1.sol\":489:509  balances[msg.sender] */\n      dup1\n        /* \"Lab 15-08-2023/Task1.sol\":498:508  msg.sender */\n      caller\n        /* \"Lab 15-08-2023/Task1.sol\":489:509  balances[msg.sender] */\n      0xffffffffffffffffffffffffffffffffffffffff\n      and\n      0xffffffffffffffffffffffffffffffffffffffff\n      and\n      dup2\n      mstore\n      0x20\n      add\n      swap1\n      dup2\n      mstore\n      0x20\n      add\n      0x00\n      keccak256\n      0x00\n        /* \"Lab 15-08-2023/Task1.sol\":489:519  balances[msg.sender] -= amount */\n      dup3\n      dup3\n      sload\n      tag_26\n      swap2\n      swap1\n      tag_27\n      jump\t// in\n    tag_26:\n      swap3\n      pop\n      pop\n      dup2\n      swap1\n      sstore\n      pop\n        /* \"Lab 15-08-2023/Task1.sol\":563:569  amount */\n      dup2\n        /* \"Lab 15-08-2023/Task1.sol\":540:548  balances */\n      0x00\n        /* \"Lab 15-08-2023/Task1.sol\":540:559  balances[recipient] */\n      dup1\n        /* \"Lab 15-08-2023/Task1.sol\":549:558  recipient */\n      dup4\n        /* \"Lab 15-08-2023/Task1.sol\":540:559  balances[recipient] */\n      0xffffffffffffffffffffffffffffffffffffffff\n      and\n      0xffffffffffffffffffffffffffffffffffffffff\n      and\n      dup2\n      mstore\n      0x20\n      add\n      swap1\n      dup2\n      mstore\n      0x20\n      add\n      0x00\n      keccak256\n      0x00\n        /* \"Lab 15-08-2023/Task1.sol\":540:569  balances[recipient] += amount */\n      dup3\n      dup3\n      sload\n      tag_28\n      swap2\n      swap1\n      tag_29\n      jump\t// in\n    tag_28:\n      swap3\n      pop\n      pop\n      dup2\n      swap1\n      sstore\n      pop\n        /* \"Lab 15-08-2023/Task1.sol\":590:599  recipient */\n      dup1\n        /* \"Lab 15-08-2023/Task1.sol\":590:608  recipient.transfer */\n      0xffffffffffffffffffffffffffffffffffffffff\n      and\n        /* \"Lab 15-08-2023/Task1.sol\":590:616  recipient.transfer(amount) */\n      0x08fc\n        /* \"Lab 15-08-2023/Task1.sol\":609:615  amount */\n      dup4\n        /* \"Lab 15-08-2023/Task1.sol\":590:616  recipient.transfer(amount) */\n      swap1\n      dup2\n      iszero\n      mul\n      swap1\n      mload(0x40)\n      0x00\n      mload(0x40)\n      dup1\n      dup4\n      sub\n      dup2\n      dup6\n      dup9\n      dup9\n      call\n      swap4\n      pop\n      pop\n      pop\n      pop\n      iszero\n      dup1\n      iszero\n      tag_31\n      jumpi\n      returndatasize\n      0x00\n      dup1\n      returndatacopy\n      revert(0x00, returndatasize)\n    tag_31:\n      pop\n        /* \"Lab 15-08-2023/Task1.sol\":143:628  function Transfer(uint256 amount, address payable recipient) public {... */\n      pop\n      pop\n      jump\t// out\n        /* \"#utility.yul\":88:205   */\n    tag_33:\n        /* \"#utility.yul\":197:198   */\n      0x00\n        /* \"#utility.yul\":194:195   */\n      dup1\n        /* \"#utility.yul\":187:199   */\n      revert\n        /* \"#utility.yul\":334:460   */\n    tag_35:\n        /* \"#utility.yul\":371:378   */\n      0x00\n        /* \"#utility.yul\":411:453   */\n      0xffffffffffffffffffffffffffffffffffffffff\n        /* \"#utility.yul\":404:409   */\n      dup3\n        /* \"#utility.yul\":400:454   */\n      and\n        /* \"#utility.yul\":389:454   */\n      swap1\n      pop\n        /* \"#utility.yul\":334:460   */\n      swap2\n      swap1\n      pop\n      jump\t// out\n        /* \"#utility.yul\":466:562   */\n    tag_36:\n        /* \"#utility.yul\":503:510   */\n      0x00\n        /* \"#utility.yul\":532:556   */\n      tag_60\n        /* \"#utility.yul\":550:555   */\n      dup3\n        /* \"#utility.yul\":532:556   */\n      tag_35\n      jump\t// in\n    tag_60:\n        /* \"#utility.yul\":521:556   */\n      swap1\n      pop\n        /* \"#utility.yul\":466:562   */\n      swap2\n      swap1\n      pop\n      jump\t// out\n        /* \"#utility.yul\":568:690   */\n    tag_37:\n        /* \"#utility.yul\":641:665   */\n      tag_62\n        /* \"#utility.yul\":659:664   */\n      dup2\n        /* \"#utility.yul\":641:665   */\n      tag_36\n      jump\t// in\n    tag_62:\n        /* \"#utility.yul\":634:639   */\n      dup2\n        /* \"#utility.yul\":631:666   */\n      eq\n        /* \"#utility.yul\":621:684   */\n      tag_63\n      jumpi\n        /* \"#utility.yul\":680:681   */\n      0x00\n        /* \"#utility.yul\":677:678   */\n      dup1\n        /* \"#utility.yul\":670:682   */\n      revert\n        /* \"#utility.yul\":621:684   */\n    tag_63:\n        /* \"#utility.yul\":568:690   */\n      pop\n      jump\t// out\n        /* \"#utility.yul\":696:835   */\n    tag_38:\n        /* \"#utility.yul\":742:747   */\n      0x00\n        /* \"#utility.yul\":780:786   */\n      dup2\n        /* \"#utility.yul\":767:787   */\n      calldataload\n        /* \"#utility.yul\":758:787   */\n      swap1\n      pop\n        /* \"#utility.yul\":796:829   */\n      tag_65\n        /* \"#utility.yul\":823:828   */\n      dup2\n        /* \"#utility.yul\":796:829   */\n      tag_37\n      jump\t// in\n    tag_65:\n        /* \"#utility.yul\":696:835   */\n      swap3\n      swap2\n      pop\n      pop\n      jump\t// out\n        /* \"#utility.yul\":841:1170   */\n    tag_7:\n        /* \"#utility.yul\":900:906   */\n      0x00\n        /* \"#utility.yul\":949:951   */\n      0x20\n        /* \"#utility.yul\":937:946   */\n      dup3\n        /* \"#utility.yul\":928:935   */\n      dup5\n        /* \"#utility.yul\":924:947   */\n      sub\n        /* \"#utility.yul\":920:952   */\n      slt\n        /* \"#utility.yul\":917:1036   */\n      iszero\n      tag_67\n      jumpi\n        /* \"#utility.yul\":955:1034   */\n      tag_68\n      tag_33\n      jump\t// in\n    tag_68:\n        /* \"#utility.yul\":917:1036   */\n    tag_67:\n        /* \"#utility.yul\":1075:1076   */\n      0x00\n        /* \"#utility.yul\":1100:1153   */\n      tag_69\n        /* \"#utility.yul\":1145:1152   */\n      dup5\n        /* \"#utility.yul\":1136:1142   */\n      dup3\n        /* \"#utility.yul\":1125:1134   */\n      dup6\n        /* \"#utility.yul\":1121:1143   */\n      add\n        /* \"#utility.yul\":1100:1153   */\n      tag_38\n      jump\t// in\n    tag_69:\n        /* \"#utility.yul\":1090:1153   */\n      swap2\n      pop\n        /* \"#utility.yul\":1046:1163   */\n      pop\n        /* \"#utility.yul\":841:1170   */\n      swap3\n      swap2\n      pop\n      pop\n      jump\t// out\n        /* \"#utility.yul\":1176:1253   */\n    tag_39:\n        /* \"#utility.yul\":1213:1220   */\n      0x00\n        /* \"#utility.yul\":1242:1247   */\n      dup2\n        /* \"#utility.yul\":1231:1247   */\n      swap1\n      pop\n        /* \"#utility.yul\":1176:1253   */\n      swap2\n      swap1\n      pop\n      jump\t// out\n        /* \"#utility.yul\":1259:1377   */\n    tag_40:\n        /* \"#utility.yul\":1346:1370   */\n      tag_72\n        /* \"#utility.yul\":1364:1369   */\n      dup2\n        /* \"#utility.yul\":1346:1370   */\n      tag_39\n      jump\t// in\n    tag_72:\n        /* \"#utility.yul\":1341:1344   */\n      dup3\n        /* \"#utility.yul\":1334:1371   */\n      mstore\n        /* \"#utility.yul\":1259:1377   */\n      pop\n      pop\n      jump\t// out\n        /* \"#utility.yul\":1383:1605   */\n    tag_10:\n        /* \"#utility.yul\":1476:1480   */\n      0x00\n        /* \"#utility.yul\":1514:1516   */\n      0x20\n        /* \"#utility.yul\":1503:1512   */\n      dup3\n        /* \"#utility.yul\":1499:1517   */\n      add\n        /* \"#utility.yul\":1491:1517   */\n      swap1\n      pop\n        /* \"#utility.yul\":1527:1598   */\n      tag_74\n        /* \"#utility.yul\":1595:1596   */\n      0x00\n        /* \"#utility.yul\":1584:1593   */\n      dup4\n        /* \"#utility.yul\":1580:1597   */\n      add\n        /* \"#utility.yul\":1571:1577   */\n      dup5\n        /* \"#utility.yul\":1527:1598   */\n      tag_40\n      jump\t// in\n    tag_74:\n        /* \"#utility.yul\":1383:1605   */\n      swap3\n      swap2\n      pop\n      pop\n      jump\t// out\n        /* \"#utility.yul\":1611:1733   */\n    tag_41:\n        /* \"#utility.yul\":1684:1708   */\n      tag_76\n        /* \"#utility.yul\":1702:1707   */\n      dup2\n        /* \"#utility.yul\":1684:1708   */\n      tag_39\n      jump\t// in\n    tag_76:\n        /* \"#utility.yul\":1677:1682   */\n      dup2\n        /* \"#utility.yul\":1674:1709   */\n      eq\n        /* \"#utility.yul\":1664:1727   */\n      tag_77\n      jumpi\n        /* \"#utility.yul\":1723:1724   */\n      0x00\n        /* \"#utility.yul\":1720:1721   */\n      dup1\n        /* \"#utility.yul\":1713:1725   */\n      revert\n        /* \"#utility.yul\":1664:1727   */\n    tag_77:\n        /* \"#utility.yul\":1611:1733   */\n      pop\n      jump\t// out\n        /* \"#utility.yul\":1739:1878   */\n    tag_42:\n        /* \"#utility.yul\":1785:1790   */\n      0x00\n        /* \"#utility.yul\":1823:1829   */\n      dup2\n        /* \"#utility.yul\":1810:1830   */\n      calldataload\n        /* \"#utility.yul\":1801:1830   */\n      swap1\n      pop\n        /* \"#utility.yul\":1839:1872   */\n      tag_79\n        /* \"#utility.yul\":1866:1871   */\n      dup2\n        /* \"#utility.yul\":1839:1872   */\n      tag_41\n      jump\t// in\n    tag_79:\n        /* \"#utility.yul\":1739:1878   */\n      swap3\n      swap2\n      pop\n      pop\n      jump\t// out\n        /* \"#utility.yul\":1884:1988   */\n    tag_43:\n        /* \"#utility.yul\":1929:1936   */\n      0x00\n        /* \"#utility.yul\":1958:1982   */\n      tag_81\n        /* \"#utility.yul\":1976:1981   */\n      dup3\n        /* \"#utility.yul\":1958:1982   */\n      tag_35\n      jump\t// in\n    tag_81:\n        /* \"#utility.yul\":1947:1982   */\n      swap1\n      pop\n        /* \"#utility.yul\":1884:1988   */\n      swap2\n      swap1\n      pop\n      jump\t// out\n        /* \"#utility.yul\":1994:2132   */\n    tag_44:\n        /* \"#utility.yul\":2075:2107   */\n      tag_83\n        /* \"#utility.yul\":2101:2106   */\n      dup2\n        /* \"#utility.yul\":2075:2107   */\n      tag_43\n      jump\t// in\n    tag_83:\n        /* \"#utility.yul\":2068:2073   */\n      dup2\n        /* \"#utility.yul\":2065:2108   */\n      eq\n        /* \"#utility.yul\":2055:2126   */\n      tag_84\n      jumpi\n        /* \"#utility.yul\":2122:2123   */\n      0x00\n        /* \"#utility.yul\":2119:2120   */\n      dup1\n        /* \"#utility.yul\":2112:2124   */\n      revert\n        /* \"#utility.yul\":2055:2126   */\n    tag_84:\n        /* \"#utility.yul\":1994:2132   */\n      pop\n      jump\t// out\n        /* \"#utility.yul\":2138:2293   */\n    tag_45:\n        /* \"#utility.yul\":2192:2197   */\n      0x00\n        /* \"#utility.yul\":2230:2236   */\n      dup2\n        /* \"#utility.yul\":2217:2237   */\n      calldataload\n        /* \"#utility.yul\":2208:2237   */\n      swap1\n      pop\n        /* \"#utility.yul\":2246:2287   */\n      tag_86\n        /* \"#utility.yul\":2281:2286   */\n      dup2\n        /* \"#utility.yul\":2246:2287   */\n      tag_44\n      jump\t// in\n    tag_86:\n        /* \"#utility.yul\":2138:2293   */\n      swap3\n      swap2\n      pop\n      pop\n      jump\t// out\n        /* \"#utility.yul\":2299:2789   */\n    tag_13:\n        /* \"#utility.yul\":2375:2381   */\n      0x00\n        /* \"#utility.yul\":2383:2389   */\n      dup1\n        /* \"#utility.yul\":2432:2434   */\n      0x40\n        /* \"#utility.yul\":2420:2429   */\n      dup4\n        /* \"#utility.yul\":2411:2418   */\n      dup6\n        /* \"#utility.yul\":2407:2430   */\n      sub\n        /* \"#utility.yul\":2403:2435   */\n      slt\n        /* \"#utility.yul\":2400:2519   */\n      iszero\n      tag_88\n      jumpi\n        /* \"#utility.yul\":2438:2517   */\n      tag_89\n      tag_33\n      jump\t// in\n    tag_89:\n        /* \"#utility.yul\":2400:2519   */\n    tag_88:\n        /* \"#utility.yul\":2558:2559   */\n      0x00\n        /* \"#utility.yul\":2583:2636   */\n      tag_90\n        /* \"#utility.yul\":2628:2635   */\n      dup6\n        /* \"#utility.yul\":2619:2625   */\n      dup3\n        /* \"#utility.yul\":2608:2617   */\n      dup7\n        /* \"#utility.yul\":2604:2626   */\n      add\n        /* \"#utility.yul\":2583:2636   */\n      tag_42\n      jump\t// in\n    tag_90:\n        /* \"#utility.yul\":2573:2636   */\n      swap3\n      pop\n        /* \"#utility.yul\":2529:2646   */\n      pop\n        /* \"#utility.yul\":2685:2687   */\n      0x20\n        /* \"#utility.yul\":2711:2772   */\n      tag_91\n        /* \"#utility.yul\":2764:2771   */\n      dup6\n        /* \"#utility.yul\":2755:2761   */\n      dup3\n        /* \"#utility.yul\":2744:2753   */\n      dup7\n        /* \"#utility.yul\":2740:2762   */\n      add\n        /* \"#utility.yul\":2711:2772   */\n      tag_45\n      jump\t// in\n    tag_91:\n        /* \"#utility.yul\":2701:2772   */\n      swap2\n      pop\n        /* \"#utility.yul\":2656:2782   */\n      pop\n        /* \"#utility.yul\":2299:2789   */\n      swap3\n      pop\n      swap3\n      swap1\n      pop\n      jump\t// out\n        /* \"#utility.yul\":2795:2964   */\n    tag_46:\n        /* \"#utility.yul\":2879:2890   */\n      0x00\n        /* \"#utility.yul\":2913:2919   */\n      dup3\n        /* \"#utility.yul\":2908:2911   */\n      dup3\n        /* \"#utility.yul\":2901:2920   */\n      mstore\n        /* \"#utility.yul\":2953:2957   */\n      0x20\n        /* \"#utility.yul\":2948:2951   */\n      dup3\n        /* \"#utility.yul\":2944:2958   */\n      add\n        /* \"#utility.yul\":2929:2958   */\n      swap1\n      pop\n        /* \"#utility.yul\":2795:2964   */\n      swap3\n      swap2\n      pop\n      pop\n      jump\t// out\n        /* \"#utility.yul\":2970:3152   */\n    tag_47:\n        /* \"#utility.yul\":3110:3144   */\n      0x416d6f756e74206d757374206265206265747765656e203020616e6420313030\n        /* \"#utility.yul\":3106:3107   */\n      0x00\n        /* \"#utility.yul\":3098:3104   */\n      dup3\n        /* \"#utility.yul\":3094:3108   */\n      add\n        /* \"#utility.yul\":3087:3145   */\n      mstore\n        /* \"#utility.yul\":2970:3152   */\n      pop\n      jump\t// out\n        /* \"#utility.yul\":3158:3524   */\n    tag_48:\n        /* \"#utility.yul\":3300:3303   */\n      0x00\n        /* \"#utility.yul\":3321:3388   */\n      tag_95\n        /* \"#utility.yul\":3385:3387   */\n      0x20\n        /* \"#utility.yul\":3380:3383   */\n      dup4\n        /* \"#utility.yul\":3321:3388   */\n      tag_46\n      jump\t// in\n    tag_95:\n        /* \"#utility.yul\":3314:3388   */\n      swap2\n      pop\n        /* \"#utility.yul\":3397:3490   */\n      tag_96\n        /* \"#utility.yul\":3486:3489   */\n      dup3\n        /* \"#utility.yul\":3397:3490   */\n      tag_47\n      jump\t// in\n    tag_96:\n        /* \"#utility.yul\":3515:3517   */\n      0x20\n        /* \"#utility.yul\":3510:3513   */\n      dup3\n        /* \"#utility.yul\":3506:3518   */\n      add\n        /* \"#utility.yul\":3499:3518   */\n      swap1\n      pop\n        /* \"#utility.yul\":3158:3524   */\n      swap2\n      swap1\n      pop\n      jump\t// out\n        /* \"#utility.yul\":3530:3949   */\n    tag_19:\n        /* \"#utility.yul\":3696:3700   */\n      0x00\n        /* \"#utility.yul\":3734:3736   */\n      0x20\n        /* \"#utility.yul\":3723:3732   */\n      dup3\n        /* \"#utility.yul\":3719:3737   */\n      add\n        /* \"#utility.yul\":3711:3737   */\n      swap1\n      pop\n        /* \"#utility.yul\":3783:3792   */\n      dup2\n        /* \"#utility.yul\":3777:3781   */\n      dup2\n        /* \"#utility.yul\":3773:3793   */\n      sub\n        /* \"#utility.yul\":3769:3770   */\n      0x00\n        /* \"#utility.yul\":3758:3767   */\n      dup4\n        /* \"#utility.yul\":3754:3771   */\n      add\n        /* \"#utility.yul\":3747:3794   */\n      mstore\n        /* \"#utility.yul\":3811:3942   */\n      tag_98\n        /* \"#utility.yul\":3937:3941   */\n      dup2\n        /* \"#utility.yul\":3811:3942   */\n      tag_48\n      jump\t// in\n    tag_98:\n        /* \"#utility.yul\":3803:3942   */\n      swap1\n      pop\n        /* \"#utility.yul\":3530:3949   */\n      swap2\n      swap1\n      pop\n      jump\t// out\n        /* \"#utility.yul\":3955:4137   */\n    tag_49:\n        /* \"#utility.yul\":4095:4129   */\n      0x526563697069656e7420616464726573732063616e6e6f74206265207a65726f\n        /* \"#utility.yul\":4091:4092   */\n      0x00\n        /* \"#utility.yul\":4083:4089   */\n      dup3\n        /* \"#utility.yul\":4079:4093   */\n      add\n        /* \"#utility.yul\":4072:4130   */\n      mstore\n        /* \"#utility.yul\":3955:4137   */\n      pop\n      jump\t// out\n        /* \"#utility.yul\":4143:4509   */\n    tag_50:\n        /* \"#utility.yul\":4285:4288   */\n      0x00\n        /* \"#utility.yul\":4306:4373   */\n      tag_101\n        /* \"#utility.yul\":4370:4372   */\n      0x20\n        /* \"#utility.yul\":4365:4368   */\n      dup4\n        /* \"#utility.yul\":4306:4373   */\n      tag_46\n      jump\t// in\n    tag_101:\n        /* \"#utility.yul\":4299:4373   */\n      swap2\n      pop\n        /* \"#utility.yul\":4382:4475   */\n      tag_102\n        /* \"#utility.yul\":4471:4474   */\n      dup3\n        /* \"#utility.yul\":4382:4475   */\n      tag_49\n      jump\t// in\n    tag_102:\n        /* \"#utility.yul\":4500:4502   */\n      0x20\n        /* \"#utility.yul\":4495:4498   */\n      dup3\n        /* \"#utility.yul\":4491:4503   */\n      add\n        /* \"#utility.yul\":4484:4503   */\n      swap1\n      pop\n        /* \"#utility.yul\":4143:4509   */\n      swap2\n      swap1\n      pop\n      jump\t// out\n        /* \"#utility.yul\":4515:4934   */\n    tag_22:\n        /* \"#utility.yul\":4681:4685   */\n      0x00\n        /* \"#utility.yul\":4719:4721   */\n      0x20\n        /* \"#utility.yul\":4708:4717   */\n      dup3\n        /* \"#utility.yul\":4704:4722   */\n      add\n        /* \"#utility.yul\":4696:4722   */\n      swap1\n      pop\n        /* \"#utility.yul\":4768:4777   */\n      dup2\n        /* \"#utility.yul\":4762:4766   */\n      dup2\n        /* \"#utility.yul\":4758:4778   */\n      sub\n        /* \"#utility.yul\":4754:4755   */\n      0x00\n        /* \"#utility.yul\":4743:4752   */\n      dup4\n        /* \"#utility.yul\":4739:4756   */\n      add\n        /* \"#utility.yul\":4732:4779   */\n      mstore\n        /* \"#utility.yul\":4796:4927   */\n      tag_104\n        /* \"#utility.yul\":4922:4926   */\n      dup2\n        /* \"#utility.yul\":4796:4927   */\n      tag_50\n      jump\t// in\n    tag_104:\n        /* \"#utility.yul\":4788:4927   */\n      swap1\n      pop\n        /* \"#utility.yul\":4515:4934   */\n      swap2\n      swap1\n      pop\n      jump\t// out\n        /* \"#utility.yul\":4940:5110   */\n    tag_51:\n        /* \"#utility.yul\":5080:5102   */\n      0x496e73756666696369656e742062616c616e6365000000000000000000000000\n        /* \"#utility.yul\":5076:5077   */\n      0x00\n        /* \"#utility.yul\":5068:5074   */\n      dup3\n        /* \"#utility.yul\":5064:5078   */\n      add\n        /* \"#utility.yul\":5057:5103   */\n      mstore\n        /* \"#utility.yul\":4940:5110   */\n      pop\n      jump\t// out\n        /* \"#utility.yul\":5116:5482   */\n    tag_52:\n        /* \"#utility.yul\":5258:5261   */\n      0x00\n        /* \"#utility.yul\":5279:5346   */\n      tag_107\n        /* \"#utility.yul\":5343:5345   */\n      0x14\n        /* \"#utility.yul\":5338:5341   */\n      dup4\n        /* \"#utility.yul\":5279:5346   */\n      tag_46\n      jump\t// in\n    tag_107:\n        /* \"#utility.yul\":5272:5346   */\n      swap2\n      pop\n        /* \"#utility.yul\":5355:5448   */\n      tag_108\n        /* \"#utility.yul\":5444:5447   */\n      dup3\n        /* \"#utility.yul\":5355:5448   */\n      tag_51\n      jump\t// in\n    tag_108:\n        /* \"#utility.yul\":5473:5475   */\n      0x20\n        /* \"#utility.yul\":5468:5471   */\n      dup3\n        /* \"#utility.yul\":5464:5476   */\n      add\n        /* \"#utility.yul\":5457:5476   */\n      swap1\n      pop\n        /* \"#utility.yul\":5116:5482   */\n      swap2\n      swap1\n      pop\n      jump\t// out\n        /* \"#utility.yul\":5488:5907   */\n    tag_25:\n        /* \"#utility.yul\":5654:5658   */\n      0x00\n        /* \"#utility.yul\":5692:5694   */\n      0x20\n        /* \"#utility.yul\":5681:5690   */\n      dup3\n        /* \"#utility.yul\":5677:5695   */\n      add\n        /* \"#utility.yul\":5669:5695   */\n      swap1\n      pop\n        /* \"#utility.yul\":5741:5750   */\n      dup2\n        /* \"#utility.yul\":5735:5739   */\n      dup2\n        /* \"#utility.yul\":5731:5751   */\n      sub\n        /* \"#utility.yul\":5727:5728   */\n      0x00\n        /* \"#utility.yul\":5716:5725   */\n      dup4\n        /* \"#utility.yul\":5712:5729   */\n      add\n        /* \"#utility.yul\":5705:5752   */\n      mstore\n        /* \"#utility.yul\":5769:5900   */\n      tag_110\n        /* \"#utility.yul\":5895:5899   */\n      dup2\n        /* \"#utility.yul\":5769:5900   */\n      tag_52\n      jump\t// in\n    tag_110:\n        /* \"#utility.yul\":5761:5900   */\n      swap1\n      pop\n        /* \"#utility.yul\":5488:5907   */\n      swap2\n      swap1\n      pop\n      jump\t// out\n        /* \"#utility.yul\":5913:6093   */\n    tag_53:\n        /* \"#utility.yul\":5961:6038   */\n      0x4e487b7100000000000000000000000000000000000000000000000000000000\n        /* \"#utility.yul\":5958:5959   */\n      0x00\n        /* \"#utility.yul\":5951:6039   */\n      mstore\n        /* \"#utility.yul\":6058:6062   */\n      0x11\n        /* \"#utility.yul\":6055:6056   */\n      0x04\n        /* \"#utility.yul\":6048:6063   */\n      mstore\n        /* \"#utility.yul\":6082:6086   */\n      0x24\n        /* \"#utility.yul\":6079:6080   */\n      0x00\n        /* \"#utility.yul\":6072:6087   */\n      revert\n        /* \"#utility.yul\":6099:6293   */\n    tag_27:\n        /* \"#utility.yul\":6139:6143   */\n      0x00\n        /* \"#utility.yul\":6159:6179   */\n      tag_113\n        /* \"#utility.yul\":6177:6178   */\n      dup3\n        /* \"#utility.yul\":6159:6179   */\n      tag_39\n      jump\t// in\n    tag_113:\n        /* \"#utility.yul\":6154:6179   */\n      swap2\n      pop\n        /* \"#utility.yul\":6193:6213   */\n      tag_114\n        /* \"#utility.yul\":6211:6212   */\n      dup4\n        /* \"#utility.yul\":6193:6213   */\n      tag_39\n      jump\t// in\n    tag_114:\n        /* \"#utility.yul\":6188:6213   */\n      swap3\n      pop\n        /* \"#utility.yul\":6237:6238   */\n      dup3\n        /* \"#utility.yul\":6234:6235   */\n      dup3\n        /* \"#utility.yul\":6230:6239   */\n      sub\n        /* \"#utility.yul\":6222:6239   */\n      swap1\n      pop\n        /* \"#utility.yul\":6261:6262   */\n      dup2\n        /* \"#utility.yul\":6255:6259   */\n      dup2\n        /* \"#utility.yul\":6252:6263   */\n      gt\n        /* \"#utility.yul\":6249:6286   */\n      iszero\n      tag_115\n      jumpi\n        /* \"#utility.yul\":6266:6284   */\n      tag_116\n      tag_53\n      jump\t// in\n    tag_116:\n        /* \"#utility.yul\":6249:6286   */\n    tag_115:\n        /* \"#utility.yul\":6099:6293   */\n      swap3\n      swap2\n      pop\n      pop\n      jump\t// out\n        /* \"#utility.yul\":6299:6490   */\n    tag_29:\n        /* \"#utility.yul\":6339:6342   */\n      0x00\n        /* \"#utility.yul\":6358:6378   */\n      tag_118\n        /* \"#utility.yul\":6376:6377   */\n      dup3\n        /* \"#utility.yul\":6358:6378   */\n      tag_39\n      jump\t// in\n    tag_118:\n        /* \"#utility.yul\":6353:6378   */\n      swap2\n      pop\n        /* \"#utility.yul\":6392:6412   */\n      tag_119\n        /* \"#utility.yul\":6410:6411   */\n      dup4\n        /* \"#utility.yul\":6392:6412   */\n      tag_39\n      jump\t// in\n    tag_119:\n        /* \"#utility.yul\":6387:6412   */\n      swap3\n      pop\n        /* \"#utility.yul\":6435:6436   */\n      dup3\n        /* \"#utility.yul\":6432:6433   */\n      dup3\n        /* \"#utility.yul\":6428:6437   */\n      add\n        /* \"#utility.yul\":6421:6437   */\n      swap1\n      pop\n        /* \"#utility.yul\":6456:6459   */\n      dup1\n        /* \"#utility.yul\":6453:6454   */\n      dup3\n        /* \"#utility.yul\":6450:6460   */\n      gt\n        /* \"#utility.yul\":6447:6483   */\n      iszero\n      tag_120\n      jumpi\n        /* \"#utility.yul\":6463:6481   */\n      tag_121\n      tag_53\n      jump\t// in\n    tag_121:\n        /* \"#utility.yul\":6447:6483   */\n    tag_120:\n        /* \"#utility.yul\":6299:6490   */\n      swap3\n      swap2\n      pop\n      pop\n      jump\t// out\n\n    auxdata: 0xa264697066735822122093c378ac0987fbf73d47afb644c1a9be3494901b86d4106daa91caeb0980e83964736f6c63430008120033\n}\n",
				"bytecode": {
					"linkReferences": {},
					"object": "608060405234801561001057600080fd5b50610663806100206000396000f3fe608060405234801561001057600080fd5b50600436106100365760003560e01c806327e235e31461003b578063abe1dcf91461006b575b600080fd5b61005560048036038101906100509190610336565b610087565b604051610062919061037c565b60405180910390f35b61008560048036038101906100809190610401565b61009f565b005b60006020528060005260406000206000915090505481565b6000821180156100af5750606482105b6100ee576040517f08c379a00000000000000000000000000000000000000000000000000000000081526004016100e59061049e565b60405180910390fd5b600073ffffffffffffffffffffffffffffffffffffffff168173ffffffffffffffffffffffffffffffffffffffff160361015d576040517f08c379a00000000000000000000000000000000000000000000000000000000081526004016101549061050a565b60405180910390fd5b816000803373ffffffffffffffffffffffffffffffffffffffff1673ffffffffffffffffffffffffffffffffffffffff1681526020019081526020016000205410156101de576040517f08c379a00000000000000000000000000000000000000000000000000000000081526004016101d590610576565b60405180910390fd5b816000803373ffffffffffffffffffffffffffffffffffffffff1673ffffffffffffffffffffffffffffffffffffffff168152602001908152602001600020600082825461022c91906105c5565b92505081905550816000808373ffffffffffffffffffffffffffffffffffffffff1673ffffffffffffffffffffffffffffffffffffffff168152602001908152602001600020600082825461028191906105f9565b925050819055508073ffffffffffffffffffffffffffffffffffffffff166108fc839081150290604051600060405180830381858888f193505050501580156102ce573d6000803e3d6000fd5b505050565b600080fd5b600073ffffffffffffffffffffffffffffffffffffffff82169050919050565b6000610303826102d8565b9050919050565b610313816102f8565b811461031e57600080fd5b50565b6000813590506103308161030a565b92915050565b60006020828403121561034c5761034b6102d3565b5b600061035a84828501610321565b91505092915050565b6000819050919050565b61037681610363565b82525050565b6000602082019050610391600083018461036d565b92915050565b6103a081610363565b81146103ab57600080fd5b50565b6000813590506103bd81610397565b92915050565b60006103ce826102d8565b9050919050565b6103de816103c3565b81146103e957600080fd5b50565b6000813590506103fb816103d5565b92915050565b60008060408385031215610418576104176102d3565b5b6000610426858286016103ae565b9250506020610437858286016103ec565b9150509250929050565b600082825260208201905092915050565b7f416d6f756e74206d757374206265206265747765656e203020616e6420313030600082015250565b6000610488602083610441565b915061049382610452565b602082019050919050565b600060208201905081810360008301526104b78161047b565b9050919050565b7f526563697069656e7420616464726573732063616e6e6f74206265207a65726f600082015250565b60006104f4602083610441565b91506104ff826104be565b602082019050919050565b60006020820190508181036000830152610523816104e7565b9050919050565b7f496e73756666696369656e742062616c616e6365000000000000000000000000600082015250565b6000610560601483610441565b915061056b8261052a565b602082019050919050565b6000602082019050818103600083015261058f81610553565b9050919050565b7f4e487b7100000000000000000000000000000000000000000000000000000000600052601160045260246000fd5b60006105d082610363565b91506105db83610363565b92508282039050818111156105f3576105f2610596565b5b92915050565b600061060482610363565b915061060f83610363565b925082820190508082111561062757610626610596565b5b9291505056fea264697066735822122093c378ac0987fbf73d47afb644c1a9be3494901b86d4106daa91caeb0980e83964736f6c63430008120033",
					"opcodes": "PUSH1 0x80 PUSH1 0x40 MSTORE CALLVALUE DUP1 ISZERO PUSH2 0x10 JUMPI PUSH1 0x0 DUP1 REVERT JUMPDEST POP PUSH2 0x663 DUP1 PUSH2 0x20 PUSH1 0x0 CODECOPY PUSH1 0x0 RETURN INVALID PUSH1 0x80 PUSH1 0x40 MSTORE CALLVALUE DUP1 ISZERO PUSH2 0x10 JUMPI PUSH1 0x0 DUP1 REVERT JUMPDEST POP PUSH1 0x4 CALLDATASIZE LT PUSH2 0x36 JUMPI PUSH1 0x0 CALLDATALOAD PUSH1 0xE0 SHR DUP1 PUSH4 0x27E235E3 EQ PUSH2 0x3B JUMPI DUP1 PUSH4 0xABE1DCF9 EQ PUSH2 0x6B JUMPI JUMPDEST PUSH1 0x0 DUP1 REVERT JUMPDEST PUSH2 0x55 PUSH1 0x4 DUP1 CALLDATASIZE SUB DUP2 ADD SWAP1 PUSH2 0x50 SWAP2 SWAP1 PUSH2 0x336 JUMP JUMPDEST PUSH2 0x87 JUMP JUMPDEST PUSH1 0x40 MLOAD PUSH2 0x62 SWAP2 SWAP1 PUSH2 0x37C JUMP JUMPDEST PUSH1 0x40 MLOAD DUP1 SWAP2 SUB SWAP1 RETURN JUMPDEST PUSH2 0x85 PUSH1 0x4 DUP1 CALLDATASIZE SUB DUP2 ADD SWAP1 PUSH2 0x80 SWAP2 SWAP1 PUSH2 0x401 JUMP JUMPDEST PUSH2 0x9F JUMP JUMPDEST STOP JUMPDEST PUSH1 0x0 PUSH1 0x20 MSTORE DUP1 PUSH1 0x0 MSTORE PUSH1 0x40 PUSH1 0x0 KECCAK256 PUSH1 0x0 SWAP2 POP SWAP1 POP SLOAD DUP2 JUMP JUMPDEST PUSH1 0x0 DUP3 GT DUP1 ISZERO PUSH2 0xAF JUMPI POP PUSH1 0x64 DUP3 LT JUMPDEST PUSH2 0xEE JUMPI PUSH1 0x40 MLOAD PUSH32 0x8C379A000000000000000000000000000000000000000000000000000000000 DUP2 MSTORE PUSH1 0x4 ADD PUSH2 0xE5 SWAP1 PUSH2 0x49E JUMP JUMPDEST PUSH1 0x40 MLOAD DUP1 SWAP2 SUB SWAP1 REVERT JUMPDEST PUSH1 0x0 PUSH20 0xFFFFFFFFFFFFFFFFFFFFFFFFFFFFFFFFFFFFFFFF AND DUP2 PUSH20 0xFFFFFFFFFFFFFFFFFFFFFFFFFFFFFFFFFFFFFFFF AND SUB PUSH2 0x15D JUMPI PUSH1 0x40 MLOAD PUSH32 0x8C379A000000000000000000000000000000000000000000000000000000000 DUP2 MSTORE PUSH1 0x4 ADD PUSH2 0x154 SWAP1 PUSH2 0x50A JUMP JUMPDEST PUSH1 0x40 MLOAD DUP1 SWAP2 SUB SWAP1 REVERT JUMPDEST DUP2 PUSH1 0x0 DUP1 CALLER PUSH20 0xFFFFFFFFFFFFFFFFFFFFFFFFFFFFFFFFFFFFFFFF AND PUSH20 0xFFFFFFFFFFFFFFFFFFFFFFFFFFFFFFFFFFFFFFFF AND DUP2 MSTORE PUSH1 0x20 ADD SWAP1 DUP2 MSTORE PUSH1 0x20 ADD PUSH1 0x0 KECCAK256 SLOAD LT ISZERO PUSH2 0x1DE JUMPI PUSH1 0x40 MLOAD PUSH32 0x8C379A000000000000000000000000000000000000000000000000000000000 DUP2 MSTORE PUSH1 0x4 ADD PUSH2 0x1D5 SWAP1 PUSH2 0x576 JUMP JUMPDEST PUSH1 0x40 MLOAD DUP1 SWAP2 SUB SWAP1 REVERT JUMPDEST DUP2 PUSH1 0x0 DUP1 CALLER PUSH20 0xFFFFFFFFFFFFFFFFFFFFFFFFFFFFFFFFFFFFFFFF AND PUSH20 0xFFFFFFFFFFFFFFFFFFFFFFFFFFFFFFFFFFFFFFFF AND DUP2 MSTORE PUSH1 0x20 ADD SWAP1 DUP2 MSTORE PUSH1 0x20 ADD PUSH1 0x0 KECCAK256 PUSH1 0x0 DUP3 DUP3 SLOAD PUSH2 0x22C SWAP2 SWAP1 PUSH2 0x5C5 JUMP JUMPDEST SWAP3 POP POP DUP2 SWAP1 SSTORE POP DUP2 PUSH1 0x0 DUP1 DUP4 PUSH20 0xFFFFFFFFFFFFFFFFFFFFFFFFFFFFFFFFFFFFFFFF AND PUSH20 0xFFFFFFFFFFFFFFFFFFFFFFFFFFFFFFFFFFFFFFFF AND DUP2 MSTORE PUSH1 0x20 ADD SWAP1 DUP2 MSTORE PUSH1 0x20 ADD PUSH1 0x0 KECCAK256 PUSH1 0x0 DUP3 DUP3 SLOAD PUSH2 0x281 SWAP2 SWAP1 PUSH2 0x5F9 JUMP JUMPDEST SWAP3 POP POP DUP2 SWAP1 SSTORE POP DUP1 PUSH20 0xFFFFFFFFFFFFFFFFFFFFFFFFFFFFFFFFFFFFFFFF AND PUSH2 0x8FC DUP4 SWAP1 DUP2 ISZERO MUL SWAP1 PUSH1 0x40 MLOAD PUSH1 0x0 PUSH1 0x40 MLOAD DUP1 DUP4 SUB DUP2 DUP6 DUP9 DUP9 CALL SWAP4 POP POP POP POP ISZERO DUP1 ISZERO PUSH2 0x2CE JUMPI RETURNDATASIZE PUSH1 0x0 DUP1 RETURNDATACOPY RETURNDATASIZE PUSH1 0x0 REVERT JUMPDEST POP POP POP JUMP JUMPDEST PUSH1 0x0 DUP1 REVERT JUMPDEST PUSH1 0x0 PUSH20 0xFFFFFFFFFFFFFFFFFFFFFFFFFFFFFFFFFFFFFFFF DUP3 AND SWAP1 POP SWAP2 SWAP1 POP JUMP JUMPDEST PUSH1 0x0 PUSH2 0x303 DUP3 PUSH2 0x2D8 JUMP JUMPDEST SWAP1 POP SWAP2 SWAP1 POP JUMP JUMPDEST PUSH2 0x313 DUP2 PUSH2 0x2F8 JUMP JUMPDEST DUP2 EQ PUSH2 0x31E JUMPI PUSH1 0x0 DUP1 REVERT JUMPDEST POP JUMP JUMPDEST PUSH1 0x0 DUP2 CALLDATALOAD SWAP1 POP PUSH2 0x330 DUP2 PUSH2 0x30A JUMP JUMPDEST SWAP3 SWAP2 POP POP JUMP JUMPDEST PUSH1 0x0 PUSH1 0x20 DUP3 DUP5 SUB SLT ISZERO PUSH2 0x34C JUMPI PUSH2 0x34B PUSH2 0x2D3 JUMP JUMPDEST JUMPDEST PUSH1 0x0 PUSH2 0x35A DUP5 DUP3 DUP6 ADD PUSH2 0x321 JUMP JUMPDEST SWAP2 POP POP SWAP3 SWAP2 POP POP JUMP JUMPDEST PUSH1 0x0 DUP2 SWAP1 POP SWAP2 SWAP1 POP JUMP JUMPDEST PUSH2 0x376 DUP2 PUSH2 0x363 JUMP JUMPDEST DUP3 MSTORE POP POP JUMP JUMPDEST PUSH1 0x0 PUSH1 0x20 DUP3 ADD SWAP1 POP PUSH2 0x391 PUSH1 0x0 DUP4 ADD DUP5 PUSH2 0x36D JUMP JUMPDEST SWAP3 SWAP2 POP POP JUMP JUMPDEST PUSH2 0x3A0 DUP2 PUSH2 0x363 JUMP JUMPDEST DUP2 EQ PUSH2 0x3AB JUMPI PUSH1 0x0 DUP1 REVERT JUMPDEST POP JUMP JUMPDEST PUSH1 0x0 DUP2 CALLDATALOAD SWAP1 POP PUSH2 0x3BD DUP2 PUSH2 0x397 JUMP JUMPDEST SWAP3 SWAP2 POP POP JUMP JUMPDEST PUSH1 0x0 PUSH2 0x3CE DUP3 PUSH2 0x2D8 JUMP JUMPDEST SWAP1 POP SWAP2 SWAP1 POP JUMP JUMPDEST PUSH2 0x3DE DUP2 PUSH2 0x3C3 JUMP JUMPDEST DUP2 EQ PUSH2 0x3E9 JUMPI PUSH1 0x0 DUP1 REVERT JUMPDEST POP JUMP JUMPDEST PUSH1 0x0 DUP2 CALLDATALOAD SWAP1 POP PUSH2 0x3FB DUP2 PUSH2 0x3D5 JUMP JUMPDEST SWAP3 SWAP2 POP POP JUMP JUMPDEST PUSH1 0x0 DUP1 PUSH1 0x40 DUP4 DUP6 SUB SLT ISZERO PUSH2 0x418 JUMPI PUSH2 0x417 PUSH2 0x2D3 JUMP JUMPDEST JUMPDEST PUSH1 0x0 PUSH2 0x426 DUP6 DUP3 DUP7 ADD PUSH2 0x3AE JUMP JUMPDEST SWAP3 POP POP PUSH1 0x20 PUSH2 0x437 DUP6 DUP3 DUP7 ADD PUSH2 0x3EC JUMP JUMPDEST SWAP2 POP POP SWAP3 POP SWAP3 SWAP1 POP JUMP JUMPDEST PUSH1 0x0 DUP3 DUP3 MSTORE PUSH1 0x20 DUP3 ADD SWAP1 POP SWAP3 SWAP2 POP POP JUMP JUMPDEST PUSH32 0x416D6F756E74206D757374206265206265747765656E203020616E6420313030 PUSH1 0x0 DUP3 ADD MSTORE POP JUMP JUMPDEST PUSH1 0x0 PUSH2 0x488 PUSH1 0x20 DUP4 PUSH2 0x441 JUMP JUMPDEST SWAP2 POP PUSH2 0x493 DUP3 PUSH2 0x452 JUMP JUMPDEST PUSH1 0x20 DUP3 ADD SWAP1 POP SWAP2 SWAP1 POP JUMP JUMPDEST PUSH1 0x0 PUSH1 0x20 DUP3 ADD SWAP1 POP DUP2 DUP2 SUB PUSH1 0x0 DUP4 ADD MSTORE PUSH2 0x4B7 DUP2 PUSH2 0x47B JUMP JUMPDEST SWAP1 POP SWAP2 SWAP1 POP JUMP JUMPDEST PUSH32 0x526563697069656E7420616464726573732063616E6E6F74206265207A65726F PUSH1 0x0 DUP3 ADD MSTORE POP JUMP JUMPDEST PUSH1 0x0 PUSH2 0x4F4 PUSH1 0x20 DUP4 PUSH2 0x441 JUMP JUMPDEST SWAP2 POP PUSH2 0x4FF DUP3 PUSH2 0x4BE JUMP JUMPDEST PUSH1 0x20 DUP3 ADD SWAP1 POP SWAP2 SWAP1 POP JUMP JUMPDEST PUSH1 0x0 PUSH1 0x20 DUP3 ADD SWAP1 POP DUP2 DUP2 SUB PUSH1 0x0 DUP4 ADD MSTORE PUSH2 0x523 DUP2 PUSH2 0x4E7 JUMP JUMPDEST SWAP1 POP SWAP2 SWAP1 POP JUMP JUMPDEST PUSH32 0x496E73756666696369656E742062616C616E6365000000000000000000000000 PUSH1 0x0 DUP3 ADD MSTORE POP JUMP JUMPDEST PUSH1 0x0 PUSH2 0x560 PUSH1 0x14 DUP4 PUSH2 0x441 JUMP JUMPDEST SWAP2 POP PUSH2 0x56B DUP3 PUSH2 0x52A JUMP JUMPDEST PUSH1 0x20 DUP3 ADD SWAP1 POP SWAP2 SWAP1 POP JUMP JUMPDEST PUSH1 0x0 PUSH1 0x20 DUP3 ADD SWAP1 POP DUP2 DUP2 SUB PUSH1 0x0 DUP4 ADD MSTORE PUSH2 0x58F DUP2 PUSH2 0x553 JUMP JUMPDEST SWAP1 POP SWAP2 SWAP1 POP JUMP JUMPDEST PUSH32 0x4E487B7100000000000000000000000000000000000000000000000000000000 PUSH1 0x0 MSTORE PUSH1 0x11 PUSH1 0x4 MSTORE PUSH1 0x24 PUSH1 0x0 REVERT JUMPDEST PUSH1 0x0 PUSH2 0x5D0 DUP3 PUSH2 0x363 JUMP JUMPDEST SWAP2 POP PUSH2 0x5DB DUP4 PUSH2 0x363 JUMP JUMPDEST SWAP3 POP DUP3 DUP3 SUB SWAP1 POP DUP2 DUP2 GT ISZERO PUSH2 0x5F3 JUMPI PUSH2 0x5F2 PUSH2 0x596 JUMP JUMPDEST JUMPDEST SWAP3 SWAP2 POP POP JUMP JUMPDEST PUSH1 0x0 PUSH2 0x604 DUP3 PUSH2 0x363 JUMP JUMPDEST SWAP2 POP PUSH2 0x60F DUP4 PUSH2 0x363 JUMP JUMPDEST SWAP3 POP DUP3 DUP3 ADD SWAP1 POP DUP1 DUP3 GT ISZERO PUSH2 0x627 JUMPI PUSH2 0x626 PUSH2 0x596 JUMP JUMPDEST JUMPDEST SWAP3 SWAP2 POP POP JUMP INVALID LOG2 PUSH5 0x6970667358 0x22 SLT KECCAK256 SWAP4 0xC3 PUSH25 0xAC0987FBF73D47AFB644C1A9BE3494901B86D4106DAA91CAEB MULMOD DUP1 0xE8 CODECOPY PUSH5 0x736F6C6343 STOP ADDMOD SLT STOP CALLER "
				},
				"gasEstimates": {
					"creation": {
						"codeDepositCost": "327000",
						"executionCost": "368",
						"totalCost": "327368"
					},
					"external": {
						"Transfer(uint256,address)": "infinite",
						"balances(address)": "2792"
					}
				},
				"methodIdentifiers": {
					"Transfer(uint256,address)": "abe1dcf9",
					"balances(address)": "27e235e3"
				}
			},
			"storageLayout": {
				"storage": [
					{
						"astId": 5,
						"contract": "Lab 15-08-2023/Task1.sol:InputValidator",
						"label": "balances",
						"offset": 0,
						"slot": "0",
						"type": "t_mapping(t_address,t_uint256)"
					}
				],
				"types": {
					"t_address": {
						"encoding": "inplace",
						"label": "address",
						"numberOfBytes": "20"
					},
					"t_mapping(t_address,t_uint256)": {
						"encoding": "mapping",
						"key": "t_address",
						"label": "mapping(address => uint256)",
						"numberOfBytes": "32",
						"value": "t_uint256"
					},
					"t_uint256": {
						"encoding": "inplace",
						"label": "uint256",
						"numberOfBytes": "32"
					}
				}
			},
			"userdoc": {
				"kind": "user",
				"methods": {},
				"version": 1
			}
		}
	}
}