{
	"lab 21-08-2023/Libtask.sol": {
		"SDP": {
			"abi": [
				{
					"inputs": [
						{
							"internalType": "uint256",
							"name": "x",
							"type": "uint256"
						},
						{
							"internalType": "uint256",
							"name": "y",
							"type": "uint256"
						}
					],
					"name": "add",
					"outputs": [
						{
							"internalType": "uint256",
							"name": "",
							"type": "uint256"
						}
					],
					"stateMutability": "pure",
					"type": "function"
				},
				{
					"inputs": [
						{
							"internalType": "uint256",
							"name": "x",
							"type": "uint256"
						},
						{
							"internalType": "uint256",
							"name": "y",
							"type": "uint256"
						}
					],
					"name": "divide",
					"outputs": [
						{
							"internalType": "uint256",
							"name": "",
							"type": "uint256"
						}
					],
					"stateMutability": "pure",
					"type": "function"
				},
				{
					"inputs": [
						{
							"internalType": "uint256",
							"name": "x",
							"type": "uint256"
						},
						{
							"internalType": "uint256",
							"name": "y",
							"type": "uint256"
						}
					],
					"name": "pow",
					"outputs": [
						{
							"internalType": "uint256",
							"name": "",
							"type": "uint256"
						}
					],
					"stateMutability": "pure",
					"type": "function"
				},
				{
					"inputs": [
						{
							"internalType": "uint256",
							"name": "x",
							"type": "uint256"
						},
						{
							"internalType": "uint256",
							"name": "y",
							"type": "uint256"
						}
					],
					"name": "subtr",
					"outputs": [
						{
							"internalType": "uint256",
							"name": "",
							"type": "uint256"
						}
					],
					"stateMutability": "pure",
					"type": "function"
				}
			],
			"devdoc": {
				"kind": "dev",
				"methods": {},
				"version": 1
			},
			"evm": {
				"assembly": "    /* \"lab 21-08-2023/Libtask.sol\":62:457  library  SDP {... */\n  dataSize(sub_0)\n  dataOffset(sub_0)\n  0x0b\n  dup3\n  dup3\n  dup3\n  codecopy\n  dup1\n  mload\n  0x00\n  byte\n  0x73\n  eq\n  tag_1\n  jumpi\n  mstore(0x00, 0x4e487b7100000000000000000000000000000000000000000000000000000000)\n  mstore(0x04, 0x00)\n  revert(0x00, 0x24)\ntag_1:\n  mstore(0x00, address)\n  0x73\n  dup2\n  mstore8\n  dup3\n  dup2\n  return\nstop\n\nsub_0: assembly {\n        /* \"lab 21-08-2023/Libtask.sol\":62:457  library  SDP {... */\n      eq(address, deployTimeAddress())\n      mstore(0x40, 0x80)\n      jumpi(tag_1, lt(calldatasize, 0x04))\n      shr(0xe0, calldataload(0x00))\n      dup1\n      0x13c25ba6\n      eq\n      tag_2\n      jumpi\n      dup1\n      0x2e4c697f\n      eq\n      tag_3\n      jumpi\n      dup1\n      0x771602f7\n      eq\n      tag_4\n      jumpi\n      dup1\n      0xf88e9fbf\n      eq\n      tag_5\n      jumpi\n    tag_1:\n      0x00\n      dup1\n      revert\n        /* \"lab 21-08-2023/Libtask.sol\":174:260  function  subtr(uint x , uint y) public pure returns (uint ) {... */\n    tag_2:\n      tag_6\n      0x04\n      dup1\n      calldatasize\n      sub\n      dup2\n      add\n      swap1\n      tag_7\n      swap2\n      swap1\n      tag_8\n      jump\t// in\n    tag_7:\n      tag_9\n      jump\t// in\n    tag_6:\n      mload(0x40)\n      tag_10\n      swap2\n      swap1\n      tag_11\n      jump\t// in\n    tag_10:\n      mload(0x40)\n      dup1\n      swap2\n      sub\n      swap1\n      return\n        /* \"lab 21-08-2023/Libtask.sol\":363:448  function  pow(uint x , uint y) public pure returns (uint ) {... */\n    tag_3:\n      tag_12\n      0x04\n      dup1\n      calldatasize\n      sub\n      dup2\n      add\n      swap1\n      tag_13\n      swap2\n      swap1\n      tag_8\n      jump\t// in\n    tag_13:\n      tag_14\n      jump\t// in\n    tag_12:\n      mload(0x40)\n      tag_15\n      swap2\n      swap1\n      tag_11\n      jump\t// in\n    tag_15:\n      mload(0x40)\n      dup1\n      swap2\n      sub\n      swap1\n      return\n        /* \"lab 21-08-2023/Libtask.sol\":82:166  function  add(uint x , uint y) public pure returns (uint ) {... */\n    tag_4:\n      tag_16\n      0x04\n      dup1\n      calldatasize\n      sub\n      dup2\n      add\n      swap1\n      tag_17\n      swap2\n      swap1\n      tag_8\n      jump\t// in\n    tag_17:\n      tag_18\n      jump\t// in\n    tag_16:\n      mload(0x40)\n      tag_19\n      swap2\n      swap1\n      tag_11\n      jump\t// in\n    tag_19:\n      mload(0x40)\n      dup1\n      swap2\n      sub\n      swap1\n      return\n        /* \"lab 21-08-2023/Libtask.sol\":268:355  function  divide(uint x , uint y) public pure returns (uint ) {... */\n    tag_5:\n      tag_20\n      0x04\n      dup1\n      calldatasize\n      sub\n      dup2\n      add\n      swap1\n      tag_21\n      swap2\n      swap1\n      tag_8\n      jump\t// in\n    tag_21:\n      tag_22\n      jump\t// in\n    tag_20:\n      mload(0x40)\n      tag_23\n      swap2\n      swap1\n      tag_11\n      jump\t// in\n    tag_23:\n      mload(0x40)\n      dup1\n      swap2\n      sub\n      swap1\n      return\n        /* \"lab 21-08-2023/Libtask.sol\":174:260  function  subtr(uint x , uint y) public pure returns (uint ) {... */\n    tag_9:\n        /* \"lab 21-08-2023/Libtask.sol\":228:232  uint */\n      0x00\n        /* \"lab 21-08-2023/Libtask.sol\":250:251  y */\n      dup2\n        /* \"lab 21-08-2023/Libtask.sol\":247:248  x */\n      dup4\n        /* \"lab 21-08-2023/Libtask.sol\":247:251  x -y */\n      tag_25\n      swap2\n      swap1\n      tag_26\n      jump\t// in\n    tag_25:\n        /* \"lab 21-08-2023/Libtask.sol\":240:251  return x -y */\n      swap1\n      pop\n        /* \"lab 21-08-2023/Libtask.sol\":174:260  function  subtr(uint x , uint y) public pure returns (uint ) {... */\n      swap3\n      swap2\n      pop\n      pop\n      jump\t// out\n        /* \"lab 21-08-2023/Libtask.sol\":363:448  function  pow(uint x , uint y) public pure returns (uint ) {... */\n    tag_14:\n        /* \"lab 21-08-2023/Libtask.sol\":415:419  uint */\n      0x00\n        /* \"lab 21-08-2023/Libtask.sol\":438:439  y */\n      dup2\n        /* \"lab 21-08-2023/Libtask.sol\":434:435  x */\n      dup4\n        /* \"lab 21-08-2023/Libtask.sol\":434:439  x **y */\n      tag_28\n      swap2\n      swap1\n      tag_29\n      jump\t// in\n    tag_28:\n        /* \"lab 21-08-2023/Libtask.sol\":427:439  return x **y */\n      swap1\n      pop\n        /* \"lab 21-08-2023/Libtask.sol\":363:448  function  pow(uint x , uint y) public pure returns (uint ) {... */\n      swap3\n      swap2\n      pop\n      pop\n      jump\t// out\n        /* \"lab 21-08-2023/Libtask.sol\":82:166  function  add(uint x , uint y) public pure returns (uint ) {... */\n    tag_18:\n        /* \"lab 21-08-2023/Libtask.sol\":134:138  uint */\n      0x00\n        /* \"lab 21-08-2023/Libtask.sol\":156:157  y */\n      dup2\n        /* \"lab 21-08-2023/Libtask.sol\":153:154  x */\n      dup4\n        /* \"lab 21-08-2023/Libtask.sol\":153:157  x +y */\n      tag_31\n      swap2\n      swap1\n      tag_32\n      jump\t// in\n    tag_31:\n        /* \"lab 21-08-2023/Libtask.sol\":146:157  return x +y */\n      swap1\n      pop\n        /* \"lab 21-08-2023/Libtask.sol\":82:166  function  add(uint x , uint y) public pure returns (uint ) {... */\n      swap3\n      swap2\n      pop\n      pop\n      jump\t// out\n        /* \"lab 21-08-2023/Libtask.sol\":268:355  function  divide(uint x , uint y) public pure returns (uint ) {... */\n    tag_22:\n        /* \"lab 21-08-2023/Libtask.sol\":323:327  uint */\n      0x00\n        /* \"lab 21-08-2023/Libtask.sol\":345:346  y */\n      dup2\n        /* \"lab 21-08-2023/Libtask.sol\":342:343  x */\n      dup4\n        /* \"lab 21-08-2023/Libtask.sol\":342:346  x /y */\n      tag_34\n      swap2\n      swap1\n      tag_35\n      jump\t// in\n    tag_34:\n        /* \"lab 21-08-2023/Libtask.sol\":335:346  return x /y */\n      swap1\n      pop\n        /* \"lab 21-08-2023/Libtask.sol\":268:355  function  divide(uint x , uint y) public pure returns (uint ) {... */\n      swap3\n      swap2\n      pop\n      pop\n      jump\t// out\n        /* \"#utility.yul\":88:205   */\n    tag_37:\n        /* \"#utility.yul\":197:198   */\n      0x00\n        /* \"#utility.yul\":194:195   */\n      dup1\n        /* \"#utility.yul\":187:199   */\n      revert\n        /* \"#utility.yul\":334:411   */\n    tag_39:\n        /* \"#utility.yul\":371:378   */\n      0x00\n        /* \"#utility.yul\":400:405   */\n      dup2\n        /* \"#utility.yul\":389:405   */\n      swap1\n      pop\n        /* \"#utility.yul\":334:411   */\n      swap2\n      swap1\n      pop\n      jump\t// out\n        /* \"#utility.yul\":417:539   */\n    tag_40:\n        /* \"#utility.yul\":490:514   */\n      tag_54\n        /* \"#utility.yul\":508:513   */\n      dup2\n        /* \"#utility.yul\":490:514   */\n      tag_39\n      jump\t// in\n    tag_54:\n        /* \"#utility.yul\":483:488   */\n      dup2\n        /* \"#utility.yul\":480:515   */\n      eq\n        /* \"#utility.yul\":470:533   */\n      tag_55\n      jumpi\n        /* \"#utility.yul\":529:530   */\n      0x00\n        /* \"#utility.yul\":526:527   */\n      dup1\n        /* \"#utility.yul\":519:531   */\n      revert\n        /* \"#utility.yul\":470:533   */\n    tag_55:\n        /* \"#utility.yul\":417:539   */\n      pop\n      jump\t// out\n        /* \"#utility.yul\":545:684   */\n    tag_41:\n        /* \"#utility.yul\":591:596   */\n      0x00\n        /* \"#utility.yul\":629:635   */\n      dup2\n        /* \"#utility.yul\":616:636   */\n      calldataload\n        /* \"#utility.yul\":607:636   */\n      swap1\n      pop\n        /* \"#utility.yul\":645:678   */\n      tag_57\n        /* \"#utility.yul\":672:677   */\n      dup2\n        /* \"#utility.yul\":645:678   */\n      tag_40\n      jump\t// in\n    tag_57:\n        /* \"#utility.yul\":545:684   */\n      swap3\n      swap2\n      pop\n      pop\n      jump\t// out\n        /* \"#utility.yul\":690:1164   */\n    tag_8:\n        /* \"#utility.yul\":758:764   */\n      0x00\n        /* \"#utility.yul\":766:772   */\n      dup1\n        /* \"#utility.yul\":815:817   */\n      0x40\n        /* \"#utility.yul\":803:812   */\n      dup4\n        /* \"#utility.yul\":794:801   */\n      dup6\n        /* \"#utility.yul\":790:813   */\n      sub\n        /* \"#utility.yul\":786:818   */\n      slt\n        /* \"#utility.yul\":783:902   */\n      iszero\n      tag_59\n      jumpi\n        /* \"#utility.yul\":821:900   */\n      tag_60\n      tag_37\n      jump\t// in\n    tag_60:\n        /* \"#utility.yul\":783:902   */\n    tag_59:\n        /* \"#utility.yul\":941:942   */\n      0x00\n        /* \"#utility.yul\":966:1019   */\n      tag_61\n        /* \"#utility.yul\":1011:1018   */\n      dup6\n        /* \"#utility.yul\":1002:1008   */\n      dup3\n        /* \"#utility.yul\":991:1000   */\n      dup7\n        /* \"#utility.yul\":987:1009   */\n      add\n        /* \"#utility.yul\":966:1019   */\n      tag_41\n      jump\t// in\n    tag_61:\n        /* \"#utility.yul\":956:1019   */\n      swap3\n      pop\n        /* \"#utility.yul\":912:1029   */\n      pop\n        /* \"#utility.yul\":1068:1070   */\n      0x20\n        /* \"#utility.yul\":1094:1147   */\n      tag_62\n        /* \"#utility.yul\":1139:1146   */\n      dup6\n        /* \"#utility.yul\":1130:1136   */\n      dup3\n        /* \"#utility.yul\":1119:1128   */\n      dup7\n        /* \"#utility.yul\":1115:1137   */\n      add\n        /* \"#utility.yul\":1094:1147   */\n      tag_41\n      jump\t// in\n    tag_62:\n        /* \"#utility.yul\":1084:1147   */\n      swap2\n      pop\n        /* \"#utility.yul\":1039:1157   */\n      pop\n        /* \"#utility.yul\":690:1164   */\n      swap3\n      pop\n      swap3\n      swap1\n      pop\n      jump\t// out\n        /* \"#utility.yul\":1170:1296   */\n    tag_42:\n        /* \"#utility.yul\":1265:1289   */\n      tag_64\n        /* \"#utility.yul\":1283:1288   */\n      dup2\n        /* \"#utility.yul\":1265:1289   */\n      tag_39\n      jump\t// in\n    tag_64:\n        /* \"#utility.yul\":1260:1263   */\n      dup3\n        /* \"#utility.yul\":1253:1290   */\n      mstore\n        /* \"#utility.yul\":1170:1296   */\n      pop\n      pop\n      jump\t// out\n        /* \"#utility.yul\":1302:1540   */\n    tag_11:\n        /* \"#utility.yul\":1403:1407   */\n      0x00\n        /* \"#utility.yul\":1441:1443   */\n      0x20\n        /* \"#utility.yul\":1430:1439   */\n      dup3\n        /* \"#utility.yul\":1426:1444   */\n      add\n        /* \"#utility.yul\":1418:1444   */\n      swap1\n      pop\n        /* \"#utility.yul\":1454:1533   */\n      tag_66\n        /* \"#utility.yul\":1530:1531   */\n      0x00\n        /* \"#utility.yul\":1519:1528   */\n      dup4\n        /* \"#utility.yul\":1515:1532   */\n      add\n        /* \"#utility.yul\":1506:1512   */\n      dup5\n        /* \"#utility.yul\":1454:1533   */\n      tag_42\n      jump\t// in\n    tag_66:\n        /* \"#utility.yul\":1302:1540   */\n      swap3\n      swap2\n      pop\n      pop\n      jump\t// out\n        /* \"#utility.yul\":1546:1726   */\n    tag_43:\n        /* \"#utility.yul\":1594:1671   */\n      0x4e487b7100000000000000000000000000000000000000000000000000000000\n        /* \"#utility.yul\":1591:1592   */\n      0x00\n        /* \"#utility.yul\":1584:1672   */\n      mstore\n        /* \"#utility.yul\":1691:1695   */\n      0x11\n        /* \"#utility.yul\":1688:1689   */\n      0x04\n        /* \"#utility.yul\":1681:1696   */\n      mstore\n        /* \"#utility.yul\":1715:1719   */\n      0x24\n        /* \"#utility.yul\":1712:1713   */\n      0x00\n        /* \"#utility.yul\":1705:1720   */\n      revert\n        /* \"#utility.yul\":1732:1926   */\n    tag_26:\n        /* \"#utility.yul\":1772:1776   */\n      0x00\n        /* \"#utility.yul\":1792:1812   */\n      tag_69\n        /* \"#utility.yul\":1810:1811   */\n      dup3\n        /* \"#utility.yul\":1792:1812   */\n      tag_39\n      jump\t// in\n    tag_69:\n        /* \"#utility.yul\":1787:1812   */\n      swap2\n      pop\n        /* \"#utility.yul\":1826:1846   */\n      tag_70\n        /* \"#utility.yul\":1844:1845   */\n      dup4\n        /* \"#utility.yul\":1826:1846   */\n      tag_39\n      jump\t// in\n    tag_70:\n        /* \"#utility.yul\":1821:1846   */\n      swap3\n      pop\n        /* \"#utility.yul\":1870:1871   */\n      dup3\n        /* \"#utility.yul\":1867:1868   */\n      dup3\n        /* \"#utility.yul\":1863:1872   */\n      sub\n        /* \"#utility.yul\":1855:1872   */\n      swap1\n      pop\n        /* \"#utility.yul\":1894:1895   */\n      dup2\n        /* \"#utility.yul\":1888:1892   */\n      dup2\n        /* \"#utility.yul\":1885:1896   */\n      gt\n        /* \"#utility.yul\":1882:1919   */\n      iszero\n      tag_71\n      jumpi\n        /* \"#utility.yul\":1899:1917   */\n      tag_72\n      tag_43\n      jump\t// in\n    tag_72:\n        /* \"#utility.yul\":1882:1919   */\n    tag_71:\n        /* \"#utility.yul\":1732:1926   */\n      swap3\n      swap2\n      pop\n      pop\n      jump\t// out\n        /* \"#utility.yul\":1932:2034   */\n    tag_44:\n        /* \"#utility.yul\":1974:1982   */\n      0x00\n        /* \"#utility.yul\":2021:2026   */\n      dup2\n        /* \"#utility.yul\":2018:2019   */\n      0x01\n        /* \"#utility.yul\":2014:2027   */\n      shr\n        /* \"#utility.yul\":1993:2027   */\n      swap1\n      pop\n        /* \"#utility.yul\":1932:2034   */\n      swap2\n      swap1\n      pop\n      jump\t// out\n        /* \"#utility.yul\":2040:2888   */\n    tag_45:\n        /* \"#utility.yul\":2101:2106   */\n      0x00\n        /* \"#utility.yul\":2108:2112   */\n      dup1\n        /* \"#utility.yul\":2132:2138   */\n      dup3\n        /* \"#utility.yul\":2123:2138   */\n      swap2\n      pop\n        /* \"#utility.yul\":2156:2161   */\n      dup4\n        /* \"#utility.yul\":2147:2161   */\n      swap1\n      pop\n        /* \"#utility.yul\":2170:2882   */\n    tag_75:\n        /* \"#utility.yul\":2191:2192   */\n      0x01\n        /* \"#utility.yul\":2181:2189   */\n      dup6\n        /* \"#utility.yul\":2178:2193   */\n      gt\n        /* \"#utility.yul\":2170:2882   */\n      iszero\n      tag_77\n      jumpi\n        /* \"#utility.yul\":2286:2290   */\n      dup1\n        /* \"#utility.yul\":2281:2284   */\n      dup7\n        /* \"#utility.yul\":2277:2291   */\n      div\n        /* \"#utility.yul\":2271:2275   */\n      dup2\n        /* \"#utility.yul\":2268:2292   */\n      gt\n        /* \"#utility.yul\":2265:2315   */\n      iszero\n      tag_78\n      jumpi\n        /* \"#utility.yul\":2295:2313   */\n      tag_79\n      tag_43\n      jump\t// in\n    tag_79:\n        /* \"#utility.yul\":2265:2315   */\n    tag_78:\n        /* \"#utility.yul\":2345:2346   */\n      0x01\n        /* \"#utility.yul\":2335:2343   */\n      dup6\n        /* \"#utility.yul\":2331:2347   */\n      and\n        /* \"#utility.yul\":2328:2779   */\n      iszero\n      tag_80\n      jumpi\n        /* \"#utility.yul\":2760:2764   */\n      dup1\n        /* \"#utility.yul\":2753:2758   */\n      dup3\n        /* \"#utility.yul\":2749:2765   */\n      mul\n        /* \"#utility.yul\":2740:2765   */\n      swap2\n      pop\n        /* \"#utility.yul\":2328:2779   */\n    tag_80:\n        /* \"#utility.yul\":2810:2814   */\n      dup1\n        /* \"#utility.yul\":2804:2808   */\n      dup2\n        /* \"#utility.yul\":2800:2815   */\n      mul\n        /* \"#utility.yul\":2792:2815   */\n      swap1\n      pop\n        /* \"#utility.yul\":2840:2872   */\n      tag_81\n        /* \"#utility.yul\":2863:2871   */\n      dup6\n        /* \"#utility.yul\":2840:2872   */\n      tag_44\n      jump\t// in\n    tag_81:\n        /* \"#utility.yul\":2828:2872   */\n      swap5\n      pop\n        /* \"#utility.yul\":2170:2882   */\n      jump(tag_75)\n    tag_77:\n        /* \"#utility.yul\":2040:2888   */\n      swap5\n      pop\n      swap5\n      swap3\n      pop\n      pop\n      pop\n      jump\t// out\n        /* \"#utility.yul\":2894:3967   */\n    tag_46:\n        /* \"#utility.yul\":2948:2953   */\n      0x00\n        /* \"#utility.yul\":3139:3147   */\n      dup3\n        /* \"#utility.yul\":3129:3169   */\n      tag_83\n      jumpi\n        /* \"#utility.yul\":3160:3161   */\n      0x01\n        /* \"#utility.yul\":3151:3161   */\n      swap1\n      pop\n        /* \"#utility.yul\":3162:3167   */\n      jump(tag_82)\n        /* \"#utility.yul\":3129:3169   */\n    tag_83:\n        /* \"#utility.yul\":3188:3192   */\n      dup2\n        /* \"#utility.yul\":3178:3214   */\n      tag_84\n      jumpi\n        /* \"#utility.yul\":3205:3206   */\n      0x00\n        /* \"#utility.yul\":3196:3206   */\n      swap1\n      pop\n        /* \"#utility.yul\":3207:3212   */\n      jump(tag_82)\n        /* \"#utility.yul\":3178:3214   */\n    tag_84:\n        /* \"#utility.yul\":3274:3278   */\n      dup2\n        /* \"#utility.yul\":3322:3323   */\n      0x01\n        /* \"#utility.yul\":3317:3344   */\n      dup2\n      eq\n      tag_86\n      jumpi\n        /* \"#utility.yul\":3358:3359   */\n      0x02\n        /* \"#utility.yul\":3353:3544   */\n      dup2\n      eq\n      tag_87\n      jumpi\n        /* \"#utility.yul\":3267:3544   */\n      jump(tag_85)\n        /* \"#utility.yul\":3317:3344   */\n    tag_86:\n        /* \"#utility.yul\":3335:3336   */\n      0x01\n        /* \"#utility.yul\":3326:3336   */\n      swap2\n      pop\n        /* \"#utility.yul\":3337:3342   */\n      pop\n      jump(tag_82)\n        /* \"#utility.yul\":3353:3544   */\n    tag_87:\n        /* \"#utility.yul\":3398:3401   */\n      0xff\n        /* \"#utility.yul\":3388:3396   */\n      dup5\n        /* \"#utility.yul\":3385:3402   */\n      gt\n        /* \"#utility.yul\":3382:3425   */\n      iszero\n      tag_88\n      jumpi\n        /* \"#utility.yul\":3405:3423   */\n      tag_89\n      tag_43\n      jump\t// in\n    tag_89:\n        /* \"#utility.yul\":3382:3425   */\n    tag_88:\n        /* \"#utility.yul\":3454:3462   */\n      dup4\n        /* \"#utility.yul\":3451:3452   */\n      0x02\n        /* \"#utility.yul\":3447:3463   */\n      exp\n        /* \"#utility.yul\":3438:3463   */\n      swap2\n      pop\n        /* \"#utility.yul\":3489:3492   */\n      dup5\n        /* \"#utility.yul\":3482:3487   */\n      dup3\n        /* \"#utility.yul\":3479:3493   */\n      gt\n        /* \"#utility.yul\":3476:3516   */\n      iszero\n      tag_90\n      jumpi\n        /* \"#utility.yul\":3496:3514   */\n      tag_91\n      tag_43\n      jump\t// in\n    tag_91:\n        /* \"#utility.yul\":3476:3516   */\n    tag_90:\n        /* \"#utility.yul\":3529:3534   */\n      pop\n      jump(tag_82)\n        /* \"#utility.yul\":3267:3544   */\n    tag_85:\n      pop\n        /* \"#utility.yul\":3653:3655   */\n      0x20\n        /* \"#utility.yul\":3643:3651   */\n      dup4\n        /* \"#utility.yul\":3640:3656   */\n      lt\n        /* \"#utility.yul\":3634:3637   */\n      0x0133\n        /* \"#utility.yul\":3628:3632   */\n      dup4\n        /* \"#utility.yul\":3625:3638   */\n      lt\n        /* \"#utility.yul\":3621:3657   */\n      and\n        /* \"#utility.yul\":3603:3605   */\n      0x4e\n        /* \"#utility.yul\":3593:3601   */\n      dup5\n        /* \"#utility.yul\":3590:3606   */\n      lt\n        /* \"#utility.yul\":3585:3587   */\n      0x0b\n        /* \"#utility.yul\":3579:3583   */\n      dup5\n        /* \"#utility.yul\":3576:3588   */\n      lt\n        /* \"#utility.yul\":3572:3607   */\n      and\n        /* \"#utility.yul\":3556:3667   */\n      or\n        /* \"#utility.yul\":3553:3799   */\n      iszero\n      tag_92\n      jumpi\n        /* \"#utility.yul\":3709:3717   */\n      dup3\n        /* \"#utility.yul\":3703:3707   */\n      dup3\n        /* \"#utility.yul\":3699:3718   */\n      exp\n        /* \"#utility.yul\":3690:3718   */\n      swap1\n      pop\n        /* \"#utility.yul\":3744:3747   */\n      dup4\n        /* \"#utility.yul\":3737:3742   */\n      dup2\n        /* \"#utility.yul\":3734:3748   */\n      gt\n        /* \"#utility.yul\":3731:3771   */\n      iszero\n      tag_93\n      jumpi\n        /* \"#utility.yul\":3751:3769   */\n      tag_94\n      tag_43\n      jump\t// in\n    tag_94:\n        /* \"#utility.yul\":3731:3771   */\n    tag_93:\n        /* \"#utility.yul\":3784:3789   */\n      jump(tag_82)\n        /* \"#utility.yul\":3553:3799   */\n    tag_92:\n        /* \"#utility.yul\":3824:3866   */\n      tag_95\n        /* \"#utility.yul\":3862:3865   */\n      dup5\n        /* \"#utility.yul\":3852:3860   */\n      dup5\n        /* \"#utility.yul\":3846:3850   */\n      dup5\n        /* \"#utility.yul\":3843:3844   */\n      0x01\n        /* \"#utility.yul\":3824:3866   */\n      tag_45\n      jump\t// in\n    tag_95:\n        /* \"#utility.yul\":3809:3866   */\n      swap3\n      pop\n      swap1\n      pop\n        /* \"#utility.yul\":3898:3902   */\n      dup2\n        /* \"#utility.yul\":3893:3896   */\n      dup5\n        /* \"#utility.yul\":3889:3903   */\n      div\n        /* \"#utility.yul\":3882:3887   */\n      dup2\n        /* \"#utility.yul\":3879:3904   */\n      gt\n        /* \"#utility.yul\":3876:3927   */\n      iszero\n      tag_96\n      jumpi\n        /* \"#utility.yul\":3907:3925   */\n      tag_97\n      tag_43\n      jump\t// in\n    tag_97:\n        /* \"#utility.yul\":3876:3927   */\n    tag_96:\n        /* \"#utility.yul\":3956:3960   */\n      dup2\n        /* \"#utility.yul\":3949:3954   */\n      dup2\n        /* \"#utility.yul\":3945:3961   */\n      mul\n        /* \"#utility.yul\":3936:3961   */\n      swap1\n      pop\n        /* \"#utility.yul\":2894:3967   */\n    tag_82:\n      swap4\n      swap3\n      pop\n      pop\n      pop\n      jump\t// out\n        /* \"#utility.yul\":3973:4258   */\n    tag_29:\n        /* \"#utility.yul\":4033:4038   */\n      0x00\n        /* \"#utility.yul\":4057:4080   */\n      tag_99\n        /* \"#utility.yul\":4075:4079   */\n      dup3\n        /* \"#utility.yul\":4057:4080   */\n      tag_39\n      jump\t// in\n    tag_99:\n        /* \"#utility.yul\":4049:4080   */\n      swap2\n      pop\n        /* \"#utility.yul\":4101:4128   */\n      tag_100\n        /* \"#utility.yul\":4119:4127   */\n      dup4\n        /* \"#utility.yul\":4101:4128   */\n      tag_39\n      jump\t// in\n    tag_100:\n        /* \"#utility.yul\":4089:4128   */\n      swap3\n      pop\n        /* \"#utility.yul\":4147:4251   */\n      tag_101\n        /* \"#utility.yul\":4184:4250   */\n      0xffffffffffffffffffffffffffffffffffffffffffffffffffffffffffffffff\n        /* \"#utility.yul\":4174:4182   */\n      dup5\n        /* \"#utility.yul\":4168:4172   */\n      dup5\n        /* \"#utility.yul\":4147:4251   */\n      tag_46\n      jump\t// in\n    tag_101:\n        /* \"#utility.yul\":4138:4251   */\n      swap1\n      pop\n        /* \"#utility.yul\":3973:4258   */\n      swap3\n      swap2\n      pop\n      pop\n      jump\t// out\n        /* \"#utility.yul\":4264:4455   */\n    tag_32:\n        /* \"#utility.yul\":4304:4307   */\n      0x00\n        /* \"#utility.yul\":4323:4343   */\n      tag_103\n        /* \"#utility.yul\":4341:4342   */\n      dup3\n        /* \"#utility.yul\":4323:4343   */\n      tag_39\n      jump\t// in\n    tag_103:\n        /* \"#utility.yul\":4318:4343   */\n      swap2\n      pop\n        /* \"#utility.yul\":4357:4377   */\n      tag_104\n        /* \"#utility.yul\":4375:4376   */\n      dup4\n        /* \"#utility.yul\":4357:4377   */\n      tag_39\n      jump\t// in\n    tag_104:\n        /* \"#utility.yul\":4352:4377   */\n      swap3\n      pop\n        /* \"#utility.yul\":4400:4401   */\n      dup3\n        /* \"#utility.yul\":4397:4398   */\n      dup3\n        /* \"#utility.yul\":4393:4402   */\n      add\n        /* \"#utility.yul\":4386:4402   */\n      swap1\n      pop\n        /* \"#utility.yul\":4421:4424   */\n      dup1\n        /* \"#utility.yul\":4418:4419   */\n      dup3\n        /* \"#utility.yul\":4415:4425   */\n      gt\n        /* \"#utility.yul\":4412:4448   */\n      iszero\n      tag_105\n      jumpi\n        /* \"#utility.yul\":4428:4446   */\n      tag_106\n      tag_43\n      jump\t// in\n    tag_106:\n        /* \"#utility.yul\":4412:4448   */\n    tag_105:\n        /* \"#utility.yul\":4264:4455   */\n      swap3\n      swap2\n      pop\n      pop\n      jump\t// out\n        /* \"#utility.yul\":4461:4641   */\n    tag_47:\n        /* \"#utility.yul\":4509:4586   */\n      0x4e487b7100000000000000000000000000000000000000000000000000000000\n        /* \"#utility.yul\":4506:4507   */\n      0x00\n        /* \"#utility.yul\":4499:4587   */\n      mstore\n        /* \"#utility.yul\":4606:4610   */\n      0x12\n        /* \"#utility.yul\":4603:4604   */\n      0x04\n        /* \"#utility.yul\":4596:4611   */\n      mstore\n        /* \"#utility.yul\":4630:4634   */\n      0x24\n        /* \"#utility.yul\":4627:4628   */\n      0x00\n        /* \"#utility.yul\":4620:4635   */\n      revert\n        /* \"#utility.yul\":4647:4832   */\n    tag_35:\n        /* \"#utility.yul\":4687:4688   */\n      0x00\n        /* \"#utility.yul\":4704:4724   */\n      tag_109\n        /* \"#utility.yul\":4722:4723   */\n      dup3\n        /* \"#utility.yul\":4704:4724   */\n      tag_39\n      jump\t// in\n    tag_109:\n        /* \"#utility.yul\":4699:4724   */\n      swap2\n      pop\n        /* \"#utility.yul\":4738:4758   */\n      tag_110\n        /* \"#utility.yul\":4756:4757   */\n      dup4\n        /* \"#utility.yul\":4738:4758   */\n      tag_39\n      jump\t// in\n    tag_110:\n        /* \"#utility.yul\":4733:4758   */\n      swap3\n      pop\n        /* \"#utility.yul\":4777:4778   */\n      dup3\n        /* \"#utility.yul\":4767:4802   */\n      tag_111\n      jumpi\n        /* \"#utility.yul\":4782:4800   */\n      tag_112\n      tag_47\n      jump\t// in\n    tag_112:\n        /* \"#utility.yul\":4767:4802   */\n    tag_111:\n        /* \"#utility.yul\":4824:4825   */\n      dup3\n        /* \"#utility.yul\":4821:4822   */\n      dup3\n        /* \"#utility.yul\":4817:4826   */\n      div\n        /* \"#utility.yul\":4812:4826   */\n      swap1\n      pop\n        /* \"#utility.yul\":4647:4832   */\n      swap3\n      swap2\n      pop\n      pop\n      jump\t// out\n\n    auxdata: 0xa2646970667358221220beec982e45e5c8b5cce6151fed1054f055ba69cfe940a454cbfea43fd1fdd8cb64736f6c63430008120033\n}\n",
				"bytecode": {
					"linkReferences": {},
					"object": "6104c3610053600b82828239805160001a607314610046577f4e487b7100000000000000000000000000000000000000000000000000000000600052600060045260246000fd5b30600052607381538281f3fe73000000000000000000000000000000000000000030146080604052600436106100565760003560e01c806313c25ba61461005b5780632e4c697f1461008b578063771602f7146100bb578063f88e9fbf146100eb575b600080fd5b610075600480360381019061007091906101ae565b61011b565b60405161008291906101fd565b60405180910390f35b6100a560048036038101906100a091906101ae565b610131565b6040516100b291906101fd565b60405180910390f35b6100d560048036038101906100d091906101ae565b610147565b6040516100e291906101fd565b60405180910390f35b610105600480360381019061010091906101ae565b61015d565b60405161011291906101fd565b60405180910390f35b600081836101299190610247565b905092915050565b6000818361013f91906103ae565b905092915050565b6000818361015591906103f9565b905092915050565b6000818361016b919061045c565b905092915050565b600080fd5b6000819050919050565b61018b81610178565b811461019657600080fd5b50565b6000813590506101a881610182565b92915050565b600080604083850312156101c5576101c4610173565b5b60006101d385828601610199565b92505060206101e485828601610199565b9150509250929050565b6101f781610178565b82525050565b600060208201905061021260008301846101ee565b92915050565b7f4e487b7100000000000000000000000000000000000000000000000000000000600052601160045260246000fd5b600061025282610178565b915061025d83610178565b925082820390508181111561027557610274610218565b5b92915050565b60008160011c9050919050565b6000808291508390505b60018511156102d2578086048111156102ae576102ad610218565b5b60018516156102bd5780820291505b80810290506102cb8561027b565b9450610292565b94509492505050565b6000826102eb57600190506103a7565b816102f957600090506103a7565b816001811461030f576002811461031957610348565b60019150506103a7565b60ff84111561032b5761032a610218565b5b8360020a91508482111561034257610341610218565b5b506103a7565b5060208310610133831016604e8410600b841016171561037d5782820a90508381111561037857610377610218565b5b6103a7565b61038a8484846001610288565b925090508184048111156103a1576103a0610218565b5b81810290505b9392505050565b60006103b982610178565b91506103c483610178565b92506103f17fffffffffffffffffffffffffffffffffffffffffffffffffffffffffffffffff84846102db565b905092915050565b600061040482610178565b915061040f83610178565b925082820190508082111561042757610426610218565b5b92915050565b7f4e487b7100000000000000000000000000000000000000000000000000000000600052601260045260246000fd5b600061046782610178565b915061047283610178565b9250826104825761048161042d565b5b82820490509291505056fea2646970667358221220beec982e45e5c8b5cce6151fed1054f055ba69cfe940a454cbfea43fd1fdd8cb64736f6c63430008120033",
					"opcodes": "PUSH2 0x4C3 PUSH2 0x53 PUSH1 0xB DUP3 DUP3 DUP3 CODECOPY DUP1 MLOAD PUSH1 0x0 BYTE PUSH1 0x73 EQ PUSH2 0x46 JUMPI PUSH32 0x4E487B7100000000000000000000000000000000000000000000000000000000 PUSH1 0x0 MSTORE PUSH1 0x0 PUSH1 0x4 MSTORE PUSH1 0x24 PUSH1 0x0 REVERT JUMPDEST ADDRESS PUSH1 0x0 MSTORE PUSH1 0x73 DUP2 MSTORE8 DUP3 DUP2 RETURN INVALID PUSH20 0x0 ADDRESS EQ PUSH1 0x80 PUSH1 0x40 MSTORE PUSH1 0x4 CALLDATASIZE LT PUSH2 0x56 JUMPI PUSH1 0x0 CALLDATALOAD PUSH1 0xE0 SHR DUP1 PUSH4 0x13C25BA6 EQ PUSH2 0x5B JUMPI DUP1 PUSH4 0x2E4C697F EQ PUSH2 0x8B JUMPI DUP1 PUSH4 0x771602F7 EQ PUSH2 0xBB JUMPI DUP1 PUSH4 0xF88E9FBF EQ PUSH2 0xEB JUMPI JUMPDEST PUSH1 0x0 DUP1 REVERT JUMPDEST PUSH2 0x75 PUSH1 0x4 DUP1 CALLDATASIZE SUB DUP2 ADD SWAP1 PUSH2 0x70 SWAP2 SWAP1 PUSH2 0x1AE JUMP JUMPDEST PUSH2 0x11B JUMP JUMPDEST PUSH1 0x40 MLOAD PUSH2 0x82 SWAP2 SWAP1 PUSH2 0x1FD JUMP JUMPDEST PUSH1 0x40 MLOAD DUP1 SWAP2 SUB SWAP1 RETURN JUMPDEST PUSH2 0xA5 PUSH1 0x4 DUP1 CALLDATASIZE SUB DUP2 ADD SWAP1 PUSH2 0xA0 SWAP2 SWAP1 PUSH2 0x1AE JUMP JUMPDEST PUSH2 0x131 JUMP JUMPDEST PUSH1 0x40 MLOAD PUSH2 0xB2 SWAP2 SWAP1 PUSH2 0x1FD JUMP JUMPDEST PUSH1 0x40 MLOAD DUP1 SWAP2 SUB SWAP1 RETURN JUMPDEST PUSH2 0xD5 PUSH1 0x4 DUP1 CALLDATASIZE SUB DUP2 ADD SWAP1 PUSH2 0xD0 SWAP2 SWAP1 PUSH2 0x1AE JUMP JUMPDEST PUSH2 0x147 JUMP JUMPDEST PUSH1 0x40 MLOAD PUSH2 0xE2 SWAP2 SWAP1 PUSH2 0x1FD JUMP JUMPDEST PUSH1 0x40 MLOAD DUP1 SWAP2 SUB SWAP1 RETURN JUMPDEST PUSH2 0x105 PUSH1 0x4 DUP1 CALLDATASIZE SUB DUP2 ADD SWAP1 PUSH2 0x100 SWAP2 SWAP1 PUSH2 0x1AE JUMP JUMPDEST PUSH2 0x15D JUMP JUMPDEST PUSH1 0x40 MLOAD PUSH2 0x112 SWAP2 SWAP1 PUSH2 0x1FD JUMP JUMPDEST PUSH1 0x40 MLOAD DUP1 SWAP2 SUB SWAP1 RETURN JUMPDEST PUSH1 0x0 DUP2 DUP4 PUSH2 0x129 SWAP2 SWAP1 PUSH2 0x247 JUMP JUMPDEST SWAP1 POP SWAP3 SWAP2 POP POP JUMP JUMPDEST PUSH1 0x0 DUP2 DUP4 PUSH2 0x13F SWAP2 SWAP1 PUSH2 0x3AE JUMP JUMPDEST SWAP1 POP SWAP3 SWAP2 POP POP JUMP JUMPDEST PUSH1 0x0 DUP2 DUP4 PUSH2 0x155 SWAP2 SWAP1 PUSH2 0x3F9 JUMP JUMPDEST SWAP1 POP SWAP3 SWAP2 POP POP JUMP JUMPDEST PUSH1 0x0 DUP2 DUP4 PUSH2 0x16B SWAP2 SWAP1 PUSH2 0x45C JUMP JUMPDEST SWAP1 POP SWAP3 SWAP2 POP POP JUMP JUMPDEST PUSH1 0x0 DUP1 REVERT JUMPDEST PUSH1 0x0 DUP2 SWAP1 POP SWAP2 SWAP1 POP JUMP JUMPDEST PUSH2 0x18B DUP2 PUSH2 0x178 JUMP JUMPDEST DUP2 EQ PUSH2 0x196 JUMPI PUSH1 0x0 DUP1 REVERT JUMPDEST POP JUMP JUMPDEST PUSH1 0x0 DUP2 CALLDATALOAD SWAP1 POP PUSH2 0x1A8 DUP2 PUSH2 0x182 JUMP JUMPDEST SWAP3 SWAP2 POP POP JUMP JUMPDEST PUSH1 0x0 DUP1 PUSH1 0x40 DUP4 DUP6 SUB SLT ISZERO PUSH2 0x1C5 JUMPI PUSH2 0x1C4 PUSH2 0x173 JUMP JUMPDEST JUMPDEST PUSH1 0x0 PUSH2 0x1D3 DUP6 DUP3 DUP7 ADD PUSH2 0x199 JUMP JUMPDEST SWAP3 POP POP PUSH1 0x20 PUSH2 0x1E4 DUP6 DUP3 DUP7 ADD PUSH2 0x199 JUMP JUMPDEST SWAP2 POP POP SWAP3 POP SWAP3 SWAP1 POP JUMP JUMPDEST PUSH2 0x1F7 DUP2 PUSH2 0x178 JUMP JUMPDEST DUP3 MSTORE POP POP JUMP JUMPDEST PUSH1 0x0 PUSH1 0x20 DUP3 ADD SWAP1 POP PUSH2 0x212 PUSH1 0x0 DUP4 ADD DUP5 PUSH2 0x1EE JUMP JUMPDEST SWAP3 SWAP2 POP POP JUMP JUMPDEST PUSH32 0x4E487B7100000000000000000000000000000000000000000000000000000000 PUSH1 0x0 MSTORE PUSH1 0x11 PUSH1 0x4 MSTORE PUSH1 0x24 PUSH1 0x0 REVERT JUMPDEST PUSH1 0x0 PUSH2 0x252 DUP3 PUSH2 0x178 JUMP JUMPDEST SWAP2 POP PUSH2 0x25D DUP4 PUSH2 0x178 JUMP JUMPDEST SWAP3 POP DUP3 DUP3 SUB SWAP1 POP DUP2 DUP2 GT ISZERO PUSH2 0x275 JUMPI PUSH2 0x274 PUSH2 0x218 JUMP JUMPDEST JUMPDEST SWAP3 SWAP2 POP POP JUMP JUMPDEST PUSH1 0x0 DUP2 PUSH1 0x1 SHR SWAP1 POP SWAP2 SWAP1 POP JUMP JUMPDEST PUSH1 0x0 DUP1 DUP3 SWAP2 POP DUP4 SWAP1 POP JUMPDEST PUSH1 0x1 DUP6 GT ISZERO PUSH2 0x2D2 JUMPI DUP1 DUP7 DIV DUP2 GT ISZERO PUSH2 0x2AE JUMPI PUSH2 0x2AD PUSH2 0x218 JUMP JUMPDEST JUMPDEST PUSH1 0x1 DUP6 AND ISZERO PUSH2 0x2BD JUMPI DUP1 DUP3 MUL SWAP2 POP JUMPDEST DUP1 DUP2 MUL SWAP1 POP PUSH2 0x2CB DUP6 PUSH2 0x27B JUMP JUMPDEST SWAP5 POP PUSH2 0x292 JUMP JUMPDEST SWAP5 POP SWAP5 SWAP3 POP POP POP JUMP JUMPDEST PUSH1 0x0 DUP3 PUSH2 0x2EB JUMPI PUSH1 0x1 SWAP1 POP PUSH2 0x3A7 JUMP JUMPDEST DUP2 PUSH2 0x2F9 JUMPI PUSH1 0x0 SWAP1 POP PUSH2 0x3A7 JUMP JUMPDEST DUP2 PUSH1 0x1 DUP2 EQ PUSH2 0x30F JUMPI PUSH1 0x2 DUP2 EQ PUSH2 0x319 JUMPI PUSH2 0x348 JUMP JUMPDEST PUSH1 0x1 SWAP2 POP POP PUSH2 0x3A7 JUMP JUMPDEST PUSH1 0xFF DUP5 GT ISZERO PUSH2 0x32B JUMPI PUSH2 0x32A PUSH2 0x218 JUMP JUMPDEST JUMPDEST DUP4 PUSH1 0x2 EXP SWAP2 POP DUP5 DUP3 GT ISZERO PUSH2 0x342 JUMPI PUSH2 0x341 PUSH2 0x218 JUMP JUMPDEST JUMPDEST POP PUSH2 0x3A7 JUMP JUMPDEST POP PUSH1 0x20 DUP4 LT PUSH2 0x133 DUP4 LT AND PUSH1 0x4E DUP5 LT PUSH1 0xB DUP5 LT AND OR ISZERO PUSH2 0x37D JUMPI DUP3 DUP3 EXP SWAP1 POP DUP4 DUP2 GT ISZERO PUSH2 0x378 JUMPI PUSH2 0x377 PUSH2 0x218 JUMP JUMPDEST JUMPDEST PUSH2 0x3A7 JUMP JUMPDEST PUSH2 0x38A DUP5 DUP5 DUP5 PUSH1 0x1 PUSH2 0x288 JUMP JUMPDEST SWAP3 POP SWAP1 POP DUP2 DUP5 DIV DUP2 GT ISZERO PUSH2 0x3A1 JUMPI PUSH2 0x3A0 PUSH2 0x218 JUMP JUMPDEST JUMPDEST DUP2 DUP2 MUL SWAP1 POP JUMPDEST SWAP4 SWAP3 POP POP POP JUMP JUMPDEST PUSH1 0x0 PUSH2 0x3B9 DUP3 PUSH2 0x178 JUMP JUMPDEST SWAP2 POP PUSH2 0x3C4 DUP4 PUSH2 0x178 JUMP JUMPDEST SWAP3 POP PUSH2 0x3F1 PUSH32 0xFFFFFFFFFFFFFFFFFFFFFFFFFFFFFFFFFFFFFFFFFFFFFFFFFFFFFFFFFFFFFFFF DUP5 DUP5 PUSH2 0x2DB JUMP JUMPDEST SWAP1 POP SWAP3 SWAP2 POP POP JUMP JUMPDEST PUSH1 0x0 PUSH2 0x404 DUP3 PUSH2 0x178 JUMP JUMPDEST SWAP2 POP PUSH2 0x40F DUP4 PUSH2 0x178 JUMP JUMPDEST SWAP3 POP DUP3 DUP3 ADD SWAP1 POP DUP1 DUP3 GT ISZERO PUSH2 0x427 JUMPI PUSH2 0x426 PUSH2 0x218 JUMP JUMPDEST JUMPDEST SWAP3 SWAP2 POP POP JUMP JUMPDEST PUSH32 0x4E487B7100000000000000000000000000000000000000000000000000000000 PUSH1 0x0 MSTORE PUSH1 0x12 PUSH1 0x4 MSTORE PUSH1 0x24 PUSH1 0x0 REVERT JUMPDEST PUSH1 0x0 PUSH2 0x467 DUP3 PUSH2 0x178 JUMP JUMPDEST SWAP2 POP PUSH2 0x472 DUP4 PUSH2 0x178 JUMP JUMPDEST SWAP3 POP DUP3 PUSH2 0x482 JUMPI PUSH2 0x481 PUSH2 0x42D JUMP JUMPDEST JUMPDEST DUP3 DUP3 DIV SWAP1 POP SWAP3 SWAP2 POP POP JUMP INVALID LOG2 PUSH5 0x6970667358 0x22 SLT KECCAK256 0xBE 0xEC SWAP9 0x2E GASLIMIT 0xE5 0xC8 0xB5 0xCC 0xE6 ISZERO 0x1F 0xED LT SLOAD CREATE SSTORE 0xBA PUSH10 0xCFE940A454CBFEA43FD1 REVERT 0xD8 0xCB PUSH5 0x736F6C6343 STOP ADDMOD SLT STOP CALLER "
				},
				"gasEstimates": {
					"creation": {
						"codeDepositCost": "243800",
						"executionCost": "312",
						"totalCost": "244112"
					},
					"external": {
						"add(uint256,uint256)": "infinite",
						"divide(uint256,uint256)": "infinite",
						"pow(uint256,uint256)": "infinite",
						"subtr(uint256,uint256)": "infinite"
					}
				},
				"methodIdentifiers": {
					"add(uint256,uint256)": "771602f7",
					"divide(uint256,uint256)": "f88e9fbf",
					"pow(uint256,uint256)": "2e4c697f",
					"subtr(uint256,uint256)": "13c25ba6"
				}
			},
			"storageLayout": {
				"storage": [],
				"types": null
			},
			"userdoc": {
				"kind": "user",
				"methods": {},
				"version": 1
			}
		}
	}
}