{
	"Lab 11-08-2023/exe5.sol": {
		"Numbers": {
			"abi": [
				{
					"anonymous": false,
					"inputs": [
						{
							"indexed": false,
							"internalType": "string",
							"name": "messsage",
							"type": "string"
						}
					],
					"name": "Localvar",
					"type": "event"
				},
				{
					"inputs": [
						{
							"internalType": "int256",
							"name": "userInput",
							"type": "int256"
						}
					],
					"name": "numgive",
					"outputs": [
						{
							"internalType": "int256",
							"name": "x",
							"type": "int256"
						}
					],
					"stateMutability": "nonpayable",
					"type": "function"
				}
			],
			"devdoc": {
				"kind": "dev",
				"methods": {},
				"version": 1
			},
			"evm": {
				"assembly": "    /* \"Lab 11-08-2023/exe5.sol\":63:678  contract Numbers {... */\n  mstore(0x40, 0x80)\n  callvalue\n  dup1\n  iszero\n  tag_1\n  jumpi\n  0x00\n  dup1\n  revert\ntag_1:\n  pop\n  dataSize(sub_0)\n  dup1\n  dataOffset(sub_0)\n  0x00\n  codecopy\n  0x00\n  return\nstop\n\nsub_0: assembly {\n        /* \"Lab 11-08-2023/exe5.sol\":63:678  contract Numbers {... */\n      mstore(0x40, 0x80)\n      callvalue\n      dup1\n      iszero\n      tag_1\n      jumpi\n      0x00\n      dup1\n      revert\n    tag_1:\n      pop\n      jumpi(tag_2, lt(calldatasize, 0x04))\n      shr(0xe0, calldataload(0x00))\n      dup1\n      0xb59d7975\n      eq\n      tag_3\n      jumpi\n    tag_2:\n      0x00\n      dup1\n      revert\n        /* \"Lab 11-08-2023/exe5.sol\":89:632  function  numgive(int userInput ) public  returns (int x) {... */\n    tag_3:\n      tag_4\n      0x04\n      dup1\n      calldatasize\n      sub\n      dup2\n      add\n      swap1\n      tag_5\n      swap2\n      swap1\n      tag_6\n      jump\t// in\n    tag_5:\n      tag_7\n      jump\t// in\n    tag_4:\n      mload(0x40)\n      tag_8\n      swap2\n      swap1\n      tag_9\n      jump\t// in\n    tag_8:\n      mload(0x40)\n      dup1\n      swap2\n      sub\n      swap1\n      return\n    tag_7:\n        /* \"Lab 11-08-2023/exe5.sol\":140:145  int x */\n      0x00\n        /* \"Lab 11-08-2023/exe5.sol\":156:163  int neg */\n      dup1\n        /* \"Lab 11-08-2023/exe5.sol\":167:183  int positiveEven */\n      0x00\n        /* \"Lab 11-08-2023/exe5.sol\":187:202  int positiveOdd */\n      dup1\n        /* \"Lab 11-08-2023/exe5.sol\":225:226  0 */\n      0x00\n        /* \"Lab 11-08-2023/exe5.sol\":214:223  userInput */\n      dup6\n        /* \"Lab 11-08-2023/exe5.sol\":214:226  userInput <0 */\n      slt\n        /* \"Lab 11-08-2023/exe5.sol\":210:625  if (userInput <0) {... */\n      iszero\n      tag_11\n      jumpi\n        /* \"Lab 11-08-2023/exe5.sol\":242:251  userInput */\n      dup5\n        /* \"Lab 11-08-2023/exe5.sol\":237:251  neg =userInput */\n      swap3\n      pop\n        /* \"Lab 11-08-2023/exe5.sol\":263:303  Localvar(\"Negative value should return\") */\n      0x88444acfae0e701aeaf7b0f68d0cac19de73fa2dc21eda4b6b6399a0aa7be1b0\n      mload(0x40)\n      tag_12\n      swap1\n      tag_13\n      jump\t// in\n    tag_12:\n      mload(0x40)\n      dup1\n      swap2\n      sub\n      swap1\n      log1\n        /* \"Lab 11-08-2023/exe5.sol\":317:320  neg */\n      dup3\n        /* \"Lab 11-08-2023/exe5.sol\":310:320  return neg */\n      swap4\n      pop\n      pop\n      pop\n      pop\n      jump(tag_10)\n        /* \"Lab 11-08-2023/exe5.sol\":210:625  if (userInput <0) {... */\n    tag_11:\n        /* \"Lab 11-08-2023/exe5.sol\":349:350  0 */\n      0x00\n        /* \"Lab 11-08-2023/exe5.sol\":338:347  userInput */\n      dup6\n        /* \"Lab 11-08-2023/exe5.sol\":338:350  userInput >0 */\n      sgt\n        /* \"Lab 11-08-2023/exe5.sol\":334:625  if (userInput >0) {... */\n      iszero\n      tag_15\n      jumpi\n        /* \"Lab 11-08-2023/exe5.sol\":375:384  userInput */\n      dup5\n        /* \"Lab 11-08-2023/exe5.sol\":361:384  positiveEven =userInput */\n      swap2\n      pop\n        /* \"Lab 11-08-2023/exe5.sol\":392:437  Localvar(\"positive even value should return\") */\n      0x88444acfae0e701aeaf7b0f68d0cac19de73fa2dc21eda4b6b6399a0aa7be1b0\n      mload(0x40)\n      tag_16\n      swap1\n      tag_17\n      jump\t// in\n    tag_16:\n      mload(0x40)\n      dup1\n      swap2\n      sub\n      swap1\n      log1\n        /* \"Lab 11-08-2023/exe5.sol\":447:459  positiveEven */\n      dup2\n        /* \"Lab 11-08-2023/exe5.sol\":440:459  return positiveEven */\n      swap4\n      pop\n      pop\n      pop\n      pop\n      jump(tag_10)\n        /* \"Lab 11-08-2023/exe5.sol\":334:625  if (userInput >0) {... */\n    tag_15:\n        /* \"Lab 11-08-2023/exe5.sol\":487:488  0 */\n      0x00\n        /* \"Lab 11-08-2023/exe5.sol\":476:485  userInput */\n      dup6\n        /* \"Lab 11-08-2023/exe5.sol\":476:488  userInput> 0 */\n      sgt\n        /* \"Lab 11-08-2023/exe5.sol\":476:510  userInput> 0 && userInput % 2 == 1 */\n      dup1\n      iszero\n      tag_19\n      jumpi\n      pop\n        /* \"Lab 11-08-2023/exe5.sol\":509:510  1 */\n      0x01\n        /* \"Lab 11-08-2023/exe5.sol\":504:505  2 */\n      0x02\n        /* \"Lab 11-08-2023/exe5.sol\":492:501  userInput */\n      dup7\n        /* \"Lab 11-08-2023/exe5.sol\":492:505  userInput % 2 */\n      tag_20\n      swap2\n      swap1\n      tag_21\n      jump\t// in\n    tag_20:\n        /* \"Lab 11-08-2023/exe5.sol\":492:510  userInput % 2 == 1 */\n      eq\n        /* \"Lab 11-08-2023/exe5.sol\":476:510  userInput> 0 && userInput % 2 == 1 */\n    tag_19:\n        /* \"Lab 11-08-2023/exe5.sol\":472:625  if (userInput> 0 && userInput % 2 == 1) {... */\n      iszero\n      tag_22\n      jumpi\n        /* \"Lab 11-08-2023/exe5.sol\":534:543  userInput */\n      dup5\n        /* \"Lab 11-08-2023/exe5.sol\":521:543  positiveOdd =userInput */\n      swap1\n      pop\n        /* \"Lab 11-08-2023/exe5.sol\":551:595  Localvar(\"positive odd value should return\") */\n      0x88444acfae0e701aeaf7b0f68d0cac19de73fa2dc21eda4b6b6399a0aa7be1b0\n      mload(0x40)\n      tag_23\n      swap1\n      tag_24\n      jump\t// in\n    tag_23:\n      mload(0x40)\n      dup1\n      swap2\n      sub\n      swap1\n      log1\n        /* \"Lab 11-08-2023/exe5.sol\":606:617  positiveOdd */\n      dup1\n        /* \"Lab 11-08-2023/exe5.sol\":598:617  return  positiveOdd */\n      swap4\n      pop\n      pop\n      pop\n      pop\n      jump(tag_10)\n        /* \"Lab 11-08-2023/exe5.sol\":472:625  if (userInput> 0 && userInput % 2 == 1) {... */\n    tag_22:\n        /* \"Lab 11-08-2023/exe5.sol\":147:632  {... */\n      pop\n      pop\n      pop\n        /* \"Lab 11-08-2023/exe5.sol\":89:632  function  numgive(int userInput ) public  returns (int x) {... */\n    tag_10:\n      swap2\n      swap1\n      pop\n      jump\t// out\n        /* \"#utility.yul\":88:205   */\n    tag_26:\n        /* \"#utility.yul\":197:198   */\n      0x00\n        /* \"#utility.yul\":194:195   */\n      dup1\n        /* \"#utility.yul\":187:199   */\n      revert\n        /* \"#utility.yul\":334:410   */\n    tag_28:\n        /* \"#utility.yul\":370:377   */\n      0x00\n        /* \"#utility.yul\":399:404   */\n      dup2\n        /* \"#utility.yul\":388:404   */\n      swap1\n      pop\n        /* \"#utility.yul\":334:410   */\n      swap2\n      swap1\n      pop\n      jump\t// out\n        /* \"#utility.yul\":416:536   */\n    tag_29:\n        /* \"#utility.yul\":488:511   */\n      tag_46\n        /* \"#utility.yul\":505:510   */\n      dup2\n        /* \"#utility.yul\":488:511   */\n      tag_28\n      jump\t// in\n    tag_46:\n        /* \"#utility.yul\":481:486   */\n      dup2\n        /* \"#utility.yul\":478:512   */\n      eq\n        /* \"#utility.yul\":468:530   */\n      tag_47\n      jumpi\n        /* \"#utility.yul\":526:527   */\n      0x00\n        /* \"#utility.yul\":523:524   */\n      dup1\n        /* \"#utility.yul\":516:528   */\n      revert\n        /* \"#utility.yul\":468:530   */\n    tag_47:\n        /* \"#utility.yul\":416:536   */\n      pop\n      jump\t// out\n        /* \"#utility.yul\":542:679   */\n    tag_30:\n        /* \"#utility.yul\":587:592   */\n      0x00\n        /* \"#utility.yul\":625:631   */\n      dup2\n        /* \"#utility.yul\":612:632   */\n      calldataload\n        /* \"#utility.yul\":603:632   */\n      swap1\n      pop\n        /* \"#utility.yul\":641:673   */\n      tag_49\n        /* \"#utility.yul\":667:672   */\n      dup2\n        /* \"#utility.yul\":641:673   */\n      tag_29\n      jump\t// in\n    tag_49:\n        /* \"#utility.yul\":542:679   */\n      swap3\n      swap2\n      pop\n      pop\n      jump\t// out\n        /* \"#utility.yul\":685:1012   */\n    tag_6:\n        /* \"#utility.yul\":743:749   */\n      0x00\n        /* \"#utility.yul\":792:794   */\n      0x20\n        /* \"#utility.yul\":780:789   */\n      dup3\n        /* \"#utility.yul\":771:778   */\n      dup5\n        /* \"#utility.yul\":767:790   */\n      sub\n        /* \"#utility.yul\":763:795   */\n      slt\n        /* \"#utility.yul\":760:879   */\n      iszero\n      tag_51\n      jumpi\n        /* \"#utility.yul\":798:877   */\n      tag_52\n      tag_26\n      jump\t// in\n    tag_52:\n        /* \"#utility.yul\":760:879   */\n    tag_51:\n        /* \"#utility.yul\":918:919   */\n      0x00\n        /* \"#utility.yul\":943:995   */\n      tag_53\n        /* \"#utility.yul\":987:994   */\n      dup5\n        /* \"#utility.yul\":978:984   */\n      dup3\n        /* \"#utility.yul\":967:976   */\n      dup6\n        /* \"#utility.yul\":963:985   */\n      add\n        /* \"#utility.yul\":943:995   */\n      tag_30\n      jump\t// in\n    tag_53:\n        /* \"#utility.yul\":933:995   */\n      swap2\n      pop\n        /* \"#utility.yul\":889:1005   */\n      pop\n        /* \"#utility.yul\":685:1012   */\n      swap3\n      swap2\n      pop\n      pop\n      jump\t// out\n        /* \"#utility.yul\":1018:1133   */\n    tag_31:\n        /* \"#utility.yul\":1103:1126   */\n      tag_55\n        /* \"#utility.yul\":1120:1125   */\n      dup2\n        /* \"#utility.yul\":1103:1126   */\n      tag_28\n      jump\t// in\n    tag_55:\n        /* \"#utility.yul\":1098:1101   */\n      dup3\n        /* \"#utility.yul\":1091:1127   */\n      mstore\n        /* \"#utility.yul\":1018:1133   */\n      pop\n      pop\n      jump\t// out\n        /* \"#utility.yul\":1139:1357   */\n    tag_9:\n        /* \"#utility.yul\":1230:1234   */\n      0x00\n        /* \"#utility.yul\":1268:1270   */\n      0x20\n        /* \"#utility.yul\":1257:1266   */\n      dup3\n        /* \"#utility.yul\":1253:1271   */\n      add\n        /* \"#utility.yul\":1245:1271   */\n      swap1\n      pop\n        /* \"#utility.yul\":1281:1350   */\n      tag_57\n        /* \"#utility.yul\":1347:1348   */\n      0x00\n        /* \"#utility.yul\":1336:1345   */\n      dup4\n        /* \"#utility.yul\":1332:1349   */\n      add\n        /* \"#utility.yul\":1323:1329   */\n      dup5\n        /* \"#utility.yul\":1281:1350   */\n      tag_31\n      jump\t// in\n    tag_57:\n        /* \"#utility.yul\":1139:1357   */\n      swap3\n      swap2\n      pop\n      pop\n      jump\t// out\n        /* \"#utility.yul\":1363:1532   */\n    tag_32:\n        /* \"#utility.yul\":1447:1458   */\n      0x00\n        /* \"#utility.yul\":1481:1487   */\n      dup3\n        /* \"#utility.yul\":1476:1479   */\n      dup3\n        /* \"#utility.yul\":1469:1488   */\n      mstore\n        /* \"#utility.yul\":1521:1525   */\n      0x20\n        /* \"#utility.yul\":1516:1519   */\n      dup3\n        /* \"#utility.yul\":1512:1526   */\n      add\n        /* \"#utility.yul\":1497:1526   */\n      swap1\n      pop\n        /* \"#utility.yul\":1363:1532   */\n      swap3\n      swap2\n      pop\n      pop\n      jump\t// out\n        /* \"#utility.yul\":1538:1716   */\n    tag_33:\n        /* \"#utility.yul\":1678:1708   */\n      0x4e656761746976652076616c75652073686f756c642072657475726e00000000\n        /* \"#utility.yul\":1674:1675   */\n      0x00\n        /* \"#utility.yul\":1666:1672   */\n      dup3\n        /* \"#utility.yul\":1662:1676   */\n      add\n        /* \"#utility.yul\":1655:1709   */\n      mstore\n        /* \"#utility.yul\":1538:1716   */\n      pop\n      jump\t// out\n        /* \"#utility.yul\":1722:2088   */\n    tag_34:\n        /* \"#utility.yul\":1864:1867   */\n      0x00\n        /* \"#utility.yul\":1885:1952   */\n      tag_61\n        /* \"#utility.yul\":1949:1951   */\n      0x1c\n        /* \"#utility.yul\":1944:1947   */\n      dup4\n        /* \"#utility.yul\":1885:1952   */\n      tag_32\n      jump\t// in\n    tag_61:\n        /* \"#utility.yul\":1878:1952   */\n      swap2\n      pop\n        /* \"#utility.yul\":1961:2054   */\n      tag_62\n        /* \"#utility.yul\":2050:2053   */\n      dup3\n        /* \"#utility.yul\":1961:2054   */\n      tag_33\n      jump\t// in\n    tag_62:\n        /* \"#utility.yul\":2079:2081   */\n      0x20\n        /* \"#utility.yul\":2074:2077   */\n      dup3\n        /* \"#utility.yul\":2070:2082   */\n      add\n        /* \"#utility.yul\":2063:2082   */\n      swap1\n      pop\n        /* \"#utility.yul\":1722:2088   */\n      swap2\n      swap1\n      pop\n      jump\t// out\n        /* \"#utility.yul\":2094:2513   */\n    tag_13:\n        /* \"#utility.yul\":2260:2264   */\n      0x00\n        /* \"#utility.yul\":2298:2300   */\n      0x20\n        /* \"#utility.yul\":2287:2296   */\n      dup3\n        /* \"#utility.yul\":2283:2301   */\n      add\n        /* \"#utility.yul\":2275:2301   */\n      swap1\n      pop\n        /* \"#utility.yul\":2347:2356   */\n      dup2\n        /* \"#utility.yul\":2341:2345   */\n      dup2\n        /* \"#utility.yul\":2337:2357   */\n      sub\n        /* \"#utility.yul\":2333:2334   */\n      0x00\n        /* \"#utility.yul\":2322:2331   */\n      dup4\n        /* \"#utility.yul\":2318:2335   */\n      add\n        /* \"#utility.yul\":2311:2358   */\n      mstore\n        /* \"#utility.yul\":2375:2506   */\n      tag_64\n        /* \"#utility.yul\":2501:2505   */\n      dup2\n        /* \"#utility.yul\":2375:2506   */\n      tag_34\n      jump\t// in\n    tag_64:\n        /* \"#utility.yul\":2367:2506   */\n      swap1\n      pop\n        /* \"#utility.yul\":2094:2513   */\n      swap2\n      swap1\n      pop\n      jump\t// out\n        /* \"#utility.yul\":2519:2739   */\n    tag_35:\n        /* \"#utility.yul\":2659:2693   */\n      0x706f736974697665206576656e2076616c75652073686f756c64207265747572\n        /* \"#utility.yul\":2655:2656   */\n      0x00\n        /* \"#utility.yul\":2647:2653   */\n      dup3\n        /* \"#utility.yul\":2643:2657   */\n      add\n        /* \"#utility.yul\":2636:2694   */\n      mstore\n        /* \"#utility.yul\":2728:2731   */\n      0x6e00000000000000000000000000000000000000000000000000000000000000\n        /* \"#utility.yul\":2723:2725   */\n      0x20\n        /* \"#utility.yul\":2715:2721   */\n      dup3\n        /* \"#utility.yul\":2711:2726   */\n      add\n        /* \"#utility.yul\":2704:2732   */\n      mstore\n        /* \"#utility.yul\":2519:2739   */\n      pop\n      jump\t// out\n        /* \"#utility.yul\":2745:3111   */\n    tag_36:\n        /* \"#utility.yul\":2887:2890   */\n      0x00\n        /* \"#utility.yul\":2908:2975   */\n      tag_67\n        /* \"#utility.yul\":2972:2974   */\n      0x21\n        /* \"#utility.yul\":2967:2970   */\n      dup4\n        /* \"#utility.yul\":2908:2975   */\n      tag_32\n      jump\t// in\n    tag_67:\n        /* \"#utility.yul\":2901:2975   */\n      swap2\n      pop\n        /* \"#utility.yul\":2984:3077   */\n      tag_68\n        /* \"#utility.yul\":3073:3076   */\n      dup3\n        /* \"#utility.yul\":2984:3077   */\n      tag_35\n      jump\t// in\n    tag_68:\n        /* \"#utility.yul\":3102:3104   */\n      0x40\n        /* \"#utility.yul\":3097:3100   */\n      dup3\n        /* \"#utility.yul\":3093:3105   */\n      add\n        /* \"#utility.yul\":3086:3105   */\n      swap1\n      pop\n        /* \"#utility.yul\":2745:3111   */\n      swap2\n      swap1\n      pop\n      jump\t// out\n        /* \"#utility.yul\":3117:3536   */\n    tag_17:\n        /* \"#utility.yul\":3283:3287   */\n      0x00\n        /* \"#utility.yul\":3321:3323   */\n      0x20\n        /* \"#utility.yul\":3310:3319   */\n      dup3\n        /* \"#utility.yul\":3306:3324   */\n      add\n        /* \"#utility.yul\":3298:3324   */\n      swap1\n      pop\n        /* \"#utility.yul\":3370:3379   */\n      dup2\n        /* \"#utility.yul\":3364:3368   */\n      dup2\n        /* \"#utility.yul\":3360:3380   */\n      sub\n        /* \"#utility.yul\":3356:3357   */\n      0x00\n        /* \"#utility.yul\":3345:3354   */\n      dup4\n        /* \"#utility.yul\":3341:3358   */\n      add\n        /* \"#utility.yul\":3334:3381   */\n      mstore\n        /* \"#utility.yul\":3398:3529   */\n      tag_70\n        /* \"#utility.yul\":3524:3528   */\n      dup2\n        /* \"#utility.yul\":3398:3529   */\n      tag_36\n      jump\t// in\n    tag_70:\n        /* \"#utility.yul\":3390:3529   */\n      swap1\n      pop\n        /* \"#utility.yul\":3117:3536   */\n      swap2\n      swap1\n      pop\n      jump\t// out\n        /* \"#utility.yul\":3542:3722   */\n    tag_37:\n        /* \"#utility.yul\":3590:3667   */\n      0x4e487b7100000000000000000000000000000000000000000000000000000000\n        /* \"#utility.yul\":3587:3588   */\n      0x00\n        /* \"#utility.yul\":3580:3668   */\n      mstore\n        /* \"#utility.yul\":3687:3691   */\n      0x12\n        /* \"#utility.yul\":3684:3685   */\n      0x04\n        /* \"#utility.yul\":3677:3692   */\n      mstore\n        /* \"#utility.yul\":3711:3715   */\n      0x24\n        /* \"#utility.yul\":3708:3709   */\n      0x00\n        /* \"#utility.yul\":3701:3716   */\n      revert\n        /* \"#utility.yul\":3728:3902   */\n    tag_21:\n        /* \"#utility.yul\":3759:3760   */\n      0x00\n        /* \"#utility.yul\":3776:3795   */\n      tag_73\n        /* \"#utility.yul\":3793:3794   */\n      dup3\n        /* \"#utility.yul\":3776:3795   */\n      tag_28\n      jump\t// in\n    tag_73:\n        /* \"#utility.yul\":3771:3795   */\n      swap2\n      pop\n        /* \"#utility.yul\":3809:3828   */\n      tag_74\n        /* \"#utility.yul\":3826:3827   */\n      dup4\n        /* \"#utility.yul\":3809:3828   */\n      tag_28\n      jump\t// in\n    tag_74:\n        /* \"#utility.yul\":3804:3828   */\n      swap3\n      pop\n        /* \"#utility.yul\":3847:3848   */\n      dup3\n        /* \"#utility.yul\":3837:3872   */\n      tag_75\n      jumpi\n        /* \"#utility.yul\":3852:3870   */\n      tag_76\n      tag_37\n      jump\t// in\n    tag_76:\n        /* \"#utility.yul\":3837:3872   */\n    tag_75:\n        /* \"#utility.yul\":3894:3895   */\n      dup3\n        /* \"#utility.yul\":3891:3892   */\n      dup3\n        /* \"#utility.yul\":3886:3896   */\n      smod\n        /* \"#utility.yul\":3881:3896   */\n      swap1\n      pop\n        /* \"#utility.yul\":3728:3902   */\n      swap3\n      swap2\n      pop\n      pop\n      jump\t// out\n        /* \"#utility.yul\":3908:4090   */\n    tag_38:\n        /* \"#utility.yul\":4048:4082   */\n      0x706f736974697665206f64642076616c75652073686f756c642072657475726e\n        /* \"#utility.yul\":4044:4045   */\n      0x00\n        /* \"#utility.yul\":4036:4042   */\n      dup3\n        /* \"#utility.yul\":4032:4046   */\n      add\n        /* \"#utility.yul\":4025:4083   */\n      mstore\n        /* \"#utility.yul\":3908:4090   */\n      pop\n      jump\t// out\n        /* \"#utility.yul\":4096:4462   */\n    tag_39:\n        /* \"#utility.yul\":4238:4241   */\n      0x00\n        /* \"#utility.yul\":4259:4326   */\n      tag_79\n        /* \"#utility.yul\":4323:4325   */\n      0x20\n        /* \"#utility.yul\":4318:4321   */\n      dup4\n        /* \"#utility.yul\":4259:4326   */\n      tag_32\n      jump\t// in\n    tag_79:\n        /* \"#utility.yul\":4252:4326   */\n      swap2\n      pop\n        /* \"#utility.yul\":4335:4428   */\n      tag_80\n        /* \"#utility.yul\":4424:4427   */\n      dup3\n        /* \"#utility.yul\":4335:4428   */\n      tag_38\n      jump\t// in\n    tag_80:\n        /* \"#utility.yul\":4453:4455   */\n      0x20\n        /* \"#utility.yul\":4448:4451   */\n      dup3\n        /* \"#utility.yul\":4444:4456   */\n      add\n        /* \"#utility.yul\":4437:4456   */\n      swap1\n      pop\n        /* \"#utility.yul\":4096:4462   */\n      swap2\n      swap1\n      pop\n      jump\t// out\n        /* \"#utility.yul\":4468:4887   */\n    tag_24:\n        /* \"#utility.yul\":4634:4638   */\n      0x00\n        /* \"#utility.yul\":4672:4674   */\n      0x20\n        /* \"#utility.yul\":4661:4670   */\n      dup3\n        /* \"#utility.yul\":4657:4675   */\n      add\n        /* \"#utility.yul\":4649:4675   */\n      swap1\n      pop\n        /* \"#utility.yul\":4721:4730   */\n      dup2\n        /* \"#utility.yul\":4715:4719   */\n      dup2\n        /* \"#utility.yul\":4711:4731   */\n      sub\n        /* \"#utility.yul\":4707:4708   */\n      0x00\n        /* \"#utility.yul\":4696:4705   */\n      dup4\n        /* \"#utility.yul\":4692:4709   */\n      add\n        /* \"#utility.yul\":4685:4732   */\n      mstore\n        /* \"#utility.yul\":4749:4880   */\n      tag_82\n        /* \"#utility.yul\":4875:4879   */\n      dup2\n        /* \"#utility.yul\":4749:4880   */\n      tag_39\n      jump\t// in\n    tag_82:\n        /* \"#utility.yul\":4741:4880   */\n      swap1\n      pop\n        /* \"#utility.yul\":4468:4887   */\n      swap2\n      swap1\n      pop\n      jump\t// out\n\n    auxdata: 0xa2646970667358221220a3941d32fbf7f64f3ee341be2491eb457169c459ea7a0bb73130bf088304207264736f6c63430008120033\n}\n",
				"bytecode": {
					"linkReferences": {},
					"object": "608060405234801561001057600080fd5b5061040e806100206000396000f3fe608060405234801561001057600080fd5b506004361061002b5760003560e01c8063b59d797514610030575b600080fd5b61004a600480360381019061004591906101a6565b610060565b60405161005791906101e2565b60405180910390f35b60008060008060008512156100b2578492507f88444acfae0e701aeaf7b0f68d0cac19de73fa2dc21eda4b6b6399a0aa7be1b060405161009f9061025a565b60405180910390a1829350505050610166565b60008513156100fe578491507f88444acfae0e701aeaf7b0f68d0cac19de73fa2dc21eda4b6b6399a0aa7be1b06040516100eb906102ec565b60405180910390a1819350505050610166565b60008513801561011a57506001600286610118919061033b565b145b15610162578490507f88444acfae0e701aeaf7b0f68d0cac19de73fa2dc21eda4b6b6399a0aa7be1b060405161014f906103b8565b60405180910390a1809350505050610166565b5050505b919050565b600080fd5b6000819050919050565b61018381610170565b811461018e57600080fd5b50565b6000813590506101a08161017a565b92915050565b6000602082840312156101bc576101bb61016b565b5b60006101ca84828501610191565b91505092915050565b6101dc81610170565b82525050565b60006020820190506101f760008301846101d3565b92915050565b600082825260208201905092915050565b7f4e656761746976652076616c75652073686f756c642072657475726e00000000600082015250565b6000610244601c836101fd565b915061024f8261020e565b602082019050919050565b6000602082019050818103600083015261027381610237565b9050919050565b7f706f736974697665206576656e2076616c75652073686f756c6420726574757260008201527f6e00000000000000000000000000000000000000000000000000000000000000602082015250565b60006102d66021836101fd565b91506102e18261027a565b604082019050919050565b60006020820190508181036000830152610305816102c9565b9050919050565b7f4e487b7100000000000000000000000000000000000000000000000000000000600052601260045260246000fd5b600061034682610170565b915061035183610170565b9250826103615761036061030c565b5b828207905092915050565b7f706f736974697665206f64642076616c75652073686f756c642072657475726e600082015250565b60006103a26020836101fd565b91506103ad8261036c565b602082019050919050565b600060208201905081810360008301526103d181610395565b905091905056fea2646970667358221220a3941d32fbf7f64f3ee341be2491eb457169c459ea7a0bb73130bf088304207264736f6c63430008120033",
					"opcodes": "PUSH1 0x80 PUSH1 0x40 MSTORE CALLVALUE DUP1 ISZERO PUSH2 0x10 JUMPI PUSH1 0x0 DUP1 REVERT JUMPDEST POP PUSH2 0x40E DUP1 PUSH2 0x20 PUSH1 0x0 CODECOPY PUSH1 0x0 RETURN INVALID PUSH1 0x80 PUSH1 0x40 MSTORE CALLVALUE DUP1 ISZERO PUSH2 0x10 JUMPI PUSH1 0x0 DUP1 REVERT JUMPDEST POP PUSH1 0x4 CALLDATASIZE LT PUSH2 0x2B JUMPI PUSH1 0x0 CALLDATALOAD PUSH1 0xE0 SHR DUP1 PUSH4 0xB59D7975 EQ PUSH2 0x30 JUMPI JUMPDEST PUSH1 0x0 DUP1 REVERT JUMPDEST PUSH2 0x4A PUSH1 0x4 DUP1 CALLDATASIZE SUB DUP2 ADD SWAP1 PUSH2 0x45 SWAP2 SWAP1 PUSH2 0x1A6 JUMP JUMPDEST PUSH2 0x60 JUMP JUMPDEST PUSH1 0x40 MLOAD PUSH2 0x57 SWAP2 SWAP1 PUSH2 0x1E2 JUMP JUMPDEST PUSH1 0x40 MLOAD DUP1 SWAP2 SUB SWAP1 RETURN JUMPDEST PUSH1 0x0 DUP1 PUSH1 0x0 DUP1 PUSH1 0x0 DUP6 SLT ISZERO PUSH2 0xB2 JUMPI DUP5 SWAP3 POP PUSH32 0x88444ACFAE0E701AEAF7B0F68D0CAC19DE73FA2DC21EDA4B6B6399A0AA7BE1B0 PUSH1 0x40 MLOAD PUSH2 0x9F SWAP1 PUSH2 0x25A JUMP JUMPDEST PUSH1 0x40 MLOAD DUP1 SWAP2 SUB SWAP1 LOG1 DUP3 SWAP4 POP POP POP POP PUSH2 0x166 JUMP JUMPDEST PUSH1 0x0 DUP6 SGT ISZERO PUSH2 0xFE JUMPI DUP5 SWAP2 POP PUSH32 0x88444ACFAE0E701AEAF7B0F68D0CAC19DE73FA2DC21EDA4B6B6399A0AA7BE1B0 PUSH1 0x40 MLOAD PUSH2 0xEB SWAP1 PUSH2 0x2EC JUMP JUMPDEST PUSH1 0x40 MLOAD DUP1 SWAP2 SUB SWAP1 LOG1 DUP2 SWAP4 POP POP POP POP PUSH2 0x166 JUMP JUMPDEST PUSH1 0x0 DUP6 SGT DUP1 ISZERO PUSH2 0x11A JUMPI POP PUSH1 0x1 PUSH1 0x2 DUP7 PUSH2 0x118 SWAP2 SWAP1 PUSH2 0x33B JUMP JUMPDEST EQ JUMPDEST ISZERO PUSH2 0x162 JUMPI DUP5 SWAP1 POP PUSH32 0x88444ACFAE0E701AEAF7B0F68D0CAC19DE73FA2DC21EDA4B6B6399A0AA7BE1B0 PUSH1 0x40 MLOAD PUSH2 0x14F SWAP1 PUSH2 0x3B8 JUMP JUMPDEST PUSH1 0x40 MLOAD DUP1 SWAP2 SUB SWAP1 LOG1 DUP1 SWAP4 POP POP POP POP PUSH2 0x166 JUMP JUMPDEST POP POP POP JUMPDEST SWAP2 SWAP1 POP JUMP JUMPDEST PUSH1 0x0 DUP1 REVERT JUMPDEST PUSH1 0x0 DUP2 SWAP1 POP SWAP2 SWAP1 POP JUMP JUMPDEST PUSH2 0x183 DUP2 PUSH2 0x170 JUMP JUMPDEST DUP2 EQ PUSH2 0x18E JUMPI PUSH1 0x0 DUP1 REVERT JUMPDEST POP JUMP JUMPDEST PUSH1 0x0 DUP2 CALLDATALOAD SWAP1 POP PUSH2 0x1A0 DUP2 PUSH2 0x17A JUMP JUMPDEST SWAP3 SWAP2 POP POP JUMP JUMPDEST PUSH1 0x0 PUSH1 0x20 DUP3 DUP5 SUB SLT ISZERO PUSH2 0x1BC JUMPI PUSH2 0x1BB PUSH2 0x16B JUMP JUMPDEST JUMPDEST PUSH1 0x0 PUSH2 0x1CA DUP5 DUP3 DUP6 ADD PUSH2 0x191 JUMP JUMPDEST SWAP2 POP POP SWAP3 SWAP2 POP POP JUMP JUMPDEST PUSH2 0x1DC DUP2 PUSH2 0x170 JUMP JUMPDEST DUP3 MSTORE POP POP JUMP JUMPDEST PUSH1 0x0 PUSH1 0x20 DUP3 ADD SWAP1 POP PUSH2 0x1F7 PUSH1 0x0 DUP4 ADD DUP5 PUSH2 0x1D3 JUMP JUMPDEST SWAP3 SWAP2 POP POP JUMP JUMPDEST PUSH1 0x0 DUP3 DUP3 MSTORE PUSH1 0x20 DUP3 ADD SWAP1 POP SWAP3 SWAP2 POP POP JUMP JUMPDEST PUSH32 0x4E656761746976652076616C75652073686F756C642072657475726E00000000 PUSH1 0x0 DUP3 ADD MSTORE POP JUMP JUMPDEST PUSH1 0x0 PUSH2 0x244 PUSH1 0x1C DUP4 PUSH2 0x1FD JUMP JUMPDEST SWAP2 POP PUSH2 0x24F DUP3 PUSH2 0x20E JUMP JUMPDEST PUSH1 0x20 DUP3 ADD SWAP1 POP SWAP2 SWAP1 POP JUMP JUMPDEST PUSH1 0x0 PUSH1 0x20 DUP3 ADD SWAP1 POP DUP2 DUP2 SUB PUSH1 0x0 DUP4 ADD MSTORE PUSH2 0x273 DUP2 PUSH2 0x237 JUMP JUMPDEST SWAP1 POP SWAP2 SWAP1 POP JUMP JUMPDEST PUSH32 0x706F736974697665206576656E2076616C75652073686F756C64207265747572 PUSH1 0x0 DUP3 ADD MSTORE PUSH32 0x6E00000000000000000000000000000000000000000000000000000000000000 PUSH1 0x20 DUP3 ADD MSTORE POP JUMP JUMPDEST PUSH1 0x0 PUSH2 0x2D6 PUSH1 0x21 DUP4 PUSH2 0x1FD JUMP JUMPDEST SWAP2 POP PUSH2 0x2E1 DUP3 PUSH2 0x27A JUMP JUMPDEST PUSH1 0x40 DUP3 ADD SWAP1 POP SWAP2 SWAP1 POP JUMP JUMPDEST PUSH1 0x0 PUSH1 0x20 DUP3 ADD SWAP1 POP DUP2 DUP2 SUB PUSH1 0x0 DUP4 ADD MSTORE PUSH2 0x305 DUP2 PUSH2 0x2C9 JUMP JUMPDEST SWAP1 POP SWAP2 SWAP1 POP JUMP JUMPDEST PUSH32 0x4E487B7100000000000000000000000000000000000000000000000000000000 PUSH1 0x0 MSTORE PUSH1 0x12 PUSH1 0x4 MSTORE PUSH1 0x24 PUSH1 0x0 REVERT JUMPDEST PUSH1 0x0 PUSH2 0x346 DUP3 PUSH2 0x170 JUMP JUMPDEST SWAP2 POP PUSH2 0x351 DUP4 PUSH2 0x170 JUMP JUMPDEST SWAP3 POP DUP3 PUSH2 0x361 JUMPI PUSH2 0x360 PUSH2 0x30C JUMP JUMPDEST JUMPDEST DUP3 DUP3 SMOD SWAP1 POP SWAP3 SWAP2 POP POP JUMP JUMPDEST PUSH32 0x706F736974697665206F64642076616C75652073686F756C642072657475726E PUSH1 0x0 DUP3 ADD MSTORE POP JUMP JUMPDEST PUSH1 0x0 PUSH2 0x3A2 PUSH1 0x20 DUP4 PUSH2 0x1FD JUMP JUMPDEST SWAP2 POP PUSH2 0x3AD DUP3 PUSH2 0x36C JUMP JUMPDEST PUSH1 0x20 DUP3 ADD SWAP1 POP SWAP2 SWAP1 POP JUMP JUMPDEST PUSH1 0x0 PUSH1 0x20 DUP3 ADD SWAP1 POP DUP2 DUP2 SUB PUSH1 0x0 DUP4 ADD MSTORE PUSH2 0x3D1 DUP2 PUSH2 0x395 JUMP JUMPDEST SWAP1 POP SWAP2 SWAP1 POP JUMP INVALID LOG2 PUSH5 0x6970667358 0x22 SLT KECCAK256 LOG3 SWAP5 SAR ORIGIN 0xFB 0xF7 0xF6 0x4F RETURNDATACOPY 0xE3 COINBASE 0xBE 0x24 SWAP2 0xEB GASLIMIT PUSH18 0x69C459EA7A0BB73130BF088304207264736F PUSH13 0x63430008120033000000000000 "
				},
				"gasEstimates": {
					"creation": {
						"codeDepositCost": "207600",
						"executionCost": "251",
						"totalCost": "207851"
					},
					"external": {
						"numgive(int256)": "infinite"
					}
				},
				"methodIdentifiers": {
					"numgive(int256)": "b59d7975"
				}
			},
			"storageLayout": {
				"storage": [],
				"types": null
			},
			"userdoc": {
				"kind": "user",
				"methods": {},
				"version": 1
			}
		}
	}
}