{
	"Lab 11-08-2023/exe1.sol": {
		"Events": {
			"abi": [
				{
					"anonymous": false,
					"inputs": [],
					"name": "empty",
					"type": "event"
				},
				{
					"anonymous": false,
					"inputs": [
						{
							"indexed": false,
							"internalType": "string",
							"name": "",
							"type": "string"
						},
						{
							"indexed": false,
							"internalType": "enum Events.Quality",
							"name": "",
							"type": "uint8"
						}
					],
					"name": "mu",
					"type": "event"
				},
				{
					"anonymous": false,
					"inputs": [
						{
							"indexed": false,
							"internalType": "string",
							"name": "laptop",
							"type": "string"
						},
						{
							"indexed": false,
							"internalType": "uint256",
							"name": "price",
							"type": "uint256"
						}
					],
					"name": "multi",
					"type": "event"
				},
				{
					"anonymous": false,
					"inputs": [
						{
							"indexed": false,
							"internalType": "string",
							"name": "laptop",
							"type": "string"
						},
						{
							"indexed": true,
							"internalType": "uint256",
							"name": "price",
							"type": "uint256"
						},
						{
							"indexed": true,
							"internalType": "enum Events.Quality",
							"name": "q",
							"type": "uint8"
						},
						{
							"components": [
								{
									"internalType": "string",
									"name": "microprocessor",
									"type": "string"
								},
								{
									"internalType": "uint256",
									"name": "Ram",
									"type": "uint256"
								}
							],
							"indexed": true,
							"internalType": "struct specs",
							"name": "s",
							"type": "tuple"
						}
					],
					"name": "multiple",
					"type": "event"
				},
				{
					"inputs": [],
					"name": "emits",
					"outputs": [],
					"stateMutability": "nonpayable",
					"type": "function"
				}
			],
			"devdoc": {
				"kind": "dev",
				"methods": {},
				"version": 1
			},
			"evm": {
				"assembly": "    /* \"Lab 11-08-2023/exe1.sol\":130:645  contract Events {... */\n  mstore(0x40, 0x80)\n  callvalue\n  dup1\n  iszero\n  tag_1\n  jumpi\n  0x00\n  dup1\n  revert\ntag_1:\n  pop\n  dataSize(sub_0)\n  dup1\n  dataOffset(sub_0)\n  0x00\n  codecopy\n  0x00\n  return\nstop\n\nsub_0: assembly {\n        /* \"Lab 11-08-2023/exe1.sol\":130:645  contract Events {... */\n      mstore(0x40, 0x80)\n      callvalue\n      dup1\n      iszero\n      tag_1\n      jumpi\n      0x00\n      dup1\n      revert\n    tag_1:\n      pop\n      jumpi(tag_2, lt(calldatasize, 0x04))\n      shr(0xe0, calldataload(0x00))\n      dup1\n      0xf6fac9f5\n      eq\n      tag_3\n      jumpi\n    tag_2:\n      0x00\n      dup1\n      revert\n        /* \"Lab 11-08-2023/exe1.sol\":399:622  function emits() public  {... */\n    tag_3:\n      tag_4\n      tag_5\n      jump\t// in\n    tag_4:\n      stop\n    tag_5:\n        /* \"Lab 11-08-2023/exe1.sol\":436:455  multi(\"hp\", 340000) */\n      0x0d9f69314e834cd1fcb9f6af7a4fa384c01b253b675920042ab32273de670590\n        /* \"Lab 11-08-2023/exe1.sol\":448:454  340000 */\n      0x053020\n        /* \"Lab 11-08-2023/exe1.sol\":436:455  multi(\"hp\", 340000) */\n      mload(0x40)\n      tag_7\n      swap2\n      swap1\n      tag_8\n      jump\t// in\n    tag_7:\n      mload(0x40)\n      dup1\n      swap2\n      sub\n      swap1\n      log1\n        /* \"Lab 11-08-2023/exe1.sol\":508:530  specs(\"nividia\" , 345) */\n      mload(0x40)\n      dup1\n      0x40\n      add\n      0x40\n      mstore\n      dup1\n      mload(0x40)\n      dup1\n      0x40\n      add\n      0x40\n      mstore\n      dup1\n      0x07\n      dup2\n      mstore\n      0x20\n      add\n      0x6e69766964696100000000000000000000000000000000000000000000000000\n      dup2\n      mstore\n      pop\n      dup2\n      mstore\n      0x20\n      add\n        /* \"Lab 11-08-2023/exe1.sol\":526:529  345 */\n      0x0159\n        /* \"Lab 11-08-2023/exe1.sol\":508:530  specs(\"nividia\" , 345) */\n      dup2\n      mstore\n      pop\n        /* \"Lab 11-08-2023/exe1.sol\":467:531  multiple(\"lenovo\", 234444, Quality.Good, specs(\"nividia\" , 345)) */\n      mload(0x40)\n      tag_9\n      swap2\n      swap1\n      tag_10\n      jump\t// in\n    tag_9:\n      mload(0x40)\n      dup1\n      swap2\n      sub\n      swap1\n      keccak256\n        /* \"Lab 11-08-2023/exe1.sol\":494:506  Quality.Good */\n      0x00\n        /* \"Lab 11-08-2023/exe1.sol\":467:531  multiple(\"lenovo\", 234444, Quality.Good, specs(\"nividia\" , 345)) */\n      0x02\n      dup2\n      gt\n      iszero\n      tag_11\n      jumpi\n      tag_12\n      tag_13\n      jump\t// in\n    tag_12:\n    tag_11:\n        /* \"Lab 11-08-2023/exe1.sol\":486:492  234444 */\n      0x0393cc\n        /* \"Lab 11-08-2023/exe1.sol\":467:531  multiple(\"lenovo\", 234444, Quality.Good, specs(\"nividia\" , 345)) */\n      0xb7cb3e49b4ec09a148706bede73dce11f05491dc27eed607696709426603d7ff\n      mload(0x40)\n      tag_14\n      swap1\n      tag_15\n      jump\t// in\n    tag_14:\n      mload(0x40)\n      dup1\n      swap2\n      sub\n      swap1\n      log4\n        /* \"Lab 11-08-2023/exe1.sol\":546:565  multi(\"hp\", 340000) */\n      0x0d9f69314e834cd1fcb9f6af7a4fa384c01b253b675920042ab32273de670590\n        /* \"Lab 11-08-2023/exe1.sol\":558:564  340000 */\n      0x053020\n        /* \"Lab 11-08-2023/exe1.sol\":546:565  multi(\"hp\", 340000) */\n      mload(0x40)\n      tag_16\n      swap2\n      swap1\n      tag_8\n      jump\t// in\n    tag_16:\n      mload(0x40)\n      dup1\n      swap2\n      sub\n      swap1\n      log1\n        /* \"Lab 11-08-2023/exe1.sol\":575:603  mu(\"Dell\", Quality.Moderate) */\n      0xdb5314170881fa5fdd3e9921dbc50bd6b3d983b71f6866474ed235614e4ada9e\n        /* \"Lab 11-08-2023/exe1.sol\":586:602  Quality.Moderate */\n      0x01\n        /* \"Lab 11-08-2023/exe1.sol\":575:603  mu(\"Dell\", Quality.Moderate) */\n      mload(0x40)\n      tag_17\n      swap2\n      swap1\n      tag_18\n      jump\t// in\n    tag_17:\n      mload(0x40)\n      dup1\n      swap2\n      sub\n      swap1\n      log1\n        /* \"Lab 11-08-2023/exe1.sol\":611:618  empty() */\n      0xf2a75fe4d7cd25bbe769d566fbf5a20c67283479ab765ae5857c5ba963305b55\n      mload(0x40)\n      mload(0x40)\n      dup1\n      swap2\n      sub\n      swap1\n      log1\n        /* \"Lab 11-08-2023/exe1.sol\":399:622  function emits() public  {... */\n      jump\t// out\n        /* \"#utility.yul\":7:176   */\n    tag_19:\n        /* \"#utility.yul\":91:102   */\n      0x00\n        /* \"#utility.yul\":125:131   */\n      dup3\n        /* \"#utility.yul\":120:123   */\n      dup3\n        /* \"#utility.yul\":113:132   */\n      mstore\n        /* \"#utility.yul\":165:169   */\n      0x20\n        /* \"#utility.yul\":160:163   */\n      dup3\n        /* \"#utility.yul\":156:170   */\n      add\n        /* \"#utility.yul\":141:170   */\n      swap1\n      pop\n        /* \"#utility.yul\":7:176   */\n      swap3\n      swap2\n      pop\n      pop\n      jump\t// out\n        /* \"#utility.yul\":182:334   */\n    tag_20:\n        /* \"#utility.yul\":322:326   */\n      0x6870000000000000000000000000000000000000000000000000000000000000\n        /* \"#utility.yul\":318:319   */\n      0x00\n        /* \"#utility.yul\":310:316   */\n      dup3\n        /* \"#utility.yul\":306:320   */\n      add\n        /* \"#utility.yul\":299:327   */\n      mstore\n        /* \"#utility.yul\":182:334   */\n      pop\n      jump\t// out\n        /* \"#utility.yul\":340:705   */\n    tag_21:\n        /* \"#utility.yul\":482:485   */\n      0x00\n        /* \"#utility.yul\":503:569   */\n      tag_48\n        /* \"#utility.yul\":567:568   */\n      0x02\n        /* \"#utility.yul\":562:565   */\n      dup4\n        /* \"#utility.yul\":503:569   */\n      tag_19\n      jump\t// in\n    tag_48:\n        /* \"#utility.yul\":496:569   */\n      swap2\n      pop\n        /* \"#utility.yul\":578:671   */\n      tag_49\n        /* \"#utility.yul\":667:670   */\n      dup3\n        /* \"#utility.yul\":578:671   */\n      tag_20\n      jump\t// in\n    tag_49:\n        /* \"#utility.yul\":696:698   */\n      0x20\n        /* \"#utility.yul\":691:694   */\n      dup3\n        /* \"#utility.yul\":687:699   */\n      add\n        /* \"#utility.yul\":680:699   */\n      swap1\n      pop\n        /* \"#utility.yul\":340:705   */\n      swap2\n      swap1\n      pop\n      jump\t// out\n        /* \"#utility.yul\":711:801   */\n    tag_22:\n        /* \"#utility.yul\":761:768   */\n      0x00\n        /* \"#utility.yul\":790:795   */\n      dup2\n        /* \"#utility.yul\":779:795   */\n      swap1\n      pop\n        /* \"#utility.yul\":711:801   */\n      swap2\n      swap1\n      pop\n      jump\t// out\n        /* \"#utility.yul\":807:884   */\n    tag_23:\n        /* \"#utility.yul\":844:851   */\n      0x00\n        /* \"#utility.yul\":873:878   */\n      dup2\n        /* \"#utility.yul\":862:878   */\n      swap1\n      pop\n        /* \"#utility.yul\":807:884   */\n      swap2\n      swap1\n      pop\n      jump\t// out\n        /* \"#utility.yul\":890:950   */\n    tag_24:\n        /* \"#utility.yul\":918:921   */\n      0x00\n        /* \"#utility.yul\":939:944   */\n      dup2\n        /* \"#utility.yul\":932:944   */\n      swap1\n      pop\n        /* \"#utility.yul\":890:950   */\n      swap2\n      swap1\n      pop\n      jump\t// out\n        /* \"#utility.yul\":956:1124   */\n    tag_25:\n        /* \"#utility.yul\":1019:1028   */\n      0x00\n        /* \"#utility.yul\":1052:1118   */\n      tag_54\n        /* \"#utility.yul\":1070:1117   */\n      tag_55\n        /* \"#utility.yul\":1079:1116   */\n      tag_56\n        /* \"#utility.yul\":1110:1115   */\n      dup5\n        /* \"#utility.yul\":1079:1116   */\n      tag_22\n      jump\t// in\n    tag_56:\n        /* \"#utility.yul\":1070:1117   */\n      tag_24\n      jump\t// in\n    tag_55:\n        /* \"#utility.yul\":1052:1118   */\n      tag_23\n      jump\t// in\n    tag_54:\n        /* \"#utility.yul\":1039:1118   */\n      swap1\n      pop\n        /* \"#utility.yul\":956:1124   */\n      swap2\n      swap1\n      pop\n      jump\t// out\n        /* \"#utility.yul\":1130:1287   */\n    tag_26:\n        /* \"#utility.yul\":1230:1280   */\n      tag_58\n        /* \"#utility.yul\":1274:1279   */\n      dup2\n        /* \"#utility.yul\":1230:1280   */\n      tag_25\n      jump\t// in\n    tag_58:\n        /* \"#utility.yul\":1225:1228   */\n      dup3\n        /* \"#utility.yul\":1218:1281   */\n      mstore\n        /* \"#utility.yul\":1130:1287   */\n      pop\n      pop\n      jump\t// out\n        /* \"#utility.yul\":1293:1848   */\n    tag_8:\n        /* \"#utility.yul\":1500:1504   */\n      0x00\n        /* \"#utility.yul\":1538:1540   */\n      0x40\n        /* \"#utility.yul\":1527:1536   */\n      dup3\n        /* \"#utility.yul\":1523:1541   */\n      add\n        /* \"#utility.yul\":1515:1541   */\n      swap1\n      pop\n        /* \"#utility.yul\":1587:1596   */\n      dup2\n        /* \"#utility.yul\":1581:1585   */\n      dup2\n        /* \"#utility.yul\":1577:1597   */\n      sub\n        /* \"#utility.yul\":1573:1574   */\n      0x00\n        /* \"#utility.yul\":1562:1571   */\n      dup4\n        /* \"#utility.yul\":1558:1575   */\n      add\n        /* \"#utility.yul\":1551:1598   */\n      mstore\n        /* \"#utility.yul\":1615:1746   */\n      tag_60\n        /* \"#utility.yul\":1741:1745   */\n      dup2\n        /* \"#utility.yul\":1615:1746   */\n      tag_21\n      jump\t// in\n    tag_60:\n        /* \"#utility.yul\":1607:1746   */\n      swap1\n      pop\n        /* \"#utility.yul\":1756:1841   */\n      tag_61\n        /* \"#utility.yul\":1837:1839   */\n      0x20\n        /* \"#utility.yul\":1826:1835   */\n      dup4\n        /* \"#utility.yul\":1822:1840   */\n      add\n        /* \"#utility.yul\":1813:1819   */\n      dup5\n        /* \"#utility.yul\":1756:1841   */\n      tag_26\n      jump\t// in\n    tag_61:\n        /* \"#utility.yul\":1293:1848   */\n      swap3\n      swap2\n      pop\n      pop\n      jump\t// out\n        /* \"#utility.yul\":1854:1953   */\n    tag_27:\n        /* \"#utility.yul\":1906:1912   */\n      0x00\n        /* \"#utility.yul\":1940:1945   */\n      dup2\n        /* \"#utility.yul\":1934:1946   */\n      mload\n        /* \"#utility.yul\":1924:1946   */\n      swap1\n      pop\n        /* \"#utility.yul\":1854:1953   */\n      swap2\n      swap1\n      pop\n      jump\t// out\n        /* \"#utility.yul\":1959:2087   */\n    tag_28:\n        /* \"#utility.yul\":2041:2052   */\n      0x00\n        /* \"#utility.yul\":2078:2081   */\n      dup2\n        /* \"#utility.yul\":2063:2081   */\n      swap1\n      pop\n        /* \"#utility.yul\":1959:2087   */\n      swap3\n      swap2\n      pop\n      pop\n      jump\t// out\n        /* \"#utility.yul\":2093:2339   */\n    tag_29:\n        /* \"#utility.yul\":2174:2175   */\n      0x00\n        /* \"#utility.yul\":2184:2297   */\n    tag_65:\n        /* \"#utility.yul\":2198:2204   */\n      dup4\n        /* \"#utility.yul\":2195:2196   */\n      dup2\n        /* \"#utility.yul\":2192:2205   */\n      lt\n        /* \"#utility.yul\":2184:2297   */\n      iszero\n      tag_67\n      jumpi\n        /* \"#utility.yul\":2283:2284   */\n      dup1\n        /* \"#utility.yul\":2278:2281   */\n      dup3\n        /* \"#utility.yul\":2274:2285   */\n      add\n        /* \"#utility.yul\":2268:2286   */\n      mload\n        /* \"#utility.yul\":2264:2265   */\n      dup2\n        /* \"#utility.yul\":2259:2262   */\n      dup5\n        /* \"#utility.yul\":2255:2266   */\n      add\n        /* \"#utility.yul\":2248:2287   */\n      mstore\n        /* \"#utility.yul\":2220:2222   */\n      0x20\n        /* \"#utility.yul\":2217:2218   */\n      dup2\n        /* \"#utility.yul\":2213:2223   */\n      add\n        /* \"#utility.yul\":2208:2223   */\n      swap1\n      pop\n        /* \"#utility.yul\":2184:2297   */\n      jump(tag_65)\n    tag_67:\n        /* \"#utility.yul\":2331:2332   */\n      0x00\n        /* \"#utility.yul\":2322:2328   */\n      dup5\n        /* \"#utility.yul\":2317:2320   */\n      dup5\n        /* \"#utility.yul\":2313:2329   */\n      add\n        /* \"#utility.yul\":2306:2333   */\n      mstore\n        /* \"#utility.yul\":2155:2339   */\n      pop\n        /* \"#utility.yul\":2093:2339   */\n      pop\n      pop\n      pop\n      jump\t// out\n        /* \"#utility.yul\":2345:2447   */\n    tag_30:\n        /* \"#utility.yul\":2386:2392   */\n      0x00\n        /* \"#utility.yul\":2437:2439   */\n      0x1f\n        /* \"#utility.yul\":2433:2440   */\n      not\n        /* \"#utility.yul\":2428:2430   */\n      0x1f\n        /* \"#utility.yul\":2421:2426   */\n      dup4\n        /* \"#utility.yul\":2417:2431   */\n      add\n        /* \"#utility.yul\":2413:2441   */\n      and\n        /* \"#utility.yul\":2403:2441   */\n      swap1\n      pop\n        /* \"#utility.yul\":2345:2447   */\n      swap2\n      swap1\n      pop\n      jump\t// out\n        /* \"#utility.yul\":2453:2826   */\n    tag_31:\n        /* \"#utility.yul\":2539:2542   */\n      0x00\n        /* \"#utility.yul\":2567:2606   */\n      tag_70\n        /* \"#utility.yul\":2600:2605   */\n      dup3\n        /* \"#utility.yul\":2567:2606   */\n      tag_27\n      jump\t// in\n    tag_70:\n        /* \"#utility.yul\":2622:2691   */\n      tag_71\n        /* \"#utility.yul\":2684:2690   */\n      dup2\n        /* \"#utility.yul\":2679:2682   */\n      dup6\n        /* \"#utility.yul\":2622:2691   */\n      tag_28\n      jump\t// in\n    tag_71:\n        /* \"#utility.yul\":2615:2691   */\n      swap4\n      pop\n        /* \"#utility.yul\":2700:2765   */\n      tag_72\n        /* \"#utility.yul\":2758:2764   */\n      dup2\n        /* \"#utility.yul\":2753:2756   */\n      dup6\n        /* \"#utility.yul\":2746:2750   */\n      0x20\n        /* \"#utility.yul\":2739:2744   */\n      dup7\n        /* \"#utility.yul\":2735:2751   */\n      add\n        /* \"#utility.yul\":2700:2765   */\n      tag_29\n      jump\t// in\n    tag_72:\n        /* \"#utility.yul\":2790:2819   */\n      tag_73\n        /* \"#utility.yul\":2812:2818   */\n      dup2\n        /* \"#utility.yul\":2790:2819   */\n      tag_30\n      jump\t// in\n    tag_73:\n        /* \"#utility.yul\":2785:2788   */\n      dup5\n        /* \"#utility.yul\":2781:2820   */\n      add\n        /* \"#utility.yul\":2774:2820   */\n      swap2\n      pop\n        /* \"#utility.yul\":2543:2826   */\n      pop\n        /* \"#utility.yul\":2453:2826   */\n      swap3\n      swap2\n      pop\n      pop\n      jump\t// out\n        /* \"#utility.yul\":2832:3044   */\n    tag_32:\n        /* \"#utility.yul\":2929:2939   */\n      0x00\n        /* \"#utility.yul\":2964:3038   */\n      tag_75\n        /* \"#utility.yul\":3034:3037   */\n      dup4\n        /* \"#utility.yul\":3026:3032   */\n      dup4\n        /* \"#utility.yul\":2964:3038   */\n      tag_31\n      jump\t// in\n    tag_75:\n        /* \"#utility.yul\":2950:3038   */\n      swap1\n      pop\n        /* \"#utility.yul\":2832:3044   */\n      swap3\n      swap2\n      pop\n      pop\n      jump\t// out\n        /* \"#utility.yul\":3050:3166   */\n    tag_33:\n        /* \"#utility.yul\":3135:3159   */\n      tag_77\n        /* \"#utility.yul\":3153:3158   */\n      dup2\n        /* \"#utility.yul\":3135:3159   */\n      tag_23\n      jump\t// in\n    tag_77:\n        /* \"#utility.yul\":3130:3133   */\n      dup3\n        /* \"#utility.yul\":3123:3160   */\n      mstore\n        /* \"#utility.yul\":3050:3166   */\n      pop\n      pop\n      jump\t// out\n        /* \"#utility.yul\":3172:3367   */\n    tag_34:\n        /* \"#utility.yul\":3249:3259   */\n      0x00\n        /* \"#utility.yul\":3270:3324   */\n      tag_79\n        /* \"#utility.yul\":3320:3323   */\n      dup4\n        /* \"#utility.yul\":3312:3318   */\n      dup4\n        /* \"#utility.yul\":3270:3324   */\n      tag_33\n      jump\t// in\n    tag_79:\n        /* \"#utility.yul\":3356:3360   */\n      0x20\n        /* \"#utility.yul\":3351:3354   */\n      dup4\n        /* \"#utility.yul\":3347:3361   */\n      add\n        /* \"#utility.yul\":3333:3361   */\n      swap1\n      pop\n        /* \"#utility.yul\":3172:3367   */\n      swap3\n      swap2\n      pop\n      pop\n      jump\t// out\n        /* \"#utility.yul\":3409:4008   */\n    tag_35:\n        /* \"#utility.yul\":3536:3539   */\n      0x00\n        /* \"#utility.yul\":3572:3576   */\n      dup1\n        /* \"#utility.yul\":3567:3570   */\n      dup4\n        /* \"#utility.yul\":3563:3577   */\n      add\n        /* \"#utility.yul\":3669:3673   */\n      0x00\n        /* \"#utility.yul\":3662:3667   */\n      dup4\n        /* \"#utility.yul\":3658:3674   */\n      add\n        /* \"#utility.yul\":3652:3675   */\n      mload\n        /* \"#utility.yul\":3695:3785   */\n      tag_81\n        /* \"#utility.yul\":3781:3784   */\n      dup6\n        /* \"#utility.yul\":3767:3779   */\n      dup3\n        /* \"#utility.yul\":3695:3785   */\n      tag_32\n      jump\t// in\n    tag_81:\n        /* \"#utility.yul\":3688:3785   */\n      swap5\n      pop\n        /* \"#utility.yul\":3587:3795   */\n      pop\n        /* \"#utility.yul\":3876:3880   */\n      0x20\n        /* \"#utility.yul\":3869:3874   */\n      dup4\n        /* \"#utility.yul\":3865:3881   */\n      add\n        /* \"#utility.yul\":3859:3882   */\n      mload\n        /* \"#utility.yul\":3902:3972   */\n      tag_82\n        /* \"#utility.yul\":3968:3971   */\n      dup6\n        /* \"#utility.yul\":3954:3966   */\n      dup3\n        /* \"#utility.yul\":3902:3972   */\n      tag_34\n      jump\t// in\n    tag_82:\n        /* \"#utility.yul\":3895:3972   */\n      swap5\n      pop\n        /* \"#utility.yul\":3805:3982   */\n      pop\n        /* \"#utility.yul\":3999:4002   */\n      dup4\n        /* \"#utility.yul\":3992:4002   */\n      swap2\n      pop\n        /* \"#utility.yul\":3541:4008   */\n      pop\n        /* \"#utility.yul\":3409:4008   */\n      swap3\n      swap2\n      pop\n      pop\n      jump\t// out\n        /* \"#utility.yul\":4014:4329   */\n    tag_10:\n        /* \"#utility.yul\":4166:4169   */\n      0x00\n        /* \"#utility.yul\":4188:4303   */\n      tag_84\n        /* \"#utility.yul\":4299:4302   */\n      dup3\n        /* \"#utility.yul\":4290:4296   */\n      dup5\n        /* \"#utility.yul\":4188:4303   */\n      tag_35\n      jump\t// in\n    tag_84:\n        /* \"#utility.yul\":4181:4303   */\n      swap2\n      pop\n        /* \"#utility.yul\":4320:4323   */\n      dup2\n        /* \"#utility.yul\":4313:4323   */\n      swap1\n      pop\n        /* \"#utility.yul\":4014:4329   */\n      swap3\n      swap2\n      pop\n      pop\n      jump\t// out\n        /* \"#utility.yul\":4335:4515   */\n    tag_13:\n        /* \"#utility.yul\":4383:4460   */\n      0x4e487b7100000000000000000000000000000000000000000000000000000000\n        /* \"#utility.yul\":4380:4381   */\n      0x00\n        /* \"#utility.yul\":4373:4461   */\n      mstore\n        /* \"#utility.yul\":4480:4484   */\n      0x21\n        /* \"#utility.yul\":4477:4478   */\n      0x04\n        /* \"#utility.yul\":4470:4485   */\n      mstore\n        /* \"#utility.yul\":4504:4508   */\n      0x24\n        /* \"#utility.yul\":4501:4502   */\n      0x00\n        /* \"#utility.yul\":4494:4509   */\n      revert\n        /* \"#utility.yul\":4521:4677   */\n    tag_36:\n        /* \"#utility.yul\":4661:4669   */\n      0x6c656e6f766f0000000000000000000000000000000000000000000000000000\n        /* \"#utility.yul\":4657:4658   */\n      0x00\n        /* \"#utility.yul\":4649:4655   */\n      dup3\n        /* \"#utility.yul\":4645:4659   */\n      add\n        /* \"#utility.yul\":4638:4670   */\n      mstore\n        /* \"#utility.yul\":4521:4677   */\n      pop\n      jump\t// out\n        /* \"#utility.yul\":4683:5048   */\n    tag_37:\n        /* \"#utility.yul\":4825:4828   */\n      0x00\n        /* \"#utility.yul\":4846:4912   */\n      tag_88\n        /* \"#utility.yul\":4910:4911   */\n      0x06\n        /* \"#utility.yul\":4905:4908   */\n      dup4\n        /* \"#utility.yul\":4846:4912   */\n      tag_19\n      jump\t// in\n    tag_88:\n        /* \"#utility.yul\":4839:4912   */\n      swap2\n      pop\n        /* \"#utility.yul\":4921:5014   */\n      tag_89\n        /* \"#utility.yul\":5010:5013   */\n      dup3\n        /* \"#utility.yul\":4921:5014   */\n      tag_36\n      jump\t// in\n    tag_89:\n        /* \"#utility.yul\":5039:5041   */\n      0x20\n        /* \"#utility.yul\":5034:5037   */\n      dup3\n        /* \"#utility.yul\":5030:5042   */\n      add\n        /* \"#utility.yul\":5023:5042   */\n      swap1\n      pop\n        /* \"#utility.yul\":4683:5048   */\n      swap2\n      swap1\n      pop\n      jump\t// out\n        /* \"#utility.yul\":5054:5473   */\n    tag_15:\n        /* \"#utility.yul\":5220:5224   */\n      0x00\n        /* \"#utility.yul\":5258:5260   */\n      0x20\n        /* \"#utility.yul\":5247:5256   */\n      dup3\n        /* \"#utility.yul\":5243:5261   */\n      add\n        /* \"#utility.yul\":5235:5261   */\n      swap1\n      pop\n        /* \"#utility.yul\":5307:5316   */\n      dup2\n        /* \"#utility.yul\":5301:5305   */\n      dup2\n        /* \"#utility.yul\":5297:5317   */\n      sub\n        /* \"#utility.yul\":5293:5294   */\n      0x00\n        /* \"#utility.yul\":5282:5291   */\n      dup4\n        /* \"#utility.yul\":5278:5295   */\n      add\n        /* \"#utility.yul\":5271:5318   */\n      mstore\n        /* \"#utility.yul\":5335:5466   */\n      tag_91\n        /* \"#utility.yul\":5461:5465   */\n      dup2\n        /* \"#utility.yul\":5335:5466   */\n      tag_37\n      jump\t// in\n    tag_91:\n        /* \"#utility.yul\":5327:5466   */\n      swap1\n      pop\n        /* \"#utility.yul\":5054:5473   */\n      swap2\n      swap1\n      pop\n      jump\t// out\n        /* \"#utility.yul\":5479:5633   */\n    tag_38:\n        /* \"#utility.yul\":5619:5625   */\n      0x44656c6c00000000000000000000000000000000000000000000000000000000\n        /* \"#utility.yul\":5615:5616   */\n      0x00\n        /* \"#utility.yul\":5607:5613   */\n      dup3\n        /* \"#utility.yul\":5603:5617   */\n      add\n        /* \"#utility.yul\":5596:5626   */\n      mstore\n        /* \"#utility.yul\":5479:5633   */\n      pop\n      jump\t// out\n        /* \"#utility.yul\":5639:6004   */\n    tag_39:\n        /* \"#utility.yul\":5781:5784   */\n      0x00\n        /* \"#utility.yul\":5802:5868   */\n      tag_94\n        /* \"#utility.yul\":5866:5867   */\n      0x04\n        /* \"#utility.yul\":5861:5864   */\n      dup4\n        /* \"#utility.yul\":5802:5868   */\n      tag_19\n      jump\t// in\n    tag_94:\n        /* \"#utility.yul\":5795:5868   */\n      swap2\n      pop\n        /* \"#utility.yul\":5877:5970   */\n      tag_95\n        /* \"#utility.yul\":5966:5969   */\n      dup3\n        /* \"#utility.yul\":5877:5970   */\n      tag_38\n      jump\t// in\n    tag_95:\n        /* \"#utility.yul\":5995:5997   */\n      0x20\n        /* \"#utility.yul\":5990:5993   */\n      dup3\n        /* \"#utility.yul\":5986:5998   */\n      add\n        /* \"#utility.yul\":5979:5998   */\n      swap1\n      pop\n        /* \"#utility.yul\":5639:6004   */\n      swap2\n      swap1\n      pop\n      jump\t// out\n        /* \"#utility.yul\":6010:6125   */\n    tag_40:\n        /* \"#utility.yul\":6093:6094   */\n      0x03\n        /* \"#utility.yul\":6086:6091   */\n      dup2\n        /* \"#utility.yul\":6083:6095   */\n      lt\n        /* \"#utility.yul\":6073:6119   */\n      tag_97\n      jumpi\n        /* \"#utility.yul\":6099:6117   */\n      tag_98\n      tag_13\n      jump\t// in\n    tag_98:\n        /* \"#utility.yul\":6073:6119   */\n    tag_97:\n        /* \"#utility.yul\":6010:6125   */\n      pop\n      jump\t// out\n        /* \"#utility.yul\":6131:6262   */\n    tag_41:\n        /* \"#utility.yul\":6178:6185   */\n      0x00\n        /* \"#utility.yul\":6207:6212   */\n      dup2\n        /* \"#utility.yul\":6196:6212   */\n      swap1\n      pop\n        /* \"#utility.yul\":6213:6256   */\n      tag_100\n        /* \"#utility.yul\":6250:6255   */\n      dup3\n        /* \"#utility.yul\":6213:6256   */\n      tag_40\n      jump\t// in\n    tag_100:\n        /* \"#utility.yul\":6131:6262   */\n      swap2\n      swap1\n      pop\n      jump\t// out\n        /* \"#utility.yul\":6268:6399   */\n    tag_42:\n        /* \"#utility.yul\":6326:6335   */\n      0x00\n        /* \"#utility.yul\":6359:6393   */\n      tag_102\n        /* \"#utility.yul\":6387:6392   */\n      dup3\n        /* \"#utility.yul\":6359:6393   */\n      tag_41\n      jump\t// in\n    tag_102:\n        /* \"#utility.yul\":6346:6393   */\n      swap1\n      pop\n        /* \"#utility.yul\":6268:6399   */\n      swap2\n      swap1\n      pop\n      jump\t// out\n        /* \"#utility.yul\":6405:6552   */\n    tag_43:\n        /* \"#utility.yul\":6500:6545   */\n      tag_104\n        /* \"#utility.yul\":6539:6544   */\n      dup2\n        /* \"#utility.yul\":6500:6545   */\n      tag_42\n      jump\t// in\n    tag_104:\n        /* \"#utility.yul\":6495:6498   */\n      dup3\n        /* \"#utility.yul\":6488:6546   */\n      mstore\n        /* \"#utility.yul\":6405:6552   */\n      pop\n      pop\n      jump\t// out\n        /* \"#utility.yul\":6558:7103   */\n    tag_18:\n        /* \"#utility.yul\":6760:6764   */\n      0x00\n        /* \"#utility.yul\":6798:6800   */\n      0x40\n        /* \"#utility.yul\":6787:6796   */\n      dup3\n        /* \"#utility.yul\":6783:6801   */\n      add\n        /* \"#utility.yul\":6775:6801   */\n      swap1\n      pop\n        /* \"#utility.yul\":6847:6856   */\n      dup2\n        /* \"#utility.yul\":6841:6845   */\n      dup2\n        /* \"#utility.yul\":6837:6857   */\n      sub\n        /* \"#utility.yul\":6833:6834   */\n      0x00\n        /* \"#utility.yul\":6822:6831   */\n      dup4\n        /* \"#utility.yul\":6818:6835   */\n      add\n        /* \"#utility.yul\":6811:6858   */\n      mstore\n        /* \"#utility.yul\":6875:7006   */\n      tag_106\n        /* \"#utility.yul\":7001:7005   */\n      dup2\n        /* \"#utility.yul\":6875:7006   */\n      tag_39\n      jump\t// in\n    tag_106:\n        /* \"#utility.yul\":6867:7006   */\n      swap1\n      pop\n        /* \"#utility.yul\":7016:7096   */\n      tag_107\n        /* \"#utility.yul\":7092:7094   */\n      0x20\n        /* \"#utility.yul\":7081:7090   */\n      dup4\n        /* \"#utility.yul\":7077:7095   */\n      add\n        /* \"#utility.yul\":7068:7074   */\n      dup5\n        /* \"#utility.yul\":7016:7096   */\n      tag_43\n      jump\t// in\n    tag_107:\n        /* \"#utility.yul\":6558:7103   */\n      swap3\n      swap2\n      pop\n      pop\n      jump\t// out\n\n    auxdata: 0xa2646970667358221220dc9fe5a09bec634d7e2153a242cc130df849c74fc88c4cb635628e14442425a464736f6c63430008120033\n}\n",
				"bytecode": {
					"linkReferences": {},
					"object": "608060405234801561001057600080fd5b5061053e806100206000396000f3fe608060405234801561001057600080fd5b506004361061002b5760003560e01c8063f6fac9f514610030575b600080fd5b61003861003a565b005b7f0d9f69314e834cd1fcb9f6af7a4fa384c01b253b675920042ab32273de6705906205302060405161006c919061026e565b60405180910390a160405180604001604052806040518060400160405280600781526020017f6e6976696469610000000000000000000000000000000000000000000000000081525081526020016101598152506040516100cd9190610394565b6040518091039020600060028111156100e9576100e86103ab565b5b620393cc7fb7cb3e49b4ec09a148706bede73dce11f05491dc27eed607696709426603d7ff60405161011a90610426565b60405180910390a47f0d9f69314e834cd1fcb9f6af7a4fa384c01b253b675920042ab32273de67059062053020604051610154919061026e565b60405180910390a17fdb5314170881fa5fdd3e9921dbc50bd6b3d983b71f6866474ed235614e4ada9e600160405161018c91906104da565b60405180910390a17ff2a75fe4d7cd25bbe769d566fbf5a20c67283479ab765ae5857c5ba963305b5560405160405180910390a1565b600082825260208201905092915050565b7f6870000000000000000000000000000000000000000000000000000000000000600082015250565b60006102096002836101c2565b9150610214826101d3565b602082019050919050565b6000819050919050565b6000819050919050565b6000819050919050565b600061025861025361024e8461021f565b610233565b610229565b9050919050565b6102688161023d565b82525050565b60006040820190508181036000830152610287816101fc565b9050610296602083018461025f565b92915050565b600081519050919050565b600081905092915050565b60005b838110156102d05780820151818401526020810190506102b5565b60008484015250505050565b6000601f19601f8301169050919050565b60006102f88261029c565b61030281856102a7565b93506103128185602086016102b2565b61031b816102dc565b840191505092915050565b600061033283836102ed565b905092915050565b61034381610229565b82525050565b6000610355838361033a565b60208301905092915050565b600080830160008301516103758582610326565b94505060208301516103878582610349565b9450508391505092915050565b60006103a08284610361565b915081905092915050565b7f4e487b7100000000000000000000000000000000000000000000000000000000600052602160045260246000fd5b7f6c656e6f766f0000000000000000000000000000000000000000000000000000600082015250565b60006104106006836101c2565b915061041b826103da565b602082019050919050565b6000602082019050818103600083015261043f81610403565b9050919050565b7f44656c6c00000000000000000000000000000000000000000000000000000000600082015250565b600061047c6004836101c2565b915061048782610446565b602082019050919050565b600381106104a3576104a26103ab565b5b50565b60008190506104b482610492565b919050565b60006104c4826104a6565b9050919050565b6104d4816104b9565b82525050565b600060408201905081810360008301526104f38161046f565b905061050260208301846104cb565b9291505056fea2646970667358221220dc9fe5a09bec634d7e2153a242cc130df849c74fc88c4cb635628e14442425a464736f6c63430008120033",
					"opcodes": "PUSH1 0x80 PUSH1 0x40 MSTORE CALLVALUE DUP1 ISZERO PUSH2 0x10 JUMPI PUSH1 0x0 DUP1 REVERT JUMPDEST POP PUSH2 0x53E DUP1 PUSH2 0x20 PUSH1 0x0 CODECOPY PUSH1 0x0 RETURN INVALID PUSH1 0x80 PUSH1 0x40 MSTORE CALLVALUE DUP1 ISZERO PUSH2 0x10 JUMPI PUSH1 0x0 DUP1 REVERT JUMPDEST POP PUSH1 0x4 CALLDATASIZE LT PUSH2 0x2B JUMPI PUSH1 0x0 CALLDATALOAD PUSH1 0xE0 SHR DUP1 PUSH4 0xF6FAC9F5 EQ PUSH2 0x30 JUMPI JUMPDEST PUSH1 0x0 DUP1 REVERT JUMPDEST PUSH2 0x38 PUSH2 0x3A JUMP JUMPDEST STOP JUMPDEST PUSH32 0xD9F69314E834CD1FCB9F6AF7A4FA384C01B253B675920042AB32273DE670590 PUSH3 0x53020 PUSH1 0x40 MLOAD PUSH2 0x6C SWAP2 SWAP1 PUSH2 0x26E JUMP JUMPDEST PUSH1 0x40 MLOAD DUP1 SWAP2 SUB SWAP1 LOG1 PUSH1 0x40 MLOAD DUP1 PUSH1 0x40 ADD PUSH1 0x40 MSTORE DUP1 PUSH1 0x40 MLOAD DUP1 PUSH1 0x40 ADD PUSH1 0x40 MSTORE DUP1 PUSH1 0x7 DUP2 MSTORE PUSH1 0x20 ADD PUSH32 0x6E69766964696100000000000000000000000000000000000000000000000000 DUP2 MSTORE POP DUP2 MSTORE PUSH1 0x20 ADD PUSH2 0x159 DUP2 MSTORE POP PUSH1 0x40 MLOAD PUSH2 0xCD SWAP2 SWAP1 PUSH2 0x394 JUMP JUMPDEST PUSH1 0x40 MLOAD DUP1 SWAP2 SUB SWAP1 KECCAK256 PUSH1 0x0 PUSH1 0x2 DUP2 GT ISZERO PUSH2 0xE9 JUMPI PUSH2 0xE8 PUSH2 0x3AB JUMP JUMPDEST JUMPDEST PUSH3 0x393CC PUSH32 0xB7CB3E49B4EC09A148706BEDE73DCE11F05491DC27EED607696709426603D7FF PUSH1 0x40 MLOAD PUSH2 0x11A SWAP1 PUSH2 0x426 JUMP JUMPDEST PUSH1 0x40 MLOAD DUP1 SWAP2 SUB SWAP1 LOG4 PUSH32 0xD9F69314E834CD1FCB9F6AF7A4FA384C01B253B675920042AB32273DE670590 PUSH3 0x53020 PUSH1 0x40 MLOAD PUSH2 0x154 SWAP2 SWAP1 PUSH2 0x26E JUMP JUMPDEST PUSH1 0x40 MLOAD DUP1 SWAP2 SUB SWAP1 LOG1 PUSH32 0xDB5314170881FA5FDD3E9921DBC50BD6B3D983B71F6866474ED235614E4ADA9E PUSH1 0x1 PUSH1 0x40 MLOAD PUSH2 0x18C SWAP2 SWAP1 PUSH2 0x4DA JUMP JUMPDEST PUSH1 0x40 MLOAD DUP1 SWAP2 SUB SWAP1 LOG1 PUSH32 0xF2A75FE4D7CD25BBE769D566FBF5A20C67283479AB765AE5857C5BA963305B55 PUSH1 0x40 MLOAD PUSH1 0x40 MLOAD DUP1 SWAP2 SUB SWAP1 LOG1 JUMP JUMPDEST PUSH1 0x0 DUP3 DUP3 MSTORE PUSH1 0x20 DUP3 ADD SWAP1 POP SWAP3 SWAP2 POP POP JUMP JUMPDEST PUSH32 0x6870000000000000000000000000000000000000000000000000000000000000 PUSH1 0x0 DUP3 ADD MSTORE POP JUMP JUMPDEST PUSH1 0x0 PUSH2 0x209 PUSH1 0x2 DUP4 PUSH2 0x1C2 JUMP JUMPDEST SWAP2 POP PUSH2 0x214 DUP3 PUSH2 0x1D3 JUMP JUMPDEST PUSH1 0x20 DUP3 ADD SWAP1 POP SWAP2 SWAP1 POP JUMP JUMPDEST PUSH1 0x0 DUP2 SWAP1 POP SWAP2 SWAP1 POP JUMP JUMPDEST PUSH1 0x0 DUP2 SWAP1 POP SWAP2 SWAP1 POP JUMP JUMPDEST PUSH1 0x0 DUP2 SWAP1 POP SWAP2 SWAP1 POP JUMP JUMPDEST PUSH1 0x0 PUSH2 0x258 PUSH2 0x253 PUSH2 0x24E DUP5 PUSH2 0x21F JUMP JUMPDEST PUSH2 0x233 JUMP JUMPDEST PUSH2 0x229 JUMP JUMPDEST SWAP1 POP SWAP2 SWAP1 POP JUMP JUMPDEST PUSH2 0x268 DUP2 PUSH2 0x23D JUMP JUMPDEST DUP3 MSTORE POP POP JUMP JUMPDEST PUSH1 0x0 PUSH1 0x40 DUP3 ADD SWAP1 POP DUP2 DUP2 SUB PUSH1 0x0 DUP4 ADD MSTORE PUSH2 0x287 DUP2 PUSH2 0x1FC JUMP JUMPDEST SWAP1 POP PUSH2 0x296 PUSH1 0x20 DUP4 ADD DUP5 PUSH2 0x25F JUMP JUMPDEST SWAP3 SWAP2 POP POP JUMP JUMPDEST PUSH1 0x0 DUP2 MLOAD SWAP1 POP SWAP2 SWAP1 POP JUMP JUMPDEST PUSH1 0x0 DUP2 SWAP1 POP SWAP3 SWAP2 POP POP JUMP JUMPDEST PUSH1 0x0 JUMPDEST DUP4 DUP2 LT ISZERO PUSH2 0x2D0 JUMPI DUP1 DUP3 ADD MLOAD DUP2 DUP5 ADD MSTORE PUSH1 0x20 DUP2 ADD SWAP1 POP PUSH2 0x2B5 JUMP JUMPDEST PUSH1 0x0 DUP5 DUP5 ADD MSTORE POP POP POP POP JUMP JUMPDEST PUSH1 0x0 PUSH1 0x1F NOT PUSH1 0x1F DUP4 ADD AND SWAP1 POP SWAP2 SWAP1 POP JUMP JUMPDEST PUSH1 0x0 PUSH2 0x2F8 DUP3 PUSH2 0x29C JUMP JUMPDEST PUSH2 0x302 DUP2 DUP6 PUSH2 0x2A7 JUMP JUMPDEST SWAP4 POP PUSH2 0x312 DUP2 DUP6 PUSH1 0x20 DUP7 ADD PUSH2 0x2B2 JUMP JUMPDEST PUSH2 0x31B DUP2 PUSH2 0x2DC JUMP JUMPDEST DUP5 ADD SWAP2 POP POP SWAP3 SWAP2 POP POP JUMP JUMPDEST PUSH1 0x0 PUSH2 0x332 DUP4 DUP4 PUSH2 0x2ED JUMP JUMPDEST SWAP1 POP SWAP3 SWAP2 POP POP JUMP JUMPDEST PUSH2 0x343 DUP2 PUSH2 0x229 JUMP JUMPDEST DUP3 MSTORE POP POP JUMP JUMPDEST PUSH1 0x0 PUSH2 0x355 DUP4 DUP4 PUSH2 0x33A JUMP JUMPDEST PUSH1 0x20 DUP4 ADD SWAP1 POP SWAP3 SWAP2 POP POP JUMP JUMPDEST PUSH1 0x0 DUP1 DUP4 ADD PUSH1 0x0 DUP4 ADD MLOAD PUSH2 0x375 DUP6 DUP3 PUSH2 0x326 JUMP JUMPDEST SWAP5 POP POP PUSH1 0x20 DUP4 ADD MLOAD PUSH2 0x387 DUP6 DUP3 PUSH2 0x349 JUMP JUMPDEST SWAP5 POP POP DUP4 SWAP2 POP POP SWAP3 SWAP2 POP POP JUMP JUMPDEST PUSH1 0x0 PUSH2 0x3A0 DUP3 DUP5 PUSH2 0x361 JUMP JUMPDEST SWAP2 POP DUP2 SWAP1 POP SWAP3 SWAP2 POP POP JUMP JUMPDEST PUSH32 0x4E487B7100000000000000000000000000000000000000000000000000000000 PUSH1 0x0 MSTORE PUSH1 0x21 PUSH1 0x4 MSTORE PUSH1 0x24 PUSH1 0x0 REVERT JUMPDEST PUSH32 0x6C656E6F766F0000000000000000000000000000000000000000000000000000 PUSH1 0x0 DUP3 ADD MSTORE POP JUMP JUMPDEST PUSH1 0x0 PUSH2 0x410 PUSH1 0x6 DUP4 PUSH2 0x1C2 JUMP JUMPDEST SWAP2 POP PUSH2 0x41B DUP3 PUSH2 0x3DA JUMP JUMPDEST PUSH1 0x20 DUP3 ADD SWAP1 POP SWAP2 SWAP1 POP JUMP JUMPDEST PUSH1 0x0 PUSH1 0x20 DUP3 ADD SWAP1 POP DUP2 DUP2 SUB PUSH1 0x0 DUP4 ADD MSTORE PUSH2 0x43F DUP2 PUSH2 0x403 JUMP JUMPDEST SWAP1 POP SWAP2 SWAP1 POP JUMP JUMPDEST PUSH32 0x44656C6C00000000000000000000000000000000000000000000000000000000 PUSH1 0x0 DUP3 ADD MSTORE POP JUMP JUMPDEST PUSH1 0x0 PUSH2 0x47C PUSH1 0x4 DUP4 PUSH2 0x1C2 JUMP JUMPDEST SWAP2 POP PUSH2 0x487 DUP3 PUSH2 0x446 JUMP JUMPDEST PUSH1 0x20 DUP3 ADD SWAP1 POP SWAP2 SWAP1 POP JUMP JUMPDEST PUSH1 0x3 DUP2 LT PUSH2 0x4A3 JUMPI PUSH2 0x4A2 PUSH2 0x3AB JUMP JUMPDEST JUMPDEST POP JUMP JUMPDEST PUSH1 0x0 DUP2 SWAP1 POP PUSH2 0x4B4 DUP3 PUSH2 0x492 JUMP JUMPDEST SWAP2 SWAP1 POP JUMP JUMPDEST PUSH1 0x0 PUSH2 0x4C4 DUP3 PUSH2 0x4A6 JUMP JUMPDEST SWAP1 POP SWAP2 SWAP1 POP JUMP JUMPDEST PUSH2 0x4D4 DUP2 PUSH2 0x4B9 JUMP JUMPDEST DUP3 MSTORE POP POP JUMP JUMPDEST PUSH1 0x0 PUSH1 0x40 DUP3 ADD SWAP1 POP DUP2 DUP2 SUB PUSH1 0x0 DUP4 ADD MSTORE PUSH2 0x4F3 DUP2 PUSH2 0x46F JUMP JUMPDEST SWAP1 POP PUSH2 0x502 PUSH1 0x20 DUP4 ADD DUP5 PUSH2 0x4CB JUMP JUMPDEST SWAP3 SWAP2 POP POP JUMP INVALID LOG2 PUSH5 0x6970667358 0x22 SLT KECCAK256 0xDC SWAP16 0xE5 LOG0 SWAP12 0xEC PUSH4 0x4D7E2153 LOG2 TIMESTAMP 0xCC SGT 0xD 0xF8 0x49 0xC7 0x4F 0xC8 DUP13 0x4C 0xB6 CALLDATALOAD PUSH3 0x8E1444 0x24 0x25 LOG4 PUSH5 0x736F6C6343 STOP ADDMOD SLT STOP CALLER "
				},
				"gasEstimates": {
					"creation": {
						"codeDepositCost": "268400",
						"executionCost": "306",
						"totalCost": "268706"
					},
					"external": {
						"emits()": "infinite"
					}
				},
				"methodIdentifiers": {
					"emits()": "f6fac9f5"
				}
			},
			"storageLayout": {
				"storage": [],
				"types": null
			},
			"userdoc": {
				"kind": "user",
				"methods": {},
				"version": 1
			}
		}
	}
}