{
	"lAB 10-08-2023/EX4,sol.sol": {
		"NoPrime": {
			"abi": [
				{
					"anonymous": false,
					"inputs": [
						{
							"indexed": false,
							"internalType": "string",
							"name": "",
							"type": "string"
						},
						{
							"indexed": false,
							"internalType": "uint256",
							"name": "",
							"type": "uint256"
						}
					],
					"name": "Primecheck",
					"type": "event"
				},
				{
					"inputs": [
						{
							"internalType": "uint256",
							"name": "number",
							"type": "uint256"
						}
					],
					"name": "check",
					"outputs": [],
					"stateMutability": "nonpayable",
					"type": "function"
				},
				{
					"inputs": [],
					"name": "num",
					"outputs": [
						{
							"internalType": "uint256",
							"name": "",
							"type": "uint256"
						}
					],
					"stateMutability": "view",
					"type": "function"
				},
				{
					"inputs": [
						{
							"internalType": "uint256",
							"name": "_num",
							"type": "uint256"
						}
					],
					"name": "primeNo",
					"outputs": [
						{
							"internalType": "bool",
							"name": "",
							"type": "bool"
						}
					],
					"stateMutability": "view",
					"type": "function"
				},
				{
					"inputs": [
						{
							"internalType": "uint256",
							"name": "_num",
							"type": "uint256"
						}
					],
					"name": "setter",
					"outputs": [],
					"stateMutability": "nonpayable",
					"type": "function"
				}
			],
			"devdoc": {
				"kind": "dev",
				"methods": {},
				"version": 1
			},
			"evm": {
				"assembly": "    /* \"lAB 10-08-2023/EX4,sol.sol\":61:755  contract NoPrime {... */\n  mstore(0x40, 0x80)\n  callvalue\n  dup1\n  iszero\n  tag_1\n  jumpi\n  0x00\n  dup1\n  revert\ntag_1:\n  pop\n  dataSize(sub_0)\n  dup1\n  dataOffset(sub_0)\n  0x00\n  codecopy\n  0x00\n  return\nstop\n\nsub_0: assembly {\n        /* \"lAB 10-08-2023/EX4,sol.sol\":61:755  contract NoPrime {... */\n      mstore(0x40, 0x80)\n      callvalue\n      dup1\n      iszero\n      tag_1\n      jumpi\n      0x00\n      dup1\n      revert\n    tag_1:\n      pop\n      jumpi(tag_2, lt(calldatasize, 0x04))\n      shr(0xe0, calldataload(0x00))\n      dup1\n      0x4e70b1dc\n      eq\n      tag_3\n      jumpi\n      dup1\n      0x5f72f450\n      eq\n      tag_4\n      jumpi\n      dup1\n      0xcbc4093c\n      eq\n      tag_5\n      jumpi\n      dup1\n      0xd423740b\n      eq\n      tag_6\n      jumpi\n    tag_2:\n      0x00\n      dup1\n      revert\n        /* \"lAB 10-08-2023/EX4,sol.sol\":87:102  uint public num */\n    tag_3:\n      tag_7\n      tag_8\n      jump\t// in\n    tag_7:\n      mload(0x40)\n      tag_9\n      swap2\n      swap1\n      tag_10\n      jump\t// in\n    tag_9:\n      mload(0x40)\n      dup1\n      swap2\n      sub\n      swap1\n      return\n        /* \"lAB 10-08-2023/EX4,sol.sol\":535:736  function  check(uint number) public    {... */\n    tag_4:\n      tag_11\n      0x04\n      dup1\n      calldatasize\n      sub\n      dup2\n      add\n      swap1\n      tag_12\n      swap2\n      swap1\n      tag_13\n      jump\t// in\n    tag_12:\n      tag_14\n      jump\t// in\n    tag_11:\n      stop\n        /* \"lAB 10-08-2023/EX4,sol.sol\":234:527  function primeNo(uint _num) public view   returns  (bool) {... */\n    tag_5:\n      tag_15\n      0x04\n      dup1\n      calldatasize\n      sub\n      dup2\n      add\n      swap1\n      tag_16\n      swap2\n      swap1\n      tag_13\n      jump\t// in\n    tag_16:\n      tag_17\n      jump\t// in\n    tag_15:\n      mload(0x40)\n      tag_18\n      swap2\n      swap1\n      tag_19\n      jump\t// in\n    tag_18:\n      mload(0x40)\n      dup1\n      swap2\n      sub\n      swap1\n      return\n        /* \"lAB 10-08-2023/EX4,sol.sol\":160:216  function setter(uint _num) public  {... */\n    tag_6:\n      tag_20\n      0x04\n      dup1\n      calldatasize\n      sub\n      dup2\n      add\n      swap1\n      tag_21\n      swap2\n      swap1\n      tag_13\n      jump\t// in\n    tag_21:\n      tag_22\n      jump\t// in\n    tag_20:\n      stop\n        /* \"lAB 10-08-2023/EX4,sol.sol\":87:102  uint public num */\n    tag_8:\n      sload(0x00)\n      dup2\n      jump\t// out\n        /* \"lAB 10-08-2023/EX4,sol.sol\":535:736  function  check(uint number) public    {... */\n    tag_14:\n        /* \"lAB 10-08-2023/EX4,sol.sol\":585:600  primeNo(number) */\n      tag_24\n        /* \"lAB 10-08-2023/EX4,sol.sol\":593:599  number */\n      dup2\n        /* \"lAB 10-08-2023/EX4,sol.sol\":585:592  primeNo */\n      tag_17\n        /* \"lAB 10-08-2023/EX4,sol.sol\":585:600  primeNo(number) */\n      jump\t// in\n    tag_24:\n        /* \"lAB 10-08-2023/EX4,sol.sol\":581:733  if (primeNo(number)) {... */\n      iszero\n      tag_25\n      jumpi\n        /* \"lAB 10-08-2023/EX4,sol.sol\":618:654  Primecheck(\"The number is prime\", 1) */\n      0xe5ac3b44f31f120737b6a2da648e09a86e83d35ffef8172d1f5eacd99a635568\n        /* \"lAB 10-08-2023/EX4,sol.sol\":652:653  1 */\n      0x01\n        /* \"lAB 10-08-2023/EX4,sol.sol\":618:654  Primecheck(\"The number is prime\", 1) */\n      mload(0x40)\n      tag_26\n      swap2\n      swap1\n      tag_27\n      jump\t// in\n    tag_26:\n      mload(0x40)\n      dup1\n      swap2\n      sub\n      swap1\n      log1\n        /* \"lAB 10-08-2023/EX4,sol.sol\":581:733  if (primeNo(number)) {... */\n      jump(tag_28)\n    tag_25:\n        /* \"lAB 10-08-2023/EX4,sol.sol\":685:725  Primecheck(\"The number is not prime\", 2) */\n      0xe5ac3b44f31f120737b6a2da648e09a86e83d35ffef8172d1f5eacd99a635568\n        /* \"lAB 10-08-2023/EX4,sol.sol\":723:724  2 */\n      0x02\n        /* \"lAB 10-08-2023/EX4,sol.sol\":685:725  Primecheck(\"The number is not prime\", 2) */\n      mload(0x40)\n      tag_29\n      swap2\n      swap1\n      tag_30\n      jump\t// in\n    tag_29:\n      mload(0x40)\n      dup1\n      swap2\n      sub\n      swap1\n      log1\n        /* \"lAB 10-08-2023/EX4,sol.sol\":581:733  if (primeNo(number)) {... */\n    tag_28:\n        /* \"lAB 10-08-2023/EX4,sol.sol\":535:736  function  check(uint number) public    {... */\n      pop\n      jump\t// out\n        /* \"lAB 10-08-2023/EX4,sol.sol\":234:527  function primeNo(uint _num) public view   returns  (bool) {... */\n    tag_17:\n        /* \"lAB 10-08-2023/EX4,sol.sol\":286:290  bool */\n      0x00\n        /* \"lAB 10-08-2023/EX4,sol.sol\":315:316  1 */\n      0x01\n        /* \"lAB 10-08-2023/EX4,sol.sol\":307:311  _num */\n      dup3\n        /* \"lAB 10-08-2023/EX4,sol.sol\":307:316  _num <= 1 */\n      gt\n        /* \"lAB 10-08-2023/EX4,sol.sol\":303:357  if (_num <= 1) {... */\n      tag_32\n      jumpi\n        /* \"lAB 10-08-2023/EX4,sol.sol\":340:345  false */\n      0x00\n        /* \"lAB 10-08-2023/EX4,sol.sol\":333:345  return false */\n      swap1\n      pop\n      jump(tag_31)\n        /* \"lAB 10-08-2023/EX4,sol.sol\":303:357  if (_num <= 1) {... */\n    tag_32:\n        /* \"lAB 10-08-2023/EX4,sol.sol\":374:380  uint i */\n      0x00\n        /* \"lAB 10-08-2023/EX4,sol.sol\":383:384  2 */\n      0x02\n        /* \"lAB 10-08-2023/EX4,sol.sol\":374:384  uint i = 2 */\n      swap1\n      pop\n        /* \"lAB 10-08-2023/EX4,sol.sol\":369:496  for (uint i = 2; i * i <= num; i++) {... */\n    tag_33:\n        /* \"lAB 10-08-2023/EX4,sol.sol\":395:398  num */\n      sload(0x00)\n        /* \"lAB 10-08-2023/EX4,sol.sol\":390:391  i */\n      dup2\n        /* \"lAB 10-08-2023/EX4,sol.sol\":386:387  i */\n      dup3\n        /* \"lAB 10-08-2023/EX4,sol.sol\":386:391  i * i */\n      tag_36\n      swap2\n      swap1\n      tag_37\n      jump\t// in\n    tag_36:\n        /* \"lAB 10-08-2023/EX4,sol.sol\":386:398  i * i <= num */\n      gt\n        /* \"lAB 10-08-2023/EX4,sol.sol\":369:496  for (uint i = 2; i * i <= num; i++) {... */\n      tag_34\n      jumpi\n        /* \"lAB 10-08-2023/EX4,sol.sol\":435:436  0 */\n      0x00\n        /* \"lAB 10-08-2023/EX4,sol.sol\":430:431  i */\n      dup2\n        /* \"lAB 10-08-2023/EX4,sol.sol\":424:427  num */\n      sload(0x00)\n        /* \"lAB 10-08-2023/EX4,sol.sol\":424:431  num % i */\n      tag_38\n      swap2\n      swap1\n      tag_39\n      jump\t// in\n    tag_38:\n        /* \"lAB 10-08-2023/EX4,sol.sol\":424:436  num % i == 0 */\n      sub\n        /* \"lAB 10-08-2023/EX4,sol.sol\":420:485  if (num % i == 0) {... */\n      tag_40\n      jumpi\n        /* \"lAB 10-08-2023/EX4,sol.sol\":464:469  false */\n      0x00\n        /* \"lAB 10-08-2023/EX4,sol.sol\":457:469  return false */\n      swap2\n      pop\n      pop\n      jump(tag_31)\n        /* \"lAB 10-08-2023/EX4,sol.sol\":420:485  if (num % i == 0) {... */\n    tag_40:\n        /* \"lAB 10-08-2023/EX4,sol.sol\":400:403  i++ */\n      dup1\n      dup1\n      tag_41\n      swap1\n      tag_42\n      jump\t// in\n    tag_41:\n      swap2\n      pop\n      pop\n        /* \"lAB 10-08-2023/EX4,sol.sol\":369:496  for (uint i = 2; i * i <= num; i++) {... */\n      jump(tag_33)\n    tag_34:\n      pop\n        /* \"lAB 10-08-2023/EX4,sol.sol\":515:519  true */\n      0x01\n        /* \"lAB 10-08-2023/EX4,sol.sol\":508:519  return true */\n      swap1\n      pop\n        /* \"lAB 10-08-2023/EX4,sol.sol\":234:527  function primeNo(uint _num) public view   returns  (bool) {... */\n    tag_31:\n      swap2\n      swap1\n      pop\n      jump\t// out\n        /* \"lAB 10-08-2023/EX4,sol.sol\":160:216  function setter(uint _num) public  {... */\n    tag_22:\n        /* \"lAB 10-08-2023/EX4,sol.sol\":208:212  _num */\n      dup1\n        /* \"lAB 10-08-2023/EX4,sol.sol\":202:205  num */\n      0x00\n        /* \"lAB 10-08-2023/EX4,sol.sol\":202:212  num = _num */\n      dup2\n      swap1\n      sstore\n      pop\n        /* \"lAB 10-08-2023/EX4,sol.sol\":160:216  function setter(uint _num) public  {... */\n      pop\n      jump\t// out\n        /* \"#utility.yul\":7:84   */\n    tag_44:\n        /* \"#utility.yul\":44:51   */\n      0x00\n        /* \"#utility.yul\":73:78   */\n      dup2\n        /* \"#utility.yul\":62:78   */\n      swap1\n      pop\n        /* \"#utility.yul\":7:84   */\n      swap2\n      swap1\n      pop\n      jump\t// out\n        /* \"#utility.yul\":90:208   */\n    tag_45:\n        /* \"#utility.yul\":177:201   */\n      tag_70\n        /* \"#utility.yul\":195:200   */\n      dup2\n        /* \"#utility.yul\":177:201   */\n      tag_44\n      jump\t// in\n    tag_70:\n        /* \"#utility.yul\":172:175   */\n      dup3\n        /* \"#utility.yul\":165:202   */\n      mstore\n        /* \"#utility.yul\":90:208   */\n      pop\n      pop\n      jump\t// out\n        /* \"#utility.yul\":214:436   */\n    tag_10:\n        /* \"#utility.yul\":307:311   */\n      0x00\n        /* \"#utility.yul\":345:347   */\n      0x20\n        /* \"#utility.yul\":334:343   */\n      dup3\n        /* \"#utility.yul\":330:348   */\n      add\n        /* \"#utility.yul\":322:348   */\n      swap1\n      pop\n        /* \"#utility.yul\":358:429   */\n      tag_72\n        /* \"#utility.yul\":426:427   */\n      0x00\n        /* \"#utility.yul\":415:424   */\n      dup4\n        /* \"#utility.yul\":411:428   */\n      add\n        /* \"#utility.yul\":402:408   */\n      dup5\n        /* \"#utility.yul\":358:429   */\n      tag_45\n      jump\t// in\n    tag_72:\n        /* \"#utility.yul\":214:436   */\n      swap3\n      swap2\n      pop\n      pop\n      jump\t// out\n        /* \"#utility.yul\":523:640   */\n    tag_47:\n        /* \"#utility.yul\":632:633   */\n      0x00\n        /* \"#utility.yul\":629:630   */\n      dup1\n        /* \"#utility.yul\":622:634   */\n      revert\n        /* \"#utility.yul\":769:891   */\n    tag_49:\n        /* \"#utility.yul\":842:866   */\n      tag_77\n        /* \"#utility.yul\":860:865   */\n      dup2\n        /* \"#utility.yul\":842:866   */\n      tag_44\n      jump\t// in\n    tag_77:\n        /* \"#utility.yul\":835:840   */\n      dup2\n        /* \"#utility.yul\":832:867   */\n      eq\n        /* \"#utility.yul\":822:885   */\n      tag_78\n      jumpi\n        /* \"#utility.yul\":881:882   */\n      0x00\n        /* \"#utility.yul\":878:879   */\n      dup1\n        /* \"#utility.yul\":871:883   */\n      revert\n        /* \"#utility.yul\":822:885   */\n    tag_78:\n        /* \"#utility.yul\":769:891   */\n      pop\n      jump\t// out\n        /* \"#utility.yul\":897:1036   */\n    tag_50:\n        /* \"#utility.yul\":943:948   */\n      0x00\n        /* \"#utility.yul\":981:987   */\n      dup2\n        /* \"#utility.yul\":968:988   */\n      calldataload\n        /* \"#utility.yul\":959:988   */\n      swap1\n      pop\n        /* \"#utility.yul\":997:1030   */\n      tag_80\n        /* \"#utility.yul\":1024:1029   */\n      dup2\n        /* \"#utility.yul\":997:1030   */\n      tag_49\n      jump\t// in\n    tag_80:\n        /* \"#utility.yul\":897:1036   */\n      swap3\n      swap2\n      pop\n      pop\n      jump\t// out\n        /* \"#utility.yul\":1042:1371   */\n    tag_13:\n        /* \"#utility.yul\":1101:1107   */\n      0x00\n        /* \"#utility.yul\":1150:1152   */\n      0x20\n        /* \"#utility.yul\":1138:1147   */\n      dup3\n        /* \"#utility.yul\":1129:1136   */\n      dup5\n        /* \"#utility.yul\":1125:1148   */\n      sub\n        /* \"#utility.yul\":1121:1153   */\n      slt\n        /* \"#utility.yul\":1118:1237   */\n      iszero\n      tag_82\n      jumpi\n        /* \"#utility.yul\":1156:1235   */\n      tag_83\n      tag_47\n      jump\t// in\n    tag_83:\n        /* \"#utility.yul\":1118:1237   */\n    tag_82:\n        /* \"#utility.yul\":1276:1277   */\n      0x00\n        /* \"#utility.yul\":1301:1354   */\n      tag_84\n        /* \"#utility.yul\":1346:1353   */\n      dup5\n        /* \"#utility.yul\":1337:1343   */\n      dup3\n        /* \"#utility.yul\":1326:1335   */\n      dup6\n        /* \"#utility.yul\":1322:1344   */\n      add\n        /* \"#utility.yul\":1301:1354   */\n      tag_50\n      jump\t// in\n    tag_84:\n        /* \"#utility.yul\":1291:1354   */\n      swap2\n      pop\n        /* \"#utility.yul\":1247:1364   */\n      pop\n        /* \"#utility.yul\":1042:1371   */\n      swap3\n      swap2\n      pop\n      pop\n      jump\t// out\n        /* \"#utility.yul\":1377:1467   */\n    tag_51:\n        /* \"#utility.yul\":1411:1418   */\n      0x00\n        /* \"#utility.yul\":1454:1459   */\n      dup2\n        /* \"#utility.yul\":1447:1460   */\n      iszero\n        /* \"#utility.yul\":1440:1461   */\n      iszero\n        /* \"#utility.yul\":1429:1461   */\n      swap1\n      pop\n        /* \"#utility.yul\":1377:1467   */\n      swap2\n      swap1\n      pop\n      jump\t// out\n        /* \"#utility.yul\":1473:1582   */\n    tag_52:\n        /* \"#utility.yul\":1554:1575   */\n      tag_87\n        /* \"#utility.yul\":1569:1574   */\n      dup2\n        /* \"#utility.yul\":1554:1575   */\n      tag_51\n      jump\t// in\n    tag_87:\n        /* \"#utility.yul\":1549:1552   */\n      dup3\n        /* \"#utility.yul\":1542:1576   */\n      mstore\n        /* \"#utility.yul\":1473:1582   */\n      pop\n      pop\n      jump\t// out\n        /* \"#utility.yul\":1588:1798   */\n    tag_19:\n        /* \"#utility.yul\":1675:1679   */\n      0x00\n        /* \"#utility.yul\":1713:1715   */\n      0x20\n        /* \"#utility.yul\":1702:1711   */\n      dup3\n        /* \"#utility.yul\":1698:1716   */\n      add\n        /* \"#utility.yul\":1690:1716   */\n      swap1\n      pop\n        /* \"#utility.yul\":1726:1791   */\n      tag_89\n        /* \"#utility.yul\":1788:1789   */\n      0x00\n        /* \"#utility.yul\":1777:1786   */\n      dup4\n        /* \"#utility.yul\":1773:1790   */\n      add\n        /* \"#utility.yul\":1764:1770   */\n      dup5\n        /* \"#utility.yul\":1726:1791   */\n      tag_52\n      jump\t// in\n    tag_89:\n        /* \"#utility.yul\":1588:1798   */\n      swap3\n      swap2\n      pop\n      pop\n      jump\t// out\n        /* \"#utility.yul\":1804:1973   */\n    tag_53:\n        /* \"#utility.yul\":1888:1899   */\n      0x00\n        /* \"#utility.yul\":1922:1928   */\n      dup3\n        /* \"#utility.yul\":1917:1920   */\n      dup3\n        /* \"#utility.yul\":1910:1929   */\n      mstore\n        /* \"#utility.yul\":1962:1966   */\n      0x20\n        /* \"#utility.yul\":1957:1960   */\n      dup3\n        /* \"#utility.yul\":1953:1967   */\n      add\n        /* \"#utility.yul\":1938:1967   */\n      swap1\n      pop\n        /* \"#utility.yul\":1804:1973   */\n      swap3\n      swap2\n      pop\n      pop\n      jump\t// out\n        /* \"#utility.yul\":1979:2148   */\n    tag_54:\n        /* \"#utility.yul\":2119:2140   */\n      0x546865206e756d626572206973207072696d6500000000000000000000000000\n        /* \"#utility.yul\":2115:2116   */\n      0x00\n        /* \"#utility.yul\":2107:2113   */\n      dup3\n        /* \"#utility.yul\":2103:2117   */\n      add\n        /* \"#utility.yul\":2096:2141   */\n      mstore\n        /* \"#utility.yul\":1979:2148   */\n      pop\n      jump\t// out\n        /* \"#utility.yul\":2154:2520   */\n    tag_55:\n        /* \"#utility.yul\":2296:2299   */\n      0x00\n        /* \"#utility.yul\":2317:2384   */\n      tag_93\n        /* \"#utility.yul\":2381:2383   */\n      0x13\n        /* \"#utility.yul\":2376:2379   */\n      dup4\n        /* \"#utility.yul\":2317:2384   */\n      tag_53\n      jump\t// in\n    tag_93:\n        /* \"#utility.yul\":2310:2384   */\n      swap2\n      pop\n        /* \"#utility.yul\":2393:2486   */\n      tag_94\n        /* \"#utility.yul\":2482:2485   */\n      dup3\n        /* \"#utility.yul\":2393:2486   */\n      tag_54\n      jump\t// in\n    tag_94:\n        /* \"#utility.yul\":2511:2513   */\n      0x20\n        /* \"#utility.yul\":2506:2509   */\n      dup3\n        /* \"#utility.yul\":2502:2514   */\n      add\n        /* \"#utility.yul\":2495:2514   */\n      swap1\n      pop\n        /* \"#utility.yul\":2154:2520   */\n      swap2\n      swap1\n      pop\n      jump\t// out\n        /* \"#utility.yul\":2526:2611   */\n    tag_56:\n        /* \"#utility.yul\":2571:2578   */\n      0x00\n        /* \"#utility.yul\":2600:2605   */\n      dup2\n        /* \"#utility.yul\":2589:2605   */\n      swap1\n      pop\n        /* \"#utility.yul\":2526:2611   */\n      swap2\n      swap1\n      pop\n      jump\t// out\n        /* \"#utility.yul\":2617:2677   */\n    tag_57:\n        /* \"#utility.yul\":2645:2648   */\n      0x00\n        /* \"#utility.yul\":2666:2671   */\n      dup2\n        /* \"#utility.yul\":2659:2671   */\n      swap1\n      pop\n        /* \"#utility.yul\":2617:2677   */\n      swap2\n      swap1\n      pop\n      jump\t// out\n        /* \"#utility.yul\":2683:2841   */\n    tag_58:\n        /* \"#utility.yul\":2741:2750   */\n      0x00\n        /* \"#utility.yul\":2774:2835   */\n      tag_98\n        /* \"#utility.yul\":2792:2834   */\n      tag_99\n        /* \"#utility.yul\":2801:2833   */\n      tag_100\n        /* \"#utility.yul\":2827:2832   */\n      dup5\n        /* \"#utility.yul\":2801:2833   */\n      tag_56\n      jump\t// in\n    tag_100:\n        /* \"#utility.yul\":2792:2834   */\n      tag_57\n      jump\t// in\n    tag_99:\n        /* \"#utility.yul\":2774:2835   */\n      tag_44\n      jump\t// in\n    tag_98:\n        /* \"#utility.yul\":2761:2835   */\n      swap1\n      pop\n        /* \"#utility.yul\":2683:2841   */\n      swap2\n      swap1\n      pop\n      jump\t// out\n        /* \"#utility.yul\":2847:2994   */\n    tag_59:\n        /* \"#utility.yul\":2942:2987   */\n      tag_102\n        /* \"#utility.yul\":2981:2986   */\n      dup2\n        /* \"#utility.yul\":2942:2987   */\n      tag_58\n      jump\t// in\n    tag_102:\n        /* \"#utility.yul\":2937:2940   */\n      dup3\n        /* \"#utility.yul\":2930:2988   */\n      mstore\n        /* \"#utility.yul\":2847:2994   */\n      pop\n      pop\n      jump\t// out\n        /* \"#utility.yul\":3000:3545   */\n    tag_27:\n        /* \"#utility.yul\":3202:3206   */\n      0x00\n        /* \"#utility.yul\":3240:3242   */\n      0x40\n        /* \"#utility.yul\":3229:3238   */\n      dup3\n        /* \"#utility.yul\":3225:3243   */\n      add\n        /* \"#utility.yul\":3217:3243   */\n      swap1\n      pop\n        /* \"#utility.yul\":3289:3298   */\n      dup2\n        /* \"#utility.yul\":3283:3287   */\n      dup2\n        /* \"#utility.yul\":3279:3299   */\n      sub\n        /* \"#utility.yul\":3275:3276   */\n      0x00\n        /* \"#utility.yul\":3264:3273   */\n      dup4\n        /* \"#utility.yul\":3260:3277   */\n      add\n        /* \"#utility.yul\":3253:3300   */\n      mstore\n        /* \"#utility.yul\":3317:3448   */\n      tag_104\n        /* \"#utility.yul\":3443:3447   */\n      dup2\n        /* \"#utility.yul\":3317:3448   */\n      tag_55\n      jump\t// in\n    tag_104:\n        /* \"#utility.yul\":3309:3448   */\n      swap1\n      pop\n        /* \"#utility.yul\":3458:3538   */\n      tag_105\n        /* \"#utility.yul\":3534:3536   */\n      0x20\n        /* \"#utility.yul\":3523:3532   */\n      dup4\n        /* \"#utility.yul\":3519:3537   */\n      add\n        /* \"#utility.yul\":3510:3516   */\n      dup5\n        /* \"#utility.yul\":3458:3538   */\n      tag_59\n      jump\t// in\n    tag_105:\n        /* \"#utility.yul\":3000:3545   */\n      swap3\n      swap2\n      pop\n      pop\n      jump\t// out\n        /* \"#utility.yul\":3551:3724   */\n    tag_60:\n        /* \"#utility.yul\":3691:3716   */\n      0x546865206e756d626572206973206e6f74207072696d65000000000000000000\n        /* \"#utility.yul\":3687:3688   */\n      0x00\n        /* \"#utility.yul\":3679:3685   */\n      dup3\n        /* \"#utility.yul\":3675:3689   */\n      add\n        /* \"#utility.yul\":3668:3717   */\n      mstore\n        /* \"#utility.yul\":3551:3724   */\n      pop\n      jump\t// out\n        /* \"#utility.yul\":3730:4096   */\n    tag_61:\n        /* \"#utility.yul\":3872:3875   */\n      0x00\n        /* \"#utility.yul\":3893:3960   */\n      tag_108\n        /* \"#utility.yul\":3957:3959   */\n      0x17\n        /* \"#utility.yul\":3952:3955   */\n      dup4\n        /* \"#utility.yul\":3893:3960   */\n      tag_53\n      jump\t// in\n    tag_108:\n        /* \"#utility.yul\":3886:3960   */\n      swap2\n      pop\n        /* \"#utility.yul\":3969:4062   */\n      tag_109\n        /* \"#utility.yul\":4058:4061   */\n      dup3\n        /* \"#utility.yul\":3969:4062   */\n      tag_60\n      jump\t// in\n    tag_109:\n        /* \"#utility.yul\":4087:4089   */\n      0x20\n        /* \"#utility.yul\":4082:4085   */\n      dup3\n        /* \"#utility.yul\":4078:4090   */\n      add\n        /* \"#utility.yul\":4071:4090   */\n      swap1\n      pop\n        /* \"#utility.yul\":3730:4096   */\n      swap2\n      swap1\n      pop\n      jump\t// out\n        /* \"#utility.yul\":4102:4187   */\n    tag_62:\n        /* \"#utility.yul\":4147:4154   */\n      0x00\n        /* \"#utility.yul\":4176:4181   */\n      dup2\n        /* \"#utility.yul\":4165:4181   */\n      swap1\n      pop\n        /* \"#utility.yul\":4102:4187   */\n      swap2\n      swap1\n      pop\n      jump\t// out\n        /* \"#utility.yul\":4193:4351   */\n    tag_63:\n        /* \"#utility.yul\":4251:4260   */\n      0x00\n        /* \"#utility.yul\":4284:4345   */\n      tag_112\n        /* \"#utility.yul\":4302:4344   */\n      tag_113\n        /* \"#utility.yul\":4311:4343   */\n      tag_114\n        /* \"#utility.yul\":4337:4342   */\n      dup5\n        /* \"#utility.yul\":4311:4343   */\n      tag_62\n      jump\t// in\n    tag_114:\n        /* \"#utility.yul\":4302:4344   */\n      tag_57\n      jump\t// in\n    tag_113:\n        /* \"#utility.yul\":4284:4345   */\n      tag_44\n      jump\t// in\n    tag_112:\n        /* \"#utility.yul\":4271:4345   */\n      swap1\n      pop\n        /* \"#utility.yul\":4193:4351   */\n      swap2\n      swap1\n      pop\n      jump\t// out\n        /* \"#utility.yul\":4357:4504   */\n    tag_64:\n        /* \"#utility.yul\":4452:4497   */\n      tag_116\n        /* \"#utility.yul\":4491:4496   */\n      dup2\n        /* \"#utility.yul\":4452:4497   */\n      tag_63\n      jump\t// in\n    tag_116:\n        /* \"#utility.yul\":4447:4450   */\n      dup3\n        /* \"#utility.yul\":4440:4498   */\n      mstore\n        /* \"#utility.yul\":4357:4504   */\n      pop\n      pop\n      jump\t// out\n        /* \"#utility.yul\":4510:5055   */\n    tag_30:\n        /* \"#utility.yul\":4712:4716   */\n      0x00\n        /* \"#utility.yul\":4750:4752   */\n      0x40\n        /* \"#utility.yul\":4739:4748   */\n      dup3\n        /* \"#utility.yul\":4735:4753   */\n      add\n        /* \"#utility.yul\":4727:4753   */\n      swap1\n      pop\n        /* \"#utility.yul\":4799:4808   */\n      dup2\n        /* \"#utility.yul\":4793:4797   */\n      dup2\n        /* \"#utility.yul\":4789:4809   */\n      sub\n        /* \"#utility.yul\":4785:4786   */\n      0x00\n        /* \"#utility.yul\":4774:4783   */\n      dup4\n        /* \"#utility.yul\":4770:4787   */\n      add\n        /* \"#utility.yul\":4763:4810   */\n      mstore\n        /* \"#utility.yul\":4827:4958   */\n      tag_118\n        /* \"#utility.yul\":4953:4957   */\n      dup2\n        /* \"#utility.yul\":4827:4958   */\n      tag_61\n      jump\t// in\n    tag_118:\n        /* \"#utility.yul\":4819:4958   */\n      swap1\n      pop\n        /* \"#utility.yul\":4968:5048   */\n      tag_119\n        /* \"#utility.yul\":5044:5046   */\n      0x20\n        /* \"#utility.yul\":5033:5042   */\n      dup4\n        /* \"#utility.yul\":5029:5047   */\n      add\n        /* \"#utility.yul\":5020:5026   */\n      dup5\n        /* \"#utility.yul\":4968:5048   */\n      tag_64\n      jump\t// in\n    tag_119:\n        /* \"#utility.yul\":4510:5055   */\n      swap3\n      swap2\n      pop\n      pop\n      jump\t// out\n        /* \"#utility.yul\":5061:5241   */\n    tag_65:\n        /* \"#utility.yul\":5109:5186   */\n      0x4e487b7100000000000000000000000000000000000000000000000000000000\n        /* \"#utility.yul\":5106:5107   */\n      0x00\n        /* \"#utility.yul\":5099:5187   */\n      mstore\n        /* \"#utility.yul\":5206:5210   */\n      0x11\n        /* \"#utility.yul\":5203:5204   */\n      0x04\n        /* \"#utility.yul\":5196:5211   */\n      mstore\n        /* \"#utility.yul\":5230:5234   */\n      0x24\n        /* \"#utility.yul\":5227:5228   */\n      0x00\n        /* \"#utility.yul\":5220:5235   */\n      revert\n        /* \"#utility.yul\":5247:5657   */\n    tag_37:\n        /* \"#utility.yul\":5287:5294   */\n      0x00\n        /* \"#utility.yul\":5310:5330   */\n      tag_122\n        /* \"#utility.yul\":5328:5329   */\n      dup3\n        /* \"#utility.yul\":5310:5330   */\n      tag_44\n      jump\t// in\n    tag_122:\n        /* \"#utility.yul\":5305:5330   */\n      swap2\n      pop\n        /* \"#utility.yul\":5344:5364   */\n      tag_123\n        /* \"#utility.yul\":5362:5363   */\n      dup4\n        /* \"#utility.yul\":5344:5364   */\n      tag_44\n      jump\t// in\n    tag_123:\n        /* \"#utility.yul\":5339:5364   */\n      swap3\n      pop\n        /* \"#utility.yul\":5399:5400   */\n      dup3\n        /* \"#utility.yul\":5396:5397   */\n      dup3\n        /* \"#utility.yul\":5392:5401   */\n      mul\n        /* \"#utility.yul\":5421:5451   */\n      tag_124\n        /* \"#utility.yul\":5439:5450   */\n      dup2\n        /* \"#utility.yul\":5421:5451   */\n      tag_44\n      jump\t// in\n    tag_124:\n        /* \"#utility.yul\":5410:5451   */\n      swap2\n      pop\n        /* \"#utility.yul\":5600:5601   */\n      dup3\n        /* \"#utility.yul\":5591:5598   */\n      dup3\n        /* \"#utility.yul\":5587:5602   */\n      div\n        /* \"#utility.yul\":5584:5585   */\n      dup5\n        /* \"#utility.yul\":5581:5603   */\n      eq\n        /* \"#utility.yul\":5561:5562   */\n      dup4\n        /* \"#utility.yul\":5554:5563   */\n      iszero\n        /* \"#utility.yul\":5534:5617   */\n      or\n        /* \"#utility.yul\":5511:5650   */\n      tag_125\n      jumpi\n        /* \"#utility.yul\":5630:5648   */\n      tag_126\n      tag_65\n      jump\t// in\n    tag_126:\n        /* \"#utility.yul\":5511:5650   */\n    tag_125:\n        /* \"#utility.yul\":5295:5657   */\n      pop\n        /* \"#utility.yul\":5247:5657   */\n      swap3\n      swap2\n      pop\n      pop\n      jump\t// out\n        /* \"#utility.yul\":5663:5843   */\n    tag_66:\n        /* \"#utility.yul\":5711:5788   */\n      0x4e487b7100000000000000000000000000000000000000000000000000000000\n        /* \"#utility.yul\":5708:5709   */\n      0x00\n        /* \"#utility.yul\":5701:5789   */\n      mstore\n        /* \"#utility.yul\":5808:5812   */\n      0x12\n        /* \"#utility.yul\":5805:5806   */\n      0x04\n        /* \"#utility.yul\":5798:5813   */\n      mstore\n        /* \"#utility.yul\":5832:5836   */\n      0x24\n        /* \"#utility.yul\":5829:5830   */\n      0x00\n        /* \"#utility.yul\":5822:5837   */\n      revert\n        /* \"#utility.yul\":5849:6025   */\n    tag_39:\n        /* \"#utility.yul\":5881:5882   */\n      0x00\n        /* \"#utility.yul\":5898:5918   */\n      tag_129\n        /* \"#utility.yul\":5916:5917   */\n      dup3\n        /* \"#utility.yul\":5898:5918   */\n      tag_44\n      jump\t// in\n    tag_129:\n        /* \"#utility.yul\":5893:5918   */\n      swap2\n      pop\n        /* \"#utility.yul\":5932:5952   */\n      tag_130\n        /* \"#utility.yul\":5950:5951   */\n      dup4\n        /* \"#utility.yul\":5932:5952   */\n      tag_44\n      jump\t// in\n    tag_130:\n        /* \"#utility.yul\":5927:5952   */\n      swap3\n      pop\n        /* \"#utility.yul\":5971:5972   */\n      dup3\n        /* \"#utility.yul\":5961:5996   */\n      tag_131\n      jumpi\n        /* \"#utility.yul\":5976:5994   */\n      tag_132\n      tag_66\n      jump\t// in\n    tag_132:\n        /* \"#utility.yul\":5961:5996   */\n    tag_131:\n        /* \"#utility.yul\":6017:6018   */\n      dup3\n        /* \"#utility.yul\":6014:6015   */\n      dup3\n        /* \"#utility.yul\":6010:6019   */\n      mod\n        /* \"#utility.yul\":6005:6019   */\n      swap1\n      pop\n        /* \"#utility.yul\":5849:6025   */\n      swap3\n      swap2\n      pop\n      pop\n      jump\t// out\n        /* \"#utility.yul\":6031:6264   */\n    tag_42:\n        /* \"#utility.yul\":6070:6073   */\n      0x00\n        /* \"#utility.yul\":6093:6117   */\n      tag_134\n        /* \"#utility.yul\":6111:6116   */\n      dup3\n        /* \"#utility.yul\":6093:6117   */\n      tag_44\n      jump\t// in\n    tag_134:\n        /* \"#utility.yul\":6084:6117   */\n      swap2\n      pop\n        /* \"#utility.yul\":6139:6205   */\n      0xffffffffffffffffffffffffffffffffffffffffffffffffffffffffffffffff\n        /* \"#utility.yul\":6132:6137   */\n      dup3\n        /* \"#utility.yul\":6129:6206   */\n      sub\n        /* \"#utility.yul\":6126:6229   */\n      tag_135\n      jumpi\n        /* \"#utility.yul\":6209:6227   */\n      tag_136\n      tag_65\n      jump\t// in\n    tag_136:\n        /* \"#utility.yul\":6126:6229   */\n    tag_135:\n        /* \"#utility.yul\":6256:6257   */\n      0x01\n        /* \"#utility.yul\":6249:6254   */\n      dup3\n        /* \"#utility.yul\":6245:6258   */\n      add\n        /* \"#utility.yul\":6238:6258   */\n      swap1\n      pop\n        /* \"#utility.yul\":6031:6264   */\n      swap2\n      swap1\n      pop\n      jump\t// out\n\n    auxdata: 0xa264697066735822122097c3f9cbe56da8d86341dc9751504af5f86c4be692990313fe891e1e8993120064736f6c63430008120033\n}\n",
				"bytecode": {
					"linkReferences": {},
					"object": "608060405234801561001057600080fd5b50610575806100206000396000f3fe608060405234801561001057600080fd5b506004361061004c5760003560e01c80634e70b1dc146100515780635f72f4501461006f578063cbc4093c1461008b578063d423740b146100bb575b600080fd5b6100596100d7565b60405161006691906101f2565b60405180910390f35b6100896004803603810190610084919061023e565b6100dd565b005b6100a560048036038101906100a0919061023e565b610164565b6040516100b29190610286565b60405180910390f35b6100d560048036038101906100d0919061023e565b6101cf565b005b60005481565b6100e681610164565b15610128577fe5ac3b44f31f120737b6a2da648e09a86e83d35ffef8172d1f5eacd99a635568600160405161011b9190610343565b60405180910390a1610161565b7fe5ac3b44f31f120737b6a2da648e09a86e83d35ffef8172d1f5eacd99a635568600260405161015891906103f8565b60405180910390a15b50565b60006001821161017757600090506101ca565b6000600290505b600054818261018d9190610455565b116101c4576000816000546101a291906104c6565b036101b15760009150506101ca565b80806101bc906104f7565b91505061017e565b50600190505b919050565b8060008190555050565b6000819050919050565b6101ec816101d9565b82525050565b600060208201905061020760008301846101e3565b92915050565b600080fd5b61021b816101d9565b811461022657600080fd5b50565b60008135905061023881610212565b92915050565b6000602082840312156102545761025361020d565b5b600061026284828501610229565b91505092915050565b60008115159050919050565b6102808161026b565b82525050565b600060208201905061029b6000830184610277565b92915050565b600082825260208201905092915050565b7f546865206e756d626572206973207072696d6500000000000000000000000000600082015250565b60006102e86013836102a1565b91506102f3826102b2565b602082019050919050565b6000819050919050565b6000819050919050565b600061032d610328610323846102fe565b610308565b6101d9565b9050919050565b61033d81610312565b82525050565b6000604082019050818103600083015261035c816102db565b905061036b6020830184610334565b92915050565b7f546865206e756d626572206973206e6f74207072696d65000000000000000000600082015250565b60006103a76017836102a1565b91506103b282610371565b602082019050919050565b6000819050919050565b60006103e26103dd6103d8846103bd565b610308565b6101d9565b9050919050565b6103f2816103c7565b82525050565b600060408201905081810360008301526104118161039a565b905061042060208301846103e9565b92915050565b7f4e487b7100000000000000000000000000000000000000000000000000000000600052601160045260246000fd5b6000610460826101d9565b915061046b836101d9565b9250828202610479816101d9565b915082820484148315176104905761048f610426565b5b5092915050565b7f4e487b7100000000000000000000000000000000000000000000000000000000600052601260045260246000fd5b60006104d1826101d9565b91506104dc836101d9565b9250826104ec576104eb610497565b5b828206905092915050565b6000610502826101d9565b91507fffffffffffffffffffffffffffffffffffffffffffffffffffffffffffffffff820361053457610533610426565b5b60018201905091905056fea264697066735822122097c3f9cbe56da8d86341dc9751504af5f86c4be692990313fe891e1e8993120064736f6c63430008120033",
					"opcodes": "PUSH1 0x80 PUSH1 0x40 MSTORE CALLVALUE DUP1 ISZERO PUSH2 0x10 JUMPI PUSH1 0x0 DUP1 REVERT JUMPDEST POP PUSH2 0x575 DUP1 PUSH2 0x20 PUSH1 0x0 CODECOPY PUSH1 0x0 RETURN INVALID PUSH1 0x80 PUSH1 0x40 MSTORE CALLVALUE DUP1 ISZERO PUSH2 0x10 JUMPI PUSH1 0x0 DUP1 REVERT JUMPDEST POP PUSH1 0x4 CALLDATASIZE LT PUSH2 0x4C JUMPI PUSH1 0x0 CALLDATALOAD PUSH1 0xE0 SHR DUP1 PUSH4 0x4E70B1DC EQ PUSH2 0x51 JUMPI DUP1 PUSH4 0x5F72F450 EQ PUSH2 0x6F JUMPI DUP1 PUSH4 0xCBC4093C EQ PUSH2 0x8B JUMPI DUP1 PUSH4 0xD423740B EQ PUSH2 0xBB JUMPI JUMPDEST PUSH1 0x0 DUP1 REVERT JUMPDEST PUSH2 0x59 PUSH2 0xD7 JUMP JUMPDEST PUSH1 0x40 MLOAD PUSH2 0x66 SWAP2 SWAP1 PUSH2 0x1F2 JUMP JUMPDEST PUSH1 0x40 MLOAD DUP1 SWAP2 SUB SWAP1 RETURN JUMPDEST PUSH2 0x89 PUSH1 0x4 DUP1 CALLDATASIZE SUB DUP2 ADD SWAP1 PUSH2 0x84 SWAP2 SWAP1 PUSH2 0x23E JUMP JUMPDEST PUSH2 0xDD JUMP JUMPDEST STOP JUMPDEST PUSH2 0xA5 PUSH1 0x4 DUP1 CALLDATASIZE SUB DUP2 ADD SWAP1 PUSH2 0xA0 SWAP2 SWAP1 PUSH2 0x23E JUMP JUMPDEST PUSH2 0x164 JUMP JUMPDEST PUSH1 0x40 MLOAD PUSH2 0xB2 SWAP2 SWAP1 PUSH2 0x286 JUMP JUMPDEST PUSH1 0x40 MLOAD DUP1 SWAP2 SUB SWAP1 RETURN JUMPDEST PUSH2 0xD5 PUSH1 0x4 DUP1 CALLDATASIZE SUB DUP2 ADD SWAP1 PUSH2 0xD0 SWAP2 SWAP1 PUSH2 0x23E JUMP JUMPDEST PUSH2 0x1CF JUMP JUMPDEST STOP JUMPDEST PUSH1 0x0 SLOAD DUP2 JUMP JUMPDEST PUSH2 0xE6 DUP2 PUSH2 0x164 JUMP JUMPDEST ISZERO PUSH2 0x128 JUMPI PUSH32 0xE5AC3B44F31F120737B6A2DA648E09A86E83D35FFEF8172D1F5EACD99A635568 PUSH1 0x1 PUSH1 0x40 MLOAD PUSH2 0x11B SWAP2 SWAP1 PUSH2 0x343 JUMP JUMPDEST PUSH1 0x40 MLOAD DUP1 SWAP2 SUB SWAP1 LOG1 PUSH2 0x161 JUMP JUMPDEST PUSH32 0xE5AC3B44F31F120737B6A2DA648E09A86E83D35FFEF8172D1F5EACD99A635568 PUSH1 0x2 PUSH1 0x40 MLOAD PUSH2 0x158 SWAP2 SWAP1 PUSH2 0x3F8 JUMP JUMPDEST PUSH1 0x40 MLOAD DUP1 SWAP2 SUB SWAP1 LOG1 JUMPDEST POP JUMP JUMPDEST PUSH1 0x0 PUSH1 0x1 DUP3 GT PUSH2 0x177 JUMPI PUSH1 0x0 SWAP1 POP PUSH2 0x1CA JUMP JUMPDEST PUSH1 0x0 PUSH1 0x2 SWAP1 POP JUMPDEST PUSH1 0x0 SLOAD DUP2 DUP3 PUSH2 0x18D SWAP2 SWAP1 PUSH2 0x455 JUMP JUMPDEST GT PUSH2 0x1C4 JUMPI PUSH1 0x0 DUP2 PUSH1 0x0 SLOAD PUSH2 0x1A2 SWAP2 SWAP1 PUSH2 0x4C6 JUMP JUMPDEST SUB PUSH2 0x1B1 JUMPI PUSH1 0x0 SWAP2 POP POP PUSH2 0x1CA JUMP JUMPDEST DUP1 DUP1 PUSH2 0x1BC SWAP1 PUSH2 0x4F7 JUMP JUMPDEST SWAP2 POP POP PUSH2 0x17E JUMP JUMPDEST POP PUSH1 0x1 SWAP1 POP JUMPDEST SWAP2 SWAP1 POP JUMP JUMPDEST DUP1 PUSH1 0x0 DUP2 SWAP1 SSTORE POP POP JUMP JUMPDEST PUSH1 0x0 DUP2 SWAP1 POP SWAP2 SWAP1 POP JUMP JUMPDEST PUSH2 0x1EC DUP2 PUSH2 0x1D9 JUMP JUMPDEST DUP3 MSTORE POP POP JUMP JUMPDEST PUSH1 0x0 PUSH1 0x20 DUP3 ADD SWAP1 POP PUSH2 0x207 PUSH1 0x0 DUP4 ADD DUP5 PUSH2 0x1E3 JUMP JUMPDEST SWAP3 SWAP2 POP POP JUMP JUMPDEST PUSH1 0x0 DUP1 REVERT JUMPDEST PUSH2 0x21B DUP2 PUSH2 0x1D9 JUMP JUMPDEST DUP2 EQ PUSH2 0x226 JUMPI PUSH1 0x0 DUP1 REVERT JUMPDEST POP JUMP JUMPDEST PUSH1 0x0 DUP2 CALLDATALOAD SWAP1 POP PUSH2 0x238 DUP2 PUSH2 0x212 JUMP JUMPDEST SWAP3 SWAP2 POP POP JUMP JUMPDEST PUSH1 0x0 PUSH1 0x20 DUP3 DUP5 SUB SLT ISZERO PUSH2 0x254 JUMPI PUSH2 0x253 PUSH2 0x20D JUMP JUMPDEST JUMPDEST PUSH1 0x0 PUSH2 0x262 DUP5 DUP3 DUP6 ADD PUSH2 0x229 JUMP JUMPDEST SWAP2 POP POP SWAP3 SWAP2 POP POP JUMP JUMPDEST PUSH1 0x0 DUP2 ISZERO ISZERO SWAP1 POP SWAP2 SWAP1 POP JUMP JUMPDEST PUSH2 0x280 DUP2 PUSH2 0x26B JUMP JUMPDEST DUP3 MSTORE POP POP JUMP JUMPDEST PUSH1 0x0 PUSH1 0x20 DUP3 ADD SWAP1 POP PUSH2 0x29B PUSH1 0x0 DUP4 ADD DUP5 PUSH2 0x277 JUMP JUMPDEST SWAP3 SWAP2 POP POP JUMP JUMPDEST PUSH1 0x0 DUP3 DUP3 MSTORE PUSH1 0x20 DUP3 ADD SWAP1 POP SWAP3 SWAP2 POP POP JUMP JUMPDEST PUSH32 0x546865206E756D626572206973207072696D6500000000000000000000000000 PUSH1 0x0 DUP3 ADD MSTORE POP JUMP JUMPDEST PUSH1 0x0 PUSH2 0x2E8 PUSH1 0x13 DUP4 PUSH2 0x2A1 JUMP JUMPDEST SWAP2 POP PUSH2 0x2F3 DUP3 PUSH2 0x2B2 JUMP JUMPDEST PUSH1 0x20 DUP3 ADD SWAP1 POP SWAP2 SWAP1 POP JUMP JUMPDEST PUSH1 0x0 DUP2 SWAP1 POP SWAP2 SWAP1 POP JUMP JUMPDEST PUSH1 0x0 DUP2 SWAP1 POP SWAP2 SWAP1 POP JUMP JUMPDEST PUSH1 0x0 PUSH2 0x32D PUSH2 0x328 PUSH2 0x323 DUP5 PUSH2 0x2FE JUMP JUMPDEST PUSH2 0x308 JUMP JUMPDEST PUSH2 0x1D9 JUMP JUMPDEST SWAP1 POP SWAP2 SWAP1 POP JUMP JUMPDEST PUSH2 0x33D DUP2 PUSH2 0x312 JUMP JUMPDEST DUP3 MSTORE POP POP JUMP JUMPDEST PUSH1 0x0 PUSH1 0x40 DUP3 ADD SWAP1 POP DUP2 DUP2 SUB PUSH1 0x0 DUP4 ADD MSTORE PUSH2 0x35C DUP2 PUSH2 0x2DB JUMP JUMPDEST SWAP1 POP PUSH2 0x36B PUSH1 0x20 DUP4 ADD DUP5 PUSH2 0x334 JUMP JUMPDEST SWAP3 SWAP2 POP POP JUMP JUMPDEST PUSH32 0x546865206E756D626572206973206E6F74207072696D65000000000000000000 PUSH1 0x0 DUP3 ADD MSTORE POP JUMP JUMPDEST PUSH1 0x0 PUSH2 0x3A7 PUSH1 0x17 DUP4 PUSH2 0x2A1 JUMP JUMPDEST SWAP2 POP PUSH2 0x3B2 DUP3 PUSH2 0x371 JUMP JUMPDEST PUSH1 0x20 DUP3 ADD SWAP1 POP SWAP2 SWAP1 POP JUMP JUMPDEST PUSH1 0x0 DUP2 SWAP1 POP SWAP2 SWAP1 POP JUMP JUMPDEST PUSH1 0x0 PUSH2 0x3E2 PUSH2 0x3DD PUSH2 0x3D8 DUP5 PUSH2 0x3BD JUMP JUMPDEST PUSH2 0x308 JUMP JUMPDEST PUSH2 0x1D9 JUMP JUMPDEST SWAP1 POP SWAP2 SWAP1 POP JUMP JUMPDEST PUSH2 0x3F2 DUP2 PUSH2 0x3C7 JUMP JUMPDEST DUP3 MSTORE POP POP JUMP JUMPDEST PUSH1 0x0 PUSH1 0x40 DUP3 ADD SWAP1 POP DUP2 DUP2 SUB PUSH1 0x0 DUP4 ADD MSTORE PUSH2 0x411 DUP2 PUSH2 0x39A JUMP JUMPDEST SWAP1 POP PUSH2 0x420 PUSH1 0x20 DUP4 ADD DUP5 PUSH2 0x3E9 JUMP JUMPDEST SWAP3 SWAP2 POP POP JUMP JUMPDEST PUSH32 0x4E487B7100000000000000000000000000000000000000000000000000000000 PUSH1 0x0 MSTORE PUSH1 0x11 PUSH1 0x4 MSTORE PUSH1 0x24 PUSH1 0x0 REVERT JUMPDEST PUSH1 0x0 PUSH2 0x460 DUP3 PUSH2 0x1D9 JUMP JUMPDEST SWAP2 POP PUSH2 0x46B DUP4 PUSH2 0x1D9 JUMP JUMPDEST SWAP3 POP DUP3 DUP3 MUL PUSH2 0x479 DUP2 PUSH2 0x1D9 JUMP JUMPDEST SWAP2 POP DUP3 DUP3 DIV DUP5 EQ DUP4 ISZERO OR PUSH2 0x490 JUMPI PUSH2 0x48F PUSH2 0x426 JUMP JUMPDEST JUMPDEST POP SWAP3 SWAP2 POP POP JUMP JUMPDEST PUSH32 0x4E487B7100000000000000000000000000000000000000000000000000000000 PUSH1 0x0 MSTORE PUSH1 0x12 PUSH1 0x4 MSTORE PUSH1 0x24 PUSH1 0x0 REVERT JUMPDEST PUSH1 0x0 PUSH2 0x4D1 DUP3 PUSH2 0x1D9 JUMP JUMPDEST SWAP2 POP PUSH2 0x4DC DUP4 PUSH2 0x1D9 JUMP JUMPDEST SWAP3 POP DUP3 PUSH2 0x4EC JUMPI PUSH2 0x4EB PUSH2 0x497 JUMP JUMPDEST JUMPDEST DUP3 DUP3 MOD SWAP1 POP SWAP3 SWAP2 POP POP JUMP JUMPDEST PUSH1 0x0 PUSH2 0x502 DUP3 PUSH2 0x1D9 JUMP JUMPDEST SWAP2 POP PUSH32 0xFFFFFFFFFFFFFFFFFFFFFFFFFFFFFFFFFFFFFFFFFFFFFFFFFFFFFFFFFFFFFFFF DUP3 SUB PUSH2 0x534 JUMPI PUSH2 0x533 PUSH2 0x426 JUMP JUMPDEST JUMPDEST PUSH1 0x1 DUP3 ADD SWAP1 POP SWAP2 SWAP1 POP JUMP INVALID LOG2 PUSH5 0x6970667358 0x22 SLT KECCAK256 SWAP8 0xC3 0xF9 0xCB 0xE5 PUSH14 0xA8D86341DC9751504AF5F86C4BE6 SWAP3 SWAP10 SUB SGT INVALID DUP10 0x1E 0x1E DUP10 SWAP4 SLT STOP PUSH5 0x736F6C6343 STOP ADDMOD SLT STOP CALLER "
				},
				"gasEstimates": {
					"creation": {
						"codeDepositCost": "279400",
						"executionCost": "318",
						"totalCost": "279718"
					},
					"external": {
						"check(uint256)": "infinite",
						"num()": "2407",
						"primeNo(uint256)": "infinite",
						"setter(uint256)": "22564"
					}
				},
				"methodIdentifiers": {
					"check(uint256)": "5f72f450",
					"num()": "4e70b1dc",
					"primeNo(uint256)": "cbc4093c",
					"setter(uint256)": "d423740b"
				}
			},
			"storageLayout": {
				"storage": [
					{
						"astId": 3,
						"contract": "lAB 10-08-2023/EX4,sol.sol:NoPrime",
						"label": "num",
						"offset": 0,
						"slot": "0",
						"type": "t_uint256"
					}
				],
				"types": {
					"t_uint256": {
						"encoding": "inplace",
						"label": "uint256",
						"numberOfBytes": "32"
					}
				}
			},
			"userdoc": {
				"kind": "user",
				"methods": {},
				"version": 1
			}
		}
	}
}