{
	"data": {
		"bytecode": {
			"linkReferences": {},
			"object": "608060405234801561001057600080fd5b506107f9806100206000396000f3fe608060405234801561001057600080fd5b50600436106100415760003560e01c80630ad9d0521461004657806354efe02814610064578063c6dad08214610095575b600080fd5b61004e6100b3565b60405161005b9190610217565b60405180910390f35b61007e600480360381019061007991906103b8565b6100b9565b60405161008c929190610493565b60405180910390f35b61009d610170565b6040516100aa91906104c3565b60405180910390f35b60015481565b6060600083600090816100cc91906106f1565b508260018190555060006001548180546100e590610514565b80601f016020809104026020016040519081016040528092919081815260200182805461011190610514565b801561015e5780601f106101335761010080835404028352916020019161015e565b820191906000526020600020905b81548152906001019060200180831161014157829003601f168201915b50505050509150915091509250929050565b6000805461017d90610514565b80601f01602080910402602001604051908101604052809291908181526020018280546101a990610514565b80156101f65780601f106101cb576101008083540402835291602001916101f6565b820191906000526020600020905b8154815290600101906020018083116101d957829003601f168201915b505050505081565b6000819050919050565b610211816101fe565b82525050565b600060208201905061022c6000830184610208565b92915050565b6000604051905090565b600080fd5b600080fd5b600080fd5b600080fd5b6000601f19601f8301169050919050565b7f4e487b7100000000000000000000000000000000000000000000000000000000600052604160045260246000fd5b61029982610250565b810181811067ffffffffffffffff821117156102b8576102b7610261565b5b80604052505050565b60006102cb610232565b90506102d78282610290565b919050565b600067ffffffffffffffff8211156102f7576102f6610261565b5b61030082610250565b9050602081019050919050565b82818337600083830152505050565b600061032f61032a846102dc565b6102c1565b90508281526020810184848401111561034b5761034a61024b565b5b61035684828561030d565b509392505050565b600082601f83011261037357610372610246565b5b813561038384826020860161031c565b91505092915050565b610395816101fe565b81146103a057600080fd5b50565b6000813590506103b28161038c565b92915050565b600080604083850312156103cf576103ce61023c565b5b600083013567ffffffffffffffff8111156103ed576103ec610241565b5b6103f98582860161035e565b925050602061040a858286016103a3565b9150509250929050565b600081519050919050565b600082825260208201905092915050565b60005b8381101561044e578082015181840152602081019050610433565b60008484015250505050565b600061046582610414565b61046f818561041f565b935061047f818560208601610430565b61048881610250565b840191505092915050565b600060408201905081810360008301526104ad818561045a565b90506104bc6020830184610208565b9392505050565b600060208201905081810360008301526104dd818461045a565b905092915050565b7f4e487b7100000000000000000000000000000000000000000000000000000000600052602260045260246000fd5b6000600282049050600182168061052c57607f821691505b60208210810361053f5761053e6104e5565b5b50919050565b60008190508160005260206000209050919050565b60006020601f8301049050919050565b600082821b905092915050565b6000600883026105a77fffffffffffffffffffffffffffffffffffffffffffffffffffffffffffffffff8261056a565b6105b1868361056a565b95508019841693508086168417925050509392505050565b6000819050919050565b60006105ee6105e96105e4846101fe565b6105c9565b6101fe565b9050919050565b6000819050919050565b610608836105d3565b61061c610614826105f5565b848454610577565b825550505050565b600090565b610631610624565b61063c8184846105ff565b505050565b5b8181101561066057610655600082610629565b600181019050610642565b5050565b601f8211156106a55761067681610545565b61067f8461055a565b8101602085101561068e578190505b6106a261069a8561055a565b830182610641565b50505b505050565b600082821c905092915050565b60006106c8600019846008026106aa565b1980831691505092915050565b60006106e183836106b7565b9150826002028217905092915050565b6106fa82610414565b67ffffffffffffffff81111561071357610712610261565b5b61071d8254610514565b610728828285610664565b600060209050601f83116001811461075b5760008415610749578287015190505b61075385826106d5565b8655506107bb565b601f19841661076986610545565b60005b828110156107915784890151825560018201915060208501945060208101905061076c565b868310156107ae57848901516107aa601f8916826106b7565b8355505b6001600288020188555050505b50505050505056fea26469706673582212207114d2af36bf1068a890176394e2a386c94046d21e746adeb8063ee717949e8464736f6c63430008120033",
			"opcodes": "PUSH1 0x80 PUSH1 0x40 MSTORE CALLVALUE DUP1 ISZERO PUSH2 0x10 JUMPI PUSH1 0x0 DUP1 REVERT JUMPDEST POP PUSH2 0x7F9 DUP1 PUSH2 0x20 PUSH1 0x0 CODECOPY PUSH1 0x0 RETURN INVALID PUSH1 0x80 PUSH1 0x40 MSTORE CALLVALUE DUP1 ISZERO PUSH2 0x10 JUMPI PUSH1 0x0 DUP1 REVERT JUMPDEST POP PUSH1 0x4 CALLDATASIZE LT PUSH2 0x41 JUMPI PUSH1 0x0 CALLDATALOAD PUSH1 0xE0 SHR DUP1 PUSH4 0xAD9D052 EQ PUSH2 0x46 JUMPI DUP1 PUSH4 0x54EFE028 EQ PUSH2 0x64 JUMPI DUP1 PUSH4 0xC6DAD082 EQ PUSH2 0x95 JUMPI JUMPDEST PUSH1 0x0 DUP1 REVERT JUMPDEST PUSH2 0x4E PUSH2 0xB3 JUMP JUMPDEST PUSH1 0x40 MLOAD PUSH2 0x5B SWAP2 SWAP1 PUSH2 0x217 JUMP JUMPDEST PUSH1 0x40 MLOAD DUP1 SWAP2 SUB SWAP1 RETURN JUMPDEST PUSH2 0x7E PUSH1 0x4 DUP1 CALLDATASIZE SUB DUP2 ADD SWAP1 PUSH2 0x79 SWAP2 SWAP1 PUSH2 0x3B8 JUMP JUMPDEST PUSH2 0xB9 JUMP JUMPDEST PUSH1 0x40 MLOAD PUSH2 0x8C SWAP3 SWAP2 SWAP1 PUSH2 0x493 JUMP JUMPDEST PUSH1 0x40 MLOAD DUP1 SWAP2 SUB SWAP1 RETURN JUMPDEST PUSH2 0x9D PUSH2 0x170 JUMP JUMPDEST PUSH1 0x40 MLOAD PUSH2 0xAA SWAP2 SWAP1 PUSH2 0x4C3 JUMP JUMPDEST PUSH1 0x40 MLOAD DUP1 SWAP2 SUB SWAP1 RETURN JUMPDEST PUSH1 0x1 SLOAD DUP2 JUMP JUMPDEST PUSH1 0x60 PUSH1 0x0 DUP4 PUSH1 0x0 SWAP1 DUP2 PUSH2 0xCC SWAP2 SWAP1 PUSH2 0x6F1 JUMP JUMPDEST POP DUP3 PUSH1 0x1 DUP2 SWAP1 SSTORE POP PUSH1 0x0 PUSH1 0x1 SLOAD DUP2 DUP1 SLOAD PUSH2 0xE5 SWAP1 PUSH2 0x514 JUMP JUMPDEST DUP1 PUSH1 0x1F ADD PUSH1 0x20 DUP1 SWAP2 DIV MUL PUSH1 0x20 ADD PUSH1 0x40 MLOAD SWAP1 DUP2 ADD PUSH1 0x40 MSTORE DUP1 SWAP3 SWAP2 SWAP1 DUP2 DUP2 MSTORE PUSH1 0x20 ADD DUP3 DUP1 SLOAD PUSH2 0x111 SWAP1 PUSH2 0x514 JUMP JUMPDEST DUP1 ISZERO PUSH2 0x15E JUMPI DUP1 PUSH1 0x1F LT PUSH2 0x133 JUMPI PUSH2 0x100 DUP1 DUP4 SLOAD DIV MUL DUP4 MSTORE SWAP2 PUSH1 0x20 ADD SWAP2 PUSH2 0x15E JUMP JUMPDEST DUP3 ADD SWAP2 SWAP1 PUSH1 0x0 MSTORE PUSH1 0x20 PUSH1 0x0 KECCAK256 SWAP1 JUMPDEST DUP2 SLOAD DUP2 MSTORE SWAP1 PUSH1 0x1 ADD SWAP1 PUSH1 0x20 ADD DUP1 DUP4 GT PUSH2 0x141 JUMPI DUP3 SWAP1 SUB PUSH1 0x1F AND DUP3 ADD SWAP2 JUMPDEST POP POP POP POP POP SWAP2 POP SWAP2 POP SWAP2 POP SWAP3 POP SWAP3 SWAP1 POP JUMP JUMPDEST PUSH1 0x0 DUP1 SLOAD PUSH2 0x17D SWAP1 PUSH2 0x514 JUMP JUMPDEST DUP1 PUSH1 0x1F ADD PUSH1 0x20 DUP1 SWAP2 DIV MUL PUSH1 0x20 ADD PUSH1 0x40 MLOAD SWAP1 DUP2 ADD PUSH1 0x40 MSTORE DUP1 SWAP3 SWAP2 SWAP1 DUP2 DUP2 MSTORE PUSH1 0x20 ADD DUP3 DUP1 SLOAD PUSH2 0x1A9 SWAP1 PUSH2 0x514 JUMP JUMPDEST DUP1 ISZERO PUSH2 0x1F6 JUMPI DUP1 PUSH1 0x1F LT PUSH2 0x1CB JUMPI PUSH2 0x100 DUP1 DUP4 SLOAD DIV MUL DUP4 MSTORE SWAP2 PUSH1 0x20 ADD SWAP2 PUSH2 0x1F6 JUMP JUMPDEST DUP3 ADD SWAP2 SWAP1 PUSH1 0x0 MSTORE PUSH1 0x20 PUSH1 0x0 KECCAK256 SWAP1 JUMPDEST DUP2 SLOAD DUP2 MSTORE SWAP1 PUSH1 0x1 ADD SWAP1 PUSH1 0x20 ADD DUP1 DUP4 GT PUSH2 0x1D9 JUMPI DUP3 SWAP1 SUB PUSH1 0x1F AND DUP3 ADD SWAP2 JUMPDEST POP POP POP POP POP DUP2 JUMP JUMPDEST PUSH1 0x0 DUP2 SWAP1 POP SWAP2 SWAP1 POP JUMP JUMPDEST PUSH2 0x211 DUP2 PUSH2 0x1FE JUMP JUMPDEST DUP3 MSTORE POP POP JUMP JUMPDEST PUSH1 0x0 PUSH1 0x20 DUP3 ADD SWAP1 POP PUSH2 0x22C PUSH1 0x0 DUP4 ADD DUP5 PUSH2 0x208 JUMP JUMPDEST SWAP3 SWAP2 POP POP JUMP JUMPDEST PUSH1 0x0 PUSH1 0x40 MLOAD SWAP1 POP SWAP1 JUMP JUMPDEST PUSH1 0x0 DUP1 REVERT JUMPDEST PUSH1 0x0 DUP1 REVERT JUMPDEST PUSH1 0x0 DUP1 REVERT JUMPDEST PUSH1 0x0 DUP1 REVERT JUMPDEST PUSH1 0x0 PUSH1 0x1F NOT PUSH1 0x1F DUP4 ADD AND SWAP1 POP SWAP2 SWAP1 POP JUMP JUMPDEST PUSH32 0x4E487B7100000000000000000000000000000000000000000000000000000000 PUSH1 0x0 MSTORE PUSH1 0x41 PUSH1 0x4 MSTORE PUSH1 0x24 PUSH1 0x0 REVERT JUMPDEST PUSH2 0x299 DUP3 PUSH2 0x250 JUMP JUMPDEST DUP2 ADD DUP2 DUP2 LT PUSH8 0xFFFFFFFFFFFFFFFF DUP3 GT OR ISZERO PUSH2 0x2B8 JUMPI PUSH2 0x2B7 PUSH2 0x261 JUMP JUMPDEST JUMPDEST DUP1 PUSH1 0x40 MSTORE POP POP POP JUMP JUMPDEST PUSH1 0x0 PUSH2 0x2CB PUSH2 0x232 JUMP JUMPDEST SWAP1 POP PUSH2 0x2D7 DUP3 DUP3 PUSH2 0x290 JUMP JUMPDEST SWAP2 SWAP1 POP JUMP JUMPDEST PUSH1 0x0 PUSH8 0xFFFFFFFFFFFFFFFF DUP3 GT ISZERO PUSH2 0x2F7 JUMPI PUSH2 0x2F6 PUSH2 0x261 JUMP JUMPDEST JUMPDEST PUSH2 0x300 DUP3 PUSH2 0x250 JUMP JUMPDEST SWAP1 POP PUSH1 0x20 DUP2 ADD SWAP1 POP SWAP2 SWAP1 POP JUMP JUMPDEST DUP3 DUP2 DUP4 CALLDATACOPY PUSH1 0x0 DUP4 DUP4 ADD MSTORE POP POP POP JUMP JUMPDEST PUSH1 0x0 PUSH2 0x32F PUSH2 0x32A DUP5 PUSH2 0x2DC JUMP JUMPDEST PUSH2 0x2C1 JUMP JUMPDEST SWAP1 POP DUP3 DUP2 MSTORE PUSH1 0x20 DUP2 ADD DUP5 DUP5 DUP5 ADD GT ISZERO PUSH2 0x34B JUMPI PUSH2 0x34A PUSH2 0x24B JUMP JUMPDEST JUMPDEST PUSH2 0x356 DUP5 DUP3 DUP6 PUSH2 0x30D JUMP JUMPDEST POP SWAP4 SWAP3 POP POP POP JUMP JUMPDEST PUSH1 0x0 DUP3 PUSH1 0x1F DUP4 ADD SLT PUSH2 0x373 JUMPI PUSH2 0x372 PUSH2 0x246 JUMP JUMPDEST JUMPDEST DUP2 CALLDATALOAD PUSH2 0x383 DUP5 DUP3 PUSH1 0x20 DUP7 ADD PUSH2 0x31C JUMP JUMPDEST SWAP2 POP POP SWAP3 SWAP2 POP POP JUMP JUMPDEST PUSH2 0x395 DUP2 PUSH2 0x1FE JUMP JUMPDEST DUP2 EQ PUSH2 0x3A0 JUMPI PUSH1 0x0 DUP1 REVERT JUMPDEST POP JUMP JUMPDEST PUSH1 0x0 DUP2 CALLDATALOAD SWAP1 POP PUSH2 0x3B2 DUP2 PUSH2 0x38C JUMP JUMPDEST SWAP3 SWAP2 POP POP JUMP JUMPDEST PUSH1 0x0 DUP1 PUSH1 0x40 DUP4 DUP6 SUB SLT ISZERO PUSH2 0x3CF JUMPI PUSH2 0x3CE PUSH2 0x23C JUMP JUMPDEST JUMPDEST PUSH1 0x0 DUP4 ADD CALLDATALOAD PUSH8 0xFFFFFFFFFFFFFFFF DUP2 GT ISZERO PUSH2 0x3ED JUMPI PUSH2 0x3EC PUSH2 0x241 JUMP JUMPDEST JUMPDEST PUSH2 0x3F9 DUP6 DUP3 DUP7 ADD PUSH2 0x35E JUMP JUMPDEST SWAP3 POP POP PUSH1 0x20 PUSH2 0x40A DUP6 DUP3 DUP7 ADD PUSH2 0x3A3 JUMP JUMPDEST SWAP2 POP POP SWAP3 POP SWAP3 SWAP1 POP JUMP JUMPDEST PUSH1 0x0 DUP2 MLOAD SWAP1 POP SWAP2 SWAP1 POP JUMP JUMPDEST PUSH1 0x0 DUP3 DUP3 MSTORE PUSH1 0x20 DUP3 ADD SWAP1 POP SWAP3 SWAP2 POP POP JUMP JUMPDEST PUSH1 0x0 JUMPDEST DUP4 DUP2 LT ISZERO PUSH2 0x44E JUMPI DUP1 DUP3 ADD MLOAD DUP2 DUP5 ADD MSTORE PUSH1 0x20 DUP2 ADD SWAP1 POP PUSH2 0x433 JUMP JUMPDEST PUSH1 0x0 DUP5 DUP5 ADD MSTORE POP POP POP POP JUMP JUMPDEST PUSH1 0x0 PUSH2 0x465 DUP3 PUSH2 0x414 JUMP JUMPDEST PUSH2 0x46F DUP2 DUP6 PUSH2 0x41F JUMP JUMPDEST SWAP4 POP PUSH2 0x47F DUP2 DUP6 PUSH1 0x20 DUP7 ADD PUSH2 0x430 JUMP JUMPDEST PUSH2 0x488 DUP2 PUSH2 0x250 JUMP JUMPDEST DUP5 ADD SWAP2 POP POP SWAP3 SWAP2 POP POP JUMP JUMPDEST PUSH1 0x0 PUSH1 0x40 DUP3 ADD SWAP1 POP DUP2 DUP2 SUB PUSH1 0x0 DUP4 ADD MSTORE PUSH2 0x4AD DUP2 DUP6 PUSH2 0x45A JUMP JUMPDEST SWAP1 POP PUSH2 0x4BC PUSH1 0x20 DUP4 ADD DUP5 PUSH2 0x208 JUMP JUMPDEST SWAP4 SWAP3 POP POP POP JUMP JUMPDEST PUSH1 0x0 PUSH1 0x20 DUP3 ADD SWAP1 POP DUP2 DUP2 SUB PUSH1 0x0 DUP4 ADD MSTORE PUSH2 0x4DD DUP2 DUP5 PUSH2 0x45A JUMP JUMPDEST SWAP1 POP SWAP3 SWAP2 POP POP JUMP JUMPDEST PUSH32 0x4E487B7100000000000000000000000000000000000000000000000000000000 PUSH1 0x0 MSTORE PUSH1 0x22 PUSH1 0x4 MSTORE PUSH1 0x24 PUSH1 0x0 REVERT JUMPDEST PUSH1 0x0 PUSH1 0x2 DUP3 DIV SWAP1 POP PUSH1 0x1 DUP3 AND DUP1 PUSH2 0x52C JUMPI PUSH1 0x7F DUP3 AND SWAP2 POP JUMPDEST PUSH1 0x20 DUP3 LT DUP2 SUB PUSH2 0x53F JUMPI PUSH2 0x53E PUSH2 0x4E5 JUMP JUMPDEST JUMPDEST POP SWAP2 SWAP1 POP JUMP JUMPDEST PUSH1 0x0 DUP2 SWAP1 POP DUP2 PUSH1 0x0 MSTORE PUSH1 0x20 PUSH1 0x0 KECCAK256 SWAP1 POP SWAP2 SWAP1 POP JUMP JUMPDEST PUSH1 0x0 PUSH1 0x20 PUSH1 0x1F DUP4 ADD DIV SWAP1 POP SWAP2 SWAP1 POP JUMP JUMPDEST PUSH1 0x0 DUP3 DUP3 SHL SWAP1 POP SWAP3 SWAP2 POP POP JUMP JUMPDEST PUSH1 0x0 PUSH1 0x8 DUP4 MUL PUSH2 0x5A7 PUSH32 0xFFFFFFFFFFFFFFFFFFFFFFFFFFFFFFFFFFFFFFFFFFFFFFFFFFFFFFFFFFFFFFFF DUP3 PUSH2 0x56A JUMP JUMPDEST PUSH2 0x5B1 DUP7 DUP4 PUSH2 0x56A JUMP JUMPDEST SWAP6 POP DUP1 NOT DUP5 AND SWAP4 POP DUP1 DUP7 AND DUP5 OR SWAP3 POP POP POP SWAP4 SWAP3 POP POP POP JUMP JUMPDEST PUSH1 0x0 DUP2 SWAP1 POP SWAP2 SWAP1 POP JUMP JUMPDEST PUSH1 0x0 PUSH2 0x5EE PUSH2 0x5E9 PUSH2 0x5E4 DUP5 PUSH2 0x1FE JUMP JUMPDEST PUSH2 0x5C9 JUMP JUMPDEST PUSH2 0x1FE JUMP JUMPDEST SWAP1 POP SWAP2 SWAP1 POP JUMP JUMPDEST PUSH1 0x0 DUP2 SWAP1 POP SWAP2 SWAP1 POP JUMP JUMPDEST PUSH2 0x608 DUP4 PUSH2 0x5D3 JUMP JUMPDEST PUSH2 0x61C PUSH2 0x614 DUP3 PUSH2 0x5F5 JUMP JUMPDEST DUP5 DUP5 SLOAD PUSH2 0x577 JUMP JUMPDEST DUP3 SSTORE POP POP POP POP JUMP JUMPDEST PUSH1 0x0 SWAP1 JUMP JUMPDEST PUSH2 0x631 PUSH2 0x624 JUMP JUMPDEST PUSH2 0x63C DUP2 DUP5 DUP5 PUSH2 0x5FF JUMP JUMPDEST POP POP POP JUMP JUMPDEST JUMPDEST DUP2 DUP2 LT ISZERO PUSH2 0x660 JUMPI PUSH2 0x655 PUSH1 0x0 DUP3 PUSH2 0x629 JUMP JUMPDEST PUSH1 0x1 DUP2 ADD SWAP1 POP PUSH2 0x642 JUMP JUMPDEST POP POP JUMP JUMPDEST PUSH1 0x1F DUP3 GT ISZERO PUSH2 0x6A5 JUMPI PUSH2 0x676 DUP2 PUSH2 0x545 JUMP JUMPDEST PUSH2 0x67F DUP5 PUSH2 0x55A JUMP JUMPDEST DUP2 ADD PUSH1 0x20 DUP6 LT ISZERO PUSH2 0x68E JUMPI DUP2 SWAP1 POP JUMPDEST PUSH2 0x6A2 PUSH2 0x69A DUP6 PUSH2 0x55A JUMP JUMPDEST DUP4 ADD DUP3 PUSH2 0x641 JUMP JUMPDEST POP POP JUMPDEST POP POP POP JUMP JUMPDEST PUSH1 0x0 DUP3 DUP3 SHR SWAP1 POP SWAP3 SWAP2 POP POP JUMP JUMPDEST PUSH1 0x0 PUSH2 0x6C8 PUSH1 0x0 NOT DUP5 PUSH1 0x8 MUL PUSH2 0x6AA JUMP JUMPDEST NOT DUP1 DUP4 AND SWAP2 POP POP SWAP3 SWAP2 POP POP JUMP JUMPDEST PUSH1 0x0 PUSH2 0x6E1 DUP4 DUP4 PUSH2 0x6B7 JUMP JUMPDEST SWAP2 POP DUP3 PUSH1 0x2 MUL DUP3 OR SWAP1 POP SWAP3 SWAP2 POP POP JUMP JUMPDEST PUSH2 0x6FA DUP3 PUSH2 0x414 JUMP JUMPDEST PUSH8 0xFFFFFFFFFFFFFFFF DUP2 GT ISZERO PUSH2 0x713 JUMPI PUSH2 0x712 PUSH2 0x261 JUMP JUMPDEST JUMPDEST PUSH2 0x71D DUP3 SLOAD PUSH2 0x514 JUMP JUMPDEST PUSH2 0x728 DUP3 DUP3 DUP6 PUSH2 0x664 JUMP JUMPDEST PUSH1 0x0 PUSH1 0x20 SWAP1 POP PUSH1 0x1F DUP4 GT PUSH1 0x1 DUP2 EQ PUSH2 0x75B JUMPI PUSH1 0x0 DUP5 ISZERO PUSH2 0x749 JUMPI DUP3 DUP8 ADD MLOAD SWAP1 POP JUMPDEST PUSH2 0x753 DUP6 DUP3 PUSH2 0x6D5 JUMP JUMPDEST DUP7 SSTORE POP PUSH2 0x7BB JUMP JUMPDEST PUSH1 0x1F NOT DUP5 AND PUSH2 0x769 DUP7 PUSH2 0x545 JUMP JUMPDEST PUSH1 0x0 JUMPDEST DUP3 DUP2 LT ISZERO PUSH2 0x791 JUMPI DUP5 DUP10 ADD MLOAD DUP3 SSTORE PUSH1 0x1 DUP3 ADD SWAP2 POP PUSH1 0x20 DUP6 ADD SWAP5 POP PUSH1 0x20 DUP2 ADD SWAP1 POP PUSH2 0x76C JUMP JUMPDEST DUP7 DUP4 LT ISZERO PUSH2 0x7AE JUMPI DUP5 DUP10 ADD MLOAD PUSH2 0x7AA PUSH1 0x1F DUP10 AND DUP3 PUSH2 0x6B7 JUMP JUMPDEST DUP4 SSTORE POP JUMPDEST PUSH1 0x1 PUSH1 0x2 DUP9 MUL ADD DUP9 SSTORE POP POP POP JUMPDEST POP POP POP POP POP POP JUMP INVALID LOG2 PUSH5 0x6970667358 0x22 SLT KECCAK256 PUSH18 0x14D2AF36BF1068A890176394E2A386C94046 0xD2 0x1E PUSH21 0x6ADEB8063EE717949E8464736F6C63430008120033 "
		},
		"gasEstimates": {
			"creation": {
				"codeDepositCost": "408200",
				"executionCost": "443",
				"totalCost": "408643"
			},
			"external": {
				"make()": "infinite",
				"model()": "2407",
				"setvalue(string,uint256)": "infinite"
			}
		},
		"methodIdentifiers": {
			"make()": "c6dad082",
			"model()": "0ad9d052",
			"setvalue(string,uint256)": "54efe028"
		}
	},
	"abi": [
		{
			"inputs": [],
			"name": "make",
			"outputs": [
				{
					"internalType": "string",
					"name": "",
					"type": "string"
				}
			],
			"stateMutability": "view",
			"type": "function"
		},
		{
			"inputs": [],
			"name": "model",
			"outputs": [
				{
					"internalType": "uint256",
					"name": "",
					"type": "uint256"
				}
			],
			"stateMutability": "view",
			"type": "function"
		},
		{
			"inputs": [
				{
					"internalType": "string",
					"name": "_make",
					"type": "string"
				},
				{
					"internalType": "uint256",
					"name": "_model",
					"type": "uint256"
				}
			],
			"name": "setvalue",
			"outputs": [
				{
					"internalType": "string",
					"name": "",
					"type": "string"
				},
				{
					"internalType": "uint256",
					"name": "",
					"type": "uint256"
				}
			],
			"stateMutability": "nonpayable",
			"type": "function"
		}
	]
}