{
	"lab 18-08-2023/Market.sol": {
		"Regularbuyer": {
			"abi": [
				{
					"anonymous": false,
					"inputs": [
						{
							"indexed": false,
							"internalType": "address",
							"name": "buyeraddress",
							"type": "address"
						},
						{
							"indexed": false,
							"internalType": "address",
							"name": "senderaddress",
							"type": "address"
						},
						{
							"indexed": false,
							"internalType": "uint256",
							"name": "valueofpurchase",
							"type": "uint256"
						}
					],
					"name": "Purchase",
					"type": "event"
				},
				{
					"inputs": [
						{
							"internalType": "address",
							"name": "",
							"type": "address"
						}
					],
					"name": "Address",
					"outputs": [
						{
							"internalType": "uint256",
							"name": "",
							"type": "uint256"
						}
					],
					"stateMutability": "view",
					"type": "function"
				},
				{
					"inputs": [
						{
							"internalType": "address",
							"name": "buyer",
							"type": "address"
						},
						{
							"internalType": "address",
							"name": "seller",
							"type": "address"
						},
						{
							"internalType": "uint256",
							"name": "cash",
							"type": "uint256"
						}
					],
					"name": "Buy",
					"outputs": [],
					"stateMutability": "nonpayable",
					"type": "function"
				},
				{
					"inputs": [
						{
							"internalType": "address",
							"name": "newparticipant",
							"type": "address"
						},
						{
							"internalType": "uint256",
							"name": "balance",
							"type": "uint256"
						}
					],
					"name": "register",
					"outputs": [],
					"stateMutability": "nonpayable",
					"type": "function"
				},
				{
					"inputs": [
						{
							"internalType": "address",
							"name": "buyer",
							"type": "address"
						},
						{
							"internalType": "address",
							"name": "seller",
							"type": "address"
						},
						{
							"internalType": "uint256",
							"name": "price",
							"type": "uint256"
						}
					],
					"name": "sell",
					"outputs": [
						{
							"internalType": "string",
							"name": "",
							"type": "string"
						}
					],
					"stateMutability": "nonpayable",
					"type": "function"
				}
			],
			"devdoc": {
				"kind": "dev",
				"methods": {},
				"version": 1
			},
			"evm": {
				"assembly": "    /* \"lab 18-08-2023/Market.sol\":1799:1851  contract  Regularbuyer is Marketplace {... */\n  mstore(0x40, 0x80)\n  callvalue\n  dup1\n  iszero\n  tag_1\n  jumpi\n  0x00\n  dup1\n  revert\ntag_1:\n  pop\n  dataSize(sub_0)\n  dup1\n  dataOffset(sub_0)\n  0x00\n  codecopy\n  0x00\n  return\nstop\n\nsub_0: assembly {\n        /* \"lab 18-08-2023/Market.sol\":1799:1851  contract  Regularbuyer is Marketplace {... */\n      mstore(0x40, 0x80)\n      callvalue\n      dup1\n      iszero\n      tag_1\n      jumpi\n      0x00\n      dup1\n      revert\n    tag_1:\n      pop\n      jumpi(tag_2, lt(calldatasize, 0x04))\n      shr(0xe0, calldataload(0x00))\n      dup1\n      0x6d705ebb\n      eq\n      tag_3\n      jumpi\n      dup1\n      0xcae270b6\n      eq\n      tag_4\n      jumpi\n      dup1\n      0xd0c183be\n      eq\n      tag_5\n      jumpi\n      dup1\n      0xebfb412d\n      eq\n      tag_6\n      jumpi\n    tag_2:\n      0x00\n      dup1\n      revert\n        /* \"lab 18-08-2023/Market.sol\":232:406  function  register(address newparticipant ,uint balance) public    {... */\n    tag_3:\n      tag_7\n      0x04\n      dup1\n      calldatasize\n      sub\n      dup2\n      add\n      swap1\n      tag_8\n      swap2\n      swap1\n      tag_9\n      jump\t// in\n    tag_8:\n      tag_10\n      jump\t// in\n    tag_7:\n      stop\n        /* \"lab 18-08-2023/Market.sol\":824:1282  function  sell(address buyer , address seller  , uint price)public virtual  returns (string memory )  {... */\n    tag_4:\n      tag_11\n      0x04\n      dup1\n      calldatasize\n      sub\n      dup2\n      add\n      swap1\n      tag_12\n      swap2\n      swap1\n      tag_13\n      jump\t// in\n    tag_12:\n      tag_14\n      jump\t// in\n    tag_11:\n      mload(0x40)\n      tag_15\n      swap2\n      swap1\n      tag_16\n      jump\t// in\n    tag_15:\n      mload(0x40)\n      dup1\n      swap2\n      sub\n      swap1\n      return\n        /* \"lab 18-08-2023/Market.sol\":427:798  function Buy(address buyer , address seller  , uint cash ) public virtual     {... */\n    tag_5:\n      tag_17\n      0x04\n      dup1\n      calldatasize\n      sub\n      dup2\n      add\n      swap1\n      tag_18\n      swap2\n      swap1\n      tag_13\n      jump\t// in\n    tag_18:\n      tag_19\n      jump\t// in\n    tag_17:\n      stop\n        /* \"lab 18-08-2023/Market.sol\":96:136  mapping(address => uint) public  Address */\n    tag_6:\n      tag_20\n      0x04\n      dup1\n      calldatasize\n      sub\n      dup2\n      add\n      swap1\n      tag_21\n      swap2\n      swap1\n      tag_22\n      jump\t// in\n    tag_21:\n      tag_23\n      jump\t// in\n    tag_20:\n      mload(0x40)\n      tag_24\n      swap2\n      swap1\n      tag_25\n      jump\t// in\n    tag_24:\n      mload(0x40)\n      dup1\n      swap2\n      sub\n      swap1\n      return\n        /* \"lab 18-08-2023/Market.sol\":232:406  function  register(address newparticipant ,uint balance) public    {... */\n    tag_10:\n        /* \"lab 18-08-2023/Market.sol\":319:320  0 */\n      0x00\n        /* \"lab 18-08-2023/Market.sol\":309:316  balance */\n      dup2\n        /* \"lab 18-08-2023/Market.sol\":309:320  balance ==0 */\n      sub\n        /* \"lab 18-08-2023/Market.sol\":304:363  if ( balance ==0) {... */\n      tag_27\n      jumpi\n        /* \"lab 18-08-2023/Market.sol\":329:359  revert(\"Error no any balance\") */\n      mload(0x40)\n      0x08c379a000000000000000000000000000000000000000000000000000000000\n      dup2\n      mstore\n      0x04\n      add\n      tag_28\n      swap1\n      tag_29\n      jump\t// in\n    tag_28:\n      mload(0x40)\n      dup1\n      swap2\n      sub\n      swap1\n      revert\n        /* \"lab 18-08-2023/Market.sol\":304:363  if ( balance ==0) {... */\n    tag_27:\n        /* \"lab 18-08-2023/Market.sol\":393:400  balance */\n      dup1\n        /* \"lab 18-08-2023/Market.sol\":367:374  Address */\n      0x00\n        /* \"lab 18-08-2023/Market.sol\":367:390  Address[newparticipant] */\n      dup1\n        /* \"lab 18-08-2023/Market.sol\":375:389  newparticipant */\n      dup5\n        /* \"lab 18-08-2023/Market.sol\":367:390  Address[newparticipant] */\n      0xffffffffffffffffffffffffffffffffffffffff\n      and\n      0xffffffffffffffffffffffffffffffffffffffff\n      and\n      dup2\n      mstore\n      0x20\n      add\n      swap1\n      dup2\n      mstore\n      0x20\n      add\n      0x00\n      keccak256\n        /* \"lab 18-08-2023/Market.sol\":367:400  Address[newparticipant] = balance */\n      dup2\n      swap1\n      sstore\n      pop\n        /* \"lab 18-08-2023/Market.sol\":232:406  function  register(address newparticipant ,uint balance) public    {... */\n      pop\n      pop\n      jump\t// out\n        /* \"lab 18-08-2023/Market.sol\":824:1282  function  sell(address buyer , address seller  , uint price)public virtual  returns (string memory )  {... */\n    tag_14:\n        /* \"lab 18-08-2023/Market.sol\":909:922  string memory */\n      0x60\n        /* \"lab 18-08-2023/Market.sol\":960:961  0 */\n      0x00\n        /* \"lab 18-08-2023/Market.sol\":943:962  buyer != address(0) */\n      0xffffffffffffffffffffffffffffffffffffffff\n      and\n        /* \"lab 18-08-2023/Market.sol\":943:948  buyer */\n      dup5\n        /* \"lab 18-08-2023/Market.sol\":943:962  buyer != address(0) */\n      0xffffffffffffffffffffffffffffffffffffffff\n      and\n      eq\n      iszero\n        /* \"lab 18-08-2023/Market.sol\":943:987  buyer != address(0)   || seller !=address(0) */\n      dup1\n      tag_31\n      jumpi\n      pop\n        /* \"lab 18-08-2023/Market.sol\":985:986  0 */\n      0x00\n        /* \"lab 18-08-2023/Market.sol\":968:987  seller !=address(0) */\n      0xffffffffffffffffffffffffffffffffffffffff\n      and\n        /* \"lab 18-08-2023/Market.sol\":968:974  seller */\n      dup4\n        /* \"lab 18-08-2023/Market.sol\":968:987  seller !=address(0) */\n      0xffffffffffffffffffffffffffffffffffffffff\n      and\n      eq\n      iszero\n        /* \"lab 18-08-2023/Market.sol\":943:987  buyer != address(0)   || seller !=address(0) */\n    tag_31:\n        /* \"lab 18-08-2023/Market.sol\":935:1016  require(buyer != address(0)   || seller !=address(0) , \"error no user or buyer \") */\n      tag_32\n      jumpi\n      mload(0x40)\n      0x08c379a000000000000000000000000000000000000000000000000000000000\n      dup2\n      mstore\n      0x04\n      add\n      tag_33\n      swap1\n      tag_34\n      jump\t// in\n    tag_33:\n      mload(0x40)\n      dup1\n      swap2\n      sub\n      swap1\n      revert\n    tag_32:\n        /* \"lab 18-08-2023/Market.sol\":1040:1041  0 */\n      0x00\n        /* \"lab 18-08-2023/Market.sol\":1031:1036  price */\n      dup3\n        /* \"lab 18-08-2023/Market.sol\":1031:1041  price != 0 */\n      sub\n        /* \"lab 18-08-2023/Market.sol\":1023:1064  require(price != 0 , \"No cash inputted \") */\n      tag_35\n      jumpi\n      mload(0x40)\n      0x08c379a000000000000000000000000000000000000000000000000000000000\n      dup2\n      mstore\n      0x04\n      add\n      tag_36\n      swap1\n      tag_37\n      jump\t// in\n    tag_36:\n      mload(0x40)\n      dup1\n      swap2\n      sub\n      swap1\n      revert\n    tag_35:\n        /* \"lab 18-08-2023/Market.sol\":1097:1102  price */\n      dup2\n        /* \"lab 18-08-2023/Market.sol\":1079:1086  Address */\n      0x00\n        /* \"lab 18-08-2023/Market.sol\":1079:1093  Address[buyer] */\n      dup1\n        /* \"lab 18-08-2023/Market.sol\":1087:1092  buyer */\n      dup7\n        /* \"lab 18-08-2023/Market.sol\":1079:1093  Address[buyer] */\n      0xffffffffffffffffffffffffffffffffffffffff\n      and\n      0xffffffffffffffffffffffffffffffffffffffff\n      and\n      dup2\n      mstore\n      0x20\n      add\n      swap1\n      dup2\n      mstore\n      0x20\n      add\n      0x00\n      keccak256\n      sload\n        /* \"lab 18-08-2023/Market.sol\":1079:1102  Address[buyer] >= price */\n      lt\n      iszero\n        /* \"lab 18-08-2023/Market.sol\":1071:1126  require(Address[buyer] >= price , \"you can buy things\") */\n      tag_38\n      jumpi\n      mload(0x40)\n      0x08c379a000000000000000000000000000000000000000000000000000000000\n      dup2\n      mstore\n      0x04\n      add\n      tag_39\n      swap1\n      tag_40\n      jump\t// in\n    tag_39:\n      mload(0x40)\n      dup1\n      swap2\n      sub\n      swap1\n      revert\n    tag_38:\n        /* \"lab 18-08-2023/Market.sol\":1147:1152  price */\n      dup2\n        /* \"lab 18-08-2023/Market.sol\":1129:1136  Address */\n      0x00\n        /* \"lab 18-08-2023/Market.sol\":1129:1143  Address[buyer] */\n      dup1\n        /* \"lab 18-08-2023/Market.sol\":1137:1142  buyer */\n      dup7\n        /* \"lab 18-08-2023/Market.sol\":1129:1143  Address[buyer] */\n      0xffffffffffffffffffffffffffffffffffffffff\n      and\n      0xffffffffffffffffffffffffffffffffffffffff\n      and\n      dup2\n      mstore\n      0x20\n      add\n      swap1\n      dup2\n      mstore\n      0x20\n      add\n      0x00\n      keccak256\n      0x00\n        /* \"lab 18-08-2023/Market.sol\":1129:1152  Address[buyer] -= price */\n      dup3\n      dup3\n      sload\n      tag_41\n      swap2\n      swap1\n      tag_42\n      jump\t// in\n    tag_41:\n      swap3\n      pop\n      pop\n      dup2\n      swap1\n      sstore\n      pop\n        /* \"lab 18-08-2023/Market.sol\":1174:1179  price */\n      dup2\n        /* \"lab 18-08-2023/Market.sol\":1155:1162  Address */\n      0x00\n        /* \"lab 18-08-2023/Market.sol\":1155:1170  Address[seller] */\n      dup1\n        /* \"lab 18-08-2023/Market.sol\":1163:1169  seller */\n      dup6\n        /* \"lab 18-08-2023/Market.sol\":1155:1170  Address[seller] */\n      0xffffffffffffffffffffffffffffffffffffffff\n      and\n      0xffffffffffffffffffffffffffffffffffffffff\n      and\n      dup2\n      mstore\n      0x20\n      add\n      swap1\n      dup2\n      mstore\n      0x20\n      add\n      0x00\n      keccak256\n      0x00\n        /* \"lab 18-08-2023/Market.sol\":1155:1179  Address[seller] += price */\n      dup3\n      dup3\n      sload\n      tag_43\n      swap2\n      swap1\n      tag_44\n      jump\t// in\n    tag_43:\n      swap3\n      pop\n      pop\n      dup2\n      swap1\n      sstore\n      pop\n        /* \"lab 18-08-2023/Market.sol\":1191:1222  Purchase(buyer, seller , price) */\n      0x22e3ae3a20c49dce14046235895c7a3ffc0a6a5f3577c370177ad45fa619485d\n        /* \"lab 18-08-2023/Market.sol\":1200:1205  buyer */\n      dup5\n        /* \"lab 18-08-2023/Market.sol\":1207:1213  seller */\n      dup5\n        /* \"lab 18-08-2023/Market.sol\":1216:1221  price */\n      dup5\n        /* \"lab 18-08-2023/Market.sol\":1191:1222  Purchase(buyer, seller , price) */\n      mload(0x40)\n      tag_45\n      swap4\n      swap3\n      swap2\n      swap1\n      tag_46\n      jump\t// in\n    tag_45:\n      mload(0x40)\n      dup1\n      swap2\n      sub\n      swap1\n      log1\n        /* \"lab 18-08-2023/Market.sol\":1231:1272  return \"item will be shipped to location\" */\n      mload(0x40)\n      dup1\n      0x40\n      add\n      0x40\n      mstore\n      dup1\n      0x20\n      dup2\n      mstore\n      0x20\n      add\n      0x6974656d2077696c6c206265207368697070656420746f206c6f636174696f6e\n      dup2\n      mstore\n      pop\n      swap1\n      pop\n        /* \"lab 18-08-2023/Market.sol\":824:1282  function  sell(address buyer , address seller  , uint price)public virtual  returns (string memory )  {... */\n      swap4\n      swap3\n      pop\n      pop\n      pop\n      jump\t// out\n        /* \"lab 18-08-2023/Market.sol\":427:798  function Buy(address buyer , address seller  , uint cash ) public virtual     {... */\n    tag_19:\n        /* \"lab 18-08-2023/Market.sol\":533:534  0 */\n      0x00\n        /* \"lab 18-08-2023/Market.sol\":516:535  buyer != address(0) */\n      0xffffffffffffffffffffffffffffffffffffffff\n      and\n        /* \"lab 18-08-2023/Market.sol\":516:521  buyer */\n      dup4\n        /* \"lab 18-08-2023/Market.sol\":516:535  buyer != address(0) */\n      0xffffffffffffffffffffffffffffffffffffffff\n      and\n      eq\n      iszero\n        /* \"lab 18-08-2023/Market.sol\":516:560  buyer != address(0)   || seller !=address(0) */\n      dup1\n      tag_48\n      jumpi\n      pop\n        /* \"lab 18-08-2023/Market.sol\":558:559  0 */\n      0x00\n        /* \"lab 18-08-2023/Market.sol\":541:560  seller !=address(0) */\n      0xffffffffffffffffffffffffffffffffffffffff\n      and\n        /* \"lab 18-08-2023/Market.sol\":541:547  seller */\n      dup3\n        /* \"lab 18-08-2023/Market.sol\":541:560  seller !=address(0) */\n      0xffffffffffffffffffffffffffffffffffffffff\n      and\n      eq\n      iszero\n        /* \"lab 18-08-2023/Market.sol\":516:560  buyer != address(0)   || seller !=address(0) */\n    tag_48:\n        /* \"lab 18-08-2023/Market.sol\":508:589  require(buyer != address(0)   || seller !=address(0) , \"error no user or buyer \") */\n      tag_49\n      jumpi\n      mload(0x40)\n      0x08c379a000000000000000000000000000000000000000000000000000000000\n      dup2\n      mstore\n      0x04\n      add\n      tag_50\n      swap1\n      tag_34\n      jump\t// in\n    tag_50:\n      mload(0x40)\n      dup1\n      swap2\n      sub\n      swap1\n      revert\n    tag_49:\n        /* \"lab 18-08-2023/Market.sol\":612:613  0 */\n      0x00\n        /* \"lab 18-08-2023/Market.sol\":604:608  cash */\n      dup2\n        /* \"lab 18-08-2023/Market.sol\":604:613  cash != 0 */\n      sub\n        /* \"lab 18-08-2023/Market.sol\":596:636  require(cash != 0 , \"No cash inputted \") */\n      tag_51\n      jumpi\n      mload(0x40)\n      0x08c379a000000000000000000000000000000000000000000000000000000000\n      dup2\n      mstore\n      0x04\n      add\n      tag_52\n      swap1\n      tag_37\n      jump\t// in\n    tag_52:\n      mload(0x40)\n      dup1\n      swap2\n      sub\n      swap1\n      revert\n    tag_51:\n        /* \"lab 18-08-2023/Market.sol\":663:667  cash */\n      dup1\n        /* \"lab 18-08-2023/Market.sol\":645:652  Address */\n      0x00\n        /* \"lab 18-08-2023/Market.sol\":645:659  Address[buyer] */\n      dup1\n        /* \"lab 18-08-2023/Market.sol\":653:658  buyer */\n      dup6\n        /* \"lab 18-08-2023/Market.sol\":645:659  Address[buyer] */\n      0xffffffffffffffffffffffffffffffffffffffff\n      and\n      0xffffffffffffffffffffffffffffffffffffffff\n      and\n      dup2\n      mstore\n      0x20\n      add\n      swap1\n      dup2\n      mstore\n      0x20\n      add\n      0x00\n      keccak256\n      0x00\n        /* \"lab 18-08-2023/Market.sol\":645:667  Address[buyer] -= cash */\n      dup3\n      dup3\n      sload\n      tag_53\n      swap2\n      swap1\n      tag_42\n      jump\t// in\n    tag_53:\n      swap3\n      pop\n      pop\n      dup2\n      swap1\n      sstore\n      pop\n        /* \"lab 18-08-2023/Market.sol\":689:693  cash */\n      dup1\n        /* \"lab 18-08-2023/Market.sol\":670:677  Address */\n      0x00\n        /* \"lab 18-08-2023/Market.sol\":670:685  Address[seller] */\n      dup1\n        /* \"lab 18-08-2023/Market.sol\":678:684  seller */\n      dup5\n        /* \"lab 18-08-2023/Market.sol\":670:685  Address[seller] */\n      0xffffffffffffffffffffffffffffffffffffffff\n      and\n      0xffffffffffffffffffffffffffffffffffffffff\n      and\n      dup2\n      mstore\n      0x20\n      add\n      swap1\n      dup2\n      mstore\n      0x20\n      add\n      0x00\n      keccak256\n      0x00\n        /* \"lab 18-08-2023/Market.sol\":670:693  Address[seller] += cash */\n      dup3\n      dup3\n      sload\n      tag_54\n      swap2\n      swap1\n      tag_44\n      jump\t// in\n    tag_54:\n      swap3\n      pop\n      pop\n      dup2\n      swap1\n      sstore\n      pop\n        /* \"lab 18-08-2023/Market.sol\":713:719  seller */\n      dup2\n        /* \"lab 18-08-2023/Market.sol\":704:719  buyer != seller */\n      0xffffffffffffffffffffffffffffffffffffffff\n      and\n        /* \"lab 18-08-2023/Market.sol\":704:709  buyer */\n      dup4\n        /* \"lab 18-08-2023/Market.sol\":704:719  buyer != seller */\n      0xffffffffffffffffffffffffffffffffffffffff\n      and\n      sub\n        /* \"lab 18-08-2023/Market.sol\":696:750  require(buyer != seller , \"Buyer and seller are same\") */\n      tag_55\n      jumpi\n      mload(0x40)\n      0x08c379a000000000000000000000000000000000000000000000000000000000\n      dup2\n      mstore\n      0x04\n      add\n      tag_56\n      swap1\n      tag_57\n      jump\t// in\n    tag_56:\n      mload(0x40)\n      dup1\n      swap2\n      sub\n      swap1\n      revert\n    tag_55:\n        /* \"lab 18-08-2023/Market.sol\":760:790  Purchase(buyer, seller , cash) */\n      0x22e3ae3a20c49dce14046235895c7a3ffc0a6a5f3577c370177ad45fa619485d\n        /* \"lab 18-08-2023/Market.sol\":769:774  buyer */\n      dup4\n        /* \"lab 18-08-2023/Market.sol\":776:782  seller */\n      dup4\n        /* \"lab 18-08-2023/Market.sol\":785:789  cash */\n      dup4\n        /* \"lab 18-08-2023/Market.sol\":760:790  Purchase(buyer, seller , cash) */\n      mload(0x40)\n      tag_58\n      swap4\n      swap3\n      swap2\n      swap1\n      tag_46\n      jump\t// in\n    tag_58:\n      mload(0x40)\n      dup1\n      swap2\n      sub\n      swap1\n      log1\n        /* \"lab 18-08-2023/Market.sol\":427:798  function Buy(address buyer , address seller  , uint cash ) public virtual     {... */\n      pop\n      pop\n      pop\n      jump\t// out\n        /* \"lab 18-08-2023/Market.sol\":96:136  mapping(address => uint) public  Address */\n    tag_23:\n      mstore(0x20, 0x00)\n      dup1\n      0x00\n      mstore\n      keccak256(0x00, 0x40)\n      0x00\n      swap2\n      pop\n      swap1\n      pop\n      sload\n      dup2\n      jump\t// out\n        /* \"#utility.yul\":88:205   */\n    tag_60:\n        /* \"#utility.yul\":197:198   */\n      0x00\n        /* \"#utility.yul\":194:195   */\n      dup1\n        /* \"#utility.yul\":187:199   */\n      revert\n        /* \"#utility.yul\":334:460   */\n    tag_62:\n        /* \"#utility.yul\":371:378   */\n      0x00\n        /* \"#utility.yul\":411:453   */\n      0xffffffffffffffffffffffffffffffffffffffff\n        /* \"#utility.yul\":404:409   */\n      dup3\n        /* \"#utility.yul\":400:454   */\n      and\n        /* \"#utility.yul\":389:454   */\n      swap1\n      pop\n        /* \"#utility.yul\":334:460   */\n      swap2\n      swap1\n      pop\n      jump\t// out\n        /* \"#utility.yul\":466:562   */\n    tag_63:\n        /* \"#utility.yul\":503:510   */\n      0x00\n        /* \"#utility.yul\":532:556   */\n      tag_93\n        /* \"#utility.yul\":550:555   */\n      dup3\n        /* \"#utility.yul\":532:556   */\n      tag_62\n      jump\t// in\n    tag_93:\n        /* \"#utility.yul\":521:556   */\n      swap1\n      pop\n        /* \"#utility.yul\":466:562   */\n      swap2\n      swap1\n      pop\n      jump\t// out\n        /* \"#utility.yul\":568:690   */\n    tag_64:\n        /* \"#utility.yul\":641:665   */\n      tag_95\n        /* \"#utility.yul\":659:664   */\n      dup2\n        /* \"#utility.yul\":641:665   */\n      tag_63\n      jump\t// in\n    tag_95:\n        /* \"#utility.yul\":634:639   */\n      dup2\n        /* \"#utility.yul\":631:666   */\n      eq\n        /* \"#utility.yul\":621:684   */\n      tag_96\n      jumpi\n        /* \"#utility.yul\":680:681   */\n      0x00\n        /* \"#utility.yul\":677:678   */\n      dup1\n        /* \"#utility.yul\":670:682   */\n      revert\n        /* \"#utility.yul\":621:684   */\n    tag_96:\n        /* \"#utility.yul\":568:690   */\n      pop\n      jump\t// out\n        /* \"#utility.yul\":696:835   */\n    tag_65:\n        /* \"#utility.yul\":742:747   */\n      0x00\n        /* \"#utility.yul\":780:786   */\n      dup2\n        /* \"#utility.yul\":767:787   */\n      calldataload\n        /* \"#utility.yul\":758:787   */\n      swap1\n      pop\n        /* \"#utility.yul\":796:829   */\n      tag_98\n        /* \"#utility.yul\":823:828   */\n      dup2\n        /* \"#utility.yul\":796:829   */\n      tag_64\n      jump\t// in\n    tag_98:\n        /* \"#utility.yul\":696:835   */\n      swap3\n      swap2\n      pop\n      pop\n      jump\t// out\n        /* \"#utility.yul\":841:918   */\n    tag_66:\n        /* \"#utility.yul\":878:885   */\n      0x00\n        /* \"#utility.yul\":907:912   */\n      dup2\n        /* \"#utility.yul\":896:912   */\n      swap1\n      pop\n        /* \"#utility.yul\":841:918   */\n      swap2\n      swap1\n      pop\n      jump\t// out\n        /* \"#utility.yul\":924:1046   */\n    tag_67:\n        /* \"#utility.yul\":997:1021   */\n      tag_101\n        /* \"#utility.yul\":1015:1020   */\n      dup2\n        /* \"#utility.yul\":997:1021   */\n      tag_66\n      jump\t// in\n    tag_101:\n        /* \"#utility.yul\":990:995   */\n      dup2\n        /* \"#utility.yul\":987:1022   */\n      eq\n        /* \"#utility.yul\":977:1040   */\n      tag_102\n      jumpi\n        /* \"#utility.yul\":1036:1037   */\n      0x00\n        /* \"#utility.yul\":1033:1034   */\n      dup1\n        /* \"#utility.yul\":1026:1038   */\n      revert\n        /* \"#utility.yul\":977:1040   */\n    tag_102:\n        /* \"#utility.yul\":924:1046   */\n      pop\n      jump\t// out\n        /* \"#utility.yul\":1052:1191   */\n    tag_68:\n        /* \"#utility.yul\":1098:1103   */\n      0x00\n        /* \"#utility.yul\":1136:1142   */\n      dup2\n        /* \"#utility.yul\":1123:1143   */\n      calldataload\n        /* \"#utility.yul\":1114:1143   */\n      swap1\n      pop\n        /* \"#utility.yul\":1152:1185   */\n      tag_104\n        /* \"#utility.yul\":1179:1184   */\n      dup2\n        /* \"#utility.yul\":1152:1185   */\n      tag_67\n      jump\t// in\n    tag_104:\n        /* \"#utility.yul\":1052:1191   */\n      swap3\n      swap2\n      pop\n      pop\n      jump\t// out\n        /* \"#utility.yul\":1197:1671   */\n    tag_9:\n        /* \"#utility.yul\":1265:1271   */\n      0x00\n        /* \"#utility.yul\":1273:1279   */\n      dup1\n        /* \"#utility.yul\":1322:1324   */\n      0x40\n        /* \"#utility.yul\":1310:1319   */\n      dup4\n        /* \"#utility.yul\":1301:1308   */\n      dup6\n        /* \"#utility.yul\":1297:1320   */\n      sub\n        /* \"#utility.yul\":1293:1325   */\n      slt\n        /* \"#utility.yul\":1290:1409   */\n      iszero\n      tag_106\n      jumpi\n        /* \"#utility.yul\":1328:1407   */\n      tag_107\n      tag_60\n      jump\t// in\n    tag_107:\n        /* \"#utility.yul\":1290:1409   */\n    tag_106:\n        /* \"#utility.yul\":1448:1449   */\n      0x00\n        /* \"#utility.yul\":1473:1526   */\n      tag_108\n        /* \"#utility.yul\":1518:1525   */\n      dup6\n        /* \"#utility.yul\":1509:1515   */\n      dup3\n        /* \"#utility.yul\":1498:1507   */\n      dup7\n        /* \"#utility.yul\":1494:1516   */\n      add\n        /* \"#utility.yul\":1473:1526   */\n      tag_65\n      jump\t// in\n    tag_108:\n        /* \"#utility.yul\":1463:1526   */\n      swap3\n      pop\n        /* \"#utility.yul\":1419:1536   */\n      pop\n        /* \"#utility.yul\":1575:1577   */\n      0x20\n        /* \"#utility.yul\":1601:1654   */\n      tag_109\n        /* \"#utility.yul\":1646:1653   */\n      dup6\n        /* \"#utility.yul\":1637:1643   */\n      dup3\n        /* \"#utility.yul\":1626:1635   */\n      dup7\n        /* \"#utility.yul\":1622:1644   */\n      add\n        /* \"#utility.yul\":1601:1654   */\n      tag_68\n      jump\t// in\n    tag_109:\n        /* \"#utility.yul\":1591:1654   */\n      swap2\n      pop\n        /* \"#utility.yul\":1546:1664   */\n      pop\n        /* \"#utility.yul\":1197:1671   */\n      swap3\n      pop\n      swap3\n      swap1\n      pop\n      jump\t// out\n        /* \"#utility.yul\":1677:2296   */\n    tag_13:\n        /* \"#utility.yul\":1754:1760   */\n      0x00\n        /* \"#utility.yul\":1762:1768   */\n      dup1\n        /* \"#utility.yul\":1770:1776   */\n      0x00\n        /* \"#utility.yul\":1819:1821   */\n      0x60\n        /* \"#utility.yul\":1807:1816   */\n      dup5\n        /* \"#utility.yul\":1798:1805   */\n      dup7\n        /* \"#utility.yul\":1794:1817   */\n      sub\n        /* \"#utility.yul\":1790:1822   */\n      slt\n        /* \"#utility.yul\":1787:1906   */\n      iszero\n      tag_111\n      jumpi\n        /* \"#utility.yul\":1825:1904   */\n      tag_112\n      tag_60\n      jump\t// in\n    tag_112:\n        /* \"#utility.yul\":1787:1906   */\n    tag_111:\n        /* \"#utility.yul\":1945:1946   */\n      0x00\n        /* \"#utility.yul\":1970:2023   */\n      tag_113\n        /* \"#utility.yul\":2015:2022   */\n      dup7\n        /* \"#utility.yul\":2006:2012   */\n      dup3\n        /* \"#utility.yul\":1995:2004   */\n      dup8\n        /* \"#utility.yul\":1991:2013   */\n      add\n        /* \"#utility.yul\":1970:2023   */\n      tag_65\n      jump\t// in\n    tag_113:\n        /* \"#utility.yul\":1960:2023   */\n      swap4\n      pop\n        /* \"#utility.yul\":1916:2033   */\n      pop\n        /* \"#utility.yul\":2072:2074   */\n      0x20\n        /* \"#utility.yul\":2098:2151   */\n      tag_114\n        /* \"#utility.yul\":2143:2150   */\n      dup7\n        /* \"#utility.yul\":2134:2140   */\n      dup3\n        /* \"#utility.yul\":2123:2132   */\n      dup8\n        /* \"#utility.yul\":2119:2141   */\n      add\n        /* \"#utility.yul\":2098:2151   */\n      tag_65\n      jump\t// in\n    tag_114:\n        /* \"#utility.yul\":2088:2151   */\n      swap3\n      pop\n        /* \"#utility.yul\":2043:2161   */\n      pop\n        /* \"#utility.yul\":2200:2202   */\n      0x40\n        /* \"#utility.yul\":2226:2279   */\n      tag_115\n        /* \"#utility.yul\":2271:2278   */\n      dup7\n        /* \"#utility.yul\":2262:2268   */\n      dup3\n        /* \"#utility.yul\":2251:2260   */\n      dup8\n        /* \"#utility.yul\":2247:2269   */\n      add\n        /* \"#utility.yul\":2226:2279   */\n      tag_68\n      jump\t// in\n    tag_115:\n        /* \"#utility.yul\":2216:2279   */\n      swap2\n      pop\n        /* \"#utility.yul\":2171:2289   */\n      pop\n        /* \"#utility.yul\":1677:2296   */\n      swap3\n      pop\n      swap3\n      pop\n      swap3\n      jump\t// out\n        /* \"#utility.yul\":2302:2401   */\n    tag_69:\n        /* \"#utility.yul\":2354:2360   */\n      0x00\n        /* \"#utility.yul\":2388:2393   */\n      dup2\n        /* \"#utility.yul\":2382:2394   */\n      mload\n        /* \"#utility.yul\":2372:2394   */\n      swap1\n      pop\n        /* \"#utility.yul\":2302:2401   */\n      swap2\n      swap1\n      pop\n      jump\t// out\n        /* \"#utility.yul\":2407:2576   */\n    tag_70:\n        /* \"#utility.yul\":2491:2502   */\n      0x00\n        /* \"#utility.yul\":2525:2531   */\n      dup3\n        /* \"#utility.yul\":2520:2523   */\n      dup3\n        /* \"#utility.yul\":2513:2532   */\n      mstore\n        /* \"#utility.yul\":2565:2569   */\n      0x20\n        /* \"#utility.yul\":2560:2563   */\n      dup3\n        /* \"#utility.yul\":2556:2570   */\n      add\n        /* \"#utility.yul\":2541:2570   */\n      swap1\n      pop\n        /* \"#utility.yul\":2407:2576   */\n      swap3\n      swap2\n      pop\n      pop\n      jump\t// out\n        /* \"#utility.yul\":2582:2828   */\n    tag_71:\n        /* \"#utility.yul\":2663:2664   */\n      0x00\n        /* \"#utility.yul\":2673:2786   */\n    tag_119:\n        /* \"#utility.yul\":2687:2693   */\n      dup4\n        /* \"#utility.yul\":2684:2685   */\n      dup2\n        /* \"#utility.yul\":2681:2694   */\n      lt\n        /* \"#utility.yul\":2673:2786   */\n      iszero\n      tag_121\n      jumpi\n        /* \"#utility.yul\":2772:2773   */\n      dup1\n        /* \"#utility.yul\":2767:2770   */\n      dup3\n        /* \"#utility.yul\":2763:2774   */\n      add\n        /* \"#utility.yul\":2757:2775   */\n      mload\n        /* \"#utility.yul\":2753:2754   */\n      dup2\n        /* \"#utility.yul\":2748:2751   */\n      dup5\n        /* \"#utility.yul\":2744:2755   */\n      add\n        /* \"#utility.yul\":2737:2776   */\n      mstore\n        /* \"#utility.yul\":2709:2711   */\n      0x20\n        /* \"#utility.yul\":2706:2707   */\n      dup2\n        /* \"#utility.yul\":2702:2712   */\n      add\n        /* \"#utility.yul\":2697:2712   */\n      swap1\n      pop\n        /* \"#utility.yul\":2673:2786   */\n      jump(tag_119)\n    tag_121:\n        /* \"#utility.yul\":2820:2821   */\n      0x00\n        /* \"#utility.yul\":2811:2817   */\n      dup5\n        /* \"#utility.yul\":2806:2809   */\n      dup5\n        /* \"#utility.yul\":2802:2818   */\n      add\n        /* \"#utility.yul\":2795:2822   */\n      mstore\n        /* \"#utility.yul\":2644:2828   */\n      pop\n        /* \"#utility.yul\":2582:2828   */\n      pop\n      pop\n      pop\n      jump\t// out\n        /* \"#utility.yul\":2834:2936   */\n    tag_72:\n        /* \"#utility.yul\":2875:2881   */\n      0x00\n        /* \"#utility.yul\":2926:2928   */\n      0x1f\n        /* \"#utility.yul\":2922:2929   */\n      not\n        /* \"#utility.yul\":2917:2919   */\n      0x1f\n        /* \"#utility.yul\":2910:2915   */\n      dup4\n        /* \"#utility.yul\":2906:2920   */\n      add\n        /* \"#utility.yul\":2902:2930   */\n      and\n        /* \"#utility.yul\":2892:2930   */\n      swap1\n      pop\n        /* \"#utility.yul\":2834:2936   */\n      swap2\n      swap1\n      pop\n      jump\t// out\n        /* \"#utility.yul\":2942:3319   */\n    tag_73:\n        /* \"#utility.yul\":3030:3033   */\n      0x00\n        /* \"#utility.yul\":3058:3097   */\n      tag_124\n        /* \"#utility.yul\":3091:3096   */\n      dup3\n        /* \"#utility.yul\":3058:3097   */\n      tag_69\n      jump\t// in\n    tag_124:\n        /* \"#utility.yul\":3113:3184   */\n      tag_125\n        /* \"#utility.yul\":3177:3183   */\n      dup2\n        /* \"#utility.yul\":3172:3175   */\n      dup6\n        /* \"#utility.yul\":3113:3184   */\n      tag_70\n      jump\t// in\n    tag_125:\n        /* \"#utility.yul\":3106:3184   */\n      swap4\n      pop\n        /* \"#utility.yul\":3193:3258   */\n      tag_126\n        /* \"#utility.yul\":3251:3257   */\n      dup2\n        /* \"#utility.yul\":3246:3249   */\n      dup6\n        /* \"#utility.yul\":3239:3243   */\n      0x20\n        /* \"#utility.yul\":3232:3237   */\n      dup7\n        /* \"#utility.yul\":3228:3244   */\n      add\n        /* \"#utility.yul\":3193:3258   */\n      tag_71\n      jump\t// in\n    tag_126:\n        /* \"#utility.yul\":3283:3312   */\n      tag_127\n        /* \"#utility.yul\":3305:3311   */\n      dup2\n        /* \"#utility.yul\":3283:3312   */\n      tag_72\n      jump\t// in\n    tag_127:\n        /* \"#utility.yul\":3278:3281   */\n      dup5\n        /* \"#utility.yul\":3274:3313   */\n      add\n        /* \"#utility.yul\":3267:3313   */\n      swap2\n      pop\n        /* \"#utility.yul\":3034:3319   */\n      pop\n        /* \"#utility.yul\":2942:3319   */\n      swap3\n      swap2\n      pop\n      pop\n      jump\t// out\n        /* \"#utility.yul\":3325:3638   */\n    tag_16:\n        /* \"#utility.yul\":3438:3442   */\n      0x00\n        /* \"#utility.yul\":3476:3478   */\n      0x20\n        /* \"#utility.yul\":3465:3474   */\n      dup3\n        /* \"#utility.yul\":3461:3479   */\n      add\n        /* \"#utility.yul\":3453:3479   */\n      swap1\n      pop\n        /* \"#utility.yul\":3525:3534   */\n      dup2\n        /* \"#utility.yul\":3519:3523   */\n      dup2\n        /* \"#utility.yul\":3515:3535   */\n      sub\n        /* \"#utility.yul\":3511:3512   */\n      0x00\n        /* \"#utility.yul\":3500:3509   */\n      dup4\n        /* \"#utility.yul\":3496:3513   */\n      add\n        /* \"#utility.yul\":3489:3536   */\n      mstore\n        /* \"#utility.yul\":3553:3631   */\n      tag_129\n        /* \"#utility.yul\":3626:3630   */\n      dup2\n        /* \"#utility.yul\":3617:3623   */\n      dup5\n        /* \"#utility.yul\":3553:3631   */\n      tag_73\n      jump\t// in\n    tag_129:\n        /* \"#utility.yul\":3545:3631   */\n      swap1\n      pop\n        /* \"#utility.yul\":3325:3638   */\n      swap3\n      swap2\n      pop\n      pop\n      jump\t// out\n        /* \"#utility.yul\":3644:3973   */\n    tag_22:\n        /* \"#utility.yul\":3703:3709   */\n      0x00\n        /* \"#utility.yul\":3752:3754   */\n      0x20\n        /* \"#utility.yul\":3740:3749   */\n      dup3\n        /* \"#utility.yul\":3731:3738   */\n      dup5\n        /* \"#utility.yul\":3727:3750   */\n      sub\n        /* \"#utility.yul\":3723:3755   */\n      slt\n        /* \"#utility.yul\":3720:3839   */\n      iszero\n      tag_131\n      jumpi\n        /* \"#utility.yul\":3758:3837   */\n      tag_132\n      tag_60\n      jump\t// in\n    tag_132:\n        /* \"#utility.yul\":3720:3839   */\n    tag_131:\n        /* \"#utility.yul\":3878:3879   */\n      0x00\n        /* \"#utility.yul\":3903:3956   */\n      tag_133\n        /* \"#utility.yul\":3948:3955   */\n      dup5\n        /* \"#utility.yul\":3939:3945   */\n      dup3\n        /* \"#utility.yul\":3928:3937   */\n      dup6\n        /* \"#utility.yul\":3924:3946   */\n      add\n        /* \"#utility.yul\":3903:3956   */\n      tag_65\n      jump\t// in\n    tag_133:\n        /* \"#utility.yul\":3893:3956   */\n      swap2\n      pop\n        /* \"#utility.yul\":3849:3966   */\n      pop\n        /* \"#utility.yul\":3644:3973   */\n      swap3\n      swap2\n      pop\n      pop\n      jump\t// out\n        /* \"#utility.yul\":3979:4097   */\n    tag_74:\n        /* \"#utility.yul\":4066:4090   */\n      tag_135\n        /* \"#utility.yul\":4084:4089   */\n      dup2\n        /* \"#utility.yul\":4066:4090   */\n      tag_66\n      jump\t// in\n    tag_135:\n        /* \"#utility.yul\":4061:4064   */\n      dup3\n        /* \"#utility.yul\":4054:4091   */\n      mstore\n        /* \"#utility.yul\":3979:4097   */\n      pop\n      pop\n      jump\t// out\n        /* \"#utility.yul\":4103:4325   */\n    tag_25:\n        /* \"#utility.yul\":4196:4200   */\n      0x00\n        /* \"#utility.yul\":4234:4236   */\n      0x20\n        /* \"#utility.yul\":4223:4232   */\n      dup3\n        /* \"#utility.yul\":4219:4237   */\n      add\n        /* \"#utility.yul\":4211:4237   */\n      swap1\n      pop\n        /* \"#utility.yul\":4247:4318   */\n      tag_137\n        /* \"#utility.yul\":4315:4316   */\n      0x00\n        /* \"#utility.yul\":4304:4313   */\n      dup4\n        /* \"#utility.yul\":4300:4317   */\n      add\n        /* \"#utility.yul\":4291:4297   */\n      dup5\n        /* \"#utility.yul\":4247:4318   */\n      tag_74\n      jump\t// in\n    tag_137:\n        /* \"#utility.yul\":4103:4325   */\n      swap3\n      swap2\n      pop\n      pop\n      jump\t// out\n        /* \"#utility.yul\":4331:4501   */\n    tag_75:\n        /* \"#utility.yul\":4471:4493   */\n      0x4572726f72206e6f20616e792062616c616e6365000000000000000000000000\n        /* \"#utility.yul\":4467:4468   */\n      0x00\n        /* \"#utility.yul\":4459:4465   */\n      dup3\n        /* \"#utility.yul\":4455:4469   */\n      add\n        /* \"#utility.yul\":4448:4494   */\n      mstore\n        /* \"#utility.yul\":4331:4501   */\n      pop\n      jump\t// out\n        /* \"#utility.yul\":4507:4873   */\n    tag_76:\n        /* \"#utility.yul\":4649:4652   */\n      0x00\n        /* \"#utility.yul\":4670:4737   */\n      tag_140\n        /* \"#utility.yul\":4734:4736   */\n      0x14\n        /* \"#utility.yul\":4729:4732   */\n      dup4\n        /* \"#utility.yul\":4670:4737   */\n      tag_70\n      jump\t// in\n    tag_140:\n        /* \"#utility.yul\":4663:4737   */\n      swap2\n      pop\n        /* \"#utility.yul\":4746:4839   */\n      tag_141\n        /* \"#utility.yul\":4835:4838   */\n      dup3\n        /* \"#utility.yul\":4746:4839   */\n      tag_75\n      jump\t// in\n    tag_141:\n        /* \"#utility.yul\":4864:4866   */\n      0x20\n        /* \"#utility.yul\":4859:4862   */\n      dup3\n        /* \"#utility.yul\":4855:4867   */\n      add\n        /* \"#utility.yul\":4848:4867   */\n      swap1\n      pop\n        /* \"#utility.yul\":4507:4873   */\n      swap2\n      swap1\n      pop\n      jump\t// out\n        /* \"#utility.yul\":4879:5298   */\n    tag_29:\n        /* \"#utility.yul\":5045:5049   */\n      0x00\n        /* \"#utility.yul\":5083:5085   */\n      0x20\n        /* \"#utility.yul\":5072:5081   */\n      dup3\n        /* \"#utility.yul\":5068:5086   */\n      add\n        /* \"#utility.yul\":5060:5086   */\n      swap1\n      pop\n        /* \"#utility.yul\":5132:5141   */\n      dup2\n        /* \"#utility.yul\":5126:5130   */\n      dup2\n        /* \"#utility.yul\":5122:5142   */\n      sub\n        /* \"#utility.yul\":5118:5119   */\n      0x00\n        /* \"#utility.yul\":5107:5116   */\n      dup4\n        /* \"#utility.yul\":5103:5120   */\n      add\n        /* \"#utility.yul\":5096:5143   */\n      mstore\n        /* \"#utility.yul\":5160:5291   */\n      tag_143\n        /* \"#utility.yul\":5286:5290   */\n      dup2\n        /* \"#utility.yul\":5160:5291   */\n      tag_76\n      jump\t// in\n    tag_143:\n        /* \"#utility.yul\":5152:5291   */\n      swap1\n      pop\n        /* \"#utility.yul\":4879:5298   */\n      swap2\n      swap1\n      pop\n      jump\t// out\n        /* \"#utility.yul\":5304:5477   */\n    tag_77:\n        /* \"#utility.yul\":5444:5469   */\n      0x6572726f72206e6f2075736572206f7220627579657220000000000000000000\n        /* \"#utility.yul\":5440:5441   */\n      0x00\n        /* \"#utility.yul\":5432:5438   */\n      dup3\n        /* \"#utility.yul\":5428:5442   */\n      add\n        /* \"#utility.yul\":5421:5470   */\n      mstore\n        /* \"#utility.yul\":5304:5477   */\n      pop\n      jump\t// out\n        /* \"#utility.yul\":5483:5849   */\n    tag_78:\n        /* \"#utility.yul\":5625:5628   */\n      0x00\n        /* \"#utility.yul\":5646:5713   */\n      tag_146\n        /* \"#utility.yul\":5710:5712   */\n      0x17\n        /* \"#utility.yul\":5705:5708   */\n      dup4\n        /* \"#utility.yul\":5646:5713   */\n      tag_70\n      jump\t// in\n    tag_146:\n        /* \"#utility.yul\":5639:5713   */\n      swap2\n      pop\n        /* \"#utility.yul\":5722:5815   */\n      tag_147\n        /* \"#utility.yul\":5811:5814   */\n      dup3\n        /* \"#utility.yul\":5722:5815   */\n      tag_77\n      jump\t// in\n    tag_147:\n        /* \"#utility.yul\":5840:5842   */\n      0x20\n        /* \"#utility.yul\":5835:5838   */\n      dup3\n        /* \"#utility.yul\":5831:5843   */\n      add\n        /* \"#utility.yul\":5824:5843   */\n      swap1\n      pop\n        /* \"#utility.yul\":5483:5849   */\n      swap2\n      swap1\n      pop\n      jump\t// out\n        /* \"#utility.yul\":5855:6274   */\n    tag_34:\n        /* \"#utility.yul\":6021:6025   */\n      0x00\n        /* \"#utility.yul\":6059:6061   */\n      0x20\n        /* \"#utility.yul\":6048:6057   */\n      dup3\n        /* \"#utility.yul\":6044:6062   */\n      add\n        /* \"#utility.yul\":6036:6062   */\n      swap1\n      pop\n        /* \"#utility.yul\":6108:6117   */\n      dup2\n        /* \"#utility.yul\":6102:6106   */\n      dup2\n        /* \"#utility.yul\":6098:6118   */\n      sub\n        /* \"#utility.yul\":6094:6095   */\n      0x00\n        /* \"#utility.yul\":6083:6092   */\n      dup4\n        /* \"#utility.yul\":6079:6096   */\n      add\n        /* \"#utility.yul\":6072:6119   */\n      mstore\n        /* \"#utility.yul\":6136:6267   */\n      tag_149\n        /* \"#utility.yul\":6262:6266   */\n      dup2\n        /* \"#utility.yul\":6136:6267   */\n      tag_78\n      jump\t// in\n    tag_149:\n        /* \"#utility.yul\":6128:6267   */\n      swap1\n      pop\n        /* \"#utility.yul\":5855:6274   */\n      swap2\n      swap1\n      pop\n      jump\t// out\n        /* \"#utility.yul\":6280:6447   */\n    tag_79:\n        /* \"#utility.yul\":6420:6439   */\n      0x4e6f206361736820696e70757474656420000000000000000000000000000000\n        /* \"#utility.yul\":6416:6417   */\n      0x00\n        /* \"#utility.yul\":6408:6414   */\n      dup3\n        /* \"#utility.yul\":6404:6418   */\n      add\n        /* \"#utility.yul\":6397:6440   */\n      mstore\n        /* \"#utility.yul\":6280:6447   */\n      pop\n      jump\t// out\n        /* \"#utility.yul\":6453:6819   */\n    tag_80:\n        /* \"#utility.yul\":6595:6598   */\n      0x00\n        /* \"#utility.yul\":6616:6683   */\n      tag_152\n        /* \"#utility.yul\":6680:6682   */\n      0x11\n        /* \"#utility.yul\":6675:6678   */\n      dup4\n        /* \"#utility.yul\":6616:6683   */\n      tag_70\n      jump\t// in\n    tag_152:\n        /* \"#utility.yul\":6609:6683   */\n      swap2\n      pop\n        /* \"#utility.yul\":6692:6785   */\n      tag_153\n        /* \"#utility.yul\":6781:6784   */\n      dup3\n        /* \"#utility.yul\":6692:6785   */\n      tag_79\n      jump\t// in\n    tag_153:\n        /* \"#utility.yul\":6810:6812   */\n      0x20\n        /* \"#utility.yul\":6805:6808   */\n      dup3\n        /* \"#utility.yul\":6801:6813   */\n      add\n        /* \"#utility.yul\":6794:6813   */\n      swap1\n      pop\n        /* \"#utility.yul\":6453:6819   */\n      swap2\n      swap1\n      pop\n      jump\t// out\n        /* \"#utility.yul\":6825:7244   */\n    tag_37:\n        /* \"#utility.yul\":6991:6995   */\n      0x00\n        /* \"#utility.yul\":7029:7031   */\n      0x20\n        /* \"#utility.yul\":7018:7027   */\n      dup3\n        /* \"#utility.yul\":7014:7032   */\n      add\n        /* \"#utility.yul\":7006:7032   */\n      swap1\n      pop\n        /* \"#utility.yul\":7078:7087   */\n      dup2\n        /* \"#utility.yul\":7072:7076   */\n      dup2\n        /* \"#utility.yul\":7068:7088   */\n      sub\n        /* \"#utility.yul\":7064:7065   */\n      0x00\n        /* \"#utility.yul\":7053:7062   */\n      dup4\n        /* \"#utility.yul\":7049:7066   */\n      add\n        /* \"#utility.yul\":7042:7089   */\n      mstore\n        /* \"#utility.yul\":7106:7237   */\n      tag_155\n        /* \"#utility.yul\":7232:7236   */\n      dup2\n        /* \"#utility.yul\":7106:7237   */\n      tag_80\n      jump\t// in\n    tag_155:\n        /* \"#utility.yul\":7098:7237   */\n      swap1\n      pop\n        /* \"#utility.yul\":6825:7244   */\n      swap2\n      swap1\n      pop\n      jump\t// out\n        /* \"#utility.yul\":7250:7418   */\n    tag_81:\n        /* \"#utility.yul\":7390:7410   */\n      0x796f752063616e20627579207468696e67730000000000000000000000000000\n        /* \"#utility.yul\":7386:7387   */\n      0x00\n        /* \"#utility.yul\":7378:7384   */\n      dup3\n        /* \"#utility.yul\":7374:7388   */\n      add\n        /* \"#utility.yul\":7367:7411   */\n      mstore\n        /* \"#utility.yul\":7250:7418   */\n      pop\n      jump\t// out\n        /* \"#utility.yul\":7424:7790   */\n    tag_82:\n        /* \"#utility.yul\":7566:7569   */\n      0x00\n        /* \"#utility.yul\":7587:7654   */\n      tag_158\n        /* \"#utility.yul\":7651:7653   */\n      0x12\n        /* \"#utility.yul\":7646:7649   */\n      dup4\n        /* \"#utility.yul\":7587:7654   */\n      tag_70\n      jump\t// in\n    tag_158:\n        /* \"#utility.yul\":7580:7654   */\n      swap2\n      pop\n        /* \"#utility.yul\":7663:7756   */\n      tag_159\n        /* \"#utility.yul\":7752:7755   */\n      dup3\n        /* \"#utility.yul\":7663:7756   */\n      tag_81\n      jump\t// in\n    tag_159:\n        /* \"#utility.yul\":7781:7783   */\n      0x20\n        /* \"#utility.yul\":7776:7779   */\n      dup3\n        /* \"#utility.yul\":7772:7784   */\n      add\n        /* \"#utility.yul\":7765:7784   */\n      swap1\n      pop\n        /* \"#utility.yul\":7424:7790   */\n      swap2\n      swap1\n      pop\n      jump\t// out\n        /* \"#utility.yul\":7796:8215   */\n    tag_40:\n        /* \"#utility.yul\":7962:7966   */\n      0x00\n        /* \"#utility.yul\":8000:8002   */\n      0x20\n        /* \"#utility.yul\":7989:7998   */\n      dup3\n        /* \"#utility.yul\":7985:8003   */\n      add\n        /* \"#utility.yul\":7977:8003   */\n      swap1\n      pop\n        /* \"#utility.yul\":8049:8058   */\n      dup2\n        /* \"#utility.yul\":8043:8047   */\n      dup2\n        /* \"#utility.yul\":8039:8059   */\n      sub\n        /* \"#utility.yul\":8035:8036   */\n      0x00\n        /* \"#utility.yul\":8024:8033   */\n      dup4\n        /* \"#utility.yul\":8020:8037   */\n      add\n        /* \"#utility.yul\":8013:8060   */\n      mstore\n        /* \"#utility.yul\":8077:8208   */\n      tag_161\n        /* \"#utility.yul\":8203:8207   */\n      dup2\n        /* \"#utility.yul\":8077:8208   */\n      tag_82\n      jump\t// in\n    tag_161:\n        /* \"#utility.yul\":8069:8208   */\n      swap1\n      pop\n        /* \"#utility.yul\":7796:8215   */\n      swap2\n      swap1\n      pop\n      jump\t// out\n        /* \"#utility.yul\":8221:8401   */\n    tag_83:\n        /* \"#utility.yul\":8269:8346   */\n      0x4e487b7100000000000000000000000000000000000000000000000000000000\n        /* \"#utility.yul\":8266:8267   */\n      0x00\n        /* \"#utility.yul\":8259:8347   */\n      mstore\n        /* \"#utility.yul\":8366:8370   */\n      0x11\n        /* \"#utility.yul\":8363:8364   */\n      0x04\n        /* \"#utility.yul\":8356:8371   */\n      mstore\n        /* \"#utility.yul\":8390:8394   */\n      0x24\n        /* \"#utility.yul\":8387:8388   */\n      0x00\n        /* \"#utility.yul\":8380:8395   */\n      revert\n        /* \"#utility.yul\":8407:8601   */\n    tag_42:\n        /* \"#utility.yul\":8447:8451   */\n      0x00\n        /* \"#utility.yul\":8467:8487   */\n      tag_164\n        /* \"#utility.yul\":8485:8486   */\n      dup3\n        /* \"#utility.yul\":8467:8487   */\n      tag_66\n      jump\t// in\n    tag_164:\n        /* \"#utility.yul\":8462:8487   */\n      swap2\n      pop\n        /* \"#utility.yul\":8501:8521   */\n      tag_165\n        /* \"#utility.yul\":8519:8520   */\n      dup4\n        /* \"#utility.yul\":8501:8521   */\n      tag_66\n      jump\t// in\n    tag_165:\n        /* \"#utility.yul\":8496:8521   */\n      swap3\n      pop\n        /* \"#utility.yul\":8545:8546   */\n      dup3\n        /* \"#utility.yul\":8542:8543   */\n      dup3\n        /* \"#utility.yul\":8538:8547   */\n      sub\n        /* \"#utility.yul\":8530:8547   */\n      swap1\n      pop\n        /* \"#utility.yul\":8569:8570   */\n      dup2\n        /* \"#utility.yul\":8563:8567   */\n      dup2\n        /* \"#utility.yul\":8560:8571   */\n      gt\n        /* \"#utility.yul\":8557:8594   */\n      iszero\n      tag_166\n      jumpi\n        /* \"#utility.yul\":8574:8592   */\n      tag_167\n      tag_83\n      jump\t// in\n    tag_167:\n        /* \"#utility.yul\":8557:8594   */\n    tag_166:\n        /* \"#utility.yul\":8407:8601   */\n      swap3\n      swap2\n      pop\n      pop\n      jump\t// out\n        /* \"#utility.yul\":8607:8798   */\n    tag_44:\n        /* \"#utility.yul\":8647:8650   */\n      0x00\n        /* \"#utility.yul\":8666:8686   */\n      tag_169\n        /* \"#utility.yul\":8684:8685   */\n      dup3\n        /* \"#utility.yul\":8666:8686   */\n      tag_66\n      jump\t// in\n    tag_169:\n        /* \"#utility.yul\":8661:8686   */\n      swap2\n      pop\n        /* \"#utility.yul\":8700:8720   */\n      tag_170\n        /* \"#utility.yul\":8718:8719   */\n      dup4\n        /* \"#utility.yul\":8700:8720   */\n      tag_66\n      jump\t// in\n    tag_170:\n        /* \"#utility.yul\":8695:8720   */\n      swap3\n      pop\n        /* \"#utility.yul\":8743:8744   */\n      dup3\n        /* \"#utility.yul\":8740:8741   */\n      dup3\n        /* \"#utility.yul\":8736:8745   */\n      add\n        /* \"#utility.yul\":8729:8745   */\n      swap1\n      pop\n        /* \"#utility.yul\":8764:8767   */\n      dup1\n        /* \"#utility.yul\":8761:8762   */\n      dup3\n        /* \"#utility.yul\":8758:8768   */\n      gt\n        /* \"#utility.yul\":8755:8791   */\n      iszero\n      tag_171\n      jumpi\n        /* \"#utility.yul\":8771:8789   */\n      tag_172\n      tag_83\n      jump\t// in\n    tag_172:\n        /* \"#utility.yul\":8755:8791   */\n    tag_171:\n        /* \"#utility.yul\":8607:8798   */\n      swap3\n      swap2\n      pop\n      pop\n      jump\t// out\n        /* \"#utility.yul\":8804:8922   */\n    tag_84:\n        /* \"#utility.yul\":8891:8915   */\n      tag_174\n        /* \"#utility.yul\":8909:8914   */\n      dup2\n        /* \"#utility.yul\":8891:8915   */\n      tag_63\n      jump\t// in\n    tag_174:\n        /* \"#utility.yul\":8886:8889   */\n      dup3\n        /* \"#utility.yul\":8879:8916   */\n      mstore\n        /* \"#utility.yul\":8804:8922   */\n      pop\n      pop\n      jump\t// out\n        /* \"#utility.yul\":8928:9370   */\n    tag_46:\n        /* \"#utility.yul\":9077:9081   */\n      0x00\n        /* \"#utility.yul\":9115:9117   */\n      0x60\n        /* \"#utility.yul\":9104:9113   */\n      dup3\n        /* \"#utility.yul\":9100:9118   */\n      add\n        /* \"#utility.yul\":9092:9118   */\n      swap1\n      pop\n        /* \"#utility.yul\":9128:9199   */\n      tag_176\n        /* \"#utility.yul\":9196:9197   */\n      0x00\n        /* \"#utility.yul\":9185:9194   */\n      dup4\n        /* \"#utility.yul\":9181:9198   */\n      add\n        /* \"#utility.yul\":9172:9178   */\n      dup7\n        /* \"#utility.yul\":9128:9199   */\n      tag_84\n      jump\t// in\n    tag_176:\n        /* \"#utility.yul\":9209:9281   */\n      tag_177\n        /* \"#utility.yul\":9277:9279   */\n      0x20\n        /* \"#utility.yul\":9266:9275   */\n      dup4\n        /* \"#utility.yul\":9262:9280   */\n      add\n        /* \"#utility.yul\":9253:9259   */\n      dup6\n        /* \"#utility.yul\":9209:9281   */\n      tag_84\n      jump\t// in\n    tag_177:\n        /* \"#utility.yul\":9291:9363   */\n      tag_178\n        /* \"#utility.yul\":9359:9361   */\n      0x40\n        /* \"#utility.yul\":9348:9357   */\n      dup4\n        /* \"#utility.yul\":9344:9362   */\n      add\n        /* \"#utility.yul\":9335:9341   */\n      dup5\n        /* \"#utility.yul\":9291:9363   */\n      tag_74\n      jump\t// in\n    tag_178:\n        /* \"#utility.yul\":8928:9370   */\n      swap5\n      swap4\n      pop\n      pop\n      pop\n      pop\n      jump\t// out\n        /* \"#utility.yul\":9376:9551   */\n    tag_85:\n        /* \"#utility.yul\":9516:9543   */\n      0x427579657220616e642073656c6c6572206172652073616d6500000000000000\n        /* \"#utility.yul\":9512:9513   */\n      0x00\n        /* \"#utility.yul\":9504:9510   */\n      dup3\n        /* \"#utility.yul\":9500:9514   */\n      add\n        /* \"#utility.yul\":9493:9544   */\n      mstore\n        /* \"#utility.yul\":9376:9551   */\n      pop\n      jump\t// out\n        /* \"#utility.yul\":9557:9923   */\n    tag_86:\n        /* \"#utility.yul\":9699:9702   */\n      0x00\n        /* \"#utility.yul\":9720:9787   */\n      tag_181\n        /* \"#utility.yul\":9784:9786   */\n      0x19\n        /* \"#utility.yul\":9779:9782   */\n      dup4\n        /* \"#utility.yul\":9720:9787   */\n      tag_70\n      jump\t// in\n    tag_181:\n        /* \"#utility.yul\":9713:9787   */\n      swap2\n      pop\n        /* \"#utility.yul\":9796:9889   */\n      tag_182\n        /* \"#utility.yul\":9885:9888   */\n      dup3\n        /* \"#utility.yul\":9796:9889   */\n      tag_85\n      jump\t// in\n    tag_182:\n        /* \"#utility.yul\":9914:9916   */\n      0x20\n        /* \"#utility.yul\":9909:9912   */\n      dup3\n        /* \"#utility.yul\":9905:9917   */\n      add\n        /* \"#utility.yul\":9898:9917   */\n      swap1\n      pop\n        /* \"#utility.yul\":9557:9923   */\n      swap2\n      swap1\n      pop\n      jump\t// out\n        /* \"#utility.yul\":9929:10348   */\n    tag_57:\n        /* \"#utility.yul\":10095:10099   */\n      0x00\n        /* \"#utility.yul\":10133:10135   */\n      0x20\n        /* \"#utility.yul\":10122:10131   */\n      dup3\n        /* \"#utility.yul\":10118:10136   */\n      add\n        /* \"#utility.yul\":10110:10136   */\n      swap1\n      pop\n        /* \"#utility.yul\":10182:10191   */\n      dup2\n        /* \"#utility.yul\":10176:10180   */\n      dup2\n        /* \"#utility.yul\":10172:10192   */\n      sub\n        /* \"#utility.yul\":10168:10169   */\n      0x00\n        /* \"#utility.yul\":10157:10166   */\n      dup4\n        /* \"#utility.yul\":10153:10170   */\n      add\n        /* \"#utility.yul\":10146:10193   */\n      mstore\n        /* \"#utility.yul\":10210:10341   */\n      tag_184\n        /* \"#utility.yul\":10336:10340   */\n      dup2\n        /* \"#utility.yul\":10210:10341   */\n      tag_86\n      jump\t// in\n    tag_184:\n        /* \"#utility.yul\":10202:10341   */\n      swap1\n      pop\n        /* \"#utility.yul\":9929:10348   */\n      swap2\n      swap1\n      pop\n      jump\t// out\n\n    auxdata: 0xa264697066735822122084e74f3f875d07499196b5a6b2f53e91ebdf90243dc64baf632cc02838f5bf6364736f6c63430008120033\n}\n",
				"bytecode": {
					"linkReferences": {},
					"object": "608060405234801561001057600080fd5b50610bc4806100206000396000f3fe608060405234801561001057600080fd5b506004361061004c5760003560e01c80636d705ebb14610051578063cae270b61461006d578063d0c183be1461009d578063ebfb412d146100b9575b600080fd5b61006b600480360381019061006691906106f9565b6100e9565b005b61008760048036038101906100829190610739565b610173565b604051610094919061081c565b60405180910390f35b6100b760048036038101906100b29190610739565b610405565b005b6100d360048036038101906100ce919061083e565b610648565b6040516100e0919061087a565b60405180910390f35b6000810361012c576040517f08c379a0000000000000000000000000000000000000000000000000000000008152600401610123906108e1565b60405180910390fd5b806000808473ffffffffffffffffffffffffffffffffffffffff1673ffffffffffffffffffffffffffffffffffffffff168152602001908152602001600020819055505050565b6060600073ffffffffffffffffffffffffffffffffffffffff168473ffffffffffffffffffffffffffffffffffffffff161415806101de5750600073ffffffffffffffffffffffffffffffffffffffff168373ffffffffffffffffffffffffffffffffffffffff1614155b61021d576040517f08c379a00000000000000000000000000000000000000000000000000000000081526004016102149061094d565b60405180910390fd5b60008203610260576040517f08c379a0000000000000000000000000000000000000000000000000000000008152600401610257906109b9565b60405180910390fd5b816000808673ffffffffffffffffffffffffffffffffffffffff1673ffffffffffffffffffffffffffffffffffffffff1681526020019081526020016000205410156102e1576040517f08c379a00000000000000000000000000000000000000000000000000000000081526004016102d890610a25565b60405180910390fd5b816000808673ffffffffffffffffffffffffffffffffffffffff1673ffffffffffffffffffffffffffffffffffffffff168152602001908152602001600020600082825461032f9190610a74565b92505081905550816000808573ffffffffffffffffffffffffffffffffffffffff1673ffffffffffffffffffffffffffffffffffffffff16815260200190815260200160002060008282546103849190610aa8565b925050819055507f22e3ae3a20c49dce14046235895c7a3ffc0a6a5f3577c370177ad45fa619485d8484846040516103be93929190610aeb565b60405180910390a16040518060400160405280602081526020017f6974656d2077696c6c206265207368697070656420746f206c6f636174696f6e81525090509392505050565b600073ffffffffffffffffffffffffffffffffffffffff168373ffffffffffffffffffffffffffffffffffffffff1614158061046e5750600073ffffffffffffffffffffffffffffffffffffffff168273ffffffffffffffffffffffffffffffffffffffff1614155b6104ad576040517f08c379a00000000000000000000000000000000000000000000000000000000081526004016104a49061094d565b60405180910390fd5b600081036104f0576040517f08c379a00000000000000000000000000000000000000000000000000000000081526004016104e7906109b9565b60405180910390fd5b806000808573ffffffffffffffffffffffffffffffffffffffff1673ffffffffffffffffffffffffffffffffffffffff168152602001908152602001600020600082825461053e9190610a74565b92505081905550806000808473ffffffffffffffffffffffffffffffffffffffff1673ffffffffffffffffffffffffffffffffffffffff16815260200190815260200160002060008282546105939190610aa8565b925050819055508173ffffffffffffffffffffffffffffffffffffffff168373ffffffffffffffffffffffffffffffffffffffff1603610608576040517f08c379a00000000000000000000000000000000000000000000000000000000081526004016105ff90610b6e565b60405180910390fd5b7f22e3ae3a20c49dce14046235895c7a3ffc0a6a5f3577c370177ad45fa619485d83838360405161063b93929190610aeb565b60405180910390a1505050565b60006020528060005260406000206000915090505481565b600080fd5b600073ffffffffffffffffffffffffffffffffffffffff82169050919050565b600061069082610665565b9050919050565b6106a081610685565b81146106ab57600080fd5b50565b6000813590506106bd81610697565b92915050565b6000819050919050565b6106d6816106c3565b81146106e157600080fd5b50565b6000813590506106f3816106cd565b92915050565b600080604083850312156107105761070f610660565b5b600061071e858286016106ae565b925050602061072f858286016106e4565b9150509250929050565b60008060006060848603121561075257610751610660565b5b6000610760868287016106ae565b9350506020610771868287016106ae565b9250506040610782868287016106e4565b9150509250925092565b600081519050919050565b600082825260208201905092915050565b60005b838110156107c65780820151818401526020810190506107ab565b60008484015250505050565b6000601f19601f8301169050919050565b60006107ee8261078c565b6107f88185610797565b93506108088185602086016107a8565b610811816107d2565b840191505092915050565b6000602082019050818103600083015261083681846107e3565b905092915050565b60006020828403121561085457610853610660565b5b6000610862848285016106ae565b91505092915050565b610874816106c3565b82525050565b600060208201905061088f600083018461086b565b92915050565b7f4572726f72206e6f20616e792062616c616e6365000000000000000000000000600082015250565b60006108cb601483610797565b91506108d682610895565b602082019050919050565b600060208201905081810360008301526108fa816108be565b9050919050565b7f6572726f72206e6f2075736572206f7220627579657220000000000000000000600082015250565b6000610937601783610797565b915061094282610901565b602082019050919050565b600060208201905081810360008301526109668161092a565b9050919050565b7f4e6f206361736820696e70757474656420000000000000000000000000000000600082015250565b60006109a3601183610797565b91506109ae8261096d565b602082019050919050565b600060208201905081810360008301526109d281610996565b9050919050565b7f796f752063616e20627579207468696e67730000000000000000000000000000600082015250565b6000610a0f601283610797565b9150610a1a826109d9565b602082019050919050565b60006020820190508181036000830152610a3e81610a02565b9050919050565b7f4e487b7100000000000000000000000000000000000000000000000000000000600052601160045260246000fd5b6000610a7f826106c3565b9150610a8a836106c3565b9250828203905081811115610aa257610aa1610a45565b5b92915050565b6000610ab3826106c3565b9150610abe836106c3565b9250828201905080821115610ad657610ad5610a45565b5b92915050565b610ae581610685565b82525050565b6000606082019050610b006000830186610adc565b610b0d6020830185610adc565b610b1a604083018461086b565b949350505050565b7f427579657220616e642073656c6c6572206172652073616d6500000000000000600082015250565b6000610b58601983610797565b9150610b6382610b22565b602082019050919050565b60006020820190508181036000830152610b8781610b4b565b905091905056fea264697066735822122084e74f3f875d07499196b5a6b2f53e91ebdf90243dc64baf632cc02838f5bf6364736f6c63430008120033",
					"opcodes": "PUSH1 0x80 PUSH1 0x40 MSTORE CALLVALUE DUP1 ISZERO PUSH2 0x10 JUMPI PUSH1 0x0 DUP1 REVERT JUMPDEST POP PUSH2 0xBC4 DUP1 PUSH2 0x20 PUSH1 0x0 CODECOPY PUSH1 0x0 RETURN INVALID PUSH1 0x80 PUSH1 0x40 MSTORE CALLVALUE DUP1 ISZERO PUSH2 0x10 JUMPI PUSH1 0x0 DUP1 REVERT JUMPDEST POP PUSH1 0x4 CALLDATASIZE LT PUSH2 0x4C JUMPI PUSH1 0x0 CALLDATALOAD PUSH1 0xE0 SHR DUP1 PUSH4 0x6D705EBB EQ PUSH2 0x51 JUMPI DUP1 PUSH4 0xCAE270B6 EQ PUSH2 0x6D JUMPI DUP1 PUSH4 0xD0C183BE EQ PUSH2 0x9D JUMPI DUP1 PUSH4 0xEBFB412D EQ PUSH2 0xB9 JUMPI JUMPDEST PUSH1 0x0 DUP1 REVERT JUMPDEST PUSH2 0x6B PUSH1 0x4 DUP1 CALLDATASIZE SUB DUP2 ADD SWAP1 PUSH2 0x66 SWAP2 SWAP1 PUSH2 0x6F9 JUMP JUMPDEST PUSH2 0xE9 JUMP JUMPDEST STOP JUMPDEST PUSH2 0x87 PUSH1 0x4 DUP1 CALLDATASIZE SUB DUP2 ADD SWAP1 PUSH2 0x82 SWAP2 SWAP1 PUSH2 0x739 JUMP JUMPDEST PUSH2 0x173 JUMP JUMPDEST PUSH1 0x40 MLOAD PUSH2 0x94 SWAP2 SWAP1 PUSH2 0x81C JUMP JUMPDEST PUSH1 0x40 MLOAD DUP1 SWAP2 SUB SWAP1 RETURN JUMPDEST PUSH2 0xB7 PUSH1 0x4 DUP1 CALLDATASIZE SUB DUP2 ADD SWAP1 PUSH2 0xB2 SWAP2 SWAP1 PUSH2 0x739 JUMP JUMPDEST PUSH2 0x405 JUMP JUMPDEST STOP JUMPDEST PUSH2 0xD3 PUSH1 0x4 DUP1 CALLDATASIZE SUB DUP2 ADD SWAP1 PUSH2 0xCE SWAP2 SWAP1 PUSH2 0x83E JUMP JUMPDEST PUSH2 0x648 JUMP JUMPDEST PUSH1 0x40 MLOAD PUSH2 0xE0 SWAP2 SWAP1 PUSH2 0x87A JUMP JUMPDEST PUSH1 0x40 MLOAD DUP1 SWAP2 SUB SWAP1 RETURN JUMPDEST PUSH1 0x0 DUP2 SUB PUSH2 0x12C JUMPI PUSH1 0x40 MLOAD PUSH32 0x8C379A000000000000000000000000000000000000000000000000000000000 DUP2 MSTORE PUSH1 0x4 ADD PUSH2 0x123 SWAP1 PUSH2 0x8E1 JUMP JUMPDEST PUSH1 0x40 MLOAD DUP1 SWAP2 SUB SWAP1 REVERT JUMPDEST DUP1 PUSH1 0x0 DUP1 DUP5 PUSH20 0xFFFFFFFFFFFFFFFFFFFFFFFFFFFFFFFFFFFFFFFF AND PUSH20 0xFFFFFFFFFFFFFFFFFFFFFFFFFFFFFFFFFFFFFFFF AND DUP2 MSTORE PUSH1 0x20 ADD SWAP1 DUP2 MSTORE PUSH1 0x20 ADD PUSH1 0x0 KECCAK256 DUP2 SWAP1 SSTORE POP POP POP JUMP JUMPDEST PUSH1 0x60 PUSH1 0x0 PUSH20 0xFFFFFFFFFFFFFFFFFFFFFFFFFFFFFFFFFFFFFFFF AND DUP5 PUSH20 0xFFFFFFFFFFFFFFFFFFFFFFFFFFFFFFFFFFFFFFFF AND EQ ISZERO DUP1 PUSH2 0x1DE JUMPI POP PUSH1 0x0 PUSH20 0xFFFFFFFFFFFFFFFFFFFFFFFFFFFFFFFFFFFFFFFF AND DUP4 PUSH20 0xFFFFFFFFFFFFFFFFFFFFFFFFFFFFFFFFFFFFFFFF AND EQ ISZERO JUMPDEST PUSH2 0x21D JUMPI PUSH1 0x40 MLOAD PUSH32 0x8C379A000000000000000000000000000000000000000000000000000000000 DUP2 MSTORE PUSH1 0x4 ADD PUSH2 0x214 SWAP1 PUSH2 0x94D JUMP JUMPDEST PUSH1 0x40 MLOAD DUP1 SWAP2 SUB SWAP1 REVERT JUMPDEST PUSH1 0x0 DUP3 SUB PUSH2 0x260 JUMPI PUSH1 0x40 MLOAD PUSH32 0x8C379A000000000000000000000000000000000000000000000000000000000 DUP2 MSTORE PUSH1 0x4 ADD PUSH2 0x257 SWAP1 PUSH2 0x9B9 JUMP JUMPDEST PUSH1 0x40 MLOAD DUP1 SWAP2 SUB SWAP1 REVERT JUMPDEST DUP2 PUSH1 0x0 DUP1 DUP7 PUSH20 0xFFFFFFFFFFFFFFFFFFFFFFFFFFFFFFFFFFFFFFFF AND PUSH20 0xFFFFFFFFFFFFFFFFFFFFFFFFFFFFFFFFFFFFFFFF AND DUP2 MSTORE PUSH1 0x20 ADD SWAP1 DUP2 MSTORE PUSH1 0x20 ADD PUSH1 0x0 KECCAK256 SLOAD LT ISZERO PUSH2 0x2E1 JUMPI PUSH1 0x40 MLOAD PUSH32 0x8C379A000000000000000000000000000000000000000000000000000000000 DUP2 MSTORE PUSH1 0x4 ADD PUSH2 0x2D8 SWAP1 PUSH2 0xA25 JUMP JUMPDEST PUSH1 0x40 MLOAD DUP1 SWAP2 SUB SWAP1 REVERT JUMPDEST DUP2 PUSH1 0x0 DUP1 DUP7 PUSH20 0xFFFFFFFFFFFFFFFFFFFFFFFFFFFFFFFFFFFFFFFF AND PUSH20 0xFFFFFFFFFFFFFFFFFFFFFFFFFFFFFFFFFFFFFFFF AND DUP2 MSTORE PUSH1 0x20 ADD SWAP1 DUP2 MSTORE PUSH1 0x20 ADD PUSH1 0x0 KECCAK256 PUSH1 0x0 DUP3 DUP3 SLOAD PUSH2 0x32F SWAP2 SWAP1 PUSH2 0xA74 JUMP JUMPDEST SWAP3 POP POP DUP2 SWAP1 SSTORE POP DUP2 PUSH1 0x0 DUP1 DUP6 PUSH20 0xFFFFFFFFFFFFFFFFFFFFFFFFFFFFFFFFFFFFFFFF AND PUSH20 0xFFFFFFFFFFFFFFFFFFFFFFFFFFFFFFFFFFFFFFFF AND DUP2 MSTORE PUSH1 0x20 ADD SWAP1 DUP2 MSTORE PUSH1 0x20 ADD PUSH1 0x0 KECCAK256 PUSH1 0x0 DUP3 DUP3 SLOAD PUSH2 0x384 SWAP2 SWAP1 PUSH2 0xAA8 JUMP JUMPDEST SWAP3 POP POP DUP2 SWAP1 SSTORE POP PUSH32 0x22E3AE3A20C49DCE14046235895C7A3FFC0A6A5F3577C370177AD45FA619485D DUP5 DUP5 DUP5 PUSH1 0x40 MLOAD PUSH2 0x3BE SWAP4 SWAP3 SWAP2 SWAP1 PUSH2 0xAEB JUMP JUMPDEST PUSH1 0x40 MLOAD DUP1 SWAP2 SUB SWAP1 LOG1 PUSH1 0x40 MLOAD DUP1 PUSH1 0x40 ADD PUSH1 0x40 MSTORE DUP1 PUSH1 0x20 DUP2 MSTORE PUSH1 0x20 ADD PUSH32 0x6974656D2077696C6C206265207368697070656420746F206C6F636174696F6E DUP2 MSTORE POP SWAP1 POP SWAP4 SWAP3 POP POP POP JUMP JUMPDEST PUSH1 0x0 PUSH20 0xFFFFFFFFFFFFFFFFFFFFFFFFFFFFFFFFFFFFFFFF AND DUP4 PUSH20 0xFFFFFFFFFFFFFFFFFFFFFFFFFFFFFFFFFFFFFFFF AND EQ ISZERO DUP1 PUSH2 0x46E JUMPI POP PUSH1 0x0 PUSH20 0xFFFFFFFFFFFFFFFFFFFFFFFFFFFFFFFFFFFFFFFF AND DUP3 PUSH20 0xFFFFFFFFFFFFFFFFFFFFFFFFFFFFFFFFFFFFFFFF AND EQ ISZERO JUMPDEST PUSH2 0x4AD JUMPI PUSH1 0x40 MLOAD PUSH32 0x8C379A000000000000000000000000000000000000000000000000000000000 DUP2 MSTORE PUSH1 0x4 ADD PUSH2 0x4A4 SWAP1 PUSH2 0x94D JUMP JUMPDEST PUSH1 0x40 MLOAD DUP1 SWAP2 SUB SWAP1 REVERT JUMPDEST PUSH1 0x0 DUP2 SUB PUSH2 0x4F0 JUMPI PUSH1 0x40 MLOAD PUSH32 0x8C379A000000000000000000000000000000000000000000000000000000000 DUP2 MSTORE PUSH1 0x4 ADD PUSH2 0x4E7 SWAP1 PUSH2 0x9B9 JUMP JUMPDEST PUSH1 0x40 MLOAD DUP1 SWAP2 SUB SWAP1 REVERT JUMPDEST DUP1 PUSH1 0x0 DUP1 DUP6 PUSH20 0xFFFFFFFFFFFFFFFFFFFFFFFFFFFFFFFFFFFFFFFF AND PUSH20 0xFFFFFFFFFFFFFFFFFFFFFFFFFFFFFFFFFFFFFFFF AND DUP2 MSTORE PUSH1 0x20 ADD SWAP1 DUP2 MSTORE PUSH1 0x20 ADD PUSH1 0x0 KECCAK256 PUSH1 0x0 DUP3 DUP3 SLOAD PUSH2 0x53E SWAP2 SWAP1 PUSH2 0xA74 JUMP JUMPDEST SWAP3 POP POP DUP2 SWAP1 SSTORE POP DUP1 PUSH1 0x0 DUP1 DUP5 PUSH20 0xFFFFFFFFFFFFFFFFFFFFFFFFFFFFFFFFFFFFFFFF AND PUSH20 0xFFFFFFFFFFFFFFFFFFFFFFFFFFFFFFFFFFFFFFFF AND DUP2 MSTORE PUSH1 0x20 ADD SWAP1 DUP2 MSTORE PUSH1 0x20 ADD PUSH1 0x0 KECCAK256 PUSH1 0x0 DUP3 DUP3 SLOAD PUSH2 0x593 SWAP2 SWAP1 PUSH2 0xAA8 JUMP JUMPDEST SWAP3 POP POP DUP2 SWAP1 SSTORE POP DUP2 PUSH20 0xFFFFFFFFFFFFFFFFFFFFFFFFFFFFFFFFFFFFFFFF AND DUP4 PUSH20 0xFFFFFFFFFFFFFFFFFFFFFFFFFFFFFFFFFFFFFFFF AND SUB PUSH2 0x608 JUMPI PUSH1 0x40 MLOAD PUSH32 0x8C379A000000000000000000000000000000000000000000000000000000000 DUP2 MSTORE PUSH1 0x4 ADD PUSH2 0x5FF SWAP1 PUSH2 0xB6E JUMP JUMPDEST PUSH1 0x40 MLOAD DUP1 SWAP2 SUB SWAP1 REVERT JUMPDEST PUSH32 0x22E3AE3A20C49DCE14046235895C7A3FFC0A6A5F3577C370177AD45FA619485D DUP4 DUP4 DUP4 PUSH1 0x40 MLOAD PUSH2 0x63B SWAP4 SWAP3 SWAP2 SWAP1 PUSH2 0xAEB JUMP JUMPDEST PUSH1 0x40 MLOAD DUP1 SWAP2 SUB SWAP1 LOG1 POP POP POP JUMP JUMPDEST PUSH1 0x0 PUSH1 0x20 MSTORE DUP1 PUSH1 0x0 MSTORE PUSH1 0x40 PUSH1 0x0 KECCAK256 PUSH1 0x0 SWAP2 POP SWAP1 POP SLOAD DUP2 JUMP JUMPDEST PUSH1 0x0 DUP1 REVERT JUMPDEST PUSH1 0x0 PUSH20 0xFFFFFFFFFFFFFFFFFFFFFFFFFFFFFFFFFFFFFFFF DUP3 AND SWAP1 POP SWAP2 SWAP1 POP JUMP JUMPDEST PUSH1 0x0 PUSH2 0x690 DUP3 PUSH2 0x665 JUMP JUMPDEST SWAP1 POP SWAP2 SWAP1 POP JUMP JUMPDEST PUSH2 0x6A0 DUP2 PUSH2 0x685 JUMP JUMPDEST DUP2 EQ PUSH2 0x6AB JUMPI PUSH1 0x0 DUP1 REVERT JUMPDEST POP JUMP JUMPDEST PUSH1 0x0 DUP2 CALLDATALOAD SWAP1 POP PUSH2 0x6BD DUP2 PUSH2 0x697 JUMP JUMPDEST SWAP3 SWAP2 POP POP JUMP JUMPDEST PUSH1 0x0 DUP2 SWAP1 POP SWAP2 SWAP1 POP JUMP JUMPDEST PUSH2 0x6D6 DUP2 PUSH2 0x6C3 JUMP JUMPDEST DUP2 EQ PUSH2 0x6E1 JUMPI PUSH1 0x0 DUP1 REVERT JUMPDEST POP JUMP JUMPDEST PUSH1 0x0 DUP2 CALLDATALOAD SWAP1 POP PUSH2 0x6F3 DUP2 PUSH2 0x6CD JUMP JUMPDEST SWAP3 SWAP2 POP POP JUMP JUMPDEST PUSH1 0x0 DUP1 PUSH1 0x40 DUP4 DUP6 SUB SLT ISZERO PUSH2 0x710 JUMPI PUSH2 0x70F PUSH2 0x660 JUMP JUMPDEST JUMPDEST PUSH1 0x0 PUSH2 0x71E DUP6 DUP3 DUP7 ADD PUSH2 0x6AE JUMP JUMPDEST SWAP3 POP POP PUSH1 0x20 PUSH2 0x72F DUP6 DUP3 DUP7 ADD PUSH2 0x6E4 JUMP JUMPDEST SWAP2 POP POP SWAP3 POP SWAP3 SWAP1 POP JUMP JUMPDEST PUSH1 0x0 DUP1 PUSH1 0x0 PUSH1 0x60 DUP5 DUP7 SUB SLT ISZERO PUSH2 0x752 JUMPI PUSH2 0x751 PUSH2 0x660 JUMP JUMPDEST JUMPDEST PUSH1 0x0 PUSH2 0x760 DUP7 DUP3 DUP8 ADD PUSH2 0x6AE JUMP JUMPDEST SWAP4 POP POP PUSH1 0x20 PUSH2 0x771 DUP7 DUP3 DUP8 ADD PUSH2 0x6AE JUMP JUMPDEST SWAP3 POP POP PUSH1 0x40 PUSH2 0x782 DUP7 DUP3 DUP8 ADD PUSH2 0x6E4 JUMP JUMPDEST SWAP2 POP POP SWAP3 POP SWAP3 POP SWAP3 JUMP JUMPDEST PUSH1 0x0 DUP2 MLOAD SWAP1 POP SWAP2 SWAP1 POP JUMP JUMPDEST PUSH1 0x0 DUP3 DUP3 MSTORE PUSH1 0x20 DUP3 ADD SWAP1 POP SWAP3 SWAP2 POP POP JUMP JUMPDEST PUSH1 0x0 JUMPDEST DUP4 DUP2 LT ISZERO PUSH2 0x7C6 JUMPI DUP1 DUP3 ADD MLOAD DUP2 DUP5 ADD MSTORE PUSH1 0x20 DUP2 ADD SWAP1 POP PUSH2 0x7AB JUMP JUMPDEST PUSH1 0x0 DUP5 DUP5 ADD MSTORE POP POP POP POP JUMP JUMPDEST PUSH1 0x0 PUSH1 0x1F NOT PUSH1 0x1F DUP4 ADD AND SWAP1 POP SWAP2 SWAP1 POP JUMP JUMPDEST PUSH1 0x0 PUSH2 0x7EE DUP3 PUSH2 0x78C JUMP JUMPDEST PUSH2 0x7F8 DUP2 DUP6 PUSH2 0x797 JUMP JUMPDEST SWAP4 POP PUSH2 0x808 DUP2 DUP6 PUSH1 0x20 DUP7 ADD PUSH2 0x7A8 JUMP JUMPDEST PUSH2 0x811 DUP2 PUSH2 0x7D2 JUMP JUMPDEST DUP5 ADD SWAP2 POP POP SWAP3 SWAP2 POP POP JUMP JUMPDEST PUSH1 0x0 PUSH1 0x20 DUP3 ADD SWAP1 POP DUP2 DUP2 SUB PUSH1 0x0 DUP4 ADD MSTORE PUSH2 0x836 DUP2 DUP5 PUSH2 0x7E3 JUMP JUMPDEST SWAP1 POP SWAP3 SWAP2 POP POP JUMP JUMPDEST PUSH1 0x0 PUSH1 0x20 DUP3 DUP5 SUB SLT ISZERO PUSH2 0x854 JUMPI PUSH2 0x853 PUSH2 0x660 JUMP JUMPDEST JUMPDEST PUSH1 0x0 PUSH2 0x862 DUP5 DUP3 DUP6 ADD PUSH2 0x6AE JUMP JUMPDEST SWAP2 POP POP SWAP3 SWAP2 POP POP JUMP JUMPDEST PUSH2 0x874 DUP2 PUSH2 0x6C3 JUMP JUMPDEST DUP3 MSTORE POP POP JUMP JUMPDEST PUSH1 0x0 PUSH1 0x20 DUP3 ADD SWAP1 POP PUSH2 0x88F PUSH1 0x0 DUP4 ADD DUP5 PUSH2 0x86B JUMP JUMPDEST SWAP3 SWAP2 POP POP JUMP JUMPDEST PUSH32 0x4572726F72206E6F20616E792062616C616E6365000000000000000000000000 PUSH1 0x0 DUP3 ADD MSTORE POP JUMP JUMPDEST PUSH1 0x0 PUSH2 0x8CB PUSH1 0x14 DUP4 PUSH2 0x797 JUMP JUMPDEST SWAP2 POP PUSH2 0x8D6 DUP3 PUSH2 0x895 JUMP JUMPDEST PUSH1 0x20 DUP3 ADD SWAP1 POP SWAP2 SWAP1 POP JUMP JUMPDEST PUSH1 0x0 PUSH1 0x20 DUP3 ADD SWAP1 POP DUP2 DUP2 SUB PUSH1 0x0 DUP4 ADD MSTORE PUSH2 0x8FA DUP2 PUSH2 0x8BE JUMP JUMPDEST SWAP1 POP SWAP2 SWAP1 POP JUMP JUMPDEST PUSH32 0x6572726F72206E6F2075736572206F7220627579657220000000000000000000 PUSH1 0x0 DUP3 ADD MSTORE POP JUMP JUMPDEST PUSH1 0x0 PUSH2 0x937 PUSH1 0x17 DUP4 PUSH2 0x797 JUMP JUMPDEST SWAP2 POP PUSH2 0x942 DUP3 PUSH2 0x901 JUMP JUMPDEST PUSH1 0x20 DUP3 ADD SWAP1 POP SWAP2 SWAP1 POP JUMP JUMPDEST PUSH1 0x0 PUSH1 0x20 DUP3 ADD SWAP1 POP DUP2 DUP2 SUB PUSH1 0x0 DUP4 ADD MSTORE PUSH2 0x966 DUP2 PUSH2 0x92A JUMP JUMPDEST SWAP1 POP SWAP2 SWAP1 POP JUMP JUMPDEST PUSH32 0x4E6F206361736820696E70757474656420000000000000000000000000000000 PUSH1 0x0 DUP3 ADD MSTORE POP JUMP JUMPDEST PUSH1 0x0 PUSH2 0x9A3 PUSH1 0x11 DUP4 PUSH2 0x797 JUMP JUMPDEST SWAP2 POP PUSH2 0x9AE DUP3 PUSH2 0x96D JUMP JUMPDEST PUSH1 0x20 DUP3 ADD SWAP1 POP SWAP2 SWAP1 POP JUMP JUMPDEST PUSH1 0x0 PUSH1 0x20 DUP3 ADD SWAP1 POP DUP2 DUP2 SUB PUSH1 0x0 DUP4 ADD MSTORE PUSH2 0x9D2 DUP2 PUSH2 0x996 JUMP JUMPDEST SWAP1 POP SWAP2 SWAP1 POP JUMP JUMPDEST PUSH32 0x796F752063616E20627579207468696E67730000000000000000000000000000 PUSH1 0x0 DUP3 ADD MSTORE POP JUMP JUMPDEST PUSH1 0x0 PUSH2 0xA0F PUSH1 0x12 DUP4 PUSH2 0x797 JUMP JUMPDEST SWAP2 POP PUSH2 0xA1A DUP3 PUSH2 0x9D9 JUMP JUMPDEST PUSH1 0x20 DUP3 ADD SWAP1 POP SWAP2 SWAP1 POP JUMP JUMPDEST PUSH1 0x0 PUSH1 0x20 DUP3 ADD SWAP1 POP DUP2 DUP2 SUB PUSH1 0x0 DUP4 ADD MSTORE PUSH2 0xA3E DUP2 PUSH2 0xA02 JUMP JUMPDEST SWAP1 POP SWAP2 SWAP1 POP JUMP JUMPDEST PUSH32 0x4E487B7100000000000000000000000000000000000000000000000000000000 PUSH1 0x0 MSTORE PUSH1 0x11 PUSH1 0x4 MSTORE PUSH1 0x24 PUSH1 0x0 REVERT JUMPDEST PUSH1 0x0 PUSH2 0xA7F DUP3 PUSH2 0x6C3 JUMP JUMPDEST SWAP2 POP PUSH2 0xA8A DUP4 PUSH2 0x6C3 JUMP JUMPDEST SWAP3 POP DUP3 DUP3 SUB SWAP1 POP DUP2 DUP2 GT ISZERO PUSH2 0xAA2 JUMPI PUSH2 0xAA1 PUSH2 0xA45 JUMP JUMPDEST JUMPDEST SWAP3 SWAP2 POP POP JUMP JUMPDEST PUSH1 0x0 PUSH2 0xAB3 DUP3 PUSH2 0x6C3 JUMP JUMPDEST SWAP2 POP PUSH2 0xABE DUP4 PUSH2 0x6C3 JUMP JUMPDEST SWAP3 POP DUP3 DUP3 ADD SWAP1 POP DUP1 DUP3 GT ISZERO PUSH2 0xAD6 JUMPI PUSH2 0xAD5 PUSH2 0xA45 JUMP JUMPDEST JUMPDEST SWAP3 SWAP2 POP POP JUMP JUMPDEST PUSH2 0xAE5 DUP2 PUSH2 0x685 JUMP JUMPDEST DUP3 MSTORE POP POP JUMP JUMPDEST PUSH1 0x0 PUSH1 0x60 DUP3 ADD SWAP1 POP PUSH2 0xB00 PUSH1 0x0 DUP4 ADD DUP7 PUSH2 0xADC JUMP JUMPDEST PUSH2 0xB0D PUSH1 0x20 DUP4 ADD DUP6 PUSH2 0xADC JUMP JUMPDEST PUSH2 0xB1A PUSH1 0x40 DUP4 ADD DUP5 PUSH2 0x86B JUMP JUMPDEST SWAP5 SWAP4 POP POP POP POP JUMP JUMPDEST PUSH32 0x427579657220616E642073656C6C6572206172652073616D6500000000000000 PUSH1 0x0 DUP3 ADD MSTORE POP JUMP JUMPDEST PUSH1 0x0 PUSH2 0xB58 PUSH1 0x19 DUP4 PUSH2 0x797 JUMP JUMPDEST SWAP2 POP PUSH2 0xB63 DUP3 PUSH2 0xB22 JUMP JUMPDEST PUSH1 0x20 DUP3 ADD SWAP1 POP SWAP2 SWAP1 POP JUMP JUMPDEST PUSH1 0x0 PUSH1 0x20 DUP3 ADD SWAP1 POP DUP2 DUP2 SUB PUSH1 0x0 DUP4 ADD MSTORE PUSH2 0xB87 DUP2 PUSH2 0xB4B JUMP JUMPDEST SWAP1 POP SWAP2 SWAP1 POP JUMP INVALID LOG2 PUSH5 0x6970667358 0x22 SLT KECCAK256 DUP5 0xE7 0x4F EXTCODEHASH DUP8 0x5D SMOD 0x49 SWAP2 SWAP7 0xB5 0xA6 0xB2 CREATE2 RETURNDATACOPY SWAP2 0xEB 0xDF SWAP1 0x24 RETURNDATASIZE 0xC6 0x4B 0xAF PUSH4 0x2CC02838 CREATE2 0xBF PUSH4 0x64736F6C PUSH4 0x43000812 STOP CALLER "
				},
				"gasEstimates": {
					"creation": {
						"codeDepositCost": "602400",
						"executionCost": "638",
						"totalCost": "603038"
					},
					"external": {
						"Address(address)": "2858",
						"Buy(address,address,uint256)": "infinite",
						"register(address,uint256)": "22833",
						"sell(address,address,uint256)": "infinite"
					}
				},
				"methodIdentifiers": {
					"Address(address)": "ebfb412d",
					"Buy(address,address,uint256)": "d0c183be",
					"register(address,uint256)": "6d705ebb",
					"sell(address,address,uint256)": "cae270b6"
				}
			},
			"storageLayout": {
				"storage": [
					{
						"astId": 5,
						"contract": "lab 18-08-2023/Market.sol:Regularbuyer",
						"label": "Address",
						"offset": 0,
						"slot": "0",
						"type": "t_mapping(t_address,t_uint256)"
					}
				],
				"types": {
					"t_address": {
						"encoding": "inplace",
						"label": "address",
						"numberOfBytes": "20"
					},
					"t_mapping(t_address,t_uint256)": {
						"encoding": "mapping",
						"key": "t_address",
						"label": "mapping(address => uint256)",
						"numberOfBytes": "32",
						"value": "t_uint256"
					},
					"t_uint256": {
						"encoding": "inplace",
						"label": "uint256",
						"numberOfBytes": "32"
					}
				}
			},
			"userdoc": {
				"kind": "user",
				"methods": {},
				"version": 1
			}
		}
	}
}