{
	"lab 18-08-2023/Market.sol": {
		"VipBuyer": {
			"abi": [
				{
					"inputs": [
						{
							"internalType": "uint256",
							"name": "_discount",
							"type": "uint256"
						}
					],
					"stateMutability": "nonpayable",
					"type": "constructor"
				},
				{
					"anonymous": false,
					"inputs": [
						{
							"indexed": false,
							"internalType": "address",
							"name": "buyeraddress",
							"type": "address"
						},
						{
							"indexed": false,
							"internalType": "address",
							"name": "senderaddress",
							"type": "address"
						},
						{
							"indexed": false,
							"internalType": "uint256",
							"name": "valueofpurchase",
							"type": "uint256"
						}
					],
					"name": "Purchase",
					"type": "event"
				},
				{
					"inputs": [
						{
							"internalType": "address",
							"name": "",
							"type": "address"
						}
					],
					"name": "Address",
					"outputs": [
						{
							"internalType": "uint256",
							"name": "",
							"type": "uint256"
						}
					],
					"stateMutability": "view",
					"type": "function"
				},
				{
					"inputs": [
						{
							"internalType": "address",
							"name": "buyer",
							"type": "address"
						},
						{
							"internalType": "address",
							"name": "seller",
							"type": "address"
						},
						{
							"internalType": "uint256",
							"name": "cash",
							"type": "uint256"
						}
					],
					"name": "Buy",
					"outputs": [],
					"stateMutability": "nonpayable",
					"type": "function"
				},
				{
					"inputs": [],
					"name": "discount",
					"outputs": [
						{
							"internalType": "uint256",
							"name": "",
							"type": "uint256"
						}
					],
					"stateMutability": "view",
					"type": "function"
				},
				{
					"inputs": [
						{
							"internalType": "address",
							"name": "newparticipant",
							"type": "address"
						},
						{
							"internalType": "uint256",
							"name": "balance",
							"type": "uint256"
						}
					],
					"name": "register",
					"outputs": [],
					"stateMutability": "nonpayable",
					"type": "function"
				},
				{
					"inputs": [
						{
							"internalType": "address",
							"name": "buyer",
							"type": "address"
						},
						{
							"internalType": "address",
							"name": "seller",
							"type": "address"
						},
						{
							"internalType": "uint256",
							"name": "price",
							"type": "uint256"
						}
					],
					"name": "sell",
					"outputs": [
						{
							"internalType": "string",
							"name": "",
							"type": "string"
						}
					],
					"stateMutability": "nonpayable",
					"type": "function"
				}
			],
			"devdoc": {
				"kind": "dev",
				"methods": {},
				"version": 1
			},
			"evm": {
				"assembly": "    /* \"lab 18-08-2023/Market.sol\":1886:2369  contract  VipBuyer is Marketplace {... */\n  mstore(0x40, 0x80)\n    /* \"lab 18-08-2023/Market.sol\":1952:2010  constructor(uint _discount) {... */\n  callvalue\n  dup1\n  iszero\n  tag_1\n  jumpi\n  0x00\n  dup1\n  revert\ntag_1:\n  pop\n  mload(0x40)\n  sub(codesize, bytecodeSize)\n  dup1\n  bytecodeSize\n  dup4\n  codecopy\n  dup2\n  dup2\n  add\n  0x40\n  mstore\n  dup2\n  add\n  swap1\n  tag_2\n  swap2\n  swap1\n  tag_3\n  jump\t// in\ntag_2:\n    /* \"lab 18-08-2023/Market.sol\":1997:2006  _discount */\n  dup1\n    /* \"lab 18-08-2023/Market.sol\":1987:1995  discount */\n  0x01\n    /* \"lab 18-08-2023/Market.sol\":1987:2006  discount =_discount */\n  dup2\n  swap1\n  sstore\n  pop\n    /* \"lab 18-08-2023/Market.sol\":1952:2010  constructor(uint _discount) {... */\n  pop\n    /* \"lab 18-08-2023/Market.sol\":1886:2369  contract  VipBuyer is Marketplace {... */\n  jump(tag_6)\n    /* \"#utility.yul\":88:205   */\ntag_8:\n    /* \"#utility.yul\":197:198   */\n  0x00\n    /* \"#utility.yul\":194:195   */\n  dup1\n    /* \"#utility.yul\":187:199   */\n  revert\n    /* \"#utility.yul\":334:411   */\ntag_10:\n    /* \"#utility.yul\":371:378   */\n  0x00\n    /* \"#utility.yul\":400:405   */\n  dup2\n    /* \"#utility.yul\":389:405   */\n  swap1\n  pop\n    /* \"#utility.yul\":334:411   */\n  swap2\n  swap1\n  pop\n  jump\t// out\n    /* \"#utility.yul\":417:539   */\ntag_11:\n    /* \"#utility.yul\":490:514   */\n  tag_19\n    /* \"#utility.yul\":508:513   */\n  dup2\n    /* \"#utility.yul\":490:514   */\n  tag_10\n  jump\t// in\ntag_19:\n    /* \"#utility.yul\":483:488   */\n  dup2\n    /* \"#utility.yul\":480:515   */\n  eq\n    /* \"#utility.yul\":470:533   */\n  tag_20\n  jumpi\n    /* \"#utility.yul\":529:530   */\n  0x00\n    /* \"#utility.yul\":526:527   */\n  dup1\n    /* \"#utility.yul\":519:531   */\n  revert\n    /* \"#utility.yul\":470:533   */\ntag_20:\n    /* \"#utility.yul\":417:539   */\n  pop\n  jump\t// out\n    /* \"#utility.yul\":545:688   */\ntag_12:\n    /* \"#utility.yul\":602:607   */\n  0x00\n    /* \"#utility.yul\":633:639   */\n  dup2\n    /* \"#utility.yul\":627:640   */\n  mload\n    /* \"#utility.yul\":618:640   */\n  swap1\n  pop\n    /* \"#utility.yul\":649:682   */\n  tag_22\n    /* \"#utility.yul\":676:681   */\n  dup2\n    /* \"#utility.yul\":649:682   */\n  tag_11\n  jump\t// in\ntag_22:\n    /* \"#utility.yul\":545:688   */\n  swap3\n  swap2\n  pop\n  pop\n  jump\t// out\n    /* \"#utility.yul\":694:1045   */\ntag_3:\n    /* \"#utility.yul\":764:770   */\n  0x00\n    /* \"#utility.yul\":813:815   */\n  0x20\n    /* \"#utility.yul\":801:810   */\n  dup3\n    /* \"#utility.yul\":792:799   */\n  dup5\n    /* \"#utility.yul\":788:811   */\n  sub\n    /* \"#utility.yul\":784:816   */\n  slt\n    /* \"#utility.yul\":781:900   */\n  iszero\n  tag_24\n  jumpi\n    /* \"#utility.yul\":819:898   */\n  tag_25\n  tag_8\n  jump\t// in\ntag_25:\n    /* \"#utility.yul\":781:900   */\ntag_24:\n    /* \"#utility.yul\":939:940   */\n  0x00\n    /* \"#utility.yul\":964:1028   */\n  tag_26\n    /* \"#utility.yul\":1020:1027   */\n  dup5\n    /* \"#utility.yul\":1011:1017   */\n  dup3\n    /* \"#utility.yul\":1000:1009   */\n  dup6\n    /* \"#utility.yul\":996:1018   */\n  add\n    /* \"#utility.yul\":964:1028   */\n  tag_12\n  jump\t// in\ntag_26:\n    /* \"#utility.yul\":954:1028   */\n  swap2\n  pop\n    /* \"#utility.yul\":910:1038   */\n  pop\n    /* \"#utility.yul\":694:1045   */\n  swap3\n  swap2\n  pop\n  pop\n  jump\t// out\n    /* \"lab 18-08-2023/Market.sol\":1886:2369  contract  VipBuyer is Marketplace {... */\ntag_6:\n  dataSize(sub_0)\n  dup1\n  dataOffset(sub_0)\n  0x00\n  codecopy\n  0x00\n  return\nstop\n\nsub_0: assembly {\n        /* \"lab 18-08-2023/Market.sol\":1886:2369  contract  VipBuyer is Marketplace {... */\n      mstore(0x40, 0x80)\n      callvalue\n      dup1\n      iszero\n      tag_1\n      jumpi\n      0x00\n      dup1\n      revert\n    tag_1:\n      pop\n      jumpi(tag_2, lt(calldatasize, 0x04))\n      shr(0xe0, calldataload(0x00))\n      dup1\n      0x6b6f4a9d\n      eq\n      tag_3\n      jumpi\n      dup1\n      0x6d705ebb\n      eq\n      tag_4\n      jumpi\n      dup1\n      0xcae270b6\n      eq\n      tag_5\n      jumpi\n      dup1\n      0xd0c183be\n      eq\n      tag_6\n      jumpi\n      dup1\n      0xebfb412d\n      eq\n      tag_7\n      jumpi\n    tag_2:\n      0x00\n      dup1\n      revert\n        /* \"lab 18-08-2023/Market.sol\":1929:1949  uint public discount */\n    tag_3:\n      tag_8\n      tag_9\n      jump\t// in\n    tag_8:\n      mload(0x40)\n      tag_10\n      swap2\n      swap1\n      tag_11\n      jump\t// in\n    tag_10:\n      mload(0x40)\n      dup1\n      swap2\n      sub\n      swap1\n      return\n        /* \"lab 18-08-2023/Market.sol\":232:406  function  register(address newparticipant ,uint balance) public    {... */\n    tag_4:\n      tag_12\n      0x04\n      dup1\n      calldatasize\n      sub\n      dup2\n      add\n      swap1\n      tag_13\n      swap2\n      swap1\n      tag_14\n      jump\t// in\n    tag_13:\n      tag_15\n      jump\t// in\n    tag_12:\n      stop\n        /* \"lab 18-08-2023/Market.sol\":824:1282  function  sell(address buyer , address seller  , uint price)public virtual  returns (string memory )  {... */\n    tag_5:\n      tag_16\n      0x04\n      dup1\n      calldatasize\n      sub\n      dup2\n      add\n      swap1\n      tag_17\n      swap2\n      swap1\n      tag_18\n      jump\t// in\n    tag_17:\n      tag_19\n      jump\t// in\n    tag_16:\n      mload(0x40)\n      tag_20\n      swap2\n      swap1\n      tag_21\n      jump\t// in\n    tag_20:\n      mload(0x40)\n      dup1\n      swap2\n      sub\n      swap1\n      return\n        /* \"lab 18-08-2023/Market.sol\":2039:2348  function Buy(address buyer , address seller  , uint cash ) public override     {... */\n    tag_6:\n      tag_22\n      0x04\n      dup1\n      calldatasize\n      sub\n      dup2\n      add\n      swap1\n      tag_23\n      swap2\n      swap1\n      tag_18\n      jump\t// in\n    tag_23:\n      tag_24\n      jump\t// in\n    tag_22:\n      stop\n        /* \"lab 18-08-2023/Market.sol\":96:136  mapping(address => uint) public  Address */\n    tag_7:\n      tag_25\n      0x04\n      dup1\n      calldatasize\n      sub\n      dup2\n      add\n      swap1\n      tag_26\n      swap2\n      swap1\n      tag_27\n      jump\t// in\n    tag_26:\n      tag_28\n      jump\t// in\n    tag_25:\n      mload(0x40)\n      tag_29\n      swap2\n      swap1\n      tag_11\n      jump\t// in\n    tag_29:\n      mload(0x40)\n      dup1\n      swap2\n      sub\n      swap1\n      return\n        /* \"lab 18-08-2023/Market.sol\":1929:1949  uint public discount */\n    tag_9:\n      sload(0x01)\n      dup2\n      jump\t// out\n        /* \"lab 18-08-2023/Market.sol\":232:406  function  register(address newparticipant ,uint balance) public    {... */\n    tag_15:\n        /* \"lab 18-08-2023/Market.sol\":319:320  0 */\n      0x00\n        /* \"lab 18-08-2023/Market.sol\":309:316  balance */\n      dup2\n        /* \"lab 18-08-2023/Market.sol\":309:320  balance ==0 */\n      sub\n        /* \"lab 18-08-2023/Market.sol\":304:363  if ( balance ==0) {... */\n      tag_31\n      jumpi\n        /* \"lab 18-08-2023/Market.sol\":329:359  revert(\"Error no any balance\") */\n      mload(0x40)\n      0x08c379a000000000000000000000000000000000000000000000000000000000\n      dup2\n      mstore\n      0x04\n      add\n      tag_32\n      swap1\n      tag_33\n      jump\t// in\n    tag_32:\n      mload(0x40)\n      dup1\n      swap2\n      sub\n      swap1\n      revert\n        /* \"lab 18-08-2023/Market.sol\":304:363  if ( balance ==0) {... */\n    tag_31:\n        /* \"lab 18-08-2023/Market.sol\":393:400  balance */\n      dup1\n        /* \"lab 18-08-2023/Market.sol\":367:374  Address */\n      0x00\n        /* \"lab 18-08-2023/Market.sol\":367:390  Address[newparticipant] */\n      dup1\n        /* \"lab 18-08-2023/Market.sol\":375:389  newparticipant */\n      dup5\n        /* \"lab 18-08-2023/Market.sol\":367:390  Address[newparticipant] */\n      0xffffffffffffffffffffffffffffffffffffffff\n      and\n      0xffffffffffffffffffffffffffffffffffffffff\n      and\n      dup2\n      mstore\n      0x20\n      add\n      swap1\n      dup2\n      mstore\n      0x20\n      add\n      0x00\n      keccak256\n        /* \"lab 18-08-2023/Market.sol\":367:400  Address[newparticipant] = balance */\n      dup2\n      swap1\n      sstore\n      pop\n        /* \"lab 18-08-2023/Market.sol\":232:406  function  register(address newparticipant ,uint balance) public    {... */\n      pop\n      pop\n      jump\t// out\n        /* \"lab 18-08-2023/Market.sol\":824:1282  function  sell(address buyer , address seller  , uint price)public virtual  returns (string memory )  {... */\n    tag_19:\n        /* \"lab 18-08-2023/Market.sol\":909:922  string memory */\n      0x60\n        /* \"lab 18-08-2023/Market.sol\":960:961  0 */\n      0x00\n        /* \"lab 18-08-2023/Market.sol\":943:962  buyer != address(0) */\n      0xffffffffffffffffffffffffffffffffffffffff\n      and\n        /* \"lab 18-08-2023/Market.sol\":943:948  buyer */\n      dup5\n        /* \"lab 18-08-2023/Market.sol\":943:962  buyer != address(0) */\n      0xffffffffffffffffffffffffffffffffffffffff\n      and\n      eq\n      iszero\n        /* \"lab 18-08-2023/Market.sol\":943:987  buyer != address(0)   || seller !=address(0) */\n      dup1\n      tag_35\n      jumpi\n      pop\n        /* \"lab 18-08-2023/Market.sol\":985:986  0 */\n      0x00\n        /* \"lab 18-08-2023/Market.sol\":968:987  seller !=address(0) */\n      0xffffffffffffffffffffffffffffffffffffffff\n      and\n        /* \"lab 18-08-2023/Market.sol\":968:974  seller */\n      dup4\n        /* \"lab 18-08-2023/Market.sol\":968:987  seller !=address(0) */\n      0xffffffffffffffffffffffffffffffffffffffff\n      and\n      eq\n      iszero\n        /* \"lab 18-08-2023/Market.sol\":943:987  buyer != address(0)   || seller !=address(0) */\n    tag_35:\n        /* \"lab 18-08-2023/Market.sol\":935:1016  require(buyer != address(0)   || seller !=address(0) , \"error no user or buyer \") */\n      tag_36\n      jumpi\n      mload(0x40)\n      0x08c379a000000000000000000000000000000000000000000000000000000000\n      dup2\n      mstore\n      0x04\n      add\n      tag_37\n      swap1\n      tag_38\n      jump\t// in\n    tag_37:\n      mload(0x40)\n      dup1\n      swap2\n      sub\n      swap1\n      revert\n    tag_36:\n        /* \"lab 18-08-2023/Market.sol\":1040:1041  0 */\n      0x00\n        /* \"lab 18-08-2023/Market.sol\":1031:1036  price */\n      dup3\n        /* \"lab 18-08-2023/Market.sol\":1031:1041  price != 0 */\n      sub\n        /* \"lab 18-08-2023/Market.sol\":1023:1064  require(price != 0 , \"No cash inputted \") */\n      tag_39\n      jumpi\n      mload(0x40)\n      0x08c379a000000000000000000000000000000000000000000000000000000000\n      dup2\n      mstore\n      0x04\n      add\n      tag_40\n      swap1\n      tag_41\n      jump\t// in\n    tag_40:\n      mload(0x40)\n      dup1\n      swap2\n      sub\n      swap1\n      revert\n    tag_39:\n        /* \"lab 18-08-2023/Market.sol\":1097:1102  price */\n      dup2\n        /* \"lab 18-08-2023/Market.sol\":1079:1086  Address */\n      0x00\n        /* \"lab 18-08-2023/Market.sol\":1079:1093  Address[buyer] */\n      dup1\n        /* \"lab 18-08-2023/Market.sol\":1087:1092  buyer */\n      dup7\n        /* \"lab 18-08-2023/Market.sol\":1079:1093  Address[buyer] */\n      0xffffffffffffffffffffffffffffffffffffffff\n      and\n      0xffffffffffffffffffffffffffffffffffffffff\n      and\n      dup2\n      mstore\n      0x20\n      add\n      swap1\n      dup2\n      mstore\n      0x20\n      add\n      0x00\n      keccak256\n      sload\n        /* \"lab 18-08-2023/Market.sol\":1079:1102  Address[buyer] >= price */\n      lt\n      iszero\n        /* \"lab 18-08-2023/Market.sol\":1071:1126  require(Address[buyer] >= price , \"you can buy things\") */\n      tag_42\n      jumpi\n      mload(0x40)\n      0x08c379a000000000000000000000000000000000000000000000000000000000\n      dup2\n      mstore\n      0x04\n      add\n      tag_43\n      swap1\n      tag_44\n      jump\t// in\n    tag_43:\n      mload(0x40)\n      dup1\n      swap2\n      sub\n      swap1\n      revert\n    tag_42:\n        /* \"lab 18-08-2023/Market.sol\":1147:1152  price */\n      dup2\n        /* \"lab 18-08-2023/Market.sol\":1129:1136  Address */\n      0x00\n        /* \"lab 18-08-2023/Market.sol\":1129:1143  Address[buyer] */\n      dup1\n        /* \"lab 18-08-2023/Market.sol\":1137:1142  buyer */\n      dup7\n        /* \"lab 18-08-2023/Market.sol\":1129:1143  Address[buyer] */\n      0xffffffffffffffffffffffffffffffffffffffff\n      and\n      0xffffffffffffffffffffffffffffffffffffffff\n      and\n      dup2\n      mstore\n      0x20\n      add\n      swap1\n      dup2\n      mstore\n      0x20\n      add\n      0x00\n      keccak256\n      0x00\n        /* \"lab 18-08-2023/Market.sol\":1129:1152  Address[buyer] -= price */\n      dup3\n      dup3\n      sload\n      tag_45\n      swap2\n      swap1\n      tag_46\n      jump\t// in\n    tag_45:\n      swap3\n      pop\n      pop\n      dup2\n      swap1\n      sstore\n      pop\n        /* \"lab 18-08-2023/Market.sol\":1174:1179  price */\n      dup2\n        /* \"lab 18-08-2023/Market.sol\":1155:1162  Address */\n      0x00\n        /* \"lab 18-08-2023/Market.sol\":1155:1170  Address[seller] */\n      dup1\n        /* \"lab 18-08-2023/Market.sol\":1163:1169  seller */\n      dup6\n        /* \"lab 18-08-2023/Market.sol\":1155:1170  Address[seller] */\n      0xffffffffffffffffffffffffffffffffffffffff\n      and\n      0xffffffffffffffffffffffffffffffffffffffff\n      and\n      dup2\n      mstore\n      0x20\n      add\n      swap1\n      dup2\n      mstore\n      0x20\n      add\n      0x00\n      keccak256\n      0x00\n        /* \"lab 18-08-2023/Market.sol\":1155:1179  Address[seller] += price */\n      dup3\n      dup3\n      sload\n      tag_47\n      swap2\n      swap1\n      tag_48\n      jump\t// in\n    tag_47:\n      swap3\n      pop\n      pop\n      dup2\n      swap1\n      sstore\n      pop\n        /* \"lab 18-08-2023/Market.sol\":1191:1222  Purchase(buyer, seller , price) */\n      0x22e3ae3a20c49dce14046235895c7a3ffc0a6a5f3577c370177ad45fa619485d\n        /* \"lab 18-08-2023/Market.sol\":1200:1205  buyer */\n      dup5\n        /* \"lab 18-08-2023/Market.sol\":1207:1213  seller */\n      dup5\n        /* \"lab 18-08-2023/Market.sol\":1216:1221  price */\n      dup5\n        /* \"lab 18-08-2023/Market.sol\":1191:1222  Purchase(buyer, seller , price) */\n      mload(0x40)\n      tag_49\n      swap4\n      swap3\n      swap2\n      swap1\n      tag_50\n      jump\t// in\n    tag_49:\n      mload(0x40)\n      dup1\n      swap2\n      sub\n      swap1\n      log1\n        /* \"lab 18-08-2023/Market.sol\":1231:1272  return \"item will be shipped to location\" */\n      mload(0x40)\n      dup1\n      0x40\n      add\n      0x40\n      mstore\n      dup1\n      0x20\n      dup2\n      mstore\n      0x20\n      add\n      0x6974656d2077696c6c206265207368697070656420746f206c6f636174696f6e\n      dup2\n      mstore\n      pop\n      swap1\n      pop\n        /* \"lab 18-08-2023/Market.sol\":824:1282  function  sell(address buyer , address seller  , uint price)public virtual  returns (string memory )  {... */\n      swap4\n      swap3\n      pop\n      pop\n      pop\n      jump\t// out\n        /* \"lab 18-08-2023/Market.sol\":2039:2348  function Buy(address buyer , address seller  , uint cash ) public override     {... */\n    tag_24:\n        /* \"lab 18-08-2023/Market.sol\":2147:2151  cash */\n      dup1\n        /* \"lab 18-08-2023/Market.sol\":2129:2136  Address */\n      0x00\n        /* \"lab 18-08-2023/Market.sol\":2129:2143  Address[buyer] */\n      dup1\n        /* \"lab 18-08-2023/Market.sol\":2137:2142  buyer */\n      dup6\n        /* \"lab 18-08-2023/Market.sol\":2129:2143  Address[buyer] */\n      0xffffffffffffffffffffffffffffffffffffffff\n      and\n      0xffffffffffffffffffffffffffffffffffffffff\n      and\n      dup2\n      mstore\n      0x20\n      add\n      swap1\n      dup2\n      mstore\n      0x20\n      add\n      0x00\n      keccak256\n      sload\n        /* \"lab 18-08-2023/Market.sol\":2129:2151  Address[buyer] >= cash */\n      lt\n      iszero\n        /* \"lab 18-08-2023/Market.sol\":2129:2177  Address[buyer] >= cash ||Address[seller] >= cash */\n      dup1\n      tag_52\n      jumpi\n      pop\n        /* \"lab 18-08-2023/Market.sol\":2173:2177  cash */\n      dup1\n        /* \"lab 18-08-2023/Market.sol\":2154:2161  Address */\n      0x00\n        /* \"lab 18-08-2023/Market.sol\":2154:2169  Address[seller] */\n      dup1\n        /* \"lab 18-08-2023/Market.sol\":2162:2168  seller */\n      dup5\n        /* \"lab 18-08-2023/Market.sol\":2154:2169  Address[seller] */\n      0xffffffffffffffffffffffffffffffffffffffff\n      and\n      0xffffffffffffffffffffffffffffffffffffffff\n      and\n      dup2\n      mstore\n      0x20\n      add\n      swap1\n      dup2\n      mstore\n      0x20\n      add\n      0x00\n      keccak256\n      sload\n        /* \"lab 18-08-2023/Market.sol\":2154:2177  Address[seller] >= cash */\n      lt\n      iszero\n        /* \"lab 18-08-2023/Market.sol\":2129:2177  Address[buyer] >= cash ||Address[seller] >= cash */\n    tag_52:\n        /* \"lab 18-08-2023/Market.sol\":2121:2205  require(Address[buyer] >= cash ||Address[seller] >= cash , \"you are not registered\") */\n      tag_53\n      jumpi\n      mload(0x40)\n      0x08c379a000000000000000000000000000000000000000000000000000000000\n      dup2\n      mstore\n      0x04\n      add\n      tag_54\n      swap1\n      tag_55\n      jump\t// in\n    tag_54:\n      mload(0x40)\n      dup1\n      swap2\n      sub\n      swap1\n      revert\n    tag_53:\n        /* \"lab 18-08-2023/Market.sol\":2208:2227  uint discountAmount */\n      0x00\n        /* \"lab 18-08-2023/Market.sol\":2248:2251  100 */\n      0x64\n        /* \"lab 18-08-2023/Market.sol\":2237:2245  discount */\n      sload(0x01)\n        /* \"lab 18-08-2023/Market.sol\":2230:2234  cash */\n      dup4\n        /* \"lab 18-08-2023/Market.sol\":2230:2245  cash * discount */\n      tag_56\n      swap2\n      swap1\n      tag_57\n      jump\t// in\n    tag_56:\n        /* \"lab 18-08-2023/Market.sol\":2230:2251  cash * discount / 100 */\n      tag_58\n      swap2\n      swap1\n      tag_59\n      jump\t// in\n    tag_58:\n        /* \"lab 18-08-2023/Market.sol\":2208:2251  uint discountAmount = cash * discount / 100 */\n      swap1\n      pop\n        /* \"lab 18-08-2023/Market.sol\":2254:2270  uint finalAmount */\n      0x00\n        /* \"lab 18-08-2023/Market.sol\":2280:2294  discountAmount */\n      dup2\n        /* \"lab 18-08-2023/Market.sol\":2273:2277  cash */\n      dup4\n        /* \"lab 18-08-2023/Market.sol\":2273:2294  cash - discountAmount */\n      tag_60\n      swap2\n      swap1\n      tag_46\n      jump\t// in\n    tag_60:\n        /* \"lab 18-08-2023/Market.sol\":2254:2294  uint finalAmount = cash - discountAmount */\n      swap1\n      pop\n        /* \"lab 18-08-2023/Market.sol\":2306:2342  Purchase(buyer, seller, finalAmount) */\n      0x22e3ae3a20c49dce14046235895c7a3ffc0a6a5f3577c370177ad45fa619485d\n        /* \"lab 18-08-2023/Market.sol\":2315:2320  buyer */\n      dup6\n        /* \"lab 18-08-2023/Market.sol\":2322:2328  seller */\n      dup6\n        /* \"lab 18-08-2023/Market.sol\":2330:2341  finalAmount */\n      dup4\n        /* \"lab 18-08-2023/Market.sol\":2306:2342  Purchase(buyer, seller, finalAmount) */\n      mload(0x40)\n      tag_61\n      swap4\n      swap3\n      swap2\n      swap1\n      tag_50\n      jump\t// in\n    tag_61:\n      mload(0x40)\n      dup1\n      swap2\n      sub\n      swap1\n      log1\n        /* \"lab 18-08-2023/Market.sol\":2118:2348  {... */\n      pop\n      pop\n        /* \"lab 18-08-2023/Market.sol\":2039:2348  function Buy(address buyer , address seller  , uint cash ) public override     {... */\n      pop\n      pop\n      pop\n      jump\t// out\n        /* \"lab 18-08-2023/Market.sol\":96:136  mapping(address => uint) public  Address */\n    tag_28:\n      mstore(0x20, 0x00)\n      dup1\n      0x00\n      mstore\n      keccak256(0x00, 0x40)\n      0x00\n      swap2\n      pop\n      swap1\n      pop\n      sload\n      dup2\n      jump\t// out\n        /* \"#utility.yul\":7:84   */\n    tag_62:\n        /* \"#utility.yul\":44:51   */\n      0x00\n        /* \"#utility.yul\":73:78   */\n      dup2\n        /* \"#utility.yul\":62:78   */\n      swap1\n      pop\n        /* \"#utility.yul\":7:84   */\n      swap2\n      swap1\n      pop\n      jump\t// out\n        /* \"#utility.yul\":90:208   */\n    tag_63:\n        /* \"#utility.yul\":177:201   */\n      tag_94\n        /* \"#utility.yul\":195:200   */\n      dup2\n        /* \"#utility.yul\":177:201   */\n      tag_62\n      jump\t// in\n    tag_94:\n        /* \"#utility.yul\":172:175   */\n      dup3\n        /* \"#utility.yul\":165:202   */\n      mstore\n        /* \"#utility.yul\":90:208   */\n      pop\n      pop\n      jump\t// out\n        /* \"#utility.yul\":214:436   */\n    tag_11:\n        /* \"#utility.yul\":307:311   */\n      0x00\n        /* \"#utility.yul\":345:347   */\n      0x20\n        /* \"#utility.yul\":334:343   */\n      dup3\n        /* \"#utility.yul\":330:348   */\n      add\n        /* \"#utility.yul\":322:348   */\n      swap1\n      pop\n        /* \"#utility.yul\":358:429   */\n      tag_96\n        /* \"#utility.yul\":426:427   */\n      0x00\n        /* \"#utility.yul\":415:424   */\n      dup4\n        /* \"#utility.yul\":411:428   */\n      add\n        /* \"#utility.yul\":402:408   */\n      dup5\n        /* \"#utility.yul\":358:429   */\n      tag_63\n      jump\t// in\n    tag_96:\n        /* \"#utility.yul\":214:436   */\n      swap3\n      swap2\n      pop\n      pop\n      jump\t// out\n        /* \"#utility.yul\":523:640   */\n    tag_65:\n        /* \"#utility.yul\":632:633   */\n      0x00\n        /* \"#utility.yul\":629:630   */\n      dup1\n        /* \"#utility.yul\":622:634   */\n      revert\n        /* \"#utility.yul\":769:895   */\n    tag_67:\n        /* \"#utility.yul\":806:813   */\n      0x00\n        /* \"#utility.yul\":846:888   */\n      0xffffffffffffffffffffffffffffffffffffffff\n        /* \"#utility.yul\":839:844   */\n      dup3\n        /* \"#utility.yul\":835:889   */\n      and\n        /* \"#utility.yul\":824:889   */\n      swap1\n      pop\n        /* \"#utility.yul\":769:895   */\n      swap2\n      swap1\n      pop\n      jump\t// out\n        /* \"#utility.yul\":901:997   */\n    tag_68:\n        /* \"#utility.yul\":938:945   */\n      0x00\n        /* \"#utility.yul\":967:991   */\n      tag_102\n        /* \"#utility.yul\":985:990   */\n      dup3\n        /* \"#utility.yul\":967:991   */\n      tag_67\n      jump\t// in\n    tag_102:\n        /* \"#utility.yul\":956:991   */\n      swap1\n      pop\n        /* \"#utility.yul\":901:997   */\n      swap2\n      swap1\n      pop\n      jump\t// out\n        /* \"#utility.yul\":1003:1125   */\n    tag_69:\n        /* \"#utility.yul\":1076:1100   */\n      tag_104\n        /* \"#utility.yul\":1094:1099   */\n      dup2\n        /* \"#utility.yul\":1076:1100   */\n      tag_68\n      jump\t// in\n    tag_104:\n        /* \"#utility.yul\":1069:1074   */\n      dup2\n        /* \"#utility.yul\":1066:1101   */\n      eq\n        /* \"#utility.yul\":1056:1119   */\n      tag_105\n      jumpi\n        /* \"#utility.yul\":1115:1116   */\n      0x00\n        /* \"#utility.yul\":1112:1113   */\n      dup1\n        /* \"#utility.yul\":1105:1117   */\n      revert\n        /* \"#utility.yul\":1056:1119   */\n    tag_105:\n        /* \"#utility.yul\":1003:1125   */\n      pop\n      jump\t// out\n        /* \"#utility.yul\":1131:1270   */\n    tag_70:\n        /* \"#utility.yul\":1177:1182   */\n      0x00\n        /* \"#utility.yul\":1215:1221   */\n      dup2\n        /* \"#utility.yul\":1202:1222   */\n      calldataload\n        /* \"#utility.yul\":1193:1222   */\n      swap1\n      pop\n        /* \"#utility.yul\":1231:1264   */\n      tag_107\n        /* \"#utility.yul\":1258:1263   */\n      dup2\n        /* \"#utility.yul\":1231:1264   */\n      tag_69\n      jump\t// in\n    tag_107:\n        /* \"#utility.yul\":1131:1270   */\n      swap3\n      swap2\n      pop\n      pop\n      jump\t// out\n        /* \"#utility.yul\":1276:1398   */\n    tag_71:\n        /* \"#utility.yul\":1349:1373   */\n      tag_109\n        /* \"#utility.yul\":1367:1372   */\n      dup2\n        /* \"#utility.yul\":1349:1373   */\n      tag_62\n      jump\t// in\n    tag_109:\n        /* \"#utility.yul\":1342:1347   */\n      dup2\n        /* \"#utility.yul\":1339:1374   */\n      eq\n        /* \"#utility.yul\":1329:1392   */\n      tag_110\n      jumpi\n        /* \"#utility.yul\":1388:1389   */\n      0x00\n        /* \"#utility.yul\":1385:1386   */\n      dup1\n        /* \"#utility.yul\":1378:1390   */\n      revert\n        /* \"#utility.yul\":1329:1392   */\n    tag_110:\n        /* \"#utility.yul\":1276:1398   */\n      pop\n      jump\t// out\n        /* \"#utility.yul\":1404:1543   */\n    tag_72:\n        /* \"#utility.yul\":1450:1455   */\n      0x00\n        /* \"#utility.yul\":1488:1494   */\n      dup2\n        /* \"#utility.yul\":1475:1495   */\n      calldataload\n        /* \"#utility.yul\":1466:1495   */\n      swap1\n      pop\n        /* \"#utility.yul\":1504:1537   */\n      tag_112\n        /* \"#utility.yul\":1531:1536   */\n      dup2\n        /* \"#utility.yul\":1504:1537   */\n      tag_71\n      jump\t// in\n    tag_112:\n        /* \"#utility.yul\":1404:1543   */\n      swap3\n      swap2\n      pop\n      pop\n      jump\t// out\n        /* \"#utility.yul\":1549:2023   */\n    tag_14:\n        /* \"#utility.yul\":1617:1623   */\n      0x00\n        /* \"#utility.yul\":1625:1631   */\n      dup1\n        /* \"#utility.yul\":1674:1676   */\n      0x40\n        /* \"#utility.yul\":1662:1671   */\n      dup4\n        /* \"#utility.yul\":1653:1660   */\n      dup6\n        /* \"#utility.yul\":1649:1672   */\n      sub\n        /* \"#utility.yul\":1645:1677   */\n      slt\n        /* \"#utility.yul\":1642:1761   */\n      iszero\n      tag_114\n      jumpi\n        /* \"#utility.yul\":1680:1759   */\n      tag_115\n      tag_65\n      jump\t// in\n    tag_115:\n        /* \"#utility.yul\":1642:1761   */\n    tag_114:\n        /* \"#utility.yul\":1800:1801   */\n      0x00\n        /* \"#utility.yul\":1825:1878   */\n      tag_116\n        /* \"#utility.yul\":1870:1877   */\n      dup6\n        /* \"#utility.yul\":1861:1867   */\n      dup3\n        /* \"#utility.yul\":1850:1859   */\n      dup7\n        /* \"#utility.yul\":1846:1868   */\n      add\n        /* \"#utility.yul\":1825:1878   */\n      tag_70\n      jump\t// in\n    tag_116:\n        /* \"#utility.yul\":1815:1878   */\n      swap3\n      pop\n        /* \"#utility.yul\":1771:1888   */\n      pop\n        /* \"#utility.yul\":1927:1929   */\n      0x20\n        /* \"#utility.yul\":1953:2006   */\n      tag_117\n        /* \"#utility.yul\":1998:2005   */\n      dup6\n        /* \"#utility.yul\":1989:1995   */\n      dup3\n        /* \"#utility.yul\":1978:1987   */\n      dup7\n        /* \"#utility.yul\":1974:1996   */\n      add\n        /* \"#utility.yul\":1953:2006   */\n      tag_72\n      jump\t// in\n    tag_117:\n        /* \"#utility.yul\":1943:2006   */\n      swap2\n      pop\n        /* \"#utility.yul\":1898:2016   */\n      pop\n        /* \"#utility.yul\":1549:2023   */\n      swap3\n      pop\n      swap3\n      swap1\n      pop\n      jump\t// out\n        /* \"#utility.yul\":2029:2648   */\n    tag_18:\n        /* \"#utility.yul\":2106:2112   */\n      0x00\n        /* \"#utility.yul\":2114:2120   */\n      dup1\n        /* \"#utility.yul\":2122:2128   */\n      0x00\n        /* \"#utility.yul\":2171:2173   */\n      0x60\n        /* \"#utility.yul\":2159:2168   */\n      dup5\n        /* \"#utility.yul\":2150:2157   */\n      dup7\n        /* \"#utility.yul\":2146:2169   */\n      sub\n        /* \"#utility.yul\":2142:2174   */\n      slt\n        /* \"#utility.yul\":2139:2258   */\n      iszero\n      tag_119\n      jumpi\n        /* \"#utility.yul\":2177:2256   */\n      tag_120\n      tag_65\n      jump\t// in\n    tag_120:\n        /* \"#utility.yul\":2139:2258   */\n    tag_119:\n        /* \"#utility.yul\":2297:2298   */\n      0x00\n        /* \"#utility.yul\":2322:2375   */\n      tag_121\n        /* \"#utility.yul\":2367:2374   */\n      dup7\n        /* \"#utility.yul\":2358:2364   */\n      dup3\n        /* \"#utility.yul\":2347:2356   */\n      dup8\n        /* \"#utility.yul\":2343:2365   */\n      add\n        /* \"#utility.yul\":2322:2375   */\n      tag_70\n      jump\t// in\n    tag_121:\n        /* \"#utility.yul\":2312:2375   */\n      swap4\n      pop\n        /* \"#utility.yul\":2268:2385   */\n      pop\n        /* \"#utility.yul\":2424:2426   */\n      0x20\n        /* \"#utility.yul\":2450:2503   */\n      tag_122\n        /* \"#utility.yul\":2495:2502   */\n      dup7\n        /* \"#utility.yul\":2486:2492   */\n      dup3\n        /* \"#utility.yul\":2475:2484   */\n      dup8\n        /* \"#utility.yul\":2471:2493   */\n      add\n        /* \"#utility.yul\":2450:2503   */\n      tag_70\n      jump\t// in\n    tag_122:\n        /* \"#utility.yul\":2440:2503   */\n      swap3\n      pop\n        /* \"#utility.yul\":2395:2513   */\n      pop\n        /* \"#utility.yul\":2552:2554   */\n      0x40\n        /* \"#utility.yul\":2578:2631   */\n      tag_123\n        /* \"#utility.yul\":2623:2630   */\n      dup7\n        /* \"#utility.yul\":2614:2620   */\n      dup3\n        /* \"#utility.yul\":2603:2612   */\n      dup8\n        /* \"#utility.yul\":2599:2621   */\n      add\n        /* \"#utility.yul\":2578:2631   */\n      tag_72\n      jump\t// in\n    tag_123:\n        /* \"#utility.yul\":2568:2631   */\n      swap2\n      pop\n        /* \"#utility.yul\":2523:2641   */\n      pop\n        /* \"#utility.yul\":2029:2648   */\n      swap3\n      pop\n      swap3\n      pop\n      swap3\n      jump\t// out\n        /* \"#utility.yul\":2654:2753   */\n    tag_73:\n        /* \"#utility.yul\":2706:2712   */\n      0x00\n        /* \"#utility.yul\":2740:2745   */\n      dup2\n        /* \"#utility.yul\":2734:2746   */\n      mload\n        /* \"#utility.yul\":2724:2746   */\n      swap1\n      pop\n        /* \"#utility.yul\":2654:2753   */\n      swap2\n      swap1\n      pop\n      jump\t// out\n        /* \"#utility.yul\":2759:2928   */\n    tag_74:\n        /* \"#utility.yul\":2843:2854   */\n      0x00\n        /* \"#utility.yul\":2877:2883   */\n      dup3\n        /* \"#utility.yul\":2872:2875   */\n      dup3\n        /* \"#utility.yul\":2865:2884   */\n      mstore\n        /* \"#utility.yul\":2917:2921   */\n      0x20\n        /* \"#utility.yul\":2912:2915   */\n      dup3\n        /* \"#utility.yul\":2908:2922   */\n      add\n        /* \"#utility.yul\":2893:2922   */\n      swap1\n      pop\n        /* \"#utility.yul\":2759:2928   */\n      swap3\n      swap2\n      pop\n      pop\n      jump\t// out\n        /* \"#utility.yul\":2934:3180   */\n    tag_75:\n        /* \"#utility.yul\":3015:3016   */\n      0x00\n        /* \"#utility.yul\":3025:3138   */\n    tag_127:\n        /* \"#utility.yul\":3039:3045   */\n      dup4\n        /* \"#utility.yul\":3036:3037   */\n      dup2\n        /* \"#utility.yul\":3033:3046   */\n      lt\n        /* \"#utility.yul\":3025:3138   */\n      iszero\n      tag_129\n      jumpi\n        /* \"#utility.yul\":3124:3125   */\n      dup1\n        /* \"#utility.yul\":3119:3122   */\n      dup3\n        /* \"#utility.yul\":3115:3126   */\n      add\n        /* \"#utility.yul\":3109:3127   */\n      mload\n        /* \"#utility.yul\":3105:3106   */\n      dup2\n        /* \"#utility.yul\":3100:3103   */\n      dup5\n        /* \"#utility.yul\":3096:3107   */\n      add\n        /* \"#utility.yul\":3089:3128   */\n      mstore\n        /* \"#utility.yul\":3061:3063   */\n      0x20\n        /* \"#utility.yul\":3058:3059   */\n      dup2\n        /* \"#utility.yul\":3054:3064   */\n      add\n        /* \"#utility.yul\":3049:3064   */\n      swap1\n      pop\n        /* \"#utility.yul\":3025:3138   */\n      jump(tag_127)\n    tag_129:\n        /* \"#utility.yul\":3172:3173   */\n      0x00\n        /* \"#utility.yul\":3163:3169   */\n      dup5\n        /* \"#utility.yul\":3158:3161   */\n      dup5\n        /* \"#utility.yul\":3154:3170   */\n      add\n        /* \"#utility.yul\":3147:3174   */\n      mstore\n        /* \"#utility.yul\":2996:3180   */\n      pop\n        /* \"#utility.yul\":2934:3180   */\n      pop\n      pop\n      pop\n      jump\t// out\n        /* \"#utility.yul\":3186:3288   */\n    tag_76:\n        /* \"#utility.yul\":3227:3233   */\n      0x00\n        /* \"#utility.yul\":3278:3280   */\n      0x1f\n        /* \"#utility.yul\":3274:3281   */\n      not\n        /* \"#utility.yul\":3269:3271   */\n      0x1f\n        /* \"#utility.yul\":3262:3267   */\n      dup4\n        /* \"#utility.yul\":3258:3272   */\n      add\n        /* \"#utility.yul\":3254:3282   */\n      and\n        /* \"#utility.yul\":3244:3282   */\n      swap1\n      pop\n        /* \"#utility.yul\":3186:3288   */\n      swap2\n      swap1\n      pop\n      jump\t// out\n        /* \"#utility.yul\":3294:3671   */\n    tag_77:\n        /* \"#utility.yul\":3382:3385   */\n      0x00\n        /* \"#utility.yul\":3410:3449   */\n      tag_132\n        /* \"#utility.yul\":3443:3448   */\n      dup3\n        /* \"#utility.yul\":3410:3449   */\n      tag_73\n      jump\t// in\n    tag_132:\n        /* \"#utility.yul\":3465:3536   */\n      tag_133\n        /* \"#utility.yul\":3529:3535   */\n      dup2\n        /* \"#utility.yul\":3524:3527   */\n      dup6\n        /* \"#utility.yul\":3465:3536   */\n      tag_74\n      jump\t// in\n    tag_133:\n        /* \"#utility.yul\":3458:3536   */\n      swap4\n      pop\n        /* \"#utility.yul\":3545:3610   */\n      tag_134\n        /* \"#utility.yul\":3603:3609   */\n      dup2\n        /* \"#utility.yul\":3598:3601   */\n      dup6\n        /* \"#utility.yul\":3591:3595   */\n      0x20\n        /* \"#utility.yul\":3584:3589   */\n      dup7\n        /* \"#utility.yul\":3580:3596   */\n      add\n        /* \"#utility.yul\":3545:3610   */\n      tag_75\n      jump\t// in\n    tag_134:\n        /* \"#utility.yul\":3635:3664   */\n      tag_135\n        /* \"#utility.yul\":3657:3663   */\n      dup2\n        /* \"#utility.yul\":3635:3664   */\n      tag_76\n      jump\t// in\n    tag_135:\n        /* \"#utility.yul\":3630:3633   */\n      dup5\n        /* \"#utility.yul\":3626:3665   */\n      add\n        /* \"#utility.yul\":3619:3665   */\n      swap2\n      pop\n        /* \"#utility.yul\":3386:3671   */\n      pop\n        /* \"#utility.yul\":3294:3671   */\n      swap3\n      swap2\n      pop\n      pop\n      jump\t// out\n        /* \"#utility.yul\":3677:3990   */\n    tag_21:\n        /* \"#utility.yul\":3790:3794   */\n      0x00\n        /* \"#utility.yul\":3828:3830   */\n      0x20\n        /* \"#utility.yul\":3817:3826   */\n      dup3\n        /* \"#utility.yul\":3813:3831   */\n      add\n        /* \"#utility.yul\":3805:3831   */\n      swap1\n      pop\n        /* \"#utility.yul\":3877:3886   */\n      dup2\n        /* \"#utility.yul\":3871:3875   */\n      dup2\n        /* \"#utility.yul\":3867:3887   */\n      sub\n        /* \"#utility.yul\":3863:3864   */\n      0x00\n        /* \"#utility.yul\":3852:3861   */\n      dup4\n        /* \"#utility.yul\":3848:3865   */\n      add\n        /* \"#utility.yul\":3841:3888   */\n      mstore\n        /* \"#utility.yul\":3905:3983   */\n      tag_137\n        /* \"#utility.yul\":3978:3982   */\n      dup2\n        /* \"#utility.yul\":3969:3975   */\n      dup5\n        /* \"#utility.yul\":3905:3983   */\n      tag_77\n      jump\t// in\n    tag_137:\n        /* \"#utility.yul\":3897:3983   */\n      swap1\n      pop\n        /* \"#utility.yul\":3677:3990   */\n      swap3\n      swap2\n      pop\n      pop\n      jump\t// out\n        /* \"#utility.yul\":3996:4325   */\n    tag_27:\n        /* \"#utility.yul\":4055:4061   */\n      0x00\n        /* \"#utility.yul\":4104:4106   */\n      0x20\n        /* \"#utility.yul\":4092:4101   */\n      dup3\n        /* \"#utility.yul\":4083:4090   */\n      dup5\n        /* \"#utility.yul\":4079:4102   */\n      sub\n        /* \"#utility.yul\":4075:4107   */\n      slt\n        /* \"#utility.yul\":4072:4191   */\n      iszero\n      tag_139\n      jumpi\n        /* \"#utility.yul\":4110:4189   */\n      tag_140\n      tag_65\n      jump\t// in\n    tag_140:\n        /* \"#utility.yul\":4072:4191   */\n    tag_139:\n        /* \"#utility.yul\":4230:4231   */\n      0x00\n        /* \"#utility.yul\":4255:4308   */\n      tag_141\n        /* \"#utility.yul\":4300:4307   */\n      dup5\n        /* \"#utility.yul\":4291:4297   */\n      dup3\n        /* \"#utility.yul\":4280:4289   */\n      dup6\n        /* \"#utility.yul\":4276:4298   */\n      add\n        /* \"#utility.yul\":4255:4308   */\n      tag_70\n      jump\t// in\n    tag_141:\n        /* \"#utility.yul\":4245:4308   */\n      swap2\n      pop\n        /* \"#utility.yul\":4201:4318   */\n      pop\n        /* \"#utility.yul\":3996:4325   */\n      swap3\n      swap2\n      pop\n      pop\n      jump\t// out\n        /* \"#utility.yul\":4331:4501   */\n    tag_78:\n        /* \"#utility.yul\":4471:4493   */\n      0x4572726f72206e6f20616e792062616c616e6365000000000000000000000000\n        /* \"#utility.yul\":4467:4468   */\n      0x00\n        /* \"#utility.yul\":4459:4465   */\n      dup3\n        /* \"#utility.yul\":4455:4469   */\n      add\n        /* \"#utility.yul\":4448:4494   */\n      mstore\n        /* \"#utility.yul\":4331:4501   */\n      pop\n      jump\t// out\n        /* \"#utility.yul\":4507:4873   */\n    tag_79:\n        /* \"#utility.yul\":4649:4652   */\n      0x00\n        /* \"#utility.yul\":4670:4737   */\n      tag_144\n        /* \"#utility.yul\":4734:4736   */\n      0x14\n        /* \"#utility.yul\":4729:4732   */\n      dup4\n        /* \"#utility.yul\":4670:4737   */\n      tag_74\n      jump\t// in\n    tag_144:\n        /* \"#utility.yul\":4663:4737   */\n      swap2\n      pop\n        /* \"#utility.yul\":4746:4839   */\n      tag_145\n        /* \"#utility.yul\":4835:4838   */\n      dup3\n        /* \"#utility.yul\":4746:4839   */\n      tag_78\n      jump\t// in\n    tag_145:\n        /* \"#utility.yul\":4864:4866   */\n      0x20\n        /* \"#utility.yul\":4859:4862   */\n      dup3\n        /* \"#utility.yul\":4855:4867   */\n      add\n        /* \"#utility.yul\":4848:4867   */\n      swap1\n      pop\n        /* \"#utility.yul\":4507:4873   */\n      swap2\n      swap1\n      pop\n      jump\t// out\n        /* \"#utility.yul\":4879:5298   */\n    tag_33:\n        /* \"#utility.yul\":5045:5049   */\n      0x00\n        /* \"#utility.yul\":5083:5085   */\n      0x20\n        /* \"#utility.yul\":5072:5081   */\n      dup3\n        /* \"#utility.yul\":5068:5086   */\n      add\n        /* \"#utility.yul\":5060:5086   */\n      swap1\n      pop\n        /* \"#utility.yul\":5132:5141   */\n      dup2\n        /* \"#utility.yul\":5126:5130   */\n      dup2\n        /* \"#utility.yul\":5122:5142   */\n      sub\n        /* \"#utility.yul\":5118:5119   */\n      0x00\n        /* \"#utility.yul\":5107:5116   */\n      dup4\n        /* \"#utility.yul\":5103:5120   */\n      add\n        /* \"#utility.yul\":5096:5143   */\n      mstore\n        /* \"#utility.yul\":5160:5291   */\n      tag_147\n        /* \"#utility.yul\":5286:5290   */\n      dup2\n        /* \"#utility.yul\":5160:5291   */\n      tag_79\n      jump\t// in\n    tag_147:\n        /* \"#utility.yul\":5152:5291   */\n      swap1\n      pop\n        /* \"#utility.yul\":4879:5298   */\n      swap2\n      swap1\n      pop\n      jump\t// out\n        /* \"#utility.yul\":5304:5477   */\n    tag_80:\n        /* \"#utility.yul\":5444:5469   */\n      0x6572726f72206e6f2075736572206f7220627579657220000000000000000000\n        /* \"#utility.yul\":5440:5441   */\n      0x00\n        /* \"#utility.yul\":5432:5438   */\n      dup3\n        /* \"#utility.yul\":5428:5442   */\n      add\n        /* \"#utility.yul\":5421:5470   */\n      mstore\n        /* \"#utility.yul\":5304:5477   */\n      pop\n      jump\t// out\n        /* \"#utility.yul\":5483:5849   */\n    tag_81:\n        /* \"#utility.yul\":5625:5628   */\n      0x00\n        /* \"#utility.yul\":5646:5713   */\n      tag_150\n        /* \"#utility.yul\":5710:5712   */\n      0x17\n        /* \"#utility.yul\":5705:5708   */\n      dup4\n        /* \"#utility.yul\":5646:5713   */\n      tag_74\n      jump\t// in\n    tag_150:\n        /* \"#utility.yul\":5639:5713   */\n      swap2\n      pop\n        /* \"#utility.yul\":5722:5815   */\n      tag_151\n        /* \"#utility.yul\":5811:5814   */\n      dup3\n        /* \"#utility.yul\":5722:5815   */\n      tag_80\n      jump\t// in\n    tag_151:\n        /* \"#utility.yul\":5840:5842   */\n      0x20\n        /* \"#utility.yul\":5835:5838   */\n      dup3\n        /* \"#utility.yul\":5831:5843   */\n      add\n        /* \"#utility.yul\":5824:5843   */\n      swap1\n      pop\n        /* \"#utility.yul\":5483:5849   */\n      swap2\n      swap1\n      pop\n      jump\t// out\n        /* \"#utility.yul\":5855:6274   */\n    tag_38:\n        /* \"#utility.yul\":6021:6025   */\n      0x00\n        /* \"#utility.yul\":6059:6061   */\n      0x20\n        /* \"#utility.yul\":6048:6057   */\n      dup3\n        /* \"#utility.yul\":6044:6062   */\n      add\n        /* \"#utility.yul\":6036:6062   */\n      swap1\n      pop\n        /* \"#utility.yul\":6108:6117   */\n      dup2\n        /* \"#utility.yul\":6102:6106   */\n      dup2\n        /* \"#utility.yul\":6098:6118   */\n      sub\n        /* \"#utility.yul\":6094:6095   */\n      0x00\n        /* \"#utility.yul\":6083:6092   */\n      dup4\n        /* \"#utility.yul\":6079:6096   */\n      add\n        /* \"#utility.yul\":6072:6119   */\n      mstore\n        /* \"#utility.yul\":6136:6267   */\n      tag_153\n        /* \"#utility.yul\":6262:6266   */\n      dup2\n        /* \"#utility.yul\":6136:6267   */\n      tag_81\n      jump\t// in\n    tag_153:\n        /* \"#utility.yul\":6128:6267   */\n      swap1\n      pop\n        /* \"#utility.yul\":5855:6274   */\n      swap2\n      swap1\n      pop\n      jump\t// out\n        /* \"#utility.yul\":6280:6447   */\n    tag_82:\n        /* \"#utility.yul\":6420:6439   */\n      0x4e6f206361736820696e70757474656420000000000000000000000000000000\n        /* \"#utility.yul\":6416:6417   */\n      0x00\n        /* \"#utility.yul\":6408:6414   */\n      dup3\n        /* \"#utility.yul\":6404:6418   */\n      add\n        /* \"#utility.yul\":6397:6440   */\n      mstore\n        /* \"#utility.yul\":6280:6447   */\n      pop\n      jump\t// out\n        /* \"#utility.yul\":6453:6819   */\n    tag_83:\n        /* \"#utility.yul\":6595:6598   */\n      0x00\n        /* \"#utility.yul\":6616:6683   */\n      tag_156\n        /* \"#utility.yul\":6680:6682   */\n      0x11\n        /* \"#utility.yul\":6675:6678   */\n      dup4\n        /* \"#utility.yul\":6616:6683   */\n      tag_74\n      jump\t// in\n    tag_156:\n        /* \"#utility.yul\":6609:6683   */\n      swap2\n      pop\n        /* \"#utility.yul\":6692:6785   */\n      tag_157\n        /* \"#utility.yul\":6781:6784   */\n      dup3\n        /* \"#utility.yul\":6692:6785   */\n      tag_82\n      jump\t// in\n    tag_157:\n        /* \"#utility.yul\":6810:6812   */\n      0x20\n        /* \"#utility.yul\":6805:6808   */\n      dup3\n        /* \"#utility.yul\":6801:6813   */\n      add\n        /* \"#utility.yul\":6794:6813   */\n      swap1\n      pop\n        /* \"#utility.yul\":6453:6819   */\n      swap2\n      swap1\n      pop\n      jump\t// out\n        /* \"#utility.yul\":6825:7244   */\n    tag_41:\n        /* \"#utility.yul\":6991:6995   */\n      0x00\n        /* \"#utility.yul\":7029:7031   */\n      0x20\n        /* \"#utility.yul\":7018:7027   */\n      dup3\n        /* \"#utility.yul\":7014:7032   */\n      add\n        /* \"#utility.yul\":7006:7032   */\n      swap1\n      pop\n        /* \"#utility.yul\":7078:7087   */\n      dup2\n        /* \"#utility.yul\":7072:7076   */\n      dup2\n        /* \"#utility.yul\":7068:7088   */\n      sub\n        /* \"#utility.yul\":7064:7065   */\n      0x00\n        /* \"#utility.yul\":7053:7062   */\n      dup4\n        /* \"#utility.yul\":7049:7066   */\n      add\n        /* \"#utility.yul\":7042:7089   */\n      mstore\n        /* \"#utility.yul\":7106:7237   */\n      tag_159\n        /* \"#utility.yul\":7232:7236   */\n      dup2\n        /* \"#utility.yul\":7106:7237   */\n      tag_83\n      jump\t// in\n    tag_159:\n        /* \"#utility.yul\":7098:7237   */\n      swap1\n      pop\n        /* \"#utility.yul\":6825:7244   */\n      swap2\n      swap1\n      pop\n      jump\t// out\n        /* \"#utility.yul\":7250:7418   */\n    tag_84:\n        /* \"#utility.yul\":7390:7410   */\n      0x796f752063616e20627579207468696e67730000000000000000000000000000\n        /* \"#utility.yul\":7386:7387   */\n      0x00\n        /* \"#utility.yul\":7378:7384   */\n      dup3\n        /* \"#utility.yul\":7374:7388   */\n      add\n        /* \"#utility.yul\":7367:7411   */\n      mstore\n        /* \"#utility.yul\":7250:7418   */\n      pop\n      jump\t// out\n        /* \"#utility.yul\":7424:7790   */\n    tag_85:\n        /* \"#utility.yul\":7566:7569   */\n      0x00\n        /* \"#utility.yul\":7587:7654   */\n      tag_162\n        /* \"#utility.yul\":7651:7653   */\n      0x12\n        /* \"#utility.yul\":7646:7649   */\n      dup4\n        /* \"#utility.yul\":7587:7654   */\n      tag_74\n      jump\t// in\n    tag_162:\n        /* \"#utility.yul\":7580:7654   */\n      swap2\n      pop\n        /* \"#utility.yul\":7663:7756   */\n      tag_163\n        /* \"#utility.yul\":7752:7755   */\n      dup3\n        /* \"#utility.yul\":7663:7756   */\n      tag_84\n      jump\t// in\n    tag_163:\n        /* \"#utility.yul\":7781:7783   */\n      0x20\n        /* \"#utility.yul\":7776:7779   */\n      dup3\n        /* \"#utility.yul\":7772:7784   */\n      add\n        /* \"#utility.yul\":7765:7784   */\n      swap1\n      pop\n        /* \"#utility.yul\":7424:7790   */\n      swap2\n      swap1\n      pop\n      jump\t// out\n        /* \"#utility.yul\":7796:8215   */\n    tag_44:\n        /* \"#utility.yul\":7962:7966   */\n      0x00\n        /* \"#utility.yul\":8000:8002   */\n      0x20\n        /* \"#utility.yul\":7989:7998   */\n      dup3\n        /* \"#utility.yul\":7985:8003   */\n      add\n        /* \"#utility.yul\":7977:8003   */\n      swap1\n      pop\n        /* \"#utility.yul\":8049:8058   */\n      dup2\n        /* \"#utility.yul\":8043:8047   */\n      dup2\n        /* \"#utility.yul\":8039:8059   */\n      sub\n        /* \"#utility.yul\":8035:8036   */\n      0x00\n        /* \"#utility.yul\":8024:8033   */\n      dup4\n        /* \"#utility.yul\":8020:8037   */\n      add\n        /* \"#utility.yul\":8013:8060   */\n      mstore\n        /* \"#utility.yul\":8077:8208   */\n      tag_165\n        /* \"#utility.yul\":8203:8207   */\n      dup2\n        /* \"#utility.yul\":8077:8208   */\n      tag_85\n      jump\t// in\n    tag_165:\n        /* \"#utility.yul\":8069:8208   */\n      swap1\n      pop\n        /* \"#utility.yul\":7796:8215   */\n      swap2\n      swap1\n      pop\n      jump\t// out\n        /* \"#utility.yul\":8221:8401   */\n    tag_86:\n        /* \"#utility.yul\":8269:8346   */\n      0x4e487b7100000000000000000000000000000000000000000000000000000000\n        /* \"#utility.yul\":8266:8267   */\n      0x00\n        /* \"#utility.yul\":8259:8347   */\n      mstore\n        /* \"#utility.yul\":8366:8370   */\n      0x11\n        /* \"#utility.yul\":8363:8364   */\n      0x04\n        /* \"#utility.yul\":8356:8371   */\n      mstore\n        /* \"#utility.yul\":8390:8394   */\n      0x24\n        /* \"#utility.yul\":8387:8388   */\n      0x00\n        /* \"#utility.yul\":8380:8395   */\n      revert\n        /* \"#utility.yul\":8407:8601   */\n    tag_46:\n        /* \"#utility.yul\":8447:8451   */\n      0x00\n        /* \"#utility.yul\":8467:8487   */\n      tag_168\n        /* \"#utility.yul\":8485:8486   */\n      dup3\n        /* \"#utility.yul\":8467:8487   */\n      tag_62\n      jump\t// in\n    tag_168:\n        /* \"#utility.yul\":8462:8487   */\n      swap2\n      pop\n        /* \"#utility.yul\":8501:8521   */\n      tag_169\n        /* \"#utility.yul\":8519:8520   */\n      dup4\n        /* \"#utility.yul\":8501:8521   */\n      tag_62\n      jump\t// in\n    tag_169:\n        /* \"#utility.yul\":8496:8521   */\n      swap3\n      pop\n        /* \"#utility.yul\":8545:8546   */\n      dup3\n        /* \"#utility.yul\":8542:8543   */\n      dup3\n        /* \"#utility.yul\":8538:8547   */\n      sub\n        /* \"#utility.yul\":8530:8547   */\n      swap1\n      pop\n        /* \"#utility.yul\":8569:8570   */\n      dup2\n        /* \"#utility.yul\":8563:8567   */\n      dup2\n        /* \"#utility.yul\":8560:8571   */\n      gt\n        /* \"#utility.yul\":8557:8594   */\n      iszero\n      tag_170\n      jumpi\n        /* \"#utility.yul\":8574:8592   */\n      tag_171\n      tag_86\n      jump\t// in\n    tag_171:\n        /* \"#utility.yul\":8557:8594   */\n    tag_170:\n        /* \"#utility.yul\":8407:8601   */\n      swap3\n      swap2\n      pop\n      pop\n      jump\t// out\n        /* \"#utility.yul\":8607:8798   */\n    tag_48:\n        /* \"#utility.yul\":8647:8650   */\n      0x00\n        /* \"#utility.yul\":8666:8686   */\n      tag_173\n        /* \"#utility.yul\":8684:8685   */\n      dup3\n        /* \"#utility.yul\":8666:8686   */\n      tag_62\n      jump\t// in\n    tag_173:\n        /* \"#utility.yul\":8661:8686   */\n      swap2\n      pop\n        /* \"#utility.yul\":8700:8720   */\n      tag_174\n        /* \"#utility.yul\":8718:8719   */\n      dup4\n        /* \"#utility.yul\":8700:8720   */\n      tag_62\n      jump\t// in\n    tag_174:\n        /* \"#utility.yul\":8695:8720   */\n      swap3\n      pop\n        /* \"#utility.yul\":8743:8744   */\n      dup3\n        /* \"#utility.yul\":8740:8741   */\n      dup3\n        /* \"#utility.yul\":8736:8745   */\n      add\n        /* \"#utility.yul\":8729:8745   */\n      swap1\n      pop\n        /* \"#utility.yul\":8764:8767   */\n      dup1\n        /* \"#utility.yul\":8761:8762   */\n      dup3\n        /* \"#utility.yul\":8758:8768   */\n      gt\n        /* \"#utility.yul\":8755:8791   */\n      iszero\n      tag_175\n      jumpi\n        /* \"#utility.yul\":8771:8789   */\n      tag_176\n      tag_86\n      jump\t// in\n    tag_176:\n        /* \"#utility.yul\":8755:8791   */\n    tag_175:\n        /* \"#utility.yul\":8607:8798   */\n      swap3\n      swap2\n      pop\n      pop\n      jump\t// out\n        /* \"#utility.yul\":8804:8922   */\n    tag_87:\n        /* \"#utility.yul\":8891:8915   */\n      tag_178\n        /* \"#utility.yul\":8909:8914   */\n      dup2\n        /* \"#utility.yul\":8891:8915   */\n      tag_68\n      jump\t// in\n    tag_178:\n        /* \"#utility.yul\":8886:8889   */\n      dup3\n        /* \"#utility.yul\":8879:8916   */\n      mstore\n        /* \"#utility.yul\":8804:8922   */\n      pop\n      pop\n      jump\t// out\n        /* \"#utility.yul\":8928:9370   */\n    tag_50:\n        /* \"#utility.yul\":9077:9081   */\n      0x00\n        /* \"#utility.yul\":9115:9117   */\n      0x60\n        /* \"#utility.yul\":9104:9113   */\n      dup3\n        /* \"#utility.yul\":9100:9118   */\n      add\n        /* \"#utility.yul\":9092:9118   */\n      swap1\n      pop\n        /* \"#utility.yul\":9128:9199   */\n      tag_180\n        /* \"#utility.yul\":9196:9197   */\n      0x00\n        /* \"#utility.yul\":9185:9194   */\n      dup4\n        /* \"#utility.yul\":9181:9198   */\n      add\n        /* \"#utility.yul\":9172:9178   */\n      dup7\n        /* \"#utility.yul\":9128:9199   */\n      tag_87\n      jump\t// in\n    tag_180:\n        /* \"#utility.yul\":9209:9281   */\n      tag_181\n        /* \"#utility.yul\":9277:9279   */\n      0x20\n        /* \"#utility.yul\":9266:9275   */\n      dup4\n        /* \"#utility.yul\":9262:9280   */\n      add\n        /* \"#utility.yul\":9253:9259   */\n      dup6\n        /* \"#utility.yul\":9209:9281   */\n      tag_87\n      jump\t// in\n    tag_181:\n        /* \"#utility.yul\":9291:9363   */\n      tag_182\n        /* \"#utility.yul\":9359:9361   */\n      0x40\n        /* \"#utility.yul\":9348:9357   */\n      dup4\n        /* \"#utility.yul\":9344:9362   */\n      add\n        /* \"#utility.yul\":9335:9341   */\n      dup5\n        /* \"#utility.yul\":9291:9363   */\n      tag_63\n      jump\t// in\n    tag_182:\n        /* \"#utility.yul\":8928:9370   */\n      swap5\n      swap4\n      pop\n      pop\n      pop\n      pop\n      jump\t// out\n        /* \"#utility.yul\":9376:9548   */\n    tag_88:\n        /* \"#utility.yul\":9516:9540   */\n      0x796f7520617265206e6f74207265676973746572656400000000000000000000\n        /* \"#utility.yul\":9512:9513   */\n      0x00\n        /* \"#utility.yul\":9504:9510   */\n      dup3\n        /* \"#utility.yul\":9500:9514   */\n      add\n        /* \"#utility.yul\":9493:9541   */\n      mstore\n        /* \"#utility.yul\":9376:9548   */\n      pop\n      jump\t// out\n        /* \"#utility.yul\":9554:9920   */\n    tag_89:\n        /* \"#utility.yul\":9696:9699   */\n      0x00\n        /* \"#utility.yul\":9717:9784   */\n      tag_185\n        /* \"#utility.yul\":9781:9783   */\n      0x16\n        /* \"#utility.yul\":9776:9779   */\n      dup4\n        /* \"#utility.yul\":9717:9784   */\n      tag_74\n      jump\t// in\n    tag_185:\n        /* \"#utility.yul\":9710:9784   */\n      swap2\n      pop\n        /* \"#utility.yul\":9793:9886   */\n      tag_186\n        /* \"#utility.yul\":9882:9885   */\n      dup3\n        /* \"#utility.yul\":9793:9886   */\n      tag_88\n      jump\t// in\n    tag_186:\n        /* \"#utility.yul\":9911:9913   */\n      0x20\n        /* \"#utility.yul\":9906:9909   */\n      dup3\n        /* \"#utility.yul\":9902:9914   */\n      add\n        /* \"#utility.yul\":9895:9914   */\n      swap1\n      pop\n        /* \"#utility.yul\":9554:9920   */\n      swap2\n      swap1\n      pop\n      jump\t// out\n        /* \"#utility.yul\":9926:10345   */\n    tag_55:\n        /* \"#utility.yul\":10092:10096   */\n      0x00\n        /* \"#utility.yul\":10130:10132   */\n      0x20\n        /* \"#utility.yul\":10119:10128   */\n      dup3\n        /* \"#utility.yul\":10115:10133   */\n      add\n        /* \"#utility.yul\":10107:10133   */\n      swap1\n      pop\n        /* \"#utility.yul\":10179:10188   */\n      dup2\n        /* \"#utility.yul\":10173:10177   */\n      dup2\n        /* \"#utility.yul\":10169:10189   */\n      sub\n        /* \"#utility.yul\":10165:10166   */\n      0x00\n        /* \"#utility.yul\":10154:10163   */\n      dup4\n        /* \"#utility.yul\":10150:10167   */\n      add\n        /* \"#utility.yul\":10143:10190   */\n      mstore\n        /* \"#utility.yul\":10207:10338   */\n      tag_188\n        /* \"#utility.yul\":10333:10337   */\n      dup2\n        /* \"#utility.yul\":10207:10338   */\n      tag_89\n      jump\t// in\n    tag_188:\n        /* \"#utility.yul\":10199:10338   */\n      swap1\n      pop\n        /* \"#utility.yul\":9926:10345   */\n      swap2\n      swap1\n      pop\n      jump\t// out\n        /* \"#utility.yul\":10351:10761   */\n    tag_57:\n        /* \"#utility.yul\":10391:10398   */\n      0x00\n        /* \"#utility.yul\":10414:10434   */\n      tag_190\n        /* \"#utility.yul\":10432:10433   */\n      dup3\n        /* \"#utility.yul\":10414:10434   */\n      tag_62\n      jump\t// in\n    tag_190:\n        /* \"#utility.yul\":10409:10434   */\n      swap2\n      pop\n        /* \"#utility.yul\":10448:10468   */\n      tag_191\n        /* \"#utility.yul\":10466:10467   */\n      dup4\n        /* \"#utility.yul\":10448:10468   */\n      tag_62\n      jump\t// in\n    tag_191:\n        /* \"#utility.yul\":10443:10468   */\n      swap3\n      pop\n        /* \"#utility.yul\":10503:10504   */\n      dup3\n        /* \"#utility.yul\":10500:10501   */\n      dup3\n        /* \"#utility.yul\":10496:10505   */\n      mul\n        /* \"#utility.yul\":10525:10555   */\n      tag_192\n        /* \"#utility.yul\":10543:10554   */\n      dup2\n        /* \"#utility.yul\":10525:10555   */\n      tag_62\n      jump\t// in\n    tag_192:\n        /* \"#utility.yul\":10514:10555   */\n      swap2\n      pop\n        /* \"#utility.yul\":10704:10705   */\n      dup3\n        /* \"#utility.yul\":10695:10702   */\n      dup3\n        /* \"#utility.yul\":10691:10706   */\n      div\n        /* \"#utility.yul\":10688:10689   */\n      dup5\n        /* \"#utility.yul\":10685:10707   */\n      eq\n        /* \"#utility.yul\":10665:10666   */\n      dup4\n        /* \"#utility.yul\":10658:10667   */\n      iszero\n        /* \"#utility.yul\":10638:10721   */\n      or\n        /* \"#utility.yul\":10615:10754   */\n      tag_193\n      jumpi\n        /* \"#utility.yul\":10734:10752   */\n      tag_194\n      tag_86\n      jump\t// in\n    tag_194:\n        /* \"#utility.yul\":10615:10754   */\n    tag_193:\n        /* \"#utility.yul\":10399:10761   */\n      pop\n        /* \"#utility.yul\":10351:10761   */\n      swap3\n      swap2\n      pop\n      pop\n      jump\t// out\n        /* \"#utility.yul\":10767:10947   */\n    tag_90:\n        /* \"#utility.yul\":10815:10892   */\n      0x4e487b7100000000000000000000000000000000000000000000000000000000\n        /* \"#utility.yul\":10812:10813   */\n      0x00\n        /* \"#utility.yul\":10805:10893   */\n      mstore\n        /* \"#utility.yul\":10912:10916   */\n      0x12\n        /* \"#utility.yul\":10909:10910   */\n      0x04\n        /* \"#utility.yul\":10902:10917   */\n      mstore\n        /* \"#utility.yul\":10936:10940   */\n      0x24\n        /* \"#utility.yul\":10933:10934   */\n      0x00\n        /* \"#utility.yul\":10926:10941   */\n      revert\n        /* \"#utility.yul\":10953:11138   */\n    tag_59:\n        /* \"#utility.yul\":10993:10994   */\n      0x00\n        /* \"#utility.yul\":11010:11030   */\n      tag_197\n        /* \"#utility.yul\":11028:11029   */\n      dup3\n        /* \"#utility.yul\":11010:11030   */\n      tag_62\n      jump\t// in\n    tag_197:\n        /* \"#utility.yul\":11005:11030   */\n      swap2\n      pop\n        /* \"#utility.yul\":11044:11064   */\n      tag_198\n        /* \"#utility.yul\":11062:11063   */\n      dup4\n        /* \"#utility.yul\":11044:11064   */\n      tag_62\n      jump\t// in\n    tag_198:\n        /* \"#utility.yul\":11039:11064   */\n      swap3\n      pop\n        /* \"#utility.yul\":11083:11084   */\n      dup3\n        /* \"#utility.yul\":11073:11108   */\n      tag_199\n      jumpi\n        /* \"#utility.yul\":11088:11106   */\n      tag_200\n      tag_90\n      jump\t// in\n    tag_200:\n        /* \"#utility.yul\":11073:11108   */\n    tag_199:\n        /* \"#utility.yul\":11130:11131   */\n      dup3\n        /* \"#utility.yul\":11127:11128   */\n      dup3\n        /* \"#utility.yul\":11123:11132   */\n      div\n        /* \"#utility.yul\":11118:11132   */\n      swap1\n      pop\n        /* \"#utility.yul\":10953:11138   */\n      swap3\n      swap2\n      pop\n      pop\n      jump\t// out\n\n    auxdata: 0xa2646970667358221220628d689eb0dbdeddbb816c2077c9991e6cde260aea9225ad3ee647f93b6fd39964736f6c63430008120033\n}\n",
				"bytecode": {
					"linkReferences": {},
					"object": "608060405234801561001057600080fd5b50604051610c42380380610c428339818101604052810190610032919061007a565b80600181905550506100a7565b600080fd5b6000819050919050565b61005781610044565b811461006257600080fd5b50565b6000815190506100748161004e565b92915050565b6000602082840312156100905761008f61003f565b5b600061009e84828501610065565b91505092915050565b610b8c806100b66000396000f3fe608060405234801561001057600080fd5b50600436106100575760003560e01c80636b6f4a9d1461005c5780636d705ebb1461007a578063cae270b614610096578063d0c183be146100c6578063ebfb412d146100e2575b600080fd5b610064610112565b604051610071919061059f565b60405180910390f35b610094600480360381019061008f9190610649565b610118565b005b6100b060048036038101906100ab9190610689565b6101a2565b6040516100bd919061076c565b60405180910390f35b6100e060048036038101906100db9190610689565b610434565b005b6100fc60048036038101906100f7919061078e565b61056e565b604051610109919061059f565b60405180910390f35b60015481565b6000810361015b576040517f08c379a000000000000000000000000000000000000000000000000000000000815260040161015290610807565b60405180910390fd5b806000808473ffffffffffffffffffffffffffffffffffffffff1673ffffffffffffffffffffffffffffffffffffffff168152602001908152602001600020819055505050565b6060600073ffffffffffffffffffffffffffffffffffffffff168473ffffffffffffffffffffffffffffffffffffffff1614158061020d5750600073ffffffffffffffffffffffffffffffffffffffff168373ffffffffffffffffffffffffffffffffffffffff1614155b61024c576040517f08c379a000000000000000000000000000000000000000000000000000000000815260040161024390610873565b60405180910390fd5b6000820361028f576040517f08c379a0000000000000000000000000000000000000000000000000000000008152600401610286906108df565b60405180910390fd5b816000808673ffffffffffffffffffffffffffffffffffffffff1673ffffffffffffffffffffffffffffffffffffffff168152602001908152602001600020541015610310576040517f08c379a00000000000000000000000000000000000000000000000000000000081526004016103079061094b565b60405180910390fd5b816000808673ffffffffffffffffffffffffffffffffffffffff1673ffffffffffffffffffffffffffffffffffffffff168152602001908152602001600020600082825461035e919061099a565b92505081905550816000808573ffffffffffffffffffffffffffffffffffffffff1673ffffffffffffffffffffffffffffffffffffffff16815260200190815260200160002060008282546103b391906109ce565b925050819055507f22e3ae3a20c49dce14046235895c7a3ffc0a6a5f3577c370177ad45fa619485d8484846040516103ed93929190610a11565b60405180910390a16040518060400160405280602081526020017f6974656d2077696c6c206265207368697070656420746f206c6f636174696f6e81525090509392505050565b806000808573ffffffffffffffffffffffffffffffffffffffff1673ffffffffffffffffffffffffffffffffffffffff168152602001908152602001600020541015806104bf5750806000808473ffffffffffffffffffffffffffffffffffffffff1673ffffffffffffffffffffffffffffffffffffffff1681526020019081526020016000205410155b6104fe576040517f08c379a00000000000000000000000000000000000000000000000000000000081526004016104f590610a94565b60405180910390fd5b60006064600154836105109190610ab4565b61051a9190610b25565b90506000818361052a919061099a565b90507f22e3ae3a20c49dce14046235895c7a3ffc0a6a5f3577c370177ad45fa619485d85858360405161055f93929190610a11565b60405180910390a15050505050565b60006020528060005260406000206000915090505481565b6000819050919050565b61059981610586565b82525050565b60006020820190506105b46000830184610590565b92915050565b600080fd5b600073ffffffffffffffffffffffffffffffffffffffff82169050919050565b60006105ea826105bf565b9050919050565b6105fa816105df565b811461060557600080fd5b50565b600081359050610617816105f1565b92915050565b61062681610586565b811461063157600080fd5b50565b6000813590506106438161061d565b92915050565b600080604083850312156106605761065f6105ba565b5b600061066e85828601610608565b925050602061067f85828601610634565b9150509250929050565b6000806000606084860312156106a2576106a16105ba565b5b60006106b086828701610608565b93505060206106c186828701610608565b92505060406106d286828701610634565b9150509250925092565b600081519050919050565b600082825260208201905092915050565b60005b838110156107165780820151818401526020810190506106fb565b60008484015250505050565b6000601f19601f8301169050919050565b600061073e826106dc565b61074881856106e7565b93506107588185602086016106f8565b61076181610722565b840191505092915050565b600060208201905081810360008301526107868184610733565b905092915050565b6000602082840312156107a4576107a36105ba565b5b60006107b284828501610608565b91505092915050565b7f4572726f72206e6f20616e792062616c616e6365000000000000000000000000600082015250565b60006107f16014836106e7565b91506107fc826107bb565b602082019050919050565b60006020820190508181036000830152610820816107e4565b9050919050565b7f6572726f72206e6f2075736572206f7220627579657220000000000000000000600082015250565b600061085d6017836106e7565b915061086882610827565b602082019050919050565b6000602082019050818103600083015261088c81610850565b9050919050565b7f4e6f206361736820696e70757474656420000000000000000000000000000000600082015250565b60006108c96011836106e7565b91506108d482610893565b602082019050919050565b600060208201905081810360008301526108f8816108bc565b9050919050565b7f796f752063616e20627579207468696e67730000000000000000000000000000600082015250565b60006109356012836106e7565b9150610940826108ff565b602082019050919050565b6000602082019050818103600083015261096481610928565b9050919050565b7f4e487b7100000000000000000000000000000000000000000000000000000000600052601160045260246000fd5b60006109a582610586565b91506109b083610586565b92508282039050818111156109c8576109c761096b565b5b92915050565b60006109d982610586565b91506109e483610586565b92508282019050808211156109fc576109fb61096b565b5b92915050565b610a0b816105df565b82525050565b6000606082019050610a266000830186610a02565b610a336020830185610a02565b610a406040830184610590565b949350505050565b7f796f7520617265206e6f74207265676973746572656400000000000000000000600082015250565b6000610a7e6016836106e7565b9150610a8982610a48565b602082019050919050565b60006020820190508181036000830152610aad81610a71565b9050919050565b6000610abf82610586565b9150610aca83610586565b9250828202610ad881610586565b91508282048414831517610aef57610aee61096b565b5b5092915050565b7f4e487b7100000000000000000000000000000000000000000000000000000000600052601260045260246000fd5b6000610b3082610586565b9150610b3b83610586565b925082610b4b57610b4a610af6565b5b82820490509291505056fea2646970667358221220628d689eb0dbdeddbb816c2077c9991e6cde260aea9225ad3ee647f93b6fd39964736f6c63430008120033",
					"opcodes": "PUSH1 0x80 PUSH1 0x40 MSTORE CALLVALUE DUP1 ISZERO PUSH2 0x10 JUMPI PUSH1 0x0 DUP1 REVERT JUMPDEST POP PUSH1 0x40 MLOAD PUSH2 0xC42 CODESIZE SUB DUP1 PUSH2 0xC42 DUP4 CODECOPY DUP2 DUP2 ADD PUSH1 0x40 MSTORE DUP2 ADD SWAP1 PUSH2 0x32 SWAP2 SWAP1 PUSH2 0x7A JUMP JUMPDEST DUP1 PUSH1 0x1 DUP2 SWAP1 SSTORE POP POP PUSH2 0xA7 JUMP JUMPDEST PUSH1 0x0 DUP1 REVERT JUMPDEST PUSH1 0x0 DUP2 SWAP1 POP SWAP2 SWAP1 POP JUMP JUMPDEST PUSH2 0x57 DUP2 PUSH2 0x44 JUMP JUMPDEST DUP2 EQ PUSH2 0x62 JUMPI PUSH1 0x0 DUP1 REVERT JUMPDEST POP JUMP JUMPDEST PUSH1 0x0 DUP2 MLOAD SWAP1 POP PUSH2 0x74 DUP2 PUSH2 0x4E JUMP JUMPDEST SWAP3 SWAP2 POP POP JUMP JUMPDEST PUSH1 0x0 PUSH1 0x20 DUP3 DUP5 SUB SLT ISZERO PUSH2 0x90 JUMPI PUSH2 0x8F PUSH2 0x3F JUMP JUMPDEST JUMPDEST PUSH1 0x0 PUSH2 0x9E DUP5 DUP3 DUP6 ADD PUSH2 0x65 JUMP JUMPDEST SWAP2 POP POP SWAP3 SWAP2 POP POP JUMP JUMPDEST PUSH2 0xB8C DUP1 PUSH2 0xB6 PUSH1 0x0 CODECOPY PUSH1 0x0 RETURN INVALID PUSH1 0x80 PUSH1 0x40 MSTORE CALLVALUE DUP1 ISZERO PUSH2 0x10 JUMPI PUSH1 0x0 DUP1 REVERT JUMPDEST POP PUSH1 0x4 CALLDATASIZE LT PUSH2 0x57 JUMPI PUSH1 0x0 CALLDATALOAD PUSH1 0xE0 SHR DUP1 PUSH4 0x6B6F4A9D EQ PUSH2 0x5C JUMPI DUP1 PUSH4 0x6D705EBB EQ PUSH2 0x7A JUMPI DUP1 PUSH4 0xCAE270B6 EQ PUSH2 0x96 JUMPI DUP1 PUSH4 0xD0C183BE EQ PUSH2 0xC6 JUMPI DUP1 PUSH4 0xEBFB412D EQ PUSH2 0xE2 JUMPI JUMPDEST PUSH1 0x0 DUP1 REVERT JUMPDEST PUSH2 0x64 PUSH2 0x112 JUMP JUMPDEST PUSH1 0x40 MLOAD PUSH2 0x71 SWAP2 SWAP1 PUSH2 0x59F JUMP JUMPDEST PUSH1 0x40 MLOAD DUP1 SWAP2 SUB SWAP1 RETURN JUMPDEST PUSH2 0x94 PUSH1 0x4 DUP1 CALLDATASIZE SUB DUP2 ADD SWAP1 PUSH2 0x8F SWAP2 SWAP1 PUSH2 0x649 JUMP JUMPDEST PUSH2 0x118 JUMP JUMPDEST STOP JUMPDEST PUSH2 0xB0 PUSH1 0x4 DUP1 CALLDATASIZE SUB DUP2 ADD SWAP1 PUSH2 0xAB SWAP2 SWAP1 PUSH2 0x689 JUMP JUMPDEST PUSH2 0x1A2 JUMP JUMPDEST PUSH1 0x40 MLOAD PUSH2 0xBD SWAP2 SWAP1 PUSH2 0x76C JUMP JUMPDEST PUSH1 0x40 MLOAD DUP1 SWAP2 SUB SWAP1 RETURN JUMPDEST PUSH2 0xE0 PUSH1 0x4 DUP1 CALLDATASIZE SUB DUP2 ADD SWAP1 PUSH2 0xDB SWAP2 SWAP1 PUSH2 0x689 JUMP JUMPDEST PUSH2 0x434 JUMP JUMPDEST STOP JUMPDEST PUSH2 0xFC PUSH1 0x4 DUP1 CALLDATASIZE SUB DUP2 ADD SWAP1 PUSH2 0xF7 SWAP2 SWAP1 PUSH2 0x78E JUMP JUMPDEST PUSH2 0x56E JUMP JUMPDEST PUSH1 0x40 MLOAD PUSH2 0x109 SWAP2 SWAP1 PUSH2 0x59F JUMP JUMPDEST PUSH1 0x40 MLOAD DUP1 SWAP2 SUB SWAP1 RETURN JUMPDEST PUSH1 0x1 SLOAD DUP2 JUMP JUMPDEST PUSH1 0x0 DUP2 SUB PUSH2 0x15B JUMPI PUSH1 0x40 MLOAD PUSH32 0x8C379A000000000000000000000000000000000000000000000000000000000 DUP2 MSTORE PUSH1 0x4 ADD PUSH2 0x152 SWAP1 PUSH2 0x807 JUMP JUMPDEST PUSH1 0x40 MLOAD DUP1 SWAP2 SUB SWAP1 REVERT JUMPDEST DUP1 PUSH1 0x0 DUP1 DUP5 PUSH20 0xFFFFFFFFFFFFFFFFFFFFFFFFFFFFFFFFFFFFFFFF AND PUSH20 0xFFFFFFFFFFFFFFFFFFFFFFFFFFFFFFFFFFFFFFFF AND DUP2 MSTORE PUSH1 0x20 ADD SWAP1 DUP2 MSTORE PUSH1 0x20 ADD PUSH1 0x0 KECCAK256 DUP2 SWAP1 SSTORE POP POP POP JUMP JUMPDEST PUSH1 0x60 PUSH1 0x0 PUSH20 0xFFFFFFFFFFFFFFFFFFFFFFFFFFFFFFFFFFFFFFFF AND DUP5 PUSH20 0xFFFFFFFFFFFFFFFFFFFFFFFFFFFFFFFFFFFFFFFF AND EQ ISZERO DUP1 PUSH2 0x20D JUMPI POP PUSH1 0x0 PUSH20 0xFFFFFFFFFFFFFFFFFFFFFFFFFFFFFFFFFFFFFFFF AND DUP4 PUSH20 0xFFFFFFFFFFFFFFFFFFFFFFFFFFFFFFFFFFFFFFFF AND EQ ISZERO JUMPDEST PUSH2 0x24C JUMPI PUSH1 0x40 MLOAD PUSH32 0x8C379A000000000000000000000000000000000000000000000000000000000 DUP2 MSTORE PUSH1 0x4 ADD PUSH2 0x243 SWAP1 PUSH2 0x873 JUMP JUMPDEST PUSH1 0x40 MLOAD DUP1 SWAP2 SUB SWAP1 REVERT JUMPDEST PUSH1 0x0 DUP3 SUB PUSH2 0x28F JUMPI PUSH1 0x40 MLOAD PUSH32 0x8C379A000000000000000000000000000000000000000000000000000000000 DUP2 MSTORE PUSH1 0x4 ADD PUSH2 0x286 SWAP1 PUSH2 0x8DF JUMP JUMPDEST PUSH1 0x40 MLOAD DUP1 SWAP2 SUB SWAP1 REVERT JUMPDEST DUP2 PUSH1 0x0 DUP1 DUP7 PUSH20 0xFFFFFFFFFFFFFFFFFFFFFFFFFFFFFFFFFFFFFFFF AND PUSH20 0xFFFFFFFFFFFFFFFFFFFFFFFFFFFFFFFFFFFFFFFF AND DUP2 MSTORE PUSH1 0x20 ADD SWAP1 DUP2 MSTORE PUSH1 0x20 ADD PUSH1 0x0 KECCAK256 SLOAD LT ISZERO PUSH2 0x310 JUMPI PUSH1 0x40 MLOAD PUSH32 0x8C379A000000000000000000000000000000000000000000000000000000000 DUP2 MSTORE PUSH1 0x4 ADD PUSH2 0x307 SWAP1 PUSH2 0x94B JUMP JUMPDEST PUSH1 0x40 MLOAD DUP1 SWAP2 SUB SWAP1 REVERT JUMPDEST DUP2 PUSH1 0x0 DUP1 DUP7 PUSH20 0xFFFFFFFFFFFFFFFFFFFFFFFFFFFFFFFFFFFFFFFF AND PUSH20 0xFFFFFFFFFFFFFFFFFFFFFFFFFFFFFFFFFFFFFFFF AND DUP2 MSTORE PUSH1 0x20 ADD SWAP1 DUP2 MSTORE PUSH1 0x20 ADD PUSH1 0x0 KECCAK256 PUSH1 0x0 DUP3 DUP3 SLOAD PUSH2 0x35E SWAP2 SWAP1 PUSH2 0x99A JUMP JUMPDEST SWAP3 POP POP DUP2 SWAP1 SSTORE POP DUP2 PUSH1 0x0 DUP1 DUP6 PUSH20 0xFFFFFFFFFFFFFFFFFFFFFFFFFFFFFFFFFFFFFFFF AND PUSH20 0xFFFFFFFFFFFFFFFFFFFFFFFFFFFFFFFFFFFFFFFF AND DUP2 MSTORE PUSH1 0x20 ADD SWAP1 DUP2 MSTORE PUSH1 0x20 ADD PUSH1 0x0 KECCAK256 PUSH1 0x0 DUP3 DUP3 SLOAD PUSH2 0x3B3 SWAP2 SWAP1 PUSH2 0x9CE JUMP JUMPDEST SWAP3 POP POP DUP2 SWAP1 SSTORE POP PUSH32 0x22E3AE3A20C49DCE14046235895C7A3FFC0A6A5F3577C370177AD45FA619485D DUP5 DUP5 DUP5 PUSH1 0x40 MLOAD PUSH2 0x3ED SWAP4 SWAP3 SWAP2 SWAP1 PUSH2 0xA11 JUMP JUMPDEST PUSH1 0x40 MLOAD DUP1 SWAP2 SUB SWAP1 LOG1 PUSH1 0x40 MLOAD DUP1 PUSH1 0x40 ADD PUSH1 0x40 MSTORE DUP1 PUSH1 0x20 DUP2 MSTORE PUSH1 0x20 ADD PUSH32 0x6974656D2077696C6C206265207368697070656420746F206C6F636174696F6E DUP2 MSTORE POP SWAP1 POP SWAP4 SWAP3 POP POP POP JUMP JUMPDEST DUP1 PUSH1 0x0 DUP1 DUP6 PUSH20 0xFFFFFFFFFFFFFFFFFFFFFFFFFFFFFFFFFFFFFFFF AND PUSH20 0xFFFFFFFFFFFFFFFFFFFFFFFFFFFFFFFFFFFFFFFF AND DUP2 MSTORE PUSH1 0x20 ADD SWAP1 DUP2 MSTORE PUSH1 0x20 ADD PUSH1 0x0 KECCAK256 SLOAD LT ISZERO DUP1 PUSH2 0x4BF JUMPI POP DUP1 PUSH1 0x0 DUP1 DUP5 PUSH20 0xFFFFFFFFFFFFFFFFFFFFFFFFFFFFFFFFFFFFFFFF AND PUSH20 0xFFFFFFFFFFFFFFFFFFFFFFFFFFFFFFFFFFFFFFFF AND DUP2 MSTORE PUSH1 0x20 ADD SWAP1 DUP2 MSTORE PUSH1 0x20 ADD PUSH1 0x0 KECCAK256 SLOAD LT ISZERO JUMPDEST PUSH2 0x4FE JUMPI PUSH1 0x40 MLOAD PUSH32 0x8C379A000000000000000000000000000000000000000000000000000000000 DUP2 MSTORE PUSH1 0x4 ADD PUSH2 0x4F5 SWAP1 PUSH2 0xA94 JUMP JUMPDEST PUSH1 0x40 MLOAD DUP1 SWAP2 SUB SWAP1 REVERT JUMPDEST PUSH1 0x0 PUSH1 0x64 PUSH1 0x1 SLOAD DUP4 PUSH2 0x510 SWAP2 SWAP1 PUSH2 0xAB4 JUMP JUMPDEST PUSH2 0x51A SWAP2 SWAP1 PUSH2 0xB25 JUMP JUMPDEST SWAP1 POP PUSH1 0x0 DUP2 DUP4 PUSH2 0x52A SWAP2 SWAP1 PUSH2 0x99A JUMP JUMPDEST SWAP1 POP PUSH32 0x22E3AE3A20C49DCE14046235895C7A3FFC0A6A5F3577C370177AD45FA619485D DUP6 DUP6 DUP4 PUSH1 0x40 MLOAD PUSH2 0x55F SWAP4 SWAP3 SWAP2 SWAP1 PUSH2 0xA11 JUMP JUMPDEST PUSH1 0x40 MLOAD DUP1 SWAP2 SUB SWAP1 LOG1 POP POP POP POP POP JUMP JUMPDEST PUSH1 0x0 PUSH1 0x20 MSTORE DUP1 PUSH1 0x0 MSTORE PUSH1 0x40 PUSH1 0x0 KECCAK256 PUSH1 0x0 SWAP2 POP SWAP1 POP SLOAD DUP2 JUMP JUMPDEST PUSH1 0x0 DUP2 SWAP1 POP SWAP2 SWAP1 POP JUMP JUMPDEST PUSH2 0x599 DUP2 PUSH2 0x586 JUMP JUMPDEST DUP3 MSTORE POP POP JUMP JUMPDEST PUSH1 0x0 PUSH1 0x20 DUP3 ADD SWAP1 POP PUSH2 0x5B4 PUSH1 0x0 DUP4 ADD DUP5 PUSH2 0x590 JUMP JUMPDEST SWAP3 SWAP2 POP POP JUMP JUMPDEST PUSH1 0x0 DUP1 REVERT JUMPDEST PUSH1 0x0 PUSH20 0xFFFFFFFFFFFFFFFFFFFFFFFFFFFFFFFFFFFFFFFF DUP3 AND SWAP1 POP SWAP2 SWAP1 POP JUMP JUMPDEST PUSH1 0x0 PUSH2 0x5EA DUP3 PUSH2 0x5BF JUMP JUMPDEST SWAP1 POP SWAP2 SWAP1 POP JUMP JUMPDEST PUSH2 0x5FA DUP2 PUSH2 0x5DF JUMP JUMPDEST DUP2 EQ PUSH2 0x605 JUMPI PUSH1 0x0 DUP1 REVERT JUMPDEST POP JUMP JUMPDEST PUSH1 0x0 DUP2 CALLDATALOAD SWAP1 POP PUSH2 0x617 DUP2 PUSH2 0x5F1 JUMP JUMPDEST SWAP3 SWAP2 POP POP JUMP JUMPDEST PUSH2 0x626 DUP2 PUSH2 0x586 JUMP JUMPDEST DUP2 EQ PUSH2 0x631 JUMPI PUSH1 0x0 DUP1 REVERT JUMPDEST POP JUMP JUMPDEST PUSH1 0x0 DUP2 CALLDATALOAD SWAP1 POP PUSH2 0x643 DUP2 PUSH2 0x61D JUMP JUMPDEST SWAP3 SWAP2 POP POP JUMP JUMPDEST PUSH1 0x0 DUP1 PUSH1 0x40 DUP4 DUP6 SUB SLT ISZERO PUSH2 0x660 JUMPI PUSH2 0x65F PUSH2 0x5BA JUMP JUMPDEST JUMPDEST PUSH1 0x0 PUSH2 0x66E DUP6 DUP3 DUP7 ADD PUSH2 0x608 JUMP JUMPDEST SWAP3 POP POP PUSH1 0x20 PUSH2 0x67F DUP6 DUP3 DUP7 ADD PUSH2 0x634 JUMP JUMPDEST SWAP2 POP POP SWAP3 POP SWAP3 SWAP1 POP JUMP JUMPDEST PUSH1 0x0 DUP1 PUSH1 0x0 PUSH1 0x60 DUP5 DUP7 SUB SLT ISZERO PUSH2 0x6A2 JUMPI PUSH2 0x6A1 PUSH2 0x5BA JUMP JUMPDEST JUMPDEST PUSH1 0x0 PUSH2 0x6B0 DUP7 DUP3 DUP8 ADD PUSH2 0x608 JUMP JUMPDEST SWAP4 POP POP PUSH1 0x20 PUSH2 0x6C1 DUP7 DUP3 DUP8 ADD PUSH2 0x608 JUMP JUMPDEST SWAP3 POP POP PUSH1 0x40 PUSH2 0x6D2 DUP7 DUP3 DUP8 ADD PUSH2 0x634 JUMP JUMPDEST SWAP2 POP POP SWAP3 POP SWAP3 POP SWAP3 JUMP JUMPDEST PUSH1 0x0 DUP2 MLOAD SWAP1 POP SWAP2 SWAP1 POP JUMP JUMPDEST PUSH1 0x0 DUP3 DUP3 MSTORE PUSH1 0x20 DUP3 ADD SWAP1 POP SWAP3 SWAP2 POP POP JUMP JUMPDEST PUSH1 0x0 JUMPDEST DUP4 DUP2 LT ISZERO PUSH2 0x716 JUMPI DUP1 DUP3 ADD MLOAD DUP2 DUP5 ADD MSTORE PUSH1 0x20 DUP2 ADD SWAP1 POP PUSH2 0x6FB JUMP JUMPDEST PUSH1 0x0 DUP5 DUP5 ADD MSTORE POP POP POP POP JUMP JUMPDEST PUSH1 0x0 PUSH1 0x1F NOT PUSH1 0x1F DUP4 ADD AND SWAP1 POP SWAP2 SWAP1 POP JUMP JUMPDEST PUSH1 0x0 PUSH2 0x73E DUP3 PUSH2 0x6DC JUMP JUMPDEST PUSH2 0x748 DUP2 DUP6 PUSH2 0x6E7 JUMP JUMPDEST SWAP4 POP PUSH2 0x758 DUP2 DUP6 PUSH1 0x20 DUP7 ADD PUSH2 0x6F8 JUMP JUMPDEST PUSH2 0x761 DUP2 PUSH2 0x722 JUMP JUMPDEST DUP5 ADD SWAP2 POP POP SWAP3 SWAP2 POP POP JUMP JUMPDEST PUSH1 0x0 PUSH1 0x20 DUP3 ADD SWAP1 POP DUP2 DUP2 SUB PUSH1 0x0 DUP4 ADD MSTORE PUSH2 0x786 DUP2 DUP5 PUSH2 0x733 JUMP JUMPDEST SWAP1 POP SWAP3 SWAP2 POP POP JUMP JUMPDEST PUSH1 0x0 PUSH1 0x20 DUP3 DUP5 SUB SLT ISZERO PUSH2 0x7A4 JUMPI PUSH2 0x7A3 PUSH2 0x5BA JUMP JUMPDEST JUMPDEST PUSH1 0x0 PUSH2 0x7B2 DUP5 DUP3 DUP6 ADD PUSH2 0x608 JUMP JUMPDEST SWAP2 POP POP SWAP3 SWAP2 POP POP JUMP JUMPDEST PUSH32 0x4572726F72206E6F20616E792062616C616E6365000000000000000000000000 PUSH1 0x0 DUP3 ADD MSTORE POP JUMP JUMPDEST PUSH1 0x0 PUSH2 0x7F1 PUSH1 0x14 DUP4 PUSH2 0x6E7 JUMP JUMPDEST SWAP2 POP PUSH2 0x7FC DUP3 PUSH2 0x7BB JUMP JUMPDEST PUSH1 0x20 DUP3 ADD SWAP1 POP SWAP2 SWAP1 POP JUMP JUMPDEST PUSH1 0x0 PUSH1 0x20 DUP3 ADD SWAP1 POP DUP2 DUP2 SUB PUSH1 0x0 DUP4 ADD MSTORE PUSH2 0x820 DUP2 PUSH2 0x7E4 JUMP JUMPDEST SWAP1 POP SWAP2 SWAP1 POP JUMP JUMPDEST PUSH32 0x6572726F72206E6F2075736572206F7220627579657220000000000000000000 PUSH1 0x0 DUP3 ADD MSTORE POP JUMP JUMPDEST PUSH1 0x0 PUSH2 0x85D PUSH1 0x17 DUP4 PUSH2 0x6E7 JUMP JUMPDEST SWAP2 POP PUSH2 0x868 DUP3 PUSH2 0x827 JUMP JUMPDEST PUSH1 0x20 DUP3 ADD SWAP1 POP SWAP2 SWAP1 POP JUMP JUMPDEST PUSH1 0x0 PUSH1 0x20 DUP3 ADD SWAP1 POP DUP2 DUP2 SUB PUSH1 0x0 DUP4 ADD MSTORE PUSH2 0x88C DUP2 PUSH2 0x850 JUMP JUMPDEST SWAP1 POP SWAP2 SWAP1 POP JUMP JUMPDEST PUSH32 0x4E6F206361736820696E70757474656420000000000000000000000000000000 PUSH1 0x0 DUP3 ADD MSTORE POP JUMP JUMPDEST PUSH1 0x0 PUSH2 0x8C9 PUSH1 0x11 DUP4 PUSH2 0x6E7 JUMP JUMPDEST SWAP2 POP PUSH2 0x8D4 DUP3 PUSH2 0x893 JUMP JUMPDEST PUSH1 0x20 DUP3 ADD SWAP1 POP SWAP2 SWAP1 POP JUMP JUMPDEST PUSH1 0x0 PUSH1 0x20 DUP3 ADD SWAP1 POP DUP2 DUP2 SUB PUSH1 0x0 DUP4 ADD MSTORE PUSH2 0x8F8 DUP2 PUSH2 0x8BC JUMP JUMPDEST SWAP1 POP SWAP2 SWAP1 POP JUMP JUMPDEST PUSH32 0x796F752063616E20627579207468696E67730000000000000000000000000000 PUSH1 0x0 DUP3 ADD MSTORE POP JUMP JUMPDEST PUSH1 0x0 PUSH2 0x935 PUSH1 0x12 DUP4 PUSH2 0x6E7 JUMP JUMPDEST SWAP2 POP PUSH2 0x940 DUP3 PUSH2 0x8FF JUMP JUMPDEST PUSH1 0x20 DUP3 ADD SWAP1 POP SWAP2 SWAP1 POP JUMP JUMPDEST PUSH1 0x0 PUSH1 0x20 DUP3 ADD SWAP1 POP DUP2 DUP2 SUB PUSH1 0x0 DUP4 ADD MSTORE PUSH2 0x964 DUP2 PUSH2 0x928 JUMP JUMPDEST SWAP1 POP SWAP2 SWAP1 POP JUMP JUMPDEST PUSH32 0x4E487B7100000000000000000000000000000000000000000000000000000000 PUSH1 0x0 MSTORE PUSH1 0x11 PUSH1 0x4 MSTORE PUSH1 0x24 PUSH1 0x0 REVERT JUMPDEST PUSH1 0x0 PUSH2 0x9A5 DUP3 PUSH2 0x586 JUMP JUMPDEST SWAP2 POP PUSH2 0x9B0 DUP4 PUSH2 0x586 JUMP JUMPDEST SWAP3 POP DUP3 DUP3 SUB SWAP1 POP DUP2 DUP2 GT ISZERO PUSH2 0x9C8 JUMPI PUSH2 0x9C7 PUSH2 0x96B JUMP JUMPDEST JUMPDEST SWAP3 SWAP2 POP POP JUMP JUMPDEST PUSH1 0x0 PUSH2 0x9D9 DUP3 PUSH2 0x586 JUMP JUMPDEST SWAP2 POP PUSH2 0x9E4 DUP4 PUSH2 0x586 JUMP JUMPDEST SWAP3 POP DUP3 DUP3 ADD SWAP1 POP DUP1 DUP3 GT ISZERO PUSH2 0x9FC JUMPI PUSH2 0x9FB PUSH2 0x96B JUMP JUMPDEST JUMPDEST SWAP3 SWAP2 POP POP JUMP JUMPDEST PUSH2 0xA0B DUP2 PUSH2 0x5DF JUMP JUMPDEST DUP3 MSTORE POP POP JUMP JUMPDEST PUSH1 0x0 PUSH1 0x60 DUP3 ADD SWAP1 POP PUSH2 0xA26 PUSH1 0x0 DUP4 ADD DUP7 PUSH2 0xA02 JUMP JUMPDEST PUSH2 0xA33 PUSH1 0x20 DUP4 ADD DUP6 PUSH2 0xA02 JUMP JUMPDEST PUSH2 0xA40 PUSH1 0x40 DUP4 ADD DUP5 PUSH2 0x590 JUMP JUMPDEST SWAP5 SWAP4 POP POP POP POP JUMP JUMPDEST PUSH32 0x796F7520617265206E6F74207265676973746572656400000000000000000000 PUSH1 0x0 DUP3 ADD MSTORE POP JUMP JUMPDEST PUSH1 0x0 PUSH2 0xA7E PUSH1 0x16 DUP4 PUSH2 0x6E7 JUMP JUMPDEST SWAP2 POP PUSH2 0xA89 DUP3 PUSH2 0xA48 JUMP JUMPDEST PUSH1 0x20 DUP3 ADD SWAP1 POP SWAP2 SWAP1 POP JUMP JUMPDEST PUSH1 0x0 PUSH1 0x20 DUP3 ADD SWAP1 POP DUP2 DUP2 SUB PUSH1 0x0 DUP4 ADD MSTORE PUSH2 0xAAD DUP2 PUSH2 0xA71 JUMP JUMPDEST SWAP1 POP SWAP2 SWAP1 POP JUMP JUMPDEST PUSH1 0x0 PUSH2 0xABF DUP3 PUSH2 0x586 JUMP JUMPDEST SWAP2 POP PUSH2 0xACA DUP4 PUSH2 0x586 JUMP JUMPDEST SWAP3 POP DUP3 DUP3 MUL PUSH2 0xAD8 DUP2 PUSH2 0x586 JUMP JUMPDEST SWAP2 POP DUP3 DUP3 DIV DUP5 EQ DUP4 ISZERO OR PUSH2 0xAEF JUMPI PUSH2 0xAEE PUSH2 0x96B JUMP JUMPDEST JUMPDEST POP SWAP3 SWAP2 POP POP JUMP JUMPDEST PUSH32 0x4E487B7100000000000000000000000000000000000000000000000000000000 PUSH1 0x0 MSTORE PUSH1 0x12 PUSH1 0x4 MSTORE PUSH1 0x24 PUSH1 0x0 REVERT JUMPDEST PUSH1 0x0 PUSH2 0xB30 DUP3 PUSH2 0x586 JUMP JUMPDEST SWAP2 POP PUSH2 0xB3B DUP4 PUSH2 0x586 JUMP JUMPDEST SWAP3 POP DUP3 PUSH2 0xB4B JUMPI PUSH2 0xB4A PUSH2 0xAF6 JUMP JUMPDEST JUMPDEST DUP3 DUP3 DIV SWAP1 POP SWAP3 SWAP2 POP POP JUMP INVALID LOG2 PUSH5 0x6970667358 0x22 SLT KECCAK256 PUSH3 0x8D689E 0xB0 0xDB 0xDE 0xDD 0xBB DUP2 PUSH13 0x2077C9991E6CDE260AEA9225AD RETURNDATACOPY 0xE6 SELFBALANCE 0xF9 EXTCODESIZE PUSH16 0xD39964736F6C63430008120033000000 "
				},
				"gasEstimates": {
					"creation": {
						"codeDepositCost": "591200",
						"executionCost": "infinite",
						"totalCost": "infinite"
					},
					"external": {
						"Address(address)": "2880",
						"Buy(address,address,uint256)": "infinite",
						"discount()": "2407",
						"register(address,uint256)": "22855",
						"sell(address,address,uint256)": "infinite"
					}
				},
				"methodIdentifiers": {
					"Address(address)": "ebfb412d",
					"Buy(address,address,uint256)": "d0c183be",
					"discount()": "6b6f4a9d",
					"register(address,uint256)": "6d705ebb",
					"sell(address,address,uint256)": "cae270b6"
				}
			},
			"storageLayout": {
				"storage": [
					{
						"astId": 5,
						"contract": "lab 18-08-2023/Market.sol:VipBuyer",
						"label": "Address",
						"offset": 0,
						"slot": "0",
						"type": "t_mapping(t_address,t_uint256)"
					},
					{
						"astId": 222,
						"contract": "lab 18-08-2023/Market.sol:VipBuyer",
						"label": "discount",
						"offset": 0,
						"slot": "1",
						"type": "t_uint256"
					}
				],
				"types": {
					"t_address": {
						"encoding": "inplace",
						"label": "address",
						"numberOfBytes": "20"
					},
					"t_mapping(t_address,t_uint256)": {
						"encoding": "mapping",
						"key": "t_address",
						"label": "mapping(address => uint256)",
						"numberOfBytes": "32",
						"value": "t_uint256"
					},
					"t_uint256": {
						"encoding": "inplace",
						"label": "uint256",
						"numberOfBytes": "32"
					}
				}
			},
			"userdoc": {
				"kind": "user",
				"methods": {},
				"version": 1
			}
		}
	}
}