{
	"lab 18-08-2023/Market.sol": {
		"Premiumseller": {
			"abi": [
				{
					"inputs": [
						{
							"internalType": "uint256",
							"name": "_fee",
							"type": "uint256"
						}
					],
					"stateMutability": "nonpayable",
					"type": "constructor"
				},
				{
					"anonymous": false,
					"inputs": [
						{
							"indexed": false,
							"internalType": "address",
							"name": "buyeraddress",
							"type": "address"
						},
						{
							"indexed": false,
							"internalType": "address",
							"name": "senderaddress",
							"type": "address"
						},
						{
							"indexed": false,
							"internalType": "uint256",
							"name": "valueofpurchase",
							"type": "uint256"
						}
					],
					"name": "Purchase",
					"type": "event"
				},
				{
					"inputs": [
						{
							"internalType": "address",
							"name": "",
							"type": "address"
						}
					],
					"name": "Address",
					"outputs": [
						{
							"internalType": "uint256",
							"name": "",
							"type": "uint256"
						}
					],
					"stateMutability": "view",
					"type": "function"
				},
				{
					"inputs": [
						{
							"internalType": "address",
							"name": "buyer",
							"type": "address"
						},
						{
							"internalType": "address",
							"name": "seller",
							"type": "address"
						},
						{
							"internalType": "uint256",
							"name": "cash",
							"type": "uint256"
						}
					],
					"name": "Buy",
					"outputs": [],
					"stateMutability": "nonpayable",
					"type": "function"
				},
				{
					"inputs": [],
					"name": "Fee",
					"outputs": [
						{
							"internalType": "uint256",
							"name": "",
							"type": "uint256"
						}
					],
					"stateMutability": "view",
					"type": "function"
				},
				{
					"inputs": [
						{
							"internalType": "address",
							"name": "newparticipant",
							"type": "address"
						},
						{
							"internalType": "uint256",
							"name": "balance",
							"type": "uint256"
						}
					],
					"name": "register",
					"outputs": [],
					"stateMutability": "nonpayable",
					"type": "function"
				},
				{
					"inputs": [
						{
							"internalType": "address",
							"name": "buyer",
							"type": "address"
						},
						{
							"internalType": "address",
							"name": "seller",
							"type": "address"
						},
						{
							"internalType": "uint256",
							"name": "price",
							"type": "uint256"
						}
					],
					"name": "sell",
					"outputs": [
						{
							"internalType": "string",
							"name": "",
							"type": "string"
						}
					],
					"stateMutability": "nonpayable",
					"type": "function"
				}
			],
			"devdoc": {
				"kind": "dev",
				"methods": {},
				"version": 1
			},
			"evm": {
				"assembly": "    /* \"lab 18-08-2023/Market.sol\":1326:1764  contract Premiumseller is Marketplace   {... */\n  mstore(0x40, 0x80)\n    /* \"lab 18-08-2023/Market.sol\":1397:1441  constructor( uint _fee) {... */\n  callvalue\n  dup1\n  iszero\n  tag_1\n  jumpi\n  0x00\n  dup1\n  revert\ntag_1:\n  pop\n  mload(0x40)\n  sub(codesize, bytecodeSize)\n  dup1\n  bytecodeSize\n  dup4\n  codecopy\n  dup2\n  dup2\n  add\n  0x40\n  mstore\n  dup2\n  add\n  swap1\n  tag_2\n  swap2\n  swap1\n  tag_3\n  jump\t// in\ntag_2:\n    /* \"lab 18-08-2023/Market.sol\":1433:1437  _fee */\n  dup1\n    /* \"lab 18-08-2023/Market.sol\":1428:1431  Fee */\n  0x01\n    /* \"lab 18-08-2023/Market.sol\":1428:1437  Fee =_fee */\n  dup2\n  swap1\n  sstore\n  pop\n    /* \"lab 18-08-2023/Market.sol\":1397:1441  constructor( uint _fee) {... */\n  pop\n    /* \"lab 18-08-2023/Market.sol\":1326:1764  contract Premiumseller is Marketplace   {... */\n  jump(tag_6)\n    /* \"#utility.yul\":88:205   */\ntag_8:\n    /* \"#utility.yul\":197:198   */\n  0x00\n    /* \"#utility.yul\":194:195   */\n  dup1\n    /* \"#utility.yul\":187:199   */\n  revert\n    /* \"#utility.yul\":334:411   */\ntag_10:\n    /* \"#utility.yul\":371:378   */\n  0x00\n    /* \"#utility.yul\":400:405   */\n  dup2\n    /* \"#utility.yul\":389:405   */\n  swap1\n  pop\n    /* \"#utility.yul\":334:411   */\n  swap2\n  swap1\n  pop\n  jump\t// out\n    /* \"#utility.yul\":417:539   */\ntag_11:\n    /* \"#utility.yul\":490:514   */\n  tag_19\n    /* \"#utility.yul\":508:513   */\n  dup2\n    /* \"#utility.yul\":490:514   */\n  tag_10\n  jump\t// in\ntag_19:\n    /* \"#utility.yul\":483:488   */\n  dup2\n    /* \"#utility.yul\":480:515   */\n  eq\n    /* \"#utility.yul\":470:533   */\n  tag_20\n  jumpi\n    /* \"#utility.yul\":529:530   */\n  0x00\n    /* \"#utility.yul\":526:527   */\n  dup1\n    /* \"#utility.yul\":519:531   */\n  revert\n    /* \"#utility.yul\":470:533   */\ntag_20:\n    /* \"#utility.yul\":417:539   */\n  pop\n  jump\t// out\n    /* \"#utility.yul\":545:688   */\ntag_12:\n    /* \"#utility.yul\":602:607   */\n  0x00\n    /* \"#utility.yul\":633:639   */\n  dup2\n    /* \"#utility.yul\":627:640   */\n  mload\n    /* \"#utility.yul\":618:640   */\n  swap1\n  pop\n    /* \"#utility.yul\":649:682   */\n  tag_22\n    /* \"#utility.yul\":676:681   */\n  dup2\n    /* \"#utility.yul\":649:682   */\n  tag_11\n  jump\t// in\ntag_22:\n    /* \"#utility.yul\":545:688   */\n  swap3\n  swap2\n  pop\n  pop\n  jump\t// out\n    /* \"#utility.yul\":694:1045   */\ntag_3:\n    /* \"#utility.yul\":764:770   */\n  0x00\n    /* \"#utility.yul\":813:815   */\n  0x20\n    /* \"#utility.yul\":801:810   */\n  dup3\n    /* \"#utility.yul\":792:799   */\n  dup5\n    /* \"#utility.yul\":788:811   */\n  sub\n    /* \"#utility.yul\":784:816   */\n  slt\n    /* \"#utility.yul\":781:900   */\n  iszero\n  tag_24\n  jumpi\n    /* \"#utility.yul\":819:898   */\n  tag_25\n  tag_8\n  jump\t// in\ntag_25:\n    /* \"#utility.yul\":781:900   */\ntag_24:\n    /* \"#utility.yul\":939:940   */\n  0x00\n    /* \"#utility.yul\":964:1028   */\n  tag_26\n    /* \"#utility.yul\":1020:1027   */\n  dup5\n    /* \"#utility.yul\":1011:1017   */\n  dup3\n    /* \"#utility.yul\":1000:1009   */\n  dup6\n    /* \"#utility.yul\":996:1018   */\n  add\n    /* \"#utility.yul\":964:1028   */\n  tag_12\n  jump\t// in\ntag_26:\n    /* \"#utility.yul\":954:1028   */\n  swap2\n  pop\n    /* \"#utility.yul\":910:1038   */\n  pop\n    /* \"#utility.yul\":694:1045   */\n  swap3\n  swap2\n  pop\n  pop\n  jump\t// out\n    /* \"lab 18-08-2023/Market.sol\":1326:1764  contract Premiumseller is Marketplace   {... */\ntag_6:\n  dataSize(sub_0)\n  dup1\n  dataOffset(sub_0)\n  0x00\n  codecopy\n  0x00\n  return\nstop\n\nsub_0: assembly {\n        /* \"lab 18-08-2023/Market.sol\":1326:1764  contract Premiumseller is Marketplace   {... */\n      mstore(0x40, 0x80)\n      callvalue\n      dup1\n      iszero\n      tag_1\n      jumpi\n      0x00\n      dup1\n      revert\n    tag_1:\n      pop\n      jumpi(tag_2, lt(calldatasize, 0x04))\n      shr(0xe0, calldataload(0x00))\n      dup1\n      0x6d705ebb\n      eq\n      tag_3\n      jumpi\n      dup1\n      0xbef7a2f0\n      eq\n      tag_4\n      jumpi\n      dup1\n      0xcae270b6\n      eq\n      tag_5\n      jumpi\n      dup1\n      0xd0c183be\n      eq\n      tag_6\n      jumpi\n      dup1\n      0xebfb412d\n      eq\n      tag_7\n      jumpi\n    tag_2:\n      0x00\n      dup1\n      revert\n        /* \"lab 18-08-2023/Market.sol\":232:406  function  register(address newparticipant ,uint balance) public    {... */\n    tag_3:\n      tag_8\n      0x04\n      dup1\n      calldatasize\n      sub\n      dup2\n      add\n      swap1\n      tag_9\n      swap2\n      swap1\n      tag_10\n      jump\t// in\n    tag_9:\n      tag_11\n      jump\t// in\n    tag_8:\n      stop\n        /* \"lab 18-08-2023/Market.sol\":1377:1392  uint public Fee */\n    tag_4:\n      tag_12\n      tag_13\n      jump\t// in\n    tag_12:\n      mload(0x40)\n      tag_14\n      swap2\n      swap1\n      tag_15\n      jump\t// in\n    tag_14:\n      mload(0x40)\n      dup1\n      swap2\n      sub\n      swap1\n      return\n        /* \"lab 18-08-2023/Market.sol\":1445:1749  function  sell(address buyer , address seller  , uint price)public override   returns (string memory )  {... */\n    tag_5:\n      tag_16\n      0x04\n      dup1\n      calldatasize\n      sub\n      dup2\n      add\n      swap1\n      tag_17\n      swap2\n      swap1\n      tag_18\n      jump\t// in\n    tag_17:\n      tag_19\n      jump\t// in\n    tag_16:\n      mload(0x40)\n      tag_20\n      swap2\n      swap1\n      tag_21\n      jump\t// in\n    tag_20:\n      mload(0x40)\n      dup1\n      swap2\n      sub\n      swap1\n      return\n        /* \"lab 18-08-2023/Market.sol\":427:798  function Buy(address buyer , address seller  , uint cash ) public virtual     {... */\n    tag_6:\n      tag_22\n      0x04\n      dup1\n      calldatasize\n      sub\n      dup2\n      add\n      swap1\n      tag_23\n      swap2\n      swap1\n      tag_18\n      jump\t// in\n    tag_23:\n      tag_24\n      jump\t// in\n    tag_22:\n      stop\n        /* \"lab 18-08-2023/Market.sol\":96:136  mapping(address => uint) public  Address */\n    tag_7:\n      tag_25\n      0x04\n      dup1\n      calldatasize\n      sub\n      dup2\n      add\n      swap1\n      tag_26\n      swap2\n      swap1\n      tag_27\n      jump\t// in\n    tag_26:\n      tag_28\n      jump\t// in\n    tag_25:\n      mload(0x40)\n      tag_29\n      swap2\n      swap1\n      tag_15\n      jump\t// in\n    tag_29:\n      mload(0x40)\n      dup1\n      swap2\n      sub\n      swap1\n      return\n        /* \"lab 18-08-2023/Market.sol\":232:406  function  register(address newparticipant ,uint balance) public    {... */\n    tag_11:\n        /* \"lab 18-08-2023/Market.sol\":319:320  0 */\n      0x00\n        /* \"lab 18-08-2023/Market.sol\":309:316  balance */\n      dup2\n        /* \"lab 18-08-2023/Market.sol\":309:320  balance ==0 */\n      sub\n        /* \"lab 18-08-2023/Market.sol\":304:363  if ( balance ==0) {... */\n      tag_31\n      jumpi\n        /* \"lab 18-08-2023/Market.sol\":329:359  revert(\"Error no any balance\") */\n      mload(0x40)\n      0x08c379a000000000000000000000000000000000000000000000000000000000\n      dup2\n      mstore\n      0x04\n      add\n      tag_32\n      swap1\n      tag_33\n      jump\t// in\n    tag_32:\n      mload(0x40)\n      dup1\n      swap2\n      sub\n      swap1\n      revert\n        /* \"lab 18-08-2023/Market.sol\":304:363  if ( balance ==0) {... */\n    tag_31:\n        /* \"lab 18-08-2023/Market.sol\":393:400  balance */\n      dup1\n        /* \"lab 18-08-2023/Market.sol\":367:374  Address */\n      0x00\n        /* \"lab 18-08-2023/Market.sol\":367:390  Address[newparticipant] */\n      dup1\n        /* \"lab 18-08-2023/Market.sol\":375:389  newparticipant */\n      dup5\n        /* \"lab 18-08-2023/Market.sol\":367:390  Address[newparticipant] */\n      0xffffffffffffffffffffffffffffffffffffffff\n      and\n      0xffffffffffffffffffffffffffffffffffffffff\n      and\n      dup2\n      mstore\n      0x20\n      add\n      swap1\n      dup2\n      mstore\n      0x20\n      add\n      0x00\n      keccak256\n        /* \"lab 18-08-2023/Market.sol\":367:400  Address[newparticipant] = balance */\n      dup2\n      swap1\n      sstore\n      pop\n        /* \"lab 18-08-2023/Market.sol\":232:406  function  register(address newparticipant ,uint balance) public    {... */\n      pop\n      pop\n      jump\t// out\n        /* \"lab 18-08-2023/Market.sol\":1377:1392  uint public Fee */\n    tag_13:\n      sload(0x01)\n      dup2\n      jump\t// out\n        /* \"lab 18-08-2023/Market.sol\":1445:1749  function  sell(address buyer , address seller  , uint price)public override   returns (string memory )  {... */\n    tag_19:\n        /* \"lab 18-08-2023/Market.sol\":1532:1545  string memory */\n      0x60\n        /* \"lab 18-08-2023/Market.sol\":1583:1597  uint Feeamount */\n      0x00\n        /* \"lab 18-08-2023/Market.sol\":1609:1612  100 */\n      0x64\n        /* \"lab 18-08-2023/Market.sol\":1605:1608  Fee */\n      sload(0x01)\n        /* \"lab 18-08-2023/Market.sol\":1599:1604  price */\n      dup5\n        /* \"lab 18-08-2023/Market.sol\":1599:1608  price*Fee */\n      tag_35\n      swap2\n      swap1\n      tag_36\n      jump\t// in\n    tag_35:\n        /* \"lab 18-08-2023/Market.sol\":1599:1612  price*Fee/100 */\n      tag_37\n      swap2\n      swap1\n      tag_38\n      jump\t// in\n    tag_37:\n        /* \"lab 18-08-2023/Market.sol\":1583:1612  uint Feeamount =price*Fee/100 */\n      swap1\n      pop\n        /* \"lab 18-08-2023/Market.sol\":1646:1647  0 */\n      0x00\n        /* \"lab 18-08-2023/Market.sol\":1627:1634  Address */\n      dup1\n        /* \"lab 18-08-2023/Market.sol\":1627:1642  Address[seller] */\n      0x00\n        /* \"lab 18-08-2023/Market.sol\":1635:1641  seller */\n      dup7\n        /* \"lab 18-08-2023/Market.sol\":1627:1642  Address[seller] */\n      0xffffffffffffffffffffffffffffffffffffffff\n      and\n      0xffffffffffffffffffffffffffffffffffffffff\n      and\n      dup2\n      mstore\n      0x20\n      add\n      swap1\n      dup2\n      mstore\n      0x20\n      add\n      0x00\n      keccak256\n      sload\n        /* \"lab 18-08-2023/Market.sol\":1627:1647  Address[seller] != 0 */\n      sub\n        /* \"lab 18-08-2023/Market.sol\":1619:1684  require(Address[seller] != 0 , \"seller balance is equal to zero\") */\n      tag_39\n      jumpi\n      mload(0x40)\n      0x08c379a000000000000000000000000000000000000000000000000000000000\n      dup2\n      mstore\n      0x04\n      add\n      tag_40\n      swap1\n      tag_41\n      jump\t// in\n    tag_40:\n      mload(0x40)\n      dup1\n      swap2\n      sub\n      swap1\n      revert\n    tag_39:\n        /* \"lab 18-08-2023/Market.sol\":1696:1738  super.sell(buyer, seller, price-Feeamount) */\n      tag_42\n        /* \"lab 18-08-2023/Market.sol\":1707:1712  buyer */\n      dup6\n        /* \"lab 18-08-2023/Market.sol\":1714:1720  seller */\n      dup6\n        /* \"lab 18-08-2023/Market.sol\":1728:1737  Feeamount */\n      dup4\n        /* \"lab 18-08-2023/Market.sol\":1722:1727  price */\n      dup7\n        /* \"lab 18-08-2023/Market.sol\":1722:1737  price-Feeamount */\n      tag_43\n      swap2\n      swap1\n      tag_44\n      jump\t// in\n    tag_43:\n        /* \"lab 18-08-2023/Market.sol\":1696:1706  super.sell */\n      tag_45\n        /* \"lab 18-08-2023/Market.sol\":1696:1738  super.sell(buyer, seller, price-Feeamount) */\n      jump\t// in\n    tag_42:\n        /* \"lab 18-08-2023/Market.sol\":1689:1738  return super.sell(buyer, seller, price-Feeamount) */\n      swap2\n      pop\n      pop\n        /* \"lab 18-08-2023/Market.sol\":1445:1749  function  sell(address buyer , address seller  , uint price)public override   returns (string memory )  {... */\n      swap4\n      swap3\n      pop\n      pop\n      pop\n      jump\t// out\n        /* \"lab 18-08-2023/Market.sol\":427:798  function Buy(address buyer , address seller  , uint cash ) public virtual     {... */\n    tag_24:\n        /* \"lab 18-08-2023/Market.sol\":533:534  0 */\n      0x00\n        /* \"lab 18-08-2023/Market.sol\":516:535  buyer != address(0) */\n      0xffffffffffffffffffffffffffffffffffffffff\n      and\n        /* \"lab 18-08-2023/Market.sol\":516:521  buyer */\n      dup4\n        /* \"lab 18-08-2023/Market.sol\":516:535  buyer != address(0) */\n      0xffffffffffffffffffffffffffffffffffffffff\n      and\n      eq\n      iszero\n        /* \"lab 18-08-2023/Market.sol\":516:560  buyer != address(0)   || seller !=address(0) */\n      dup1\n      tag_47\n      jumpi\n      pop\n        /* \"lab 18-08-2023/Market.sol\":558:559  0 */\n      0x00\n        /* \"lab 18-08-2023/Market.sol\":541:560  seller !=address(0) */\n      0xffffffffffffffffffffffffffffffffffffffff\n      and\n        /* \"lab 18-08-2023/Market.sol\":541:547  seller */\n      dup3\n        /* \"lab 18-08-2023/Market.sol\":541:560  seller !=address(0) */\n      0xffffffffffffffffffffffffffffffffffffffff\n      and\n      eq\n      iszero\n        /* \"lab 18-08-2023/Market.sol\":516:560  buyer != address(0)   || seller !=address(0) */\n    tag_47:\n        /* \"lab 18-08-2023/Market.sol\":508:589  require(buyer != address(0)   || seller !=address(0) , \"error no user or buyer \") */\n      tag_48\n      jumpi\n      mload(0x40)\n      0x08c379a000000000000000000000000000000000000000000000000000000000\n      dup2\n      mstore\n      0x04\n      add\n      tag_49\n      swap1\n      tag_50\n      jump\t// in\n    tag_49:\n      mload(0x40)\n      dup1\n      swap2\n      sub\n      swap1\n      revert\n    tag_48:\n        /* \"lab 18-08-2023/Market.sol\":612:613  0 */\n      0x00\n        /* \"lab 18-08-2023/Market.sol\":604:608  cash */\n      dup2\n        /* \"lab 18-08-2023/Market.sol\":604:613  cash != 0 */\n      sub\n        /* \"lab 18-08-2023/Market.sol\":596:636  require(cash != 0 , \"No cash inputted \") */\n      tag_51\n      jumpi\n      mload(0x40)\n      0x08c379a000000000000000000000000000000000000000000000000000000000\n      dup2\n      mstore\n      0x04\n      add\n      tag_52\n      swap1\n      tag_53\n      jump\t// in\n    tag_52:\n      mload(0x40)\n      dup1\n      swap2\n      sub\n      swap1\n      revert\n    tag_51:\n        /* \"lab 18-08-2023/Market.sol\":663:667  cash */\n      dup1\n        /* \"lab 18-08-2023/Market.sol\":645:652  Address */\n      0x00\n        /* \"lab 18-08-2023/Market.sol\":645:659  Address[buyer] */\n      dup1\n        /* \"lab 18-08-2023/Market.sol\":653:658  buyer */\n      dup6\n        /* \"lab 18-08-2023/Market.sol\":645:659  Address[buyer] */\n      0xffffffffffffffffffffffffffffffffffffffff\n      and\n      0xffffffffffffffffffffffffffffffffffffffff\n      and\n      dup2\n      mstore\n      0x20\n      add\n      swap1\n      dup2\n      mstore\n      0x20\n      add\n      0x00\n      keccak256\n      0x00\n        /* \"lab 18-08-2023/Market.sol\":645:667  Address[buyer] -= cash */\n      dup3\n      dup3\n      sload\n      tag_54\n      swap2\n      swap1\n      tag_44\n      jump\t// in\n    tag_54:\n      swap3\n      pop\n      pop\n      dup2\n      swap1\n      sstore\n      pop\n        /* \"lab 18-08-2023/Market.sol\":689:693  cash */\n      dup1\n        /* \"lab 18-08-2023/Market.sol\":670:677  Address */\n      0x00\n        /* \"lab 18-08-2023/Market.sol\":670:685  Address[seller] */\n      dup1\n        /* \"lab 18-08-2023/Market.sol\":678:684  seller */\n      dup5\n        /* \"lab 18-08-2023/Market.sol\":670:685  Address[seller] */\n      0xffffffffffffffffffffffffffffffffffffffff\n      and\n      0xffffffffffffffffffffffffffffffffffffffff\n      and\n      dup2\n      mstore\n      0x20\n      add\n      swap1\n      dup2\n      mstore\n      0x20\n      add\n      0x00\n      keccak256\n      0x00\n        /* \"lab 18-08-2023/Market.sol\":670:693  Address[seller] += cash */\n      dup3\n      dup3\n      sload\n      tag_55\n      swap2\n      swap1\n      tag_56\n      jump\t// in\n    tag_55:\n      swap3\n      pop\n      pop\n      dup2\n      swap1\n      sstore\n      pop\n        /* \"lab 18-08-2023/Market.sol\":713:719  seller */\n      dup2\n        /* \"lab 18-08-2023/Market.sol\":704:719  buyer != seller */\n      0xffffffffffffffffffffffffffffffffffffffff\n      and\n        /* \"lab 18-08-2023/Market.sol\":704:709  buyer */\n      dup4\n        /* \"lab 18-08-2023/Market.sol\":704:719  buyer != seller */\n      0xffffffffffffffffffffffffffffffffffffffff\n      and\n      sub\n        /* \"lab 18-08-2023/Market.sol\":696:750  require(buyer != seller , \"Buyer and seller are same\") */\n      tag_57\n      jumpi\n      mload(0x40)\n      0x08c379a000000000000000000000000000000000000000000000000000000000\n      dup2\n      mstore\n      0x04\n      add\n      tag_58\n      swap1\n      tag_59\n      jump\t// in\n    tag_58:\n      mload(0x40)\n      dup1\n      swap2\n      sub\n      swap1\n      revert\n    tag_57:\n        /* \"lab 18-08-2023/Market.sol\":760:790  Purchase(buyer, seller , cash) */\n      0x22e3ae3a20c49dce14046235895c7a3ffc0a6a5f3577c370177ad45fa619485d\n        /* \"lab 18-08-2023/Market.sol\":769:774  buyer */\n      dup4\n        /* \"lab 18-08-2023/Market.sol\":776:782  seller */\n      dup4\n        /* \"lab 18-08-2023/Market.sol\":785:789  cash */\n      dup4\n        /* \"lab 18-08-2023/Market.sol\":760:790  Purchase(buyer, seller , cash) */\n      mload(0x40)\n      tag_60\n      swap4\n      swap3\n      swap2\n      swap1\n      tag_61\n      jump\t// in\n    tag_60:\n      mload(0x40)\n      dup1\n      swap2\n      sub\n      swap1\n      log1\n        /* \"lab 18-08-2023/Market.sol\":427:798  function Buy(address buyer , address seller  , uint cash ) public virtual     {... */\n      pop\n      pop\n      pop\n      jump\t// out\n        /* \"lab 18-08-2023/Market.sol\":96:136  mapping(address => uint) public  Address */\n    tag_28:\n      mstore(0x20, 0x00)\n      dup1\n      0x00\n      mstore\n      keccak256(0x00, 0x40)\n      0x00\n      swap2\n      pop\n      swap1\n      pop\n      sload\n      dup2\n      jump\t// out\n        /* \"lab 18-08-2023/Market.sol\":824:1282  function  sell(address buyer , address seller  , uint price)public virtual  returns (string memory )  {... */\n    tag_45:\n        /* \"lab 18-08-2023/Market.sol\":909:922  string memory */\n      0x60\n        /* \"lab 18-08-2023/Market.sol\":960:961  0 */\n      0x00\n        /* \"lab 18-08-2023/Market.sol\":943:962  buyer != address(0) */\n      0xffffffffffffffffffffffffffffffffffffffff\n      and\n        /* \"lab 18-08-2023/Market.sol\":943:948  buyer */\n      dup5\n        /* \"lab 18-08-2023/Market.sol\":943:962  buyer != address(0) */\n      0xffffffffffffffffffffffffffffffffffffffff\n      and\n      eq\n      iszero\n        /* \"lab 18-08-2023/Market.sol\":943:987  buyer != address(0)   || seller !=address(0) */\n      dup1\n      tag_63\n      jumpi\n      pop\n        /* \"lab 18-08-2023/Market.sol\":985:986  0 */\n      0x00\n        /* \"lab 18-08-2023/Market.sol\":968:987  seller !=address(0) */\n      0xffffffffffffffffffffffffffffffffffffffff\n      and\n        /* \"lab 18-08-2023/Market.sol\":968:974  seller */\n      dup4\n        /* \"lab 18-08-2023/Market.sol\":968:987  seller !=address(0) */\n      0xffffffffffffffffffffffffffffffffffffffff\n      and\n      eq\n      iszero\n        /* \"lab 18-08-2023/Market.sol\":943:987  buyer != address(0)   || seller !=address(0) */\n    tag_63:\n        /* \"lab 18-08-2023/Market.sol\":935:1016  require(buyer != address(0)   || seller !=address(0) , \"error no user or buyer \") */\n      tag_64\n      jumpi\n      mload(0x40)\n      0x08c379a000000000000000000000000000000000000000000000000000000000\n      dup2\n      mstore\n      0x04\n      add\n      tag_65\n      swap1\n      tag_50\n      jump\t// in\n    tag_65:\n      mload(0x40)\n      dup1\n      swap2\n      sub\n      swap1\n      revert\n    tag_64:\n        /* \"lab 18-08-2023/Market.sol\":1040:1041  0 */\n      0x00\n        /* \"lab 18-08-2023/Market.sol\":1031:1036  price */\n      dup3\n        /* \"lab 18-08-2023/Market.sol\":1031:1041  price != 0 */\n      sub\n        /* \"lab 18-08-2023/Market.sol\":1023:1064  require(price != 0 , \"No cash inputted \") */\n      tag_66\n      jumpi\n      mload(0x40)\n      0x08c379a000000000000000000000000000000000000000000000000000000000\n      dup2\n      mstore\n      0x04\n      add\n      tag_67\n      swap1\n      tag_53\n      jump\t// in\n    tag_67:\n      mload(0x40)\n      dup1\n      swap2\n      sub\n      swap1\n      revert\n    tag_66:\n        /* \"lab 18-08-2023/Market.sol\":1097:1102  price */\n      dup2\n        /* \"lab 18-08-2023/Market.sol\":1079:1086  Address */\n      0x00\n        /* \"lab 18-08-2023/Market.sol\":1079:1093  Address[buyer] */\n      dup1\n        /* \"lab 18-08-2023/Market.sol\":1087:1092  buyer */\n      dup7\n        /* \"lab 18-08-2023/Market.sol\":1079:1093  Address[buyer] */\n      0xffffffffffffffffffffffffffffffffffffffff\n      and\n      0xffffffffffffffffffffffffffffffffffffffff\n      and\n      dup2\n      mstore\n      0x20\n      add\n      swap1\n      dup2\n      mstore\n      0x20\n      add\n      0x00\n      keccak256\n      sload\n        /* \"lab 18-08-2023/Market.sol\":1079:1102  Address[buyer] >= price */\n      lt\n      iszero\n        /* \"lab 18-08-2023/Market.sol\":1071:1126  require(Address[buyer] >= price , \"you can buy things\") */\n      tag_68\n      jumpi\n      mload(0x40)\n      0x08c379a000000000000000000000000000000000000000000000000000000000\n      dup2\n      mstore\n      0x04\n      add\n      tag_69\n      swap1\n      tag_70\n      jump\t// in\n    tag_69:\n      mload(0x40)\n      dup1\n      swap2\n      sub\n      swap1\n      revert\n    tag_68:\n        /* \"lab 18-08-2023/Market.sol\":1147:1152  price */\n      dup2\n        /* \"lab 18-08-2023/Market.sol\":1129:1136  Address */\n      0x00\n        /* \"lab 18-08-2023/Market.sol\":1129:1143  Address[buyer] */\n      dup1\n        /* \"lab 18-08-2023/Market.sol\":1137:1142  buyer */\n      dup7\n        /* \"lab 18-08-2023/Market.sol\":1129:1143  Address[buyer] */\n      0xffffffffffffffffffffffffffffffffffffffff\n      and\n      0xffffffffffffffffffffffffffffffffffffffff\n      and\n      dup2\n      mstore\n      0x20\n      add\n      swap1\n      dup2\n      mstore\n      0x20\n      add\n      0x00\n      keccak256\n      0x00\n        /* \"lab 18-08-2023/Market.sol\":1129:1152  Address[buyer] -= price */\n      dup3\n      dup3\n      sload\n      tag_71\n      swap2\n      swap1\n      tag_44\n      jump\t// in\n    tag_71:\n      swap3\n      pop\n      pop\n      dup2\n      swap1\n      sstore\n      pop\n        /* \"lab 18-08-2023/Market.sol\":1174:1179  price */\n      dup2\n        /* \"lab 18-08-2023/Market.sol\":1155:1162  Address */\n      0x00\n        /* \"lab 18-08-2023/Market.sol\":1155:1170  Address[seller] */\n      dup1\n        /* \"lab 18-08-2023/Market.sol\":1163:1169  seller */\n      dup6\n        /* \"lab 18-08-2023/Market.sol\":1155:1170  Address[seller] */\n      0xffffffffffffffffffffffffffffffffffffffff\n      and\n      0xffffffffffffffffffffffffffffffffffffffff\n      and\n      dup2\n      mstore\n      0x20\n      add\n      swap1\n      dup2\n      mstore\n      0x20\n      add\n      0x00\n      keccak256\n      0x00\n        /* \"lab 18-08-2023/Market.sol\":1155:1179  Address[seller] += price */\n      dup3\n      dup3\n      sload\n      tag_72\n      swap2\n      swap1\n      tag_56\n      jump\t// in\n    tag_72:\n      swap3\n      pop\n      pop\n      dup2\n      swap1\n      sstore\n      pop\n        /* \"lab 18-08-2023/Market.sol\":1191:1222  Purchase(buyer, seller , price) */\n      0x22e3ae3a20c49dce14046235895c7a3ffc0a6a5f3577c370177ad45fa619485d\n        /* \"lab 18-08-2023/Market.sol\":1200:1205  buyer */\n      dup5\n        /* \"lab 18-08-2023/Market.sol\":1207:1213  seller */\n      dup5\n        /* \"lab 18-08-2023/Market.sol\":1216:1221  price */\n      dup5\n        /* \"lab 18-08-2023/Market.sol\":1191:1222  Purchase(buyer, seller , price) */\n      mload(0x40)\n      tag_73\n      swap4\n      swap3\n      swap2\n      swap1\n      tag_61\n      jump\t// in\n    tag_73:\n      mload(0x40)\n      dup1\n      swap2\n      sub\n      swap1\n      log1\n        /* \"lab 18-08-2023/Market.sol\":1231:1272  return \"item will be shipped to location\" */\n      mload(0x40)\n      dup1\n      0x40\n      add\n      0x40\n      mstore\n      dup1\n      0x20\n      dup2\n      mstore\n      0x20\n      add\n      0x6974656d2077696c6c206265207368697070656420746f206c6f636174696f6e\n      dup2\n      mstore\n      pop\n      swap1\n      pop\n        /* \"lab 18-08-2023/Market.sol\":824:1282  function  sell(address buyer , address seller  , uint price)public virtual  returns (string memory )  {... */\n      swap4\n      swap3\n      pop\n      pop\n      pop\n      jump\t// out\n        /* \"#utility.yul\":88:205   */\n    tag_75:\n        /* \"#utility.yul\":197:198   */\n      0x00\n        /* \"#utility.yul\":194:195   */\n      dup1\n        /* \"#utility.yul\":187:199   */\n      revert\n        /* \"#utility.yul\":334:460   */\n    tag_77:\n        /* \"#utility.yul\":371:378   */\n      0x00\n        /* \"#utility.yul\":411:453   */\n      0xffffffffffffffffffffffffffffffffffffffff\n        /* \"#utility.yul\":404:409   */\n      dup3\n        /* \"#utility.yul\":400:454   */\n      and\n        /* \"#utility.yul\":389:454   */\n      swap1\n      pop\n        /* \"#utility.yul\":334:460   */\n      swap2\n      swap1\n      pop\n      jump\t// out\n        /* \"#utility.yul\":466:562   */\n    tag_78:\n        /* \"#utility.yul\":503:510   */\n      0x00\n        /* \"#utility.yul\":532:556   */\n      tag_111\n        /* \"#utility.yul\":550:555   */\n      dup3\n        /* \"#utility.yul\":532:556   */\n      tag_77\n      jump\t// in\n    tag_111:\n        /* \"#utility.yul\":521:556   */\n      swap1\n      pop\n        /* \"#utility.yul\":466:562   */\n      swap2\n      swap1\n      pop\n      jump\t// out\n        /* \"#utility.yul\":568:690   */\n    tag_79:\n        /* \"#utility.yul\":641:665   */\n      tag_113\n        /* \"#utility.yul\":659:664   */\n      dup2\n        /* \"#utility.yul\":641:665   */\n      tag_78\n      jump\t// in\n    tag_113:\n        /* \"#utility.yul\":634:639   */\n      dup2\n        /* \"#utility.yul\":631:666   */\n      eq\n        /* \"#utility.yul\":621:684   */\n      tag_114\n      jumpi\n        /* \"#utility.yul\":680:681   */\n      0x00\n        /* \"#utility.yul\":677:678   */\n      dup1\n        /* \"#utility.yul\":670:682   */\n      revert\n        /* \"#utility.yul\":621:684   */\n    tag_114:\n        /* \"#utility.yul\":568:690   */\n      pop\n      jump\t// out\n        /* \"#utility.yul\":696:835   */\n    tag_80:\n        /* \"#utility.yul\":742:747   */\n      0x00\n        /* \"#utility.yul\":780:786   */\n      dup2\n        /* \"#utility.yul\":767:787   */\n      calldataload\n        /* \"#utility.yul\":758:787   */\n      swap1\n      pop\n        /* \"#utility.yul\":796:829   */\n      tag_116\n        /* \"#utility.yul\":823:828   */\n      dup2\n        /* \"#utility.yul\":796:829   */\n      tag_79\n      jump\t// in\n    tag_116:\n        /* \"#utility.yul\":696:835   */\n      swap3\n      swap2\n      pop\n      pop\n      jump\t// out\n        /* \"#utility.yul\":841:918   */\n    tag_81:\n        /* \"#utility.yul\":878:885   */\n      0x00\n        /* \"#utility.yul\":907:912   */\n      dup2\n        /* \"#utility.yul\":896:912   */\n      swap1\n      pop\n        /* \"#utility.yul\":841:918   */\n      swap2\n      swap1\n      pop\n      jump\t// out\n        /* \"#utility.yul\":924:1046   */\n    tag_82:\n        /* \"#utility.yul\":997:1021   */\n      tag_119\n        /* \"#utility.yul\":1015:1020   */\n      dup2\n        /* \"#utility.yul\":997:1021   */\n      tag_81\n      jump\t// in\n    tag_119:\n        /* \"#utility.yul\":990:995   */\n      dup2\n        /* \"#utility.yul\":987:1022   */\n      eq\n        /* \"#utility.yul\":977:1040   */\n      tag_120\n      jumpi\n        /* \"#utility.yul\":1036:1037   */\n      0x00\n        /* \"#utility.yul\":1033:1034   */\n      dup1\n        /* \"#utility.yul\":1026:1038   */\n      revert\n        /* \"#utility.yul\":977:1040   */\n    tag_120:\n        /* \"#utility.yul\":924:1046   */\n      pop\n      jump\t// out\n        /* \"#utility.yul\":1052:1191   */\n    tag_83:\n        /* \"#utility.yul\":1098:1103   */\n      0x00\n        /* \"#utility.yul\":1136:1142   */\n      dup2\n        /* \"#utility.yul\":1123:1143   */\n      calldataload\n        /* \"#utility.yul\":1114:1143   */\n      swap1\n      pop\n        /* \"#utility.yul\":1152:1185   */\n      tag_122\n        /* \"#utility.yul\":1179:1184   */\n      dup2\n        /* \"#utility.yul\":1152:1185   */\n      tag_82\n      jump\t// in\n    tag_122:\n        /* \"#utility.yul\":1052:1191   */\n      swap3\n      swap2\n      pop\n      pop\n      jump\t// out\n        /* \"#utility.yul\":1197:1671   */\n    tag_10:\n        /* \"#utility.yul\":1265:1271   */\n      0x00\n        /* \"#utility.yul\":1273:1279   */\n      dup1\n        /* \"#utility.yul\":1322:1324   */\n      0x40\n        /* \"#utility.yul\":1310:1319   */\n      dup4\n        /* \"#utility.yul\":1301:1308   */\n      dup6\n        /* \"#utility.yul\":1297:1320   */\n      sub\n        /* \"#utility.yul\":1293:1325   */\n      slt\n        /* \"#utility.yul\":1290:1409   */\n      iszero\n      tag_124\n      jumpi\n        /* \"#utility.yul\":1328:1407   */\n      tag_125\n      tag_75\n      jump\t// in\n    tag_125:\n        /* \"#utility.yul\":1290:1409   */\n    tag_124:\n        /* \"#utility.yul\":1448:1449   */\n      0x00\n        /* \"#utility.yul\":1473:1526   */\n      tag_126\n        /* \"#utility.yul\":1518:1525   */\n      dup6\n        /* \"#utility.yul\":1509:1515   */\n      dup3\n        /* \"#utility.yul\":1498:1507   */\n      dup7\n        /* \"#utility.yul\":1494:1516   */\n      add\n        /* \"#utility.yul\":1473:1526   */\n      tag_80\n      jump\t// in\n    tag_126:\n        /* \"#utility.yul\":1463:1526   */\n      swap3\n      pop\n        /* \"#utility.yul\":1419:1536   */\n      pop\n        /* \"#utility.yul\":1575:1577   */\n      0x20\n        /* \"#utility.yul\":1601:1654   */\n      tag_127\n        /* \"#utility.yul\":1646:1653   */\n      dup6\n        /* \"#utility.yul\":1637:1643   */\n      dup3\n        /* \"#utility.yul\":1626:1635   */\n      dup7\n        /* \"#utility.yul\":1622:1644   */\n      add\n        /* \"#utility.yul\":1601:1654   */\n      tag_83\n      jump\t// in\n    tag_127:\n        /* \"#utility.yul\":1591:1654   */\n      swap2\n      pop\n        /* \"#utility.yul\":1546:1664   */\n      pop\n        /* \"#utility.yul\":1197:1671   */\n      swap3\n      pop\n      swap3\n      swap1\n      pop\n      jump\t// out\n        /* \"#utility.yul\":1677:1795   */\n    tag_84:\n        /* \"#utility.yul\":1764:1788   */\n      tag_129\n        /* \"#utility.yul\":1782:1787   */\n      dup2\n        /* \"#utility.yul\":1764:1788   */\n      tag_81\n      jump\t// in\n    tag_129:\n        /* \"#utility.yul\":1759:1762   */\n      dup3\n        /* \"#utility.yul\":1752:1789   */\n      mstore\n        /* \"#utility.yul\":1677:1795   */\n      pop\n      pop\n      jump\t// out\n        /* \"#utility.yul\":1801:2023   */\n    tag_15:\n        /* \"#utility.yul\":1894:1898   */\n      0x00\n        /* \"#utility.yul\":1932:1934   */\n      0x20\n        /* \"#utility.yul\":1921:1930   */\n      dup3\n        /* \"#utility.yul\":1917:1935   */\n      add\n        /* \"#utility.yul\":1909:1935   */\n      swap1\n      pop\n        /* \"#utility.yul\":1945:2016   */\n      tag_131\n        /* \"#utility.yul\":2013:2014   */\n      0x00\n        /* \"#utility.yul\":2002:2011   */\n      dup4\n        /* \"#utility.yul\":1998:2015   */\n      add\n        /* \"#utility.yul\":1989:1995   */\n      dup5\n        /* \"#utility.yul\":1945:2016   */\n      tag_84\n      jump\t// in\n    tag_131:\n        /* \"#utility.yul\":1801:2023   */\n      swap3\n      swap2\n      pop\n      pop\n      jump\t// out\n        /* \"#utility.yul\":2029:2648   */\n    tag_18:\n        /* \"#utility.yul\":2106:2112   */\n      0x00\n        /* \"#utility.yul\":2114:2120   */\n      dup1\n        /* \"#utility.yul\":2122:2128   */\n      0x00\n        /* \"#utility.yul\":2171:2173   */\n      0x60\n        /* \"#utility.yul\":2159:2168   */\n      dup5\n        /* \"#utility.yul\":2150:2157   */\n      dup7\n        /* \"#utility.yul\":2146:2169   */\n      sub\n        /* \"#utility.yul\":2142:2174   */\n      slt\n        /* \"#utility.yul\":2139:2258   */\n      iszero\n      tag_133\n      jumpi\n        /* \"#utility.yul\":2177:2256   */\n      tag_134\n      tag_75\n      jump\t// in\n    tag_134:\n        /* \"#utility.yul\":2139:2258   */\n    tag_133:\n        /* \"#utility.yul\":2297:2298   */\n      0x00\n        /* \"#utility.yul\":2322:2375   */\n      tag_135\n        /* \"#utility.yul\":2367:2374   */\n      dup7\n        /* \"#utility.yul\":2358:2364   */\n      dup3\n        /* \"#utility.yul\":2347:2356   */\n      dup8\n        /* \"#utility.yul\":2343:2365   */\n      add\n        /* \"#utility.yul\":2322:2375   */\n      tag_80\n      jump\t// in\n    tag_135:\n        /* \"#utility.yul\":2312:2375   */\n      swap4\n      pop\n        /* \"#utility.yul\":2268:2385   */\n      pop\n        /* \"#utility.yul\":2424:2426   */\n      0x20\n        /* \"#utility.yul\":2450:2503   */\n      tag_136\n        /* \"#utility.yul\":2495:2502   */\n      dup7\n        /* \"#utility.yul\":2486:2492   */\n      dup3\n        /* \"#utility.yul\":2475:2484   */\n      dup8\n        /* \"#utility.yul\":2471:2493   */\n      add\n        /* \"#utility.yul\":2450:2503   */\n      tag_80\n      jump\t// in\n    tag_136:\n        /* \"#utility.yul\":2440:2503   */\n      swap3\n      pop\n        /* \"#utility.yul\":2395:2513   */\n      pop\n        /* \"#utility.yul\":2552:2554   */\n      0x40\n        /* \"#utility.yul\":2578:2631   */\n      tag_137\n        /* \"#utility.yul\":2623:2630   */\n      dup7\n        /* \"#utility.yul\":2614:2620   */\n      dup3\n        /* \"#utility.yul\":2603:2612   */\n      dup8\n        /* \"#utility.yul\":2599:2621   */\n      add\n        /* \"#utility.yul\":2578:2631   */\n      tag_83\n      jump\t// in\n    tag_137:\n        /* \"#utility.yul\":2568:2631   */\n      swap2\n      pop\n        /* \"#utility.yul\":2523:2641   */\n      pop\n        /* \"#utility.yul\":2029:2648   */\n      swap3\n      pop\n      swap3\n      pop\n      swap3\n      jump\t// out\n        /* \"#utility.yul\":2654:2753   */\n    tag_85:\n        /* \"#utility.yul\":2706:2712   */\n      0x00\n        /* \"#utility.yul\":2740:2745   */\n      dup2\n        /* \"#utility.yul\":2734:2746   */\n      mload\n        /* \"#utility.yul\":2724:2746   */\n      swap1\n      pop\n        /* \"#utility.yul\":2654:2753   */\n      swap2\n      swap1\n      pop\n      jump\t// out\n        /* \"#utility.yul\":2759:2928   */\n    tag_86:\n        /* \"#utility.yul\":2843:2854   */\n      0x00\n        /* \"#utility.yul\":2877:2883   */\n      dup3\n        /* \"#utility.yul\":2872:2875   */\n      dup3\n        /* \"#utility.yul\":2865:2884   */\n      mstore\n        /* \"#utility.yul\":2917:2921   */\n      0x20\n        /* \"#utility.yul\":2912:2915   */\n      dup3\n        /* \"#utility.yul\":2908:2922   */\n      add\n        /* \"#utility.yul\":2893:2922   */\n      swap1\n      pop\n        /* \"#utility.yul\":2759:2928   */\n      swap3\n      swap2\n      pop\n      pop\n      jump\t// out\n        /* \"#utility.yul\":2934:3180   */\n    tag_87:\n        /* \"#utility.yul\":3015:3016   */\n      0x00\n        /* \"#utility.yul\":3025:3138   */\n    tag_141:\n        /* \"#utility.yul\":3039:3045   */\n      dup4\n        /* \"#utility.yul\":3036:3037   */\n      dup2\n        /* \"#utility.yul\":3033:3046   */\n      lt\n        /* \"#utility.yul\":3025:3138   */\n      iszero\n      tag_143\n      jumpi\n        /* \"#utility.yul\":3124:3125   */\n      dup1\n        /* \"#utility.yul\":3119:3122   */\n      dup3\n        /* \"#utility.yul\":3115:3126   */\n      add\n        /* \"#utility.yul\":3109:3127   */\n      mload\n        /* \"#utility.yul\":3105:3106   */\n      dup2\n        /* \"#utility.yul\":3100:3103   */\n      dup5\n        /* \"#utility.yul\":3096:3107   */\n      add\n        /* \"#utility.yul\":3089:3128   */\n      mstore\n        /* \"#utility.yul\":3061:3063   */\n      0x20\n        /* \"#utility.yul\":3058:3059   */\n      dup2\n        /* \"#utility.yul\":3054:3064   */\n      add\n        /* \"#utility.yul\":3049:3064   */\n      swap1\n      pop\n        /* \"#utility.yul\":3025:3138   */\n      jump(tag_141)\n    tag_143:\n        /* \"#utility.yul\":3172:3173   */\n      0x00\n        /* \"#utility.yul\":3163:3169   */\n      dup5\n        /* \"#utility.yul\":3158:3161   */\n      dup5\n        /* \"#utility.yul\":3154:3170   */\n      add\n        /* \"#utility.yul\":3147:3174   */\n      mstore\n        /* \"#utility.yul\":2996:3180   */\n      pop\n        /* \"#utility.yul\":2934:3180   */\n      pop\n      pop\n      pop\n      jump\t// out\n        /* \"#utility.yul\":3186:3288   */\n    tag_88:\n        /* \"#utility.yul\":3227:3233   */\n      0x00\n        /* \"#utility.yul\":3278:3280   */\n      0x1f\n        /* \"#utility.yul\":3274:3281   */\n      not\n        /* \"#utility.yul\":3269:3271   */\n      0x1f\n        /* \"#utility.yul\":3262:3267   */\n      dup4\n        /* \"#utility.yul\":3258:3272   */\n      add\n        /* \"#utility.yul\":3254:3282   */\n      and\n        /* \"#utility.yul\":3244:3282   */\n      swap1\n      pop\n        /* \"#utility.yul\":3186:3288   */\n      swap2\n      swap1\n      pop\n      jump\t// out\n        /* \"#utility.yul\":3294:3671   */\n    tag_89:\n        /* \"#utility.yul\":3382:3385   */\n      0x00\n        /* \"#utility.yul\":3410:3449   */\n      tag_146\n        /* \"#utility.yul\":3443:3448   */\n      dup3\n        /* \"#utility.yul\":3410:3449   */\n      tag_85\n      jump\t// in\n    tag_146:\n        /* \"#utility.yul\":3465:3536   */\n      tag_147\n        /* \"#utility.yul\":3529:3535   */\n      dup2\n        /* \"#utility.yul\":3524:3527   */\n      dup6\n        /* \"#utility.yul\":3465:3536   */\n      tag_86\n      jump\t// in\n    tag_147:\n        /* \"#utility.yul\":3458:3536   */\n      swap4\n      pop\n        /* \"#utility.yul\":3545:3610   */\n      tag_148\n        /* \"#utility.yul\":3603:3609   */\n      dup2\n        /* \"#utility.yul\":3598:3601   */\n      dup6\n        /* \"#utility.yul\":3591:3595   */\n      0x20\n        /* \"#utility.yul\":3584:3589   */\n      dup7\n        /* \"#utility.yul\":3580:3596   */\n      add\n        /* \"#utility.yul\":3545:3610   */\n      tag_87\n      jump\t// in\n    tag_148:\n        /* \"#utility.yul\":3635:3664   */\n      tag_149\n        /* \"#utility.yul\":3657:3663   */\n      dup2\n        /* \"#utility.yul\":3635:3664   */\n      tag_88\n      jump\t// in\n    tag_149:\n        /* \"#utility.yul\":3630:3633   */\n      dup5\n        /* \"#utility.yul\":3626:3665   */\n      add\n        /* \"#utility.yul\":3619:3665   */\n      swap2\n      pop\n        /* \"#utility.yul\":3386:3671   */\n      pop\n        /* \"#utility.yul\":3294:3671   */\n      swap3\n      swap2\n      pop\n      pop\n      jump\t// out\n        /* \"#utility.yul\":3677:3990   */\n    tag_21:\n        /* \"#utility.yul\":3790:3794   */\n      0x00\n        /* \"#utility.yul\":3828:3830   */\n      0x20\n        /* \"#utility.yul\":3817:3826   */\n      dup3\n        /* \"#utility.yul\":3813:3831   */\n      add\n        /* \"#utility.yul\":3805:3831   */\n      swap1\n      pop\n        /* \"#utility.yul\":3877:3886   */\n      dup2\n        /* \"#utility.yul\":3871:3875   */\n      dup2\n        /* \"#utility.yul\":3867:3887   */\n      sub\n        /* \"#utility.yul\":3863:3864   */\n      0x00\n        /* \"#utility.yul\":3852:3861   */\n      dup4\n        /* \"#utility.yul\":3848:3865   */\n      add\n        /* \"#utility.yul\":3841:3888   */\n      mstore\n        /* \"#utility.yul\":3905:3983   */\n      tag_151\n        /* \"#utility.yul\":3978:3982   */\n      dup2\n        /* \"#utility.yul\":3969:3975   */\n      dup5\n        /* \"#utility.yul\":3905:3983   */\n      tag_89\n      jump\t// in\n    tag_151:\n        /* \"#utility.yul\":3897:3983   */\n      swap1\n      pop\n        /* \"#utility.yul\":3677:3990   */\n      swap3\n      swap2\n      pop\n      pop\n      jump\t// out\n        /* \"#utility.yul\":3996:4325   */\n    tag_27:\n        /* \"#utility.yul\":4055:4061   */\n      0x00\n        /* \"#utility.yul\":4104:4106   */\n      0x20\n        /* \"#utility.yul\":4092:4101   */\n      dup3\n        /* \"#utility.yul\":4083:4090   */\n      dup5\n        /* \"#utility.yul\":4079:4102   */\n      sub\n        /* \"#utility.yul\":4075:4107   */\n      slt\n        /* \"#utility.yul\":4072:4191   */\n      iszero\n      tag_153\n      jumpi\n        /* \"#utility.yul\":4110:4189   */\n      tag_154\n      tag_75\n      jump\t// in\n    tag_154:\n        /* \"#utility.yul\":4072:4191   */\n    tag_153:\n        /* \"#utility.yul\":4230:4231   */\n      0x00\n        /* \"#utility.yul\":4255:4308   */\n      tag_155\n        /* \"#utility.yul\":4300:4307   */\n      dup5\n        /* \"#utility.yul\":4291:4297   */\n      dup3\n        /* \"#utility.yul\":4280:4289   */\n      dup6\n        /* \"#utility.yul\":4276:4298   */\n      add\n        /* \"#utility.yul\":4255:4308   */\n      tag_80\n      jump\t// in\n    tag_155:\n        /* \"#utility.yul\":4245:4308   */\n      swap2\n      pop\n        /* \"#utility.yul\":4201:4318   */\n      pop\n        /* \"#utility.yul\":3996:4325   */\n      swap3\n      swap2\n      pop\n      pop\n      jump\t// out\n        /* \"#utility.yul\":4331:4501   */\n    tag_90:\n        /* \"#utility.yul\":4471:4493   */\n      0x4572726f72206e6f20616e792062616c616e6365000000000000000000000000\n        /* \"#utility.yul\":4467:4468   */\n      0x00\n        /* \"#utility.yul\":4459:4465   */\n      dup3\n        /* \"#utility.yul\":4455:4469   */\n      add\n        /* \"#utility.yul\":4448:4494   */\n      mstore\n        /* \"#utility.yul\":4331:4501   */\n      pop\n      jump\t// out\n        /* \"#utility.yul\":4507:4873   */\n    tag_91:\n        /* \"#utility.yul\":4649:4652   */\n      0x00\n        /* \"#utility.yul\":4670:4737   */\n      tag_158\n        /* \"#utility.yul\":4734:4736   */\n      0x14\n        /* \"#utility.yul\":4729:4732   */\n      dup4\n        /* \"#utility.yul\":4670:4737   */\n      tag_86\n      jump\t// in\n    tag_158:\n        /* \"#utility.yul\":4663:4737   */\n      swap2\n      pop\n        /* \"#utility.yul\":4746:4839   */\n      tag_159\n        /* \"#utility.yul\":4835:4838   */\n      dup3\n        /* \"#utility.yul\":4746:4839   */\n      tag_90\n      jump\t// in\n    tag_159:\n        /* \"#utility.yul\":4864:4866   */\n      0x20\n        /* \"#utility.yul\":4859:4862   */\n      dup3\n        /* \"#utility.yul\":4855:4867   */\n      add\n        /* \"#utility.yul\":4848:4867   */\n      swap1\n      pop\n        /* \"#utility.yul\":4507:4873   */\n      swap2\n      swap1\n      pop\n      jump\t// out\n        /* \"#utility.yul\":4879:5298   */\n    tag_33:\n        /* \"#utility.yul\":5045:5049   */\n      0x00\n        /* \"#utility.yul\":5083:5085   */\n      0x20\n        /* \"#utility.yul\":5072:5081   */\n      dup3\n        /* \"#utility.yul\":5068:5086   */\n      add\n        /* \"#utility.yul\":5060:5086   */\n      swap1\n      pop\n        /* \"#utility.yul\":5132:5141   */\n      dup2\n        /* \"#utility.yul\":5126:5130   */\n      dup2\n        /* \"#utility.yul\":5122:5142   */\n      sub\n        /* \"#utility.yul\":5118:5119   */\n      0x00\n        /* \"#utility.yul\":5107:5116   */\n      dup4\n        /* \"#utility.yul\":5103:5120   */\n      add\n        /* \"#utility.yul\":5096:5143   */\n      mstore\n        /* \"#utility.yul\":5160:5291   */\n      tag_161\n        /* \"#utility.yul\":5286:5290   */\n      dup2\n        /* \"#utility.yul\":5160:5291   */\n      tag_91\n      jump\t// in\n    tag_161:\n        /* \"#utility.yul\":5152:5291   */\n      swap1\n      pop\n        /* \"#utility.yul\":4879:5298   */\n      swap2\n      swap1\n      pop\n      jump\t// out\n        /* \"#utility.yul\":5304:5484   */\n    tag_92:\n        /* \"#utility.yul\":5352:5429   */\n      0x4e487b7100000000000000000000000000000000000000000000000000000000\n        /* \"#utility.yul\":5349:5350   */\n      0x00\n        /* \"#utility.yul\":5342:5430   */\n      mstore\n        /* \"#utility.yul\":5449:5453   */\n      0x11\n        /* \"#utility.yul\":5446:5447   */\n      0x04\n        /* \"#utility.yul\":5439:5454   */\n      mstore\n        /* \"#utility.yul\":5473:5477   */\n      0x24\n        /* \"#utility.yul\":5470:5471   */\n      0x00\n        /* \"#utility.yul\":5463:5478   */\n      revert\n        /* \"#utility.yul\":5490:5900   */\n    tag_36:\n        /* \"#utility.yul\":5530:5537   */\n      0x00\n        /* \"#utility.yul\":5553:5573   */\n      tag_164\n        /* \"#utility.yul\":5571:5572   */\n      dup3\n        /* \"#utility.yul\":5553:5573   */\n      tag_81\n      jump\t// in\n    tag_164:\n        /* \"#utility.yul\":5548:5573   */\n      swap2\n      pop\n        /* \"#utility.yul\":5587:5607   */\n      tag_165\n        /* \"#utility.yul\":5605:5606   */\n      dup4\n        /* \"#utility.yul\":5587:5607   */\n      tag_81\n      jump\t// in\n    tag_165:\n        /* \"#utility.yul\":5582:5607   */\n      swap3\n      pop\n        /* \"#utility.yul\":5642:5643   */\n      dup3\n        /* \"#utility.yul\":5639:5640   */\n      dup3\n        /* \"#utility.yul\":5635:5644   */\n      mul\n        /* \"#utility.yul\":5664:5694   */\n      tag_166\n        /* \"#utility.yul\":5682:5693   */\n      dup2\n        /* \"#utility.yul\":5664:5694   */\n      tag_81\n      jump\t// in\n    tag_166:\n        /* \"#utility.yul\":5653:5694   */\n      swap2\n      pop\n        /* \"#utility.yul\":5843:5844   */\n      dup3\n        /* \"#utility.yul\":5834:5841   */\n      dup3\n        /* \"#utility.yul\":5830:5845   */\n      div\n        /* \"#utility.yul\":5827:5828   */\n      dup5\n        /* \"#utility.yul\":5824:5846   */\n      eq\n        /* \"#utility.yul\":5804:5805   */\n      dup4\n        /* \"#utility.yul\":5797:5806   */\n      iszero\n        /* \"#utility.yul\":5777:5860   */\n      or\n        /* \"#utility.yul\":5754:5893   */\n      tag_167\n      jumpi\n        /* \"#utility.yul\":5873:5891   */\n      tag_168\n      tag_92\n      jump\t// in\n    tag_168:\n        /* \"#utility.yul\":5754:5893   */\n    tag_167:\n        /* \"#utility.yul\":5538:5900   */\n      pop\n        /* \"#utility.yul\":5490:5900   */\n      swap3\n      swap2\n      pop\n      pop\n      jump\t// out\n        /* \"#utility.yul\":5906:6086   */\n    tag_93:\n        /* \"#utility.yul\":5954:6031   */\n      0x4e487b7100000000000000000000000000000000000000000000000000000000\n        /* \"#utility.yul\":5951:5952   */\n      0x00\n        /* \"#utility.yul\":5944:6032   */\n      mstore\n        /* \"#utility.yul\":6051:6055   */\n      0x12\n        /* \"#utility.yul\":6048:6049   */\n      0x04\n        /* \"#utility.yul\":6041:6056   */\n      mstore\n        /* \"#utility.yul\":6075:6079   */\n      0x24\n        /* \"#utility.yul\":6072:6073   */\n      0x00\n        /* \"#utility.yul\":6065:6080   */\n      revert\n        /* \"#utility.yul\":6092:6277   */\n    tag_38:\n        /* \"#utility.yul\":6132:6133   */\n      0x00\n        /* \"#utility.yul\":6149:6169   */\n      tag_171\n        /* \"#utility.yul\":6167:6168   */\n      dup3\n        /* \"#utility.yul\":6149:6169   */\n      tag_81\n      jump\t// in\n    tag_171:\n        /* \"#utility.yul\":6144:6169   */\n      swap2\n      pop\n        /* \"#utility.yul\":6183:6203   */\n      tag_172\n        /* \"#utility.yul\":6201:6202   */\n      dup4\n        /* \"#utility.yul\":6183:6203   */\n      tag_81\n      jump\t// in\n    tag_172:\n        /* \"#utility.yul\":6178:6203   */\n      swap3\n      pop\n        /* \"#utility.yul\":6222:6223   */\n      dup3\n        /* \"#utility.yul\":6212:6247   */\n      tag_173\n      jumpi\n        /* \"#utility.yul\":6227:6245   */\n      tag_174\n      tag_93\n      jump\t// in\n    tag_174:\n        /* \"#utility.yul\":6212:6247   */\n    tag_173:\n        /* \"#utility.yul\":6269:6270   */\n      dup3\n        /* \"#utility.yul\":6266:6267   */\n      dup3\n        /* \"#utility.yul\":6262:6271   */\n      div\n        /* \"#utility.yul\":6257:6271   */\n      swap1\n      pop\n        /* \"#utility.yul\":6092:6277   */\n      swap3\n      swap2\n      pop\n      pop\n      jump\t// out\n        /* \"#utility.yul\":6283:6464   */\n    tag_94:\n        /* \"#utility.yul\":6423:6456   */\n      0x73656c6c65722062616c616e636520697320657175616c20746f207a65726f00\n        /* \"#utility.yul\":6419:6420   */\n      0x00\n        /* \"#utility.yul\":6411:6417   */\n      dup3\n        /* \"#utility.yul\":6407:6421   */\n      add\n        /* \"#utility.yul\":6400:6457   */\n      mstore\n        /* \"#utility.yul\":6283:6464   */\n      pop\n      jump\t// out\n        /* \"#utility.yul\":6470:6836   */\n    tag_95:\n        /* \"#utility.yul\":6612:6615   */\n      0x00\n        /* \"#utility.yul\":6633:6700   */\n      tag_177\n        /* \"#utility.yul\":6697:6699   */\n      0x1f\n        /* \"#utility.yul\":6692:6695   */\n      dup4\n        /* \"#utility.yul\":6633:6700   */\n      tag_86\n      jump\t// in\n    tag_177:\n        /* \"#utility.yul\":6626:6700   */\n      swap2\n      pop\n        /* \"#utility.yul\":6709:6802   */\n      tag_178\n        /* \"#utility.yul\":6798:6801   */\n      dup3\n        /* \"#utility.yul\":6709:6802   */\n      tag_94\n      jump\t// in\n    tag_178:\n        /* \"#utility.yul\":6827:6829   */\n      0x20\n        /* \"#utility.yul\":6822:6825   */\n      dup3\n        /* \"#utility.yul\":6818:6830   */\n      add\n        /* \"#utility.yul\":6811:6830   */\n      swap1\n      pop\n        /* \"#utility.yul\":6470:6836   */\n      swap2\n      swap1\n      pop\n      jump\t// out\n        /* \"#utility.yul\":6842:7261   */\n    tag_41:\n        /* \"#utility.yul\":7008:7012   */\n      0x00\n        /* \"#utility.yul\":7046:7048   */\n      0x20\n        /* \"#utility.yul\":7035:7044   */\n      dup3\n        /* \"#utility.yul\":7031:7049   */\n      add\n        /* \"#utility.yul\":7023:7049   */\n      swap1\n      pop\n        /* \"#utility.yul\":7095:7104   */\n      dup2\n        /* \"#utility.yul\":7089:7093   */\n      dup2\n        /* \"#utility.yul\":7085:7105   */\n      sub\n        /* \"#utility.yul\":7081:7082   */\n      0x00\n        /* \"#utility.yul\":7070:7079   */\n      dup4\n        /* \"#utility.yul\":7066:7083   */\n      add\n        /* \"#utility.yul\":7059:7106   */\n      mstore\n        /* \"#utility.yul\":7123:7254   */\n      tag_180\n        /* \"#utility.yul\":7249:7253   */\n      dup2\n        /* \"#utility.yul\":7123:7254   */\n      tag_95\n      jump\t// in\n    tag_180:\n        /* \"#utility.yul\":7115:7254   */\n      swap1\n      pop\n        /* \"#utility.yul\":6842:7261   */\n      swap2\n      swap1\n      pop\n      jump\t// out\n        /* \"#utility.yul\":7267:7461   */\n    tag_44:\n        /* \"#utility.yul\":7307:7311   */\n      0x00\n        /* \"#utility.yul\":7327:7347   */\n      tag_182\n        /* \"#utility.yul\":7345:7346   */\n      dup3\n        /* \"#utility.yul\":7327:7347   */\n      tag_81\n      jump\t// in\n    tag_182:\n        /* \"#utility.yul\":7322:7347   */\n      swap2\n      pop\n        /* \"#utility.yul\":7361:7381   */\n      tag_183\n        /* \"#utility.yul\":7379:7380   */\n      dup4\n        /* \"#utility.yul\":7361:7381   */\n      tag_81\n      jump\t// in\n    tag_183:\n        /* \"#utility.yul\":7356:7381   */\n      swap3\n      pop\n        /* \"#utility.yul\":7405:7406   */\n      dup3\n        /* \"#utility.yul\":7402:7403   */\n      dup3\n        /* \"#utility.yul\":7398:7407   */\n      sub\n        /* \"#utility.yul\":7390:7407   */\n      swap1\n      pop\n        /* \"#utility.yul\":7429:7430   */\n      dup2\n        /* \"#utility.yul\":7423:7427   */\n      dup2\n        /* \"#utility.yul\":7420:7431   */\n      gt\n        /* \"#utility.yul\":7417:7454   */\n      iszero\n      tag_184\n      jumpi\n        /* \"#utility.yul\":7434:7452   */\n      tag_185\n      tag_92\n      jump\t// in\n    tag_185:\n        /* \"#utility.yul\":7417:7454   */\n    tag_184:\n        /* \"#utility.yul\":7267:7461   */\n      swap3\n      swap2\n      pop\n      pop\n      jump\t// out\n        /* \"#utility.yul\":7467:7640   */\n    tag_96:\n        /* \"#utility.yul\":7607:7632   */\n      0x6572726f72206e6f2075736572206f7220627579657220000000000000000000\n        /* \"#utility.yul\":7603:7604   */\n      0x00\n        /* \"#utility.yul\":7595:7601   */\n      dup3\n        /* \"#utility.yul\":7591:7605   */\n      add\n        /* \"#utility.yul\":7584:7633   */\n      mstore\n        /* \"#utility.yul\":7467:7640   */\n      pop\n      jump\t// out\n        /* \"#utility.yul\":7646:8012   */\n    tag_97:\n        /* \"#utility.yul\":7788:7791   */\n      0x00\n        /* \"#utility.yul\":7809:7876   */\n      tag_188\n        /* \"#utility.yul\":7873:7875   */\n      0x17\n        /* \"#utility.yul\":7868:7871   */\n      dup4\n        /* \"#utility.yul\":7809:7876   */\n      tag_86\n      jump\t// in\n    tag_188:\n        /* \"#utility.yul\":7802:7876   */\n      swap2\n      pop\n        /* \"#utility.yul\":7885:7978   */\n      tag_189\n        /* \"#utility.yul\":7974:7977   */\n      dup3\n        /* \"#utility.yul\":7885:7978   */\n      tag_96\n      jump\t// in\n    tag_189:\n        /* \"#utility.yul\":8003:8005   */\n      0x20\n        /* \"#utility.yul\":7998:8001   */\n      dup3\n        /* \"#utility.yul\":7994:8006   */\n      add\n        /* \"#utility.yul\":7987:8006   */\n      swap1\n      pop\n        /* \"#utility.yul\":7646:8012   */\n      swap2\n      swap1\n      pop\n      jump\t// out\n        /* \"#utility.yul\":8018:8437   */\n    tag_50:\n        /* \"#utility.yul\":8184:8188   */\n      0x00\n        /* \"#utility.yul\":8222:8224   */\n      0x20\n        /* \"#utility.yul\":8211:8220   */\n      dup3\n        /* \"#utility.yul\":8207:8225   */\n      add\n        /* \"#utility.yul\":8199:8225   */\n      swap1\n      pop\n        /* \"#utility.yul\":8271:8280   */\n      dup2\n        /* \"#utility.yul\":8265:8269   */\n      dup2\n        /* \"#utility.yul\":8261:8281   */\n      sub\n        /* \"#utility.yul\":8257:8258   */\n      0x00\n        /* \"#utility.yul\":8246:8255   */\n      dup4\n        /* \"#utility.yul\":8242:8259   */\n      add\n        /* \"#utility.yul\":8235:8282   */\n      mstore\n        /* \"#utility.yul\":8299:8430   */\n      tag_191\n        /* \"#utility.yul\":8425:8429   */\n      dup2\n        /* \"#utility.yul\":8299:8430   */\n      tag_97\n      jump\t// in\n    tag_191:\n        /* \"#utility.yul\":8291:8430   */\n      swap1\n      pop\n        /* \"#utility.yul\":8018:8437   */\n      swap2\n      swap1\n      pop\n      jump\t// out\n        /* \"#utility.yul\":8443:8610   */\n    tag_98:\n        /* \"#utility.yul\":8583:8602   */\n      0x4e6f206361736820696e70757474656420000000000000000000000000000000\n        /* \"#utility.yul\":8579:8580   */\n      0x00\n        /* \"#utility.yul\":8571:8577   */\n      dup3\n        /* \"#utility.yul\":8567:8581   */\n      add\n        /* \"#utility.yul\":8560:8603   */\n      mstore\n        /* \"#utility.yul\":8443:8610   */\n      pop\n      jump\t// out\n        /* \"#utility.yul\":8616:8982   */\n    tag_99:\n        /* \"#utility.yul\":8758:8761   */\n      0x00\n        /* \"#utility.yul\":8779:8846   */\n      tag_194\n        /* \"#utility.yul\":8843:8845   */\n      0x11\n        /* \"#utility.yul\":8838:8841   */\n      dup4\n        /* \"#utility.yul\":8779:8846   */\n      tag_86\n      jump\t// in\n    tag_194:\n        /* \"#utility.yul\":8772:8846   */\n      swap2\n      pop\n        /* \"#utility.yul\":8855:8948   */\n      tag_195\n        /* \"#utility.yul\":8944:8947   */\n      dup3\n        /* \"#utility.yul\":8855:8948   */\n      tag_98\n      jump\t// in\n    tag_195:\n        /* \"#utility.yul\":8973:8975   */\n      0x20\n        /* \"#utility.yul\":8968:8971   */\n      dup3\n        /* \"#utility.yul\":8964:8976   */\n      add\n        /* \"#utility.yul\":8957:8976   */\n      swap1\n      pop\n        /* \"#utility.yul\":8616:8982   */\n      swap2\n      swap1\n      pop\n      jump\t// out\n        /* \"#utility.yul\":8988:9407   */\n    tag_53:\n        /* \"#utility.yul\":9154:9158   */\n      0x00\n        /* \"#utility.yul\":9192:9194   */\n      0x20\n        /* \"#utility.yul\":9181:9190   */\n      dup3\n        /* \"#utility.yul\":9177:9195   */\n      add\n        /* \"#utility.yul\":9169:9195   */\n      swap1\n      pop\n        /* \"#utility.yul\":9241:9250   */\n      dup2\n        /* \"#utility.yul\":9235:9239   */\n      dup2\n        /* \"#utility.yul\":9231:9251   */\n      sub\n        /* \"#utility.yul\":9227:9228   */\n      0x00\n        /* \"#utility.yul\":9216:9225   */\n      dup4\n        /* \"#utility.yul\":9212:9229   */\n      add\n        /* \"#utility.yul\":9205:9252   */\n      mstore\n        /* \"#utility.yul\":9269:9400   */\n      tag_197\n        /* \"#utility.yul\":9395:9399   */\n      dup2\n        /* \"#utility.yul\":9269:9400   */\n      tag_99\n      jump\t// in\n    tag_197:\n        /* \"#utility.yul\":9261:9400   */\n      swap1\n      pop\n        /* \"#utility.yul\":8988:9407   */\n      swap2\n      swap1\n      pop\n      jump\t// out\n        /* \"#utility.yul\":9413:9604   */\n    tag_56:\n        /* \"#utility.yul\":9453:9456   */\n      0x00\n        /* \"#utility.yul\":9472:9492   */\n      tag_199\n        /* \"#utility.yul\":9490:9491   */\n      dup3\n        /* \"#utility.yul\":9472:9492   */\n      tag_81\n      jump\t// in\n    tag_199:\n        /* \"#utility.yul\":9467:9492   */\n      swap2\n      pop\n        /* \"#utility.yul\":9506:9526   */\n      tag_200\n        /* \"#utility.yul\":9524:9525   */\n      dup4\n        /* \"#utility.yul\":9506:9526   */\n      tag_81\n      jump\t// in\n    tag_200:\n        /* \"#utility.yul\":9501:9526   */\n      swap3\n      pop\n        /* \"#utility.yul\":9549:9550   */\n      dup3\n        /* \"#utility.yul\":9546:9547   */\n      dup3\n        /* \"#utility.yul\":9542:9551   */\n      add\n        /* \"#utility.yul\":9535:9551   */\n      swap1\n      pop\n        /* \"#utility.yul\":9570:9573   */\n      dup1\n        /* \"#utility.yul\":9567:9568   */\n      dup3\n        /* \"#utility.yul\":9564:9574   */\n      gt\n        /* \"#utility.yul\":9561:9597   */\n      iszero\n      tag_201\n      jumpi\n        /* \"#utility.yul\":9577:9595   */\n      tag_202\n      tag_92\n      jump\t// in\n    tag_202:\n        /* \"#utility.yul\":9561:9597   */\n    tag_201:\n        /* \"#utility.yul\":9413:9604   */\n      swap3\n      swap2\n      pop\n      pop\n      jump\t// out\n        /* \"#utility.yul\":9610:9785   */\n    tag_100:\n        /* \"#utility.yul\":9750:9777   */\n      0x427579657220616e642073656c6c6572206172652073616d6500000000000000\n        /* \"#utility.yul\":9746:9747   */\n      0x00\n        /* \"#utility.yul\":9738:9744   */\n      dup3\n        /* \"#utility.yul\":9734:9748   */\n      add\n        /* \"#utility.yul\":9727:9778   */\n      mstore\n        /* \"#utility.yul\":9610:9785   */\n      pop\n      jump\t// out\n        /* \"#utility.yul\":9791:10157   */\n    tag_101:\n        /* \"#utility.yul\":9933:9936   */\n      0x00\n        /* \"#utility.yul\":9954:10021   */\n      tag_205\n        /* \"#utility.yul\":10018:10020   */\n      0x19\n        /* \"#utility.yul\":10013:10016   */\n      dup4\n        /* \"#utility.yul\":9954:10021   */\n      tag_86\n      jump\t// in\n    tag_205:\n        /* \"#utility.yul\":9947:10021   */\n      swap2\n      pop\n        /* \"#utility.yul\":10030:10123   */\n      tag_206\n        /* \"#utility.yul\":10119:10122   */\n      dup3\n        /* \"#utility.yul\":10030:10123   */\n      tag_100\n      jump\t// in\n    tag_206:\n        /* \"#utility.yul\":10148:10150   */\n      0x20\n        /* \"#utility.yul\":10143:10146   */\n      dup3\n        /* \"#utility.yul\":10139:10151   */\n      add\n        /* \"#utility.yul\":10132:10151   */\n      swap1\n      pop\n        /* \"#utility.yul\":9791:10157   */\n      swap2\n      swap1\n      pop\n      jump\t// out\n        /* \"#utility.yul\":10163:10582   */\n    tag_59:\n        /* \"#utility.yul\":10329:10333   */\n      0x00\n        /* \"#utility.yul\":10367:10369   */\n      0x20\n        /* \"#utility.yul\":10356:10365   */\n      dup3\n        /* \"#utility.yul\":10352:10370   */\n      add\n        /* \"#utility.yul\":10344:10370   */\n      swap1\n      pop\n        /* \"#utility.yul\":10416:10425   */\n      dup2\n        /* \"#utility.yul\":10410:10414   */\n      dup2\n        /* \"#utility.yul\":10406:10426   */\n      sub\n        /* \"#utility.yul\":10402:10403   */\n      0x00\n        /* \"#utility.yul\":10391:10400   */\n      dup4\n        /* \"#utility.yul\":10387:10404   */\n      add\n        /* \"#utility.yul\":10380:10427   */\n      mstore\n        /* \"#utility.yul\":10444:10575   */\n      tag_208\n        /* \"#utility.yul\":10570:10574   */\n      dup2\n        /* \"#utility.yul\":10444:10575   */\n      tag_101\n      jump\t// in\n    tag_208:\n        /* \"#utility.yul\":10436:10575   */\n      swap1\n      pop\n        /* \"#utility.yul\":10163:10582   */\n      swap2\n      swap1\n      pop\n      jump\t// out\n        /* \"#utility.yul\":10588:10706   */\n    tag_102:\n        /* \"#utility.yul\":10675:10699   */\n      tag_210\n        /* \"#utility.yul\":10693:10698   */\n      dup2\n        /* \"#utility.yul\":10675:10699   */\n      tag_78\n      jump\t// in\n    tag_210:\n        /* \"#utility.yul\":10670:10673   */\n      dup3\n        /* \"#utility.yul\":10663:10700   */\n      mstore\n        /* \"#utility.yul\":10588:10706   */\n      pop\n      pop\n      jump\t// out\n        /* \"#utility.yul\":10712:11154   */\n    tag_61:\n        /* \"#utility.yul\":10861:10865   */\n      0x00\n        /* \"#utility.yul\":10899:10901   */\n      0x60\n        /* \"#utility.yul\":10888:10897   */\n      dup3\n        /* \"#utility.yul\":10884:10902   */\n      add\n        /* \"#utility.yul\":10876:10902   */\n      swap1\n      pop\n        /* \"#utility.yul\":10912:10983   */\n      tag_212\n        /* \"#utility.yul\":10980:10981   */\n      0x00\n        /* \"#utility.yul\":10969:10978   */\n      dup4\n        /* \"#utility.yul\":10965:10982   */\n      add\n        /* \"#utility.yul\":10956:10962   */\n      dup7\n        /* \"#utility.yul\":10912:10983   */\n      tag_102\n      jump\t// in\n    tag_212:\n        /* \"#utility.yul\":10993:11065   */\n      tag_213\n        /* \"#utility.yul\":11061:11063   */\n      0x20\n        /* \"#utility.yul\":11050:11059   */\n      dup4\n        /* \"#utility.yul\":11046:11064   */\n      add\n        /* \"#utility.yul\":11037:11043   */\n      dup6\n        /* \"#utility.yul\":10993:11065   */\n      tag_102\n      jump\t// in\n    tag_213:\n        /* \"#utility.yul\":11075:11147   */\n      tag_214\n        /* \"#utility.yul\":11143:11145   */\n      0x40\n        /* \"#utility.yul\":11132:11141   */\n      dup4\n        /* \"#utility.yul\":11128:11146   */\n      add\n        /* \"#utility.yul\":11119:11125   */\n      dup5\n        /* \"#utility.yul\":11075:11147   */\n      tag_84\n      jump\t// in\n    tag_214:\n        /* \"#utility.yul\":10712:11154   */\n      swap5\n      swap4\n      pop\n      pop\n      pop\n      pop\n      jump\t// out\n        /* \"#utility.yul\":11160:11328   */\n    tag_103:\n        /* \"#utility.yul\":11300:11320   */\n      0x796f752063616e20627579207468696e67730000000000000000000000000000\n        /* \"#utility.yul\":11296:11297   */\n      0x00\n        /* \"#utility.yul\":11288:11294   */\n      dup3\n        /* \"#utility.yul\":11284:11298   */\n      add\n        /* \"#utility.yul\":11277:11321   */\n      mstore\n        /* \"#utility.yul\":11160:11328   */\n      pop\n      jump\t// out\n        /* \"#utility.yul\":11334:11700   */\n    tag_104:\n        /* \"#utility.yul\":11476:11479   */\n      0x00\n        /* \"#utility.yul\":11497:11564   */\n      tag_217\n        /* \"#utility.yul\":11561:11563   */\n      0x12\n        /* \"#utility.yul\":11556:11559   */\n      dup4\n        /* \"#utility.yul\":11497:11564   */\n      tag_86\n      jump\t// in\n    tag_217:\n        /* \"#utility.yul\":11490:11564   */\n      swap2\n      pop\n        /* \"#utility.yul\":11573:11666   */\n      tag_218\n        /* \"#utility.yul\":11662:11665   */\n      dup3\n        /* \"#utility.yul\":11573:11666   */\n      tag_103\n      jump\t// in\n    tag_218:\n        /* \"#utility.yul\":11691:11693   */\n      0x20\n        /* \"#utility.yul\":11686:11689   */\n      dup3\n        /* \"#utility.yul\":11682:11694   */\n      add\n        /* \"#utility.yul\":11675:11694   */\n      swap1\n      pop\n        /* \"#utility.yul\":11334:11700   */\n      swap2\n      swap1\n      pop\n      jump\t// out\n        /* \"#utility.yul\":11706:12125   */\n    tag_70:\n        /* \"#utility.yul\":11872:11876   */\n      0x00\n        /* \"#utility.yul\":11910:11912   */\n      0x20\n        /* \"#utility.yul\":11899:11908   */\n      dup3\n        /* \"#utility.yul\":11895:11913   */\n      add\n        /* \"#utility.yul\":11887:11913   */\n      swap1\n      pop\n        /* \"#utility.yul\":11959:11968   */\n      dup2\n        /* \"#utility.yul\":11953:11957   */\n      dup2\n        /* \"#utility.yul\":11949:11969   */\n      sub\n        /* \"#utility.yul\":11945:11946   */\n      0x00\n        /* \"#utility.yul\":11934:11943   */\n      dup4\n        /* \"#utility.yul\":11930:11947   */\n      add\n        /* \"#utility.yul\":11923:11970   */\n      mstore\n        /* \"#utility.yul\":11987:12118   */\n      tag_220\n        /* \"#utility.yul\":12113:12117   */\n      dup2\n        /* \"#utility.yul\":11987:12118   */\n      tag_104\n      jump\t// in\n    tag_220:\n        /* \"#utility.yul\":11979:12118   */\n      swap1\n      pop\n        /* \"#utility.yul\":11706:12125   */\n      swap2\n      swap1\n      pop\n      jump\t// out\n\n    auxdata: 0xa2646970667358221220ff453467a7f800987ad7e13b3d0722f80160f4b8d1da4cc2d68832644adf990764736f6c63430008120033\n}\n",
				"bytecode": {
					"linkReferences": {},
					"object": "608060405234801561001057600080fd5b50604051610e78380380610e788339818101604052810190610032919061007a565b80600181905550506100a7565b600080fd5b6000819050919050565b61005781610044565b811461006257600080fd5b50565b6000815190506100748161004e565b92915050565b6000602082840312156100905761008f61003f565b5b600061009e84828501610065565b91505092915050565b610dc2806100b66000396000f3fe608060405234801561001057600080fd5b50600436106100575760003560e01c80636d705ebb1461005c578063bef7a2f014610078578063cae270b614610096578063d0c183be146100c6578063ebfb412d146100e2575b600080fd5b610076600480360381019061007191906107e9565b610112565b005b61008061019c565b60405161008d9190610838565b60405180910390f35b6100b060048036038101906100ab9190610853565b6101a2565b6040516100bd9190610936565b60405180910390f35b6100e060048036038101906100db9190610853565b610263565b005b6100fc60048036038101906100f79190610958565b6104a6565b6040516101099190610838565b60405180910390f35b60008103610155576040517f08c379a000000000000000000000000000000000000000000000000000000000815260040161014c906109d1565b60405180910390fd5b806000808473ffffffffffffffffffffffffffffffffffffffff1673ffffffffffffffffffffffffffffffffffffffff168152602001908152602001600020819055505050565b60015481565b606060006064600154846101b69190610a20565b6101c09190610a91565b905060008060008673ffffffffffffffffffffffffffffffffffffffff1673ffffffffffffffffffffffffffffffffffffffff1681526020019081526020016000205403610243576040517f08c379a000000000000000000000000000000000000000000000000000000000815260040161023a90610b0e565b60405180910390fd5b610259858583866102549190610b2e565b6104be565b9150509392505050565b600073ffffffffffffffffffffffffffffffffffffffff168373ffffffffffffffffffffffffffffffffffffffff161415806102cc5750600073ffffffffffffffffffffffffffffffffffffffff168273ffffffffffffffffffffffffffffffffffffffff1614155b61030b576040517f08c379a000000000000000000000000000000000000000000000000000000000815260040161030290610bae565b60405180910390fd5b6000810361034e576040517f08c379a000000000000000000000000000000000000000000000000000000000815260040161034590610c1a565b60405180910390fd5b806000808573ffffffffffffffffffffffffffffffffffffffff1673ffffffffffffffffffffffffffffffffffffffff168152602001908152602001600020600082825461039c9190610b2e565b92505081905550806000808473ffffffffffffffffffffffffffffffffffffffff1673ffffffffffffffffffffffffffffffffffffffff16815260200190815260200160002060008282546103f19190610c3a565b925050819055508173ffffffffffffffffffffffffffffffffffffffff168373ffffffffffffffffffffffffffffffffffffffff1603610466576040517f08c379a000000000000000000000000000000000000000000000000000000000815260040161045d90610cba565b60405180910390fd5b7f22e3ae3a20c49dce14046235895c7a3ffc0a6a5f3577c370177ad45fa619485d83838360405161049993929190610ce9565b60405180910390a1505050565b60006020528060005260406000206000915090505481565b6060600073ffffffffffffffffffffffffffffffffffffffff168473ffffffffffffffffffffffffffffffffffffffff161415806105295750600073ffffffffffffffffffffffffffffffffffffffff168373ffffffffffffffffffffffffffffffffffffffff1614155b610568576040517f08c379a000000000000000000000000000000000000000000000000000000000815260040161055f90610bae565b60405180910390fd5b600082036105ab576040517f08c379a00000000000000000000000000000000000000000000000000000000081526004016105a290610c1a565b60405180910390fd5b816000808673ffffffffffffffffffffffffffffffffffffffff1673ffffffffffffffffffffffffffffffffffffffff16815260200190815260200160002054101561062c576040517f08c379a000000000000000000000000000000000000000000000000000000000815260040161062390610d6c565b60405180910390fd5b816000808673ffffffffffffffffffffffffffffffffffffffff1673ffffffffffffffffffffffffffffffffffffffff168152602001908152602001600020600082825461067a9190610b2e565b92505081905550816000808573ffffffffffffffffffffffffffffffffffffffff1673ffffffffffffffffffffffffffffffffffffffff16815260200190815260200160002060008282546106cf9190610c3a565b925050819055507f22e3ae3a20c49dce14046235895c7a3ffc0a6a5f3577c370177ad45fa619485d84848460405161070993929190610ce9565b60405180910390a16040518060400160405280602081526020017f6974656d2077696c6c206265207368697070656420746f206c6f636174696f6e81525090509392505050565b600080fd5b600073ffffffffffffffffffffffffffffffffffffffff82169050919050565b600061078082610755565b9050919050565b61079081610775565b811461079b57600080fd5b50565b6000813590506107ad81610787565b92915050565b6000819050919050565b6107c6816107b3565b81146107d157600080fd5b50565b6000813590506107e3816107bd565b92915050565b60008060408385031215610800576107ff610750565b5b600061080e8582860161079e565b925050602061081f858286016107d4565b9150509250929050565b610832816107b3565b82525050565b600060208201905061084d6000830184610829565b92915050565b60008060006060848603121561086c5761086b610750565b5b600061087a8682870161079e565b935050602061088b8682870161079e565b925050604061089c868287016107d4565b9150509250925092565b600081519050919050565b600082825260208201905092915050565b60005b838110156108e05780820151818401526020810190506108c5565b60008484015250505050565b6000601f19601f8301169050919050565b6000610908826108a6565b61091281856108b1565b93506109228185602086016108c2565b61092b816108ec565b840191505092915050565b6000602082019050818103600083015261095081846108fd565b905092915050565b60006020828403121561096e5761096d610750565b5b600061097c8482850161079e565b91505092915050565b7f4572726f72206e6f20616e792062616c616e6365000000000000000000000000600082015250565b60006109bb6014836108b1565b91506109c682610985565b602082019050919050565b600060208201905081810360008301526109ea816109ae565b9050919050565b7f4e487b7100000000000000000000000000000000000000000000000000000000600052601160045260246000fd5b6000610a2b826107b3565b9150610a36836107b3565b9250828202610a44816107b3565b91508282048414831517610a5b57610a5a6109f1565b5b5092915050565b7f4e487b7100000000000000000000000000000000000000000000000000000000600052601260045260246000fd5b6000610a9c826107b3565b9150610aa7836107b3565b925082610ab757610ab6610a62565b5b828204905092915050565b7f73656c6c65722062616c616e636520697320657175616c20746f207a65726f00600082015250565b6000610af8601f836108b1565b9150610b0382610ac2565b602082019050919050565b60006020820190508181036000830152610b2781610aeb565b9050919050565b6000610b39826107b3565b9150610b44836107b3565b9250828203905081811115610b5c57610b5b6109f1565b5b92915050565b7f6572726f72206e6f2075736572206f7220627579657220000000000000000000600082015250565b6000610b986017836108b1565b9150610ba382610b62565b602082019050919050565b60006020820190508181036000830152610bc781610b8b565b9050919050565b7f4e6f206361736820696e70757474656420000000000000000000000000000000600082015250565b6000610c046011836108b1565b9150610c0f82610bce565b602082019050919050565b60006020820190508181036000830152610c3381610bf7565b9050919050565b6000610c45826107b3565b9150610c50836107b3565b9250828201905080821115610c6857610c676109f1565b5b92915050565b7f427579657220616e642073656c6c6572206172652073616d6500000000000000600082015250565b6000610ca46019836108b1565b9150610caf82610c6e565b602082019050919050565b60006020820190508181036000830152610cd381610c97565b9050919050565b610ce381610775565b82525050565b6000606082019050610cfe6000830186610cda565b610d0b6020830185610cda565b610d186040830184610829565b949350505050565b7f796f752063616e20627579207468696e67730000000000000000000000000000600082015250565b6000610d566012836108b1565b9150610d6182610d20565b602082019050919050565b60006020820190508181036000830152610d8581610d49565b905091905056fea2646970667358221220ff453467a7f800987ad7e13b3d0722f80160f4b8d1da4cc2d68832644adf990764736f6c63430008120033",
					"opcodes": "PUSH1 0x80 PUSH1 0x40 MSTORE CALLVALUE DUP1 ISZERO PUSH2 0x10 JUMPI PUSH1 0x0 DUP1 REVERT JUMPDEST POP PUSH1 0x40 MLOAD PUSH2 0xE78 CODESIZE SUB DUP1 PUSH2 0xE78 DUP4 CODECOPY DUP2 DUP2 ADD PUSH1 0x40 MSTORE DUP2 ADD SWAP1 PUSH2 0x32 SWAP2 SWAP1 PUSH2 0x7A JUMP JUMPDEST DUP1 PUSH1 0x1 DUP2 SWAP1 SSTORE POP POP PUSH2 0xA7 JUMP JUMPDEST PUSH1 0x0 DUP1 REVERT JUMPDEST PUSH1 0x0 DUP2 SWAP1 POP SWAP2 SWAP1 POP JUMP JUMPDEST PUSH2 0x57 DUP2 PUSH2 0x44 JUMP JUMPDEST DUP2 EQ PUSH2 0x62 JUMPI PUSH1 0x0 DUP1 REVERT JUMPDEST POP JUMP JUMPDEST PUSH1 0x0 DUP2 MLOAD SWAP1 POP PUSH2 0x74 DUP2 PUSH2 0x4E JUMP JUMPDEST SWAP3 SWAP2 POP POP JUMP JUMPDEST PUSH1 0x0 PUSH1 0x20 DUP3 DUP5 SUB SLT ISZERO PUSH2 0x90 JUMPI PUSH2 0x8F PUSH2 0x3F JUMP JUMPDEST JUMPDEST PUSH1 0x0 PUSH2 0x9E DUP5 DUP3 DUP6 ADD PUSH2 0x65 JUMP JUMPDEST SWAP2 POP POP SWAP3 SWAP2 POP POP JUMP JUMPDEST PUSH2 0xDC2 DUP1 PUSH2 0xB6 PUSH1 0x0 CODECOPY PUSH1 0x0 RETURN INVALID PUSH1 0x80 PUSH1 0x40 MSTORE CALLVALUE DUP1 ISZERO PUSH2 0x10 JUMPI PUSH1 0x0 DUP1 REVERT JUMPDEST POP PUSH1 0x4 CALLDATASIZE LT PUSH2 0x57 JUMPI PUSH1 0x0 CALLDATALOAD PUSH1 0xE0 SHR DUP1 PUSH4 0x6D705EBB EQ PUSH2 0x5C JUMPI DUP1 PUSH4 0xBEF7A2F0 EQ PUSH2 0x78 JUMPI DUP1 PUSH4 0xCAE270B6 EQ PUSH2 0x96 JUMPI DUP1 PUSH4 0xD0C183BE EQ PUSH2 0xC6 JUMPI DUP1 PUSH4 0xEBFB412D EQ PUSH2 0xE2 JUMPI JUMPDEST PUSH1 0x0 DUP1 REVERT JUMPDEST PUSH2 0x76 PUSH1 0x4 DUP1 CALLDATASIZE SUB DUP2 ADD SWAP1 PUSH2 0x71 SWAP2 SWAP1 PUSH2 0x7E9 JUMP JUMPDEST PUSH2 0x112 JUMP JUMPDEST STOP JUMPDEST PUSH2 0x80 PUSH2 0x19C JUMP JUMPDEST PUSH1 0x40 MLOAD PUSH2 0x8D SWAP2 SWAP1 PUSH2 0x838 JUMP JUMPDEST PUSH1 0x40 MLOAD DUP1 SWAP2 SUB SWAP1 RETURN JUMPDEST PUSH2 0xB0 PUSH1 0x4 DUP1 CALLDATASIZE SUB DUP2 ADD SWAP1 PUSH2 0xAB SWAP2 SWAP1 PUSH2 0x853 JUMP JUMPDEST PUSH2 0x1A2 JUMP JUMPDEST PUSH1 0x40 MLOAD PUSH2 0xBD SWAP2 SWAP1 PUSH2 0x936 JUMP JUMPDEST PUSH1 0x40 MLOAD DUP1 SWAP2 SUB SWAP1 RETURN JUMPDEST PUSH2 0xE0 PUSH1 0x4 DUP1 CALLDATASIZE SUB DUP2 ADD SWAP1 PUSH2 0xDB SWAP2 SWAP1 PUSH2 0x853 JUMP JUMPDEST PUSH2 0x263 JUMP JUMPDEST STOP JUMPDEST PUSH2 0xFC PUSH1 0x4 DUP1 CALLDATASIZE SUB DUP2 ADD SWAP1 PUSH2 0xF7 SWAP2 SWAP1 PUSH2 0x958 JUMP JUMPDEST PUSH2 0x4A6 JUMP JUMPDEST PUSH1 0x40 MLOAD PUSH2 0x109 SWAP2 SWAP1 PUSH2 0x838 JUMP JUMPDEST PUSH1 0x40 MLOAD DUP1 SWAP2 SUB SWAP1 RETURN JUMPDEST PUSH1 0x0 DUP2 SUB PUSH2 0x155 JUMPI PUSH1 0x40 MLOAD PUSH32 0x8C379A000000000000000000000000000000000000000000000000000000000 DUP2 MSTORE PUSH1 0x4 ADD PUSH2 0x14C SWAP1 PUSH2 0x9D1 JUMP JUMPDEST PUSH1 0x40 MLOAD DUP1 SWAP2 SUB SWAP1 REVERT JUMPDEST DUP1 PUSH1 0x0 DUP1 DUP5 PUSH20 0xFFFFFFFFFFFFFFFFFFFFFFFFFFFFFFFFFFFFFFFF AND PUSH20 0xFFFFFFFFFFFFFFFFFFFFFFFFFFFFFFFFFFFFFFFF AND DUP2 MSTORE PUSH1 0x20 ADD SWAP1 DUP2 MSTORE PUSH1 0x20 ADD PUSH1 0x0 KECCAK256 DUP2 SWAP1 SSTORE POP POP POP JUMP JUMPDEST PUSH1 0x1 SLOAD DUP2 JUMP JUMPDEST PUSH1 0x60 PUSH1 0x0 PUSH1 0x64 PUSH1 0x1 SLOAD DUP5 PUSH2 0x1B6 SWAP2 SWAP1 PUSH2 0xA20 JUMP JUMPDEST PUSH2 0x1C0 SWAP2 SWAP1 PUSH2 0xA91 JUMP JUMPDEST SWAP1 POP PUSH1 0x0 DUP1 PUSH1 0x0 DUP7 PUSH20 0xFFFFFFFFFFFFFFFFFFFFFFFFFFFFFFFFFFFFFFFF AND PUSH20 0xFFFFFFFFFFFFFFFFFFFFFFFFFFFFFFFFFFFFFFFF AND DUP2 MSTORE PUSH1 0x20 ADD SWAP1 DUP2 MSTORE PUSH1 0x20 ADD PUSH1 0x0 KECCAK256 SLOAD SUB PUSH2 0x243 JUMPI PUSH1 0x40 MLOAD PUSH32 0x8C379A000000000000000000000000000000000000000000000000000000000 DUP2 MSTORE PUSH1 0x4 ADD PUSH2 0x23A SWAP1 PUSH2 0xB0E JUMP JUMPDEST PUSH1 0x40 MLOAD DUP1 SWAP2 SUB SWAP1 REVERT JUMPDEST PUSH2 0x259 DUP6 DUP6 DUP4 DUP7 PUSH2 0x254 SWAP2 SWAP1 PUSH2 0xB2E JUMP JUMPDEST PUSH2 0x4BE JUMP JUMPDEST SWAP2 POP POP SWAP4 SWAP3 POP POP POP JUMP JUMPDEST PUSH1 0x0 PUSH20 0xFFFFFFFFFFFFFFFFFFFFFFFFFFFFFFFFFFFFFFFF AND DUP4 PUSH20 0xFFFFFFFFFFFFFFFFFFFFFFFFFFFFFFFFFFFFFFFF AND EQ ISZERO DUP1 PUSH2 0x2CC JUMPI POP PUSH1 0x0 PUSH20 0xFFFFFFFFFFFFFFFFFFFFFFFFFFFFFFFFFFFFFFFF AND DUP3 PUSH20 0xFFFFFFFFFFFFFFFFFFFFFFFFFFFFFFFFFFFFFFFF AND EQ ISZERO JUMPDEST PUSH2 0x30B JUMPI PUSH1 0x40 MLOAD PUSH32 0x8C379A000000000000000000000000000000000000000000000000000000000 DUP2 MSTORE PUSH1 0x4 ADD PUSH2 0x302 SWAP1 PUSH2 0xBAE JUMP JUMPDEST PUSH1 0x40 MLOAD DUP1 SWAP2 SUB SWAP1 REVERT JUMPDEST PUSH1 0x0 DUP2 SUB PUSH2 0x34E JUMPI PUSH1 0x40 MLOAD PUSH32 0x8C379A000000000000000000000000000000000000000000000000000000000 DUP2 MSTORE PUSH1 0x4 ADD PUSH2 0x345 SWAP1 PUSH2 0xC1A JUMP JUMPDEST PUSH1 0x40 MLOAD DUP1 SWAP2 SUB SWAP1 REVERT JUMPDEST DUP1 PUSH1 0x0 DUP1 DUP6 PUSH20 0xFFFFFFFFFFFFFFFFFFFFFFFFFFFFFFFFFFFFFFFF AND PUSH20 0xFFFFFFFFFFFFFFFFFFFFFFFFFFFFFFFFFFFFFFFF AND DUP2 MSTORE PUSH1 0x20 ADD SWAP1 DUP2 MSTORE PUSH1 0x20 ADD PUSH1 0x0 KECCAK256 PUSH1 0x0 DUP3 DUP3 SLOAD PUSH2 0x39C SWAP2 SWAP1 PUSH2 0xB2E JUMP JUMPDEST SWAP3 POP POP DUP2 SWAP1 SSTORE POP DUP1 PUSH1 0x0 DUP1 DUP5 PUSH20 0xFFFFFFFFFFFFFFFFFFFFFFFFFFFFFFFFFFFFFFFF AND PUSH20 0xFFFFFFFFFFFFFFFFFFFFFFFFFFFFFFFFFFFFFFFF AND DUP2 MSTORE PUSH1 0x20 ADD SWAP1 DUP2 MSTORE PUSH1 0x20 ADD PUSH1 0x0 KECCAK256 PUSH1 0x0 DUP3 DUP3 SLOAD PUSH2 0x3F1 SWAP2 SWAP1 PUSH2 0xC3A JUMP JUMPDEST SWAP3 POP POP DUP2 SWAP1 SSTORE POP DUP2 PUSH20 0xFFFFFFFFFFFFFFFFFFFFFFFFFFFFFFFFFFFFFFFF AND DUP4 PUSH20 0xFFFFFFFFFFFFFFFFFFFFFFFFFFFFFFFFFFFFFFFF AND SUB PUSH2 0x466 JUMPI PUSH1 0x40 MLOAD PUSH32 0x8C379A000000000000000000000000000000000000000000000000000000000 DUP2 MSTORE PUSH1 0x4 ADD PUSH2 0x45D SWAP1 PUSH2 0xCBA JUMP JUMPDEST PUSH1 0x40 MLOAD DUP1 SWAP2 SUB SWAP1 REVERT JUMPDEST PUSH32 0x22E3AE3A20C49DCE14046235895C7A3FFC0A6A5F3577C370177AD45FA619485D DUP4 DUP4 DUP4 PUSH1 0x40 MLOAD PUSH2 0x499 SWAP4 SWAP3 SWAP2 SWAP1 PUSH2 0xCE9 JUMP JUMPDEST PUSH1 0x40 MLOAD DUP1 SWAP2 SUB SWAP1 LOG1 POP POP POP JUMP JUMPDEST PUSH1 0x0 PUSH1 0x20 MSTORE DUP1 PUSH1 0x0 MSTORE PUSH1 0x40 PUSH1 0x0 KECCAK256 PUSH1 0x0 SWAP2 POP SWAP1 POP SLOAD DUP2 JUMP JUMPDEST PUSH1 0x60 PUSH1 0x0 PUSH20 0xFFFFFFFFFFFFFFFFFFFFFFFFFFFFFFFFFFFFFFFF AND DUP5 PUSH20 0xFFFFFFFFFFFFFFFFFFFFFFFFFFFFFFFFFFFFFFFF AND EQ ISZERO DUP1 PUSH2 0x529 JUMPI POP PUSH1 0x0 PUSH20 0xFFFFFFFFFFFFFFFFFFFFFFFFFFFFFFFFFFFFFFFF AND DUP4 PUSH20 0xFFFFFFFFFFFFFFFFFFFFFFFFFFFFFFFFFFFFFFFF AND EQ ISZERO JUMPDEST PUSH2 0x568 JUMPI PUSH1 0x40 MLOAD PUSH32 0x8C379A000000000000000000000000000000000000000000000000000000000 DUP2 MSTORE PUSH1 0x4 ADD PUSH2 0x55F SWAP1 PUSH2 0xBAE JUMP JUMPDEST PUSH1 0x40 MLOAD DUP1 SWAP2 SUB SWAP1 REVERT JUMPDEST PUSH1 0x0 DUP3 SUB PUSH2 0x5AB JUMPI PUSH1 0x40 MLOAD PUSH32 0x8C379A000000000000000000000000000000000000000000000000000000000 DUP2 MSTORE PUSH1 0x4 ADD PUSH2 0x5A2 SWAP1 PUSH2 0xC1A JUMP JUMPDEST PUSH1 0x40 MLOAD DUP1 SWAP2 SUB SWAP1 REVERT JUMPDEST DUP2 PUSH1 0x0 DUP1 DUP7 PUSH20 0xFFFFFFFFFFFFFFFFFFFFFFFFFFFFFFFFFFFFFFFF AND PUSH20 0xFFFFFFFFFFFFFFFFFFFFFFFFFFFFFFFFFFFFFFFF AND DUP2 MSTORE PUSH1 0x20 ADD SWAP1 DUP2 MSTORE PUSH1 0x20 ADD PUSH1 0x0 KECCAK256 SLOAD LT ISZERO PUSH2 0x62C JUMPI PUSH1 0x40 MLOAD PUSH32 0x8C379A000000000000000000000000000000000000000000000000000000000 DUP2 MSTORE PUSH1 0x4 ADD PUSH2 0x623 SWAP1 PUSH2 0xD6C JUMP JUMPDEST PUSH1 0x40 MLOAD DUP1 SWAP2 SUB SWAP1 REVERT JUMPDEST DUP2 PUSH1 0x0 DUP1 DUP7 PUSH20 0xFFFFFFFFFFFFFFFFFFFFFFFFFFFFFFFFFFFFFFFF AND PUSH20 0xFFFFFFFFFFFFFFFFFFFFFFFFFFFFFFFFFFFFFFFF AND DUP2 MSTORE PUSH1 0x20 ADD SWAP1 DUP2 MSTORE PUSH1 0x20 ADD PUSH1 0x0 KECCAK256 PUSH1 0x0 DUP3 DUP3 SLOAD PUSH2 0x67A SWAP2 SWAP1 PUSH2 0xB2E JUMP JUMPDEST SWAP3 POP POP DUP2 SWAP1 SSTORE POP DUP2 PUSH1 0x0 DUP1 DUP6 PUSH20 0xFFFFFFFFFFFFFFFFFFFFFFFFFFFFFFFFFFFFFFFF AND PUSH20 0xFFFFFFFFFFFFFFFFFFFFFFFFFFFFFFFFFFFFFFFF AND DUP2 MSTORE PUSH1 0x20 ADD SWAP1 DUP2 MSTORE PUSH1 0x20 ADD PUSH1 0x0 KECCAK256 PUSH1 0x0 DUP3 DUP3 SLOAD PUSH2 0x6CF SWAP2 SWAP1 PUSH2 0xC3A JUMP JUMPDEST SWAP3 POP POP DUP2 SWAP1 SSTORE POP PUSH32 0x22E3AE3A20C49DCE14046235895C7A3FFC0A6A5F3577C370177AD45FA619485D DUP5 DUP5 DUP5 PUSH1 0x40 MLOAD PUSH2 0x709 SWAP4 SWAP3 SWAP2 SWAP1 PUSH2 0xCE9 JUMP JUMPDEST PUSH1 0x40 MLOAD DUP1 SWAP2 SUB SWAP1 LOG1 PUSH1 0x40 MLOAD DUP1 PUSH1 0x40 ADD PUSH1 0x40 MSTORE DUP1 PUSH1 0x20 DUP2 MSTORE PUSH1 0x20 ADD PUSH32 0x6974656D2077696C6C206265207368697070656420746F206C6F636174696F6E DUP2 MSTORE POP SWAP1 POP SWAP4 SWAP3 POP POP POP JUMP JUMPDEST PUSH1 0x0 DUP1 REVERT JUMPDEST PUSH1 0x0 PUSH20 0xFFFFFFFFFFFFFFFFFFFFFFFFFFFFFFFFFFFFFFFF DUP3 AND SWAP1 POP SWAP2 SWAP1 POP JUMP JUMPDEST PUSH1 0x0 PUSH2 0x780 DUP3 PUSH2 0x755 JUMP JUMPDEST SWAP1 POP SWAP2 SWAP1 POP JUMP JUMPDEST PUSH2 0x790 DUP2 PUSH2 0x775 JUMP JUMPDEST DUP2 EQ PUSH2 0x79B JUMPI PUSH1 0x0 DUP1 REVERT JUMPDEST POP JUMP JUMPDEST PUSH1 0x0 DUP2 CALLDATALOAD SWAP1 POP PUSH2 0x7AD DUP2 PUSH2 0x787 JUMP JUMPDEST SWAP3 SWAP2 POP POP JUMP JUMPDEST PUSH1 0x0 DUP2 SWAP1 POP SWAP2 SWAP1 POP JUMP JUMPDEST PUSH2 0x7C6 DUP2 PUSH2 0x7B3 JUMP JUMPDEST DUP2 EQ PUSH2 0x7D1 JUMPI PUSH1 0x0 DUP1 REVERT JUMPDEST POP JUMP JUMPDEST PUSH1 0x0 DUP2 CALLDATALOAD SWAP1 POP PUSH2 0x7E3 DUP2 PUSH2 0x7BD JUMP JUMPDEST SWAP3 SWAP2 POP POP JUMP JUMPDEST PUSH1 0x0 DUP1 PUSH1 0x40 DUP4 DUP6 SUB SLT ISZERO PUSH2 0x800 JUMPI PUSH2 0x7FF PUSH2 0x750 JUMP JUMPDEST JUMPDEST PUSH1 0x0 PUSH2 0x80E DUP6 DUP3 DUP7 ADD PUSH2 0x79E JUMP JUMPDEST SWAP3 POP POP PUSH1 0x20 PUSH2 0x81F DUP6 DUP3 DUP7 ADD PUSH2 0x7D4 JUMP JUMPDEST SWAP2 POP POP SWAP3 POP SWAP3 SWAP1 POP JUMP JUMPDEST PUSH2 0x832 DUP2 PUSH2 0x7B3 JUMP JUMPDEST DUP3 MSTORE POP POP JUMP JUMPDEST PUSH1 0x0 PUSH1 0x20 DUP3 ADD SWAP1 POP PUSH2 0x84D PUSH1 0x0 DUP4 ADD DUP5 PUSH2 0x829 JUMP JUMPDEST SWAP3 SWAP2 POP POP JUMP JUMPDEST PUSH1 0x0 DUP1 PUSH1 0x0 PUSH1 0x60 DUP5 DUP7 SUB SLT ISZERO PUSH2 0x86C JUMPI PUSH2 0x86B PUSH2 0x750 JUMP JUMPDEST JUMPDEST PUSH1 0x0 PUSH2 0x87A DUP7 DUP3 DUP8 ADD PUSH2 0x79E JUMP JUMPDEST SWAP4 POP POP PUSH1 0x20 PUSH2 0x88B DUP7 DUP3 DUP8 ADD PUSH2 0x79E JUMP JUMPDEST SWAP3 POP POP PUSH1 0x40 PUSH2 0x89C DUP7 DUP3 DUP8 ADD PUSH2 0x7D4 JUMP JUMPDEST SWAP2 POP POP SWAP3 POP SWAP3 POP SWAP3 JUMP JUMPDEST PUSH1 0x0 DUP2 MLOAD SWAP1 POP SWAP2 SWAP1 POP JUMP JUMPDEST PUSH1 0x0 DUP3 DUP3 MSTORE PUSH1 0x20 DUP3 ADD SWAP1 POP SWAP3 SWAP2 POP POP JUMP JUMPDEST PUSH1 0x0 JUMPDEST DUP4 DUP2 LT ISZERO PUSH2 0x8E0 JUMPI DUP1 DUP3 ADD MLOAD DUP2 DUP5 ADD MSTORE PUSH1 0x20 DUP2 ADD SWAP1 POP PUSH2 0x8C5 JUMP JUMPDEST PUSH1 0x0 DUP5 DUP5 ADD MSTORE POP POP POP POP JUMP JUMPDEST PUSH1 0x0 PUSH1 0x1F NOT PUSH1 0x1F DUP4 ADD AND SWAP1 POP SWAP2 SWAP1 POP JUMP JUMPDEST PUSH1 0x0 PUSH2 0x908 DUP3 PUSH2 0x8A6 JUMP JUMPDEST PUSH2 0x912 DUP2 DUP6 PUSH2 0x8B1 JUMP JUMPDEST SWAP4 POP PUSH2 0x922 DUP2 DUP6 PUSH1 0x20 DUP7 ADD PUSH2 0x8C2 JUMP JUMPDEST PUSH2 0x92B DUP2 PUSH2 0x8EC JUMP JUMPDEST DUP5 ADD SWAP2 POP POP SWAP3 SWAP2 POP POP JUMP JUMPDEST PUSH1 0x0 PUSH1 0x20 DUP3 ADD SWAP1 POP DUP2 DUP2 SUB PUSH1 0x0 DUP4 ADD MSTORE PUSH2 0x950 DUP2 DUP5 PUSH2 0x8FD JUMP JUMPDEST SWAP1 POP SWAP3 SWAP2 POP POP JUMP JUMPDEST PUSH1 0x0 PUSH1 0x20 DUP3 DUP5 SUB SLT ISZERO PUSH2 0x96E JUMPI PUSH2 0x96D PUSH2 0x750 JUMP JUMPDEST JUMPDEST PUSH1 0x0 PUSH2 0x97C DUP5 DUP3 DUP6 ADD PUSH2 0x79E JUMP JUMPDEST SWAP2 POP POP SWAP3 SWAP2 POP POP JUMP JUMPDEST PUSH32 0x4572726F72206E6F20616E792062616C616E6365000000000000000000000000 PUSH1 0x0 DUP3 ADD MSTORE POP JUMP JUMPDEST PUSH1 0x0 PUSH2 0x9BB PUSH1 0x14 DUP4 PUSH2 0x8B1 JUMP JUMPDEST SWAP2 POP PUSH2 0x9C6 DUP3 PUSH2 0x985 JUMP JUMPDEST PUSH1 0x20 DUP3 ADD SWAP1 POP SWAP2 SWAP1 POP JUMP JUMPDEST PUSH1 0x0 PUSH1 0x20 DUP3 ADD SWAP1 POP DUP2 DUP2 SUB PUSH1 0x0 DUP4 ADD MSTORE PUSH2 0x9EA DUP2 PUSH2 0x9AE JUMP JUMPDEST SWAP1 POP SWAP2 SWAP1 POP JUMP JUMPDEST PUSH32 0x4E487B7100000000000000000000000000000000000000000000000000000000 PUSH1 0x0 MSTORE PUSH1 0x11 PUSH1 0x4 MSTORE PUSH1 0x24 PUSH1 0x0 REVERT JUMPDEST PUSH1 0x0 PUSH2 0xA2B DUP3 PUSH2 0x7B3 JUMP JUMPDEST SWAP2 POP PUSH2 0xA36 DUP4 PUSH2 0x7B3 JUMP JUMPDEST SWAP3 POP DUP3 DUP3 MUL PUSH2 0xA44 DUP2 PUSH2 0x7B3 JUMP JUMPDEST SWAP2 POP DUP3 DUP3 DIV DUP5 EQ DUP4 ISZERO OR PUSH2 0xA5B JUMPI PUSH2 0xA5A PUSH2 0x9F1 JUMP JUMPDEST JUMPDEST POP SWAP3 SWAP2 POP POP JUMP JUMPDEST PUSH32 0x4E487B7100000000000000000000000000000000000000000000000000000000 PUSH1 0x0 MSTORE PUSH1 0x12 PUSH1 0x4 MSTORE PUSH1 0x24 PUSH1 0x0 REVERT JUMPDEST PUSH1 0x0 PUSH2 0xA9C DUP3 PUSH2 0x7B3 JUMP JUMPDEST SWAP2 POP PUSH2 0xAA7 DUP4 PUSH2 0x7B3 JUMP JUMPDEST SWAP3 POP DUP3 PUSH2 0xAB7 JUMPI PUSH2 0xAB6 PUSH2 0xA62 JUMP JUMPDEST JUMPDEST DUP3 DUP3 DIV SWAP1 POP SWAP3 SWAP2 POP POP JUMP JUMPDEST PUSH32 0x73656C6C65722062616C616E636520697320657175616C20746F207A65726F00 PUSH1 0x0 DUP3 ADD MSTORE POP JUMP JUMPDEST PUSH1 0x0 PUSH2 0xAF8 PUSH1 0x1F DUP4 PUSH2 0x8B1 JUMP JUMPDEST SWAP2 POP PUSH2 0xB03 DUP3 PUSH2 0xAC2 JUMP JUMPDEST PUSH1 0x20 DUP3 ADD SWAP1 POP SWAP2 SWAP1 POP JUMP JUMPDEST PUSH1 0x0 PUSH1 0x20 DUP3 ADD SWAP1 POP DUP2 DUP2 SUB PUSH1 0x0 DUP4 ADD MSTORE PUSH2 0xB27 DUP2 PUSH2 0xAEB JUMP JUMPDEST SWAP1 POP SWAP2 SWAP1 POP JUMP JUMPDEST PUSH1 0x0 PUSH2 0xB39 DUP3 PUSH2 0x7B3 JUMP JUMPDEST SWAP2 POP PUSH2 0xB44 DUP4 PUSH2 0x7B3 JUMP JUMPDEST SWAP3 POP DUP3 DUP3 SUB SWAP1 POP DUP2 DUP2 GT ISZERO PUSH2 0xB5C JUMPI PUSH2 0xB5B PUSH2 0x9F1 JUMP JUMPDEST JUMPDEST SWAP3 SWAP2 POP POP JUMP JUMPDEST PUSH32 0x6572726F72206E6F2075736572206F7220627579657220000000000000000000 PUSH1 0x0 DUP3 ADD MSTORE POP JUMP JUMPDEST PUSH1 0x0 PUSH2 0xB98 PUSH1 0x17 DUP4 PUSH2 0x8B1 JUMP JUMPDEST SWAP2 POP PUSH2 0xBA3 DUP3 PUSH2 0xB62 JUMP JUMPDEST PUSH1 0x20 DUP3 ADD SWAP1 POP SWAP2 SWAP1 POP JUMP JUMPDEST PUSH1 0x0 PUSH1 0x20 DUP3 ADD SWAP1 POP DUP2 DUP2 SUB PUSH1 0x0 DUP4 ADD MSTORE PUSH2 0xBC7 DUP2 PUSH2 0xB8B JUMP JUMPDEST SWAP1 POP SWAP2 SWAP1 POP JUMP JUMPDEST PUSH32 0x4E6F206361736820696E70757474656420000000000000000000000000000000 PUSH1 0x0 DUP3 ADD MSTORE POP JUMP JUMPDEST PUSH1 0x0 PUSH2 0xC04 PUSH1 0x11 DUP4 PUSH2 0x8B1 JUMP JUMPDEST SWAP2 POP PUSH2 0xC0F DUP3 PUSH2 0xBCE JUMP JUMPDEST PUSH1 0x20 DUP3 ADD SWAP1 POP SWAP2 SWAP1 POP JUMP JUMPDEST PUSH1 0x0 PUSH1 0x20 DUP3 ADD SWAP1 POP DUP2 DUP2 SUB PUSH1 0x0 DUP4 ADD MSTORE PUSH2 0xC33 DUP2 PUSH2 0xBF7 JUMP JUMPDEST SWAP1 POP SWAP2 SWAP1 POP JUMP JUMPDEST PUSH1 0x0 PUSH2 0xC45 DUP3 PUSH2 0x7B3 JUMP JUMPDEST SWAP2 POP PUSH2 0xC50 DUP4 PUSH2 0x7B3 JUMP JUMPDEST SWAP3 POP DUP3 DUP3 ADD SWAP1 POP DUP1 DUP3 GT ISZERO PUSH2 0xC68 JUMPI PUSH2 0xC67 PUSH2 0x9F1 JUMP JUMPDEST JUMPDEST SWAP3 SWAP2 POP POP JUMP JUMPDEST PUSH32 0x427579657220616E642073656C6C6572206172652073616D6500000000000000 PUSH1 0x0 DUP3 ADD MSTORE POP JUMP JUMPDEST PUSH1 0x0 PUSH2 0xCA4 PUSH1 0x19 DUP4 PUSH2 0x8B1 JUMP JUMPDEST SWAP2 POP PUSH2 0xCAF DUP3 PUSH2 0xC6E JUMP JUMPDEST PUSH1 0x20 DUP3 ADD SWAP1 POP SWAP2 SWAP1 POP JUMP JUMPDEST PUSH1 0x0 PUSH1 0x20 DUP3 ADD SWAP1 POP DUP2 DUP2 SUB PUSH1 0x0 DUP4 ADD MSTORE PUSH2 0xCD3 DUP2 PUSH2 0xC97 JUMP JUMPDEST SWAP1 POP SWAP2 SWAP1 POP JUMP JUMPDEST PUSH2 0xCE3 DUP2 PUSH2 0x775 JUMP JUMPDEST DUP3 MSTORE POP POP JUMP JUMPDEST PUSH1 0x0 PUSH1 0x60 DUP3 ADD SWAP1 POP PUSH2 0xCFE PUSH1 0x0 DUP4 ADD DUP7 PUSH2 0xCDA JUMP JUMPDEST PUSH2 0xD0B PUSH1 0x20 DUP4 ADD DUP6 PUSH2 0xCDA JUMP JUMPDEST PUSH2 0xD18 PUSH1 0x40 DUP4 ADD DUP5 PUSH2 0x829 JUMP JUMPDEST SWAP5 SWAP4 POP POP POP POP JUMP JUMPDEST PUSH32 0x796F752063616E20627579207468696E67730000000000000000000000000000 PUSH1 0x0 DUP3 ADD MSTORE POP JUMP JUMPDEST PUSH1 0x0 PUSH2 0xD56 PUSH1 0x12 DUP4 PUSH2 0x8B1 JUMP JUMPDEST SWAP2 POP PUSH2 0xD61 DUP3 PUSH2 0xD20 JUMP JUMPDEST PUSH1 0x20 DUP3 ADD SWAP1 POP SWAP2 SWAP1 POP JUMP JUMPDEST PUSH1 0x0 PUSH1 0x20 DUP3 ADD SWAP1 POP DUP2 DUP2 SUB PUSH1 0x0 DUP4 ADD MSTORE PUSH2 0xD85 DUP2 PUSH2 0xD49 JUMP JUMPDEST SWAP1 POP SWAP2 SWAP1 POP JUMP INVALID LOG2 PUSH5 0x6970667358 0x22 SLT KECCAK256 SELFDESTRUCT GASLIMIT CALLVALUE PUSH8 0xA7F800987AD7E13B RETURNDATASIZE SMOD 0x22 0xF8 ADD PUSH1 0xF4 0xB8 0xD1 0xDA 0x4C 0xC2 0xD6 DUP9 ORIGIN PUSH5 0x4ADF990764 PUSH20 0x6F6C634300081200330000000000000000000000 "
				},
				"gasEstimates": {
					"creation": {
						"codeDepositCost": "704400",
						"executionCost": "infinite",
						"totalCost": "infinite"
					},
					"external": {
						"Address(address)": "2880",
						"Buy(address,address,uint256)": "infinite",
						"Fee()": "2429",
						"register(address,uint256)": "22833",
						"sell(address,address,uint256)": "infinite"
					}
				},
				"methodIdentifiers": {
					"Address(address)": "ebfb412d",
					"Buy(address,address,uint256)": "d0c183be",
					"Fee()": "bef7a2f0",
					"register(address,uint256)": "6d705ebb",
					"sell(address,address,uint256)": "cae270b6"
				}
			},
			"storageLayout": {
				"storage": [
					{
						"astId": 5,
						"contract": "lab 18-08-2023/Market.sol:Premiumseller",
						"label": "Address",
						"offset": 0,
						"slot": "0",
						"type": "t_mapping(t_address,t_uint256)"
					},
					{
						"astId": 165,
						"contract": "lab 18-08-2023/Market.sol:Premiumseller",
						"label": "Fee",
						"offset": 0,
						"slot": "1",
						"type": "t_uint256"
					}
				],
				"types": {
					"t_address": {
						"encoding": "inplace",
						"label": "address",
						"numberOfBytes": "20"
					},
					"t_mapping(t_address,t_uint256)": {
						"encoding": "mapping",
						"key": "t_address",
						"label": "mapping(address => uint256)",
						"numberOfBytes": "32",
						"value": "t_uint256"
					},
					"t_uint256": {
						"encoding": "inplace",
						"label": "uint256",
						"numberOfBytes": "32"
					}
				}
			},
			"userdoc": {
				"kind": "user",
				"methods": {},
				"version": 1
			}
		}
	}
}