{
	"lab 8-8-2023/test.sol": {
		"StudentRegistration": {
			"abi": [
				{
					"inputs": [
						{
							"internalType": "enum StudentRegistration.Department",
							"name": "",
							"type": "uint8"
						}
					],
					"name": "departmentCounts",
					"outputs": [
						{
							"internalType": "uint256",
							"name": "",
							"type": "uint256"
						}
					],
					"stateMutability": "view",
					"type": "function"
				},
				{
					"inputs": [
						{
							"internalType": "uint256",
							"name": "rollNo",
							"type": "uint256"
						},
						{
							"internalType": "string",
							"name": "_name",
							"type": "string"
						},
						{
							"internalType": "uint256",
							"name": "_age",
							"type": "uint256"
						},
						{
							"internalType": "enum StudentRegistration.Department",
							"name": "_studentDepartment",
							"type": "uint8"
						},
						{
							"internalType": "enum StudentRegistration.Status",
							"name": "_studentStatus",
							"type": "uint8"
						},
						{
							"internalType": "uint256",
							"name": "_obtainedMarks",
							"type": "uint256"
						}
					],
					"name": "registerStudent",
					"outputs": [],
					"stateMutability": "nonpayable",
					"type": "function"
				},
				{
					"inputs": [
						{
							"internalType": "uint256",
							"name": "",
							"type": "uint256"
						}
					],
					"name": "students",
					"outputs": [
						{
							"internalType": "string",
							"name": "name",
							"type": "string"
						},
						{
							"internalType": "uint256",
							"name": "age",
							"type": "uint256"
						},
						{
							"internalType": "uint256",
							"name": "registrationDate",
							"type": "uint256"
						},
						{
							"internalType": "enum StudentRegistration.Department",
							"name": "studentDepartment",
							"type": "uint8"
						},
						{
							"internalType": "enum StudentRegistration.Status",
							"name": "studentStatus",
							"type": "uint8"
						},
						{
							"internalType": "uint256",
							"name": "obtainedMarks",
							"type": "uint256"
						}
					],
					"stateMutability": "view",
					"type": "function"
				}
			],
			"devdoc": {
				"kind": "dev",
				"methods": {},
				"version": 1
			},
			"evm": {
				"assembly": "    /* \"lab 8-8-2023/test.sol\":60:2784  contract StudentRegistration {... */\n  mstore(0x40, 0x80)\n  callvalue\n  dup1\n  iszero\n  tag_1\n  jumpi\n  0x00\n  dup1\n  revert\ntag_1:\n  pop\n  dataSize(sub_0)\n  dup1\n  dataOffset(sub_0)\n  0x00\n  codecopy\n  0x00\n  return\nstop\n\nsub_0: assembly {\n        /* \"lab 8-8-2023/test.sol\":60:2784  contract StudentRegistration {... */\n      mstore(0x40, 0x80)\n      callvalue\n      dup1\n      iszero\n      tag_1\n      jumpi\n      0x00\n      dup1\n      revert\n    tag_1:\n      pop\n      jumpi(tag_2, lt(calldatasize, 0x04))\n      shr(0xe0, calldataload(0x00))\n      dup1\n      0x06ead22e\n      eq\n      tag_3\n      jumpi\n      dup1\n      0x39aabbbb\n      eq\n      tag_4\n      jumpi\n      dup1\n      0x5887bbbf\n      eq\n      tag_5\n      jumpi\n    tag_2:\n      0x00\n      dup1\n      revert\n        /* \"lab 8-8-2023/test.sol\":464:507  mapping(uint256 => Student) public students */\n    tag_3:\n      tag_6\n      0x04\n      dup1\n      calldatasize\n      sub\n      dup2\n      add\n      swap1\n      tag_7\n      swap2\n      swap1\n      tag_8\n      jump\t// in\n    tag_7:\n      tag_9\n      jump\t// in\n    tag_6:\n      mload(0x40)\n      tag_10\n      swap7\n      swap6\n      swap5\n      swap4\n      swap3\n      swap2\n      swap1\n      tag_11\n      jump\t// in\n    tag_10:\n      mload(0x40)\n      dup1\n      swap2\n      sub\n      swap1\n      return\n        /* \"lab 8-8-2023/test.sol\":514:568  mapping(Department => uint256) public departmentCounts */\n    tag_4:\n      tag_12\n      0x04\n      dup1\n      calldatasize\n      sub\n      dup2\n      add\n      swap1\n      tag_13\n      swap2\n      swap1\n      tag_14\n      jump\t// in\n    tag_13:\n      tag_15\n      jump\t// in\n    tag_12:\n      mload(0x40)\n      tag_16\n      swap2\n      swap1\n      tag_17\n      jump\t// in\n    tag_16:\n      mload(0x40)\n      dup1\n      swap2\n      sub\n      swap1\n      return\n        /* \"lab 8-8-2023/test.sol\":577:1253  function registerStudent(... */\n    tag_5:\n      tag_18\n      0x04\n      dup1\n      calldatasize\n      sub\n      dup2\n      add\n      swap1\n      tag_19\n      swap2\n      swap1\n      tag_20\n      jump\t// in\n    tag_19:\n      tag_21\n      jump\t// in\n    tag_18:\n      stop\n        /* \"lab 8-8-2023/test.sol\":464:507  mapping(uint256 => Student) public students */\n    tag_9:\n      mstore(0x20, 0x00)\n      dup1\n      0x00\n      mstore\n      keccak256(0x00, 0x40)\n      0x00\n      swap2\n      pop\n      swap1\n      pop\n      dup1\n      0x00\n      add\n      dup1\n      sload\n      tag_22\n      swap1\n      tag_23\n      jump\t// in\n    tag_22:\n      dup1\n      0x1f\n      add\n      0x20\n      dup1\n      swap2\n      div\n      mul\n      0x20\n      add\n      mload(0x40)\n      swap1\n      dup2\n      add\n      0x40\n      mstore\n      dup1\n      swap3\n      swap2\n      swap1\n      dup2\n      dup2\n      mstore\n      0x20\n      add\n      dup3\n      dup1\n      sload\n      tag_24\n      swap1\n      tag_23\n      jump\t// in\n    tag_24:\n      dup1\n      iszero\n      tag_25\n      jumpi\n      dup1\n      0x1f\n      lt\n      tag_26\n      jumpi\n      0x0100\n      dup1\n      dup4\n      sload\n      div\n      mul\n      dup4\n      mstore\n      swap2\n      0x20\n      add\n      swap2\n      jump(tag_25)\n    tag_26:\n      dup3\n      add\n      swap2\n      swap1\n      0x00\n      mstore\n      keccak256(0x00, 0x20)\n      swap1\n    tag_27:\n      dup2\n      sload\n      dup2\n      mstore\n      swap1\n      0x01\n      add\n      swap1\n      0x20\n      add\n      dup1\n      dup4\n      gt\n      tag_27\n      jumpi\n      dup3\n      swap1\n      sub\n      0x1f\n      and\n      dup3\n      add\n      swap2\n    tag_25:\n      pop\n      pop\n      pop\n      pop\n      pop\n      swap1\n      dup1\n      0x01\n      add\n      sload\n      swap1\n      dup1\n      0x02\n      add\n      sload\n      swap1\n      dup1\n      0x03\n      add\n      0x00\n      swap1\n      sload\n      swap1\n      0x0100\n      exp\n      swap1\n      div\n      0xff\n      and\n      swap1\n      dup1\n      0x03\n      add\n      0x01\n      swap1\n      sload\n      swap1\n      0x0100\n      exp\n      swap1\n      div\n      0xff\n      and\n      swap1\n      dup1\n      0x04\n      add\n      sload\n      swap1\n      pop\n      dup7\n      jump\t// out\n        /* \"lab 8-8-2023/test.sol\":514:568  mapping(Department => uint256) public departmentCounts */\n    tag_15:\n      mstore(0x20, 0x01)\n      dup1\n      0x00\n      mstore\n      keccak256(0x00, 0x40)\n      0x00\n      swap2\n      pop\n      swap1\n      pop\n      sload\n      dup2\n      jump\t// out\n        /* \"lab 8-8-2023/test.sol\":577:1253  function registerStudent(... */\n    tag_21:\n        /* \"lab 8-8-2023/test.sol\":823:1081  Student({... */\n      mload(0x40)\n      dup1\n      0xc0\n      add\n      0x40\n      mstore\n      dup1\n        /* \"lab 8-8-2023/test.sol\":852:857  _name */\n      dup7\n        /* \"lab 8-8-2023/test.sol\":823:1081  Student({... */\n      dup2\n      mstore\n      0x20\n      add\n        /* \"lab 8-8-2023/test.sol\":877:881  _age */\n      dup6\n        /* \"lab 8-8-2023/test.sol\":823:1081  Student({... */\n      dup2\n      mstore\n      0x20\n      add\n        /* \"lab 8-8-2023/test.sol\":914:929  block.timestamp */\n      timestamp\n        /* \"lab 8-8-2023/test.sol\":823:1081  Student({... */\n      dup2\n      mstore\n      0x20\n      add\n        /* \"lab 8-8-2023/test.sol\":963:981  _studentDepartment */\n      dup5\n        /* \"lab 8-8-2023/test.sol\":823:1081  Student({... */\n      0x03\n      dup2\n      gt\n      iszero\n      tag_29\n      jumpi\n      tag_30\n      tag_31\n      jump\t// in\n    tag_30:\n    tag_29:\n      dup2\n      mstore\n      0x20\n      add\n        /* \"lab 8-8-2023/test.sol\":1011:1025  _studentStatus */\n      dup4\n        /* \"lab 8-8-2023/test.sol\":823:1081  Student({... */\n      0x03\n      dup2\n      gt\n      iszero\n      tag_32\n      jumpi\n      tag_33\n      tag_31\n      jump\t// in\n    tag_33:\n    tag_32:\n      dup2\n      mstore\n      0x20\n      add\n        /* \"lab 8-8-2023/test.sol\":1055:1069  _obtainedMarks */\n      dup3\n        /* \"lab 8-8-2023/test.sol\":823:1081  Student({... */\n      dup2\n      mstore\n      pop\n        /* \"lab 8-8-2023/test.sol\":804:812  students */\n      0x00\n        /* \"lab 8-8-2023/test.sol\":804:820  students[rollNo] */\n      dup1\n        /* \"lab 8-8-2023/test.sol\":813:819  rollNo */\n      dup9\n        /* \"lab 8-8-2023/test.sol\":804:820  students[rollNo] */\n      dup2\n      mstore\n      0x20\n      add\n      swap1\n      dup2\n      mstore\n      0x20\n      add\n      0x00\n      keccak256\n        /* \"lab 8-8-2023/test.sol\":804:1081  students[rollNo] = Student({... */\n      0x00\n      dup3\n      add\n      mload\n      dup2\n      0x00\n      add\n      swap1\n      dup2\n      tag_34\n      swap2\n      swap1\n      tag_35\n      jump\t// in\n    tag_34:\n      pop\n      0x20\n      dup3\n      add\n      mload\n      dup2\n      0x01\n      add\n      sstore\n      0x40\n      dup3\n      add\n      mload\n      dup2\n      0x02\n      add\n      sstore\n      0x60\n      dup3\n      add\n      mload\n      dup2\n      0x03\n      add\n      exp(0x0100, 0x00)\n      dup2\n      sload\n      dup2\n      0xff\n      mul\n      not\n      and\n      swap1\n      dup4\n      0x03\n      dup2\n      gt\n      iszero\n      tag_36\n      jumpi\n      tag_37\n      tag_31\n      jump\t// in\n    tag_37:\n    tag_36:\n      mul\n      or\n      swap1\n      sstore\n      pop\n      0x80\n      dup3\n      add\n      mload\n      dup2\n      0x03\n      add\n      exp(0x0100, 0x01)\n      dup2\n      sload\n      dup2\n      0xff\n      mul\n      not\n      and\n      swap1\n      dup4\n      0x03\n      dup2\n      gt\n      iszero\n      tag_38\n      jumpi\n      tag_39\n      tag_31\n      jump\t// in\n    tag_39:\n    tag_38:\n      mul\n      or\n      swap1\n      sstore\n      pop\n      0xa0\n      dup3\n      add\n      mload\n      dup2\n      0x04\n      add\n      sstore\n      swap1\n      pop\n      pop\n        /* \"lab 8-8-2023/test.sol\":1124:1142  Status.NotEnrolled */\n      0x01\n        /* \"lab 8-8-2023/test.sol\":1106:1142  _studentStatus != Status.NotEnrolled */\n      0x03\n      dup2\n      gt\n      iszero\n      tag_40\n      jumpi\n      tag_41\n      tag_31\n      jump\t// in\n    tag_41:\n    tag_40:\n        /* \"lab 8-8-2023/test.sol\":1106:1120  _studentStatus */\n      dup3\n        /* \"lab 8-8-2023/test.sol\":1106:1142  _studentStatus != Status.NotEnrolled */\n      0x03\n      dup2\n      gt\n      iszero\n      tag_42\n      jumpi\n      tag_43\n      tag_31\n      jump\t// in\n    tag_43:\n    tag_42:\n      eq\n      iszero\n        /* \"lab 8-8-2023/test.sol\":1106:1179  _studentStatus != Status.NotEnrolled && _studentStatus != Status.Expelled */\n      dup1\n      iszero\n      tag_44\n      jumpi\n      pop\n        /* \"lab 8-8-2023/test.sol\":1164:1179  Status.Expelled */\n      0x03\n        /* \"lab 8-8-2023/test.sol\":1146:1179  _studentStatus != Status.Expelled */\n      dup1\n      dup2\n      gt\n      iszero\n      tag_45\n      jumpi\n      tag_46\n      tag_31\n      jump\t// in\n    tag_46:\n    tag_45:\n        /* \"lab 8-8-2023/test.sol\":1146:1160  _studentStatus */\n      dup3\n        /* \"lab 8-8-2023/test.sol\":1146:1179  _studentStatus != Status.Expelled */\n      0x03\n      dup2\n      gt\n      iszero\n      tag_47\n      jumpi\n      tag_48\n      tag_31\n      jump\t// in\n    tag_48:\n    tag_47:\n      eq\n      iszero\n        /* \"lab 8-8-2023/test.sol\":1106:1179  _studentStatus != Status.NotEnrolled && _studentStatus != Status.Expelled */\n    tag_44:\n        /* \"lab 8-8-2023/test.sol\":1102:1246  if (_studentStatus != Status.NotEnrolled && _studentStatus != Status.Expelled) {... */\n      iszero\n      tag_49\n      jumpi\n        /* \"lab 8-8-2023/test.sol\":1196:1212  departmentCounts */\n      0x01\n        /* \"lab 8-8-2023/test.sol\":1196:1232  departmentCounts[_studentDepartment] */\n      0x00\n        /* \"lab 8-8-2023/test.sol\":1213:1231  _studentDepartment */\n      dup5\n        /* \"lab 8-8-2023/test.sol\":1196:1232  departmentCounts[_studentDepartment] */\n      0x03\n      dup2\n      gt\n      iszero\n      tag_50\n      jumpi\n      tag_51\n      tag_31\n      jump\t// in\n    tag_51:\n    tag_50:\n      0x03\n      dup2\n      gt\n      iszero\n      tag_52\n      jumpi\n      tag_53\n      tag_31\n      jump\t// in\n    tag_53:\n    tag_52:\n      dup2\n      mstore\n      0x20\n      add\n      swap1\n      dup2\n      mstore\n      0x20\n      add\n      0x00\n      keccak256\n      0x00\n        /* \"lab 8-8-2023/test.sol\":1196:1234  departmentCounts[_studentDepartment]++ */\n      dup2\n      sload\n      dup1\n      swap3\n      swap2\n      swap1\n      tag_54\n      swap1\n      tag_55\n      jump\t// in\n    tag_54:\n      swap2\n      swap1\n      pop\n      sstore\n      pop\n        /* \"lab 8-8-2023/test.sol\":1102:1246  if (_studentStatus != Status.NotEnrolled && _studentStatus != Status.Expelled) {... */\n    tag_49:\n        /* \"lab 8-8-2023/test.sol\":577:1253  function registerStudent(... */\n      pop\n      pop\n      pop\n      pop\n      pop\n      pop\n      jump\t// out\n        /* \"#utility.yul\":7:82   */\n    tag_56:\n        /* \"#utility.yul\":40:46   */\n      0x00\n        /* \"#utility.yul\":73:75   */\n      0x40\n        /* \"#utility.yul\":67:76   */\n      mload\n        /* \"#utility.yul\":57:76   */\n      swap1\n      pop\n        /* \"#utility.yul\":7:82   */\n      swap1\n      jump\t// out\n        /* \"#utility.yul\":88:205   */\n    tag_57:\n        /* \"#utility.yul\":197:198   */\n      0x00\n        /* \"#utility.yul\":194:195   */\n      dup1\n        /* \"#utility.yul\":187:199   */\n      revert\n        /* \"#utility.yul\":211:328   */\n    tag_58:\n        /* \"#utility.yul\":320:321   */\n      0x00\n        /* \"#utility.yul\":317:318   */\n      dup1\n        /* \"#utility.yul\":310:322   */\n      revert\n        /* \"#utility.yul\":334:411   */\n    tag_59:\n        /* \"#utility.yul\":371:378   */\n      0x00\n        /* \"#utility.yul\":400:405   */\n      dup2\n        /* \"#utility.yul\":389:405   */\n      swap1\n      pop\n        /* \"#utility.yul\":334:411   */\n      swap2\n      swap1\n      pop\n      jump\t// out\n        /* \"#utility.yul\":417:539   */\n    tag_60:\n        /* \"#utility.yul\":490:514   */\n      tag_112\n        /* \"#utility.yul\":508:513   */\n      dup2\n        /* \"#utility.yul\":490:514   */\n      tag_59\n      jump\t// in\n    tag_112:\n        /* \"#utility.yul\":483:488   */\n      dup2\n        /* \"#utility.yul\":480:515   */\n      eq\n        /* \"#utility.yul\":470:533   */\n      tag_113\n      jumpi\n        /* \"#utility.yul\":529:530   */\n      0x00\n        /* \"#utility.yul\":526:527   */\n      dup1\n        /* \"#utility.yul\":519:531   */\n      revert\n        /* \"#utility.yul\":470:533   */\n    tag_113:\n        /* \"#utility.yul\":417:539   */\n      pop\n      jump\t// out\n        /* \"#utility.yul\":545:684   */\n    tag_61:\n        /* \"#utility.yul\":591:596   */\n      0x00\n        /* \"#utility.yul\":629:635   */\n      dup2\n        /* \"#utility.yul\":616:636   */\n      calldataload\n        /* \"#utility.yul\":607:636   */\n      swap1\n      pop\n        /* \"#utility.yul\":645:678   */\n      tag_115\n        /* \"#utility.yul\":672:677   */\n      dup2\n        /* \"#utility.yul\":645:678   */\n      tag_60\n      jump\t// in\n    tag_115:\n        /* \"#utility.yul\":545:684   */\n      swap3\n      swap2\n      pop\n      pop\n      jump\t// out\n        /* \"#utility.yul\":690:1019   */\n    tag_8:\n        /* \"#utility.yul\":749:755   */\n      0x00\n        /* \"#utility.yul\":798:800   */\n      0x20\n        /* \"#utility.yul\":786:795   */\n      dup3\n        /* \"#utility.yul\":777:784   */\n      dup5\n        /* \"#utility.yul\":773:796   */\n      sub\n        /* \"#utility.yul\":769:801   */\n      slt\n        /* \"#utility.yul\":766:885   */\n      iszero\n      tag_117\n      jumpi\n        /* \"#utility.yul\":804:883   */\n      tag_118\n      tag_57\n      jump\t// in\n    tag_118:\n        /* \"#utility.yul\":766:885   */\n    tag_117:\n        /* \"#utility.yul\":924:925   */\n      0x00\n        /* \"#utility.yul\":949:1002   */\n      tag_119\n        /* \"#utility.yul\":994:1001   */\n      dup5\n        /* \"#utility.yul\":985:991   */\n      dup3\n        /* \"#utility.yul\":974:983   */\n      dup6\n        /* \"#utility.yul\":970:992   */\n      add\n        /* \"#utility.yul\":949:1002   */\n      tag_61\n      jump\t// in\n    tag_119:\n        /* \"#utility.yul\":939:1002   */\n      swap2\n      pop\n        /* \"#utility.yul\":895:1012   */\n      pop\n        /* \"#utility.yul\":690:1019   */\n      swap3\n      swap2\n      pop\n      pop\n      jump\t// out\n        /* \"#utility.yul\":1025:1124   */\n    tag_62:\n        /* \"#utility.yul\":1077:1083   */\n      0x00\n        /* \"#utility.yul\":1111:1116   */\n      dup2\n        /* \"#utility.yul\":1105:1117   */\n      mload\n        /* \"#utility.yul\":1095:1117   */\n      swap1\n      pop\n        /* \"#utility.yul\":1025:1124   */\n      swap2\n      swap1\n      pop\n      jump\t// out\n        /* \"#utility.yul\":1130:1299   */\n    tag_63:\n        /* \"#utility.yul\":1214:1225   */\n      0x00\n        /* \"#utility.yul\":1248:1254   */\n      dup3\n        /* \"#utility.yul\":1243:1246   */\n      dup3\n        /* \"#utility.yul\":1236:1255   */\n      mstore\n        /* \"#utility.yul\":1288:1292   */\n      0x20\n        /* \"#utility.yul\":1283:1286   */\n      dup3\n        /* \"#utility.yul\":1279:1293   */\n      add\n        /* \"#utility.yul\":1264:1293   */\n      swap1\n      pop\n        /* \"#utility.yul\":1130:1299   */\n      swap3\n      swap2\n      pop\n      pop\n      jump\t// out\n        /* \"#utility.yul\":1305:1551   */\n    tag_64:\n        /* \"#utility.yul\":1386:1387   */\n      0x00\n        /* \"#utility.yul\":1396:1509   */\n    tag_123:\n        /* \"#utility.yul\":1410:1416   */\n      dup4\n        /* \"#utility.yul\":1407:1408   */\n      dup2\n        /* \"#utility.yul\":1404:1417   */\n      lt\n        /* \"#utility.yul\":1396:1509   */\n      iszero\n      tag_125\n      jumpi\n        /* \"#utility.yul\":1495:1496   */\n      dup1\n        /* \"#utility.yul\":1490:1493   */\n      dup3\n        /* \"#utility.yul\":1486:1497   */\n      add\n        /* \"#utility.yul\":1480:1498   */\n      mload\n        /* \"#utility.yul\":1476:1477   */\n      dup2\n        /* \"#utility.yul\":1471:1474   */\n      dup5\n        /* \"#utility.yul\":1467:1478   */\n      add\n        /* \"#utility.yul\":1460:1499   */\n      mstore\n        /* \"#utility.yul\":1432:1434   */\n      0x20\n        /* \"#utility.yul\":1429:1430   */\n      dup2\n        /* \"#utility.yul\":1425:1435   */\n      add\n        /* \"#utility.yul\":1420:1435   */\n      swap1\n      pop\n        /* \"#utility.yul\":1396:1509   */\n      jump(tag_123)\n    tag_125:\n        /* \"#utility.yul\":1543:1544   */\n      0x00\n        /* \"#utility.yul\":1534:1540   */\n      dup5\n        /* \"#utility.yul\":1529:1532   */\n      dup5\n        /* \"#utility.yul\":1525:1541   */\n      add\n        /* \"#utility.yul\":1518:1545   */\n      mstore\n        /* \"#utility.yul\":1367:1551   */\n      pop\n        /* \"#utility.yul\":1305:1551   */\n      pop\n      pop\n      pop\n      jump\t// out\n        /* \"#utility.yul\":1557:1659   */\n    tag_65:\n        /* \"#utility.yul\":1598:1604   */\n      0x00\n        /* \"#utility.yul\":1649:1651   */\n      0x1f\n        /* \"#utility.yul\":1645:1652   */\n      not\n        /* \"#utility.yul\":1640:1642   */\n      0x1f\n        /* \"#utility.yul\":1633:1638   */\n      dup4\n        /* \"#utility.yul\":1629:1643   */\n      add\n        /* \"#utility.yul\":1625:1653   */\n      and\n        /* \"#utility.yul\":1615:1653   */\n      swap1\n      pop\n        /* \"#utility.yul\":1557:1659   */\n      swap2\n      swap1\n      pop\n      jump\t// out\n        /* \"#utility.yul\":1665:2042   */\n    tag_66:\n        /* \"#utility.yul\":1753:1756   */\n      0x00\n        /* \"#utility.yul\":1781:1820   */\n      tag_128\n        /* \"#utility.yul\":1814:1819   */\n      dup3\n        /* \"#utility.yul\":1781:1820   */\n      tag_62\n      jump\t// in\n    tag_128:\n        /* \"#utility.yul\":1836:1907   */\n      tag_129\n        /* \"#utility.yul\":1900:1906   */\n      dup2\n        /* \"#utility.yul\":1895:1898   */\n      dup6\n        /* \"#utility.yul\":1836:1907   */\n      tag_63\n      jump\t// in\n    tag_129:\n        /* \"#utility.yul\":1829:1907   */\n      swap4\n      pop\n        /* \"#utility.yul\":1916:1981   */\n      tag_130\n        /* \"#utility.yul\":1974:1980   */\n      dup2\n        /* \"#utility.yul\":1969:1972   */\n      dup6\n        /* \"#utility.yul\":1962:1966   */\n      0x20\n        /* \"#utility.yul\":1955:1960   */\n      dup7\n        /* \"#utility.yul\":1951:1967   */\n      add\n        /* \"#utility.yul\":1916:1981   */\n      tag_64\n      jump\t// in\n    tag_130:\n        /* \"#utility.yul\":2006:2035   */\n      tag_131\n        /* \"#utility.yul\":2028:2034   */\n      dup2\n        /* \"#utility.yul\":2006:2035   */\n      tag_65\n      jump\t// in\n    tag_131:\n        /* \"#utility.yul\":2001:2004   */\n      dup5\n        /* \"#utility.yul\":1997:2036   */\n      add\n        /* \"#utility.yul\":1990:2036   */\n      swap2\n      pop\n        /* \"#utility.yul\":1757:2042   */\n      pop\n        /* \"#utility.yul\":1665:2042   */\n      swap3\n      swap2\n      pop\n      pop\n      jump\t// out\n        /* \"#utility.yul\":2048:2166   */\n    tag_67:\n        /* \"#utility.yul\":2135:2159   */\n      tag_133\n        /* \"#utility.yul\":2153:2158   */\n      dup2\n        /* \"#utility.yul\":2135:2159   */\n      tag_59\n      jump\t// in\n    tag_133:\n        /* \"#utility.yul\":2130:2133   */\n      dup3\n        /* \"#utility.yul\":2123:2160   */\n      mstore\n        /* \"#utility.yul\":2048:2166   */\n      pop\n      pop\n      jump\t// out\n        /* \"#utility.yul\":2172:2352   */\n    tag_31:\n        /* \"#utility.yul\":2220:2297   */\n      0x4e487b7100000000000000000000000000000000000000000000000000000000\n        /* \"#utility.yul\":2217:2218   */\n      0x00\n        /* \"#utility.yul\":2210:2298   */\n      mstore\n        /* \"#utility.yul\":2317:2321   */\n      0x21\n        /* \"#utility.yul\":2314:2315   */\n      0x04\n        /* \"#utility.yul\":2307:2322   */\n      mstore\n        /* \"#utility.yul\":2341:2345   */\n      0x24\n        /* \"#utility.yul\":2338:2339   */\n      0x00\n        /* \"#utility.yul\":2331:2346   */\n      revert\n        /* \"#utility.yul\":2358:2475   */\n    tag_68:\n        /* \"#utility.yul\":2443:2444   */\n      0x04\n        /* \"#utility.yul\":2436:2441   */\n      dup2\n        /* \"#utility.yul\":2433:2445   */\n      lt\n        /* \"#utility.yul\":2423:2469   */\n      tag_136\n      jumpi\n        /* \"#utility.yul\":2449:2467   */\n      tag_137\n      tag_31\n      jump\t// in\n    tag_137:\n        /* \"#utility.yul\":2423:2469   */\n    tag_136:\n        /* \"#utility.yul\":2358:2475   */\n      pop\n      jump\t// out\n        /* \"#utility.yul\":2481:2616   */\n    tag_69:\n        /* \"#utility.yul\":2530:2537   */\n      0x00\n        /* \"#utility.yul\":2559:2564   */\n      dup2\n        /* \"#utility.yul\":2548:2564   */\n      swap1\n      pop\n        /* \"#utility.yul\":2565:2610   */\n      tag_139\n        /* \"#utility.yul\":2604:2609   */\n      dup3\n        /* \"#utility.yul\":2565:2610   */\n      tag_68\n      jump\t// in\n    tag_139:\n        /* \"#utility.yul\":2481:2616   */\n      swap2\n      swap1\n      pop\n      jump\t// out\n        /* \"#utility.yul\":2622:2757   */\n    tag_70:\n        /* \"#utility.yul\":2682:2691   */\n      0x00\n        /* \"#utility.yul\":2715:2751   */\n      tag_141\n        /* \"#utility.yul\":2745:2750   */\n      dup3\n        /* \"#utility.yul\":2715:2751   */\n      tag_69\n      jump\t// in\n    tag_141:\n        /* \"#utility.yul\":2702:2751   */\n      swap1\n      pop\n        /* \"#utility.yul\":2622:2757   */\n      swap2\n      swap1\n      pop\n      jump\t// out\n        /* \"#utility.yul\":2763:2914   */\n    tag_71:\n        /* \"#utility.yul\":2860:2907   */\n      tag_143\n        /* \"#utility.yul\":2901:2906   */\n      dup2\n        /* \"#utility.yul\":2860:2907   */\n      tag_70\n      jump\t// in\n    tag_143:\n        /* \"#utility.yul\":2855:2858   */\n      dup3\n        /* \"#utility.yul\":2848:2908   */\n      mstore\n        /* \"#utility.yul\":2763:2914   */\n      pop\n      pop\n      jump\t// out\n        /* \"#utility.yul\":2920:3034   */\n    tag_72:\n        /* \"#utility.yul\":3002:3003   */\n      0x04\n        /* \"#utility.yul\":2995:3000   */\n      dup2\n        /* \"#utility.yul\":2992:3004   */\n      lt\n        /* \"#utility.yul\":2982:3028   */\n      tag_145\n      jumpi\n        /* \"#utility.yul\":3008:3026   */\n      tag_146\n      tag_31\n      jump\t// in\n    tag_146:\n        /* \"#utility.yul\":2982:3028   */\n    tag_145:\n        /* \"#utility.yul\":2920:3034   */\n      pop\n      jump\t// out\n        /* \"#utility.yul\":3040:3169   */\n    tag_73:\n        /* \"#utility.yul\":3086:3093   */\n      0x00\n        /* \"#utility.yul\":3115:3120   */\n      dup2\n        /* \"#utility.yul\":3104:3120   */\n      swap1\n      pop\n        /* \"#utility.yul\":3121:3163   */\n      tag_148\n        /* \"#utility.yul\":3157:3162   */\n      dup3\n        /* \"#utility.yul\":3121:3163   */\n      tag_72\n      jump\t// in\n    tag_148:\n        /* \"#utility.yul\":3040:3169   */\n      swap2\n      swap1\n      pop\n      jump\t// out\n        /* \"#utility.yul\":3175:3304   */\n    tag_74:\n        /* \"#utility.yul\":3232:3241   */\n      0x00\n        /* \"#utility.yul\":3265:3298   */\n      tag_150\n        /* \"#utility.yul\":3292:3297   */\n      dup3\n        /* \"#utility.yul\":3265:3298   */\n      tag_73\n      jump\t// in\n    tag_150:\n        /* \"#utility.yul\":3252:3298   */\n      swap1\n      pop\n        /* \"#utility.yul\":3175:3304   */\n      swap2\n      swap1\n      pop\n      jump\t// out\n        /* \"#utility.yul\":3310:3455   */\n    tag_75:\n        /* \"#utility.yul\":3404:3448   */\n      tag_152\n        /* \"#utility.yul\":3442:3447   */\n      dup2\n        /* \"#utility.yul\":3404:3448   */\n      tag_74\n      jump\t// in\n    tag_152:\n        /* \"#utility.yul\":3399:3402   */\n      dup3\n        /* \"#utility.yul\":3392:3449   */\n      mstore\n        /* \"#utility.yul\":3310:3455   */\n      pop\n      pop\n      jump\t// out\n        /* \"#utility.yul\":3461:4361   */\n    tag_11:\n        /* \"#utility.yul\":3731:3735   */\n      0x00\n        /* \"#utility.yul\":3769:3772   */\n      0xc0\n        /* \"#utility.yul\":3758:3767   */\n      dup3\n        /* \"#utility.yul\":3754:3773   */\n      add\n        /* \"#utility.yul\":3746:3773   */\n      swap1\n      pop\n        /* \"#utility.yul\":3819:3828   */\n      dup2\n        /* \"#utility.yul\":3813:3817   */\n      dup2\n        /* \"#utility.yul\":3809:3829   */\n      sub\n        /* \"#utility.yul\":3805:3806   */\n      0x00\n        /* \"#utility.yul\":3794:3803   */\n      dup4\n        /* \"#utility.yul\":3790:3807   */\n      add\n        /* \"#utility.yul\":3783:3830   */\n      mstore\n        /* \"#utility.yul\":3847:3925   */\n      tag_154\n        /* \"#utility.yul\":3920:3924   */\n      dup2\n        /* \"#utility.yul\":3911:3917   */\n      dup10\n        /* \"#utility.yul\":3847:3925   */\n      tag_66\n      jump\t// in\n    tag_154:\n        /* \"#utility.yul\":3839:3925   */\n      swap1\n      pop\n        /* \"#utility.yul\":3935:4007   */\n      tag_155\n        /* \"#utility.yul\":4003:4005   */\n      0x20\n        /* \"#utility.yul\":3992:4001   */\n      dup4\n        /* \"#utility.yul\":3988:4006   */\n      add\n        /* \"#utility.yul\":3979:3985   */\n      dup9\n        /* \"#utility.yul\":3935:4007   */\n      tag_67\n      jump\t// in\n    tag_155:\n        /* \"#utility.yul\":4017:4089   */\n      tag_156\n        /* \"#utility.yul\":4085:4087   */\n      0x40\n        /* \"#utility.yul\":4074:4083   */\n      dup4\n        /* \"#utility.yul\":4070:4088   */\n      add\n        /* \"#utility.yul\":4061:4067   */\n      dup8\n        /* \"#utility.yul\":4017:4089   */\n      tag_67\n      jump\t// in\n    tag_156:\n        /* \"#utility.yul\":4099:4181   */\n      tag_157\n        /* \"#utility.yul\":4177:4179   */\n      0x60\n        /* \"#utility.yul\":4166:4175   */\n      dup4\n        /* \"#utility.yul\":4162:4180   */\n      add\n        /* \"#utility.yul\":4153:4159   */\n      dup7\n        /* \"#utility.yul\":4099:4181   */\n      tag_71\n      jump\t// in\n    tag_157:\n        /* \"#utility.yul\":4191:4271   */\n      tag_158\n        /* \"#utility.yul\":4266:4269   */\n      0x80\n        /* \"#utility.yul\":4255:4264   */\n      dup4\n        /* \"#utility.yul\":4251:4270   */\n      add\n        /* \"#utility.yul\":4242:4248   */\n      dup6\n        /* \"#utility.yul\":4191:4271   */\n      tag_75\n      jump\t// in\n    tag_158:\n        /* \"#utility.yul\":4281:4354   */\n      tag_159\n        /* \"#utility.yul\":4349:4352   */\n      0xa0\n        /* \"#utility.yul\":4338:4347   */\n      dup4\n        /* \"#utility.yul\":4334:4353   */\n      add\n        /* \"#utility.yul\":4325:4331   */\n      dup5\n        /* \"#utility.yul\":4281:4354   */\n      tag_67\n      jump\t// in\n    tag_159:\n        /* \"#utility.yul\":3461:4361   */\n      swap8\n      swap7\n      pop\n      pop\n      pop\n      pop\n      pop\n      pop\n      pop\n      jump\t// out\n        /* \"#utility.yul\":4367:4478   */\n    tag_76:\n        /* \"#utility.yul\":4452:4453   */\n      0x04\n        /* \"#utility.yul\":4445:4450   */\n      dup2\n        /* \"#utility.yul\":4442:4454   */\n      lt\n        /* \"#utility.yul\":4432:4472   */\n      tag_161\n      jumpi\n        /* \"#utility.yul\":4468:4469   */\n      0x00\n        /* \"#utility.yul\":4465:4466   */\n      dup1\n        /* \"#utility.yul\":4458:4470   */\n      revert\n        /* \"#utility.yul\":4432:4472   */\n    tag_161:\n        /* \"#utility.yul\":4367:4478   */\n      pop\n      jump\t// out\n        /* \"#utility.yul\":4484:4647   */\n    tag_77:\n        /* \"#utility.yul\":4542:4547   */\n      0x00\n        /* \"#utility.yul\":4580:4586   */\n      dup2\n        /* \"#utility.yul\":4567:4587   */\n      calldataload\n        /* \"#utility.yul\":4558:4587   */\n      swap1\n      pop\n        /* \"#utility.yul\":4596:4641   */\n      tag_163\n        /* \"#utility.yul\":4635:4640   */\n      dup2\n        /* \"#utility.yul\":4596:4641   */\n      tag_76\n      jump\t// in\n    tag_163:\n        /* \"#utility.yul\":4484:4647   */\n      swap3\n      swap2\n      pop\n      pop\n      jump\t// out\n        /* \"#utility.yul\":4653:5006   */\n    tag_14:\n        /* \"#utility.yul\":4724:4730   */\n      0x00\n        /* \"#utility.yul\":4773:4775   */\n      0x20\n        /* \"#utility.yul\":4761:4770   */\n      dup3\n        /* \"#utility.yul\":4752:4759   */\n      dup5\n        /* \"#utility.yul\":4748:4771   */\n      sub\n        /* \"#utility.yul\":4744:4776   */\n      slt\n        /* \"#utility.yul\":4741:4860   */\n      iszero\n      tag_165\n      jumpi\n        /* \"#utility.yul\":4779:4858   */\n      tag_166\n      tag_57\n      jump\t// in\n    tag_166:\n        /* \"#utility.yul\":4741:4860   */\n    tag_165:\n        /* \"#utility.yul\":4899:4900   */\n      0x00\n        /* \"#utility.yul\":4924:4989   */\n      tag_167\n        /* \"#utility.yul\":4981:4988   */\n      dup5\n        /* \"#utility.yul\":4972:4978   */\n      dup3\n        /* \"#utility.yul\":4961:4970   */\n      dup6\n        /* \"#utility.yul\":4957:4979   */\n      add\n        /* \"#utility.yul\":4924:4989   */\n      tag_77\n      jump\t// in\n    tag_167:\n        /* \"#utility.yul\":4914:4989   */\n      swap2\n      pop\n        /* \"#utility.yul\":4870:4999   */\n      pop\n        /* \"#utility.yul\":4653:5006   */\n      swap3\n      swap2\n      pop\n      pop\n      jump\t// out\n        /* \"#utility.yul\":5012:5234   */\n    tag_17:\n        /* \"#utility.yul\":5105:5109   */\n      0x00\n        /* \"#utility.yul\":5143:5145   */\n      0x20\n        /* \"#utility.yul\":5132:5141   */\n      dup3\n        /* \"#utility.yul\":5128:5146   */\n      add\n        /* \"#utility.yul\":5120:5146   */\n      swap1\n      pop\n        /* \"#utility.yul\":5156:5227   */\n      tag_169\n        /* \"#utility.yul\":5224:5225   */\n      0x00\n        /* \"#utility.yul\":5213:5222   */\n      dup4\n        /* \"#utility.yul\":5209:5226   */\n      add\n        /* \"#utility.yul\":5200:5206   */\n      dup5\n        /* \"#utility.yul\":5156:5227   */\n      tag_67\n      jump\t// in\n    tag_169:\n        /* \"#utility.yul\":5012:5234   */\n      swap3\n      swap2\n      pop\n      pop\n      jump\t// out\n        /* \"#utility.yul\":5240:5357   */\n    tag_78:\n        /* \"#utility.yul\":5349:5350   */\n      0x00\n        /* \"#utility.yul\":5346:5347   */\n      dup1\n        /* \"#utility.yul\":5339:5351   */\n      revert\n        /* \"#utility.yul\":5363:5480   */\n    tag_79:\n        /* \"#utility.yul\":5472:5473   */\n      0x00\n        /* \"#utility.yul\":5469:5470   */\n      dup1\n        /* \"#utility.yul\":5462:5474   */\n      revert\n        /* \"#utility.yul\":5486:5666   */\n    tag_80:\n        /* \"#utility.yul\":5534:5611   */\n      0x4e487b7100000000000000000000000000000000000000000000000000000000\n        /* \"#utility.yul\":5531:5532   */\n      0x00\n        /* \"#utility.yul\":5524:5612   */\n      mstore\n        /* \"#utility.yul\":5631:5635   */\n      0x41\n        /* \"#utility.yul\":5628:5629   */\n      0x04\n        /* \"#utility.yul\":5621:5636   */\n      mstore\n        /* \"#utility.yul\":5655:5659   */\n      0x24\n        /* \"#utility.yul\":5652:5653   */\n      0x00\n        /* \"#utility.yul\":5645:5660   */\n      revert\n        /* \"#utility.yul\":5672:5953   */\n    tag_81:\n        /* \"#utility.yul\":5755:5782   */\n      tag_174\n        /* \"#utility.yul\":5777:5781   */\n      dup3\n        /* \"#utility.yul\":5755:5782   */\n      tag_65\n      jump\t// in\n    tag_174:\n        /* \"#utility.yul\":5747:5753   */\n      dup2\n        /* \"#utility.yul\":5743:5783   */\n      add\n        /* \"#utility.yul\":5885:5891   */\n      dup2\n        /* \"#utility.yul\":5873:5883   */\n      dup2\n        /* \"#utility.yul\":5870:5892   */\n      lt\n        /* \"#utility.yul\":5849:5867   */\n      0xffffffffffffffff\n        /* \"#utility.yul\":5837:5847   */\n      dup3\n        /* \"#utility.yul\":5834:5868   */\n      gt\n        /* \"#utility.yul\":5831:5893   */\n      or\n        /* \"#utility.yul\":5828:5916   */\n      iszero\n      tag_175\n      jumpi\n        /* \"#utility.yul\":5896:5914   */\n      tag_176\n      tag_80\n      jump\t// in\n    tag_176:\n        /* \"#utility.yul\":5828:5916   */\n    tag_175:\n        /* \"#utility.yul\":5936:5946   */\n      dup1\n        /* \"#utility.yul\":5932:5934   */\n      0x40\n        /* \"#utility.yul\":5925:5947   */\n      mstore\n        /* \"#utility.yul\":5715:5953   */\n      pop\n        /* \"#utility.yul\":5672:5953   */\n      pop\n      pop\n      jump\t// out\n        /* \"#utility.yul\":5959:6088   */\n    tag_82:\n        /* \"#utility.yul\":5993:5999   */\n      0x00\n        /* \"#utility.yul\":6020:6040   */\n      tag_178\n      tag_56\n      jump\t// in\n    tag_178:\n        /* \"#utility.yul\":6010:6040   */\n      swap1\n      pop\n        /* \"#utility.yul\":6049:6082   */\n      tag_179\n        /* \"#utility.yul\":6077:6081   */\n      dup3\n        /* \"#utility.yul\":6069:6075   */\n      dup3\n        /* \"#utility.yul\":6049:6082   */\n      tag_81\n      jump\t// in\n    tag_179:\n        /* \"#utility.yul\":5959:6088   */\n      swap2\n      swap1\n      pop\n      jump\t// out\n        /* \"#utility.yul\":6094:6402   */\n    tag_83:\n        /* \"#utility.yul\":6156:6160   */\n      0x00\n        /* \"#utility.yul\":6246:6264   */\n      0xffffffffffffffff\n        /* \"#utility.yul\":6238:6244   */\n      dup3\n        /* \"#utility.yul\":6235:6265   */\n      gt\n        /* \"#utility.yul\":6232:6288   */\n      iszero\n      tag_181\n      jumpi\n        /* \"#utility.yul\":6268:6286   */\n      tag_182\n      tag_80\n      jump\t// in\n    tag_182:\n        /* \"#utility.yul\":6232:6288   */\n    tag_181:\n        /* \"#utility.yul\":6306:6335   */\n      tag_183\n        /* \"#utility.yul\":6328:6334   */\n      dup3\n        /* \"#utility.yul\":6306:6335   */\n      tag_65\n      jump\t// in\n    tag_183:\n        /* \"#utility.yul\":6298:6335   */\n      swap1\n      pop\n        /* \"#utility.yul\":6390:6394   */\n      0x20\n        /* \"#utility.yul\":6384:6388   */\n      dup2\n        /* \"#utility.yul\":6380:6395   */\n      add\n        /* \"#utility.yul\":6372:6395   */\n      swap1\n      pop\n        /* \"#utility.yul\":6094:6402   */\n      swap2\n      swap1\n      pop\n      jump\t// out\n        /* \"#utility.yul\":6408:6554   */\n    tag_84:\n        /* \"#utility.yul\":6505:6511   */\n      dup3\n        /* \"#utility.yul\":6500:6503   */\n      dup2\n        /* \"#utility.yul\":6495:6498   */\n      dup4\n        /* \"#utility.yul\":6482:6512   */\n      calldatacopy\n        /* \"#utility.yul\":6546:6547   */\n      0x00\n        /* \"#utility.yul\":6537:6543   */\n      dup4\n        /* \"#utility.yul\":6532:6535   */\n      dup4\n        /* \"#utility.yul\":6528:6544   */\n      add\n        /* \"#utility.yul\":6521:6548   */\n      mstore\n        /* \"#utility.yul\":6408:6554   */\n      pop\n      pop\n      pop\n      jump\t// out\n        /* \"#utility.yul\":6560:6985   */\n    tag_85:\n        /* \"#utility.yul\":6638:6643   */\n      0x00\n        /* \"#utility.yul\":6663:6729   */\n      tag_186\n        /* \"#utility.yul\":6679:6728   */\n      tag_187\n        /* \"#utility.yul\":6721:6727   */\n      dup5\n        /* \"#utility.yul\":6679:6728   */\n      tag_83\n      jump\t// in\n    tag_187:\n        /* \"#utility.yul\":6663:6729   */\n      tag_82\n      jump\t// in\n    tag_186:\n        /* \"#utility.yul\":6654:6729   */\n      swap1\n      pop\n        /* \"#utility.yul\":6752:6758   */\n      dup3\n        /* \"#utility.yul\":6745:6750   */\n      dup2\n        /* \"#utility.yul\":6738:6759   */\n      mstore\n        /* \"#utility.yul\":6790:6794   */\n      0x20\n        /* \"#utility.yul\":6783:6788   */\n      dup2\n        /* \"#utility.yul\":6779:6795   */\n      add\n        /* \"#utility.yul\":6828:6831   */\n      dup5\n        /* \"#utility.yul\":6819:6825   */\n      dup5\n        /* \"#utility.yul\":6814:6817   */\n      dup5\n        /* \"#utility.yul\":6810:6826   */\n      add\n        /* \"#utility.yul\":6807:6832   */\n      gt\n        /* \"#utility.yul\":6804:6916   */\n      iszero\n      tag_188\n      jumpi\n        /* \"#utility.yul\":6835:6914   */\n      tag_189\n      tag_79\n      jump\t// in\n    tag_189:\n        /* \"#utility.yul\":6804:6916   */\n    tag_188:\n        /* \"#utility.yul\":6925:6979   */\n      tag_190\n        /* \"#utility.yul\":6972:6978   */\n      dup5\n        /* \"#utility.yul\":6967:6970   */\n      dup3\n        /* \"#utility.yul\":6962:6965   */\n      dup6\n        /* \"#utility.yul\":6925:6979   */\n      tag_84\n      jump\t// in\n    tag_190:\n        /* \"#utility.yul\":6644:6985   */\n      pop\n        /* \"#utility.yul\":6560:6985   */\n      swap4\n      swap3\n      pop\n      pop\n      pop\n      jump\t// out\n        /* \"#utility.yul\":7005:7345   */\n    tag_86:\n        /* \"#utility.yul\":7061:7066   */\n      0x00\n        /* \"#utility.yul\":7110:7113   */\n      dup3\n        /* \"#utility.yul\":7103:7107   */\n      0x1f\n        /* \"#utility.yul\":7095:7101   */\n      dup4\n        /* \"#utility.yul\":7091:7108   */\n      add\n        /* \"#utility.yul\":7087:7114   */\n      slt\n        /* \"#utility.yul\":7077:7199   */\n      tag_192\n      jumpi\n        /* \"#utility.yul\":7118:7197   */\n      tag_193\n      tag_78\n      jump\t// in\n    tag_193:\n        /* \"#utility.yul\":7077:7199   */\n    tag_192:\n        /* \"#utility.yul\":7235:7241   */\n      dup2\n        /* \"#utility.yul\":7222:7242   */\n      calldataload\n        /* \"#utility.yul\":7260:7339   */\n      tag_194\n        /* \"#utility.yul\":7335:7338   */\n      dup5\n        /* \"#utility.yul\":7327:7333   */\n      dup3\n        /* \"#utility.yul\":7320:7324   */\n      0x20\n        /* \"#utility.yul\":7312:7318   */\n      dup7\n        /* \"#utility.yul\":7308:7325   */\n      add\n        /* \"#utility.yul\":7260:7339   */\n      tag_85\n      jump\t// in\n    tag_194:\n        /* \"#utility.yul\":7251:7339   */\n      swap2\n      pop\n        /* \"#utility.yul\":7067:7345   */\n      pop\n        /* \"#utility.yul\":7005:7345   */\n      swap3\n      swap2\n      pop\n      pop\n      jump\t// out\n        /* \"#utility.yul\":7351:7459   */\n    tag_87:\n        /* \"#utility.yul\":7433:7434   */\n      0x04\n        /* \"#utility.yul\":7426:7431   */\n      dup2\n        /* \"#utility.yul\":7423:7435   */\n      lt\n        /* \"#utility.yul\":7413:7453   */\n      tag_196\n      jumpi\n        /* \"#utility.yul\":7449:7450   */\n      0x00\n        /* \"#utility.yul\":7446:7447   */\n      dup1\n        /* \"#utility.yul\":7439:7451   */\n      revert\n        /* \"#utility.yul\":7413:7453   */\n    tag_196:\n        /* \"#utility.yul\":7351:7459   */\n      pop\n      jump\t// out\n        /* \"#utility.yul\":7465:7622   */\n    tag_88:\n        /* \"#utility.yul\":7520:7525   */\n      0x00\n        /* \"#utility.yul\":7558:7564   */\n      dup2\n        /* \"#utility.yul\":7545:7565   */\n      calldataload\n        /* \"#utility.yul\":7536:7565   */\n      swap1\n      pop\n        /* \"#utility.yul\":7574:7616   */\n      tag_198\n        /* \"#utility.yul\":7610:7615   */\n      dup2\n        /* \"#utility.yul\":7574:7616   */\n      tag_87\n      jump\t// in\n    tag_198:\n        /* \"#utility.yul\":7465:7622   */\n      swap3\n      swap2\n      pop\n      pop\n      jump\t// out\n        /* \"#utility.yul\":7628:8907   */\n    tag_20:\n        /* \"#utility.yul\":7763:7769   */\n      0x00\n        /* \"#utility.yul\":7771:7777   */\n      dup1\n        /* \"#utility.yul\":7779:7785   */\n      0x00\n        /* \"#utility.yul\":7787:7793   */\n      dup1\n        /* \"#utility.yul\":7795:7801   */\n      0x00\n        /* \"#utility.yul\":7803:7809   */\n      dup1\n        /* \"#utility.yul\":7852:7855   */\n      0xc0\n        /* \"#utility.yul\":7840:7849   */\n      dup8\n        /* \"#utility.yul\":7831:7838   */\n      dup10\n        /* \"#utility.yul\":7827:7850   */\n      sub\n        /* \"#utility.yul\":7823:7856   */\n      slt\n        /* \"#utility.yul\":7820:7940   */\n      iszero\n      tag_200\n      jumpi\n        /* \"#utility.yul\":7859:7938   */\n      tag_201\n      tag_57\n      jump\t// in\n    tag_201:\n        /* \"#utility.yul\":7820:7940   */\n    tag_200:\n        /* \"#utility.yul\":7979:7980   */\n      0x00\n        /* \"#utility.yul\":8004:8057   */\n      tag_202\n        /* \"#utility.yul\":8049:8056   */\n      dup10\n        /* \"#utility.yul\":8040:8046   */\n      dup3\n        /* \"#utility.yul\":8029:8038   */\n      dup11\n        /* \"#utility.yul\":8025:8047   */\n      add\n        /* \"#utility.yul\":8004:8057   */\n      tag_61\n      jump\t// in\n    tag_202:\n        /* \"#utility.yul\":7994:8057   */\n      swap7\n      pop\n        /* \"#utility.yul\":7950:8067   */\n      pop\n        /* \"#utility.yul\":8134:8136   */\n      0x20\n        /* \"#utility.yul\":8123:8132   */\n      dup8\n        /* \"#utility.yul\":8119:8137   */\n      add\n        /* \"#utility.yul\":8106:8138   */\n      calldataload\n        /* \"#utility.yul\":8165:8183   */\n      0xffffffffffffffff\n        /* \"#utility.yul\":8157:8163   */\n      dup2\n        /* \"#utility.yul\":8154:8184   */\n      gt\n        /* \"#utility.yul\":8151:8268   */\n      iszero\n      tag_203\n      jumpi\n        /* \"#utility.yul\":8187:8266   */\n      tag_204\n      tag_58\n      jump\t// in\n    tag_204:\n        /* \"#utility.yul\":8151:8268   */\n    tag_203:\n        /* \"#utility.yul\":8292:8355   */\n      tag_205\n        /* \"#utility.yul\":8347:8354   */\n      dup10\n        /* \"#utility.yul\":8338:8344   */\n      dup3\n        /* \"#utility.yul\":8327:8336   */\n      dup11\n        /* \"#utility.yul\":8323:8345   */\n      add\n        /* \"#utility.yul\":8292:8355   */\n      tag_86\n      jump\t// in\n    tag_205:\n        /* \"#utility.yul\":8282:8355   */\n      swap6\n      pop\n        /* \"#utility.yul\":8077:8365   */\n      pop\n        /* \"#utility.yul\":8404:8406   */\n      0x40\n        /* \"#utility.yul\":8430:8483   */\n      tag_206\n        /* \"#utility.yul\":8475:8482   */\n      dup10\n        /* \"#utility.yul\":8466:8472   */\n      dup3\n        /* \"#utility.yul\":8455:8464   */\n      dup11\n        /* \"#utility.yul\":8451:8473   */\n      add\n        /* \"#utility.yul\":8430:8483   */\n      tag_61\n      jump\t// in\n    tag_206:\n        /* \"#utility.yul\":8420:8483   */\n      swap5\n      pop\n        /* \"#utility.yul\":8375:8493   */\n      pop\n        /* \"#utility.yul\":8532:8534   */\n      0x60\n        /* \"#utility.yul\":8558:8623   */\n      tag_207\n        /* \"#utility.yul\":8615:8622   */\n      dup10\n        /* \"#utility.yul\":8606:8612   */\n      dup3\n        /* \"#utility.yul\":8595:8604   */\n      dup11\n        /* \"#utility.yul\":8591:8613   */\n      add\n        /* \"#utility.yul\":8558:8623   */\n      tag_77\n      jump\t// in\n    tag_207:\n        /* \"#utility.yul\":8548:8623   */\n      swap4\n      pop\n        /* \"#utility.yul\":8503:8633   */\n      pop\n        /* \"#utility.yul\":8672:8675   */\n      0x80\n        /* \"#utility.yul\":8699:8761   */\n      tag_208\n        /* \"#utility.yul\":8753:8760   */\n      dup10\n        /* \"#utility.yul\":8744:8750   */\n      dup3\n        /* \"#utility.yul\":8733:8742   */\n      dup11\n        /* \"#utility.yul\":8729:8751   */\n      add\n        /* \"#utility.yul\":8699:8761   */\n      tag_88\n      jump\t// in\n    tag_208:\n        /* \"#utility.yul\":8689:8761   */\n      swap3\n      pop\n        /* \"#utility.yul\":8643:8771   */\n      pop\n        /* \"#utility.yul\":8810:8813   */\n      0xa0\n        /* \"#utility.yul\":8837:8890   */\n      tag_209\n        /* \"#utility.yul\":8882:8889   */\n      dup10\n        /* \"#utility.yul\":8873:8879   */\n      dup3\n        /* \"#utility.yul\":8862:8871   */\n      dup11\n        /* \"#utility.yul\":8858:8880   */\n      add\n        /* \"#utility.yul\":8837:8890   */\n      tag_61\n      jump\t// in\n    tag_209:\n        /* \"#utility.yul\":8827:8890   */\n      swap2\n      pop\n        /* \"#utility.yul\":8781:8900   */\n      pop\n        /* \"#utility.yul\":7628:8907   */\n      swap3\n      swap6\n      pop\n      swap3\n      swap6\n      pop\n      swap3\n      swap6\n      jump\t// out\n        /* \"#utility.yul\":8913:9093   */\n    tag_89:\n        /* \"#utility.yul\":8961:9038   */\n      0x4e487b7100000000000000000000000000000000000000000000000000000000\n        /* \"#utility.yul\":8958:8959   */\n      0x00\n        /* \"#utility.yul\":8951:9039   */\n      mstore\n        /* \"#utility.yul\":9058:9062   */\n      0x22\n        /* \"#utility.yul\":9055:9056   */\n      0x04\n        /* \"#utility.yul\":9048:9063   */\n      mstore\n        /* \"#utility.yul\":9082:9086   */\n      0x24\n        /* \"#utility.yul\":9079:9080   */\n      0x00\n        /* \"#utility.yul\":9072:9087   */\n      revert\n        /* \"#utility.yul\":9099:9419   */\n    tag_23:\n        /* \"#utility.yul\":9143:9149   */\n      0x00\n        /* \"#utility.yul\":9180:9181   */\n      0x02\n        /* \"#utility.yul\":9174:9178   */\n      dup3\n        /* \"#utility.yul\":9170:9182   */\n      div\n        /* \"#utility.yul\":9160:9182   */\n      swap1\n      pop\n        /* \"#utility.yul\":9227:9228   */\n      0x01\n        /* \"#utility.yul\":9221:9225   */\n      dup3\n        /* \"#utility.yul\":9217:9229   */\n      and\n        /* \"#utility.yul\":9248:9266   */\n      dup1\n        /* \"#utility.yul\":9238:9319   */\n      tag_212\n      jumpi\n        /* \"#utility.yul\":9304:9308   */\n      0x7f\n        /* \"#utility.yul\":9296:9302   */\n      dup3\n        /* \"#utility.yul\":9292:9309   */\n      and\n        /* \"#utility.yul\":9282:9309   */\n      swap2\n      pop\n        /* \"#utility.yul\":9238:9319   */\n    tag_212:\n        /* \"#utility.yul\":9366:9368   */\n      0x20\n        /* \"#utility.yul\":9358:9364   */\n      dup3\n        /* \"#utility.yul\":9355:9369   */\n      lt\n        /* \"#utility.yul\":9335:9353   */\n      dup2\n        /* \"#utility.yul\":9332:9370   */\n      sub\n        /* \"#utility.yul\":9329:9413   */\n      tag_213\n      jumpi\n        /* \"#utility.yul\":9385:9403   */\n      tag_214\n      tag_89\n      jump\t// in\n    tag_214:\n        /* \"#utility.yul\":9329:9413   */\n    tag_213:\n        /* \"#utility.yul\":9150:9419   */\n      pop\n        /* \"#utility.yul\":9099:9419   */\n      swap2\n      swap1\n      pop\n      jump\t// out\n        /* \"#utility.yul\":9425:9566   */\n    tag_90:\n        /* \"#utility.yul\":9474:9478   */\n      0x00\n        /* \"#utility.yul\":9497:9500   */\n      dup2\n        /* \"#utility.yul\":9489:9500   */\n      swap1\n      pop\n        /* \"#utility.yul\":9520:9523   */\n      dup2\n        /* \"#utility.yul\":9517:9518   */\n      0x00\n        /* \"#utility.yul\":9510:9524   */\n      mstore\n        /* \"#utility.yul\":9554:9558   */\n      0x20\n        /* \"#utility.yul\":9551:9552   */\n      0x00\n        /* \"#utility.yul\":9541:9559   */\n      keccak256\n        /* \"#utility.yul\":9533:9559   */\n      swap1\n      pop\n        /* \"#utility.yul\":9425:9566   */\n      swap2\n      swap1\n      pop\n      jump\t// out\n        /* \"#utility.yul\":9572:9665   */\n    tag_91:\n        /* \"#utility.yul\":9609:9615   */\n      0x00\n        /* \"#utility.yul\":9656:9658   */\n      0x20\n        /* \"#utility.yul\":9651:9653   */\n      0x1f\n        /* \"#utility.yul\":9644:9649   */\n      dup4\n        /* \"#utility.yul\":9640:9654   */\n      add\n        /* \"#utility.yul\":9636:9659   */\n      div\n        /* \"#utility.yul\":9626:9659   */\n      swap1\n      pop\n        /* \"#utility.yul\":9572:9665   */\n      swap2\n      swap1\n      pop\n      jump\t// out\n        /* \"#utility.yul\":9671:9778   */\n    tag_92:\n        /* \"#utility.yul\":9715:9723   */\n      0x00\n        /* \"#utility.yul\":9765:9770   */\n      dup3\n        /* \"#utility.yul\":9759:9763   */\n      dup3\n        /* \"#utility.yul\":9755:9771   */\n      shl\n        /* \"#utility.yul\":9734:9771   */\n      swap1\n      pop\n        /* \"#utility.yul\":9671:9778   */\n      swap3\n      swap2\n      pop\n      pop\n      jump\t// out\n        /* \"#utility.yul\":9784:10177   */\n    tag_93:\n        /* \"#utility.yul\":9853:9859   */\n      0x00\n        /* \"#utility.yul\":9903:9904   */\n      0x08\n        /* \"#utility.yul\":9891:9901   */\n      dup4\n        /* \"#utility.yul\":9887:9905   */\n      mul\n        /* \"#utility.yul\":9926:10023   */\n      tag_219\n        /* \"#utility.yul\":9956:10022   */\n      0xffffffffffffffffffffffffffffffffffffffffffffffffffffffffffffffff\n        /* \"#utility.yul\":9945:9954   */\n      dup3\n        /* \"#utility.yul\":9926:10023   */\n      tag_92\n      jump\t// in\n    tag_219:\n        /* \"#utility.yul\":10044:10083   */\n      tag_220\n        /* \"#utility.yul\":10074:10082   */\n      dup7\n        /* \"#utility.yul\":10063:10072   */\n      dup4\n        /* \"#utility.yul\":10044:10083   */\n      tag_92\n      jump\t// in\n    tag_220:\n        /* \"#utility.yul\":10032:10083   */\n      swap6\n      pop\n        /* \"#utility.yul\":10116:10120   */\n      dup1\n        /* \"#utility.yul\":10112:10121   */\n      not\n        /* \"#utility.yul\":10105:10110   */\n      dup5\n        /* \"#utility.yul\":10101:10122   */\n      and\n        /* \"#utility.yul\":10092:10122   */\n      swap4\n      pop\n        /* \"#utility.yul\":10165:10169   */\n      dup1\n        /* \"#utility.yul\":10155:10163   */\n      dup7\n        /* \"#utility.yul\":10151:10170   */\n      and\n        /* \"#utility.yul\":10144:10149   */\n      dup5\n        /* \"#utility.yul\":10141:10171   */\n      or\n        /* \"#utility.yul\":10131:10171   */\n      swap3\n      pop\n        /* \"#utility.yul\":9860:10177   */\n      pop\n      pop\n        /* \"#utility.yul\":9784:10177   */\n      swap4\n      swap3\n      pop\n      pop\n      pop\n      jump\t// out\n        /* \"#utility.yul\":10183:10243   */\n    tag_94:\n        /* \"#utility.yul\":10211:10214   */\n      0x00\n        /* \"#utility.yul\":10232:10237   */\n      dup2\n        /* \"#utility.yul\":10225:10237   */\n      swap1\n      pop\n        /* \"#utility.yul\":10183:10243   */\n      swap2\n      swap1\n      pop\n      jump\t// out\n        /* \"#utility.yul\":10249:10391   */\n    tag_95:\n        /* \"#utility.yul\":10299:10308   */\n      0x00\n        /* \"#utility.yul\":10332:10385   */\n      tag_223\n        /* \"#utility.yul\":10350:10384   */\n      tag_224\n        /* \"#utility.yul\":10359:10383   */\n      tag_225\n        /* \"#utility.yul\":10377:10382   */\n      dup5\n        /* \"#utility.yul\":10359:10383   */\n      tag_59\n      jump\t// in\n    tag_225:\n        /* \"#utility.yul\":10350:10384   */\n      tag_94\n      jump\t// in\n    tag_224:\n        /* \"#utility.yul\":10332:10385   */\n      tag_59\n      jump\t// in\n    tag_223:\n        /* \"#utility.yul\":10319:10385   */\n      swap1\n      pop\n        /* \"#utility.yul\":10249:10391   */\n      swap2\n      swap1\n      pop\n      jump\t// out\n        /* \"#utility.yul\":10397:10472   */\n    tag_96:\n        /* \"#utility.yul\":10440:10443   */\n      0x00\n        /* \"#utility.yul\":10461:10466   */\n      dup2\n        /* \"#utility.yul\":10454:10466   */\n      swap1\n      pop\n        /* \"#utility.yul\":10397:10472   */\n      swap2\n      swap1\n      pop\n      jump\t// out\n        /* \"#utility.yul\":10478:10747   */\n    tag_97:\n        /* \"#utility.yul\":10588:10627   */\n      tag_228\n        /* \"#utility.yul\":10619:10626   */\n      dup4\n        /* \"#utility.yul\":10588:10627   */\n      tag_95\n      jump\t// in\n    tag_228:\n        /* \"#utility.yul\":10649:10740   */\n      tag_229\n        /* \"#utility.yul\":10698:10739   */\n      tag_230\n        /* \"#utility.yul\":10722:10738   */\n      dup3\n        /* \"#utility.yul\":10698:10739   */\n      tag_96\n      jump\t// in\n    tag_230:\n        /* \"#utility.yul\":10690:10696   */\n      dup5\n        /* \"#utility.yul\":10683:10687   */\n      dup5\n        /* \"#utility.yul\":10677:10688   */\n      sload\n        /* \"#utility.yul\":10649:10740   */\n      tag_93\n      jump\t// in\n    tag_229:\n        /* \"#utility.yul\":10643:10647   */\n      dup3\n        /* \"#utility.yul\":10636:10741   */\n      sstore\n        /* \"#utility.yul\":10554:10747   */\n      pop\n        /* \"#utility.yul\":10478:10747   */\n      pop\n      pop\n      pop\n      jump\t// out\n        /* \"#utility.yul\":10753:10826   */\n    tag_98:\n        /* \"#utility.yul\":10798:10801   */\n      0x00\n        /* \"#utility.yul\":10753:10826   */\n      swap1\n      jump\t// out\n        /* \"#utility.yul\":10832:11021   */\n    tag_99:\n        /* \"#utility.yul\":10909:10941   */\n      tag_233\n      tag_98\n      jump\t// in\n    tag_233:\n        /* \"#utility.yul\":10950:11015   */\n      tag_234\n        /* \"#utility.yul\":11008:11014   */\n      dup2\n        /* \"#utility.yul\":11000:11006   */\n      dup5\n        /* \"#utility.yul\":10994:10998   */\n      dup5\n        /* \"#utility.yul\":10950:11015   */\n      tag_97\n      jump\t// in\n    tag_234:\n        /* \"#utility.yul\":10885:11021   */\n      pop\n        /* \"#utility.yul\":10832:11021   */\n      pop\n      pop\n      jump\t// out\n        /* \"#utility.yul\":11027:11213   */\n    tag_100:\n        /* \"#utility.yul\":11087:11207   */\n    tag_236:\n        /* \"#utility.yul\":11104:11107   */\n      dup2\n        /* \"#utility.yul\":11097:11102   */\n      dup2\n        /* \"#utility.yul\":11094:11108   */\n      lt\n        /* \"#utility.yul\":11087:11207   */\n      iszero\n      tag_238\n      jumpi\n        /* \"#utility.yul\":11158:11197   */\n      tag_239\n        /* \"#utility.yul\":11195:11196   */\n      0x00\n        /* \"#utility.yul\":11188:11193   */\n      dup3\n        /* \"#utility.yul\":11158:11197   */\n      tag_99\n      jump\t// in\n    tag_239:\n        /* \"#utility.yul\":11131:11132   */\n      0x01\n        /* \"#utility.yul\":11124:11129   */\n      dup2\n        /* \"#utility.yul\":11120:11133   */\n      add\n        /* \"#utility.yul\":11111:11133   */\n      swap1\n      pop\n        /* \"#utility.yul\":11087:11207   */\n      jump(tag_236)\n    tag_238:\n        /* \"#utility.yul\":11027:11213   */\n      pop\n      pop\n      jump\t// out\n        /* \"#utility.yul\":11219:11762   */\n    tag_101:\n        /* \"#utility.yul\":11320:11322   */\n      0x1f\n        /* \"#utility.yul\":11315:11318   */\n      dup3\n        /* \"#utility.yul\":11312:11323   */\n      gt\n        /* \"#utility.yul\":11309:11755   */\n      iszero\n      tag_241\n      jumpi\n        /* \"#utility.yul\":11354:11392   */\n      tag_242\n        /* \"#utility.yul\":11386:11391   */\n      dup2\n        /* \"#utility.yul\":11354:11392   */\n      tag_90\n      jump\t// in\n    tag_242:\n        /* \"#utility.yul\":11438:11467   */\n      tag_243\n        /* \"#utility.yul\":11456:11466   */\n      dup5\n        /* \"#utility.yul\":11438:11467   */\n      tag_91\n      jump\t// in\n    tag_243:\n        /* \"#utility.yul\":11428:11436   */\n      dup2\n        /* \"#utility.yul\":11424:11468   */\n      add\n        /* \"#utility.yul\":11621:11623   */\n      0x20\n        /* \"#utility.yul\":11609:11619   */\n      dup6\n        /* \"#utility.yul\":11606:11624   */\n      lt\n        /* \"#utility.yul\":11603:11652   */\n      iszero\n      tag_244\n      jumpi\n        /* \"#utility.yul\":11642:11650   */\n      dup2\n        /* \"#utility.yul\":11627:11650   */\n      swap1\n      pop\n        /* \"#utility.yul\":11603:11652   */\n    tag_244:\n        /* \"#utility.yul\":11665:11745   */\n      tag_245\n        /* \"#utility.yul\":11721:11743   */\n      tag_246\n        /* \"#utility.yul\":11739:11742   */\n      dup6\n        /* \"#utility.yul\":11721:11743   */\n      tag_91\n      jump\t// in\n    tag_246:\n        /* \"#utility.yul\":11711:11719   */\n      dup4\n        /* \"#utility.yul\":11707:11744   */\n      add\n        /* \"#utility.yul\":11694:11705   */\n      dup3\n        /* \"#utility.yul\":11665:11745   */\n      tag_100\n      jump\t// in\n    tag_245:\n        /* \"#utility.yul\":11324:11755   */\n      pop\n      pop\n        /* \"#utility.yul\":11309:11755   */\n    tag_241:\n        /* \"#utility.yul\":11219:11762   */\n      pop\n      pop\n      pop\n      jump\t// out\n        /* \"#utility.yul\":11768:11885   */\n    tag_102:\n        /* \"#utility.yul\":11822:11830   */\n      0x00\n        /* \"#utility.yul\":11872:11877   */\n      dup3\n        /* \"#utility.yul\":11866:11870   */\n      dup3\n        /* \"#utility.yul\":11862:11878   */\n      shr\n        /* \"#utility.yul\":11841:11878   */\n      swap1\n      pop\n        /* \"#utility.yul\":11768:11885   */\n      swap3\n      swap2\n      pop\n      pop\n      jump\t// out\n        /* \"#utility.yul\":11891:12060   */\n    tag_103:\n        /* \"#utility.yul\":11935:11941   */\n      0x00\n        /* \"#utility.yul\":11968:12019   */\n      tag_249\n        /* \"#utility.yul\":12016:12017   */\n      0x00\n        /* \"#utility.yul\":12012:12018   */\n      not\n        /* \"#utility.yul\":12004:12009   */\n      dup5\n        /* \"#utility.yul\":12001:12002   */\n      0x08\n        /* \"#utility.yul\":11997:12010   */\n      mul\n        /* \"#utility.yul\":11968:12019   */\n      tag_102\n      jump\t// in\n    tag_249:\n        /* \"#utility.yul\":11964:12020   */\n      not\n        /* \"#utility.yul\":12049:12053   */\n      dup1\n        /* \"#utility.yul\":12043:12047   */\n      dup4\n        /* \"#utility.yul\":12039:12054   */\n      and\n        /* \"#utility.yul\":12029:12054   */\n      swap2\n      pop\n        /* \"#utility.yul\":11942:12060   */\n      pop\n        /* \"#utility.yul\":11891:12060   */\n      swap3\n      swap2\n      pop\n      pop\n      jump\t// out\n        /* \"#utility.yul\":12065:12360   */\n    tag_104:\n        /* \"#utility.yul\":12141:12145   */\n      0x00\n        /* \"#utility.yul\":12287:12316   */\n      tag_251\n        /* \"#utility.yul\":12312:12315   */\n      dup4\n        /* \"#utility.yul\":12306:12310   */\n      dup4\n        /* \"#utility.yul\":12287:12316   */\n      tag_103\n      jump\t// in\n    tag_251:\n        /* \"#utility.yul\":12279:12316   */\n      swap2\n      pop\n        /* \"#utility.yul\":12349:12352   */\n      dup3\n        /* \"#utility.yul\":12346:12347   */\n      0x02\n        /* \"#utility.yul\":12342:12353   */\n      mul\n        /* \"#utility.yul\":12336:12340   */\n      dup3\n        /* \"#utility.yul\":12333:12354   */\n      or\n        /* \"#utility.yul\":12325:12354   */\n      swap1\n      pop\n        /* \"#utility.yul\":12065:12360   */\n      swap3\n      swap2\n      pop\n      pop\n      jump\t// out\n        /* \"#utility.yul\":12365:13760   */\n    tag_35:\n        /* \"#utility.yul\":12482:12519   */\n      tag_253\n        /* \"#utility.yul\":12515:12518   */\n      dup3\n        /* \"#utility.yul\":12482:12519   */\n      tag_62\n      jump\t// in\n    tag_253:\n        /* \"#utility.yul\":12584:12602   */\n      0xffffffffffffffff\n        /* \"#utility.yul\":12576:12582   */\n      dup2\n        /* \"#utility.yul\":12573:12603   */\n      gt\n        /* \"#utility.yul\":12570:12626   */\n      iszero\n      tag_254\n      jumpi\n        /* \"#utility.yul\":12606:12624   */\n      tag_255\n      tag_80\n      jump\t// in\n    tag_255:\n        /* \"#utility.yul\":12570:12626   */\n    tag_254:\n        /* \"#utility.yul\":12650:12688   */\n      tag_256\n        /* \"#utility.yul\":12682:12686   */\n      dup3\n        /* \"#utility.yul\":12676:12687   */\n      sload\n        /* \"#utility.yul\":12650:12688   */\n      tag_23\n      jump\t// in\n    tag_256:\n        /* \"#utility.yul\":12735:12802   */\n      tag_257\n        /* \"#utility.yul\":12795:12801   */\n      dup3\n        /* \"#utility.yul\":12787:12793   */\n      dup3\n        /* \"#utility.yul\":12781:12785   */\n      dup6\n        /* \"#utility.yul\":12735:12802   */\n      tag_101\n      jump\t// in\n    tag_257:\n        /* \"#utility.yul\":12829:12830   */\n      0x00\n        /* \"#utility.yul\":12853:12857   */\n      0x20\n        /* \"#utility.yul\":12840:12857   */\n      swap1\n      pop\n        /* \"#utility.yul\":12885:12887   */\n      0x1f\n        /* \"#utility.yul\":12877:12883   */\n      dup4\n        /* \"#utility.yul\":12874:12888   */\n      gt\n        /* \"#utility.yul\":12902:12903   */\n      0x01\n        /* \"#utility.yul\":12897:13515   */\n      dup2\n      eq\n      tag_259\n      jumpi\n        /* \"#utility.yul\":13559:13560   */\n      0x00\n        /* \"#utility.yul\":13576:13582   */\n      dup5\n        /* \"#utility.yul\":13573:13650   */\n      iszero\n      tag_260\n      jumpi\n        /* \"#utility.yul\":13625:13634   */\n      dup3\n        /* \"#utility.yul\":13620:13623   */\n      dup8\n        /* \"#utility.yul\":13616:13635   */\n      add\n        /* \"#utility.yul\":13610:13636   */\n      mload\n        /* \"#utility.yul\":13601:13636   */\n      swap1\n      pop\n        /* \"#utility.yul\":13573:13650   */\n    tag_260:\n        /* \"#utility.yul\":13676:13743   */\n      tag_261\n        /* \"#utility.yul\":13736:13742   */\n      dup6\n        /* \"#utility.yul\":13729:13734   */\n      dup3\n        /* \"#utility.yul\":13676:13743   */\n      tag_104\n      jump\t// in\n    tag_261:\n        /* \"#utility.yul\":13670:13674   */\n      dup7\n        /* \"#utility.yul\":13663:13744   */\n      sstore\n        /* \"#utility.yul\":13532:13754   */\n      pop\n        /* \"#utility.yul\":12867:13754   */\n      jump(tag_258)\n        /* \"#utility.yul\":12897:13515   */\n    tag_259:\n        /* \"#utility.yul\":12949:12953   */\n      0x1f\n        /* \"#utility.yul\":12945:12954   */\n      not\n        /* \"#utility.yul\":12937:12943   */\n      dup5\n        /* \"#utility.yul\":12933:12955   */\n      and\n        /* \"#utility.yul\":12983:13020   */\n      tag_262\n        /* \"#utility.yul\":13015:13019   */\n      dup7\n        /* \"#utility.yul\":12983:13020   */\n      tag_90\n      jump\t// in\n    tag_262:\n        /* \"#utility.yul\":13042:13043   */\n      0x00\n        /* \"#utility.yul\":13056:13264   */\n    tag_263:\n        /* \"#utility.yul\":13070:13077   */\n      dup3\n        /* \"#utility.yul\":13067:13068   */\n      dup2\n        /* \"#utility.yul\":13064:13078   */\n      lt\n        /* \"#utility.yul\":13056:13264   */\n      iszero\n      tag_265\n      jumpi\n        /* \"#utility.yul\":13149:13158   */\n      dup5\n        /* \"#utility.yul\":13144:13147   */\n      dup10\n        /* \"#utility.yul\":13140:13159   */\n      add\n        /* \"#utility.yul\":13134:13160   */\n      mload\n        /* \"#utility.yul\":13126:13132   */\n      dup3\n        /* \"#utility.yul\":13119:13161   */\n      sstore\n        /* \"#utility.yul\":13200:13201   */\n      0x01\n        /* \"#utility.yul\":13192:13198   */\n      dup3\n        /* \"#utility.yul\":13188:13202   */\n      add\n        /* \"#utility.yul\":13178:13202   */\n      swap2\n      pop\n        /* \"#utility.yul\":13247:13249   */\n      0x20\n        /* \"#utility.yul\":13236:13245   */\n      dup6\n        /* \"#utility.yul\":13232:13250   */\n      add\n        /* \"#utility.yul\":13219:13250   */\n      swap5\n      pop\n        /* \"#utility.yul\":13093:13097   */\n      0x20\n        /* \"#utility.yul\":13090:13091   */\n      dup2\n        /* \"#utility.yul\":13086:13098   */\n      add\n        /* \"#utility.yul\":13081:13098   */\n      swap1\n      pop\n        /* \"#utility.yul\":13056:13264   */\n      jump(tag_263)\n    tag_265:\n        /* \"#utility.yul\":13292:13298   */\n      dup7\n        /* \"#utility.yul\":13283:13290   */\n      dup4\n        /* \"#utility.yul\":13280:13299   */\n      lt\n        /* \"#utility.yul\":13277:13456   */\n      iszero\n      tag_266\n      jumpi\n        /* \"#utility.yul\":13350:13359   */\n      dup5\n        /* \"#utility.yul\":13345:13348   */\n      dup10\n        /* \"#utility.yul\":13341:13360   */\n      add\n        /* \"#utility.yul\":13335:13361   */\n      mload\n        /* \"#utility.yul\":13393:13441   */\n      tag_267\n        /* \"#utility.yul\":13435:13439   */\n      0x1f\n        /* \"#utility.yul\":13427:13433   */\n      dup10\n        /* \"#utility.yul\":13423:13440   */\n      and\n        /* \"#utility.yul\":13412:13421   */\n      dup3\n        /* \"#utility.yul\":13393:13441   */\n      tag_103\n      jump\t// in\n    tag_267:\n        /* \"#utility.yul\":13385:13391   */\n      dup4\n        /* \"#utility.yul\":13378:13442   */\n      sstore\n        /* \"#utility.yul\":13300:13456   */\n      pop\n        /* \"#utility.yul\":13277:13456   */\n    tag_266:\n        /* \"#utility.yul\":13502:13503   */\n      0x01\n        /* \"#utility.yul\":13498:13499   */\n      0x02\n        /* \"#utility.yul\":13490:13496   */\n      dup9\n        /* \"#utility.yul\":13486:13500   */\n      mul\n        /* \"#utility.yul\":13482:13504   */\n      add\n        /* \"#utility.yul\":13476:13480   */\n      dup9\n        /* \"#utility.yul\":13469:13505   */\n      sstore\n        /* \"#utility.yul\":12904:13515   */\n      pop\n      pop\n      pop\n        /* \"#utility.yul\":12867:13754   */\n    tag_258:\n      pop\n        /* \"#utility.yul\":12457:13760   */\n      pop\n      pop\n      pop\n        /* \"#utility.yul\":12365:13760   */\n      pop\n      pop\n      jump\t// out\n        /* \"#utility.yul\":13766:13946   */\n    tag_105:\n        /* \"#utility.yul\":13814:13891   */\n      0x4e487b7100000000000000000000000000000000000000000000000000000000\n        /* \"#utility.yul\":13811:13812   */\n      0x00\n        /* \"#utility.yul\":13804:13892   */\n      mstore\n        /* \"#utility.yul\":13911:13915   */\n      0x11\n        /* \"#utility.yul\":13908:13909   */\n      0x04\n        /* \"#utility.yul\":13901:13916   */\n      mstore\n        /* \"#utility.yul\":13935:13939   */\n      0x24\n        /* \"#utility.yul\":13932:13933   */\n      0x00\n        /* \"#utility.yul\":13925:13940   */\n      revert\n        /* \"#utility.yul\":13952:14185   */\n    tag_55:\n        /* \"#utility.yul\":13991:13994   */\n      0x00\n        /* \"#utility.yul\":14014:14038   */\n      tag_270\n        /* \"#utility.yul\":14032:14037   */\n      dup3\n        /* \"#utility.yul\":14014:14038   */\n      tag_59\n      jump\t// in\n    tag_270:\n        /* \"#utility.yul\":14005:14038   */\n      swap2\n      pop\n        /* \"#utility.yul\":14060:14126   */\n      0xffffffffffffffffffffffffffffffffffffffffffffffffffffffffffffffff\n        /* \"#utility.yul\":14053:14058   */\n      dup3\n        /* \"#utility.yul\":14050:14127   */\n      sub\n        /* \"#utility.yul\":14047:14150   */\n      tag_271\n      jumpi\n        /* \"#utility.yul\":14130:14148   */\n      tag_272\n      tag_105\n      jump\t// in\n    tag_272:\n        /* \"#utility.yul\":14047:14150   */\n    tag_271:\n        /* \"#utility.yul\":14177:14178   */\n      0x01\n        /* \"#utility.yul\":14170:14175   */\n      dup3\n        /* \"#utility.yul\":14166:14179   */\n      add\n        /* \"#utility.yul\":14159:14179   */\n      swap1\n      pop\n        /* \"#utility.yul\":13952:14185   */\n      swap2\n      swap1\n      pop\n      jump\t// out\n\n    auxdata: 0xa2646970667358221220e0a58134bc643e3177c21bd0393f690446f1c03ab5b92fad67df34789b73c01964736f6c63430008120033\n}\n",
				"bytecode": {
					"linkReferences": {},
					"object": "608060405234801561001057600080fd5b50610ba3806100206000396000f3fe608060405234801561001057600080fd5b50600436106100415760003560e01c806306ead22e1461004657806339aabbbb1461007b5780635887bbbf146100ab575b600080fd5b610060600480360381019061005b91906103b5565b6100c7565b60405161007296959493929190610540565b60405180910390f35b610095600480360381019061009091906105cd565b6101a5565b6040516100a291906105fa565b60405180910390f35b6100c560048036038101906100c0919061076f565b6101bd565b005b60006020528060005260406000206000915090508060000180546100ea90610847565b80601f016020809104026020016040519081016040528092919081815260200182805461011690610847565b80156101635780601f1061013857610100808354040283529160200191610163565b820191906000526020600020905b81548152906001019060200180831161014657829003601f168201915b5050505050908060010154908060020154908060030160009054906101000a900460ff16908060030160019054906101000a900460ff16908060040154905086565b60016020528060005260406000206000915090505481565b6040518060c001604052808681526020018581526020014281526020018460038111156101ed576101ec610481565b5b815260200183600381111561020557610204610481565b5b81526020018281525060008088815260200190815260200160002060008201518160000190816102359190610a24565b50602082015181600101556040820151816002015560608201518160030160006101000a81548160ff0219169083600381111561027557610274610481565b5b021790555060808201518160030160016101000a81548160ff021916908360038111156102a5576102a4610481565b5b021790555060a08201518160040155905050600160038111156102cb576102ca610481565b5b8260038111156102de576102dd610481565b5b1415801561031057506003808111156102fa576102f9610481565b5b82600381111561030d5761030c610481565b5b14155b15610363576001600084600381111561032c5761032b610481565b5b600381111561033e5761033d610481565b5b8152602001908152602001600020600081548092919061035d90610b25565b91905055505b505050505050565b6000604051905090565b600080fd5b600080fd5b6000819050919050565b6103928161037f565b811461039d57600080fd5b50565b6000813590506103af81610389565b92915050565b6000602082840312156103cb576103ca610375565b5b60006103d9848285016103a0565b91505092915050565b600081519050919050565b600082825260208201905092915050565b60005b8381101561041c578082015181840152602081019050610401565b60008484015250505050565b6000601f19601f8301169050919050565b6000610444826103e2565b61044e81856103ed565b935061045e8185602086016103fe565b61046781610428565b840191505092915050565b61047b8161037f565b82525050565b7f4e487b7100000000000000000000000000000000000000000000000000000000600052602160045260246000fd5b600481106104c1576104c0610481565b5b50565b60008190506104d2826104b0565b919050565b60006104e2826104c4565b9050919050565b6104f2816104d7565b82525050565b6004811061050957610508610481565b5b50565b600081905061051a826104f8565b919050565b600061052a8261050c565b9050919050565b61053a8161051f565b82525050565b600060c082019050818103600083015261055a8189610439565b90506105696020830188610472565b6105766040830187610472565b61058360608301866104e9565b6105906080830185610531565b61059d60a0830184610472565b979650505050505050565b600481106105b557600080fd5b50565b6000813590506105c7816105a8565b92915050565b6000602082840312156105e3576105e2610375565b5b60006105f1848285016105b8565b91505092915050565b600060208201905061060f6000830184610472565b92915050565b600080fd5b600080fd5b7f4e487b7100000000000000000000000000000000000000000000000000000000600052604160045260246000fd5b61065782610428565b810181811067ffffffffffffffff821117156106765761067561061f565b5b80604052505050565b600061068961036b565b9050610695828261064e565b919050565b600067ffffffffffffffff8211156106b5576106b461061f565b5b6106be82610428565b9050602081019050919050565b82818337600083830152505050565b60006106ed6106e88461069a565b61067f565b9050828152602081018484840111156107095761070861061a565b5b6107148482856106cb565b509392505050565b600082601f83011261073157610730610615565b5b81356107418482602086016106da565b91505092915050565b6004811061075757600080fd5b50565b6000813590506107698161074a565b92915050565b60008060008060008060c0878903121561078c5761078b610375565b5b600061079a89828a016103a0565b965050602087013567ffffffffffffffff8111156107bb576107ba61037a565b5b6107c789828a0161071c565b95505060406107d889828a016103a0565b94505060606107e989828a016105b8565b93505060806107fa89828a0161075a565b92505060a061080b89828a016103a0565b9150509295509295509295565b7f4e487b7100000000000000000000000000000000000000000000000000000000600052602260045260246000fd5b6000600282049050600182168061085f57607f821691505b60208210810361087257610871610818565b5b50919050565b60008190508160005260206000209050919050565b60006020601f8301049050919050565b600082821b905092915050565b6000600883026108da7fffffffffffffffffffffffffffffffffffffffffffffffffffffffffffffffff8261089d565b6108e4868361089d565b95508019841693508086168417925050509392505050565b6000819050919050565b600061092161091c6109178461037f565b6108fc565b61037f565b9050919050565b6000819050919050565b61093b83610906565b61094f61094782610928565b8484546108aa565b825550505050565b600090565b610964610957565b61096f818484610932565b505050565b5b818110156109935761098860008261095c565b600181019050610975565b5050565b601f8211156109d8576109a981610878565b6109b28461088d565b810160208510156109c1578190505b6109d56109cd8561088d565b830182610974565b50505b505050565b600082821c905092915050565b60006109fb600019846008026109dd565b1980831691505092915050565b6000610a1483836109ea565b9150826002028217905092915050565b610a2d826103e2565b67ffffffffffffffff811115610a4657610a4561061f565b5b610a508254610847565b610a5b828285610997565b600060209050601f831160018114610a8e5760008415610a7c578287015190505b610a868582610a08565b865550610aee565b601f198416610a9c86610878565b60005b82811015610ac457848901518255600182019150602085019450602081019050610a9f565b86831015610ae15784890151610add601f8916826109ea565b8355505b6001600288020188555050505b505050505050565b7f4e487b7100000000000000000000000000000000000000000000000000000000600052601160045260246000fd5b6000610b308261037f565b91507fffffffffffffffffffffffffffffffffffffffffffffffffffffffffffffffff8203610b6257610b61610af6565b5b60018201905091905056fea2646970667358221220e0a58134bc643e3177c21bd0393f690446f1c03ab5b92fad67df34789b73c01964736f6c63430008120033",
					"opcodes": "PUSH1 0x80 PUSH1 0x40 MSTORE CALLVALUE DUP1 ISZERO PUSH2 0x10 JUMPI PUSH1 0x0 DUP1 REVERT JUMPDEST POP PUSH2 0xBA3 DUP1 PUSH2 0x20 PUSH1 0x0 CODECOPY PUSH1 0x0 RETURN INVALID PUSH1 0x80 PUSH1 0x40 MSTORE CALLVALUE DUP1 ISZERO PUSH2 0x10 JUMPI PUSH1 0x0 DUP1 REVERT JUMPDEST POP PUSH1 0x4 CALLDATASIZE LT PUSH2 0x41 JUMPI PUSH1 0x0 CALLDATALOAD PUSH1 0xE0 SHR DUP1 PUSH4 0x6EAD22E EQ PUSH2 0x46 JUMPI DUP1 PUSH4 0x39AABBBB EQ PUSH2 0x7B JUMPI DUP1 PUSH4 0x5887BBBF EQ PUSH2 0xAB JUMPI JUMPDEST PUSH1 0x0 DUP1 REVERT JUMPDEST PUSH2 0x60 PUSH1 0x4 DUP1 CALLDATASIZE SUB DUP2 ADD SWAP1 PUSH2 0x5B SWAP2 SWAP1 PUSH2 0x3B5 JUMP JUMPDEST PUSH2 0xC7 JUMP JUMPDEST PUSH1 0x40 MLOAD PUSH2 0x72 SWAP7 SWAP6 SWAP5 SWAP4 SWAP3 SWAP2 SWAP1 PUSH2 0x540 JUMP JUMPDEST PUSH1 0x40 MLOAD DUP1 SWAP2 SUB SWAP1 RETURN JUMPDEST PUSH2 0x95 PUSH1 0x4 DUP1 CALLDATASIZE SUB DUP2 ADD SWAP1 PUSH2 0x90 SWAP2 SWAP1 PUSH2 0x5CD JUMP JUMPDEST PUSH2 0x1A5 JUMP JUMPDEST PUSH1 0x40 MLOAD PUSH2 0xA2 SWAP2 SWAP1 PUSH2 0x5FA JUMP JUMPDEST PUSH1 0x40 MLOAD DUP1 SWAP2 SUB SWAP1 RETURN JUMPDEST PUSH2 0xC5 PUSH1 0x4 DUP1 CALLDATASIZE SUB DUP2 ADD SWAP1 PUSH2 0xC0 SWAP2 SWAP1 PUSH2 0x76F JUMP JUMPDEST PUSH2 0x1BD JUMP JUMPDEST STOP JUMPDEST PUSH1 0x0 PUSH1 0x20 MSTORE DUP1 PUSH1 0x0 MSTORE PUSH1 0x40 PUSH1 0x0 KECCAK256 PUSH1 0x0 SWAP2 POP SWAP1 POP DUP1 PUSH1 0x0 ADD DUP1 SLOAD PUSH2 0xEA SWAP1 PUSH2 0x847 JUMP JUMPDEST DUP1 PUSH1 0x1F ADD PUSH1 0x20 DUP1 SWAP2 DIV MUL PUSH1 0x20 ADD PUSH1 0x40 MLOAD SWAP1 DUP2 ADD PUSH1 0x40 MSTORE DUP1 SWAP3 SWAP2 SWAP1 DUP2 DUP2 MSTORE PUSH1 0x20 ADD DUP3 DUP1 SLOAD PUSH2 0x116 SWAP1 PUSH2 0x847 JUMP JUMPDEST DUP1 ISZERO PUSH2 0x163 JUMPI DUP1 PUSH1 0x1F LT PUSH2 0x138 JUMPI PUSH2 0x100 DUP1 DUP4 SLOAD DIV MUL DUP4 MSTORE SWAP2 PUSH1 0x20 ADD SWAP2 PUSH2 0x163 JUMP JUMPDEST DUP3 ADD SWAP2 SWAP1 PUSH1 0x0 MSTORE PUSH1 0x20 PUSH1 0x0 KECCAK256 SWAP1 JUMPDEST DUP2 SLOAD DUP2 MSTORE SWAP1 PUSH1 0x1 ADD SWAP1 PUSH1 0x20 ADD DUP1 DUP4 GT PUSH2 0x146 JUMPI DUP3 SWAP1 SUB PUSH1 0x1F AND DUP3 ADD SWAP2 JUMPDEST POP POP POP POP POP SWAP1 DUP1 PUSH1 0x1 ADD SLOAD SWAP1 DUP1 PUSH1 0x2 ADD SLOAD SWAP1 DUP1 PUSH1 0x3 ADD PUSH1 0x0 SWAP1 SLOAD SWAP1 PUSH2 0x100 EXP SWAP1 DIV PUSH1 0xFF AND SWAP1 DUP1 PUSH1 0x3 ADD PUSH1 0x1 SWAP1 SLOAD SWAP1 PUSH2 0x100 EXP SWAP1 DIV PUSH1 0xFF AND SWAP1 DUP1 PUSH1 0x4 ADD SLOAD SWAP1 POP DUP7 JUMP JUMPDEST PUSH1 0x1 PUSH1 0x20 MSTORE DUP1 PUSH1 0x0 MSTORE PUSH1 0x40 PUSH1 0x0 KECCAK256 PUSH1 0x0 SWAP2 POP SWAP1 POP SLOAD DUP2 JUMP JUMPDEST PUSH1 0x40 MLOAD DUP1 PUSH1 0xC0 ADD PUSH1 0x40 MSTORE DUP1 DUP7 DUP2 MSTORE PUSH1 0x20 ADD DUP6 DUP2 MSTORE PUSH1 0x20 ADD TIMESTAMP DUP2 MSTORE PUSH1 0x20 ADD DUP5 PUSH1 0x3 DUP2 GT ISZERO PUSH2 0x1ED JUMPI PUSH2 0x1EC PUSH2 0x481 JUMP JUMPDEST JUMPDEST DUP2 MSTORE PUSH1 0x20 ADD DUP4 PUSH1 0x3 DUP2 GT ISZERO PUSH2 0x205 JUMPI PUSH2 0x204 PUSH2 0x481 JUMP JUMPDEST JUMPDEST DUP2 MSTORE PUSH1 0x20 ADD DUP3 DUP2 MSTORE POP PUSH1 0x0 DUP1 DUP9 DUP2 MSTORE PUSH1 0x20 ADD SWAP1 DUP2 MSTORE PUSH1 0x20 ADD PUSH1 0x0 KECCAK256 PUSH1 0x0 DUP3 ADD MLOAD DUP2 PUSH1 0x0 ADD SWAP1 DUP2 PUSH2 0x235 SWAP2 SWAP1 PUSH2 0xA24 JUMP JUMPDEST POP PUSH1 0x20 DUP3 ADD MLOAD DUP2 PUSH1 0x1 ADD SSTORE PUSH1 0x40 DUP3 ADD MLOAD DUP2 PUSH1 0x2 ADD SSTORE PUSH1 0x60 DUP3 ADD MLOAD DUP2 PUSH1 0x3 ADD PUSH1 0x0 PUSH2 0x100 EXP DUP2 SLOAD DUP2 PUSH1 0xFF MUL NOT AND SWAP1 DUP4 PUSH1 0x3 DUP2 GT ISZERO PUSH2 0x275 JUMPI PUSH2 0x274 PUSH2 0x481 JUMP JUMPDEST JUMPDEST MUL OR SWAP1 SSTORE POP PUSH1 0x80 DUP3 ADD MLOAD DUP2 PUSH1 0x3 ADD PUSH1 0x1 PUSH2 0x100 EXP DUP2 SLOAD DUP2 PUSH1 0xFF MUL NOT AND SWAP1 DUP4 PUSH1 0x3 DUP2 GT ISZERO PUSH2 0x2A5 JUMPI PUSH2 0x2A4 PUSH2 0x481 JUMP JUMPDEST JUMPDEST MUL OR SWAP1 SSTORE POP PUSH1 0xA0 DUP3 ADD MLOAD DUP2 PUSH1 0x4 ADD SSTORE SWAP1 POP POP PUSH1 0x1 PUSH1 0x3 DUP2 GT ISZERO PUSH2 0x2CB JUMPI PUSH2 0x2CA PUSH2 0x481 JUMP JUMPDEST JUMPDEST DUP3 PUSH1 0x3 DUP2 GT ISZERO PUSH2 0x2DE JUMPI PUSH2 0x2DD PUSH2 0x481 JUMP JUMPDEST JUMPDEST EQ ISZERO DUP1 ISZERO PUSH2 0x310 JUMPI POP PUSH1 0x3 DUP1 DUP2 GT ISZERO PUSH2 0x2FA JUMPI PUSH2 0x2F9 PUSH2 0x481 JUMP JUMPDEST JUMPDEST DUP3 PUSH1 0x3 DUP2 GT ISZERO PUSH2 0x30D JUMPI PUSH2 0x30C PUSH2 0x481 JUMP JUMPDEST JUMPDEST EQ ISZERO JUMPDEST ISZERO PUSH2 0x363 JUMPI PUSH1 0x1 PUSH1 0x0 DUP5 PUSH1 0x3 DUP2 GT ISZERO PUSH2 0x32C JUMPI PUSH2 0x32B PUSH2 0x481 JUMP JUMPDEST JUMPDEST PUSH1 0x3 DUP2 GT ISZERO PUSH2 0x33E JUMPI PUSH2 0x33D PUSH2 0x481 JUMP JUMPDEST JUMPDEST DUP2 MSTORE PUSH1 0x20 ADD SWAP1 DUP2 MSTORE PUSH1 0x20 ADD PUSH1 0x0 KECCAK256 PUSH1 0x0 DUP2 SLOAD DUP1 SWAP3 SWAP2 SWAP1 PUSH2 0x35D SWAP1 PUSH2 0xB25 JUMP JUMPDEST SWAP2 SWAP1 POP SSTORE POP JUMPDEST POP POP POP POP POP POP JUMP JUMPDEST PUSH1 0x0 PUSH1 0x40 MLOAD SWAP1 POP SWAP1 JUMP JUMPDEST PUSH1 0x0 DUP1 REVERT JUMPDEST PUSH1 0x0 DUP1 REVERT JUMPDEST PUSH1 0x0 DUP2 SWAP1 POP SWAP2 SWAP1 POP JUMP JUMPDEST PUSH2 0x392 DUP2 PUSH2 0x37F JUMP JUMPDEST DUP2 EQ PUSH2 0x39D JUMPI PUSH1 0x0 DUP1 REVERT JUMPDEST POP JUMP JUMPDEST PUSH1 0x0 DUP2 CALLDATALOAD SWAP1 POP PUSH2 0x3AF DUP2 PUSH2 0x389 JUMP JUMPDEST SWAP3 SWAP2 POP POP JUMP JUMPDEST PUSH1 0x0 PUSH1 0x20 DUP3 DUP5 SUB SLT ISZERO PUSH2 0x3CB JUMPI PUSH2 0x3CA PUSH2 0x375 JUMP JUMPDEST JUMPDEST PUSH1 0x0 PUSH2 0x3D9 DUP5 DUP3 DUP6 ADD PUSH2 0x3A0 JUMP JUMPDEST SWAP2 POP POP SWAP3 SWAP2 POP POP JUMP JUMPDEST PUSH1 0x0 DUP2 MLOAD SWAP1 POP SWAP2 SWAP1 POP JUMP JUMPDEST PUSH1 0x0 DUP3 DUP3 MSTORE PUSH1 0x20 DUP3 ADD SWAP1 POP SWAP3 SWAP2 POP POP JUMP JUMPDEST PUSH1 0x0 JUMPDEST DUP4 DUP2 LT ISZERO PUSH2 0x41C JUMPI DUP1 DUP3 ADD MLOAD DUP2 DUP5 ADD MSTORE PUSH1 0x20 DUP2 ADD SWAP1 POP PUSH2 0x401 JUMP JUMPDEST PUSH1 0x0 DUP5 DUP5 ADD MSTORE POP POP POP POP JUMP JUMPDEST PUSH1 0x0 PUSH1 0x1F NOT PUSH1 0x1F DUP4 ADD AND SWAP1 POP SWAP2 SWAP1 POP JUMP JUMPDEST PUSH1 0x0 PUSH2 0x444 DUP3 PUSH2 0x3E2 JUMP JUMPDEST PUSH2 0x44E DUP2 DUP6 PUSH2 0x3ED JUMP JUMPDEST SWAP4 POP PUSH2 0x45E DUP2 DUP6 PUSH1 0x20 DUP7 ADD PUSH2 0x3FE JUMP JUMPDEST PUSH2 0x467 DUP2 PUSH2 0x428 JUMP JUMPDEST DUP5 ADD SWAP2 POP POP SWAP3 SWAP2 POP POP JUMP JUMPDEST PUSH2 0x47B DUP2 PUSH2 0x37F JUMP JUMPDEST DUP3 MSTORE POP POP JUMP JUMPDEST PUSH32 0x4E487B7100000000000000000000000000000000000000000000000000000000 PUSH1 0x0 MSTORE PUSH1 0x21 PUSH1 0x4 MSTORE PUSH1 0x24 PUSH1 0x0 REVERT JUMPDEST PUSH1 0x4 DUP2 LT PUSH2 0x4C1 JUMPI PUSH2 0x4C0 PUSH2 0x481 JUMP JUMPDEST JUMPDEST POP JUMP JUMPDEST PUSH1 0x0 DUP2 SWAP1 POP PUSH2 0x4D2 DUP3 PUSH2 0x4B0 JUMP JUMPDEST SWAP2 SWAP1 POP JUMP JUMPDEST PUSH1 0x0 PUSH2 0x4E2 DUP3 PUSH2 0x4C4 JUMP JUMPDEST SWAP1 POP SWAP2 SWAP1 POP JUMP JUMPDEST PUSH2 0x4F2 DUP2 PUSH2 0x4D7 JUMP JUMPDEST DUP3 MSTORE POP POP JUMP JUMPDEST PUSH1 0x4 DUP2 LT PUSH2 0x509 JUMPI PUSH2 0x508 PUSH2 0x481 JUMP JUMPDEST JUMPDEST POP JUMP JUMPDEST PUSH1 0x0 DUP2 SWAP1 POP PUSH2 0x51A DUP3 PUSH2 0x4F8 JUMP JUMPDEST SWAP2 SWAP1 POP JUMP JUMPDEST PUSH1 0x0 PUSH2 0x52A DUP3 PUSH2 0x50C JUMP JUMPDEST SWAP1 POP SWAP2 SWAP1 POP JUMP JUMPDEST PUSH2 0x53A DUP2 PUSH2 0x51F JUMP JUMPDEST DUP3 MSTORE POP POP JUMP JUMPDEST PUSH1 0x0 PUSH1 0xC0 DUP3 ADD SWAP1 POP DUP2 DUP2 SUB PUSH1 0x0 DUP4 ADD MSTORE PUSH2 0x55A DUP2 DUP10 PUSH2 0x439 JUMP JUMPDEST SWAP1 POP PUSH2 0x569 PUSH1 0x20 DUP4 ADD DUP9 PUSH2 0x472 JUMP JUMPDEST PUSH2 0x576 PUSH1 0x40 DUP4 ADD DUP8 PUSH2 0x472 JUMP JUMPDEST PUSH2 0x583 PUSH1 0x60 DUP4 ADD DUP7 PUSH2 0x4E9 JUMP JUMPDEST PUSH2 0x590 PUSH1 0x80 DUP4 ADD DUP6 PUSH2 0x531 JUMP JUMPDEST PUSH2 0x59D PUSH1 0xA0 DUP4 ADD DUP5 PUSH2 0x472 JUMP JUMPDEST SWAP8 SWAP7 POP POP POP POP POP POP POP JUMP JUMPDEST PUSH1 0x4 DUP2 LT PUSH2 0x5B5 JUMPI PUSH1 0x0 DUP1 REVERT JUMPDEST POP JUMP JUMPDEST PUSH1 0x0 DUP2 CALLDATALOAD SWAP1 POP PUSH2 0x5C7 DUP2 PUSH2 0x5A8 JUMP JUMPDEST SWAP3 SWAP2 POP POP JUMP JUMPDEST PUSH1 0x0 PUSH1 0x20 DUP3 DUP5 SUB SLT ISZERO PUSH2 0x5E3 JUMPI PUSH2 0x5E2 PUSH2 0x375 JUMP JUMPDEST JUMPDEST PUSH1 0x0 PUSH2 0x5F1 DUP5 DUP3 DUP6 ADD PUSH2 0x5B8 JUMP JUMPDEST SWAP2 POP POP SWAP3 SWAP2 POP POP JUMP JUMPDEST PUSH1 0x0 PUSH1 0x20 DUP3 ADD SWAP1 POP PUSH2 0x60F PUSH1 0x0 DUP4 ADD DUP5 PUSH2 0x472 JUMP JUMPDEST SWAP3 SWAP2 POP POP JUMP JUMPDEST PUSH1 0x0 DUP1 REVERT JUMPDEST PUSH1 0x0 DUP1 REVERT JUMPDEST PUSH32 0x4E487B7100000000000000000000000000000000000000000000000000000000 PUSH1 0x0 MSTORE PUSH1 0x41 PUSH1 0x4 MSTORE PUSH1 0x24 PUSH1 0x0 REVERT JUMPDEST PUSH2 0x657 DUP3 PUSH2 0x428 JUMP JUMPDEST DUP2 ADD DUP2 DUP2 LT PUSH8 0xFFFFFFFFFFFFFFFF DUP3 GT OR ISZERO PUSH2 0x676 JUMPI PUSH2 0x675 PUSH2 0x61F JUMP JUMPDEST JUMPDEST DUP1 PUSH1 0x40 MSTORE POP POP POP JUMP JUMPDEST PUSH1 0x0 PUSH2 0x689 PUSH2 0x36B JUMP JUMPDEST SWAP1 POP PUSH2 0x695 DUP3 DUP3 PUSH2 0x64E JUMP JUMPDEST SWAP2 SWAP1 POP JUMP JUMPDEST PUSH1 0x0 PUSH8 0xFFFFFFFFFFFFFFFF DUP3 GT ISZERO PUSH2 0x6B5 JUMPI PUSH2 0x6B4 PUSH2 0x61F JUMP JUMPDEST JUMPDEST PUSH2 0x6BE DUP3 PUSH2 0x428 JUMP JUMPDEST SWAP1 POP PUSH1 0x20 DUP2 ADD SWAP1 POP SWAP2 SWAP1 POP JUMP JUMPDEST DUP3 DUP2 DUP4 CALLDATACOPY PUSH1 0x0 DUP4 DUP4 ADD MSTORE POP POP POP JUMP JUMPDEST PUSH1 0x0 PUSH2 0x6ED PUSH2 0x6E8 DUP5 PUSH2 0x69A JUMP JUMPDEST PUSH2 0x67F JUMP JUMPDEST SWAP1 POP DUP3 DUP2 MSTORE PUSH1 0x20 DUP2 ADD DUP5 DUP5 DUP5 ADD GT ISZERO PUSH2 0x709 JUMPI PUSH2 0x708 PUSH2 0x61A JUMP JUMPDEST JUMPDEST PUSH2 0x714 DUP5 DUP3 DUP6 PUSH2 0x6CB JUMP JUMPDEST POP SWAP4 SWAP3 POP POP POP JUMP JUMPDEST PUSH1 0x0 DUP3 PUSH1 0x1F DUP4 ADD SLT PUSH2 0x731 JUMPI PUSH2 0x730 PUSH2 0x615 JUMP JUMPDEST JUMPDEST DUP2 CALLDATALOAD PUSH2 0x741 DUP5 DUP3 PUSH1 0x20 DUP7 ADD PUSH2 0x6DA JUMP JUMPDEST SWAP2 POP POP SWAP3 SWAP2 POP POP JUMP JUMPDEST PUSH1 0x4 DUP2 LT PUSH2 0x757 JUMPI PUSH1 0x0 DUP1 REVERT JUMPDEST POP JUMP JUMPDEST PUSH1 0x0 DUP2 CALLDATALOAD SWAP1 POP PUSH2 0x769 DUP2 PUSH2 0x74A JUMP JUMPDEST SWAP3 SWAP2 POP POP JUMP JUMPDEST PUSH1 0x0 DUP1 PUSH1 0x0 DUP1 PUSH1 0x0 DUP1 PUSH1 0xC0 DUP8 DUP10 SUB SLT ISZERO PUSH2 0x78C JUMPI PUSH2 0x78B PUSH2 0x375 JUMP JUMPDEST JUMPDEST PUSH1 0x0 PUSH2 0x79A DUP10 DUP3 DUP11 ADD PUSH2 0x3A0 JUMP JUMPDEST SWAP7 POP POP PUSH1 0x20 DUP8 ADD CALLDATALOAD PUSH8 0xFFFFFFFFFFFFFFFF DUP2 GT ISZERO PUSH2 0x7BB JUMPI PUSH2 0x7BA PUSH2 0x37A JUMP JUMPDEST JUMPDEST PUSH2 0x7C7 DUP10 DUP3 DUP11 ADD PUSH2 0x71C JUMP JUMPDEST SWAP6 POP POP PUSH1 0x40 PUSH2 0x7D8 DUP10 DUP3 DUP11 ADD PUSH2 0x3A0 JUMP JUMPDEST SWAP5 POP POP PUSH1 0x60 PUSH2 0x7E9 DUP10 DUP3 DUP11 ADD PUSH2 0x5B8 JUMP JUMPDEST SWAP4 POP POP PUSH1 0x80 PUSH2 0x7FA DUP10 DUP3 DUP11 ADD PUSH2 0x75A JUMP JUMPDEST SWAP3 POP POP PUSH1 0xA0 PUSH2 0x80B DUP10 DUP3 DUP11 ADD PUSH2 0x3A0 JUMP JUMPDEST SWAP2 POP POP SWAP3 SWAP6 POP SWAP3 SWAP6 POP SWAP3 SWAP6 JUMP JUMPDEST PUSH32 0x4E487B7100000000000000000000000000000000000000000000000000000000 PUSH1 0x0 MSTORE PUSH1 0x22 PUSH1 0x4 MSTORE PUSH1 0x24 PUSH1 0x0 REVERT JUMPDEST PUSH1 0x0 PUSH1 0x2 DUP3 DIV SWAP1 POP PUSH1 0x1 DUP3 AND DUP1 PUSH2 0x85F JUMPI PUSH1 0x7F DUP3 AND SWAP2 POP JUMPDEST PUSH1 0x20 DUP3 LT DUP2 SUB PUSH2 0x872 JUMPI PUSH2 0x871 PUSH2 0x818 JUMP JUMPDEST JUMPDEST POP SWAP2 SWAP1 POP JUMP JUMPDEST PUSH1 0x0 DUP2 SWAP1 POP DUP2 PUSH1 0x0 MSTORE PUSH1 0x20 PUSH1 0x0 KECCAK256 SWAP1 POP SWAP2 SWAP1 POP JUMP JUMPDEST PUSH1 0x0 PUSH1 0x20 PUSH1 0x1F DUP4 ADD DIV SWAP1 POP SWAP2 SWAP1 POP JUMP JUMPDEST PUSH1 0x0 DUP3 DUP3 SHL SWAP1 POP SWAP3 SWAP2 POP POP JUMP JUMPDEST PUSH1 0x0 PUSH1 0x8 DUP4 MUL PUSH2 0x8DA PUSH32 0xFFFFFFFFFFFFFFFFFFFFFFFFFFFFFFFFFFFFFFFFFFFFFFFFFFFFFFFFFFFFFFFF DUP3 PUSH2 0x89D JUMP JUMPDEST PUSH2 0x8E4 DUP7 DUP4 PUSH2 0x89D JUMP JUMPDEST SWAP6 POP DUP1 NOT DUP5 AND SWAP4 POP DUP1 DUP7 AND DUP5 OR SWAP3 POP POP POP SWAP4 SWAP3 POP POP POP JUMP JUMPDEST PUSH1 0x0 DUP2 SWAP1 POP SWAP2 SWAP1 POP JUMP JUMPDEST PUSH1 0x0 PUSH2 0x921 PUSH2 0x91C PUSH2 0x917 DUP5 PUSH2 0x37F JUMP JUMPDEST PUSH2 0x8FC JUMP JUMPDEST PUSH2 0x37F JUMP JUMPDEST SWAP1 POP SWAP2 SWAP1 POP JUMP JUMPDEST PUSH1 0x0 DUP2 SWAP1 POP SWAP2 SWAP1 POP JUMP JUMPDEST PUSH2 0x93B DUP4 PUSH2 0x906 JUMP JUMPDEST PUSH2 0x94F PUSH2 0x947 DUP3 PUSH2 0x928 JUMP JUMPDEST DUP5 DUP5 SLOAD PUSH2 0x8AA JUMP JUMPDEST DUP3 SSTORE POP POP POP POP JUMP JUMPDEST PUSH1 0x0 SWAP1 JUMP JUMPDEST PUSH2 0x964 PUSH2 0x957 JUMP JUMPDEST PUSH2 0x96F DUP2 DUP5 DUP5 PUSH2 0x932 JUMP JUMPDEST POP POP POP JUMP JUMPDEST JUMPDEST DUP2 DUP2 LT ISZERO PUSH2 0x993 JUMPI PUSH2 0x988 PUSH1 0x0 DUP3 PUSH2 0x95C JUMP JUMPDEST PUSH1 0x1 DUP2 ADD SWAP1 POP PUSH2 0x975 JUMP JUMPDEST POP POP JUMP JUMPDEST PUSH1 0x1F DUP3 GT ISZERO PUSH2 0x9D8 JUMPI PUSH2 0x9A9 DUP2 PUSH2 0x878 JUMP JUMPDEST PUSH2 0x9B2 DUP5 PUSH2 0x88D JUMP JUMPDEST DUP2 ADD PUSH1 0x20 DUP6 LT ISZERO PUSH2 0x9C1 JUMPI DUP2 SWAP1 POP JUMPDEST PUSH2 0x9D5 PUSH2 0x9CD DUP6 PUSH2 0x88D JUMP JUMPDEST DUP4 ADD DUP3 PUSH2 0x974 JUMP JUMPDEST POP POP JUMPDEST POP POP POP JUMP JUMPDEST PUSH1 0x0 DUP3 DUP3 SHR SWAP1 POP SWAP3 SWAP2 POP POP JUMP JUMPDEST PUSH1 0x0 PUSH2 0x9FB PUSH1 0x0 NOT DUP5 PUSH1 0x8 MUL PUSH2 0x9DD JUMP JUMPDEST NOT DUP1 DUP4 AND SWAP2 POP POP SWAP3 SWAP2 POP POP JUMP JUMPDEST PUSH1 0x0 PUSH2 0xA14 DUP4 DUP4 PUSH2 0x9EA JUMP JUMPDEST SWAP2 POP DUP3 PUSH1 0x2 MUL DUP3 OR SWAP1 POP SWAP3 SWAP2 POP POP JUMP JUMPDEST PUSH2 0xA2D DUP3 PUSH2 0x3E2 JUMP JUMPDEST PUSH8 0xFFFFFFFFFFFFFFFF DUP2 GT ISZERO PUSH2 0xA46 JUMPI PUSH2 0xA45 PUSH2 0x61F JUMP JUMPDEST JUMPDEST PUSH2 0xA50 DUP3 SLOAD PUSH2 0x847 JUMP JUMPDEST PUSH2 0xA5B DUP3 DUP3 DUP6 PUSH2 0x997 JUMP JUMPDEST PUSH1 0x0 PUSH1 0x20 SWAP1 POP PUSH1 0x1F DUP4 GT PUSH1 0x1 DUP2 EQ PUSH2 0xA8E JUMPI PUSH1 0x0 DUP5 ISZERO PUSH2 0xA7C JUMPI DUP3 DUP8 ADD MLOAD SWAP1 POP JUMPDEST PUSH2 0xA86 DUP6 DUP3 PUSH2 0xA08 JUMP JUMPDEST DUP7 SSTORE POP PUSH2 0xAEE JUMP JUMPDEST PUSH1 0x1F NOT DUP5 AND PUSH2 0xA9C DUP7 PUSH2 0x878 JUMP JUMPDEST PUSH1 0x0 JUMPDEST DUP3 DUP2 LT ISZERO PUSH2 0xAC4 JUMPI DUP5 DUP10 ADD MLOAD DUP3 SSTORE PUSH1 0x1 DUP3 ADD SWAP2 POP PUSH1 0x20 DUP6 ADD SWAP5 POP PUSH1 0x20 DUP2 ADD SWAP1 POP PUSH2 0xA9F JUMP JUMPDEST DUP7 DUP4 LT ISZERO PUSH2 0xAE1 JUMPI DUP5 DUP10 ADD MLOAD PUSH2 0xADD PUSH1 0x1F DUP10 AND DUP3 PUSH2 0x9EA JUMP JUMPDEST DUP4 SSTORE POP JUMPDEST PUSH1 0x1 PUSH1 0x2 DUP9 MUL ADD DUP9 SSTORE POP POP POP JUMPDEST POP POP POP POP POP POP JUMP JUMPDEST PUSH32 0x4E487B7100000000000000000000000000000000000000000000000000000000 PUSH1 0x0 MSTORE PUSH1 0x11 PUSH1 0x4 MSTORE PUSH1 0x24 PUSH1 0x0 REVERT JUMPDEST PUSH1 0x0 PUSH2 0xB30 DUP3 PUSH2 0x37F JUMP JUMPDEST SWAP2 POP PUSH32 0xFFFFFFFFFFFFFFFFFFFFFFFFFFFFFFFFFFFFFFFFFFFFFFFFFFFFFFFFFFFFFFFF DUP3 SUB PUSH2 0xB62 JUMPI PUSH2 0xB61 PUSH2 0xAF6 JUMP JUMPDEST JUMPDEST PUSH1 0x1 DUP3 ADD SWAP1 POP SWAP2 SWAP1 POP JUMP INVALID LOG2 PUSH5 0x6970667358 0x22 SLT KECCAK256 0xE0 0xA5 DUP2 CALLVALUE 0xBC PUSH5 0x3E3177C21B 0xD0 CODECOPY EXTCODEHASH PUSH10 0x446F1C03AB5B92FAD67 0xDF CALLVALUE PUSH25 0x9B73C01964736F6C6343000812003300000000000000000000 "
				},
				"gasEstimates": {
					"creation": {
						"codeDepositCost": "595800",
						"executionCost": "632",
						"totalCost": "596432"
					},
					"external": {
						"departmentCounts(uint8)": "2722",
						"registerStudent(uint256,string,uint256,uint8,uint8,uint256)": "infinite",
						"students(uint256)": "infinite"
					}
				},
				"methodIdentifiers": {
					"departmentCounts(uint8)": "39aabbbb",
					"registerStudent(uint256,string,uint256,uint8,uint8,uint256)": "5887bbbf",
					"students(uint256)": "06ead22e"
				}
			},
			"storageLayout": {
				"storage": [
					{
						"astId": 31,
						"contract": "lab 8-8-2023/test.sol:StudentRegistration",
						"label": "students",
						"offset": 0,
						"slot": "0",
						"type": "t_mapping(t_uint256,t_struct(Student)26_storage)"
					},
					{
						"astId": 36,
						"contract": "lab 8-8-2023/test.sol:StudentRegistration",
						"label": "departmentCounts",
						"offset": 0,
						"slot": "1",
						"type": "t_mapping(t_enum(Department)6,t_uint256)"
					}
				],
				"types": {
					"t_enum(Department)6": {
						"encoding": "inplace",
						"label": "enum StudentRegistration.Department",
						"numberOfBytes": "1"
					},
					"t_enum(Status)11": {
						"encoding": "inplace",
						"label": "enum StudentRegistration.Status",
						"numberOfBytes": "1"
					},
					"t_mapping(t_enum(Department)6,t_uint256)": {
						"encoding": "mapping",
						"key": "t_enum(Department)6",
						"label": "mapping(enum StudentRegistration.Department => uint256)",
						"numberOfBytes": "32",
						"value": "t_uint256"
					},
					"t_mapping(t_uint256,t_struct(Student)26_storage)": {
						"encoding": "mapping",
						"key": "t_uint256",
						"label": "mapping(uint256 => struct StudentRegistration.Student)",
						"numberOfBytes": "32",
						"value": "t_struct(Student)26_storage"
					},
					"t_string_storage": {
						"encoding": "bytes",
						"label": "string",
						"numberOfBytes": "32"
					},
					"t_struct(Student)26_storage": {
						"encoding": "inplace",
						"label": "struct StudentRegistration.Student",
						"members": [
							{
								"astId": 13,
								"contract": "lab 8-8-2023/test.sol:StudentRegistration",
								"label": "name",
								"offset": 0,
								"slot": "0",
								"type": "t_string_storage"
							},
							{
								"astId": 15,
								"contract": "lab 8-8-2023/test.sol:StudentRegistration",
								"label": "age",
								"offset": 0,
								"slot": "1",
								"type": "t_uint256"
							},
							{
								"astId": 17,
								"contract": "lab 8-8-2023/test.sol:StudentRegistration",
								"label": "registrationDate",
								"offset": 0,
								"slot": "2",
								"type": "t_uint256"
							},
							{
								"astId": 20,
								"contract": "lab 8-8-2023/test.sol:StudentRegistration",
								"label": "studentDepartment",
								"offset": 0,
								"slot": "3",
								"type": "t_enum(Department)6"
							},
							{
								"astId": 23,
								"contract": "lab 8-8-2023/test.sol:StudentRegistration",
								"label": "studentStatus",
								"offset": 1,
								"slot": "3",
								"type": "t_enum(Status)11"
							},
							{
								"astId": 25,
								"contract": "lab 8-8-2023/test.sol:StudentRegistration",
								"label": "obtainedMarks",
								"offset": 0,
								"slot": "4",
								"type": "t_uint256"
							}
						],
						"numberOfBytes": "160"
					},
					"t_uint256": {
						"encoding": "inplace",
						"label": "uint256",
						"numberOfBytes": "32"
					}
				}
			},
			"userdoc": {
				"kind": "user",
				"methods": {},
				"version": 1
			}
		}
	}
}