{
	"lab 16-08-2023/Taskheir4.sol": {
		"Freelancer": {
			"abi": [
				{
					"inputs": [],
					"name": "Client",
					"outputs": [
						{
							"internalType": "address",
							"name": "",
							"type": "address"
						}
					],
					"stateMutability": "view",
					"type": "function"
				},
				{
					"inputs": [
						{
							"internalType": "uint256",
							"name": "projects",
							"type": "uint256"
						}
					],
					"name": "Projectcreated",
					"outputs": [],
					"stateMutability": "nonpayable",
					"type": "function"
				},
				{
					"inputs": [
						{
							"internalType": "address",
							"name": "_client",
							"type": "address"
						}
					],
					"name": "clientd",
					"outputs": [],
					"stateMutability": "nonpayable",
					"type": "function"
				},
				{
					"inputs": [],
					"name": "getWorkersdata",
					"outputs": [
						{
							"internalType": "address",
							"name": "",
							"type": "address"
						},
						{
							"internalType": "uint256",
							"name": "",
							"type": "uint256"
						}
					],
					"stateMutability": "view",
					"type": "function"
				},
				{
					"inputs": [],
					"name": "getWotrkersdata",
					"outputs": [
						{
							"internalType": "address",
							"name": "",
							"type": "address"
						},
						{
							"internalType": "uint256",
							"name": "",
							"type": "uint256"
						}
					],
					"stateMutability": "view",
					"type": "function"
				},
				{
					"inputs": [
						{
							"internalType": "uint256",
							"name": "workamount",
							"type": "uint256"
						}
					],
					"name": "submitwork",
					"outputs": [],
					"stateMutability": "nonpayable",
					"type": "function"
				},
				{
					"inputs": [],
					"name": "totalWorkSubmitted",
					"outputs": [
						{
							"internalType": "uint256",
							"name": "",
							"type": "uint256"
						}
					],
					"stateMutability": "view",
					"type": "function"
				},
				{
					"inputs": [],
					"name": "totalprojectscreated",
					"outputs": [
						{
							"internalType": "uint256",
							"name": "",
							"type": "uint256"
						}
					],
					"stateMutability": "view",
					"type": "function"
				},
				{
					"inputs": [],
					"name": "worker",
					"outputs": [
						{
							"internalType": "address",
							"name": "",
							"type": "address"
						}
					],
					"stateMutability": "view",
					"type": "function"
				},
				{
					"inputs": [
						{
							"internalType": "address",
							"name": "_worker",
							"type": "address"
						}
					],
					"name": "workerd",
					"outputs": [],
					"stateMutability": "nonpayable",
					"type": "function"
				}
			],
			"devdoc": {
				"kind": "dev",
				"methods": {},
				"version": 1
			},
			"evm": {
				"assembly": "    /* \"lab 16-08-2023/Taskheir4.sol\":903:973  contract  Freelancer is ClientRole ,WorkerRole  {... */\n  mstore(0x40, 0x80)\n  callvalue\n  dup1\n  iszero\n  tag_1\n  jumpi\n  0x00\n  dup1\n  revert\ntag_1:\n  pop\n  dataSize(sub_0)\n  dup1\n  dataOffset(sub_0)\n  0x00\n  codecopy\n  0x00\n  return\nstop\n\nsub_0: assembly {\n        /* \"lab 16-08-2023/Taskheir4.sol\":903:973  contract  Freelancer is ClientRole ,WorkerRole  {... */\n      mstore(0x40, 0x80)\n      callvalue\n      dup1\n      iszero\n      tag_1\n      jumpi\n      0x00\n      dup1\n      revert\n    tag_1:\n      pop\n      jumpi(tag_2, lt(calldatasize, 0x04))\n      shr(0xe0, calldataload(0x00))\n      dup1\n      0x6d1ec5bf\n      gt\n      tag_13\n      jumpi\n      dup1\n      0x6d1ec5bf\n      eq\n      tag_8\n      jumpi\n      dup1\n      0x8eaa9c91\n      eq\n      tag_9\n      jumpi\n      dup1\n      0xa13db980\n      eq\n      tag_10\n      jumpi\n      dup1\n      0xd23ce77e\n      eq\n      tag_11\n      jumpi\n      dup1\n      0xd5c6b82c\n      eq\n      tag_12\n      jumpi\n      jump(tag_2)\n    tag_13:\n      dup1\n      0x05d9fe2f\n      eq\n      tag_3\n      jumpi\n      dup1\n      0x34884db7\n      eq\n      tag_4\n      jumpi\n      dup1\n      0x4d547ada\n      eq\n      tag_5\n      jumpi\n      dup1\n      0x617f53d0\n      eq\n      tag_6\n      jumpi\n      dup1\n      0x67201693\n      eq\n      tag_7\n      jumpi\n    tag_2:\n      0x00\n      dup1\n      revert\n        /* \"lab 16-08-2023/Taskheir4.sol\":122:155  uint256 public totalWorkSubmitted */\n    tag_3:\n      tag_14\n      tag_15\n      jump\t// in\n    tag_14:\n      mload(0x40)\n      tag_16\n      swap2\n      swap1\n      tag_17\n      jump\t// in\n    tag_16:\n      mload(0x40)\n      dup1\n      swap2\n      sub\n      swap1\n      return\n        /* \"lab 16-08-2023/Taskheir4.sol\":534:570  uint256 public  totalprojectscreated */\n    tag_4:\n      tag_18\n      tag_19\n      jump\t// in\n    tag_18:\n      mload(0x40)\n      tag_20\n      swap2\n      swap1\n      tag_17\n      jump\t// in\n    tag_20:\n      mload(0x40)\n      dup1\n      swap2\n      sub\n      swap1\n      return\n        /* \"lab 16-08-2023/Taskheir4.sol\":94:115  address public worker */\n    tag_5:\n      tag_21\n      tag_22\n      jump\t// in\n    tag_21:\n      mload(0x40)\n      tag_23\n      swap2\n      swap1\n      tag_24\n      jump\t// in\n    tag_23:\n      mload(0x40)\n      dup1\n      swap2\n      sub\n      swap1\n      return\n        /* \"lab 16-08-2023/Taskheir4.sol\":235:331  function  submitwork(uint256 workamount)public  {... */\n    tag_6:\n      tag_25\n      0x04\n      dup1\n      calldatasize\n      sub\n      dup2\n      add\n      swap1\n      tag_26\n      swap2\n      swap1\n      tag_27\n      jump\t// in\n    tag_26:\n      tag_28\n      jump\t// in\n    tag_25:\n      stop\n        /* \"lab 16-08-2023/Taskheir4.sol\":160:229  function workerd(address _worker )public  {... */\n    tag_7:\n      tag_29\n      0x04\n      dup1\n      calldatasize\n      sub\n      dup2\n      add\n      swap1\n      tag_30\n      swap2\n      swap1\n      tag_31\n      jump\t// in\n    tag_30:\n      tag_32\n      jump\t// in\n    tag_29:\n      stop\n        /* \"lab 16-08-2023/Taskheir4.sol\":337:457  function getWotrkersdata() public view returns (address , uint256) {... */\n    tag_8:\n      tag_33\n      tag_34\n      jump\t// in\n    tag_33:\n      mload(0x40)\n      tag_35\n      swap3\n      swap2\n      swap1\n      tag_36\n      jump\t// in\n    tag_35:\n      mload(0x40)\n      dup1\n      swap2\n      sub\n      swap1\n      return\n        /* \"lab 16-08-2023/Taskheir4.sol\":508:529  address public Client */\n    tag_9:\n      tag_37\n      tag_38\n      jump\t// in\n    tag_37:\n      mload(0x40)\n      tag_39\n      swap2\n      swap1\n      tag_24\n      jump\t// in\n    tag_39:\n      mload(0x40)\n      dup1\n      swap2\n      sub\n      swap1\n      return\n        /* \"lab 16-08-2023/Taskheir4.sol\":757:878  function getWorkersdata() public view returns (address , uint256) {... */\n    tag_10:\n      tag_40\n      tag_41\n      jump\t// in\n    tag_40:\n      mload(0x40)\n      tag_42\n      swap3\n      swap2\n      swap1\n      tag_36\n      jump\t// in\n    tag_42:\n      mload(0x40)\n      dup1\n      swap2\n      sub\n      swap1\n      return\n        /* \"lab 16-08-2023/Taskheir4.sol\":653:751  function  Projectcreated(uint256 projects)public  {... */\n    tag_11:\n      tag_43\n      0x04\n      dup1\n      calldatasize\n      sub\n      dup2\n      add\n      swap1\n      tag_44\n      swap2\n      swap1\n      tag_27\n      jump\t// in\n    tag_44:\n      tag_45\n      jump\t// in\n    tag_43:\n      stop\n        /* \"lab 16-08-2023/Taskheir4.sol\":577:647  function clientd(address _client ) public  {... */\n    tag_12:\n      tag_46\n      0x04\n      dup1\n      calldatasize\n      sub\n      dup2\n      add\n      swap1\n      tag_47\n      swap2\n      swap1\n      tag_31\n      jump\t// in\n    tag_47:\n      tag_48\n      jump\t// in\n    tag_46:\n      stop\n        /* \"lab 16-08-2023/Taskheir4.sol\":122:155  uint256 public totalWorkSubmitted */\n    tag_15:\n      sload(0x03)\n      dup2\n      jump\t// out\n        /* \"lab 16-08-2023/Taskheir4.sol\":534:570  uint256 public  totalprojectscreated */\n    tag_19:\n      sload(0x01)\n      dup2\n      jump\t// out\n        /* \"lab 16-08-2023/Taskheir4.sol\":94:115  address public worker */\n    tag_22:\n      0x02\n      0x00\n      swap1\n      sload\n      swap1\n      0x0100\n      exp\n      swap1\n      div\n      0xffffffffffffffffffffffffffffffffffffffff\n      and\n      dup2\n      jump\t// out\n        /* \"lab 16-08-2023/Taskheir4.sol\":235:331  function  submitwork(uint256 workamount)public  {... */\n    tag_28:\n        /* \"lab 16-08-2023/Taskheir4.sol\":313:323  workamount */\n      dup1\n        /* \"lab 16-08-2023/Taskheir4.sol\":292:310  totalWorkSubmitted */\n      0x03\n      0x00\n        /* \"lab 16-08-2023/Taskheir4.sol\":292:323  totalWorkSubmitted +=workamount */\n      dup3\n      dup3\n      sload\n      tag_50\n      swap2\n      swap1\n      tag_51\n      jump\t// in\n    tag_50:\n      swap3\n      pop\n      pop\n      dup2\n      swap1\n      sstore\n      pop\n        /* \"lab 16-08-2023/Taskheir4.sol\":235:331  function  submitwork(uint256 workamount)public  {... */\n      pop\n      jump\t// out\n        /* \"lab 16-08-2023/Taskheir4.sol\":160:229  function workerd(address _worker )public  {... */\n    tag_32:\n        /* \"lab 16-08-2023/Taskheir4.sol\":218:225  _worker */\n      dup1\n        /* \"lab 16-08-2023/Taskheir4.sol\":209:215  worker */\n      0x02\n      0x00\n        /* \"lab 16-08-2023/Taskheir4.sol\":209:225  worker = _worker */\n      0x0100\n      exp\n      dup2\n      sload\n      dup2\n      0xffffffffffffffffffffffffffffffffffffffff\n      mul\n      not\n      and\n      swap1\n      dup4\n      0xffffffffffffffffffffffffffffffffffffffff\n      and\n      mul\n      or\n      swap1\n      sstore\n      pop\n        /* \"lab 16-08-2023/Taskheir4.sol\":160:229  function workerd(address _worker )public  {... */\n      pop\n      jump\t// out\n        /* \"lab 16-08-2023/Taskheir4.sol\":337:457  function getWotrkersdata() public view returns (address , uint256) {... */\n    tag_34:\n        /* \"lab 16-08-2023/Taskheir4.sol\":385:392  address */\n      0x00\n        /* \"lab 16-08-2023/Taskheir4.sol\":395:402  uint256 */\n      dup1\n        /* \"lab 16-08-2023/Taskheir4.sol\":425:431  worker */\n      0x02\n      0x00\n      swap1\n      sload\n      swap1\n      0x0100\n      exp\n      swap1\n      div\n      0xffffffffffffffffffffffffffffffffffffffff\n      and\n        /* \"lab 16-08-2023/Taskheir4.sol\":434:452  totalWorkSubmitted */\n      sload(0x03)\n        /* \"lab 16-08-2023/Taskheir4.sol\":417:453  return (worker , totalWorkSubmitted) */\n      swap2\n      pop\n      swap2\n      pop\n        /* \"lab 16-08-2023/Taskheir4.sol\":337:457  function getWotrkersdata() public view returns (address , uint256) {... */\n      swap1\n      swap2\n      jump\t// out\n        /* \"lab 16-08-2023/Taskheir4.sol\":508:529  address public Client */\n    tag_38:\n      0x00\n      dup1\n      sload\n      swap1\n      0x0100\n      exp\n      swap1\n      div\n      0xffffffffffffffffffffffffffffffffffffffff\n      and\n      dup2\n      jump\t// out\n        /* \"lab 16-08-2023/Taskheir4.sol\":757:878  function getWorkersdata() public view returns (address , uint256) {... */\n    tag_41:\n        /* \"lab 16-08-2023/Taskheir4.sol\":804:811  address */\n      0x00\n        /* \"lab 16-08-2023/Taskheir4.sol\":814:821  uint256 */\n      dup1\n        /* \"lab 16-08-2023/Taskheir4.sol\":844:850  Client */\n      0x00\n      dup1\n      sload\n      swap1\n      0x0100\n      exp\n      swap1\n      div\n      0xffffffffffffffffffffffffffffffffffffffff\n      and\n        /* \"lab 16-08-2023/Taskheir4.sol\":853:873  totalprojectscreated */\n      sload(0x01)\n        /* \"lab 16-08-2023/Taskheir4.sol\":836:874  return (Client , totalprojectscreated) */\n      swap2\n      pop\n      swap2\n      pop\n        /* \"lab 16-08-2023/Taskheir4.sol\":757:878  function getWorkersdata() public view returns (address , uint256) {... */\n      swap1\n      swap2\n      jump\t// out\n        /* \"lab 16-08-2023/Taskheir4.sol\":653:751  function  Projectcreated(uint256 projects)public  {... */\n    tag_45:\n        /* \"lab 16-08-2023/Taskheir4.sol\":735:743  projects */\n      dup1\n        /* \"lab 16-08-2023/Taskheir4.sol\":712:732  totalprojectscreated */\n      0x01\n      0x00\n        /* \"lab 16-08-2023/Taskheir4.sol\":712:743  totalprojectscreated +=projects */\n      dup3\n      dup3\n      sload\n      tag_56\n      swap2\n      swap1\n      tag_51\n      jump\t// in\n    tag_56:\n      swap3\n      pop\n      pop\n      dup2\n      swap1\n      sstore\n      pop\n        /* \"lab 16-08-2023/Taskheir4.sol\":653:751  function  Projectcreated(uint256 projects)public  {... */\n      pop\n      jump\t// out\n        /* \"lab 16-08-2023/Taskheir4.sol\":577:647  function clientd(address _client ) public  {... */\n    tag_48:\n        /* \"lab 16-08-2023/Taskheir4.sol\":636:643  _client */\n      dup1\n        /* \"lab 16-08-2023/Taskheir4.sol\":627:633  Client */\n      0x00\n      dup1\n        /* \"lab 16-08-2023/Taskheir4.sol\":627:643  Client = _client */\n      0x0100\n      exp\n      dup2\n      sload\n      dup2\n      0xffffffffffffffffffffffffffffffffffffffff\n      mul\n      not\n      and\n      swap1\n      dup4\n      0xffffffffffffffffffffffffffffffffffffffff\n      and\n      mul\n      or\n      swap1\n      sstore\n      pop\n        /* \"lab 16-08-2023/Taskheir4.sol\":577:647  function clientd(address _client ) public  {... */\n      pop\n      jump\t// out\n        /* \"#utility.yul\":7:84   */\n    tag_58:\n        /* \"#utility.yul\":44:51   */\n      0x00\n        /* \"#utility.yul\":73:78   */\n      dup2\n        /* \"#utility.yul\":62:78   */\n      swap1\n      pop\n        /* \"#utility.yul\":7:84   */\n      swap2\n      swap1\n      pop\n      jump\t// out\n        /* \"#utility.yul\":90:208   */\n    tag_59:\n        /* \"#utility.yul\":177:201   */\n      tag_74\n        /* \"#utility.yul\":195:200   */\n      dup2\n        /* \"#utility.yul\":177:201   */\n      tag_58\n      jump\t// in\n    tag_74:\n        /* \"#utility.yul\":172:175   */\n      dup3\n        /* \"#utility.yul\":165:202   */\n      mstore\n        /* \"#utility.yul\":90:208   */\n      pop\n      pop\n      jump\t// out\n        /* \"#utility.yul\":214:436   */\n    tag_17:\n        /* \"#utility.yul\":307:311   */\n      0x00\n        /* \"#utility.yul\":345:347   */\n      0x20\n        /* \"#utility.yul\":334:343   */\n      dup3\n        /* \"#utility.yul\":330:348   */\n      add\n        /* \"#utility.yul\":322:348   */\n      swap1\n      pop\n        /* \"#utility.yul\":358:429   */\n      tag_76\n        /* \"#utility.yul\":426:427   */\n      0x00\n        /* \"#utility.yul\":415:424   */\n      dup4\n        /* \"#utility.yul\":411:428   */\n      add\n        /* \"#utility.yul\":402:408   */\n      dup5\n        /* \"#utility.yul\":358:429   */\n      tag_59\n      jump\t// in\n    tag_76:\n        /* \"#utility.yul\":214:436   */\n      swap3\n      swap2\n      pop\n      pop\n      jump\t// out\n        /* \"#utility.yul\":442:568   */\n    tag_60:\n        /* \"#utility.yul\":479:486   */\n      0x00\n        /* \"#utility.yul\":519:561   */\n      0xffffffffffffffffffffffffffffffffffffffff\n        /* \"#utility.yul\":512:517   */\n      dup3\n        /* \"#utility.yul\":508:562   */\n      and\n        /* \"#utility.yul\":497:562   */\n      swap1\n      pop\n        /* \"#utility.yul\":442:568   */\n      swap2\n      swap1\n      pop\n      jump\t// out\n        /* \"#utility.yul\":574:670   */\n    tag_61:\n        /* \"#utility.yul\":611:618   */\n      0x00\n        /* \"#utility.yul\":640:664   */\n      tag_79\n        /* \"#utility.yul\":658:663   */\n      dup3\n        /* \"#utility.yul\":640:664   */\n      tag_60\n      jump\t// in\n    tag_79:\n        /* \"#utility.yul\":629:664   */\n      swap1\n      pop\n        /* \"#utility.yul\":574:670   */\n      swap2\n      swap1\n      pop\n      jump\t// out\n        /* \"#utility.yul\":676:794   */\n    tag_62:\n        /* \"#utility.yul\":763:787   */\n      tag_81\n        /* \"#utility.yul\":781:786   */\n      dup2\n        /* \"#utility.yul\":763:787   */\n      tag_61\n      jump\t// in\n    tag_81:\n        /* \"#utility.yul\":758:761   */\n      dup3\n        /* \"#utility.yul\":751:788   */\n      mstore\n        /* \"#utility.yul\":676:794   */\n      pop\n      pop\n      jump\t// out\n        /* \"#utility.yul\":800:1022   */\n    tag_24:\n        /* \"#utility.yul\":893:897   */\n      0x00\n        /* \"#utility.yul\":931:933   */\n      0x20\n        /* \"#utility.yul\":920:929   */\n      dup3\n        /* \"#utility.yul\":916:934   */\n      add\n        /* \"#utility.yul\":908:934   */\n      swap1\n      pop\n        /* \"#utility.yul\":944:1015   */\n      tag_83\n        /* \"#utility.yul\":1012:1013   */\n      0x00\n        /* \"#utility.yul\":1001:1010   */\n      dup4\n        /* \"#utility.yul\":997:1014   */\n      add\n        /* \"#utility.yul\":988:994   */\n      dup5\n        /* \"#utility.yul\":944:1015   */\n      tag_62\n      jump\t// in\n    tag_83:\n        /* \"#utility.yul\":800:1022   */\n      swap3\n      swap2\n      pop\n      pop\n      jump\t// out\n        /* \"#utility.yul\":1109:1226   */\n    tag_64:\n        /* \"#utility.yul\":1218:1219   */\n      0x00\n        /* \"#utility.yul\":1215:1216   */\n      dup1\n        /* \"#utility.yul\":1208:1220   */\n      revert\n        /* \"#utility.yul\":1355:1477   */\n    tag_66:\n        /* \"#utility.yul\":1428:1452   */\n      tag_88\n        /* \"#utility.yul\":1446:1451   */\n      dup2\n        /* \"#utility.yul\":1428:1452   */\n      tag_58\n      jump\t// in\n    tag_88:\n        /* \"#utility.yul\":1421:1426   */\n      dup2\n        /* \"#utility.yul\":1418:1453   */\n      eq\n        /* \"#utility.yul\":1408:1471   */\n      tag_89\n      jumpi\n        /* \"#utility.yul\":1467:1468   */\n      0x00\n        /* \"#utility.yul\":1464:1465   */\n      dup1\n        /* \"#utility.yul\":1457:1469   */\n      revert\n        /* \"#utility.yul\":1408:1471   */\n    tag_89:\n        /* \"#utility.yul\":1355:1477   */\n      pop\n      jump\t// out\n        /* \"#utility.yul\":1483:1622   */\n    tag_67:\n        /* \"#utility.yul\":1529:1534   */\n      0x00\n        /* \"#utility.yul\":1567:1573   */\n      dup2\n        /* \"#utility.yul\":1554:1574   */\n      calldataload\n        /* \"#utility.yul\":1545:1574   */\n      swap1\n      pop\n        /* \"#utility.yul\":1583:1616   */\n      tag_91\n        /* \"#utility.yul\":1610:1615   */\n      dup2\n        /* \"#utility.yul\":1583:1616   */\n      tag_66\n      jump\t// in\n    tag_91:\n        /* \"#utility.yul\":1483:1622   */\n      swap3\n      swap2\n      pop\n      pop\n      jump\t// out\n        /* \"#utility.yul\":1628:1957   */\n    tag_27:\n        /* \"#utility.yul\":1687:1693   */\n      0x00\n        /* \"#utility.yul\":1736:1738   */\n      0x20\n        /* \"#utility.yul\":1724:1733   */\n      dup3\n        /* \"#utility.yul\":1715:1722   */\n      dup5\n        /* \"#utility.yul\":1711:1734   */\n      sub\n        /* \"#utility.yul\":1707:1739   */\n      slt\n        /* \"#utility.yul\":1704:1823   */\n      iszero\n      tag_93\n      jumpi\n        /* \"#utility.yul\":1742:1821   */\n      tag_94\n      tag_64\n      jump\t// in\n    tag_94:\n        /* \"#utility.yul\":1704:1823   */\n    tag_93:\n        /* \"#utility.yul\":1862:1863   */\n      0x00\n        /* \"#utility.yul\":1887:1940   */\n      tag_95\n        /* \"#utility.yul\":1932:1939   */\n      dup5\n        /* \"#utility.yul\":1923:1929   */\n      dup3\n        /* \"#utility.yul\":1912:1921   */\n      dup6\n        /* \"#utility.yul\":1908:1930   */\n      add\n        /* \"#utility.yul\":1887:1940   */\n      tag_67\n      jump\t// in\n    tag_95:\n        /* \"#utility.yul\":1877:1940   */\n      swap2\n      pop\n        /* \"#utility.yul\":1833:1950   */\n      pop\n        /* \"#utility.yul\":1628:1957   */\n      swap3\n      swap2\n      pop\n      pop\n      jump\t// out\n        /* \"#utility.yul\":1963:2085   */\n    tag_68:\n        /* \"#utility.yul\":2036:2060   */\n      tag_97\n        /* \"#utility.yul\":2054:2059   */\n      dup2\n        /* \"#utility.yul\":2036:2060   */\n      tag_61\n      jump\t// in\n    tag_97:\n        /* \"#utility.yul\":2029:2034   */\n      dup2\n        /* \"#utility.yul\":2026:2061   */\n      eq\n        /* \"#utility.yul\":2016:2079   */\n      tag_98\n      jumpi\n        /* \"#utility.yul\":2075:2076   */\n      0x00\n        /* \"#utility.yul\":2072:2073   */\n      dup1\n        /* \"#utility.yul\":2065:2077   */\n      revert\n        /* \"#utility.yul\":2016:2079   */\n    tag_98:\n        /* \"#utility.yul\":1963:2085   */\n      pop\n      jump\t// out\n        /* \"#utility.yul\":2091:2230   */\n    tag_69:\n        /* \"#utility.yul\":2137:2142   */\n      0x00\n        /* \"#utility.yul\":2175:2181   */\n      dup2\n        /* \"#utility.yul\":2162:2182   */\n      calldataload\n        /* \"#utility.yul\":2153:2182   */\n      swap1\n      pop\n        /* \"#utility.yul\":2191:2224   */\n      tag_100\n        /* \"#utility.yul\":2218:2223   */\n      dup2\n        /* \"#utility.yul\":2191:2224   */\n      tag_68\n      jump\t// in\n    tag_100:\n        /* \"#utility.yul\":2091:2230   */\n      swap3\n      swap2\n      pop\n      pop\n      jump\t// out\n        /* \"#utility.yul\":2236:2565   */\n    tag_31:\n        /* \"#utility.yul\":2295:2301   */\n      0x00\n        /* \"#utility.yul\":2344:2346   */\n      0x20\n        /* \"#utility.yul\":2332:2341   */\n      dup3\n        /* \"#utility.yul\":2323:2330   */\n      dup5\n        /* \"#utility.yul\":2319:2342   */\n      sub\n        /* \"#utility.yul\":2315:2347   */\n      slt\n        /* \"#utility.yul\":2312:2431   */\n      iszero\n      tag_102\n      jumpi\n        /* \"#utility.yul\":2350:2429   */\n      tag_103\n      tag_64\n      jump\t// in\n    tag_103:\n        /* \"#utility.yul\":2312:2431   */\n    tag_102:\n        /* \"#utility.yul\":2470:2471   */\n      0x00\n        /* \"#utility.yul\":2495:2548   */\n      tag_104\n        /* \"#utility.yul\":2540:2547   */\n      dup5\n        /* \"#utility.yul\":2531:2537   */\n      dup3\n        /* \"#utility.yul\":2520:2529   */\n      dup6\n        /* \"#utility.yul\":2516:2538   */\n      add\n        /* \"#utility.yul\":2495:2548   */\n      tag_69\n      jump\t// in\n    tag_104:\n        /* \"#utility.yul\":2485:2548   */\n      swap2\n      pop\n        /* \"#utility.yul\":2441:2558   */\n      pop\n        /* \"#utility.yul\":2236:2565   */\n      swap3\n      swap2\n      pop\n      pop\n      jump\t// out\n        /* \"#utility.yul\":2571:2903   */\n    tag_36:\n        /* \"#utility.yul\":2692:2696   */\n      0x00\n        /* \"#utility.yul\":2730:2732   */\n      0x40\n        /* \"#utility.yul\":2719:2728   */\n      dup3\n        /* \"#utility.yul\":2715:2733   */\n      add\n        /* \"#utility.yul\":2707:2733   */\n      swap1\n      pop\n        /* \"#utility.yul\":2743:2814   */\n      tag_106\n        /* \"#utility.yul\":2811:2812   */\n      0x00\n        /* \"#utility.yul\":2800:2809   */\n      dup4\n        /* \"#utility.yul\":2796:2813   */\n      add\n        /* \"#utility.yul\":2787:2793   */\n      dup6\n        /* \"#utility.yul\":2743:2814   */\n      tag_62\n      jump\t// in\n    tag_106:\n        /* \"#utility.yul\":2824:2896   */\n      tag_107\n        /* \"#utility.yul\":2892:2894   */\n      0x20\n        /* \"#utility.yul\":2881:2890   */\n      dup4\n        /* \"#utility.yul\":2877:2895   */\n      add\n        /* \"#utility.yul\":2868:2874   */\n      dup5\n        /* \"#utility.yul\":2824:2896   */\n      tag_59\n      jump\t// in\n    tag_107:\n        /* \"#utility.yul\":2571:2903   */\n      swap4\n      swap3\n      pop\n      pop\n      pop\n      jump\t// out\n        /* \"#utility.yul\":2909:3089   */\n    tag_70:\n        /* \"#utility.yul\":2957:3034   */\n      0x4e487b7100000000000000000000000000000000000000000000000000000000\n        /* \"#utility.yul\":2954:2955   */\n      0x00\n        /* \"#utility.yul\":2947:3035   */\n      mstore\n        /* \"#utility.yul\":3054:3058   */\n      0x11\n        /* \"#utility.yul\":3051:3052   */\n      0x04\n        /* \"#utility.yul\":3044:3059   */\n      mstore\n        /* \"#utility.yul\":3078:3082   */\n      0x24\n        /* \"#utility.yul\":3075:3076   */\n      0x00\n        /* \"#utility.yul\":3068:3083   */\n      revert\n        /* \"#utility.yul\":3095:3286   */\n    tag_51:\n        /* \"#utility.yul\":3135:3138   */\n      0x00\n        /* \"#utility.yul\":3154:3174   */\n      tag_110\n        /* \"#utility.yul\":3172:3173   */\n      dup3\n        /* \"#utility.yul\":3154:3174   */\n      tag_58\n      jump\t// in\n    tag_110:\n        /* \"#utility.yul\":3149:3174   */\n      swap2\n      pop\n        /* \"#utility.yul\":3188:3208   */\n      tag_111\n        /* \"#utility.yul\":3206:3207   */\n      dup4\n        /* \"#utility.yul\":3188:3208   */\n      tag_58\n      jump\t// in\n    tag_111:\n        /* \"#utility.yul\":3183:3208   */\n      swap3\n      pop\n        /* \"#utility.yul\":3231:3232   */\n      dup3\n        /* \"#utility.yul\":3228:3229   */\n      dup3\n        /* \"#utility.yul\":3224:3233   */\n      add\n        /* \"#utility.yul\":3217:3233   */\n      swap1\n      pop\n        /* \"#utility.yul\":3252:3255   */\n      dup1\n        /* \"#utility.yul\":3249:3250   */\n      dup3\n        /* \"#utility.yul\":3246:3256   */\n      gt\n        /* \"#utility.yul\":3243:3279   */\n      iszero\n      tag_112\n      jumpi\n        /* \"#utility.yul\":3259:3277   */\n      tag_113\n      tag_70\n      jump\t// in\n    tag_113:\n        /* \"#utility.yul\":3243:3279   */\n    tag_112:\n        /* \"#utility.yul\":3095:3286   */\n      swap3\n      swap2\n      pop\n      pop\n      jump\t// out\n\n    auxdata: 0xa2646970667358221220fa3071535a705a821349a0d320eb0fa6d8558b99feef017ccb920670a82bfcc164736f6c63430008120033\n}\n",
				"bytecode": {
					"linkReferences": {},
					"object": "608060405234801561001057600080fd5b50610547806100206000396000f3fe608060405234801561001057600080fd5b506004361061009e5760003560e01c80636d1ec5bf116100665780636d1ec5bf146101355780638eaa9c9114610154578063a13db98014610172578063d23ce77e14610191578063d5c6b82c146101ad5761009e565b806305d9fe2f146100a357806334884db7146100c15780634d547ada146100df578063617f53d0146100fd5780636720169314610119575b600080fd5b6100ab6101c9565b6040516100b89190610357565b60405180910390f35b6100c96101cf565b6040516100d69190610357565b60405180910390f35b6100e76101d5565b6040516100f491906103b3565b60405180910390f35b610117600480360381019061011291906103ff565b6101fb565b005b610133600480360381019061012e9190610458565b610217565b005b61013d61025b565b60405161014b929190610485565b60405180910390f35b61015c61028c565b60405161016991906103b3565b60405180910390f35b61017a6102b0565b604051610188929190610485565b60405180910390f35b6101ab60048036038101906101a691906103ff565b6102df565b005b6101c760048036038101906101c29190610458565b6102fb565b005b60035481565b60015481565b600260009054906101000a900473ffffffffffffffffffffffffffffffffffffffff1681565b806003600082825461020d91906104dd565b9250508190555050565b80600260006101000a81548173ffffffffffffffffffffffffffffffffffffffff021916908373ffffffffffffffffffffffffffffffffffffffff16021790555050565b600080600260009054906101000a900473ffffffffffffffffffffffffffffffffffffffff16600354915091509091565b60008054906101000a900473ffffffffffffffffffffffffffffffffffffffff1681565b60008060008054906101000a900473ffffffffffffffffffffffffffffffffffffffff16600154915091509091565b80600160008282546102f191906104dd565b9250508190555050565b806000806101000a81548173ffffffffffffffffffffffffffffffffffffffff021916908373ffffffffffffffffffffffffffffffffffffffff16021790555050565b6000819050919050565b6103518161033e565b82525050565b600060208201905061036c6000830184610348565b92915050565b600073ffffffffffffffffffffffffffffffffffffffff82169050919050565b600061039d82610372565b9050919050565b6103ad81610392565b82525050565b60006020820190506103c860008301846103a4565b92915050565b600080fd5b6103dc8161033e565b81146103e757600080fd5b50565b6000813590506103f9816103d3565b92915050565b600060208284031215610415576104146103ce565b5b6000610423848285016103ea565b91505092915050565b61043581610392565b811461044057600080fd5b50565b6000813590506104528161042c565b92915050565b60006020828403121561046e5761046d6103ce565b5b600061047c84828501610443565b91505092915050565b600060408201905061049a60008301856103a4565b6104a76020830184610348565b9392505050565b7f4e487b7100000000000000000000000000000000000000000000000000000000600052601160045260246000fd5b60006104e88261033e565b91506104f38361033e565b925082820190508082111561050b5761050a6104ae565b5b9291505056fea2646970667358221220fa3071535a705a821349a0d320eb0fa6d8558b99feef017ccb920670a82bfcc164736f6c63430008120033",
					"opcodes": "PUSH1 0x80 PUSH1 0x40 MSTORE CALLVALUE DUP1 ISZERO PUSH2 0x10 JUMPI PUSH1 0x0 DUP1 REVERT JUMPDEST POP PUSH2 0x547 DUP1 PUSH2 0x20 PUSH1 0x0 CODECOPY PUSH1 0x0 RETURN INVALID PUSH1 0x80 PUSH1 0x40 MSTORE CALLVALUE DUP1 ISZERO PUSH2 0x10 JUMPI PUSH1 0x0 DUP1 REVERT JUMPDEST POP PUSH1 0x4 CALLDATASIZE LT PUSH2 0x9E JUMPI PUSH1 0x0 CALLDATALOAD PUSH1 0xE0 SHR DUP1 PUSH4 0x6D1EC5BF GT PUSH2 0x66 JUMPI DUP1 PUSH4 0x6D1EC5BF EQ PUSH2 0x135 JUMPI DUP1 PUSH4 0x8EAA9C91 EQ PUSH2 0x154 JUMPI DUP1 PUSH4 0xA13DB980 EQ PUSH2 0x172 JUMPI DUP1 PUSH4 0xD23CE77E EQ PUSH2 0x191 JUMPI DUP1 PUSH4 0xD5C6B82C EQ PUSH2 0x1AD JUMPI PUSH2 0x9E JUMP JUMPDEST DUP1 PUSH4 0x5D9FE2F EQ PUSH2 0xA3 JUMPI DUP1 PUSH4 0x34884DB7 EQ PUSH2 0xC1 JUMPI DUP1 PUSH4 0x4D547ADA EQ PUSH2 0xDF JUMPI DUP1 PUSH4 0x617F53D0 EQ PUSH2 0xFD JUMPI DUP1 PUSH4 0x67201693 EQ PUSH2 0x119 JUMPI JUMPDEST PUSH1 0x0 DUP1 REVERT JUMPDEST PUSH2 0xAB PUSH2 0x1C9 JUMP JUMPDEST PUSH1 0x40 MLOAD PUSH2 0xB8 SWAP2 SWAP1 PUSH2 0x357 JUMP JUMPDEST PUSH1 0x40 MLOAD DUP1 SWAP2 SUB SWAP1 RETURN JUMPDEST PUSH2 0xC9 PUSH2 0x1CF JUMP JUMPDEST PUSH1 0x40 MLOAD PUSH2 0xD6 SWAP2 SWAP1 PUSH2 0x357 JUMP JUMPDEST PUSH1 0x40 MLOAD DUP1 SWAP2 SUB SWAP1 RETURN JUMPDEST PUSH2 0xE7 PUSH2 0x1D5 JUMP JUMPDEST PUSH1 0x40 MLOAD PUSH2 0xF4 SWAP2 SWAP1 PUSH2 0x3B3 JUMP JUMPDEST PUSH1 0x40 MLOAD DUP1 SWAP2 SUB SWAP1 RETURN JUMPDEST PUSH2 0x117 PUSH1 0x4 DUP1 CALLDATASIZE SUB DUP2 ADD SWAP1 PUSH2 0x112 SWAP2 SWAP1 PUSH2 0x3FF JUMP JUMPDEST PUSH2 0x1FB JUMP JUMPDEST STOP JUMPDEST PUSH2 0x133 PUSH1 0x4 DUP1 CALLDATASIZE SUB DUP2 ADD SWAP1 PUSH2 0x12E SWAP2 SWAP1 PUSH2 0x458 JUMP JUMPDEST PUSH2 0x217 JUMP JUMPDEST STOP JUMPDEST PUSH2 0x13D PUSH2 0x25B JUMP JUMPDEST PUSH1 0x40 MLOAD PUSH2 0x14B SWAP3 SWAP2 SWAP1 PUSH2 0x485 JUMP JUMPDEST PUSH1 0x40 MLOAD DUP1 SWAP2 SUB SWAP1 RETURN JUMPDEST PUSH2 0x15C PUSH2 0x28C JUMP JUMPDEST PUSH1 0x40 MLOAD PUSH2 0x169 SWAP2 SWAP1 PUSH2 0x3B3 JUMP JUMPDEST PUSH1 0x40 MLOAD DUP1 SWAP2 SUB SWAP1 RETURN JUMPDEST PUSH2 0x17A PUSH2 0x2B0 JUMP JUMPDEST PUSH1 0x40 MLOAD PUSH2 0x188 SWAP3 SWAP2 SWAP1 PUSH2 0x485 JUMP JUMPDEST PUSH1 0x40 MLOAD DUP1 SWAP2 SUB SWAP1 RETURN JUMPDEST PUSH2 0x1AB PUSH1 0x4 DUP1 CALLDATASIZE SUB DUP2 ADD SWAP1 PUSH2 0x1A6 SWAP2 SWAP1 PUSH2 0x3FF JUMP JUMPDEST PUSH2 0x2DF JUMP JUMPDEST STOP JUMPDEST PUSH2 0x1C7 PUSH1 0x4 DUP1 CALLDATASIZE SUB DUP2 ADD SWAP1 PUSH2 0x1C2 SWAP2 SWAP1 PUSH2 0x458 JUMP JUMPDEST PUSH2 0x2FB JUMP JUMPDEST STOP JUMPDEST PUSH1 0x3 SLOAD DUP2 JUMP JUMPDEST PUSH1 0x1 SLOAD DUP2 JUMP JUMPDEST PUSH1 0x2 PUSH1 0x0 SWAP1 SLOAD SWAP1 PUSH2 0x100 EXP SWAP1 DIV PUSH20 0xFFFFFFFFFFFFFFFFFFFFFFFFFFFFFFFFFFFFFFFF AND DUP2 JUMP JUMPDEST DUP1 PUSH1 0x3 PUSH1 0x0 DUP3 DUP3 SLOAD PUSH2 0x20D SWAP2 SWAP1 PUSH2 0x4DD JUMP JUMPDEST SWAP3 POP POP DUP2 SWAP1 SSTORE POP POP JUMP JUMPDEST DUP1 PUSH1 0x2 PUSH1 0x0 PUSH2 0x100 EXP DUP2 SLOAD DUP2 PUSH20 0xFFFFFFFFFFFFFFFFFFFFFFFFFFFFFFFFFFFFFFFF MUL NOT AND SWAP1 DUP4 PUSH20 0xFFFFFFFFFFFFFFFFFFFFFFFFFFFFFFFFFFFFFFFF AND MUL OR SWAP1 SSTORE POP POP JUMP JUMPDEST PUSH1 0x0 DUP1 PUSH1 0x2 PUSH1 0x0 SWAP1 SLOAD SWAP1 PUSH2 0x100 EXP SWAP1 DIV PUSH20 0xFFFFFFFFFFFFFFFFFFFFFFFFFFFFFFFFFFFFFFFF AND PUSH1 0x3 SLOAD SWAP2 POP SWAP2 POP SWAP1 SWAP2 JUMP JUMPDEST PUSH1 0x0 DUP1 SLOAD SWAP1 PUSH2 0x100 EXP SWAP1 DIV PUSH20 0xFFFFFFFFFFFFFFFFFFFFFFFFFFFFFFFFFFFFFFFF AND DUP2 JUMP JUMPDEST PUSH1 0x0 DUP1 PUSH1 0x0 DUP1 SLOAD SWAP1 PUSH2 0x100 EXP SWAP1 DIV PUSH20 0xFFFFFFFFFFFFFFFFFFFFFFFFFFFFFFFFFFFFFFFF AND PUSH1 0x1 SLOAD SWAP2 POP SWAP2 POP SWAP1 SWAP2 JUMP JUMPDEST DUP1 PUSH1 0x1 PUSH1 0x0 DUP3 DUP3 SLOAD PUSH2 0x2F1 SWAP2 SWAP1 PUSH2 0x4DD JUMP JUMPDEST SWAP3 POP POP DUP2 SWAP1 SSTORE POP POP JUMP JUMPDEST DUP1 PUSH1 0x0 DUP1 PUSH2 0x100 EXP DUP2 SLOAD DUP2 PUSH20 0xFFFFFFFFFFFFFFFFFFFFFFFFFFFFFFFFFFFFFFFF MUL NOT AND SWAP1 DUP4 PUSH20 0xFFFFFFFFFFFFFFFFFFFFFFFFFFFFFFFFFFFFFFFF AND MUL OR SWAP1 SSTORE POP POP JUMP JUMPDEST PUSH1 0x0 DUP2 SWAP1 POP SWAP2 SWAP1 POP JUMP JUMPDEST PUSH2 0x351 DUP2 PUSH2 0x33E JUMP JUMPDEST DUP3 MSTORE POP POP JUMP JUMPDEST PUSH1 0x0 PUSH1 0x20 DUP3 ADD SWAP1 POP PUSH2 0x36C PUSH1 0x0 DUP4 ADD DUP5 PUSH2 0x348 JUMP JUMPDEST SWAP3 SWAP2 POP POP JUMP JUMPDEST PUSH1 0x0 PUSH20 0xFFFFFFFFFFFFFFFFFFFFFFFFFFFFFFFFFFFFFFFF DUP3 AND SWAP1 POP SWAP2 SWAP1 POP JUMP JUMPDEST PUSH1 0x0 PUSH2 0x39D DUP3 PUSH2 0x372 JUMP JUMPDEST SWAP1 POP SWAP2 SWAP1 POP JUMP JUMPDEST PUSH2 0x3AD DUP2 PUSH2 0x392 JUMP JUMPDEST DUP3 MSTORE POP POP JUMP JUMPDEST PUSH1 0x0 PUSH1 0x20 DUP3 ADD SWAP1 POP PUSH2 0x3C8 PUSH1 0x0 DUP4 ADD DUP5 PUSH2 0x3A4 JUMP JUMPDEST SWAP3 SWAP2 POP POP JUMP JUMPDEST PUSH1 0x0 DUP1 REVERT JUMPDEST PUSH2 0x3DC DUP2 PUSH2 0x33E JUMP JUMPDEST DUP2 EQ PUSH2 0x3E7 JUMPI PUSH1 0x0 DUP1 REVERT JUMPDEST POP JUMP JUMPDEST PUSH1 0x0 DUP2 CALLDATALOAD SWAP1 POP PUSH2 0x3F9 DUP2 PUSH2 0x3D3 JUMP JUMPDEST SWAP3 SWAP2 POP POP JUMP JUMPDEST PUSH1 0x0 PUSH1 0x20 DUP3 DUP5 SUB SLT ISZERO PUSH2 0x415 JUMPI PUSH2 0x414 PUSH2 0x3CE JUMP JUMPDEST JUMPDEST PUSH1 0x0 PUSH2 0x423 DUP5 DUP3 DUP6 ADD PUSH2 0x3EA JUMP JUMPDEST SWAP2 POP POP SWAP3 SWAP2 POP POP JUMP JUMPDEST PUSH2 0x435 DUP2 PUSH2 0x392 JUMP JUMPDEST DUP2 EQ PUSH2 0x440 JUMPI PUSH1 0x0 DUP1 REVERT JUMPDEST POP JUMP JUMPDEST PUSH1 0x0 DUP2 CALLDATALOAD SWAP1 POP PUSH2 0x452 DUP2 PUSH2 0x42C JUMP JUMPDEST SWAP3 SWAP2 POP POP JUMP JUMPDEST PUSH1 0x0 PUSH1 0x20 DUP3 DUP5 SUB SLT ISZERO PUSH2 0x46E JUMPI PUSH2 0x46D PUSH2 0x3CE JUMP JUMPDEST JUMPDEST PUSH1 0x0 PUSH2 0x47C DUP5 DUP3 DUP6 ADD PUSH2 0x443 JUMP JUMPDEST SWAP2 POP POP SWAP3 SWAP2 POP POP JUMP JUMPDEST PUSH1 0x0 PUSH1 0x40 DUP3 ADD SWAP1 POP PUSH2 0x49A PUSH1 0x0 DUP4 ADD DUP6 PUSH2 0x3A4 JUMP JUMPDEST PUSH2 0x4A7 PUSH1 0x20 DUP4 ADD DUP5 PUSH2 0x348 JUMP JUMPDEST SWAP4 SWAP3 POP POP POP JUMP JUMPDEST PUSH32 0x4E487B7100000000000000000000000000000000000000000000000000000000 PUSH1 0x0 MSTORE PUSH1 0x11 PUSH1 0x4 MSTORE PUSH1 0x24 PUSH1 0x0 REVERT JUMPDEST PUSH1 0x0 PUSH2 0x4E8 DUP3 PUSH2 0x33E JUMP JUMPDEST SWAP2 POP PUSH2 0x4F3 DUP4 PUSH2 0x33E JUMP JUMPDEST SWAP3 POP DUP3 DUP3 ADD SWAP1 POP DUP1 DUP3 GT ISZERO PUSH2 0x50B JUMPI PUSH2 0x50A PUSH2 0x4AE JUMP JUMPDEST JUMPDEST SWAP3 SWAP2 POP POP JUMP INVALID LOG2 PUSH5 0x6970667358 0x22 SLT KECCAK256 STATICCALL ADDRESS PUSH18 0x535A705A821349A0D320EB0FA6D8558B99FE 0xEF ADD PUSH29 0xCB920670A82BFCC164736F6C6343000812003300000000000000000000 "
				},
				"gasEstimates": {
					"creation": {
						"codeDepositCost": "270200",
						"executionCost": "312",
						"totalCost": "270512"
					},
					"external": {
						"Client()": "2533",
						"Projectcreated(uint256)": "infinite",
						"clientd(address)": "24810",
						"getWorkersdata()": "4777",
						"getWotrkersdata()": "4736",
						"submitwork(uint256)": "infinite",
						"totalWorkSubmitted()": "2430",
						"totalprojectscreated()": "2452",
						"worker()": "2559",
						"workerd(address)": "24811"
					}
				},
				"methodIdentifiers": {
					"Client()": "8eaa9c91",
					"Projectcreated(uint256)": "d23ce77e",
					"clientd(address)": "d5c6b82c",
					"getWorkersdata()": "a13db980",
					"getWotrkersdata()": "6d1ec5bf",
					"submitwork(uint256)": "617f53d0",
					"totalWorkSubmitted()": "05d9fe2f",
					"totalprojectscreated()": "34884db7",
					"worker()": "4d547ada",
					"workerd(address)": "67201693"
				}
			},
			"storageLayout": {
				"storage": [
					{
						"astId": 40,
						"contract": "lab 16-08-2023/Taskheir4.sol:Freelancer",
						"label": "Client",
						"offset": 0,
						"slot": "0",
						"type": "t_address"
					},
					{
						"astId": 42,
						"contract": "lab 16-08-2023/Taskheir4.sol:Freelancer",
						"label": "totalprojectscreated",
						"offset": 0,
						"slot": "1",
						"type": "t_uint256"
					},
					{
						"astId": 3,
						"contract": "lab 16-08-2023/Taskheir4.sol:Freelancer",
						"label": "worker",
						"offset": 0,
						"slot": "2",
						"type": "t_address"
					},
					{
						"astId": 5,
						"contract": "lab 16-08-2023/Taskheir4.sol:Freelancer",
						"label": "totalWorkSubmitted",
						"offset": 0,
						"slot": "3",
						"type": "t_uint256"
					}
				],
				"types": {
					"t_address": {
						"encoding": "inplace",
						"label": "address",
						"numberOfBytes": "20"
					},
					"t_uint256": {
						"encoding": "inplace",
						"label": "uint256",
						"numberOfBytes": "32"
					}
				}
			},
			"userdoc": {
				"kind": "user",
				"methods": {},
				"version": 1
			}
		}
	}
}