{
	"lab 16-08-2023/Heircars.sol": {
		"Hybridcar": {
			"abi": [
				{
					"inputs": [],
					"name": "gasTankCapacity",
					"outputs": [
						{
							"internalType": "uint256",
							"name": "",
							"type": "uint256"
						}
					],
					"stateMutability": "view",
					"type": "function"
				},
				{
					"inputs": [],
					"name": "make",
					"outputs": [
						{
							"internalType": "string",
							"name": "",
							"type": "string"
						}
					],
					"stateMutability": "view",
					"type": "function"
				},
				{
					"inputs": [],
					"name": "model",
					"outputs": [
						{
							"internalType": "uint256",
							"name": "",
							"type": "uint256"
						}
					],
					"stateMutability": "view",
					"type": "function"
				},
				{
					"inputs": [
						{
							"internalType": "string",
							"name": "_make",
							"type": "string"
						},
						{
							"internalType": "uint256",
							"name": "_model",
							"type": "uint256"
						}
					],
					"name": "setvalue",
					"outputs": [
						{
							"internalType": "string",
							"name": "",
							"type": "string"
						},
						{
							"internalType": "uint256",
							"name": "",
							"type": "uint256"
						}
					],
					"stateMutability": "nonpayable",
					"type": "function"
				},
				{
					"inputs": [
						{
							"internalType": "uint256",
							"name": "_gascapac",
							"type": "uint256"
						}
					],
					"name": "setvalue2",
					"outputs": [
						{
							"internalType": "uint256",
							"name": "",
							"type": "uint256"
						}
					],
					"stateMutability": "nonpayable",
					"type": "function"
				}
			],
			"devdoc": {
				"kind": "dev",
				"methods": {},
				"version": 1
			},
			"evm": {
				"assembly": "    /* \"lab 16-08-2023/Heircars.sol\":301:505  contract  Hybridcar  is Car   {... */\n  mstore(0x40, 0x80)\n  callvalue\n  dup1\n  iszero\n  tag_1\n  jumpi\n  0x00\n  dup1\n  revert\ntag_1:\n  pop\n  dataSize(sub_0)\n  dup1\n  dataOffset(sub_0)\n  0x00\n  codecopy\n  0x00\n  return\nstop\n\nsub_0: assembly {\n        /* \"lab 16-08-2023/Heircars.sol\":301:505  contract  Hybridcar  is Car   {... */\n      mstore(0x40, 0x80)\n      callvalue\n      dup1\n      iszero\n      tag_1\n      jumpi\n      0x00\n      dup1\n      revert\n    tag_1:\n      pop\n      jumpi(tag_2, lt(calldatasize, 0x04))\n      shr(0xe0, calldataload(0x00))\n      dup1\n      0x0ad9d052\n      eq\n      tag_3\n      jumpi\n      dup1\n      0x54efe028\n      eq\n      tag_4\n      jumpi\n      dup1\n      0xb36b8c52\n      eq\n      tag_5\n      jumpi\n      dup1\n      0xc6dad082\n      eq\n      tag_6\n      jumpi\n      dup1\n      0xc9d7a365\n      eq\n      tag_7\n      jumpi\n    tag_2:\n      0x00\n      dup1\n      revert\n        /* \"lab 16-08-2023/Heircars.sol\":109:127  uint public  model */\n    tag_3:\n      tag_8\n      tag_9\n      jump\t// in\n    tag_8:\n      mload(0x40)\n      tag_10\n      swap2\n      swap1\n      tag_11\n      jump\t// in\n    tag_10:\n      mload(0x40)\n      dup1\n      swap2\n      sub\n      swap1\n      return\n        /* \"lab 16-08-2023/Heircars.sol\":132:292  function setvalue(string memory _make , uint _model) public  returns (string memory , uint) {... */\n    tag_4:\n      tag_12\n      0x04\n      dup1\n      calldatasize\n      sub\n      dup2\n      add\n      swap1\n      tag_13\n      swap2\n      swap1\n      tag_14\n      jump\t// in\n    tag_13:\n      tag_15\n      jump\t// in\n    tag_12:\n      mload(0x40)\n      tag_16\n      swap3\n      swap2\n      swap1\n      tag_17\n      jump\t// in\n    tag_16:\n      mload(0x40)\n      dup1\n      swap2\n      sub\n      swap1\n      return\n        /* \"lab 16-08-2023/Heircars.sol\":338:366  uint public  gasTankCapacity */\n    tag_5:\n      tag_18\n      tag_19\n      jump\t// in\n    tag_18:\n      mload(0x40)\n      tag_20\n      swap2\n      swap1\n      tag_11\n      jump\t// in\n    tag_20:\n      mload(0x40)\n      dup1\n      swap2\n      sub\n      swap1\n      return\n        /* \"lab 16-08-2023/Heircars.sol\":87:106  string public  make */\n    tag_6:\n      tag_21\n      tag_22\n      jump\t// in\n    tag_21:\n      mload(0x40)\n      tag_23\n      swap2\n      swap1\n      tag_24\n      jump\t// in\n    tag_23:\n      mload(0x40)\n      dup1\n      swap2\n      sub\n      swap1\n      return\n        /* \"lab 16-08-2023/Heircars.sol\":369:498  function setvalue2( uint _gascapac) public  returns ( uint) {... */\n    tag_7:\n      tag_25\n      0x04\n      dup1\n      calldatasize\n      sub\n      dup2\n      add\n      swap1\n      tag_26\n      swap2\n      swap1\n      tag_27\n      jump\t// in\n    tag_26:\n      tag_28\n      jump\t// in\n    tag_25:\n      mload(0x40)\n      tag_29\n      swap2\n      swap1\n      tag_11\n      jump\t// in\n    tag_29:\n      mload(0x40)\n      dup1\n      swap2\n      sub\n      swap1\n      return\n        /* \"lab 16-08-2023/Heircars.sol\":109:127  uint public  model */\n    tag_9:\n      sload(0x01)\n      dup2\n      jump\t// out\n        /* \"lab 16-08-2023/Heircars.sol\":132:292  function setvalue(string memory _make , uint _model) public  returns (string memory , uint) {... */\n    tag_15:\n        /* \"lab 16-08-2023/Heircars.sol\":202:215  string memory */\n      0x60\n        /* \"lab 16-08-2023/Heircars.sol\":218:222  uint */\n      0x00\n        /* \"lab 16-08-2023/Heircars.sol\":238:243  _make */\n      dup4\n        /* \"lab 16-08-2023/Heircars.sol\":231:235  make */\n      0x00\n        /* \"lab 16-08-2023/Heircars.sol\":231:243  make = _make */\n      swap1\n      dup2\n      tag_31\n      swap2\n      swap1\n      tag_32\n      jump\t// in\n    tag_31:\n      pop\n        /* \"lab 16-08-2023/Heircars.sol\":258:264  _model */\n      dup3\n        /* \"lab 16-08-2023/Heircars.sol\":250:255  model */\n      0x01\n        /* \"lab 16-08-2023/Heircars.sol\":250:264  model = _model */\n      dup2\n      swap1\n      sstore\n      pop\n        /* \"lab 16-08-2023/Heircars.sol\":275:279  make */\n      0x00\n        /* \"lab 16-08-2023/Heircars.sol\":282:287  model */\n      sload(0x01)\n        /* \"lab 16-08-2023/Heircars.sol\":267:288  return (make , model) */\n      dup2\n      dup1\n      sload\n      tag_33\n      swap1\n      tag_34\n      jump\t// in\n    tag_33:\n      dup1\n      0x1f\n      add\n      0x20\n      dup1\n      swap2\n      div\n      mul\n      0x20\n      add\n      mload(0x40)\n      swap1\n      dup2\n      add\n      0x40\n      mstore\n      dup1\n      swap3\n      swap2\n      swap1\n      dup2\n      dup2\n      mstore\n      0x20\n      add\n      dup3\n      dup1\n      sload\n      tag_35\n      swap1\n      tag_34\n      jump\t// in\n    tag_35:\n      dup1\n      iszero\n      tag_36\n      jumpi\n      dup1\n      0x1f\n      lt\n      tag_37\n      jumpi\n      0x0100\n      dup1\n      dup4\n      sload\n      div\n      mul\n      dup4\n      mstore\n      swap2\n      0x20\n      add\n      swap2\n      jump(tag_36)\n    tag_37:\n      dup3\n      add\n      swap2\n      swap1\n      0x00\n      mstore\n      keccak256(0x00, 0x20)\n      swap1\n    tag_38:\n      dup2\n      sload\n      dup2\n      mstore\n      swap1\n      0x01\n      add\n      swap1\n      0x20\n      add\n      dup1\n      dup4\n      gt\n      tag_38\n      jumpi\n      dup3\n      swap1\n      sub\n      0x1f\n      and\n      dup3\n      add\n      swap2\n    tag_36:\n      pop\n      pop\n      pop\n      pop\n      pop\n      swap2\n      pop\n      swap2\n      pop\n      swap2\n      pop\n        /* \"lab 16-08-2023/Heircars.sol\":132:292  function setvalue(string memory _make , uint _model) public  returns (string memory , uint) {... */\n      swap3\n      pop\n      swap3\n      swap1\n      pop\n      jump\t// out\n        /* \"lab 16-08-2023/Heircars.sol\":338:366  uint public  gasTankCapacity */\n    tag_19:\n      sload(0x02)\n      dup2\n      jump\t// out\n        /* \"lab 16-08-2023/Heircars.sol\":87:106  string public  make */\n    tag_22:\n      0x00\n      dup1\n      sload\n      tag_39\n      swap1\n      tag_34\n      jump\t// in\n    tag_39:\n      dup1\n      0x1f\n      add\n      0x20\n      dup1\n      swap2\n      div\n      mul\n      0x20\n      add\n      mload(0x40)\n      swap1\n      dup2\n      add\n      0x40\n      mstore\n      dup1\n      swap3\n      swap2\n      swap1\n      dup2\n      dup2\n      mstore\n      0x20\n      add\n      dup3\n      dup1\n      sload\n      tag_40\n      swap1\n      tag_34\n      jump\t// in\n    tag_40:\n      dup1\n      iszero\n      tag_41\n      jumpi\n      dup1\n      0x1f\n      lt\n      tag_42\n      jumpi\n      0x0100\n      dup1\n      dup4\n      sload\n      div\n      mul\n      dup4\n      mstore\n      swap2\n      0x20\n      add\n      swap2\n      jump(tag_41)\n    tag_42:\n      dup3\n      add\n      swap2\n      swap1\n      0x00\n      mstore\n      keccak256(0x00, 0x20)\n      swap1\n    tag_43:\n      dup2\n      sload\n      dup2\n      mstore\n      swap1\n      0x01\n      add\n      swap1\n      0x20\n      add\n      dup1\n      dup4\n      gt\n      tag_43\n      jumpi\n      dup3\n      swap1\n      sub\n      0x1f\n      and\n      dup3\n      add\n      swap2\n    tag_41:\n      pop\n      pop\n      pop\n      pop\n      pop\n      dup2\n      jump\t// out\n        /* \"lab 16-08-2023/Heircars.sol\":369:498  function setvalue2( uint _gascapac) public  returns ( uint) {... */\n    tag_28:\n        /* \"lab 16-08-2023/Heircars.sol\":423:427  uint */\n      0x00\n        /* \"lab 16-08-2023/Heircars.sol\":454:463  _gascapac */\n      dup2\n        /* \"lab 16-08-2023/Heircars.sol\":436:451  gasTankCapacity */\n      0x02\n        /* \"lab 16-08-2023/Heircars.sol\":436:463  gasTankCapacity = _gascapac */\n      dup2\n      swap1\n      sstore\n      pop\n        /* \"lab 16-08-2023/Heircars.sol\":479:494  gasTankCapacity */\n      sload(0x02)\n        /* \"lab 16-08-2023/Heircars.sol\":472:494  return gasTankCapacity */\n      swap1\n      pop\n        /* \"lab 16-08-2023/Heircars.sol\":369:498  function setvalue2( uint _gascapac) public  returns ( uint) {... */\n      swap2\n      swap1\n      pop\n      jump\t// out\n        /* \"#utility.yul\":7:84   */\n    tag_45:\n        /* \"#utility.yul\":44:51   */\n      0x00\n        /* \"#utility.yul\":73:78   */\n      dup2\n        /* \"#utility.yul\":62:78   */\n      swap1\n      pop\n        /* \"#utility.yul\":7:84   */\n      swap2\n      swap1\n      pop\n      jump\t// out\n        /* \"#utility.yul\":90:208   */\n    tag_46:\n        /* \"#utility.yul\":177:201   */\n      tag_85\n        /* \"#utility.yul\":195:200   */\n      dup2\n        /* \"#utility.yul\":177:201   */\n      tag_45\n      jump\t// in\n    tag_85:\n        /* \"#utility.yul\":172:175   */\n      dup3\n        /* \"#utility.yul\":165:202   */\n      mstore\n        /* \"#utility.yul\":90:208   */\n      pop\n      pop\n      jump\t// out\n        /* \"#utility.yul\":214:436   */\n    tag_11:\n        /* \"#utility.yul\":307:311   */\n      0x00\n        /* \"#utility.yul\":345:347   */\n      0x20\n        /* \"#utility.yul\":334:343   */\n      dup3\n        /* \"#utility.yul\":330:348   */\n      add\n        /* \"#utility.yul\":322:348   */\n      swap1\n      pop\n        /* \"#utility.yul\":358:429   */\n      tag_87\n        /* \"#utility.yul\":426:427   */\n      0x00\n        /* \"#utility.yul\":415:424   */\n      dup4\n        /* \"#utility.yul\":411:428   */\n      add\n        /* \"#utility.yul\":402:408   */\n      dup5\n        /* \"#utility.yul\":358:429   */\n      tag_46\n      jump\t// in\n    tag_87:\n        /* \"#utility.yul\":214:436   */\n      swap3\n      swap2\n      pop\n      pop\n      jump\t// out\n        /* \"#utility.yul\":442:517   */\n    tag_47:\n        /* \"#utility.yul\":475:481   */\n      0x00\n        /* \"#utility.yul\":508:510   */\n      0x40\n        /* \"#utility.yul\":502:511   */\n      mload\n        /* \"#utility.yul\":492:511   */\n      swap1\n      pop\n        /* \"#utility.yul\":442:517   */\n      swap1\n      jump\t// out\n        /* \"#utility.yul\":523:640   */\n    tag_48:\n        /* \"#utility.yul\":632:633   */\n      0x00\n        /* \"#utility.yul\":629:630   */\n      dup1\n        /* \"#utility.yul\":622:634   */\n      revert\n        /* \"#utility.yul\":646:763   */\n    tag_49:\n        /* \"#utility.yul\":755:756   */\n      0x00\n        /* \"#utility.yul\":752:753   */\n      dup1\n        /* \"#utility.yul\":745:757   */\n      revert\n        /* \"#utility.yul\":769:886   */\n    tag_50:\n        /* \"#utility.yul\":878:879   */\n      0x00\n        /* \"#utility.yul\":875:876   */\n      dup1\n        /* \"#utility.yul\":868:880   */\n      revert\n        /* \"#utility.yul\":892:1009   */\n    tag_51:\n        /* \"#utility.yul\":1001:1002   */\n      0x00\n        /* \"#utility.yul\":998:999   */\n      dup1\n        /* \"#utility.yul\":991:1003   */\n      revert\n        /* \"#utility.yul\":1015:1117   */\n    tag_52:\n        /* \"#utility.yul\":1056:1062   */\n      0x00\n        /* \"#utility.yul\":1107:1109   */\n      0x1f\n        /* \"#utility.yul\":1103:1110   */\n      not\n        /* \"#utility.yul\":1098:1100   */\n      0x1f\n        /* \"#utility.yul\":1091:1096   */\n      dup4\n        /* \"#utility.yul\":1087:1101   */\n      add\n        /* \"#utility.yul\":1083:1111   */\n      and\n        /* \"#utility.yul\":1073:1111   */\n      swap1\n      pop\n        /* \"#utility.yul\":1015:1117   */\n      swap2\n      swap1\n      pop\n      jump\t// out\n        /* \"#utility.yul\":1123:1303   */\n    tag_53:\n        /* \"#utility.yul\":1171:1248   */\n      0x4e487b7100000000000000000000000000000000000000000000000000000000\n        /* \"#utility.yul\":1168:1169   */\n      0x00\n        /* \"#utility.yul\":1161:1249   */\n      mstore\n        /* \"#utility.yul\":1268:1272   */\n      0x41\n        /* \"#utility.yul\":1265:1266   */\n      0x04\n        /* \"#utility.yul\":1258:1273   */\n      mstore\n        /* \"#utility.yul\":1292:1296   */\n      0x24\n        /* \"#utility.yul\":1289:1290   */\n      0x00\n        /* \"#utility.yul\":1282:1297   */\n      revert\n        /* \"#utility.yul\":1309:1590   */\n    tag_54:\n        /* \"#utility.yul\":1392:1419   */\n      tag_96\n        /* \"#utility.yul\":1414:1418   */\n      dup3\n        /* \"#utility.yul\":1392:1419   */\n      tag_52\n      jump\t// in\n    tag_96:\n        /* \"#utility.yul\":1384:1390   */\n      dup2\n        /* \"#utility.yul\":1380:1420   */\n      add\n        /* \"#utility.yul\":1522:1528   */\n      dup2\n        /* \"#utility.yul\":1510:1520   */\n      dup2\n        /* \"#utility.yul\":1507:1529   */\n      lt\n        /* \"#utility.yul\":1486:1504   */\n      0xffffffffffffffff\n        /* \"#utility.yul\":1474:1484   */\n      dup3\n        /* \"#utility.yul\":1471:1505   */\n      gt\n        /* \"#utility.yul\":1468:1530   */\n      or\n        /* \"#utility.yul\":1465:1553   */\n      iszero\n      tag_97\n      jumpi\n        /* \"#utility.yul\":1533:1551   */\n      tag_98\n      tag_53\n      jump\t// in\n    tag_98:\n        /* \"#utility.yul\":1465:1553   */\n    tag_97:\n        /* \"#utility.yul\":1573:1583   */\n      dup1\n        /* \"#utility.yul\":1569:1571   */\n      0x40\n        /* \"#utility.yul\":1562:1584   */\n      mstore\n        /* \"#utility.yul\":1352:1590   */\n      pop\n        /* \"#utility.yul\":1309:1590   */\n      pop\n      pop\n      jump\t// out\n        /* \"#utility.yul\":1596:1725   */\n    tag_55:\n        /* \"#utility.yul\":1630:1636   */\n      0x00\n        /* \"#utility.yul\":1657:1677   */\n      tag_100\n      tag_47\n      jump\t// in\n    tag_100:\n        /* \"#utility.yul\":1647:1677   */\n      swap1\n      pop\n        /* \"#utility.yul\":1686:1719   */\n      tag_101\n        /* \"#utility.yul\":1714:1718   */\n      dup3\n        /* \"#utility.yul\":1706:1712   */\n      dup3\n        /* \"#utility.yul\":1686:1719   */\n      tag_54\n      jump\t// in\n    tag_101:\n        /* \"#utility.yul\":1596:1725   */\n      swap2\n      swap1\n      pop\n      jump\t// out\n        /* \"#utility.yul\":1731:2039   */\n    tag_56:\n        /* \"#utility.yul\":1793:1797   */\n      0x00\n        /* \"#utility.yul\":1883:1901   */\n      0xffffffffffffffff\n        /* \"#utility.yul\":1875:1881   */\n      dup3\n        /* \"#utility.yul\":1872:1902   */\n      gt\n        /* \"#utility.yul\":1869:1925   */\n      iszero\n      tag_103\n      jumpi\n        /* \"#utility.yul\":1905:1923   */\n      tag_104\n      tag_53\n      jump\t// in\n    tag_104:\n        /* \"#utility.yul\":1869:1925   */\n    tag_103:\n        /* \"#utility.yul\":1943:1972   */\n      tag_105\n        /* \"#utility.yul\":1965:1971   */\n      dup3\n        /* \"#utility.yul\":1943:1972   */\n      tag_52\n      jump\t// in\n    tag_105:\n        /* \"#utility.yul\":1935:1972   */\n      swap1\n      pop\n        /* \"#utility.yul\":2027:2031   */\n      0x20\n        /* \"#utility.yul\":2021:2025   */\n      dup2\n        /* \"#utility.yul\":2017:2032   */\n      add\n        /* \"#utility.yul\":2009:2032   */\n      swap1\n      pop\n        /* \"#utility.yul\":1731:2039   */\n      swap2\n      swap1\n      pop\n      jump\t// out\n        /* \"#utility.yul\":2045:2191   */\n    tag_57:\n        /* \"#utility.yul\":2142:2148   */\n      dup3\n        /* \"#utility.yul\":2137:2140   */\n      dup2\n        /* \"#utility.yul\":2132:2135   */\n      dup4\n        /* \"#utility.yul\":2119:2149   */\n      calldatacopy\n        /* \"#utility.yul\":2183:2184   */\n      0x00\n        /* \"#utility.yul\":2174:2180   */\n      dup4\n        /* \"#utility.yul\":2169:2172   */\n      dup4\n        /* \"#utility.yul\":2165:2181   */\n      add\n        /* \"#utility.yul\":2158:2185   */\n      mstore\n        /* \"#utility.yul\":2045:2191   */\n      pop\n      pop\n      pop\n      jump\t// out\n        /* \"#utility.yul\":2197:2622   */\n    tag_58:\n        /* \"#utility.yul\":2275:2280   */\n      0x00\n        /* \"#utility.yul\":2300:2366   */\n      tag_108\n        /* \"#utility.yul\":2316:2365   */\n      tag_109\n        /* \"#utility.yul\":2358:2364   */\n      dup5\n        /* \"#utility.yul\":2316:2365   */\n      tag_56\n      jump\t// in\n    tag_109:\n        /* \"#utility.yul\":2300:2366   */\n      tag_55\n      jump\t// in\n    tag_108:\n        /* \"#utility.yul\":2291:2366   */\n      swap1\n      pop\n        /* \"#utility.yul\":2389:2395   */\n      dup3\n        /* \"#utility.yul\":2382:2387   */\n      dup2\n        /* \"#utility.yul\":2375:2396   */\n      mstore\n        /* \"#utility.yul\":2427:2431   */\n      0x20\n        /* \"#utility.yul\":2420:2425   */\n      dup2\n        /* \"#utility.yul\":2416:2432   */\n      add\n        /* \"#utility.yul\":2465:2468   */\n      dup5\n        /* \"#utility.yul\":2456:2462   */\n      dup5\n        /* \"#utility.yul\":2451:2454   */\n      dup5\n        /* \"#utility.yul\":2447:2463   */\n      add\n        /* \"#utility.yul\":2444:2469   */\n      gt\n        /* \"#utility.yul\":2441:2553   */\n      iszero\n      tag_110\n      jumpi\n        /* \"#utility.yul\":2472:2551   */\n      tag_111\n      tag_51\n      jump\t// in\n    tag_111:\n        /* \"#utility.yul\":2441:2553   */\n    tag_110:\n        /* \"#utility.yul\":2562:2616   */\n      tag_112\n        /* \"#utility.yul\":2609:2615   */\n      dup5\n        /* \"#utility.yul\":2604:2607   */\n      dup3\n        /* \"#utility.yul\":2599:2602   */\n      dup6\n        /* \"#utility.yul\":2562:2616   */\n      tag_57\n      jump\t// in\n    tag_112:\n        /* \"#utility.yul\":2281:2622   */\n      pop\n        /* \"#utility.yul\":2197:2622   */\n      swap4\n      swap3\n      pop\n      pop\n      pop\n      jump\t// out\n        /* \"#utility.yul\":2642:2982   */\n    tag_59:\n        /* \"#utility.yul\":2698:2703   */\n      0x00\n        /* \"#utility.yul\":2747:2750   */\n      dup3\n        /* \"#utility.yul\":2740:2744   */\n      0x1f\n        /* \"#utility.yul\":2732:2738   */\n      dup4\n        /* \"#utility.yul\":2728:2745   */\n      add\n        /* \"#utility.yul\":2724:2751   */\n      slt\n        /* \"#utility.yul\":2714:2836   */\n      tag_114\n      jumpi\n        /* \"#utility.yul\":2755:2834   */\n      tag_115\n      tag_50\n      jump\t// in\n    tag_115:\n        /* \"#utility.yul\":2714:2836   */\n    tag_114:\n        /* \"#utility.yul\":2872:2878   */\n      dup2\n        /* \"#utility.yul\":2859:2879   */\n      calldataload\n        /* \"#utility.yul\":2897:2976   */\n      tag_116\n        /* \"#utility.yul\":2972:2975   */\n      dup5\n        /* \"#utility.yul\":2964:2970   */\n      dup3\n        /* \"#utility.yul\":2957:2961   */\n      0x20\n        /* \"#utility.yul\":2949:2955   */\n      dup7\n        /* \"#utility.yul\":2945:2962   */\n      add\n        /* \"#utility.yul\":2897:2976   */\n      tag_58\n      jump\t// in\n    tag_116:\n        /* \"#utility.yul\":2888:2976   */\n      swap2\n      pop\n        /* \"#utility.yul\":2704:2982   */\n      pop\n        /* \"#utility.yul\":2642:2982   */\n      swap3\n      swap2\n      pop\n      pop\n      jump\t// out\n        /* \"#utility.yul\":2988:3110   */\n    tag_60:\n        /* \"#utility.yul\":3061:3085   */\n      tag_118\n        /* \"#utility.yul\":3079:3084   */\n      dup2\n        /* \"#utility.yul\":3061:3085   */\n      tag_45\n      jump\t// in\n    tag_118:\n        /* \"#utility.yul\":3054:3059   */\n      dup2\n        /* \"#utility.yul\":3051:3086   */\n      eq\n        /* \"#utility.yul\":3041:3104   */\n      tag_119\n      jumpi\n        /* \"#utility.yul\":3100:3101   */\n      0x00\n        /* \"#utility.yul\":3097:3098   */\n      dup1\n        /* \"#utility.yul\":3090:3102   */\n      revert\n        /* \"#utility.yul\":3041:3104   */\n    tag_119:\n        /* \"#utility.yul\":2988:3110   */\n      pop\n      jump\t// out\n        /* \"#utility.yul\":3116:3255   */\n    tag_61:\n        /* \"#utility.yul\":3162:3167   */\n      0x00\n        /* \"#utility.yul\":3200:3206   */\n      dup2\n        /* \"#utility.yul\":3187:3207   */\n      calldataload\n        /* \"#utility.yul\":3178:3207   */\n      swap1\n      pop\n        /* \"#utility.yul\":3216:3249   */\n      tag_121\n        /* \"#utility.yul\":3243:3248   */\n      dup2\n        /* \"#utility.yul\":3216:3249   */\n      tag_60\n      jump\t// in\n    tag_121:\n        /* \"#utility.yul\":3116:3255   */\n      swap3\n      swap2\n      pop\n      pop\n      jump\t// out\n        /* \"#utility.yul\":3261:3915   */\n    tag_14:\n        /* \"#utility.yul\":3339:3345   */\n      0x00\n        /* \"#utility.yul\":3347:3353   */\n      dup1\n        /* \"#utility.yul\":3396:3398   */\n      0x40\n        /* \"#utility.yul\":3384:3393   */\n      dup4\n        /* \"#utility.yul\":3375:3382   */\n      dup6\n        /* \"#utility.yul\":3371:3394   */\n      sub\n        /* \"#utility.yul\":3367:3399   */\n      slt\n        /* \"#utility.yul\":3364:3483   */\n      iszero\n      tag_123\n      jumpi\n        /* \"#utility.yul\":3402:3481   */\n      tag_124\n      tag_48\n      jump\t// in\n    tag_124:\n        /* \"#utility.yul\":3364:3483   */\n    tag_123:\n        /* \"#utility.yul\":3550:3551   */\n      0x00\n        /* \"#utility.yul\":3539:3548   */\n      dup4\n        /* \"#utility.yul\":3535:3552   */\n      add\n        /* \"#utility.yul\":3522:3553   */\n      calldataload\n        /* \"#utility.yul\":3580:3598   */\n      0xffffffffffffffff\n        /* \"#utility.yul\":3572:3578   */\n      dup2\n        /* \"#utility.yul\":3569:3599   */\n      gt\n        /* \"#utility.yul\":3566:3683   */\n      iszero\n      tag_125\n      jumpi\n        /* \"#utility.yul\":3602:3681   */\n      tag_126\n      tag_49\n      jump\t// in\n    tag_126:\n        /* \"#utility.yul\":3566:3683   */\n    tag_125:\n        /* \"#utility.yul\":3707:3770   */\n      tag_127\n        /* \"#utility.yul\":3762:3769   */\n      dup6\n        /* \"#utility.yul\":3753:3759   */\n      dup3\n        /* \"#utility.yul\":3742:3751   */\n      dup7\n        /* \"#utility.yul\":3738:3760   */\n      add\n        /* \"#utility.yul\":3707:3770   */\n      tag_59\n      jump\t// in\n    tag_127:\n        /* \"#utility.yul\":3697:3770   */\n      swap3\n      pop\n        /* \"#utility.yul\":3493:3780   */\n      pop\n        /* \"#utility.yul\":3819:3821   */\n      0x20\n        /* \"#utility.yul\":3845:3898   */\n      tag_128\n        /* \"#utility.yul\":3890:3897   */\n      dup6\n        /* \"#utility.yul\":3881:3887   */\n      dup3\n        /* \"#utility.yul\":3870:3879   */\n      dup7\n        /* \"#utility.yul\":3866:3888   */\n      add\n        /* \"#utility.yul\":3845:3898   */\n      tag_61\n      jump\t// in\n    tag_128:\n        /* \"#utility.yul\":3835:3898   */\n      swap2\n      pop\n        /* \"#utility.yul\":3790:3908   */\n      pop\n        /* \"#utility.yul\":3261:3915   */\n      swap3\n      pop\n      swap3\n      swap1\n      pop\n      jump\t// out\n        /* \"#utility.yul\":3921:4020   */\n    tag_62:\n        /* \"#utility.yul\":3973:3979   */\n      0x00\n        /* \"#utility.yul\":4007:4012   */\n      dup2\n        /* \"#utility.yul\":4001:4013   */\n      mload\n        /* \"#utility.yul\":3991:4013   */\n      swap1\n      pop\n        /* \"#utility.yul\":3921:4020   */\n      swap2\n      swap1\n      pop\n      jump\t// out\n        /* \"#utility.yul\":4026:4195   */\n    tag_63:\n        /* \"#utility.yul\":4110:4121   */\n      0x00\n        /* \"#utility.yul\":4144:4150   */\n      dup3\n        /* \"#utility.yul\":4139:4142   */\n      dup3\n        /* \"#utility.yul\":4132:4151   */\n      mstore\n        /* \"#utility.yul\":4184:4188   */\n      0x20\n        /* \"#utility.yul\":4179:4182   */\n      dup3\n        /* \"#utility.yul\":4175:4189   */\n      add\n        /* \"#utility.yul\":4160:4189   */\n      swap1\n      pop\n        /* \"#utility.yul\":4026:4195   */\n      swap3\n      swap2\n      pop\n      pop\n      jump\t// out\n        /* \"#utility.yul\":4201:4447   */\n    tag_64:\n        /* \"#utility.yul\":4282:4283   */\n      0x00\n        /* \"#utility.yul\":4292:4405   */\n    tag_132:\n        /* \"#utility.yul\":4306:4312   */\n      dup4\n        /* \"#utility.yul\":4303:4304   */\n      dup2\n        /* \"#utility.yul\":4300:4313   */\n      lt\n        /* \"#utility.yul\":4292:4405   */\n      iszero\n      tag_134\n      jumpi\n        /* \"#utility.yul\":4391:4392   */\n      dup1\n        /* \"#utility.yul\":4386:4389   */\n      dup3\n        /* \"#utility.yul\":4382:4393   */\n      add\n        /* \"#utility.yul\":4376:4394   */\n      mload\n        /* \"#utility.yul\":4372:4373   */\n      dup2\n        /* \"#utility.yul\":4367:4370   */\n      dup5\n        /* \"#utility.yul\":4363:4374   */\n      add\n        /* \"#utility.yul\":4356:4395   */\n      mstore\n        /* \"#utility.yul\":4328:4330   */\n      0x20\n        /* \"#utility.yul\":4325:4326   */\n      dup2\n        /* \"#utility.yul\":4321:4331   */\n      add\n        /* \"#utility.yul\":4316:4331   */\n      swap1\n      pop\n        /* \"#utility.yul\":4292:4405   */\n      jump(tag_132)\n    tag_134:\n        /* \"#utility.yul\":4439:4440   */\n      0x00\n        /* \"#utility.yul\":4430:4436   */\n      dup5\n        /* \"#utility.yul\":4425:4428   */\n      dup5\n        /* \"#utility.yul\":4421:4437   */\n      add\n        /* \"#utility.yul\":4414:4441   */\n      mstore\n        /* \"#utility.yul\":4263:4447   */\n      pop\n        /* \"#utility.yul\":4201:4447   */\n      pop\n      pop\n      pop\n      jump\t// out\n        /* \"#utility.yul\":4453:4830   */\n    tag_65:\n        /* \"#utility.yul\":4541:4544   */\n      0x00\n        /* \"#utility.yul\":4569:4608   */\n      tag_136\n        /* \"#utility.yul\":4602:4607   */\n      dup3\n        /* \"#utility.yul\":4569:4608   */\n      tag_62\n      jump\t// in\n    tag_136:\n        /* \"#utility.yul\":4624:4695   */\n      tag_137\n        /* \"#utility.yul\":4688:4694   */\n      dup2\n        /* \"#utility.yul\":4683:4686   */\n      dup6\n        /* \"#utility.yul\":4624:4695   */\n      tag_63\n      jump\t// in\n    tag_137:\n        /* \"#utility.yul\":4617:4695   */\n      swap4\n      pop\n        /* \"#utility.yul\":4704:4769   */\n      tag_138\n        /* \"#utility.yul\":4762:4768   */\n      dup2\n        /* \"#utility.yul\":4757:4760   */\n      dup6\n        /* \"#utility.yul\":4750:4754   */\n      0x20\n        /* \"#utility.yul\":4743:4748   */\n      dup7\n        /* \"#utility.yul\":4739:4755   */\n      add\n        /* \"#utility.yul\":4704:4769   */\n      tag_64\n      jump\t// in\n    tag_138:\n        /* \"#utility.yul\":4794:4823   */\n      tag_139\n        /* \"#utility.yul\":4816:4822   */\n      dup2\n        /* \"#utility.yul\":4794:4823   */\n      tag_52\n      jump\t// in\n    tag_139:\n        /* \"#utility.yul\":4789:4792   */\n      dup5\n        /* \"#utility.yul\":4785:4824   */\n      add\n        /* \"#utility.yul\":4778:4824   */\n      swap2\n      pop\n        /* \"#utility.yul\":4545:4830   */\n      pop\n        /* \"#utility.yul\":4453:4830   */\n      swap3\n      swap2\n      pop\n      pop\n      jump\t// out\n        /* \"#utility.yul\":4836:5259   */\n    tag_17:\n        /* \"#utility.yul\":4977:4981   */\n      0x00\n        /* \"#utility.yul\":5015:5017   */\n      0x40\n        /* \"#utility.yul\":5004:5013   */\n      dup3\n        /* \"#utility.yul\":5000:5018   */\n      add\n        /* \"#utility.yul\":4992:5018   */\n      swap1\n      pop\n        /* \"#utility.yul\":5064:5073   */\n      dup2\n        /* \"#utility.yul\":5058:5062   */\n      dup2\n        /* \"#utility.yul\":5054:5074   */\n      sub\n        /* \"#utility.yul\":5050:5051   */\n      0x00\n        /* \"#utility.yul\":5039:5048   */\n      dup4\n        /* \"#utility.yul\":5035:5052   */\n      add\n        /* \"#utility.yul\":5028:5075   */\n      mstore\n        /* \"#utility.yul\":5092:5170   */\n      tag_141\n        /* \"#utility.yul\":5165:5169   */\n      dup2\n        /* \"#utility.yul\":5156:5162   */\n      dup6\n        /* \"#utility.yul\":5092:5170   */\n      tag_65\n      jump\t// in\n    tag_141:\n        /* \"#utility.yul\":5084:5170   */\n      swap1\n      pop\n        /* \"#utility.yul\":5180:5252   */\n      tag_142\n        /* \"#utility.yul\":5248:5250   */\n      0x20\n        /* \"#utility.yul\":5237:5246   */\n      dup4\n        /* \"#utility.yul\":5233:5251   */\n      add\n        /* \"#utility.yul\":5224:5230   */\n      dup5\n        /* \"#utility.yul\":5180:5252   */\n      tag_46\n      jump\t// in\n    tag_142:\n        /* \"#utility.yul\":4836:5259   */\n      swap4\n      swap3\n      pop\n      pop\n      pop\n      jump\t// out\n        /* \"#utility.yul\":5265:5578   */\n    tag_24:\n        /* \"#utility.yul\":5378:5382   */\n      0x00\n        /* \"#utility.yul\":5416:5418   */\n      0x20\n        /* \"#utility.yul\":5405:5414   */\n      dup3\n        /* \"#utility.yul\":5401:5419   */\n      add\n        /* \"#utility.yul\":5393:5419   */\n      swap1\n      pop\n        /* \"#utility.yul\":5465:5474   */\n      dup2\n        /* \"#utility.yul\":5459:5463   */\n      dup2\n        /* \"#utility.yul\":5455:5475   */\n      sub\n        /* \"#utility.yul\":5451:5452   */\n      0x00\n        /* \"#utility.yul\":5440:5449   */\n      dup4\n        /* \"#utility.yul\":5436:5453   */\n      add\n        /* \"#utility.yul\":5429:5476   */\n      mstore\n        /* \"#utility.yul\":5493:5571   */\n      tag_144\n        /* \"#utility.yul\":5566:5570   */\n      dup2\n        /* \"#utility.yul\":5557:5563   */\n      dup5\n        /* \"#utility.yul\":5493:5571   */\n      tag_65\n      jump\t// in\n    tag_144:\n        /* \"#utility.yul\":5485:5571   */\n      swap1\n      pop\n        /* \"#utility.yul\":5265:5578   */\n      swap3\n      swap2\n      pop\n      pop\n      jump\t// out\n        /* \"#utility.yul\":5584:5913   */\n    tag_27:\n        /* \"#utility.yul\":5643:5649   */\n      0x00\n        /* \"#utility.yul\":5692:5694   */\n      0x20\n        /* \"#utility.yul\":5680:5689   */\n      dup3\n        /* \"#utility.yul\":5671:5678   */\n      dup5\n        /* \"#utility.yul\":5667:5690   */\n      sub\n        /* \"#utility.yul\":5663:5695   */\n      slt\n        /* \"#utility.yul\":5660:5779   */\n      iszero\n      tag_146\n      jumpi\n        /* \"#utility.yul\":5698:5777   */\n      tag_147\n      tag_48\n      jump\t// in\n    tag_147:\n        /* \"#utility.yul\":5660:5779   */\n    tag_146:\n        /* \"#utility.yul\":5818:5819   */\n      0x00\n        /* \"#utility.yul\":5843:5896   */\n      tag_148\n        /* \"#utility.yul\":5888:5895   */\n      dup5\n        /* \"#utility.yul\":5879:5885   */\n      dup3\n        /* \"#utility.yul\":5868:5877   */\n      dup6\n        /* \"#utility.yul\":5864:5886   */\n      add\n        /* \"#utility.yul\":5843:5896   */\n      tag_61\n      jump\t// in\n    tag_148:\n        /* \"#utility.yul\":5833:5896   */\n      swap2\n      pop\n        /* \"#utility.yul\":5789:5906   */\n      pop\n        /* \"#utility.yul\":5584:5913   */\n      swap3\n      swap2\n      pop\n      pop\n      jump\t// out\n        /* \"#utility.yul\":5919:6099   */\n    tag_66:\n        /* \"#utility.yul\":5967:6044   */\n      0x4e487b7100000000000000000000000000000000000000000000000000000000\n        /* \"#utility.yul\":5964:5965   */\n      0x00\n        /* \"#utility.yul\":5957:6045   */\n      mstore\n        /* \"#utility.yul\":6064:6068   */\n      0x22\n        /* \"#utility.yul\":6061:6062   */\n      0x04\n        /* \"#utility.yul\":6054:6069   */\n      mstore\n        /* \"#utility.yul\":6088:6092   */\n      0x24\n        /* \"#utility.yul\":6085:6086   */\n      0x00\n        /* \"#utility.yul\":6078:6093   */\n      revert\n        /* \"#utility.yul\":6105:6425   */\n    tag_34:\n        /* \"#utility.yul\":6149:6155   */\n      0x00\n        /* \"#utility.yul\":6186:6187   */\n      0x02\n        /* \"#utility.yul\":6180:6184   */\n      dup3\n        /* \"#utility.yul\":6176:6188   */\n      div\n        /* \"#utility.yul\":6166:6188   */\n      swap1\n      pop\n        /* \"#utility.yul\":6233:6234   */\n      0x01\n        /* \"#utility.yul\":6227:6231   */\n      dup3\n        /* \"#utility.yul\":6223:6235   */\n      and\n        /* \"#utility.yul\":6254:6272   */\n      dup1\n        /* \"#utility.yul\":6244:6325   */\n      tag_151\n      jumpi\n        /* \"#utility.yul\":6310:6314   */\n      0x7f\n        /* \"#utility.yul\":6302:6308   */\n      dup3\n        /* \"#utility.yul\":6298:6315   */\n      and\n        /* \"#utility.yul\":6288:6315   */\n      swap2\n      pop\n        /* \"#utility.yul\":6244:6325   */\n    tag_151:\n        /* \"#utility.yul\":6372:6374   */\n      0x20\n        /* \"#utility.yul\":6364:6370   */\n      dup3\n        /* \"#utility.yul\":6361:6375   */\n      lt\n        /* \"#utility.yul\":6341:6359   */\n      dup2\n        /* \"#utility.yul\":6338:6376   */\n      sub\n        /* \"#utility.yul\":6335:6419   */\n      tag_152\n      jumpi\n        /* \"#utility.yul\":6391:6409   */\n      tag_153\n      tag_66\n      jump\t// in\n    tag_153:\n        /* \"#utility.yul\":6335:6419   */\n    tag_152:\n        /* \"#utility.yul\":6156:6425   */\n      pop\n        /* \"#utility.yul\":6105:6425   */\n      swap2\n      swap1\n      pop\n      jump\t// out\n        /* \"#utility.yul\":6431:6572   */\n    tag_67:\n        /* \"#utility.yul\":6480:6484   */\n      0x00\n        /* \"#utility.yul\":6503:6506   */\n      dup2\n        /* \"#utility.yul\":6495:6506   */\n      swap1\n      pop\n        /* \"#utility.yul\":6526:6529   */\n      dup2\n        /* \"#utility.yul\":6523:6524   */\n      0x00\n        /* \"#utility.yul\":6516:6530   */\n      mstore\n        /* \"#utility.yul\":6560:6564   */\n      0x20\n        /* \"#utility.yul\":6557:6558   */\n      0x00\n        /* \"#utility.yul\":6547:6565   */\n      keccak256\n        /* \"#utility.yul\":6539:6565   */\n      swap1\n      pop\n        /* \"#utility.yul\":6431:6572   */\n      swap2\n      swap1\n      pop\n      jump\t// out\n        /* \"#utility.yul\":6578:6671   */\n    tag_68:\n        /* \"#utility.yul\":6615:6621   */\n      0x00\n        /* \"#utility.yul\":6662:6664   */\n      0x20\n        /* \"#utility.yul\":6657:6659   */\n      0x1f\n        /* \"#utility.yul\":6650:6655   */\n      dup4\n        /* \"#utility.yul\":6646:6660   */\n      add\n        /* \"#utility.yul\":6642:6665   */\n      div\n        /* \"#utility.yul\":6632:6665   */\n      swap1\n      pop\n        /* \"#utility.yul\":6578:6671   */\n      swap2\n      swap1\n      pop\n      jump\t// out\n        /* \"#utility.yul\":6677:6784   */\n    tag_69:\n        /* \"#utility.yul\":6721:6729   */\n      0x00\n        /* \"#utility.yul\":6771:6776   */\n      dup3\n        /* \"#utility.yul\":6765:6769   */\n      dup3\n        /* \"#utility.yul\":6761:6777   */\n      shl\n        /* \"#utility.yul\":6740:6777   */\n      swap1\n      pop\n        /* \"#utility.yul\":6677:6784   */\n      swap3\n      swap2\n      pop\n      pop\n      jump\t// out\n        /* \"#utility.yul\":6790:7183   */\n    tag_70:\n        /* \"#utility.yul\":6859:6865   */\n      0x00\n        /* \"#utility.yul\":6909:6910   */\n      0x08\n        /* \"#utility.yul\":6897:6907   */\n      dup4\n        /* \"#utility.yul\":6893:6911   */\n      mul\n        /* \"#utility.yul\":6932:7029   */\n      tag_158\n        /* \"#utility.yul\":6962:7028   */\n      0xffffffffffffffffffffffffffffffffffffffffffffffffffffffffffffffff\n        /* \"#utility.yul\":6951:6960   */\n      dup3\n        /* \"#utility.yul\":6932:7029   */\n      tag_69\n      jump\t// in\n    tag_158:\n        /* \"#utility.yul\":7050:7089   */\n      tag_159\n        /* \"#utility.yul\":7080:7088   */\n      dup7\n        /* \"#utility.yul\":7069:7078   */\n      dup4\n        /* \"#utility.yul\":7050:7089   */\n      tag_69\n      jump\t// in\n    tag_159:\n        /* \"#utility.yul\":7038:7089   */\n      swap6\n      pop\n        /* \"#utility.yul\":7122:7126   */\n      dup1\n        /* \"#utility.yul\":7118:7127   */\n      not\n        /* \"#utility.yul\":7111:7116   */\n      dup5\n        /* \"#utility.yul\":7107:7128   */\n      and\n        /* \"#utility.yul\":7098:7128   */\n      swap4\n      pop\n        /* \"#utility.yul\":7171:7175   */\n      dup1\n        /* \"#utility.yul\":7161:7169   */\n      dup7\n        /* \"#utility.yul\":7157:7176   */\n      and\n        /* \"#utility.yul\":7150:7155   */\n      dup5\n        /* \"#utility.yul\":7147:7177   */\n      or\n        /* \"#utility.yul\":7137:7177   */\n      swap3\n      pop\n        /* \"#utility.yul\":6866:7183   */\n      pop\n      pop\n        /* \"#utility.yul\":6790:7183   */\n      swap4\n      swap3\n      pop\n      pop\n      pop\n      jump\t// out\n        /* \"#utility.yul\":7189:7249   */\n    tag_71:\n        /* \"#utility.yul\":7217:7220   */\n      0x00\n        /* \"#utility.yul\":7238:7243   */\n      dup2\n        /* \"#utility.yul\":7231:7243   */\n      swap1\n      pop\n        /* \"#utility.yul\":7189:7249   */\n      swap2\n      swap1\n      pop\n      jump\t// out\n        /* \"#utility.yul\":7255:7397   */\n    tag_72:\n        /* \"#utility.yul\":7305:7314   */\n      0x00\n        /* \"#utility.yul\":7338:7391   */\n      tag_162\n        /* \"#utility.yul\":7356:7390   */\n      tag_163\n        /* \"#utility.yul\":7365:7389   */\n      tag_164\n        /* \"#utility.yul\":7383:7388   */\n      dup5\n        /* \"#utility.yul\":7365:7389   */\n      tag_45\n      jump\t// in\n    tag_164:\n        /* \"#utility.yul\":7356:7390   */\n      tag_71\n      jump\t// in\n    tag_163:\n        /* \"#utility.yul\":7338:7391   */\n      tag_45\n      jump\t// in\n    tag_162:\n        /* \"#utility.yul\":7325:7391   */\n      swap1\n      pop\n        /* \"#utility.yul\":7255:7397   */\n      swap2\n      swap1\n      pop\n      jump\t// out\n        /* \"#utility.yul\":7403:7478   */\n    tag_73:\n        /* \"#utility.yul\":7446:7449   */\n      0x00\n        /* \"#utility.yul\":7467:7472   */\n      dup2\n        /* \"#utility.yul\":7460:7472   */\n      swap1\n      pop\n        /* \"#utility.yul\":7403:7478   */\n      swap2\n      swap1\n      pop\n      jump\t// out\n        /* \"#utility.yul\":7484:7753   */\n    tag_74:\n        /* \"#utility.yul\":7594:7633   */\n      tag_167\n        /* \"#utility.yul\":7625:7632   */\n      dup4\n        /* \"#utility.yul\":7594:7633   */\n      tag_72\n      jump\t// in\n    tag_167:\n        /* \"#utility.yul\":7655:7746   */\n      tag_168\n        /* \"#utility.yul\":7704:7745   */\n      tag_169\n        /* \"#utility.yul\":7728:7744   */\n      dup3\n        /* \"#utility.yul\":7704:7745   */\n      tag_73\n      jump\t// in\n    tag_169:\n        /* \"#utility.yul\":7696:7702   */\n      dup5\n        /* \"#utility.yul\":7689:7693   */\n      dup5\n        /* \"#utility.yul\":7683:7694   */\n      sload\n        /* \"#utility.yul\":7655:7746   */\n      tag_70\n      jump\t// in\n    tag_168:\n        /* \"#utility.yul\":7649:7653   */\n      dup3\n        /* \"#utility.yul\":7642:7747   */\n      sstore\n        /* \"#utility.yul\":7560:7753   */\n      pop\n        /* \"#utility.yul\":7484:7753   */\n      pop\n      pop\n      pop\n      jump\t// out\n        /* \"#utility.yul\":7759:7832   */\n    tag_75:\n        /* \"#utility.yul\":7804:7807   */\n      0x00\n        /* \"#utility.yul\":7759:7832   */\n      swap1\n      jump\t// out\n        /* \"#utility.yul\":7838:8027   */\n    tag_76:\n        /* \"#utility.yul\":7915:7947   */\n      tag_172\n      tag_75\n      jump\t// in\n    tag_172:\n        /* \"#utility.yul\":7956:8021   */\n      tag_173\n        /* \"#utility.yul\":8014:8020   */\n      dup2\n        /* \"#utility.yul\":8006:8012   */\n      dup5\n        /* \"#utility.yul\":8000:8004   */\n      dup5\n        /* \"#utility.yul\":7956:8021   */\n      tag_74\n      jump\t// in\n    tag_173:\n        /* \"#utility.yul\":7891:8027   */\n      pop\n        /* \"#utility.yul\":7838:8027   */\n      pop\n      pop\n      jump\t// out\n        /* \"#utility.yul\":8033:8219   */\n    tag_77:\n        /* \"#utility.yul\":8093:8213   */\n    tag_175:\n        /* \"#utility.yul\":8110:8113   */\n      dup2\n        /* \"#utility.yul\":8103:8108   */\n      dup2\n        /* \"#utility.yul\":8100:8114   */\n      lt\n        /* \"#utility.yul\":8093:8213   */\n      iszero\n      tag_177\n      jumpi\n        /* \"#utility.yul\":8164:8203   */\n      tag_178\n        /* \"#utility.yul\":8201:8202   */\n      0x00\n        /* \"#utility.yul\":8194:8199   */\n      dup3\n        /* \"#utility.yul\":8164:8203   */\n      tag_76\n      jump\t// in\n    tag_178:\n        /* \"#utility.yul\":8137:8138   */\n      0x01\n        /* \"#utility.yul\":8130:8135   */\n      dup2\n        /* \"#utility.yul\":8126:8139   */\n      add\n        /* \"#utility.yul\":8117:8139   */\n      swap1\n      pop\n        /* \"#utility.yul\":8093:8213   */\n      jump(tag_175)\n    tag_177:\n        /* \"#utility.yul\":8033:8219   */\n      pop\n      pop\n      jump\t// out\n        /* \"#utility.yul\":8225:8768   */\n    tag_78:\n        /* \"#utility.yul\":8326:8328   */\n      0x1f\n        /* \"#utility.yul\":8321:8324   */\n      dup3\n        /* \"#utility.yul\":8318:8329   */\n      gt\n        /* \"#utility.yul\":8315:8761   */\n      iszero\n      tag_180\n      jumpi\n        /* \"#utility.yul\":8360:8398   */\n      tag_181\n        /* \"#utility.yul\":8392:8397   */\n      dup2\n        /* \"#utility.yul\":8360:8398   */\n      tag_67\n      jump\t// in\n    tag_181:\n        /* \"#utility.yul\":8444:8473   */\n      tag_182\n        /* \"#utility.yul\":8462:8472   */\n      dup5\n        /* \"#utility.yul\":8444:8473   */\n      tag_68\n      jump\t// in\n    tag_182:\n        /* \"#utility.yul\":8434:8442   */\n      dup2\n        /* \"#utility.yul\":8430:8474   */\n      add\n        /* \"#utility.yul\":8627:8629   */\n      0x20\n        /* \"#utility.yul\":8615:8625   */\n      dup6\n        /* \"#utility.yul\":8612:8630   */\n      lt\n        /* \"#utility.yul\":8609:8658   */\n      iszero\n      tag_183\n      jumpi\n        /* \"#utility.yul\":8648:8656   */\n      dup2\n        /* \"#utility.yul\":8633:8656   */\n      swap1\n      pop\n        /* \"#utility.yul\":8609:8658   */\n    tag_183:\n        /* \"#utility.yul\":8671:8751   */\n      tag_184\n        /* \"#utility.yul\":8727:8749   */\n      tag_185\n        /* \"#utility.yul\":8745:8748   */\n      dup6\n        /* \"#utility.yul\":8727:8749   */\n      tag_68\n      jump\t// in\n    tag_185:\n        /* \"#utility.yul\":8717:8725   */\n      dup4\n        /* \"#utility.yul\":8713:8750   */\n      add\n        /* \"#utility.yul\":8700:8711   */\n      dup3\n        /* \"#utility.yul\":8671:8751   */\n      tag_77\n      jump\t// in\n    tag_184:\n        /* \"#utility.yul\":8330:8761   */\n      pop\n      pop\n        /* \"#utility.yul\":8315:8761   */\n    tag_180:\n        /* \"#utility.yul\":8225:8768   */\n      pop\n      pop\n      pop\n      jump\t// out\n        /* \"#utility.yul\":8774:8891   */\n    tag_79:\n        /* \"#utility.yul\":8828:8836   */\n      0x00\n        /* \"#utility.yul\":8878:8883   */\n      dup3\n        /* \"#utility.yul\":8872:8876   */\n      dup3\n        /* \"#utility.yul\":8868:8884   */\n      shr\n        /* \"#utility.yul\":8847:8884   */\n      swap1\n      pop\n        /* \"#utility.yul\":8774:8891   */\n      swap3\n      swap2\n      pop\n      pop\n      jump\t// out\n        /* \"#utility.yul\":8897:9066   */\n    tag_80:\n        /* \"#utility.yul\":8941:8947   */\n      0x00\n        /* \"#utility.yul\":8974:9025   */\n      tag_188\n        /* \"#utility.yul\":9022:9023   */\n      0x00\n        /* \"#utility.yul\":9018:9024   */\n      not\n        /* \"#utility.yul\":9010:9015   */\n      dup5\n        /* \"#utility.yul\":9007:9008   */\n      0x08\n        /* \"#utility.yul\":9003:9016   */\n      mul\n        /* \"#utility.yul\":8974:9025   */\n      tag_79\n      jump\t// in\n    tag_188:\n        /* \"#utility.yul\":8970:9026   */\n      not\n        /* \"#utility.yul\":9055:9059   */\n      dup1\n        /* \"#utility.yul\":9049:9053   */\n      dup4\n        /* \"#utility.yul\":9045:9060   */\n      and\n        /* \"#utility.yul\":9035:9060   */\n      swap2\n      pop\n        /* \"#utility.yul\":8948:9066   */\n      pop\n        /* \"#utility.yul\":8897:9066   */\n      swap3\n      swap2\n      pop\n      pop\n      jump\t// out\n        /* \"#utility.yul\":9071:9366   */\n    tag_81:\n        /* \"#utility.yul\":9147:9151   */\n      0x00\n        /* \"#utility.yul\":9293:9322   */\n      tag_190\n        /* \"#utility.yul\":9318:9321   */\n      dup4\n        /* \"#utility.yul\":9312:9316   */\n      dup4\n        /* \"#utility.yul\":9293:9322   */\n      tag_80\n      jump\t// in\n    tag_190:\n        /* \"#utility.yul\":9285:9322   */\n      swap2\n      pop\n        /* \"#utility.yul\":9355:9358   */\n      dup3\n        /* \"#utility.yul\":9352:9353   */\n      0x02\n        /* \"#utility.yul\":9348:9359   */\n      mul\n        /* \"#utility.yul\":9342:9346   */\n      dup3\n        /* \"#utility.yul\":9339:9360   */\n      or\n        /* \"#utility.yul\":9331:9360   */\n      swap1\n      pop\n        /* \"#utility.yul\":9071:9366   */\n      swap3\n      swap2\n      pop\n      pop\n      jump\t// out\n        /* \"#utility.yul\":9371:10766   */\n    tag_32:\n        /* \"#utility.yul\":9488:9525   */\n      tag_192\n        /* \"#utility.yul\":9521:9524   */\n      dup3\n        /* \"#utility.yul\":9488:9525   */\n      tag_62\n      jump\t// in\n    tag_192:\n        /* \"#utility.yul\":9590:9608   */\n      0xffffffffffffffff\n        /* \"#utility.yul\":9582:9588   */\n      dup2\n        /* \"#utility.yul\":9579:9609   */\n      gt\n        /* \"#utility.yul\":9576:9632   */\n      iszero\n      tag_193\n      jumpi\n        /* \"#utility.yul\":9612:9630   */\n      tag_194\n      tag_53\n      jump\t// in\n    tag_194:\n        /* \"#utility.yul\":9576:9632   */\n    tag_193:\n        /* \"#utility.yul\":9656:9694   */\n      tag_195\n        /* \"#utility.yul\":9688:9692   */\n      dup3\n        /* \"#utility.yul\":9682:9693   */\n      sload\n        /* \"#utility.yul\":9656:9694   */\n      tag_34\n      jump\t// in\n    tag_195:\n        /* \"#utility.yul\":9741:9808   */\n      tag_196\n        /* \"#utility.yul\":9801:9807   */\n      dup3\n        /* \"#utility.yul\":9793:9799   */\n      dup3\n        /* \"#utility.yul\":9787:9791   */\n      dup6\n        /* \"#utility.yul\":9741:9808   */\n      tag_78\n      jump\t// in\n    tag_196:\n        /* \"#utility.yul\":9835:9836   */\n      0x00\n        /* \"#utility.yul\":9859:9863   */\n      0x20\n        /* \"#utility.yul\":9846:9863   */\n      swap1\n      pop\n        /* \"#utility.yul\":9891:9893   */\n      0x1f\n        /* \"#utility.yul\":9883:9889   */\n      dup4\n        /* \"#utility.yul\":9880:9894   */\n      gt\n        /* \"#utility.yul\":9908:9909   */\n      0x01\n        /* \"#utility.yul\":9903:10521   */\n      dup2\n      eq\n      tag_198\n      jumpi\n        /* \"#utility.yul\":10565:10566   */\n      0x00\n        /* \"#utility.yul\":10582:10588   */\n      dup5\n        /* \"#utility.yul\":10579:10656   */\n      iszero\n      tag_199\n      jumpi\n        /* \"#utility.yul\":10631:10640   */\n      dup3\n        /* \"#utility.yul\":10626:10629   */\n      dup8\n        /* \"#utility.yul\":10622:10641   */\n      add\n        /* \"#utility.yul\":10616:10642   */\n      mload\n        /* \"#utility.yul\":10607:10642   */\n      swap1\n      pop\n        /* \"#utility.yul\":10579:10656   */\n    tag_199:\n        /* \"#utility.yul\":10682:10749   */\n      tag_200\n        /* \"#utility.yul\":10742:10748   */\n      dup6\n        /* \"#utility.yul\":10735:10740   */\n      dup3\n        /* \"#utility.yul\":10682:10749   */\n      tag_81\n      jump\t// in\n    tag_200:\n        /* \"#utility.yul\":10676:10680   */\n      dup7\n        /* \"#utility.yul\":10669:10750   */\n      sstore\n        /* \"#utility.yul\":10538:10760   */\n      pop\n        /* \"#utility.yul\":9873:10760   */\n      jump(tag_197)\n        /* \"#utility.yul\":9903:10521   */\n    tag_198:\n        /* \"#utility.yul\":9955:9959   */\n      0x1f\n        /* \"#utility.yul\":9951:9960   */\n      not\n        /* \"#utility.yul\":9943:9949   */\n      dup5\n        /* \"#utility.yul\":9939:9961   */\n      and\n        /* \"#utility.yul\":9989:10026   */\n      tag_201\n        /* \"#utility.yul\":10021:10025   */\n      dup7\n        /* \"#utility.yul\":9989:10026   */\n      tag_67\n      jump\t// in\n    tag_201:\n        /* \"#utility.yul\":10048:10049   */\n      0x00\n        /* \"#utility.yul\":10062:10270   */\n    tag_202:\n        /* \"#utility.yul\":10076:10083   */\n      dup3\n        /* \"#utility.yul\":10073:10074   */\n      dup2\n        /* \"#utility.yul\":10070:10084   */\n      lt\n        /* \"#utility.yul\":10062:10270   */\n      iszero\n      tag_204\n      jumpi\n        /* \"#utility.yul\":10155:10164   */\n      dup5\n        /* \"#utility.yul\":10150:10153   */\n      dup10\n        /* \"#utility.yul\":10146:10165   */\n      add\n        /* \"#utility.yul\":10140:10166   */\n      mload\n        /* \"#utility.yul\":10132:10138   */\n      dup3\n        /* \"#utility.yul\":10125:10167   */\n      sstore\n        /* \"#utility.yul\":10206:10207   */\n      0x01\n        /* \"#utility.yul\":10198:10204   */\n      dup3\n        /* \"#utility.yul\":10194:10208   */\n      add\n        /* \"#utility.yul\":10184:10208   */\n      swap2\n      pop\n        /* \"#utility.yul\":10253:10255   */\n      0x20\n        /* \"#utility.yul\":10242:10251   */\n      dup6\n        /* \"#utility.yul\":10238:10256   */\n      add\n        /* \"#utility.yul\":10225:10256   */\n      swap5\n      pop\n        /* \"#utility.yul\":10099:10103   */\n      0x20\n        /* \"#utility.yul\":10096:10097   */\n      dup2\n        /* \"#utility.yul\":10092:10104   */\n      add\n        /* \"#utility.yul\":10087:10104   */\n      swap1\n      pop\n        /* \"#utility.yul\":10062:10270   */\n      jump(tag_202)\n    tag_204:\n        /* \"#utility.yul\":10298:10304   */\n      dup7\n        /* \"#utility.yul\":10289:10296   */\n      dup4\n        /* \"#utility.yul\":10286:10305   */\n      lt\n        /* \"#utility.yul\":10283:10462   */\n      iszero\n      tag_205\n      jumpi\n        /* \"#utility.yul\":10356:10365   */\n      dup5\n        /* \"#utility.yul\":10351:10354   */\n      dup10\n        /* \"#utility.yul\":10347:10366   */\n      add\n        /* \"#utility.yul\":10341:10367   */\n      mload\n        /* \"#utility.yul\":10399:10447   */\n      tag_206\n        /* \"#utility.yul\":10441:10445   */\n      0x1f\n        /* \"#utility.yul\":10433:10439   */\n      dup10\n        /* \"#utility.yul\":10429:10446   */\n      and\n        /* \"#utility.yul\":10418:10427   */\n      dup3\n        /* \"#utility.yul\":10399:10447   */\n      tag_80\n      jump\t// in\n    tag_206:\n        /* \"#utility.yul\":10391:10397   */\n      dup4\n        /* \"#utility.yul\":10384:10448   */\n      sstore\n        /* \"#utility.yul\":10306:10462   */\n      pop\n        /* \"#utility.yul\":10283:10462   */\n    tag_205:\n        /* \"#utility.yul\":10508:10509   */\n      0x01\n        /* \"#utility.yul\":10504:10505   */\n      0x02\n        /* \"#utility.yul\":10496:10502   */\n      dup9\n        /* \"#utility.yul\":10492:10506   */\n      mul\n        /* \"#utility.yul\":10488:10510   */\n      add\n        /* \"#utility.yul\":10482:10486   */\n      dup9\n        /* \"#utility.yul\":10475:10511   */\n      sstore\n        /* \"#utility.yul\":9910:10521   */\n      pop\n      pop\n      pop\n        /* \"#utility.yul\":9873:10760   */\n    tag_197:\n      pop\n        /* \"#utility.yul\":9463:10766   */\n      pop\n      pop\n      pop\n        /* \"#utility.yul\":9371:10766   */\n      pop\n      pop\n      jump\t// out\n\n    auxdata: 0xa26469706673582212207c9f2e54a7671b2d982d244db6947cc857c1bd7c7f42e8c40b7a7907a1a3761b64736f6c63430008120033\n}\n",
				"bytecode": {
					"linkReferences": {},
					"object": "608060405234801561001057600080fd5b506108a3806100206000396000f3fe608060405234801561001057600080fd5b50600436106100575760003560e01c80630ad9d0521461005c57806354efe0281461007a578063b36b8c52146100ab578063c6dad082146100c9578063c9d7a365146100e7575b600080fd5b610064610117565b6040516100719190610294565b60405180910390f35b610094600480360381019061008f9190610435565b61011d565b6040516100a2929190610510565b60405180910390f35b6100b36101d4565b6040516100c09190610294565b60405180910390f35b6100d16101da565b6040516100de9190610540565b60405180910390f35b61010160048036038101906100fc9190610562565b610268565b60405161010e9190610294565b60405180910390f35b60015481565b606060008360009081610130919061079b565b50826001819055506000600154818054610149906105be565b80601f0160208091040260200160405190810160405280929190818152602001828054610175906105be565b80156101c25780601f10610197576101008083540402835291602001916101c2565b820191906000526020600020905b8154815290600101906020018083116101a557829003601f168201915b50505050509150915091509250929050565b60025481565b600080546101e7906105be565b80601f0160208091040260200160405190810160405280929190818152602001828054610213906105be565b80156102605780601f1061023557610100808354040283529160200191610260565b820191906000526020600020905b81548152906001019060200180831161024357829003601f168201915b505050505081565b6000816002819055506002549050919050565b6000819050919050565b61028e8161027b565b82525050565b60006020820190506102a96000830184610285565b92915050565b6000604051905090565b600080fd5b600080fd5b600080fd5b600080fd5b6000601f19601f8301169050919050565b7f4e487b7100000000000000000000000000000000000000000000000000000000600052604160045260246000fd5b610316826102cd565b810181811067ffffffffffffffff82111715610335576103346102de565b5b80604052505050565b60006103486102af565b9050610354828261030d565b919050565b600067ffffffffffffffff821115610374576103736102de565b5b61037d826102cd565b9050602081019050919050565b82818337600083830152505050565b60006103ac6103a784610359565b61033e565b9050828152602081018484840111156103c8576103c76102c8565b5b6103d384828561038a565b509392505050565b600082601f8301126103f0576103ef6102c3565b5b8135610400848260208601610399565b91505092915050565b6104128161027b565b811461041d57600080fd5b50565b60008135905061042f81610409565b92915050565b6000806040838503121561044c5761044b6102b9565b5b600083013567ffffffffffffffff81111561046a576104696102be565b5b610476858286016103db565b925050602061048785828601610420565b9150509250929050565b600081519050919050565b600082825260208201905092915050565b60005b838110156104cb5780820151818401526020810190506104b0565b60008484015250505050565b60006104e282610491565b6104ec818561049c565b93506104fc8185602086016104ad565b610505816102cd565b840191505092915050565b6000604082019050818103600083015261052a81856104d7565b90506105396020830184610285565b9392505050565b6000602082019050818103600083015261055a81846104d7565b905092915050565b600060208284031215610578576105776102b9565b5b600061058684828501610420565b91505092915050565b7f4e487b7100000000000000000000000000000000000000000000000000000000600052602260045260246000fd5b600060028204905060018216806105d657607f821691505b6020821081036105e9576105e861058f565b5b50919050565b60008190508160005260206000209050919050565b60006020601f8301049050919050565b600082821b905092915050565b6000600883026106517fffffffffffffffffffffffffffffffffffffffffffffffffffffffffffffffff82610614565b61065b8683610614565b95508019841693508086168417925050509392505050565b6000819050919050565b600061069861069361068e8461027b565b610673565b61027b565b9050919050565b6000819050919050565b6106b28361067d565b6106c66106be8261069f565b848454610621565b825550505050565b600090565b6106db6106ce565b6106e68184846106a9565b505050565b5b8181101561070a576106ff6000826106d3565b6001810190506106ec565b5050565b601f82111561074f57610720816105ef565b61072984610604565b81016020851015610738578190505b61074c61074485610604565b8301826106eb565b50505b505050565b600082821c905092915050565b600061077260001984600802610754565b1980831691505092915050565b600061078b8383610761565b9150826002028217905092915050565b6107a482610491565b67ffffffffffffffff8111156107bd576107bc6102de565b5b6107c782546105be565b6107d282828561070e565b600060209050601f83116001811461080557600084156107f3578287015190505b6107fd858261077f565b865550610865565b601f198416610813866105ef565b60005b8281101561083b57848901518255600182019150602085019450602081019050610816565b868310156108585784890151610854601f891682610761565b8355505b6001600288020188555050505b50505050505056fea26469706673582212207c9f2e54a7671b2d982d244db6947cc857c1bd7c7f42e8c40b7a7907a1a3761b64736f6c63430008120033",
					"opcodes": "PUSH1 0x80 PUSH1 0x40 MSTORE CALLVALUE DUP1 ISZERO PUSH2 0x10 JUMPI PUSH1 0x0 DUP1 REVERT JUMPDEST POP PUSH2 0x8A3 DUP1 PUSH2 0x20 PUSH1 0x0 CODECOPY PUSH1 0x0 RETURN INVALID PUSH1 0x80 PUSH1 0x40 MSTORE CALLVALUE DUP1 ISZERO PUSH2 0x10 JUMPI PUSH1 0x0 DUP1 REVERT JUMPDEST POP PUSH1 0x4 CALLDATASIZE LT PUSH2 0x57 JUMPI PUSH1 0x0 CALLDATALOAD PUSH1 0xE0 SHR DUP1 PUSH4 0xAD9D052 EQ PUSH2 0x5C JUMPI DUP1 PUSH4 0x54EFE028 EQ PUSH2 0x7A JUMPI DUP1 PUSH4 0xB36B8C52 EQ PUSH2 0xAB JUMPI DUP1 PUSH4 0xC6DAD082 EQ PUSH2 0xC9 JUMPI DUP1 PUSH4 0xC9D7A365 EQ PUSH2 0xE7 JUMPI JUMPDEST PUSH1 0x0 DUP1 REVERT JUMPDEST PUSH2 0x64 PUSH2 0x117 JUMP JUMPDEST PUSH1 0x40 MLOAD PUSH2 0x71 SWAP2 SWAP1 PUSH2 0x294 JUMP JUMPDEST PUSH1 0x40 MLOAD DUP1 SWAP2 SUB SWAP1 RETURN JUMPDEST PUSH2 0x94 PUSH1 0x4 DUP1 CALLDATASIZE SUB DUP2 ADD SWAP1 PUSH2 0x8F SWAP2 SWAP1 PUSH2 0x435 JUMP JUMPDEST PUSH2 0x11D JUMP JUMPDEST PUSH1 0x40 MLOAD PUSH2 0xA2 SWAP3 SWAP2 SWAP1 PUSH2 0x510 JUMP JUMPDEST PUSH1 0x40 MLOAD DUP1 SWAP2 SUB SWAP1 RETURN JUMPDEST PUSH2 0xB3 PUSH2 0x1D4 JUMP JUMPDEST PUSH1 0x40 MLOAD PUSH2 0xC0 SWAP2 SWAP1 PUSH2 0x294 JUMP JUMPDEST PUSH1 0x40 MLOAD DUP1 SWAP2 SUB SWAP1 RETURN JUMPDEST PUSH2 0xD1 PUSH2 0x1DA JUMP JUMPDEST PUSH1 0x40 MLOAD PUSH2 0xDE SWAP2 SWAP1 PUSH2 0x540 JUMP JUMPDEST PUSH1 0x40 MLOAD DUP1 SWAP2 SUB SWAP1 RETURN JUMPDEST PUSH2 0x101 PUSH1 0x4 DUP1 CALLDATASIZE SUB DUP2 ADD SWAP1 PUSH2 0xFC SWAP2 SWAP1 PUSH2 0x562 JUMP JUMPDEST PUSH2 0x268 JUMP JUMPDEST PUSH1 0x40 MLOAD PUSH2 0x10E SWAP2 SWAP1 PUSH2 0x294 JUMP JUMPDEST PUSH1 0x40 MLOAD DUP1 SWAP2 SUB SWAP1 RETURN JUMPDEST PUSH1 0x1 SLOAD DUP2 JUMP JUMPDEST PUSH1 0x60 PUSH1 0x0 DUP4 PUSH1 0x0 SWAP1 DUP2 PUSH2 0x130 SWAP2 SWAP1 PUSH2 0x79B JUMP JUMPDEST POP DUP3 PUSH1 0x1 DUP2 SWAP1 SSTORE POP PUSH1 0x0 PUSH1 0x1 SLOAD DUP2 DUP1 SLOAD PUSH2 0x149 SWAP1 PUSH2 0x5BE JUMP JUMPDEST DUP1 PUSH1 0x1F ADD PUSH1 0x20 DUP1 SWAP2 DIV MUL PUSH1 0x20 ADD PUSH1 0x40 MLOAD SWAP1 DUP2 ADD PUSH1 0x40 MSTORE DUP1 SWAP3 SWAP2 SWAP1 DUP2 DUP2 MSTORE PUSH1 0x20 ADD DUP3 DUP1 SLOAD PUSH2 0x175 SWAP1 PUSH2 0x5BE JUMP JUMPDEST DUP1 ISZERO PUSH2 0x1C2 JUMPI DUP1 PUSH1 0x1F LT PUSH2 0x197 JUMPI PUSH2 0x100 DUP1 DUP4 SLOAD DIV MUL DUP4 MSTORE SWAP2 PUSH1 0x20 ADD SWAP2 PUSH2 0x1C2 JUMP JUMPDEST DUP3 ADD SWAP2 SWAP1 PUSH1 0x0 MSTORE PUSH1 0x20 PUSH1 0x0 KECCAK256 SWAP1 JUMPDEST DUP2 SLOAD DUP2 MSTORE SWAP1 PUSH1 0x1 ADD SWAP1 PUSH1 0x20 ADD DUP1 DUP4 GT PUSH2 0x1A5 JUMPI DUP3 SWAP1 SUB PUSH1 0x1F AND DUP3 ADD SWAP2 JUMPDEST POP POP POP POP POP SWAP2 POP SWAP2 POP SWAP2 POP SWAP3 POP SWAP3 SWAP1 POP JUMP JUMPDEST PUSH1 0x2 SLOAD DUP2 JUMP JUMPDEST PUSH1 0x0 DUP1 SLOAD PUSH2 0x1E7 SWAP1 PUSH2 0x5BE JUMP JUMPDEST DUP1 PUSH1 0x1F ADD PUSH1 0x20 DUP1 SWAP2 DIV MUL PUSH1 0x20 ADD PUSH1 0x40 MLOAD SWAP1 DUP2 ADD PUSH1 0x40 MSTORE DUP1 SWAP3 SWAP2 SWAP1 DUP2 DUP2 MSTORE PUSH1 0x20 ADD DUP3 DUP1 SLOAD PUSH2 0x213 SWAP1 PUSH2 0x5BE JUMP JUMPDEST DUP1 ISZERO PUSH2 0x260 JUMPI DUP1 PUSH1 0x1F LT PUSH2 0x235 JUMPI PUSH2 0x100 DUP1 DUP4 SLOAD DIV MUL DUP4 MSTORE SWAP2 PUSH1 0x20 ADD SWAP2 PUSH2 0x260 JUMP JUMPDEST DUP3 ADD SWAP2 SWAP1 PUSH1 0x0 MSTORE PUSH1 0x20 PUSH1 0x0 KECCAK256 SWAP1 JUMPDEST DUP2 SLOAD DUP2 MSTORE SWAP1 PUSH1 0x1 ADD SWAP1 PUSH1 0x20 ADD DUP1 DUP4 GT PUSH2 0x243 JUMPI DUP3 SWAP1 SUB PUSH1 0x1F AND DUP3 ADD SWAP2 JUMPDEST POP POP POP POP POP DUP2 JUMP JUMPDEST PUSH1 0x0 DUP2 PUSH1 0x2 DUP2 SWAP1 SSTORE POP PUSH1 0x2 SLOAD SWAP1 POP SWAP2 SWAP1 POP JUMP JUMPDEST PUSH1 0x0 DUP2 SWAP1 POP SWAP2 SWAP1 POP JUMP JUMPDEST PUSH2 0x28E DUP2 PUSH2 0x27B JUMP JUMPDEST DUP3 MSTORE POP POP JUMP JUMPDEST PUSH1 0x0 PUSH1 0x20 DUP3 ADD SWAP1 POP PUSH2 0x2A9 PUSH1 0x0 DUP4 ADD DUP5 PUSH2 0x285 JUMP JUMPDEST SWAP3 SWAP2 POP POP JUMP JUMPDEST PUSH1 0x0 PUSH1 0x40 MLOAD SWAP1 POP SWAP1 JUMP JUMPDEST PUSH1 0x0 DUP1 REVERT JUMPDEST PUSH1 0x0 DUP1 REVERT JUMPDEST PUSH1 0x0 DUP1 REVERT JUMPDEST PUSH1 0x0 DUP1 REVERT JUMPDEST PUSH1 0x0 PUSH1 0x1F NOT PUSH1 0x1F DUP4 ADD AND SWAP1 POP SWAP2 SWAP1 POP JUMP JUMPDEST PUSH32 0x4E487B7100000000000000000000000000000000000000000000000000000000 PUSH1 0x0 MSTORE PUSH1 0x41 PUSH1 0x4 MSTORE PUSH1 0x24 PUSH1 0x0 REVERT JUMPDEST PUSH2 0x316 DUP3 PUSH2 0x2CD JUMP JUMPDEST DUP2 ADD DUP2 DUP2 LT PUSH8 0xFFFFFFFFFFFFFFFF DUP3 GT OR ISZERO PUSH2 0x335 JUMPI PUSH2 0x334 PUSH2 0x2DE JUMP JUMPDEST JUMPDEST DUP1 PUSH1 0x40 MSTORE POP POP POP JUMP JUMPDEST PUSH1 0x0 PUSH2 0x348 PUSH2 0x2AF JUMP JUMPDEST SWAP1 POP PUSH2 0x354 DUP3 DUP3 PUSH2 0x30D JUMP JUMPDEST SWAP2 SWAP1 POP JUMP JUMPDEST PUSH1 0x0 PUSH8 0xFFFFFFFFFFFFFFFF DUP3 GT ISZERO PUSH2 0x374 JUMPI PUSH2 0x373 PUSH2 0x2DE JUMP JUMPDEST JUMPDEST PUSH2 0x37D DUP3 PUSH2 0x2CD JUMP JUMPDEST SWAP1 POP PUSH1 0x20 DUP2 ADD SWAP1 POP SWAP2 SWAP1 POP JUMP JUMPDEST DUP3 DUP2 DUP4 CALLDATACOPY PUSH1 0x0 DUP4 DUP4 ADD MSTORE POP POP POP JUMP JUMPDEST PUSH1 0x0 PUSH2 0x3AC PUSH2 0x3A7 DUP5 PUSH2 0x359 JUMP JUMPDEST PUSH2 0x33E JUMP JUMPDEST SWAP1 POP DUP3 DUP2 MSTORE PUSH1 0x20 DUP2 ADD DUP5 DUP5 DUP5 ADD GT ISZERO PUSH2 0x3C8 JUMPI PUSH2 0x3C7 PUSH2 0x2C8 JUMP JUMPDEST JUMPDEST PUSH2 0x3D3 DUP5 DUP3 DUP6 PUSH2 0x38A JUMP JUMPDEST POP SWAP4 SWAP3 POP POP POP JUMP JUMPDEST PUSH1 0x0 DUP3 PUSH1 0x1F DUP4 ADD SLT PUSH2 0x3F0 JUMPI PUSH2 0x3EF PUSH2 0x2C3 JUMP JUMPDEST JUMPDEST DUP2 CALLDATALOAD PUSH2 0x400 DUP5 DUP3 PUSH1 0x20 DUP7 ADD PUSH2 0x399 JUMP JUMPDEST SWAP2 POP POP SWAP3 SWAP2 POP POP JUMP JUMPDEST PUSH2 0x412 DUP2 PUSH2 0x27B JUMP JUMPDEST DUP2 EQ PUSH2 0x41D JUMPI PUSH1 0x0 DUP1 REVERT JUMPDEST POP JUMP JUMPDEST PUSH1 0x0 DUP2 CALLDATALOAD SWAP1 POP PUSH2 0x42F DUP2 PUSH2 0x409 JUMP JUMPDEST SWAP3 SWAP2 POP POP JUMP JUMPDEST PUSH1 0x0 DUP1 PUSH1 0x40 DUP4 DUP6 SUB SLT ISZERO PUSH2 0x44C JUMPI PUSH2 0x44B PUSH2 0x2B9 JUMP JUMPDEST JUMPDEST PUSH1 0x0 DUP4 ADD CALLDATALOAD PUSH8 0xFFFFFFFFFFFFFFFF DUP2 GT ISZERO PUSH2 0x46A JUMPI PUSH2 0x469 PUSH2 0x2BE JUMP JUMPDEST JUMPDEST PUSH2 0x476 DUP6 DUP3 DUP7 ADD PUSH2 0x3DB JUMP JUMPDEST SWAP3 POP POP PUSH1 0x20 PUSH2 0x487 DUP6 DUP3 DUP7 ADD PUSH2 0x420 JUMP JUMPDEST SWAP2 POP POP SWAP3 POP SWAP3 SWAP1 POP JUMP JUMPDEST PUSH1 0x0 DUP2 MLOAD SWAP1 POP SWAP2 SWAP1 POP JUMP JUMPDEST PUSH1 0x0 DUP3 DUP3 MSTORE PUSH1 0x20 DUP3 ADD SWAP1 POP SWAP3 SWAP2 POP POP JUMP JUMPDEST PUSH1 0x0 JUMPDEST DUP4 DUP2 LT ISZERO PUSH2 0x4CB JUMPI DUP1 DUP3 ADD MLOAD DUP2 DUP5 ADD MSTORE PUSH1 0x20 DUP2 ADD SWAP1 POP PUSH2 0x4B0 JUMP JUMPDEST PUSH1 0x0 DUP5 DUP5 ADD MSTORE POP POP POP POP JUMP JUMPDEST PUSH1 0x0 PUSH2 0x4E2 DUP3 PUSH2 0x491 JUMP JUMPDEST PUSH2 0x4EC DUP2 DUP6 PUSH2 0x49C JUMP JUMPDEST SWAP4 POP PUSH2 0x4FC DUP2 DUP6 PUSH1 0x20 DUP7 ADD PUSH2 0x4AD JUMP JUMPDEST PUSH2 0x505 DUP2 PUSH2 0x2CD JUMP JUMPDEST DUP5 ADD SWAP2 POP POP SWAP3 SWAP2 POP POP JUMP JUMPDEST PUSH1 0x0 PUSH1 0x40 DUP3 ADD SWAP1 POP DUP2 DUP2 SUB PUSH1 0x0 DUP4 ADD MSTORE PUSH2 0x52A DUP2 DUP6 PUSH2 0x4D7 JUMP JUMPDEST SWAP1 POP PUSH2 0x539 PUSH1 0x20 DUP4 ADD DUP5 PUSH2 0x285 JUMP JUMPDEST SWAP4 SWAP3 POP POP POP JUMP JUMPDEST PUSH1 0x0 PUSH1 0x20 DUP3 ADD SWAP1 POP DUP2 DUP2 SUB PUSH1 0x0 DUP4 ADD MSTORE PUSH2 0x55A DUP2 DUP5 PUSH2 0x4D7 JUMP JUMPDEST SWAP1 POP SWAP3 SWAP2 POP POP JUMP JUMPDEST PUSH1 0x0 PUSH1 0x20 DUP3 DUP5 SUB SLT ISZERO PUSH2 0x578 JUMPI PUSH2 0x577 PUSH2 0x2B9 JUMP JUMPDEST JUMPDEST PUSH1 0x0 PUSH2 0x586 DUP5 DUP3 DUP6 ADD PUSH2 0x420 JUMP JUMPDEST SWAP2 POP POP SWAP3 SWAP2 POP POP JUMP JUMPDEST PUSH32 0x4E487B7100000000000000000000000000000000000000000000000000000000 PUSH1 0x0 MSTORE PUSH1 0x22 PUSH1 0x4 MSTORE PUSH1 0x24 PUSH1 0x0 REVERT JUMPDEST PUSH1 0x0 PUSH1 0x2 DUP3 DIV SWAP1 POP PUSH1 0x1 DUP3 AND DUP1 PUSH2 0x5D6 JUMPI PUSH1 0x7F DUP3 AND SWAP2 POP JUMPDEST PUSH1 0x20 DUP3 LT DUP2 SUB PUSH2 0x5E9 JUMPI PUSH2 0x5E8 PUSH2 0x58F JUMP JUMPDEST JUMPDEST POP SWAP2 SWAP1 POP JUMP JUMPDEST PUSH1 0x0 DUP2 SWAP1 POP DUP2 PUSH1 0x0 MSTORE PUSH1 0x20 PUSH1 0x0 KECCAK256 SWAP1 POP SWAP2 SWAP1 POP JUMP JUMPDEST PUSH1 0x0 PUSH1 0x20 PUSH1 0x1F DUP4 ADD DIV SWAP1 POP SWAP2 SWAP1 POP JUMP JUMPDEST PUSH1 0x0 DUP3 DUP3 SHL SWAP1 POP SWAP3 SWAP2 POP POP JUMP JUMPDEST PUSH1 0x0 PUSH1 0x8 DUP4 MUL PUSH2 0x651 PUSH32 0xFFFFFFFFFFFFFFFFFFFFFFFFFFFFFFFFFFFFFFFFFFFFFFFFFFFFFFFFFFFFFFFF DUP3 PUSH2 0x614 JUMP JUMPDEST PUSH2 0x65B DUP7 DUP4 PUSH2 0x614 JUMP JUMPDEST SWAP6 POP DUP1 NOT DUP5 AND SWAP4 POP DUP1 DUP7 AND DUP5 OR SWAP3 POP POP POP SWAP4 SWAP3 POP POP POP JUMP JUMPDEST PUSH1 0x0 DUP2 SWAP1 POP SWAP2 SWAP1 POP JUMP JUMPDEST PUSH1 0x0 PUSH2 0x698 PUSH2 0x693 PUSH2 0x68E DUP5 PUSH2 0x27B JUMP JUMPDEST PUSH2 0x673 JUMP JUMPDEST PUSH2 0x27B JUMP JUMPDEST SWAP1 POP SWAP2 SWAP1 POP JUMP JUMPDEST PUSH1 0x0 DUP2 SWAP1 POP SWAP2 SWAP1 POP JUMP JUMPDEST PUSH2 0x6B2 DUP4 PUSH2 0x67D JUMP JUMPDEST PUSH2 0x6C6 PUSH2 0x6BE DUP3 PUSH2 0x69F JUMP JUMPDEST DUP5 DUP5 SLOAD PUSH2 0x621 JUMP JUMPDEST DUP3 SSTORE POP POP POP POP JUMP JUMPDEST PUSH1 0x0 SWAP1 JUMP JUMPDEST PUSH2 0x6DB PUSH2 0x6CE JUMP JUMPDEST PUSH2 0x6E6 DUP2 DUP5 DUP5 PUSH2 0x6A9 JUMP JUMPDEST POP POP POP JUMP JUMPDEST JUMPDEST DUP2 DUP2 LT ISZERO PUSH2 0x70A JUMPI PUSH2 0x6FF PUSH1 0x0 DUP3 PUSH2 0x6D3 JUMP JUMPDEST PUSH1 0x1 DUP2 ADD SWAP1 POP PUSH2 0x6EC JUMP JUMPDEST POP POP JUMP JUMPDEST PUSH1 0x1F DUP3 GT ISZERO PUSH2 0x74F JUMPI PUSH2 0x720 DUP2 PUSH2 0x5EF JUMP JUMPDEST PUSH2 0x729 DUP5 PUSH2 0x604 JUMP JUMPDEST DUP2 ADD PUSH1 0x20 DUP6 LT ISZERO PUSH2 0x738 JUMPI DUP2 SWAP1 POP JUMPDEST PUSH2 0x74C PUSH2 0x744 DUP6 PUSH2 0x604 JUMP JUMPDEST DUP4 ADD DUP3 PUSH2 0x6EB JUMP JUMPDEST POP POP JUMPDEST POP POP POP JUMP JUMPDEST PUSH1 0x0 DUP3 DUP3 SHR SWAP1 POP SWAP3 SWAP2 POP POP JUMP JUMPDEST PUSH1 0x0 PUSH2 0x772 PUSH1 0x0 NOT DUP5 PUSH1 0x8 MUL PUSH2 0x754 JUMP JUMPDEST NOT DUP1 DUP4 AND SWAP2 POP POP SWAP3 SWAP2 POP POP JUMP JUMPDEST PUSH1 0x0 PUSH2 0x78B DUP4 DUP4 PUSH2 0x761 JUMP JUMPDEST SWAP2 POP DUP3 PUSH1 0x2 MUL DUP3 OR SWAP1 POP SWAP3 SWAP2 POP POP JUMP JUMPDEST PUSH2 0x7A4 DUP3 PUSH2 0x491 JUMP JUMPDEST PUSH8 0xFFFFFFFFFFFFFFFF DUP2 GT ISZERO PUSH2 0x7BD JUMPI PUSH2 0x7BC PUSH2 0x2DE JUMP JUMPDEST JUMPDEST PUSH2 0x7C7 DUP3 SLOAD PUSH2 0x5BE JUMP JUMPDEST PUSH2 0x7D2 DUP3 DUP3 DUP6 PUSH2 0x70E JUMP JUMPDEST PUSH1 0x0 PUSH1 0x20 SWAP1 POP PUSH1 0x1F DUP4 GT PUSH1 0x1 DUP2 EQ PUSH2 0x805 JUMPI PUSH1 0x0 DUP5 ISZERO PUSH2 0x7F3 JUMPI DUP3 DUP8 ADD MLOAD SWAP1 POP JUMPDEST PUSH2 0x7FD DUP6 DUP3 PUSH2 0x77F JUMP JUMPDEST DUP7 SSTORE POP PUSH2 0x865 JUMP JUMPDEST PUSH1 0x1F NOT DUP5 AND PUSH2 0x813 DUP7 PUSH2 0x5EF JUMP JUMPDEST PUSH1 0x0 JUMPDEST DUP3 DUP2 LT ISZERO PUSH2 0x83B JUMPI DUP5 DUP10 ADD MLOAD DUP3 SSTORE PUSH1 0x1 DUP3 ADD SWAP2 POP PUSH1 0x20 DUP6 ADD SWAP5 POP PUSH1 0x20 DUP2 ADD SWAP1 POP PUSH2 0x816 JUMP JUMPDEST DUP7 DUP4 LT ISZERO PUSH2 0x858 JUMPI DUP5 DUP10 ADD MLOAD PUSH2 0x854 PUSH1 0x1F DUP10 AND DUP3 PUSH2 0x761 JUMP JUMPDEST DUP4 SSTORE POP JUMPDEST PUSH1 0x1 PUSH1 0x2 DUP9 MUL ADD DUP9 SSTORE POP POP POP JUMPDEST POP POP POP POP POP POP JUMP INVALID LOG2 PUSH5 0x6970667358 0x22 SLT KECCAK256 PUSH29 0x9F2E54A7671B2D982D244DB6947CC857C1BD7C7F42E8C40B7A7907A1A3 PUSH23 0x1B64736F6C634300081200330000000000000000000000 "
				},
				"gasEstimates": {
					"creation": {
						"codeDepositCost": "442200",
						"executionCost": "480",
						"totalCost": "442680"
					},
					"external": {
						"gasTankCapacity()": "2451",
						"make()": "infinite",
						"model()": "2407",
						"setvalue(string,uint256)": "infinite",
						"setvalue2(uint256)": "infinite"
					}
				},
				"methodIdentifiers": {
					"gasTankCapacity()": "b36b8c52",
					"make()": "c6dad082",
					"model()": "0ad9d052",
					"setvalue(string,uint256)": "54efe028",
					"setvalue2(uint256)": "c9d7a365"
				}
			},
			"storageLayout": {
				"storage": [
					{
						"astId": 3,
						"contract": "lab 16-08-2023/Heircars.sol:Hybridcar",
						"label": "make",
						"offset": 0,
						"slot": "0",
						"type": "t_string_storage"
					},
					{
						"astId": 5,
						"contract": "lab 16-08-2023/Heircars.sol:Hybridcar",
						"label": "model",
						"offset": 0,
						"slot": "1",
						"type": "t_uint256"
					},
					{
						"astId": 34,
						"contract": "lab 16-08-2023/Heircars.sol:Hybridcar",
						"label": "gasTankCapacity",
						"offset": 0,
						"slot": "2",
						"type": "t_uint256"
					}
				],
				"types": {
					"t_string_storage": {
						"encoding": "bytes",
						"label": "string",
						"numberOfBytes": "32"
					},
					"t_uint256": {
						"encoding": "inplace",
						"label": "uint256",
						"numberOfBytes": "32"
					}
				}
			},
			"userdoc": {
				"kind": "user",
				"methods": {},
				"version": 1
			}
		}
	}
}