{
	"lab 16-08-2023/Inheritlogs.sol": {
		"Derived": {
			"abi": [
				{
					"inputs": [],
					"stateMutability": "nonpayable",
					"type": "constructor"
				},
				{
					"inputs": [],
					"name": "Print",
					"outputs": [
						{
							"internalType": "string",
							"name": "",
							"type": "string"
						}
					],
					"stateMutability": "nonpayable",
					"type": "function"
				},
				{
					"inputs": [],
					"name": "getData",
					"outputs": [
						{
							"internalType": "uint256",
							"name": "",
							"type": "uint256"
						}
					],
					"stateMutability": "view",
					"type": "function"
				}
			],
			"devdoc": {
				"kind": "dev",
				"methods": {},
				"version": 1
			},
			"evm": {
				"assembly": "    /* \"lab 16-08-2023/Inheritlogs.sol\":231:487  contract Derived is Base(2) {... */\n  mstore(0x40, 0x80)\n    /* \"lab 16-08-2023/Inheritlogs.sol\":263:279  constructor() {} */\n  callvalue\n  dup1\n  iszero\n  tag_1\n  jumpi\n  0x00\n  dup1\n  revert\ntag_1:\n  pop\n    /* \"lab 16-08-2023/Inheritlogs.sol\":256:257  2 */\n  0x02\n    /* \"lab 16-08-2023/Inheritlogs.sol\":125:130  _data */\n  dup1\n    /* \"lab 16-08-2023/Inheritlogs.sol\":118:122  data */\n  0x00\n    /* \"lab 16-08-2023/Inheritlogs.sol\":118:130  data = _data */\n  dup2\n  swap1\n  sstore\n  pop\n    /* \"lab 16-08-2023/Inheritlogs.sol\":90:133  constructor(uint _data) {... */\n  pop\n    /* \"lab 16-08-2023/Inheritlogs.sol\":231:487  contract Derived is Base(2) {... */\n  dataSize(sub_0)\n  dup1\n  dataOffset(sub_0)\n  0x00\n  codecopy\n  0x00\n  return\nstop\n\nsub_0: assembly {\n        /* \"lab 16-08-2023/Inheritlogs.sol\":231:487  contract Derived is Base(2) {... */\n      mstore(0x40, 0x80)\n      callvalue\n      dup1\n      iszero\n      tag_1\n      jumpi\n      0x00\n      dup1\n      revert\n    tag_1:\n      pop\n      jumpi(tag_2, lt(calldatasize, 0x04))\n      shr(0xe0, calldataload(0x00))\n      dup1\n      0x3bc5de30\n      eq\n      tag_3\n      jumpi\n      dup1\n      0x581bde69\n      eq\n      tag_4\n      jumpi\n    tag_2:\n      0x00\n      dup1\n      revert\n        /* \"lab 16-08-2023/Inheritlogs.sol\":282:377  function getData() external view returns (uint) {... */\n    tag_3:\n      tag_5\n      tag_6\n      jump\t// in\n    tag_5:\n      mload(0x40)\n      tag_7\n      swap2\n      swap1\n      tag_8\n      jump\t// in\n    tag_7:\n      mload(0x40)\n      dup1\n      swap2\n      sub\n      swap1\n      return\n        /* \"lab 16-08-2023/Inheritlogs.sol\":380:484  function Print() public virtual override returns (string memory) {... */\n    tag_4:\n      tag_9\n      tag_10\n      jump\t// in\n    tag_9:\n      mload(0x40)\n      tag_11\n      swap2\n      swap1\n      tag_12\n      jump\t// in\n    tag_11:\n      mload(0x40)\n      dup1\n      swap2\n      sub\n      swap1\n      return\n        /* \"lab 16-08-2023/Inheritlogs.sol\":282:377  function getData() external view returns (uint) {... */\n    tag_6:\n        /* \"lab 16-08-2023/Inheritlogs.sol\":324:328  uint */\n      0x00\n        /* \"lab 16-08-2023/Inheritlogs.sol\":334:345  uint result */\n      dup1\n        /* \"lab 16-08-2023/Inheritlogs.sol\":356:357  2 */\n      0x02\n        /* \"lab 16-08-2023/Inheritlogs.sol\":348:352  data */\n      sload(0x00)\n        /* \"lab 16-08-2023/Inheritlogs.sol\":348:357  data ** 2 */\n      tag_14\n      swap2\n      swap1\n      tag_15\n      jump\t// in\n    tag_14:\n        /* \"lab 16-08-2023/Inheritlogs.sol\":334:357  uint result = data ** 2 */\n      swap1\n      pop\n        /* \"lab 16-08-2023/Inheritlogs.sol\":368:374  result */\n      dup1\n        /* \"lab 16-08-2023/Inheritlogs.sol\":361:374  return result */\n      swap2\n      pop\n      pop\n        /* \"lab 16-08-2023/Inheritlogs.sol\":282:377  function getData() external view returns (uint) {... */\n      swap1\n      jump\t// out\n        /* \"lab 16-08-2023/Inheritlogs.sol\":380:484  function Print() public virtual override returns (string memory) {... */\n    tag_10:\n        /* \"lab 16-08-2023/Inheritlogs.sol\":430:443  string memory */\n      0x60\n        /* \"lab 16-08-2023/Inheritlogs.sol\":449:479  return \"Direct Initialization\" */\n      mload(0x40)\n      dup1\n      0x40\n      add\n      0x40\n      mstore\n      dup1\n      0x15\n      dup2\n      mstore\n      0x20\n      add\n      0x44697265637420496e697469616c697a6174696f6e0000000000000000000000\n      dup2\n      mstore\n      pop\n      swap1\n      pop\n        /* \"lab 16-08-2023/Inheritlogs.sol\":380:484  function Print() public virtual override returns (string memory) {... */\n      swap1\n      jump\t// out\n        /* \"#utility.yul\":7:84   */\n    tag_17:\n        /* \"#utility.yul\":44:51   */\n      0x00\n        /* \"#utility.yul\":73:78   */\n      dup2\n        /* \"#utility.yul\":62:78   */\n      swap1\n      pop\n        /* \"#utility.yul\":7:84   */\n      swap2\n      swap1\n      pop\n      jump\t// out\n        /* \"#utility.yul\":90:208   */\n    tag_18:\n        /* \"#utility.yul\":177:201   */\n      tag_32\n        /* \"#utility.yul\":195:200   */\n      dup2\n        /* \"#utility.yul\":177:201   */\n      tag_17\n      jump\t// in\n    tag_32:\n        /* \"#utility.yul\":172:175   */\n      dup3\n        /* \"#utility.yul\":165:202   */\n      mstore\n        /* \"#utility.yul\":90:208   */\n      pop\n      pop\n      jump\t// out\n        /* \"#utility.yul\":214:436   */\n    tag_8:\n        /* \"#utility.yul\":307:311   */\n      0x00\n        /* \"#utility.yul\":345:347   */\n      0x20\n        /* \"#utility.yul\":334:343   */\n      dup3\n        /* \"#utility.yul\":330:348   */\n      add\n        /* \"#utility.yul\":322:348   */\n      swap1\n      pop\n        /* \"#utility.yul\":358:429   */\n      tag_34\n        /* \"#utility.yul\":426:427   */\n      0x00\n        /* \"#utility.yul\":415:424   */\n      dup4\n        /* \"#utility.yul\":411:428   */\n      add\n        /* \"#utility.yul\":402:408   */\n      dup5\n        /* \"#utility.yul\":358:429   */\n      tag_18\n      jump\t// in\n    tag_34:\n        /* \"#utility.yul\":214:436   */\n      swap3\n      swap2\n      pop\n      pop\n      jump\t// out\n        /* \"#utility.yul\":442:541   */\n    tag_19:\n        /* \"#utility.yul\":494:500   */\n      0x00\n        /* \"#utility.yul\":528:533   */\n      dup2\n        /* \"#utility.yul\":522:534   */\n      mload\n        /* \"#utility.yul\":512:534   */\n      swap1\n      pop\n        /* \"#utility.yul\":442:541   */\n      swap2\n      swap1\n      pop\n      jump\t// out\n        /* \"#utility.yul\":547:716   */\n    tag_20:\n        /* \"#utility.yul\":631:642   */\n      0x00\n        /* \"#utility.yul\":665:671   */\n      dup3\n        /* \"#utility.yul\":660:663   */\n      dup3\n        /* \"#utility.yul\":653:672   */\n      mstore\n        /* \"#utility.yul\":705:709   */\n      0x20\n        /* \"#utility.yul\":700:703   */\n      dup3\n        /* \"#utility.yul\":696:710   */\n      add\n        /* \"#utility.yul\":681:710   */\n      swap1\n      pop\n        /* \"#utility.yul\":547:716   */\n      swap3\n      swap2\n      pop\n      pop\n      jump\t// out\n        /* \"#utility.yul\":722:968   */\n    tag_21:\n        /* \"#utility.yul\":803:804   */\n      0x00\n        /* \"#utility.yul\":813:926   */\n    tag_38:\n        /* \"#utility.yul\":827:833   */\n      dup4\n        /* \"#utility.yul\":824:825   */\n      dup2\n        /* \"#utility.yul\":821:834   */\n      lt\n        /* \"#utility.yul\":813:926   */\n      iszero\n      tag_40\n      jumpi\n        /* \"#utility.yul\":912:913   */\n      dup1\n        /* \"#utility.yul\":907:910   */\n      dup3\n        /* \"#utility.yul\":903:914   */\n      add\n        /* \"#utility.yul\":897:915   */\n      mload\n        /* \"#utility.yul\":893:894   */\n      dup2\n        /* \"#utility.yul\":888:891   */\n      dup5\n        /* \"#utility.yul\":884:895   */\n      add\n        /* \"#utility.yul\":877:916   */\n      mstore\n        /* \"#utility.yul\":849:851   */\n      0x20\n        /* \"#utility.yul\":846:847   */\n      dup2\n        /* \"#utility.yul\":842:852   */\n      add\n        /* \"#utility.yul\":837:852   */\n      swap1\n      pop\n        /* \"#utility.yul\":813:926   */\n      jump(tag_38)\n    tag_40:\n        /* \"#utility.yul\":960:961   */\n      0x00\n        /* \"#utility.yul\":951:957   */\n      dup5\n        /* \"#utility.yul\":946:949   */\n      dup5\n        /* \"#utility.yul\":942:958   */\n      add\n        /* \"#utility.yul\":935:962   */\n      mstore\n        /* \"#utility.yul\":784:968   */\n      pop\n        /* \"#utility.yul\":722:968   */\n      pop\n      pop\n      pop\n      jump\t// out\n        /* \"#utility.yul\":974:1076   */\n    tag_22:\n        /* \"#utility.yul\":1015:1021   */\n      0x00\n        /* \"#utility.yul\":1066:1068   */\n      0x1f\n        /* \"#utility.yul\":1062:1069   */\n      not\n        /* \"#utility.yul\":1057:1059   */\n      0x1f\n        /* \"#utility.yul\":1050:1055   */\n      dup4\n        /* \"#utility.yul\":1046:1060   */\n      add\n        /* \"#utility.yul\":1042:1070   */\n      and\n        /* \"#utility.yul\":1032:1070   */\n      swap1\n      pop\n        /* \"#utility.yul\":974:1076   */\n      swap2\n      swap1\n      pop\n      jump\t// out\n        /* \"#utility.yul\":1082:1459   */\n    tag_23:\n        /* \"#utility.yul\":1170:1173   */\n      0x00\n        /* \"#utility.yul\":1198:1237   */\n      tag_43\n        /* \"#utility.yul\":1231:1236   */\n      dup3\n        /* \"#utility.yul\":1198:1237   */\n      tag_19\n      jump\t// in\n    tag_43:\n        /* \"#utility.yul\":1253:1324   */\n      tag_44\n        /* \"#utility.yul\":1317:1323   */\n      dup2\n        /* \"#utility.yul\":1312:1315   */\n      dup6\n        /* \"#utility.yul\":1253:1324   */\n      tag_20\n      jump\t// in\n    tag_44:\n        /* \"#utility.yul\":1246:1324   */\n      swap4\n      pop\n        /* \"#utility.yul\":1333:1398   */\n      tag_45\n        /* \"#utility.yul\":1391:1397   */\n      dup2\n        /* \"#utility.yul\":1386:1389   */\n      dup6\n        /* \"#utility.yul\":1379:1383   */\n      0x20\n        /* \"#utility.yul\":1372:1377   */\n      dup7\n        /* \"#utility.yul\":1368:1384   */\n      add\n        /* \"#utility.yul\":1333:1398   */\n      tag_21\n      jump\t// in\n    tag_45:\n        /* \"#utility.yul\":1423:1452   */\n      tag_46\n        /* \"#utility.yul\":1445:1451   */\n      dup2\n        /* \"#utility.yul\":1423:1452   */\n      tag_22\n      jump\t// in\n    tag_46:\n        /* \"#utility.yul\":1418:1421   */\n      dup5\n        /* \"#utility.yul\":1414:1453   */\n      add\n        /* \"#utility.yul\":1407:1453   */\n      swap2\n      pop\n        /* \"#utility.yul\":1174:1459   */\n      pop\n        /* \"#utility.yul\":1082:1459   */\n      swap3\n      swap2\n      pop\n      pop\n      jump\t// out\n        /* \"#utility.yul\":1465:1778   */\n    tag_12:\n        /* \"#utility.yul\":1578:1582   */\n      0x00\n        /* \"#utility.yul\":1616:1618   */\n      0x20\n        /* \"#utility.yul\":1605:1614   */\n      dup3\n        /* \"#utility.yul\":1601:1619   */\n      add\n        /* \"#utility.yul\":1593:1619   */\n      swap1\n      pop\n        /* \"#utility.yul\":1665:1674   */\n      dup2\n        /* \"#utility.yul\":1659:1663   */\n      dup2\n        /* \"#utility.yul\":1655:1675   */\n      sub\n        /* \"#utility.yul\":1651:1652   */\n      0x00\n        /* \"#utility.yul\":1640:1649   */\n      dup4\n        /* \"#utility.yul\":1636:1653   */\n      add\n        /* \"#utility.yul\":1629:1676   */\n      mstore\n        /* \"#utility.yul\":1693:1771   */\n      tag_48\n        /* \"#utility.yul\":1766:1770   */\n      dup2\n        /* \"#utility.yul\":1757:1763   */\n      dup5\n        /* \"#utility.yul\":1693:1771   */\n      tag_23\n      jump\t// in\n    tag_48:\n        /* \"#utility.yul\":1685:1771   */\n      swap1\n      pop\n        /* \"#utility.yul\":1465:1778   */\n      swap3\n      swap2\n      pop\n      pop\n      jump\t// out\n        /* \"#utility.yul\":1784:1964   */\n    tag_24:\n        /* \"#utility.yul\":1832:1909   */\n      0x4e487b7100000000000000000000000000000000000000000000000000000000\n        /* \"#utility.yul\":1829:1830   */\n      0x00\n        /* \"#utility.yul\":1822:1910   */\n      mstore\n        /* \"#utility.yul\":1929:1933   */\n      0x11\n        /* \"#utility.yul\":1926:1927   */\n      0x04\n        /* \"#utility.yul\":1919:1934   */\n      mstore\n        /* \"#utility.yul\":1953:1957   */\n      0x24\n        /* \"#utility.yul\":1950:1951   */\n      0x00\n        /* \"#utility.yul\":1943:1958   */\n      revert\n        /* \"#utility.yul\":1970:2072   */\n    tag_25:\n        /* \"#utility.yul\":2012:2020   */\n      0x00\n        /* \"#utility.yul\":2059:2064   */\n      dup2\n        /* \"#utility.yul\":2056:2057   */\n      0x01\n        /* \"#utility.yul\":2052:2065   */\n      shr\n        /* \"#utility.yul\":2031:2065   */\n      swap1\n      pop\n        /* \"#utility.yul\":1970:2072   */\n      swap2\n      swap1\n      pop\n      jump\t// out\n        /* \"#utility.yul\":2078:2926   */\n    tag_26:\n        /* \"#utility.yul\":2139:2144   */\n      0x00\n        /* \"#utility.yul\":2146:2150   */\n      dup1\n        /* \"#utility.yul\":2170:2176   */\n      dup3\n        /* \"#utility.yul\":2161:2176   */\n      swap2\n      pop\n        /* \"#utility.yul\":2194:2199   */\n      dup4\n        /* \"#utility.yul\":2185:2199   */\n      swap1\n      pop\n        /* \"#utility.yul\":2208:2920   */\n    tag_52:\n        /* \"#utility.yul\":2229:2230   */\n      0x01\n        /* \"#utility.yul\":2219:2227   */\n      dup6\n        /* \"#utility.yul\":2216:2231   */\n      gt\n        /* \"#utility.yul\":2208:2920   */\n      iszero\n      tag_54\n      jumpi\n        /* \"#utility.yul\":2324:2328   */\n      dup1\n        /* \"#utility.yul\":2319:2322   */\n      dup7\n        /* \"#utility.yul\":2315:2329   */\n      div\n        /* \"#utility.yul\":2309:2313   */\n      dup2\n        /* \"#utility.yul\":2306:2330   */\n      gt\n        /* \"#utility.yul\":2303:2353   */\n      iszero\n      tag_55\n      jumpi\n        /* \"#utility.yul\":2333:2351   */\n      tag_56\n      tag_24\n      jump\t// in\n    tag_56:\n        /* \"#utility.yul\":2303:2353   */\n    tag_55:\n        /* \"#utility.yul\":2383:2384   */\n      0x01\n        /* \"#utility.yul\":2373:2381   */\n      dup6\n        /* \"#utility.yul\":2369:2385   */\n      and\n        /* \"#utility.yul\":2366:2817   */\n      iszero\n      tag_57\n      jumpi\n        /* \"#utility.yul\":2798:2802   */\n      dup1\n        /* \"#utility.yul\":2791:2796   */\n      dup3\n        /* \"#utility.yul\":2787:2803   */\n      mul\n        /* \"#utility.yul\":2778:2803   */\n      swap2\n      pop\n        /* \"#utility.yul\":2366:2817   */\n    tag_57:\n        /* \"#utility.yul\":2848:2852   */\n      dup1\n        /* \"#utility.yul\":2842:2846   */\n      dup2\n        /* \"#utility.yul\":2838:2853   */\n      mul\n        /* \"#utility.yul\":2830:2853   */\n      swap1\n      pop\n        /* \"#utility.yul\":2878:2910   */\n      tag_58\n        /* \"#utility.yul\":2901:2909   */\n      dup6\n        /* \"#utility.yul\":2878:2910   */\n      tag_25\n      jump\t// in\n    tag_58:\n        /* \"#utility.yul\":2866:2910   */\n      swap5\n      pop\n        /* \"#utility.yul\":2208:2920   */\n      jump(tag_52)\n    tag_54:\n        /* \"#utility.yul\":2078:2926   */\n      swap5\n      pop\n      swap5\n      swap3\n      pop\n      pop\n      pop\n      jump\t// out\n        /* \"#utility.yul\":2932:4005   */\n    tag_27:\n        /* \"#utility.yul\":2986:2991   */\n      0x00\n        /* \"#utility.yul\":3177:3185   */\n      dup3\n        /* \"#utility.yul\":3167:3207   */\n      tag_60\n      jumpi\n        /* \"#utility.yul\":3198:3199   */\n      0x01\n        /* \"#utility.yul\":3189:3199   */\n      swap1\n      pop\n        /* \"#utility.yul\":3200:3205   */\n      jump(tag_59)\n        /* \"#utility.yul\":3167:3207   */\n    tag_60:\n        /* \"#utility.yul\":3226:3230   */\n      dup2\n        /* \"#utility.yul\":3216:3252   */\n      tag_61\n      jumpi\n        /* \"#utility.yul\":3243:3244   */\n      0x00\n        /* \"#utility.yul\":3234:3244   */\n      swap1\n      pop\n        /* \"#utility.yul\":3245:3250   */\n      jump(tag_59)\n        /* \"#utility.yul\":3216:3252   */\n    tag_61:\n        /* \"#utility.yul\":3312:3316   */\n      dup2\n        /* \"#utility.yul\":3360:3361   */\n      0x01\n        /* \"#utility.yul\":3355:3382   */\n      dup2\n      eq\n      tag_63\n      jumpi\n        /* \"#utility.yul\":3396:3397   */\n      0x02\n        /* \"#utility.yul\":3391:3582   */\n      dup2\n      eq\n      tag_64\n      jumpi\n        /* \"#utility.yul\":3305:3582   */\n      jump(tag_62)\n        /* \"#utility.yul\":3355:3382   */\n    tag_63:\n        /* \"#utility.yul\":3373:3374   */\n      0x01\n        /* \"#utility.yul\":3364:3374   */\n      swap2\n      pop\n        /* \"#utility.yul\":3375:3380   */\n      pop\n      jump(tag_59)\n        /* \"#utility.yul\":3391:3582   */\n    tag_64:\n        /* \"#utility.yul\":3436:3439   */\n      0xff\n        /* \"#utility.yul\":3426:3434   */\n      dup5\n        /* \"#utility.yul\":3423:3440   */\n      gt\n        /* \"#utility.yul\":3420:3463   */\n      iszero\n      tag_65\n      jumpi\n        /* \"#utility.yul\":3443:3461   */\n      tag_66\n      tag_24\n      jump\t// in\n    tag_66:\n        /* \"#utility.yul\":3420:3463   */\n    tag_65:\n        /* \"#utility.yul\":3492:3500   */\n      dup4\n        /* \"#utility.yul\":3489:3490   */\n      0x02\n        /* \"#utility.yul\":3485:3501   */\n      exp\n        /* \"#utility.yul\":3476:3501   */\n      swap2\n      pop\n        /* \"#utility.yul\":3527:3530   */\n      dup5\n        /* \"#utility.yul\":3520:3525   */\n      dup3\n        /* \"#utility.yul\":3517:3531   */\n      gt\n        /* \"#utility.yul\":3514:3554   */\n      iszero\n      tag_67\n      jumpi\n        /* \"#utility.yul\":3534:3552   */\n      tag_68\n      tag_24\n      jump\t// in\n    tag_68:\n        /* \"#utility.yul\":3514:3554   */\n    tag_67:\n        /* \"#utility.yul\":3567:3572   */\n      pop\n      jump(tag_59)\n        /* \"#utility.yul\":3305:3582   */\n    tag_62:\n      pop\n        /* \"#utility.yul\":3691:3693   */\n      0x20\n        /* \"#utility.yul\":3681:3689   */\n      dup4\n        /* \"#utility.yul\":3678:3694   */\n      lt\n        /* \"#utility.yul\":3672:3675   */\n      0x0133\n        /* \"#utility.yul\":3666:3670   */\n      dup4\n        /* \"#utility.yul\":3663:3676   */\n      lt\n        /* \"#utility.yul\":3659:3695   */\n      and\n        /* \"#utility.yul\":3641:3643   */\n      0x4e\n        /* \"#utility.yul\":3631:3639   */\n      dup5\n        /* \"#utility.yul\":3628:3644   */\n      lt\n        /* \"#utility.yul\":3623:3625   */\n      0x0b\n        /* \"#utility.yul\":3617:3621   */\n      dup5\n        /* \"#utility.yul\":3614:3626   */\n      lt\n        /* \"#utility.yul\":3610:3645   */\n      and\n        /* \"#utility.yul\":3594:3705   */\n      or\n        /* \"#utility.yul\":3591:3837   */\n      iszero\n      tag_69\n      jumpi\n        /* \"#utility.yul\":3747:3755   */\n      dup3\n        /* \"#utility.yul\":3741:3745   */\n      dup3\n        /* \"#utility.yul\":3737:3756   */\n      exp\n        /* \"#utility.yul\":3728:3756   */\n      swap1\n      pop\n        /* \"#utility.yul\":3782:3785   */\n      dup4\n        /* \"#utility.yul\":3775:3780   */\n      dup2\n        /* \"#utility.yul\":3772:3786   */\n      gt\n        /* \"#utility.yul\":3769:3809   */\n      iszero\n      tag_70\n      jumpi\n        /* \"#utility.yul\":3789:3807   */\n      tag_71\n      tag_24\n      jump\t// in\n    tag_71:\n        /* \"#utility.yul\":3769:3809   */\n    tag_70:\n        /* \"#utility.yul\":3822:3827   */\n      jump(tag_59)\n        /* \"#utility.yul\":3591:3837   */\n    tag_69:\n        /* \"#utility.yul\":3862:3904   */\n      tag_72\n        /* \"#utility.yul\":3900:3903   */\n      dup5\n        /* \"#utility.yul\":3890:3898   */\n      dup5\n        /* \"#utility.yul\":3884:3888   */\n      dup5\n        /* \"#utility.yul\":3881:3882   */\n      0x01\n        /* \"#utility.yul\":3862:3904   */\n      tag_26\n      jump\t// in\n    tag_72:\n        /* \"#utility.yul\":3847:3904   */\n      swap3\n      pop\n      swap1\n      pop\n        /* \"#utility.yul\":3936:3940   */\n      dup2\n        /* \"#utility.yul\":3931:3934   */\n      dup5\n        /* \"#utility.yul\":3927:3941   */\n      div\n        /* \"#utility.yul\":3920:3925   */\n      dup2\n        /* \"#utility.yul\":3917:3942   */\n      gt\n        /* \"#utility.yul\":3914:3965   */\n      iszero\n      tag_73\n      jumpi\n        /* \"#utility.yul\":3945:3963   */\n      tag_74\n      tag_24\n      jump\t// in\n    tag_74:\n        /* \"#utility.yul\":3914:3965   */\n    tag_73:\n        /* \"#utility.yul\":3994:3998   */\n      dup2\n        /* \"#utility.yul\":3987:3992   */\n      dup2\n        /* \"#utility.yul\":3983:3999   */\n      mul\n        /* \"#utility.yul\":3974:3999   */\n      swap1\n      pop\n        /* \"#utility.yul\":2932:4005   */\n    tag_59:\n      swap4\n      swap3\n      pop\n      pop\n      pop\n      jump\t// out\n        /* \"#utility.yul\":4011:4097   */\n    tag_28:\n        /* \"#utility.yul\":4046:4053   */\n      0x00\n        /* \"#utility.yul\":4086:4090   */\n      0xff\n        /* \"#utility.yul\":4079:4084   */\n      dup3\n        /* \"#utility.yul\":4075:4091   */\n      and\n        /* \"#utility.yul\":4064:4091   */\n      swap1\n      pop\n        /* \"#utility.yul\":4011:4097   */\n      swap2\n      swap1\n      pop\n      jump\t// out\n        /* \"#utility.yul\":4103:4384   */\n    tag_15:\n        /* \"#utility.yul\":4161:4166   */\n      0x00\n        /* \"#utility.yul\":4185:4208   */\n      tag_77\n        /* \"#utility.yul\":4203:4207   */\n      dup3\n        /* \"#utility.yul\":4185:4208   */\n      tag_17\n      jump\t// in\n    tag_77:\n        /* \"#utility.yul\":4177:4208   */\n      swap2\n      pop\n        /* \"#utility.yul\":4229:4254   */\n      tag_78\n        /* \"#utility.yul\":4245:4253   */\n      dup4\n        /* \"#utility.yul\":4229:4254   */\n      tag_28\n      jump\t// in\n    tag_78:\n        /* \"#utility.yul\":4217:4254   */\n      swap3\n      pop\n        /* \"#utility.yul\":4273:4377   */\n      tag_79\n        /* \"#utility.yul\":4310:4376   */\n      0xffffffffffffffffffffffffffffffffffffffffffffffffffffffffffffffff\n        /* \"#utility.yul\":4300:4308   */\n      dup5\n        /* \"#utility.yul\":4294:4298   */\n      dup5\n        /* \"#utility.yul\":4273:4377   */\n      tag_27\n      jump\t// in\n    tag_79:\n        /* \"#utility.yul\":4264:4377   */\n      swap1\n      pop\n        /* \"#utility.yul\":4103:4384   */\n      swap3\n      swap2\n      pop\n      pop\n      jump\t// out\n\n    auxdata: 0xa2646970667358221220fb6dad3dbb6ad78d12396c56061fae6264618e0a5e280061b2a768585b149c2d64736f6c63430008120033\n}\n",
				"bytecode": {
					"linkReferences": {},
					"object": "608060405234801561001057600080fd5b50600280600081905550506103a58061002a6000396000f3fe608060405234801561001057600080fd5b50600436106100365760003560e01c80633bc5de301461003b578063581bde6914610059575b600080fd5b610043610077565b60405161005091906100e8565b60405180910390f35b610061610092565b60405161006e9190610193565b60405180910390f35b60008060026000546100899190610324565b90508091505090565b60606040518060400160405280601581526020017f44697265637420496e697469616c697a6174696f6e0000000000000000000000815250905090565b6000819050919050565b6100e2816100cf565b82525050565b60006020820190506100fd60008301846100d9565b92915050565b600081519050919050565b600082825260208201905092915050565b60005b8381101561013d578082015181840152602081019050610122565b60008484015250505050565b6000601f19601f8301169050919050565b600061016582610103565b61016f818561010e565b935061017f81856020860161011f565b61018881610149565b840191505092915050565b600060208201905081810360008301526101ad818461015a565b905092915050565b7f4e487b7100000000000000000000000000000000000000000000000000000000600052601160045260246000fd5b60008160011c9050919050565b6000808291508390505b600185111561023b57808604811115610217576102166101b5565b5b60018516156102265780820291505b8081029050610234856101e4565b94506101fb565b94509492505050565b6000826102545760019050610310565b816102625760009050610310565b81600181146102785760028114610282576102b1565b6001915050610310565b60ff841115610294576102936101b5565b5b8360020a9150848211156102ab576102aa6101b5565b5b50610310565b5060208310610133831016604e8410600b84101617156102e65782820a9050838111156102e1576102e06101b5565b5b610310565b6102f384848460016101f1565b9250905081840481111561030a576103096101b5565b5b81810290505b9392505050565b600060ff82169050919050565b600061032f826100cf565b915061033a83610317565b92506103677fffffffffffffffffffffffffffffffffffffffffffffffffffffffffffffffff8484610244565b90509291505056fea2646970667358221220fb6dad3dbb6ad78d12396c56061fae6264618e0a5e280061b2a768585b149c2d64736f6c63430008120033",
					"opcodes": "PUSH1 0x80 PUSH1 0x40 MSTORE CALLVALUE DUP1 ISZERO PUSH2 0x10 JUMPI PUSH1 0x0 DUP1 REVERT JUMPDEST POP PUSH1 0x2 DUP1 PUSH1 0x0 DUP2 SWAP1 SSTORE POP POP PUSH2 0x3A5 DUP1 PUSH2 0x2A PUSH1 0x0 CODECOPY PUSH1 0x0 RETURN INVALID PUSH1 0x80 PUSH1 0x40 MSTORE CALLVALUE DUP1 ISZERO PUSH2 0x10 JUMPI PUSH1 0x0 DUP1 REVERT JUMPDEST POP PUSH1 0x4 CALLDATASIZE LT PUSH2 0x36 JUMPI PUSH1 0x0 CALLDATALOAD PUSH1 0xE0 SHR DUP1 PUSH4 0x3BC5DE30 EQ PUSH2 0x3B JUMPI DUP1 PUSH4 0x581BDE69 EQ PUSH2 0x59 JUMPI JUMPDEST PUSH1 0x0 DUP1 REVERT JUMPDEST PUSH2 0x43 PUSH2 0x77 JUMP JUMPDEST PUSH1 0x40 MLOAD PUSH2 0x50 SWAP2 SWAP1 PUSH2 0xE8 JUMP JUMPDEST PUSH1 0x40 MLOAD DUP1 SWAP2 SUB SWAP1 RETURN JUMPDEST PUSH2 0x61 PUSH2 0x92 JUMP JUMPDEST PUSH1 0x40 MLOAD PUSH2 0x6E SWAP2 SWAP1 PUSH2 0x193 JUMP JUMPDEST PUSH1 0x40 MLOAD DUP1 SWAP2 SUB SWAP1 RETURN JUMPDEST PUSH1 0x0 DUP1 PUSH1 0x2 PUSH1 0x0 SLOAD PUSH2 0x89 SWAP2 SWAP1 PUSH2 0x324 JUMP JUMPDEST SWAP1 POP DUP1 SWAP2 POP POP SWAP1 JUMP JUMPDEST PUSH1 0x60 PUSH1 0x40 MLOAD DUP1 PUSH1 0x40 ADD PUSH1 0x40 MSTORE DUP1 PUSH1 0x15 DUP2 MSTORE PUSH1 0x20 ADD PUSH32 0x44697265637420496E697469616C697A6174696F6E0000000000000000000000 DUP2 MSTORE POP SWAP1 POP SWAP1 JUMP JUMPDEST PUSH1 0x0 DUP2 SWAP1 POP SWAP2 SWAP1 POP JUMP JUMPDEST PUSH2 0xE2 DUP2 PUSH2 0xCF JUMP JUMPDEST DUP3 MSTORE POP POP JUMP JUMPDEST PUSH1 0x0 PUSH1 0x20 DUP3 ADD SWAP1 POP PUSH2 0xFD PUSH1 0x0 DUP4 ADD DUP5 PUSH2 0xD9 JUMP JUMPDEST SWAP3 SWAP2 POP POP JUMP JUMPDEST PUSH1 0x0 DUP2 MLOAD SWAP1 POP SWAP2 SWAP1 POP JUMP JUMPDEST PUSH1 0x0 DUP3 DUP3 MSTORE PUSH1 0x20 DUP3 ADD SWAP1 POP SWAP3 SWAP2 POP POP JUMP JUMPDEST PUSH1 0x0 JUMPDEST DUP4 DUP2 LT ISZERO PUSH2 0x13D JUMPI DUP1 DUP3 ADD MLOAD DUP2 DUP5 ADD MSTORE PUSH1 0x20 DUP2 ADD SWAP1 POP PUSH2 0x122 JUMP JUMPDEST PUSH1 0x0 DUP5 DUP5 ADD MSTORE POP POP POP POP JUMP JUMPDEST PUSH1 0x0 PUSH1 0x1F NOT PUSH1 0x1F DUP4 ADD AND SWAP1 POP SWAP2 SWAP1 POP JUMP JUMPDEST PUSH1 0x0 PUSH2 0x165 DUP3 PUSH2 0x103 JUMP JUMPDEST PUSH2 0x16F DUP2 DUP6 PUSH2 0x10E JUMP JUMPDEST SWAP4 POP PUSH2 0x17F DUP2 DUP6 PUSH1 0x20 DUP7 ADD PUSH2 0x11F JUMP JUMPDEST PUSH2 0x188 DUP2 PUSH2 0x149 JUMP JUMPDEST DUP5 ADD SWAP2 POP POP SWAP3 SWAP2 POP POP JUMP JUMPDEST PUSH1 0x0 PUSH1 0x20 DUP3 ADD SWAP1 POP DUP2 DUP2 SUB PUSH1 0x0 DUP4 ADD MSTORE PUSH2 0x1AD DUP2 DUP5 PUSH2 0x15A JUMP JUMPDEST SWAP1 POP SWAP3 SWAP2 POP POP JUMP JUMPDEST PUSH32 0x4E487B7100000000000000000000000000000000000000000000000000000000 PUSH1 0x0 MSTORE PUSH1 0x11 PUSH1 0x4 MSTORE PUSH1 0x24 PUSH1 0x0 REVERT JUMPDEST PUSH1 0x0 DUP2 PUSH1 0x1 SHR SWAP1 POP SWAP2 SWAP1 POP JUMP JUMPDEST PUSH1 0x0 DUP1 DUP3 SWAP2 POP DUP4 SWAP1 POP JUMPDEST PUSH1 0x1 DUP6 GT ISZERO PUSH2 0x23B JUMPI DUP1 DUP7 DIV DUP2 GT ISZERO PUSH2 0x217 JUMPI PUSH2 0x216 PUSH2 0x1B5 JUMP JUMPDEST JUMPDEST PUSH1 0x1 DUP6 AND ISZERO PUSH2 0x226 JUMPI DUP1 DUP3 MUL SWAP2 POP JUMPDEST DUP1 DUP2 MUL SWAP1 POP PUSH2 0x234 DUP6 PUSH2 0x1E4 JUMP JUMPDEST SWAP5 POP PUSH2 0x1FB JUMP JUMPDEST SWAP5 POP SWAP5 SWAP3 POP POP POP JUMP JUMPDEST PUSH1 0x0 DUP3 PUSH2 0x254 JUMPI PUSH1 0x1 SWAP1 POP PUSH2 0x310 JUMP JUMPDEST DUP2 PUSH2 0x262 JUMPI PUSH1 0x0 SWAP1 POP PUSH2 0x310 JUMP JUMPDEST DUP2 PUSH1 0x1 DUP2 EQ PUSH2 0x278 JUMPI PUSH1 0x2 DUP2 EQ PUSH2 0x282 JUMPI PUSH2 0x2B1 JUMP JUMPDEST PUSH1 0x1 SWAP2 POP POP PUSH2 0x310 JUMP JUMPDEST PUSH1 0xFF DUP5 GT ISZERO PUSH2 0x294 JUMPI PUSH2 0x293 PUSH2 0x1B5 JUMP JUMPDEST JUMPDEST DUP4 PUSH1 0x2 EXP SWAP2 POP DUP5 DUP3 GT ISZERO PUSH2 0x2AB JUMPI PUSH2 0x2AA PUSH2 0x1B5 JUMP JUMPDEST JUMPDEST POP PUSH2 0x310 JUMP JUMPDEST POP PUSH1 0x20 DUP4 LT PUSH2 0x133 DUP4 LT AND PUSH1 0x4E DUP5 LT PUSH1 0xB DUP5 LT AND OR ISZERO PUSH2 0x2E6 JUMPI DUP3 DUP3 EXP SWAP1 POP DUP4 DUP2 GT ISZERO PUSH2 0x2E1 JUMPI PUSH2 0x2E0 PUSH2 0x1B5 JUMP JUMPDEST JUMPDEST PUSH2 0x310 JUMP JUMPDEST PUSH2 0x2F3 DUP5 DUP5 DUP5 PUSH1 0x1 PUSH2 0x1F1 JUMP JUMPDEST SWAP3 POP SWAP1 POP DUP2 DUP5 DIV DUP2 GT ISZERO PUSH2 0x30A JUMPI PUSH2 0x309 PUSH2 0x1B5 JUMP JUMPDEST JUMPDEST DUP2 DUP2 MUL SWAP1 POP JUMPDEST SWAP4 SWAP3 POP POP POP JUMP JUMPDEST PUSH1 0x0 PUSH1 0xFF DUP3 AND SWAP1 POP SWAP2 SWAP1 POP JUMP JUMPDEST PUSH1 0x0 PUSH2 0x32F DUP3 PUSH2 0xCF JUMP JUMPDEST SWAP2 POP PUSH2 0x33A DUP4 PUSH2 0x317 JUMP JUMPDEST SWAP3 POP PUSH2 0x367 PUSH32 0xFFFFFFFFFFFFFFFFFFFFFFFFFFFFFFFFFFFFFFFFFFFFFFFFFFFFFFFFFFFFFFFF DUP5 DUP5 PUSH2 0x244 JUMP JUMPDEST SWAP1 POP SWAP3 SWAP2 POP POP JUMP INVALID LOG2 PUSH5 0x6970667358 0x22 SLT KECCAK256 0xFB PUSH14 0xAD3DBB6AD78D12396C56061FAE62 PUSH5 0x618E0A5E28 STOP PUSH2 0xB2A7 PUSH9 0x585B149C2D64736F6C PUSH4 0x43000812 STOP CALLER "
				},
				"gasEstimates": {
					"creation": {
						"codeDepositCost": "186600",
						"executionCost": "22351",
						"totalCost": "208951"
					},
					"external": {
						"Print()": "infinite",
						"getData()": "infinite"
					}
				},
				"methodIdentifiers": {
					"Print()": "581bde69",
					"getData()": "3bc5de30"
				}
			},
			"storageLayout": {
				"storage": [
					{
						"astId": 3,
						"contract": "lab 16-08-2023/Inheritlogs.sol:Derived",
						"label": "data",
						"offset": 0,
						"slot": "0",
						"type": "t_uint256"
					}
				],
				"types": {
					"t_uint256": {
						"encoding": "inplace",
						"label": "uint256",
						"numberOfBytes": "32"
					}
				}
			},
			"userdoc": {
				"kind": "user",
				"methods": {},
				"version": 1
			}
		}
	}
}