{
	"lab 16-08-2023/Task5.sol": {
		"Product": {
			"abi": [
				{
					"inputs": [
						{
							"internalType": "string",
							"name": "_supplierName",
							"type": "string"
						},
						{
							"internalType": "string",
							"name": "_manufacturerName",
							"type": "string"
						},
						{
							"internalType": "string",
							"name": "_productName",
							"type": "string"
						}
					],
					"stateMutability": "nonpayable",
					"type": "constructor"
				},
				{
					"inputs": [],
					"name": "manufactureProduct",
					"outputs": [
						{
							"internalType": "string",
							"name": "",
							"type": "string"
						}
					],
					"stateMutability": "pure",
					"type": "function"
				},
				{
					"inputs": [],
					"name": "manufacturerName",
					"outputs": [
						{
							"internalType": "string",
							"name": "",
							"type": "string"
						}
					],
					"stateMutability": "view",
					"type": "function"
				},
				{
					"inputs": [],
					"name": "owner",
					"outputs": [
						{
							"internalType": "address",
							"name": "",
							"type": "address"
						}
					],
					"stateMutability": "view",
					"type": "function"
				},
				{
					"inputs": [],
					"name": "placeOrder",
					"outputs": [
						{
							"internalType": "string",
							"name": "",
							"type": "string"
						}
					],
					"stateMutability": "pure",
					"type": "function"
				},
				{
					"inputs": [],
					"name": "productName",
					"outputs": [
						{
							"internalType": "string",
							"name": "",
							"type": "string"
						}
					],
					"stateMutability": "view",
					"type": "function"
				},
				{
					"inputs": [],
					"name": "supplierName",
					"outputs": [
						{
							"internalType": "string",
							"name": "",
							"type": "string"
						}
					],
					"stateMutability": "view",
					"type": "function"
				},
				{
					"inputs": [],
					"name": "trackProduct",
					"outputs": [
						{
							"internalType": "string",
							"name": "",
							"type": "string"
						}
					],
					"stateMutability": "pure",
					"type": "function"
				}
			],
			"devdoc": {
				"kind": "dev",
				"methods": {},
				"version": 1
			},
			"evm": {
				"assembly": "    /* \"lab 16-08-2023/Task5.sol\":797:1257  contract Product is Supplier, Manufacturer {... */\n  mstore(0x40, 0x80)\n    /* \"lab 16-08-2023/Task5.sol\":881:1141  constructor(... */\n  callvalue\n  dup1\n  iszero\n  tag_1\n  jumpi\n  0x00\n  dup1\n  revert\ntag_1:\n  pop\n  mload(0x40)\n  sub(codesize, bytecodeSize)\n  dup1\n  bytecodeSize\n  dup4\n  codecopy\n  dup2\n  dup2\n  add\n  0x40\n  mstore\n  dup2\n  add\n  swap1\n  tag_2\n  swap2\n  swap1\n  tag_3\n  jump\t// in\ntag_2:\n    /* \"lab 16-08-2023/Task5.sol\":1072:1089  _manufacturerName */\n  dup2\n    /* \"lab 16-08-2023/Task5.sol\":1035:1048  _supplierName */\n  dup4\n    /* \"lab 16-08-2023/Task5.sol\":150:160  msg.sender */\n  caller\n    /* \"lab 16-08-2023/Task5.sol\":142:147  owner */\n  0x00\n  dup1\n    /* \"lab 16-08-2023/Task5.sol\":142:160  owner = msg.sender */\n  0x0100\n  exp\n  dup2\n  sload\n  dup2\n  0xffffffffffffffffffffffffffffffffffffffff\n  mul\n  not\n  and\n  swap1\n  dup4\n  0xffffffffffffffffffffffffffffffffffffffff\n  and\n  mul\n  or\n  swap1\n  sstore\n  pop\n    /* \"lab 16-08-2023/Task5.sol\":317:330  _supplierName */\n  dup1\n    /* \"lab 16-08-2023/Task5.sol\":302:314  supplierName */\n  0x01\n    /* \"lab 16-08-2023/Task5.sol\":302:330  supplierName = _supplierName */\n  swap1\n  dup2\n  tag_10\n  swap2\n  swap1\n  tag_11\n  jump\t// in\ntag_10:\n  pop\n    /* \"lab 16-08-2023/Task5.sol\":250:338  constructor(string memory _supplierName) {... */\n  pop\n    /* \"lab 16-08-2023/Task5.sol\":625:642  _manufacturerName */\n  dup1\n    /* \"lab 16-08-2023/Task5.sol\":606:622  manufacturerName */\n  0x02\n    /* \"lab 16-08-2023/Task5.sol\":606:642  manufacturerName = _manufacturerName */\n  swap1\n  dup2\n  tag_13\n  swap2\n  swap1\n  tag_11\n  jump\t// in\ntag_13:\n  pop\n    /* \"lab 16-08-2023/Task5.sol\":550:650  constructor(string memory _manufacturerName) {... */\n  pop\n    /* \"lab 16-08-2023/Task5.sol\":1121:1133  _productName */\n  dup1\n    /* \"lab 16-08-2023/Task5.sol\":1107:1118  productName */\n  0x03\n    /* \"lab 16-08-2023/Task5.sol\":1107:1133  productName = _productName */\n  swap1\n  dup2\n  tag_15\n  swap2\n  swap1\n  tag_11\n  jump\t// in\ntag_15:\n  pop\n    /* \"lab 16-08-2023/Task5.sol\":881:1141  constructor(... */\n  pop\n  pop\n  pop\n    /* \"lab 16-08-2023/Task5.sol\":797:1257  contract Product is Supplier, Manufacturer {... */\n  jump(tag_16)\n    /* \"#utility.yul\":7:82   */\ntag_17:\n    /* \"#utility.yul\":40:46   */\n  0x00\n    /* \"#utility.yul\":73:75   */\n  0x40\n    /* \"#utility.yul\":67:76   */\n  mload\n    /* \"#utility.yul\":57:76   */\n  swap1\n  pop\n    /* \"#utility.yul\":7:82   */\n  swap1\n  jump\t// out\n    /* \"#utility.yul\":88:205   */\ntag_18:\n    /* \"#utility.yul\":197:198   */\n  0x00\n    /* \"#utility.yul\":194:195   */\n  dup1\n    /* \"#utility.yul\":187:199   */\n  revert\n    /* \"#utility.yul\":211:328   */\ntag_19:\n    /* \"#utility.yul\":320:321   */\n  0x00\n    /* \"#utility.yul\":317:318   */\n  dup1\n    /* \"#utility.yul\":310:322   */\n  revert\n    /* \"#utility.yul\":334:451   */\ntag_20:\n    /* \"#utility.yul\":443:444   */\n  0x00\n    /* \"#utility.yul\":440:441   */\n  dup1\n    /* \"#utility.yul\":433:445   */\n  revert\n    /* \"#utility.yul\":457:574   */\ntag_21:\n    /* \"#utility.yul\":566:567   */\n  0x00\n    /* \"#utility.yul\":563:564   */\n  dup1\n    /* \"#utility.yul\":556:568   */\n  revert\n    /* \"#utility.yul\":580:682   */\ntag_22:\n    /* \"#utility.yul\":621:627   */\n  0x00\n    /* \"#utility.yul\":672:674   */\n  0x1f\n    /* \"#utility.yul\":668:675   */\n  not\n    /* \"#utility.yul\":663:665   */\n  0x1f\n    /* \"#utility.yul\":656:661   */\n  dup4\n    /* \"#utility.yul\":652:666   */\n  add\n    /* \"#utility.yul\":648:676   */\n  and\n    /* \"#utility.yul\":638:676   */\n  swap1\n  pop\n    /* \"#utility.yul\":580:682   */\n  swap2\n  swap1\n  pop\n  jump\t// out\n    /* \"#utility.yul\":688:868   */\ntag_23:\n    /* \"#utility.yul\":736:813   */\n  0x4e487b7100000000000000000000000000000000000000000000000000000000\n    /* \"#utility.yul\":733:734   */\n  0x00\n    /* \"#utility.yul\":726:814   */\n  mstore\n    /* \"#utility.yul\":833:837   */\n  0x41\n    /* \"#utility.yul\":830:831   */\n  0x04\n    /* \"#utility.yul\":823:838   */\n  mstore\n    /* \"#utility.yul\":857:861   */\n  0x24\n    /* \"#utility.yul\":854:855   */\n  0x00\n    /* \"#utility.yul\":847:862   */\n  revert\n    /* \"#utility.yul\":874:1155   */\ntag_24:\n    /* \"#utility.yul\":957:984   */\n  tag_58\n    /* \"#utility.yul\":979:983   */\n  dup3\n    /* \"#utility.yul\":957:984   */\n  tag_22\n  jump\t// in\ntag_58:\n    /* \"#utility.yul\":949:955   */\n  dup2\n    /* \"#utility.yul\":945:985   */\n  add\n    /* \"#utility.yul\":1087:1093   */\n  dup2\n    /* \"#utility.yul\":1075:1085   */\n  dup2\n    /* \"#utility.yul\":1072:1094   */\n  lt\n    /* \"#utility.yul\":1051:1069   */\n  0xffffffffffffffff\n    /* \"#utility.yul\":1039:1049   */\n  dup3\n    /* \"#utility.yul\":1036:1070   */\n  gt\n    /* \"#utility.yul\":1033:1095   */\n  or\n    /* \"#utility.yul\":1030:1118   */\n  iszero\n  tag_59\n  jumpi\n    /* \"#utility.yul\":1098:1116   */\n  tag_60\n  tag_23\n  jump\t// in\ntag_60:\n    /* \"#utility.yul\":1030:1118   */\ntag_59:\n    /* \"#utility.yul\":1138:1148   */\n  dup1\n    /* \"#utility.yul\":1134:1136   */\n  0x40\n    /* \"#utility.yul\":1127:1149   */\n  mstore\n    /* \"#utility.yul\":917:1155   */\n  pop\n    /* \"#utility.yul\":874:1155   */\n  pop\n  pop\n  jump\t// out\n    /* \"#utility.yul\":1161:1290   */\ntag_25:\n    /* \"#utility.yul\":1195:1201   */\n  0x00\n    /* \"#utility.yul\":1222:1242   */\n  tag_62\n  tag_17\n  jump\t// in\ntag_62:\n    /* \"#utility.yul\":1212:1242   */\n  swap1\n  pop\n    /* \"#utility.yul\":1251:1284   */\n  tag_63\n    /* \"#utility.yul\":1279:1283   */\n  dup3\n    /* \"#utility.yul\":1271:1277   */\n  dup3\n    /* \"#utility.yul\":1251:1284   */\n  tag_24\n  jump\t// in\ntag_63:\n    /* \"#utility.yul\":1161:1290   */\n  swap2\n  swap1\n  pop\n  jump\t// out\n    /* \"#utility.yul\":1296:1604   */\ntag_26:\n    /* \"#utility.yul\":1358:1362   */\n  0x00\n    /* \"#utility.yul\":1448:1466   */\n  0xffffffffffffffff\n    /* \"#utility.yul\":1440:1446   */\n  dup3\n    /* \"#utility.yul\":1437:1467   */\n  gt\n    /* \"#utility.yul\":1434:1490   */\n  iszero\n  tag_65\n  jumpi\n    /* \"#utility.yul\":1470:1488   */\n  tag_66\n  tag_23\n  jump\t// in\ntag_66:\n    /* \"#utility.yul\":1434:1490   */\ntag_65:\n    /* \"#utility.yul\":1508:1537   */\n  tag_67\n    /* \"#utility.yul\":1530:1536   */\n  dup3\n    /* \"#utility.yul\":1508:1537   */\n  tag_22\n  jump\t// in\ntag_67:\n    /* \"#utility.yul\":1500:1537   */\n  swap1\n  pop\n    /* \"#utility.yul\":1592:1596   */\n  0x20\n    /* \"#utility.yul\":1586:1590   */\n  dup2\n    /* \"#utility.yul\":1582:1597   */\n  add\n    /* \"#utility.yul\":1574:1597   */\n  swap1\n  pop\n    /* \"#utility.yul\":1296:1604   */\n  swap2\n  swap1\n  pop\n  jump\t// out\n    /* \"#utility.yul\":1610:1856   */\ntag_27:\n    /* \"#utility.yul\":1691:1692   */\n  0x00\n    /* \"#utility.yul\":1701:1814   */\ntag_69:\n    /* \"#utility.yul\":1715:1721   */\n  dup4\n    /* \"#utility.yul\":1712:1713   */\n  dup2\n    /* \"#utility.yul\":1709:1722   */\n  lt\n    /* \"#utility.yul\":1701:1814   */\n  iszero\n  tag_71\n  jumpi\n    /* \"#utility.yul\":1800:1801   */\n  dup1\n    /* \"#utility.yul\":1795:1798   */\n  dup3\n    /* \"#utility.yul\":1791:1802   */\n  add\n    /* \"#utility.yul\":1785:1803   */\n  mload\n    /* \"#utility.yul\":1781:1782   */\n  dup2\n    /* \"#utility.yul\":1776:1779   */\n  dup5\n    /* \"#utility.yul\":1772:1783   */\n  add\n    /* \"#utility.yul\":1765:1804   */\n  mstore\n    /* \"#utility.yul\":1737:1739   */\n  0x20\n    /* \"#utility.yul\":1734:1735   */\n  dup2\n    /* \"#utility.yul\":1730:1740   */\n  add\n    /* \"#utility.yul\":1725:1740   */\n  swap1\n  pop\n    /* \"#utility.yul\":1701:1814   */\n  jump(tag_69)\ntag_71:\n    /* \"#utility.yul\":1848:1849   */\n  0x00\n    /* \"#utility.yul\":1839:1845   */\n  dup5\n    /* \"#utility.yul\":1834:1837   */\n  dup5\n    /* \"#utility.yul\":1830:1846   */\n  add\n    /* \"#utility.yul\":1823:1850   */\n  mstore\n    /* \"#utility.yul\":1672:1856   */\n  pop\n    /* \"#utility.yul\":1610:1856   */\n  pop\n  pop\n  pop\n  jump\t// out\n    /* \"#utility.yul\":1862:2296   */\ntag_28:\n    /* \"#utility.yul\":1951:1956   */\n  0x00\n    /* \"#utility.yul\":1976:2042   */\n  tag_73\n    /* \"#utility.yul\":1992:2041   */\n  tag_74\n    /* \"#utility.yul\":2034:2040   */\n  dup5\n    /* \"#utility.yul\":1992:2041   */\n  tag_26\n  jump\t// in\ntag_74:\n    /* \"#utility.yul\":1976:2042   */\n  tag_25\n  jump\t// in\ntag_73:\n    /* \"#utility.yul\":1967:2042   */\n  swap1\n  pop\n    /* \"#utility.yul\":2065:2071   */\n  dup3\n    /* \"#utility.yul\":2058:2063   */\n  dup2\n    /* \"#utility.yul\":2051:2072   */\n  mstore\n    /* \"#utility.yul\":2103:2107   */\n  0x20\n    /* \"#utility.yul\":2096:2101   */\n  dup2\n    /* \"#utility.yul\":2092:2108   */\n  add\n    /* \"#utility.yul\":2141:2144   */\n  dup5\n    /* \"#utility.yul\":2132:2138   */\n  dup5\n    /* \"#utility.yul\":2127:2130   */\n  dup5\n    /* \"#utility.yul\":2123:2139   */\n  add\n    /* \"#utility.yul\":2120:2145   */\n  gt\n    /* \"#utility.yul\":2117:2229   */\n  iszero\n  tag_75\n  jumpi\n    /* \"#utility.yul\":2148:2227   */\n  tag_76\n  tag_21\n  jump\t// in\ntag_76:\n    /* \"#utility.yul\":2117:2229   */\ntag_75:\n    /* \"#utility.yul\":2238:2290   */\n  tag_77\n    /* \"#utility.yul\":2283:2289   */\n  dup5\n    /* \"#utility.yul\":2278:2281   */\n  dup3\n    /* \"#utility.yul\":2273:2276   */\n  dup6\n    /* \"#utility.yul\":2238:2290   */\n  tag_27\n  jump\t// in\ntag_77:\n    /* \"#utility.yul\":1957:2296   */\n  pop\n    /* \"#utility.yul\":1862:2296   */\n  swap4\n  swap3\n  pop\n  pop\n  pop\n  jump\t// out\n    /* \"#utility.yul\":2316:2671   */\ntag_29:\n    /* \"#utility.yul\":2383:2388   */\n  0x00\n    /* \"#utility.yul\":2432:2435   */\n  dup3\n    /* \"#utility.yul\":2425:2429   */\n  0x1f\n    /* \"#utility.yul\":2417:2423   */\n  dup4\n    /* \"#utility.yul\":2413:2430   */\n  add\n    /* \"#utility.yul\":2409:2436   */\n  slt\n    /* \"#utility.yul\":2399:2521   */\n  tag_79\n  jumpi\n    /* \"#utility.yul\":2440:2519   */\n  tag_80\n  tag_20\n  jump\t// in\ntag_80:\n    /* \"#utility.yul\":2399:2521   */\ntag_79:\n    /* \"#utility.yul\":2550:2556   */\n  dup2\n    /* \"#utility.yul\":2544:2557   */\n  mload\n    /* \"#utility.yul\":2575:2665   */\n  tag_81\n    /* \"#utility.yul\":2661:2664   */\n  dup5\n    /* \"#utility.yul\":2653:2659   */\n  dup3\n    /* \"#utility.yul\":2646:2650   */\n  0x20\n    /* \"#utility.yul\":2638:2644   */\n  dup7\n    /* \"#utility.yul\":2634:2651   */\n  add\n    /* \"#utility.yul\":2575:2665   */\n  tag_28\n  jump\t// in\ntag_81:\n    /* \"#utility.yul\":2566:2665   */\n  swap2\n  pop\n    /* \"#utility.yul\":2389:2671   */\n  pop\n    /* \"#utility.yul\":2316:2671   */\n  swap3\n  swap2\n  pop\n  pop\n  jump\t// out\n    /* \"#utility.yul\":2677:3859   */\ntag_3:\n    /* \"#utility.yul\":2795:2801   */\n  0x00\n    /* \"#utility.yul\":2803:2809   */\n  dup1\n    /* \"#utility.yul\":2811:2817   */\n  0x00\n    /* \"#utility.yul\":2860:2862   */\n  0x60\n    /* \"#utility.yul\":2848:2857   */\n  dup5\n    /* \"#utility.yul\":2839:2846   */\n  dup7\n    /* \"#utility.yul\":2835:2858   */\n  sub\n    /* \"#utility.yul\":2831:2863   */\n  slt\n    /* \"#utility.yul\":2828:2947   */\n  iszero\n  tag_83\n  jumpi\n    /* \"#utility.yul\":2866:2945   */\n  tag_84\n  tag_18\n  jump\t// in\ntag_84:\n    /* \"#utility.yul\":2828:2947   */\ntag_83:\n    /* \"#utility.yul\":3007:3008   */\n  0x00\n    /* \"#utility.yul\":2996:3005   */\n  dup5\n    /* \"#utility.yul\":2992:3009   */\n  add\n    /* \"#utility.yul\":2986:3010   */\n  mload\n    /* \"#utility.yul\":3037:3055   */\n  0xffffffffffffffff\n    /* \"#utility.yul\":3029:3035   */\n  dup2\n    /* \"#utility.yul\":3026:3056   */\n  gt\n    /* \"#utility.yul\":3023:3140   */\n  iszero\n  tag_85\n  jumpi\n    /* \"#utility.yul\":3059:3138   */\n  tag_86\n  tag_19\n  jump\t// in\ntag_86:\n    /* \"#utility.yul\":3023:3140   */\ntag_85:\n    /* \"#utility.yul\":3164:3238   */\n  tag_87\n    /* \"#utility.yul\":3230:3237   */\n  dup7\n    /* \"#utility.yul\":3221:3227   */\n  dup3\n    /* \"#utility.yul\":3210:3219   */\n  dup8\n    /* \"#utility.yul\":3206:3228   */\n  add\n    /* \"#utility.yul\":3164:3238   */\n  tag_29\n  jump\t// in\ntag_87:\n    /* \"#utility.yul\":3154:3238   */\n  swap4\n  pop\n    /* \"#utility.yul\":2957:3248   */\n  pop\n    /* \"#utility.yul\":3308:3310   */\n  0x20\n    /* \"#utility.yul\":3297:3306   */\n  dup5\n    /* \"#utility.yul\":3293:3311   */\n  add\n    /* \"#utility.yul\":3287:3312   */\n  mload\n    /* \"#utility.yul\":3339:3357   */\n  0xffffffffffffffff\n    /* \"#utility.yul\":3331:3337   */\n  dup2\n    /* \"#utility.yul\":3328:3358   */\n  gt\n    /* \"#utility.yul\":3325:3442   */\n  iszero\n  tag_88\n  jumpi\n    /* \"#utility.yul\":3361:3440   */\n  tag_89\n  tag_19\n  jump\t// in\ntag_89:\n    /* \"#utility.yul\":3325:3442   */\ntag_88:\n    /* \"#utility.yul\":3466:3540   */\n  tag_90\n    /* \"#utility.yul\":3532:3539   */\n  dup7\n    /* \"#utility.yul\":3523:3529   */\n  dup3\n    /* \"#utility.yul\":3512:3521   */\n  dup8\n    /* \"#utility.yul\":3508:3530   */\n  add\n    /* \"#utility.yul\":3466:3540   */\n  tag_29\n  jump\t// in\ntag_90:\n    /* \"#utility.yul\":3456:3540   */\n  swap3\n  pop\n    /* \"#utility.yul\":3258:3550   */\n  pop\n    /* \"#utility.yul\":3610:3612   */\n  0x40\n    /* \"#utility.yul\":3599:3608   */\n  dup5\n    /* \"#utility.yul\":3595:3613   */\n  add\n    /* \"#utility.yul\":3589:3614   */\n  mload\n    /* \"#utility.yul\":3641:3659   */\n  0xffffffffffffffff\n    /* \"#utility.yul\":3633:3639   */\n  dup2\n    /* \"#utility.yul\":3630:3660   */\n  gt\n    /* \"#utility.yul\":3627:3744   */\n  iszero\n  tag_91\n  jumpi\n    /* \"#utility.yul\":3663:3742   */\n  tag_92\n  tag_19\n  jump\t// in\ntag_92:\n    /* \"#utility.yul\":3627:3744   */\ntag_91:\n    /* \"#utility.yul\":3768:3842   */\n  tag_93\n    /* \"#utility.yul\":3834:3841   */\n  dup7\n    /* \"#utility.yul\":3825:3831   */\n  dup3\n    /* \"#utility.yul\":3814:3823   */\n  dup8\n    /* \"#utility.yul\":3810:3832   */\n  add\n    /* \"#utility.yul\":3768:3842   */\n  tag_29\n  jump\t// in\ntag_93:\n    /* \"#utility.yul\":3758:3842   */\n  swap2\n  pop\n    /* \"#utility.yul\":3560:3852   */\n  pop\n    /* \"#utility.yul\":2677:3859   */\n  swap3\n  pop\n  swap3\n  pop\n  swap3\n  jump\t// out\n    /* \"#utility.yul\":3865:3964   */\ntag_30:\n    /* \"#utility.yul\":3917:3923   */\n  0x00\n    /* \"#utility.yul\":3951:3956   */\n  dup2\n    /* \"#utility.yul\":3945:3957   */\n  mload\n    /* \"#utility.yul\":3935:3957   */\n  swap1\n  pop\n    /* \"#utility.yul\":3865:3964   */\n  swap2\n  swap1\n  pop\n  jump\t// out\n    /* \"#utility.yul\":3970:4150   */\ntag_31:\n    /* \"#utility.yul\":4018:4095   */\n  0x4e487b7100000000000000000000000000000000000000000000000000000000\n    /* \"#utility.yul\":4015:4016   */\n  0x00\n    /* \"#utility.yul\":4008:4096   */\n  mstore\n    /* \"#utility.yul\":4115:4119   */\n  0x22\n    /* \"#utility.yul\":4112:4113   */\n  0x04\n    /* \"#utility.yul\":4105:4120   */\n  mstore\n    /* \"#utility.yul\":4139:4143   */\n  0x24\n    /* \"#utility.yul\":4136:4137   */\n  0x00\n    /* \"#utility.yul\":4129:4144   */\n  revert\n    /* \"#utility.yul\":4156:4476   */\ntag_32:\n    /* \"#utility.yul\":4200:4206   */\n  0x00\n    /* \"#utility.yul\":4237:4238   */\n  0x02\n    /* \"#utility.yul\":4231:4235   */\n  dup3\n    /* \"#utility.yul\":4227:4239   */\n  div\n    /* \"#utility.yul\":4217:4239   */\n  swap1\n  pop\n    /* \"#utility.yul\":4284:4285   */\n  0x01\n    /* \"#utility.yul\":4278:4282   */\n  dup3\n    /* \"#utility.yul\":4274:4286   */\n  and\n    /* \"#utility.yul\":4305:4323   */\n  dup1\n    /* \"#utility.yul\":4295:4376   */\n  tag_97\n  jumpi\n    /* \"#utility.yul\":4361:4365   */\n  0x7f\n    /* \"#utility.yul\":4353:4359   */\n  dup3\n    /* \"#utility.yul\":4349:4366   */\n  and\n    /* \"#utility.yul\":4339:4366   */\n  swap2\n  pop\n    /* \"#utility.yul\":4295:4376   */\ntag_97:\n    /* \"#utility.yul\":4423:4425   */\n  0x20\n    /* \"#utility.yul\":4415:4421   */\n  dup3\n    /* \"#utility.yul\":4412:4426   */\n  lt\n    /* \"#utility.yul\":4392:4410   */\n  dup2\n    /* \"#utility.yul\":4389:4427   */\n  sub\n    /* \"#utility.yul\":4386:4470   */\n  tag_98\n  jumpi\n    /* \"#utility.yul\":4442:4460   */\n  tag_99\n  tag_31\n  jump\t// in\ntag_99:\n    /* \"#utility.yul\":4386:4470   */\ntag_98:\n    /* \"#utility.yul\":4207:4476   */\n  pop\n    /* \"#utility.yul\":4156:4476   */\n  swap2\n  swap1\n  pop\n  jump\t// out\n    /* \"#utility.yul\":4482:4623   */\ntag_33:\n    /* \"#utility.yul\":4531:4535   */\n  0x00\n    /* \"#utility.yul\":4554:4557   */\n  dup2\n    /* \"#utility.yul\":4546:4557   */\n  swap1\n  pop\n    /* \"#utility.yul\":4577:4580   */\n  dup2\n    /* \"#utility.yul\":4574:4575   */\n  0x00\n    /* \"#utility.yul\":4567:4581   */\n  mstore\n    /* \"#utility.yul\":4611:4615   */\n  0x20\n    /* \"#utility.yul\":4608:4609   */\n  0x00\n    /* \"#utility.yul\":4598:4616   */\n  keccak256\n    /* \"#utility.yul\":4590:4616   */\n  swap1\n  pop\n    /* \"#utility.yul\":4482:4623   */\n  swap2\n  swap1\n  pop\n  jump\t// out\n    /* \"#utility.yul\":4629:4722   */\ntag_34:\n    /* \"#utility.yul\":4666:4672   */\n  0x00\n    /* \"#utility.yul\":4713:4715   */\n  0x20\n    /* \"#utility.yul\":4708:4710   */\n  0x1f\n    /* \"#utility.yul\":4701:4706   */\n  dup4\n    /* \"#utility.yul\":4697:4711   */\n  add\n    /* \"#utility.yul\":4693:4716   */\n  div\n    /* \"#utility.yul\":4683:4716   */\n  swap1\n  pop\n    /* \"#utility.yul\":4629:4722   */\n  swap2\n  swap1\n  pop\n  jump\t// out\n    /* \"#utility.yul\":4728:4835   */\ntag_35:\n    /* \"#utility.yul\":4772:4780   */\n  0x00\n    /* \"#utility.yul\":4822:4827   */\n  dup3\n    /* \"#utility.yul\":4816:4820   */\n  dup3\n    /* \"#utility.yul\":4812:4828   */\n  shl\n    /* \"#utility.yul\":4791:4828   */\n  swap1\n  pop\n    /* \"#utility.yul\":4728:4835   */\n  swap3\n  swap2\n  pop\n  pop\n  jump\t// out\n    /* \"#utility.yul\":4841:5234   */\ntag_36:\n    /* \"#utility.yul\":4910:4916   */\n  0x00\n    /* \"#utility.yul\":4960:4961   */\n  0x08\n    /* \"#utility.yul\":4948:4958   */\n  dup4\n    /* \"#utility.yul\":4944:4962   */\n  mul\n    /* \"#utility.yul\":4983:5080   */\n  tag_104\n    /* \"#utility.yul\":5013:5079   */\n  0xffffffffffffffffffffffffffffffffffffffffffffffffffffffffffffffff\n    /* \"#utility.yul\":5002:5011   */\n  dup3\n    /* \"#utility.yul\":4983:5080   */\n  tag_35\n  jump\t// in\ntag_104:\n    /* \"#utility.yul\":5101:5140   */\n  tag_105\n    /* \"#utility.yul\":5131:5139   */\n  dup7\n    /* \"#utility.yul\":5120:5129   */\n  dup4\n    /* \"#utility.yul\":5101:5140   */\n  tag_35\n  jump\t// in\ntag_105:\n    /* \"#utility.yul\":5089:5140   */\n  swap6\n  pop\n    /* \"#utility.yul\":5173:5177   */\n  dup1\n    /* \"#utility.yul\":5169:5178   */\n  not\n    /* \"#utility.yul\":5162:5167   */\n  dup5\n    /* \"#utility.yul\":5158:5179   */\n  and\n    /* \"#utility.yul\":5149:5179   */\n  swap4\n  pop\n    /* \"#utility.yul\":5222:5226   */\n  dup1\n    /* \"#utility.yul\":5212:5220   */\n  dup7\n    /* \"#utility.yul\":5208:5227   */\n  and\n    /* \"#utility.yul\":5201:5206   */\n  dup5\n    /* \"#utility.yul\":5198:5228   */\n  or\n    /* \"#utility.yul\":5188:5228   */\n  swap3\n  pop\n    /* \"#utility.yul\":4917:5234   */\n  pop\n  pop\n    /* \"#utility.yul\":4841:5234   */\n  swap4\n  swap3\n  pop\n  pop\n  pop\n  jump\t// out\n    /* \"#utility.yul\":5240:5317   */\ntag_37:\n    /* \"#utility.yul\":5277:5284   */\n  0x00\n    /* \"#utility.yul\":5306:5311   */\n  dup2\n    /* \"#utility.yul\":5295:5311   */\n  swap1\n  pop\n    /* \"#utility.yul\":5240:5317   */\n  swap2\n  swap1\n  pop\n  jump\t// out\n    /* \"#utility.yul\":5323:5383   */\ntag_38:\n    /* \"#utility.yul\":5351:5354   */\n  0x00\n    /* \"#utility.yul\":5372:5377   */\n  dup2\n    /* \"#utility.yul\":5365:5377   */\n  swap1\n  pop\n    /* \"#utility.yul\":5323:5383   */\n  swap2\n  swap1\n  pop\n  jump\t// out\n    /* \"#utility.yul\":5389:5531   */\ntag_39:\n    /* \"#utility.yul\":5439:5448   */\n  0x00\n    /* \"#utility.yul\":5472:5525   */\n  tag_109\n    /* \"#utility.yul\":5490:5524   */\n  tag_110\n    /* \"#utility.yul\":5499:5523   */\n  tag_111\n    /* \"#utility.yul\":5517:5522   */\n  dup5\n    /* \"#utility.yul\":5499:5523   */\n  tag_37\n  jump\t// in\ntag_111:\n    /* \"#utility.yul\":5490:5524   */\n  tag_38\n  jump\t// in\ntag_110:\n    /* \"#utility.yul\":5472:5525   */\n  tag_37\n  jump\t// in\ntag_109:\n    /* \"#utility.yul\":5459:5525   */\n  swap1\n  pop\n    /* \"#utility.yul\":5389:5531   */\n  swap2\n  swap1\n  pop\n  jump\t// out\n    /* \"#utility.yul\":5537:5612   */\ntag_40:\n    /* \"#utility.yul\":5580:5583   */\n  0x00\n    /* \"#utility.yul\":5601:5606   */\n  dup2\n    /* \"#utility.yul\":5594:5606   */\n  swap1\n  pop\n    /* \"#utility.yul\":5537:5612   */\n  swap2\n  swap1\n  pop\n  jump\t// out\n    /* \"#utility.yul\":5618:5887   */\ntag_41:\n    /* \"#utility.yul\":5728:5767   */\n  tag_114\n    /* \"#utility.yul\":5759:5766   */\n  dup4\n    /* \"#utility.yul\":5728:5767   */\n  tag_39\n  jump\t// in\ntag_114:\n    /* \"#utility.yul\":5789:5880   */\n  tag_115\n    /* \"#utility.yul\":5838:5879   */\n  tag_116\n    /* \"#utility.yul\":5862:5878   */\n  dup3\n    /* \"#utility.yul\":5838:5879   */\n  tag_40\n  jump\t// in\ntag_116:\n    /* \"#utility.yul\":5830:5836   */\n  dup5\n    /* \"#utility.yul\":5823:5827   */\n  dup5\n    /* \"#utility.yul\":5817:5828   */\n  sload\n    /* \"#utility.yul\":5789:5880   */\n  tag_36\n  jump\t// in\ntag_115:\n    /* \"#utility.yul\":5783:5787   */\n  dup3\n    /* \"#utility.yul\":5776:5881   */\n  sstore\n    /* \"#utility.yul\":5694:5887   */\n  pop\n    /* \"#utility.yul\":5618:5887   */\n  pop\n  pop\n  pop\n  jump\t// out\n    /* \"#utility.yul\":5893:5966   */\ntag_42:\n    /* \"#utility.yul\":5938:5941   */\n  0x00\n    /* \"#utility.yul\":5893:5966   */\n  swap1\n  jump\t// out\n    /* \"#utility.yul\":5972:6161   */\ntag_43:\n    /* \"#utility.yul\":6049:6081   */\n  tag_119\n  tag_42\n  jump\t// in\ntag_119:\n    /* \"#utility.yul\":6090:6155   */\n  tag_120\n    /* \"#utility.yul\":6148:6154   */\n  dup2\n    /* \"#utility.yul\":6140:6146   */\n  dup5\n    /* \"#utility.yul\":6134:6138   */\n  dup5\n    /* \"#utility.yul\":6090:6155   */\n  tag_41\n  jump\t// in\ntag_120:\n    /* \"#utility.yul\":6025:6161   */\n  pop\n    /* \"#utility.yul\":5972:6161   */\n  pop\n  pop\n  jump\t// out\n    /* \"#utility.yul\":6167:6353   */\ntag_44:\n    /* \"#utility.yul\":6227:6347   */\ntag_122:\n    /* \"#utility.yul\":6244:6247   */\n  dup2\n    /* \"#utility.yul\":6237:6242   */\n  dup2\n    /* \"#utility.yul\":6234:6248   */\n  lt\n    /* \"#utility.yul\":6227:6347   */\n  iszero\n  tag_124\n  jumpi\n    /* \"#utility.yul\":6298:6337   */\n  tag_125\n    /* \"#utility.yul\":6335:6336   */\n  0x00\n    /* \"#utility.yul\":6328:6333   */\n  dup3\n    /* \"#utility.yul\":6298:6337   */\n  tag_43\n  jump\t// in\ntag_125:\n    /* \"#utility.yul\":6271:6272   */\n  0x01\n    /* \"#utility.yul\":6264:6269   */\n  dup2\n    /* \"#utility.yul\":6260:6273   */\n  add\n    /* \"#utility.yul\":6251:6273   */\n  swap1\n  pop\n    /* \"#utility.yul\":6227:6347   */\n  jump(tag_122)\ntag_124:\n    /* \"#utility.yul\":6167:6353   */\n  pop\n  pop\n  jump\t// out\n    /* \"#utility.yul\":6359:6902   */\ntag_45:\n    /* \"#utility.yul\":6460:6462   */\n  0x1f\n    /* \"#utility.yul\":6455:6458   */\n  dup3\n    /* \"#utility.yul\":6452:6463   */\n  gt\n    /* \"#utility.yul\":6449:6895   */\n  iszero\n  tag_127\n  jumpi\n    /* \"#utility.yul\":6494:6532   */\n  tag_128\n    /* \"#utility.yul\":6526:6531   */\n  dup2\n    /* \"#utility.yul\":6494:6532   */\n  tag_33\n  jump\t// in\ntag_128:\n    /* \"#utility.yul\":6578:6607   */\n  tag_129\n    /* \"#utility.yul\":6596:6606   */\n  dup5\n    /* \"#utility.yul\":6578:6607   */\n  tag_34\n  jump\t// in\ntag_129:\n    /* \"#utility.yul\":6568:6576   */\n  dup2\n    /* \"#utility.yul\":6564:6608   */\n  add\n    /* \"#utility.yul\":6761:6763   */\n  0x20\n    /* \"#utility.yul\":6749:6759   */\n  dup6\n    /* \"#utility.yul\":6746:6764   */\n  lt\n    /* \"#utility.yul\":6743:6792   */\n  iszero\n  tag_130\n  jumpi\n    /* \"#utility.yul\":6782:6790   */\n  dup2\n    /* \"#utility.yul\":6767:6790   */\n  swap1\n  pop\n    /* \"#utility.yul\":6743:6792   */\ntag_130:\n    /* \"#utility.yul\":6805:6885   */\n  tag_131\n    /* \"#utility.yul\":6861:6883   */\n  tag_132\n    /* \"#utility.yul\":6879:6882   */\n  dup6\n    /* \"#utility.yul\":6861:6883   */\n  tag_34\n  jump\t// in\ntag_132:\n    /* \"#utility.yul\":6851:6859   */\n  dup4\n    /* \"#utility.yul\":6847:6884   */\n  add\n    /* \"#utility.yul\":6834:6845   */\n  dup3\n    /* \"#utility.yul\":6805:6885   */\n  tag_44\n  jump\t// in\ntag_131:\n    /* \"#utility.yul\":6464:6895   */\n  pop\n  pop\n    /* \"#utility.yul\":6449:6895   */\ntag_127:\n    /* \"#utility.yul\":6359:6902   */\n  pop\n  pop\n  pop\n  jump\t// out\n    /* \"#utility.yul\":6908:7025   */\ntag_46:\n    /* \"#utility.yul\":6962:6970   */\n  0x00\n    /* \"#utility.yul\":7012:7017   */\n  dup3\n    /* \"#utility.yul\":7006:7010   */\n  dup3\n    /* \"#utility.yul\":7002:7018   */\n  shr\n    /* \"#utility.yul\":6981:7018   */\n  swap1\n  pop\n    /* \"#utility.yul\":6908:7025   */\n  swap3\n  swap2\n  pop\n  pop\n  jump\t// out\n    /* \"#utility.yul\":7031:7200   */\ntag_47:\n    /* \"#utility.yul\":7075:7081   */\n  0x00\n    /* \"#utility.yul\":7108:7159   */\n  tag_135\n    /* \"#utility.yul\":7156:7157   */\n  0x00\n    /* \"#utility.yul\":7152:7158   */\n  not\n    /* \"#utility.yul\":7144:7149   */\n  dup5\n    /* \"#utility.yul\":7141:7142   */\n  0x08\n    /* \"#utility.yul\":7137:7150   */\n  mul\n    /* \"#utility.yul\":7108:7159   */\n  tag_46\n  jump\t// in\ntag_135:\n    /* \"#utility.yul\":7104:7160   */\n  not\n    /* \"#utility.yul\":7189:7193   */\n  dup1\n    /* \"#utility.yul\":7183:7187   */\n  dup4\n    /* \"#utility.yul\":7179:7194   */\n  and\n    /* \"#utility.yul\":7169:7194   */\n  swap2\n  pop\n    /* \"#utility.yul\":7082:7200   */\n  pop\n    /* \"#utility.yul\":7031:7200   */\n  swap3\n  swap2\n  pop\n  pop\n  jump\t// out\n    /* \"#utility.yul\":7205:7500   */\ntag_48:\n    /* \"#utility.yul\":7281:7285   */\n  0x00\n    /* \"#utility.yul\":7427:7456   */\n  tag_137\n    /* \"#utility.yul\":7452:7455   */\n  dup4\n    /* \"#utility.yul\":7446:7450   */\n  dup4\n    /* \"#utility.yul\":7427:7456   */\n  tag_47\n  jump\t// in\ntag_137:\n    /* \"#utility.yul\":7419:7456   */\n  swap2\n  pop\n    /* \"#utility.yul\":7489:7492   */\n  dup3\n    /* \"#utility.yul\":7486:7487   */\n  0x02\n    /* \"#utility.yul\":7482:7493   */\n  mul\n    /* \"#utility.yul\":7476:7480   */\n  dup3\n    /* \"#utility.yul\":7473:7494   */\n  or\n    /* \"#utility.yul\":7465:7494   */\n  swap1\n  pop\n    /* \"#utility.yul\":7205:7500   */\n  swap3\n  swap2\n  pop\n  pop\n  jump\t// out\n    /* \"#utility.yul\":7505:8900   */\ntag_11:\n    /* \"#utility.yul\":7622:7659   */\n  tag_139\n    /* \"#utility.yul\":7655:7658   */\n  dup3\n    /* \"#utility.yul\":7622:7659   */\n  tag_30\n  jump\t// in\ntag_139:\n    /* \"#utility.yul\":7724:7742   */\n  0xffffffffffffffff\n    /* \"#utility.yul\":7716:7722   */\n  dup2\n    /* \"#utility.yul\":7713:7743   */\n  gt\n    /* \"#utility.yul\":7710:7766   */\n  iszero\n  tag_140\n  jumpi\n    /* \"#utility.yul\":7746:7764   */\n  tag_141\n  tag_23\n  jump\t// in\ntag_141:\n    /* \"#utility.yul\":7710:7766   */\ntag_140:\n    /* \"#utility.yul\":7790:7828   */\n  tag_142\n    /* \"#utility.yul\":7822:7826   */\n  dup3\n    /* \"#utility.yul\":7816:7827   */\n  sload\n    /* \"#utility.yul\":7790:7828   */\n  tag_32\n  jump\t// in\ntag_142:\n    /* \"#utility.yul\":7875:7942   */\n  tag_143\n    /* \"#utility.yul\":7935:7941   */\n  dup3\n    /* \"#utility.yul\":7927:7933   */\n  dup3\n    /* \"#utility.yul\":7921:7925   */\n  dup6\n    /* \"#utility.yul\":7875:7942   */\n  tag_45\n  jump\t// in\ntag_143:\n    /* \"#utility.yul\":7969:7970   */\n  0x00\n    /* \"#utility.yul\":7993:7997   */\n  0x20\n    /* \"#utility.yul\":7980:7997   */\n  swap1\n  pop\n    /* \"#utility.yul\":8025:8027   */\n  0x1f\n    /* \"#utility.yul\":8017:8023   */\n  dup4\n    /* \"#utility.yul\":8014:8028   */\n  gt\n    /* \"#utility.yul\":8042:8043   */\n  0x01\n    /* \"#utility.yul\":8037:8655   */\n  dup2\n  eq\n  tag_145\n  jumpi\n    /* \"#utility.yul\":8699:8700   */\n  0x00\n    /* \"#utility.yul\":8716:8722   */\n  dup5\n    /* \"#utility.yul\":8713:8790   */\n  iszero\n  tag_146\n  jumpi\n    /* \"#utility.yul\":8765:8774   */\n  dup3\n    /* \"#utility.yul\":8760:8763   */\n  dup8\n    /* \"#utility.yul\":8756:8775   */\n  add\n    /* \"#utility.yul\":8750:8776   */\n  mload\n    /* \"#utility.yul\":8741:8776   */\n  swap1\n  pop\n    /* \"#utility.yul\":8713:8790   */\ntag_146:\n    /* \"#utility.yul\":8816:8883   */\n  tag_147\n    /* \"#utility.yul\":8876:8882   */\n  dup6\n    /* \"#utility.yul\":8869:8874   */\n  dup3\n    /* \"#utility.yul\":8816:8883   */\n  tag_48\n  jump\t// in\ntag_147:\n    /* \"#utility.yul\":8810:8814   */\n  dup7\n    /* \"#utility.yul\":8803:8884   */\n  sstore\n    /* \"#utility.yul\":8672:8894   */\n  pop\n    /* \"#utility.yul\":8007:8894   */\n  jump(tag_144)\n    /* \"#utility.yul\":8037:8655   */\ntag_145:\n    /* \"#utility.yul\":8089:8093   */\n  0x1f\n    /* \"#utility.yul\":8085:8094   */\n  not\n    /* \"#utility.yul\":8077:8083   */\n  dup5\n    /* \"#utility.yul\":8073:8095   */\n  and\n    /* \"#utility.yul\":8123:8160   */\n  tag_148\n    /* \"#utility.yul\":8155:8159   */\n  dup7\n    /* \"#utility.yul\":8123:8160   */\n  tag_33\n  jump\t// in\ntag_148:\n    /* \"#utility.yul\":8182:8183   */\n  0x00\n    /* \"#utility.yul\":8196:8404   */\ntag_149:\n    /* \"#utility.yul\":8210:8217   */\n  dup3\n    /* \"#utility.yul\":8207:8208   */\n  dup2\n    /* \"#utility.yul\":8204:8218   */\n  lt\n    /* \"#utility.yul\":8196:8404   */\n  iszero\n  tag_151\n  jumpi\n    /* \"#utility.yul\":8289:8298   */\n  dup5\n    /* \"#utility.yul\":8284:8287   */\n  dup10\n    /* \"#utility.yul\":8280:8299   */\n  add\n    /* \"#utility.yul\":8274:8300   */\n  mload\n    /* \"#utility.yul\":8266:8272   */\n  dup3\n    /* \"#utility.yul\":8259:8301   */\n  sstore\n    /* \"#utility.yul\":8340:8341   */\n  0x01\n    /* \"#utility.yul\":8332:8338   */\n  dup3\n    /* \"#utility.yul\":8328:8342   */\n  add\n    /* \"#utility.yul\":8318:8342   */\n  swap2\n  pop\n    /* \"#utility.yul\":8387:8389   */\n  0x20\n    /* \"#utility.yul\":8376:8385   */\n  dup6\n    /* \"#utility.yul\":8372:8390   */\n  add\n    /* \"#utility.yul\":8359:8390   */\n  swap5\n  pop\n    /* \"#utility.yul\":8233:8237   */\n  0x20\n    /* \"#utility.yul\":8230:8231   */\n  dup2\n    /* \"#utility.yul\":8226:8238   */\n  add\n    /* \"#utility.yul\":8221:8238   */\n  swap1\n  pop\n    /* \"#utility.yul\":8196:8404   */\n  jump(tag_149)\ntag_151:\n    /* \"#utility.yul\":8432:8438   */\n  dup7\n    /* \"#utility.yul\":8423:8430   */\n  dup4\n    /* \"#utility.yul\":8420:8439   */\n  lt\n    /* \"#utility.yul\":8417:8596   */\n  iszero\n  tag_152\n  jumpi\n    /* \"#utility.yul\":8490:8499   */\n  dup5\n    /* \"#utility.yul\":8485:8488   */\n  dup10\n    /* \"#utility.yul\":8481:8500   */\n  add\n    /* \"#utility.yul\":8475:8501   */\n  mload\n    /* \"#utility.yul\":8533:8581   */\n  tag_153\n    /* \"#utility.yul\":8575:8579   */\n  0x1f\n    /* \"#utility.yul\":8567:8573   */\n  dup10\n    /* \"#utility.yul\":8563:8580   */\n  and\n    /* \"#utility.yul\":8552:8561   */\n  dup3\n    /* \"#utility.yul\":8533:8581   */\n  tag_47\n  jump\t// in\ntag_153:\n    /* \"#utility.yul\":8525:8531   */\n  dup4\n    /* \"#utility.yul\":8518:8582   */\n  sstore\n    /* \"#utility.yul\":8440:8596   */\n  pop\n    /* \"#utility.yul\":8417:8596   */\ntag_152:\n    /* \"#utility.yul\":8642:8643   */\n  0x01\n    /* \"#utility.yul\":8638:8639   */\n  0x02\n    /* \"#utility.yul\":8630:8636   */\n  dup9\n    /* \"#utility.yul\":8626:8640   */\n  mul\n    /* \"#utility.yul\":8622:8644   */\n  add\n    /* \"#utility.yul\":8616:8620   */\n  dup9\n    /* \"#utility.yul\":8609:8645   */\n  sstore\n    /* \"#utility.yul\":8044:8655   */\n  pop\n  pop\n  pop\n    /* \"#utility.yul\":8007:8894   */\ntag_144:\n  pop\n    /* \"#utility.yul\":7597:8900   */\n  pop\n  pop\n  pop\n    /* \"#utility.yul\":7505:8900   */\n  pop\n  pop\n  jump\t// out\n    /* \"lab 16-08-2023/Task5.sol\":797:1257  contract Product is Supplier, Manufacturer {... */\ntag_16:\n  dataSize(sub_0)\n  dup1\n  dataOffset(sub_0)\n  0x00\n  codecopy\n  0x00\n  return\nstop\n\nsub_0: assembly {\n        /* \"lab 16-08-2023/Task5.sol\":797:1257  contract Product is Supplier, Manufacturer {... */\n      mstore(0x40, 0x80)\n      callvalue\n      dup1\n      iszero\n      tag_1\n      jumpi\n      0x00\n      dup1\n      revert\n    tag_1:\n      pop\n      jumpi(tag_2, lt(calldatasize, 0x04))\n      shr(0xe0, calldataload(0x00))\n      dup1\n      0x7f7650eb\n      gt\n      tag_10\n      jumpi\n      dup1\n      0x7f7650eb\n      eq\n      tag_6\n      jumpi\n      dup1\n      0x8da5cb5b\n      eq\n      tag_7\n      jumpi\n      dup1\n      0xd9e6afcb\n      eq\n      tag_8\n      jumpi\n      dup1\n      0xf5c609e0\n      eq\n      tag_9\n      jumpi\n      jump(tag_2)\n    tag_10:\n      dup1\n      0x05116bb0\n      eq\n      tag_3\n      jumpi\n      dup1\n      0x1aa3f350\n      eq\n      tag_4\n      jumpi\n      dup1\n      0x6566d450\n      eq\n      tag_5\n      jumpi\n    tag_2:\n      0x00\n      dup1\n      revert\n        /* \"lab 16-08-2023/Task5.sol\":215:241  string public supplierName */\n    tag_3:\n      tag_11\n      tag_12\n      jump\t// in\n    tag_11:\n      mload(0x40)\n      tag_13\n      swap2\n      swap1\n      tag_14\n      jump\t// in\n    tag_13:\n      mload(0x40)\n      dup1\n      swap2\n      sub\n      swap1\n      return\n        /* \"lab 16-08-2023/Task5.sol\":1149:1254  function trackProduct() public pure  returns (string memory) {... */\n    tag_4:\n      tag_15\n      tag_16\n      jump\t// in\n    tag_15:\n      mload(0x40)\n      tag_17\n      swap2\n      swap1\n      tag_14\n      jump\t// in\n    tag_17:\n      mload(0x40)\n      dup1\n      swap2\n      sub\n      swap1\n      return\n        /* \"lab 16-08-2023/Task5.sol\":658:790  function manufactureProduct() public pure  returns (string memory) {... */\n    tag_5:\n      tag_18\n      tag_19\n      jump\t// in\n    tag_18:\n      mload(0x40)\n      tag_20\n      swap2\n      swap1\n      tag_14\n      jump\t// in\n    tag_20:\n      mload(0x40)\n      dup1\n      swap2\n      sub\n      swap1\n      return\n        /* \"lab 16-08-2023/Task5.sol\":847:872  string public productName */\n    tag_6:\n      tag_21\n      tag_22\n      jump\t// in\n    tag_21:\n      mload(0x40)\n      tag_23\n      swap2\n      swap1\n      tag_14\n      jump\t// in\n    tag_23:\n      mload(0x40)\n      dup1\n      swap2\n      sub\n      swap1\n      return\n        /* \"lab 16-08-2023/Task5.sol\":88:108  address public owner */\n    tag_7:\n      tag_24\n      tag_25\n      jump\t// in\n    tag_24:\n      mload(0x40)\n      tag_26\n      swap2\n      swap1\n      tag_27\n      jump\t// in\n    tag_26:\n      mload(0x40)\n      dup1\n      swap2\n      sub\n      swap1\n      return\n        /* \"lab 16-08-2023/Task5.sol\":511:541  string public manufacturerName */\n    tag_8:\n      tag_28\n      tag_29\n      jump\t// in\n    tag_28:\n      mload(0x40)\n      tag_30\n      swap2\n      swap1\n      tag_14\n      jump\t// in\n    tag_30:\n      mload(0x40)\n      dup1\n      swap2\n      sub\n      swap1\n      return\n        /* \"lab 16-08-2023/Task5.sol\":346:460  function placeOrder() public pure  returns (string memory) {... */\n    tag_9:\n      tag_31\n      tag_32\n      jump\t// in\n    tag_31:\n      mload(0x40)\n      tag_33\n      swap2\n      swap1\n      tag_14\n      jump\t// in\n    tag_33:\n      mload(0x40)\n      dup1\n      swap2\n      sub\n      swap1\n      return\n        /* \"lab 16-08-2023/Task5.sol\":215:241  string public supplierName */\n    tag_12:\n      0x01\n      dup1\n      sload\n      tag_34\n      swap1\n      tag_35\n      jump\t// in\n    tag_34:\n      dup1\n      0x1f\n      add\n      0x20\n      dup1\n      swap2\n      div\n      mul\n      0x20\n      add\n      mload(0x40)\n      swap1\n      dup2\n      add\n      0x40\n      mstore\n      dup1\n      swap3\n      swap2\n      swap1\n      dup2\n      dup2\n      mstore\n      0x20\n      add\n      dup3\n      dup1\n      sload\n      tag_36\n      swap1\n      tag_35\n      jump\t// in\n    tag_36:\n      dup1\n      iszero\n      tag_37\n      jumpi\n      dup1\n      0x1f\n      lt\n      tag_38\n      jumpi\n      0x0100\n      dup1\n      dup4\n      sload\n      div\n      mul\n      dup4\n      mstore\n      swap2\n      0x20\n      add\n      swap2\n      jump(tag_37)\n    tag_38:\n      dup3\n      add\n      swap2\n      swap1\n      0x00\n      mstore\n      keccak256(0x00, 0x20)\n      swap1\n    tag_39:\n      dup2\n      sload\n      dup2\n      mstore\n      swap1\n      0x01\n      add\n      swap1\n      0x20\n      add\n      dup1\n      dup4\n      gt\n      tag_39\n      jumpi\n      dup3\n      swap1\n      sub\n      0x1f\n      and\n      dup3\n      add\n      swap2\n    tag_37:\n      pop\n      pop\n      pop\n      pop\n      pop\n      dup2\n      jump\t// out\n        /* \"lab 16-08-2023/Task5.sol\":1149:1254  function trackProduct() public pure  returns (string memory) {... */\n    tag_16:\n        /* \"lab 16-08-2023/Task5.sol\":1195:1208  string memory */\n      0x60\n        /* \"lab 16-08-2023/Task5.sol\":1221:1246  return \"Product tracked.\" */\n      mload(0x40)\n      dup1\n      0x40\n      add\n      0x40\n      mstore\n      dup1\n      0x10\n      dup2\n      mstore\n      0x20\n      add\n      0x50726f6475637420747261636b65642e00000000000000000000000000000000\n      dup2\n      mstore\n      pop\n      swap1\n      pop\n        /* \"lab 16-08-2023/Task5.sol\":1149:1254  function trackProduct() public pure  returns (string memory) {... */\n      swap1\n      jump\t// out\n        /* \"lab 16-08-2023/Task5.sol\":658:790  function manufactureProduct() public pure  returns (string memory) {... */\n    tag_19:\n        /* \"lab 16-08-2023/Task5.sol\":710:723  string memory */\n      0x60\n        /* \"lab 16-08-2023/Task5.sol\":736:782  return \"Product manufactured by manufacturer.\" */\n      mload(0x40)\n      dup1\n      0x60\n      add\n      0x40\n      mstore\n      dup1\n      0x25\n      dup2\n      mstore\n      0x20\n      add\n      data_39ffeae11580fdc5a442e8a6ecb3af2892fc22cc5b96ffd833fa7648dcf56fa1\n      0x25\n      swap2\n      codecopy\n      swap1\n      pop\n        /* \"lab 16-08-2023/Task5.sol\":658:790  function manufactureProduct() public pure  returns (string memory) {... */\n      swap1\n      jump\t// out\n        /* \"lab 16-08-2023/Task5.sol\":847:872  string public productName */\n    tag_22:\n      0x03\n      dup1\n      sload\n      tag_42\n      swap1\n      tag_35\n      jump\t// in\n    tag_42:\n      dup1\n      0x1f\n      add\n      0x20\n      dup1\n      swap2\n      div\n      mul\n      0x20\n      add\n      mload(0x40)\n      swap1\n      dup2\n      add\n      0x40\n      mstore\n      dup1\n      swap3\n      swap2\n      swap1\n      dup2\n      dup2\n      mstore\n      0x20\n      add\n      dup3\n      dup1\n      sload\n      tag_43\n      swap1\n      tag_35\n      jump\t// in\n    tag_43:\n      dup1\n      iszero\n      tag_44\n      jumpi\n      dup1\n      0x1f\n      lt\n      tag_45\n      jumpi\n      0x0100\n      dup1\n      dup4\n      sload\n      div\n      mul\n      dup4\n      mstore\n      swap2\n      0x20\n      add\n      swap2\n      jump(tag_44)\n    tag_45:\n      dup3\n      add\n      swap2\n      swap1\n      0x00\n      mstore\n      keccak256(0x00, 0x20)\n      swap1\n    tag_46:\n      dup2\n      sload\n      dup2\n      mstore\n      swap1\n      0x01\n      add\n      swap1\n      0x20\n      add\n      dup1\n      dup4\n      gt\n      tag_46\n      jumpi\n      dup3\n      swap1\n      sub\n      0x1f\n      and\n      dup3\n      add\n      swap2\n    tag_44:\n      pop\n      pop\n      pop\n      pop\n      pop\n      dup2\n      jump\t// out\n        /* \"lab 16-08-2023/Task5.sol\":88:108  address public owner */\n    tag_25:\n      0x00\n      dup1\n      sload\n      swap1\n      0x0100\n      exp\n      swap1\n      div\n      0xffffffffffffffffffffffffffffffffffffffff\n      and\n      dup2\n      jump\t// out\n        /* \"lab 16-08-2023/Task5.sol\":511:541  string public manufacturerName */\n    tag_29:\n      0x02\n      dup1\n      sload\n      tag_47\n      swap1\n      tag_35\n      jump\t// in\n    tag_47:\n      dup1\n      0x1f\n      add\n      0x20\n      dup1\n      swap2\n      div\n      mul\n      0x20\n      add\n      mload(0x40)\n      swap1\n      dup2\n      add\n      0x40\n      mstore\n      dup1\n      swap3\n      swap2\n      swap1\n      dup2\n      dup2\n      mstore\n      0x20\n      add\n      dup3\n      dup1\n      sload\n      tag_48\n      swap1\n      tag_35\n      jump\t// in\n    tag_48:\n      dup1\n      iszero\n      tag_49\n      jumpi\n      dup1\n      0x1f\n      lt\n      tag_50\n      jumpi\n      0x0100\n      dup1\n      dup4\n      sload\n      div\n      mul\n      dup4\n      mstore\n      swap2\n      0x20\n      add\n      swap2\n      jump(tag_49)\n    tag_50:\n      dup3\n      add\n      swap2\n      swap1\n      0x00\n      mstore\n      keccak256(0x00, 0x20)\n      swap1\n    tag_51:\n      dup2\n      sload\n      dup2\n      mstore\n      swap1\n      0x01\n      add\n      swap1\n      0x20\n      add\n      dup1\n      dup4\n      gt\n      tag_51\n      jumpi\n      dup3\n      swap1\n      sub\n      0x1f\n      and\n      dup3\n      add\n      swap2\n    tag_49:\n      pop\n      pop\n      pop\n      pop\n      pop\n      dup2\n      jump\t// out\n        /* \"lab 16-08-2023/Task5.sol\":346:460  function placeOrder() public pure  returns (string memory) {... */\n    tag_32:\n        /* \"lab 16-08-2023/Task5.sol\":390:403  string memory */\n      0x60\n        /* \"lab 16-08-2023/Task5.sol\":416:452  return \"Order placed with supplier.\" */\n      mload(0x40)\n      dup1\n      0x40\n      add\n      0x40\n      mstore\n      dup1\n      0x1b\n      dup2\n      mstore\n      0x20\n      add\n      0x4f7264657220706c61636564207769746820737570706c6965722e0000000000\n      dup2\n      mstore\n      pop\n      swap1\n      pop\n        /* \"lab 16-08-2023/Task5.sol\":346:460  function placeOrder() public pure  returns (string memory) {... */\n      swap1\n      jump\t// out\n        /* \"#utility.yul\":7:106   */\n    tag_53:\n        /* \"#utility.yul\":59:65   */\n      0x00\n        /* \"#utility.yul\":93:98   */\n      dup2\n        /* \"#utility.yul\":87:99   */\n      mload\n        /* \"#utility.yul\":77:99   */\n      swap1\n      pop\n        /* \"#utility.yul\":7:106   */\n      swap2\n      swap1\n      pop\n      jump\t// out\n        /* \"#utility.yul\":112:281   */\n    tag_54:\n        /* \"#utility.yul\":196:207   */\n      0x00\n        /* \"#utility.yul\":230:236   */\n      dup3\n        /* \"#utility.yul\":225:228   */\n      dup3\n        /* \"#utility.yul\":218:237   */\n      mstore\n        /* \"#utility.yul\":270:274   */\n      0x20\n        /* \"#utility.yul\":265:268   */\n      dup3\n        /* \"#utility.yul\":261:275   */\n      add\n        /* \"#utility.yul\":246:275   */\n      swap1\n      pop\n        /* \"#utility.yul\":112:281   */\n      swap3\n      swap2\n      pop\n      pop\n      jump\t// out\n        /* \"#utility.yul\":287:533   */\n    tag_55:\n        /* \"#utility.yul\":368:369   */\n      0x00\n        /* \"#utility.yul\":378:491   */\n    tag_66:\n        /* \"#utility.yul\":392:398   */\n      dup4\n        /* \"#utility.yul\":389:390   */\n      dup2\n        /* \"#utility.yul\":386:399   */\n      lt\n        /* \"#utility.yul\":378:491   */\n      iszero\n      tag_68\n      jumpi\n        /* \"#utility.yul\":477:478   */\n      dup1\n        /* \"#utility.yul\":472:475   */\n      dup3\n        /* \"#utility.yul\":468:479   */\n      add\n        /* \"#utility.yul\":462:480   */\n      mload\n        /* \"#utility.yul\":458:459   */\n      dup2\n        /* \"#utility.yul\":453:456   */\n      dup5\n        /* \"#utility.yul\":449:460   */\n      add\n        /* \"#utility.yul\":442:481   */\n      mstore\n        /* \"#utility.yul\":414:416   */\n      0x20\n        /* \"#utility.yul\":411:412   */\n      dup2\n        /* \"#utility.yul\":407:417   */\n      add\n        /* \"#utility.yul\":402:417   */\n      swap1\n      pop\n        /* \"#utility.yul\":378:491   */\n      jump(tag_66)\n    tag_68:\n        /* \"#utility.yul\":525:526   */\n      0x00\n        /* \"#utility.yul\":516:522   */\n      dup5\n        /* \"#utility.yul\":511:514   */\n      dup5\n        /* \"#utility.yul\":507:523   */\n      add\n        /* \"#utility.yul\":500:527   */\n      mstore\n        /* \"#utility.yul\":349:533   */\n      pop\n        /* \"#utility.yul\":287:533   */\n      pop\n      pop\n      pop\n      jump\t// out\n        /* \"#utility.yul\":539:641   */\n    tag_56:\n        /* \"#utility.yul\":580:586   */\n      0x00\n        /* \"#utility.yul\":631:633   */\n      0x1f\n        /* \"#utility.yul\":627:634   */\n      not\n        /* \"#utility.yul\":622:624   */\n      0x1f\n        /* \"#utility.yul\":615:620   */\n      dup4\n        /* \"#utility.yul\":611:625   */\n      add\n        /* \"#utility.yul\":607:635   */\n      and\n        /* \"#utility.yul\":597:635   */\n      swap1\n      pop\n        /* \"#utility.yul\":539:641   */\n      swap2\n      swap1\n      pop\n      jump\t// out\n        /* \"#utility.yul\":647:1024   */\n    tag_57:\n        /* \"#utility.yul\":735:738   */\n      0x00\n        /* \"#utility.yul\":763:802   */\n      tag_71\n        /* \"#utility.yul\":796:801   */\n      dup3\n        /* \"#utility.yul\":763:802   */\n      tag_53\n      jump\t// in\n    tag_71:\n        /* \"#utility.yul\":818:889   */\n      tag_72\n        /* \"#utility.yul\":882:888   */\n      dup2\n        /* \"#utility.yul\":877:880   */\n      dup6\n        /* \"#utility.yul\":818:889   */\n      tag_54\n      jump\t// in\n    tag_72:\n        /* \"#utility.yul\":811:889   */\n      swap4\n      pop\n        /* \"#utility.yul\":898:963   */\n      tag_73\n        /* \"#utility.yul\":956:962   */\n      dup2\n        /* \"#utility.yul\":951:954   */\n      dup6\n        /* \"#utility.yul\":944:948   */\n      0x20\n        /* \"#utility.yul\":937:942   */\n      dup7\n        /* \"#utility.yul\":933:949   */\n      add\n        /* \"#utility.yul\":898:963   */\n      tag_55\n      jump\t// in\n    tag_73:\n        /* \"#utility.yul\":988:1017   */\n      tag_74\n        /* \"#utility.yul\":1010:1016   */\n      dup2\n        /* \"#utility.yul\":988:1017   */\n      tag_56\n      jump\t// in\n    tag_74:\n        /* \"#utility.yul\":983:986   */\n      dup5\n        /* \"#utility.yul\":979:1018   */\n      add\n        /* \"#utility.yul\":972:1018   */\n      swap2\n      pop\n        /* \"#utility.yul\":739:1024   */\n      pop\n        /* \"#utility.yul\":647:1024   */\n      swap3\n      swap2\n      pop\n      pop\n      jump\t// out\n        /* \"#utility.yul\":1030:1343   */\n    tag_14:\n        /* \"#utility.yul\":1143:1147   */\n      0x00\n        /* \"#utility.yul\":1181:1183   */\n      0x20\n        /* \"#utility.yul\":1170:1179   */\n      dup3\n        /* \"#utility.yul\":1166:1184   */\n      add\n        /* \"#utility.yul\":1158:1184   */\n      swap1\n      pop\n        /* \"#utility.yul\":1230:1239   */\n      dup2\n        /* \"#utility.yul\":1224:1228   */\n      dup2\n        /* \"#utility.yul\":1220:1240   */\n      sub\n        /* \"#utility.yul\":1216:1217   */\n      0x00\n        /* \"#utility.yul\":1205:1214   */\n      dup4\n        /* \"#utility.yul\":1201:1218   */\n      add\n        /* \"#utility.yul\":1194:1241   */\n      mstore\n        /* \"#utility.yul\":1258:1336   */\n      tag_76\n        /* \"#utility.yul\":1331:1335   */\n      dup2\n        /* \"#utility.yul\":1322:1328   */\n      dup5\n        /* \"#utility.yul\":1258:1336   */\n      tag_57\n      jump\t// in\n    tag_76:\n        /* \"#utility.yul\":1250:1336   */\n      swap1\n      pop\n        /* \"#utility.yul\":1030:1343   */\n      swap3\n      swap2\n      pop\n      pop\n      jump\t// out\n        /* \"#utility.yul\":1349:1475   */\n    tag_58:\n        /* \"#utility.yul\":1386:1393   */\n      0x00\n        /* \"#utility.yul\":1426:1468   */\n      0xffffffffffffffffffffffffffffffffffffffff\n        /* \"#utility.yul\":1419:1424   */\n      dup3\n        /* \"#utility.yul\":1415:1469   */\n      and\n        /* \"#utility.yul\":1404:1469   */\n      swap1\n      pop\n        /* \"#utility.yul\":1349:1475   */\n      swap2\n      swap1\n      pop\n      jump\t// out\n        /* \"#utility.yul\":1481:1577   */\n    tag_59:\n        /* \"#utility.yul\":1518:1525   */\n      0x00\n        /* \"#utility.yul\":1547:1571   */\n      tag_79\n        /* \"#utility.yul\":1565:1570   */\n      dup3\n        /* \"#utility.yul\":1547:1571   */\n      tag_58\n      jump\t// in\n    tag_79:\n        /* \"#utility.yul\":1536:1571   */\n      swap1\n      pop\n        /* \"#utility.yul\":1481:1577   */\n      swap2\n      swap1\n      pop\n      jump\t// out\n        /* \"#utility.yul\":1583:1701   */\n    tag_60:\n        /* \"#utility.yul\":1670:1694   */\n      tag_81\n        /* \"#utility.yul\":1688:1693   */\n      dup2\n        /* \"#utility.yul\":1670:1694   */\n      tag_59\n      jump\t// in\n    tag_81:\n        /* \"#utility.yul\":1665:1668   */\n      dup3\n        /* \"#utility.yul\":1658:1695   */\n      mstore\n        /* \"#utility.yul\":1583:1701   */\n      pop\n      pop\n      jump\t// out\n        /* \"#utility.yul\":1707:1929   */\n    tag_27:\n        /* \"#utility.yul\":1800:1804   */\n      0x00\n        /* \"#utility.yul\":1838:1840   */\n      0x20\n        /* \"#utility.yul\":1827:1836   */\n      dup3\n        /* \"#utility.yul\":1823:1841   */\n      add\n        /* \"#utility.yul\":1815:1841   */\n      swap1\n      pop\n        /* \"#utility.yul\":1851:1922   */\n      tag_83\n        /* \"#utility.yul\":1919:1920   */\n      0x00\n        /* \"#utility.yul\":1908:1917   */\n      dup4\n        /* \"#utility.yul\":1904:1921   */\n      add\n        /* \"#utility.yul\":1895:1901   */\n      dup5\n        /* \"#utility.yul\":1851:1922   */\n      tag_60\n      jump\t// in\n    tag_83:\n        /* \"#utility.yul\":1707:1929   */\n      swap3\n      swap2\n      pop\n      pop\n      jump\t// out\n        /* \"#utility.yul\":1935:2115   */\n    tag_61:\n        /* \"#utility.yul\":1983:2060   */\n      0x4e487b7100000000000000000000000000000000000000000000000000000000\n        /* \"#utility.yul\":1980:1981   */\n      0x00\n        /* \"#utility.yul\":1973:2061   */\n      mstore\n        /* \"#utility.yul\":2080:2084   */\n      0x22\n        /* \"#utility.yul\":2077:2078   */\n      0x04\n        /* \"#utility.yul\":2070:2085   */\n      mstore\n        /* \"#utility.yul\":2104:2108   */\n      0x24\n        /* \"#utility.yul\":2101:2102   */\n      0x00\n        /* \"#utility.yul\":2094:2109   */\n      revert\n        /* \"#utility.yul\":2121:2441   */\n    tag_35:\n        /* \"#utility.yul\":2165:2171   */\n      0x00\n        /* \"#utility.yul\":2202:2203   */\n      0x02\n        /* \"#utility.yul\":2196:2200   */\n      dup3\n        /* \"#utility.yul\":2192:2204   */\n      div\n        /* \"#utility.yul\":2182:2204   */\n      swap1\n      pop\n        /* \"#utility.yul\":2249:2250   */\n      0x01\n        /* \"#utility.yul\":2243:2247   */\n      dup3\n        /* \"#utility.yul\":2239:2251   */\n      and\n        /* \"#utility.yul\":2270:2288   */\n      dup1\n        /* \"#utility.yul\":2260:2341   */\n      tag_86\n      jumpi\n        /* \"#utility.yul\":2326:2330   */\n      0x7f\n        /* \"#utility.yul\":2318:2324   */\n      dup3\n        /* \"#utility.yul\":2314:2331   */\n      and\n        /* \"#utility.yul\":2304:2331   */\n      swap2\n      pop\n        /* \"#utility.yul\":2260:2341   */\n    tag_86:\n        /* \"#utility.yul\":2388:2390   */\n      0x20\n        /* \"#utility.yul\":2380:2386   */\n      dup3\n        /* \"#utility.yul\":2377:2391   */\n      lt\n        /* \"#utility.yul\":2357:2375   */\n      dup2\n        /* \"#utility.yul\":2354:2392   */\n      sub\n        /* \"#utility.yul\":2351:2435   */\n      tag_87\n      jumpi\n        /* \"#utility.yul\":2407:2425   */\n      tag_88\n      tag_61\n      jump\t// in\n    tag_88:\n        /* \"#utility.yul\":2351:2435   */\n    tag_87:\n        /* \"#utility.yul\":2172:2441   */\n      pop\n        /* \"#utility.yul\":2121:2441   */\n      swap2\n      swap1\n      pop\n      jump\t// out\n    stop\n    data_39ffeae11580fdc5a442e8a6ecb3af2892fc22cc5b96ffd833fa7648dcf56fa1 50726f64756374206d616e756661637475726564206279206d616e7566616374757265722e\n\n    auxdata: 0xa264697066735822122041a304406e61a28202e0f765442b1aaa4599c11c757dd21edd394170af64204864736f6c63430008120033\n}\n",
				"bytecode": {
					"linkReferences": {},
					"object": "60806040523480156200001157600080fd5b5060405162000bcd38038062000bcd83398181016040528101906200003791906200024d565b8183336000806101000a81548173ffffffffffffffffffffffffffffffffffffffff021916908373ffffffffffffffffffffffffffffffffffffffff16021790555080600190816200008a919062000551565b505080600290816200009d919062000551565b50508060039081620000b0919062000551565b5050505062000638565b6000604051905090565b600080fd5b600080fd5b600080fd5b600080fd5b6000601f19601f8301169050919050565b7f4e487b7100000000000000000000000000000000000000000000000000000000600052604160045260246000fd5b6200012382620000d8565b810181811067ffffffffffffffff82111715620001455762000144620000e9565b5b80604052505050565b60006200015a620000ba565b905062000168828262000118565b919050565b600067ffffffffffffffff8211156200018b576200018a620000e9565b5b6200019682620000d8565b9050602081019050919050565b60005b83811015620001c3578082015181840152602081019050620001a6565b60008484015250505050565b6000620001e6620001e0846200016d565b6200014e565b905082815260208101848484011115620002055762000204620000d3565b5b62000212848285620001a3565b509392505050565b600082601f830112620002325762000231620000ce565b5b815162000244848260208601620001cf565b91505092915050565b600080600060608486031215620002695762000268620000c4565b5b600084015167ffffffffffffffff8111156200028a5762000289620000c9565b5b62000298868287016200021a565b935050602084015167ffffffffffffffff811115620002bc57620002bb620000c9565b5b620002ca868287016200021a565b925050604084015167ffffffffffffffff811115620002ee57620002ed620000c9565b5b620002fc868287016200021a565b9150509250925092565b600081519050919050565b7f4e487b7100000000000000000000000000000000000000000000000000000000600052602260045260246000fd5b600060028204905060018216806200035957607f821691505b6020821081036200036f576200036e62000311565b5b50919050565b60008190508160005260206000209050919050565b60006020601f8301049050919050565b600082821b905092915050565b600060088302620003d97fffffffffffffffffffffffffffffffffffffffffffffffffffffffffffffffff826200039a565b620003e586836200039a565b95508019841693508086168417925050509392505050565b6000819050919050565b6000819050919050565b6000620004326200042c6200042684620003fd565b62000407565b620003fd565b9050919050565b6000819050919050565b6200044e8362000411565b620004666200045d8262000439565b848454620003a7565b825550505050565b600090565b6200047d6200046e565b6200048a81848462000443565b505050565b5b81811015620004b257620004a660008262000473565b60018101905062000490565b5050565b601f8211156200050157620004cb8162000375565b620004d6846200038a565b81016020851015620004e6578190505b620004fe620004f5856200038a565b8301826200048f565b50505b505050565b600082821c905092915050565b6000620005266000198460080262000506565b1980831691505092915050565b600062000541838362000513565b9150826002028217905092915050565b6200055c8262000306565b67ffffffffffffffff811115620005785762000577620000e9565b5b62000584825462000340565b62000591828285620004b6565b600060209050601f831160018114620005c95760008415620005b4578287015190505b620005c0858262000533565b86555062000630565b601f198416620005d98662000375565b60005b828110156200060357848901518255600182019150602085019450602081019050620005dc565b868310156200062357848901516200061f601f89168262000513565b8355505b6001600288020188555050505b505050505050565b61058580620006486000396000f3fe608060405234801561001057600080fd5b506004361061007d5760003560e01c80637f7650eb1161005b5780637f7650eb146100dc5780638da5cb5b146100fa578063d9e6afcb14610118578063f5c609e0146101365761007d565b806305116bb0146100825780631aa3f350146100a05780636566d450146100be575b600080fd5b61008a610154565b604051610097919061044c565b60405180910390f35b6100a86101e2565b6040516100b5919061044c565b60405180910390f35b6100c661021f565b6040516100d3919061044c565b60405180910390f35b6100e461023f565b6040516100f1919061044c565b60405180910390f35b6101026102cd565b60405161010f91906104af565b60405180910390f35b6101206102f1565b60405161012d919061044c565b60405180910390f35b61013e61037f565b60405161014b919061044c565b60405180910390f35b60018054610161906104f9565b80601f016020809104026020016040519081016040528092919081815260200182805461018d906104f9565b80156101da5780601f106101af576101008083540402835291602001916101da565b820191906000526020600020905b8154815290600101906020018083116101bd57829003601f168201915b505050505081565b60606040518060400160405280601081526020017f50726f6475637420747261636b65642e00000000000000000000000000000000815250905090565b606060405180606001604052806025815260200161052b60259139905090565b6003805461024c906104f9565b80601f0160208091040260200160405190810160405280929190818152602001828054610278906104f9565b80156102c55780601f1061029a576101008083540402835291602001916102c5565b820191906000526020600020905b8154815290600101906020018083116102a857829003601f168201915b505050505081565b60008054906101000a900473ffffffffffffffffffffffffffffffffffffffff1681565b600280546102fe906104f9565b80601f016020809104026020016040519081016040528092919081815260200182805461032a906104f9565b80156103775780601f1061034c57610100808354040283529160200191610377565b820191906000526020600020905b81548152906001019060200180831161035a57829003601f168201915b505050505081565b60606040518060400160405280601b81526020017f4f7264657220706c61636564207769746820737570706c6965722e0000000000815250905090565b600081519050919050565b600082825260208201905092915050565b60005b838110156103f65780820151818401526020810190506103db565b60008484015250505050565b6000601f19601f8301169050919050565b600061041e826103bc565b61042881856103c7565b93506104388185602086016103d8565b61044181610402565b840191505092915050565b600060208201905081810360008301526104668184610413565b905092915050565b600073ffffffffffffffffffffffffffffffffffffffff82169050919050565b60006104998261046e565b9050919050565b6104a98161048e565b82525050565b60006020820190506104c460008301846104a0565b92915050565b7f4e487b7100000000000000000000000000000000000000000000000000000000600052602260045260246000fd5b6000600282049050600182168061051157607f821691505b602082108103610524576105236104ca565b5b5091905056fe50726f64756374206d616e756661637475726564206279206d616e7566616374757265722ea264697066735822122041a304406e61a28202e0f765442b1aaa4599c11c757dd21edd394170af64204864736f6c63430008120033",
					"opcodes": "PUSH1 0x80 PUSH1 0x40 MSTORE CALLVALUE DUP1 ISZERO PUSH3 0x11 JUMPI PUSH1 0x0 DUP1 REVERT JUMPDEST POP PUSH1 0x40 MLOAD PUSH3 0xBCD CODESIZE SUB DUP1 PUSH3 0xBCD DUP4 CODECOPY DUP2 DUP2 ADD PUSH1 0x40 MSTORE DUP2 ADD SWAP1 PUSH3 0x37 SWAP2 SWAP1 PUSH3 0x24D JUMP JUMPDEST DUP2 DUP4 CALLER PUSH1 0x0 DUP1 PUSH2 0x100 EXP DUP2 SLOAD DUP2 PUSH20 0xFFFFFFFFFFFFFFFFFFFFFFFFFFFFFFFFFFFFFFFF MUL NOT AND SWAP1 DUP4 PUSH20 0xFFFFFFFFFFFFFFFFFFFFFFFFFFFFFFFFFFFFFFFF AND MUL OR SWAP1 SSTORE POP DUP1 PUSH1 0x1 SWAP1 DUP2 PUSH3 0x8A SWAP2 SWAP1 PUSH3 0x551 JUMP JUMPDEST POP POP DUP1 PUSH1 0x2 SWAP1 DUP2 PUSH3 0x9D SWAP2 SWAP1 PUSH3 0x551 JUMP JUMPDEST POP POP DUP1 PUSH1 0x3 SWAP1 DUP2 PUSH3 0xB0 SWAP2 SWAP1 PUSH3 0x551 JUMP JUMPDEST POP POP POP POP PUSH3 0x638 JUMP JUMPDEST PUSH1 0x0 PUSH1 0x40 MLOAD SWAP1 POP SWAP1 JUMP JUMPDEST PUSH1 0x0 DUP1 REVERT JUMPDEST PUSH1 0x0 DUP1 REVERT JUMPDEST PUSH1 0x0 DUP1 REVERT JUMPDEST PUSH1 0x0 DUP1 REVERT JUMPDEST PUSH1 0x0 PUSH1 0x1F NOT PUSH1 0x1F DUP4 ADD AND SWAP1 POP SWAP2 SWAP1 POP JUMP JUMPDEST PUSH32 0x4E487B7100000000000000000000000000000000000000000000000000000000 PUSH1 0x0 MSTORE PUSH1 0x41 PUSH1 0x4 MSTORE PUSH1 0x24 PUSH1 0x0 REVERT JUMPDEST PUSH3 0x123 DUP3 PUSH3 0xD8 JUMP JUMPDEST DUP2 ADD DUP2 DUP2 LT PUSH8 0xFFFFFFFFFFFFFFFF DUP3 GT OR ISZERO PUSH3 0x145 JUMPI PUSH3 0x144 PUSH3 0xE9 JUMP JUMPDEST JUMPDEST DUP1 PUSH1 0x40 MSTORE POP POP POP JUMP JUMPDEST PUSH1 0x0 PUSH3 0x15A PUSH3 0xBA JUMP JUMPDEST SWAP1 POP PUSH3 0x168 DUP3 DUP3 PUSH3 0x118 JUMP JUMPDEST SWAP2 SWAP1 POP JUMP JUMPDEST PUSH1 0x0 PUSH8 0xFFFFFFFFFFFFFFFF DUP3 GT ISZERO PUSH3 0x18B JUMPI PUSH3 0x18A PUSH3 0xE9 JUMP JUMPDEST JUMPDEST PUSH3 0x196 DUP3 PUSH3 0xD8 JUMP JUMPDEST SWAP1 POP PUSH1 0x20 DUP2 ADD SWAP1 POP SWAP2 SWAP1 POP JUMP JUMPDEST PUSH1 0x0 JUMPDEST DUP4 DUP2 LT ISZERO PUSH3 0x1C3 JUMPI DUP1 DUP3 ADD MLOAD DUP2 DUP5 ADD MSTORE PUSH1 0x20 DUP2 ADD SWAP1 POP PUSH3 0x1A6 JUMP JUMPDEST PUSH1 0x0 DUP5 DUP5 ADD MSTORE POP POP POP POP JUMP JUMPDEST PUSH1 0x0 PUSH3 0x1E6 PUSH3 0x1E0 DUP5 PUSH3 0x16D JUMP JUMPDEST PUSH3 0x14E JUMP JUMPDEST SWAP1 POP DUP3 DUP2 MSTORE PUSH1 0x20 DUP2 ADD DUP5 DUP5 DUP5 ADD GT ISZERO PUSH3 0x205 JUMPI PUSH3 0x204 PUSH3 0xD3 JUMP JUMPDEST JUMPDEST PUSH3 0x212 DUP5 DUP3 DUP6 PUSH3 0x1A3 JUMP JUMPDEST POP SWAP4 SWAP3 POP POP POP JUMP JUMPDEST PUSH1 0x0 DUP3 PUSH1 0x1F DUP4 ADD SLT PUSH3 0x232 JUMPI PUSH3 0x231 PUSH3 0xCE JUMP JUMPDEST JUMPDEST DUP2 MLOAD PUSH3 0x244 DUP5 DUP3 PUSH1 0x20 DUP7 ADD PUSH3 0x1CF JUMP JUMPDEST SWAP2 POP POP SWAP3 SWAP2 POP POP JUMP JUMPDEST PUSH1 0x0 DUP1 PUSH1 0x0 PUSH1 0x60 DUP5 DUP7 SUB SLT ISZERO PUSH3 0x269 JUMPI PUSH3 0x268 PUSH3 0xC4 JUMP JUMPDEST JUMPDEST PUSH1 0x0 DUP5 ADD MLOAD PUSH8 0xFFFFFFFFFFFFFFFF DUP2 GT ISZERO PUSH3 0x28A JUMPI PUSH3 0x289 PUSH3 0xC9 JUMP JUMPDEST JUMPDEST PUSH3 0x298 DUP7 DUP3 DUP8 ADD PUSH3 0x21A JUMP JUMPDEST SWAP4 POP POP PUSH1 0x20 DUP5 ADD MLOAD PUSH8 0xFFFFFFFFFFFFFFFF DUP2 GT ISZERO PUSH3 0x2BC JUMPI PUSH3 0x2BB PUSH3 0xC9 JUMP JUMPDEST JUMPDEST PUSH3 0x2CA DUP7 DUP3 DUP8 ADD PUSH3 0x21A JUMP JUMPDEST SWAP3 POP POP PUSH1 0x40 DUP5 ADD MLOAD PUSH8 0xFFFFFFFFFFFFFFFF DUP2 GT ISZERO PUSH3 0x2EE JUMPI PUSH3 0x2ED PUSH3 0xC9 JUMP JUMPDEST JUMPDEST PUSH3 0x2FC DUP7 DUP3 DUP8 ADD PUSH3 0x21A JUMP JUMPDEST SWAP2 POP POP SWAP3 POP SWAP3 POP SWAP3 JUMP JUMPDEST PUSH1 0x0 DUP2 MLOAD SWAP1 POP SWAP2 SWAP1 POP JUMP JUMPDEST PUSH32 0x4E487B7100000000000000000000000000000000000000000000000000000000 PUSH1 0x0 MSTORE PUSH1 0x22 PUSH1 0x4 MSTORE PUSH1 0x24 PUSH1 0x0 REVERT JUMPDEST PUSH1 0x0 PUSH1 0x2 DUP3 DIV SWAP1 POP PUSH1 0x1 DUP3 AND DUP1 PUSH3 0x359 JUMPI PUSH1 0x7F DUP3 AND SWAP2 POP JUMPDEST PUSH1 0x20 DUP3 LT DUP2 SUB PUSH3 0x36F JUMPI PUSH3 0x36E PUSH3 0x311 JUMP JUMPDEST JUMPDEST POP SWAP2 SWAP1 POP JUMP JUMPDEST PUSH1 0x0 DUP2 SWAP1 POP DUP2 PUSH1 0x0 MSTORE PUSH1 0x20 PUSH1 0x0 KECCAK256 SWAP1 POP SWAP2 SWAP1 POP JUMP JUMPDEST PUSH1 0x0 PUSH1 0x20 PUSH1 0x1F DUP4 ADD DIV SWAP1 POP SWAP2 SWAP1 POP JUMP JUMPDEST PUSH1 0x0 DUP3 DUP3 SHL SWAP1 POP SWAP3 SWAP2 POP POP JUMP JUMPDEST PUSH1 0x0 PUSH1 0x8 DUP4 MUL PUSH3 0x3D9 PUSH32 0xFFFFFFFFFFFFFFFFFFFFFFFFFFFFFFFFFFFFFFFFFFFFFFFFFFFFFFFFFFFFFFFF DUP3 PUSH3 0x39A JUMP JUMPDEST PUSH3 0x3E5 DUP7 DUP4 PUSH3 0x39A JUMP JUMPDEST SWAP6 POP DUP1 NOT DUP5 AND SWAP4 POP DUP1 DUP7 AND DUP5 OR SWAP3 POP POP POP SWAP4 SWAP3 POP POP POP JUMP JUMPDEST PUSH1 0x0 DUP2 SWAP1 POP SWAP2 SWAP1 POP JUMP JUMPDEST PUSH1 0x0 DUP2 SWAP1 POP SWAP2 SWAP1 POP JUMP JUMPDEST PUSH1 0x0 PUSH3 0x432 PUSH3 0x42C PUSH3 0x426 DUP5 PUSH3 0x3FD JUMP JUMPDEST PUSH3 0x407 JUMP JUMPDEST PUSH3 0x3FD JUMP JUMPDEST SWAP1 POP SWAP2 SWAP1 POP JUMP JUMPDEST PUSH1 0x0 DUP2 SWAP1 POP SWAP2 SWAP1 POP JUMP JUMPDEST PUSH3 0x44E DUP4 PUSH3 0x411 JUMP JUMPDEST PUSH3 0x466 PUSH3 0x45D DUP3 PUSH3 0x439 JUMP JUMPDEST DUP5 DUP5 SLOAD PUSH3 0x3A7 JUMP JUMPDEST DUP3 SSTORE POP POP POP POP JUMP JUMPDEST PUSH1 0x0 SWAP1 JUMP JUMPDEST PUSH3 0x47D PUSH3 0x46E JUMP JUMPDEST PUSH3 0x48A DUP2 DUP5 DUP5 PUSH3 0x443 JUMP JUMPDEST POP POP POP JUMP JUMPDEST JUMPDEST DUP2 DUP2 LT ISZERO PUSH3 0x4B2 JUMPI PUSH3 0x4A6 PUSH1 0x0 DUP3 PUSH3 0x473 JUMP JUMPDEST PUSH1 0x1 DUP2 ADD SWAP1 POP PUSH3 0x490 JUMP JUMPDEST POP POP JUMP JUMPDEST PUSH1 0x1F DUP3 GT ISZERO PUSH3 0x501 JUMPI PUSH3 0x4CB DUP2 PUSH3 0x375 JUMP JUMPDEST PUSH3 0x4D6 DUP5 PUSH3 0x38A JUMP JUMPDEST DUP2 ADD PUSH1 0x20 DUP6 LT ISZERO PUSH3 0x4E6 JUMPI DUP2 SWAP1 POP JUMPDEST PUSH3 0x4FE PUSH3 0x4F5 DUP6 PUSH3 0x38A JUMP JUMPDEST DUP4 ADD DUP3 PUSH3 0x48F JUMP JUMPDEST POP POP JUMPDEST POP POP POP JUMP JUMPDEST PUSH1 0x0 DUP3 DUP3 SHR SWAP1 POP SWAP3 SWAP2 POP POP JUMP JUMPDEST PUSH1 0x0 PUSH3 0x526 PUSH1 0x0 NOT DUP5 PUSH1 0x8 MUL PUSH3 0x506 JUMP JUMPDEST NOT DUP1 DUP4 AND SWAP2 POP POP SWAP3 SWAP2 POP POP JUMP JUMPDEST PUSH1 0x0 PUSH3 0x541 DUP4 DUP4 PUSH3 0x513 JUMP JUMPDEST SWAP2 POP DUP3 PUSH1 0x2 MUL DUP3 OR SWAP1 POP SWAP3 SWAP2 POP POP JUMP JUMPDEST PUSH3 0x55C DUP3 PUSH3 0x306 JUMP JUMPDEST PUSH8 0xFFFFFFFFFFFFFFFF DUP2 GT ISZERO PUSH3 0x578 JUMPI PUSH3 0x577 PUSH3 0xE9 JUMP JUMPDEST JUMPDEST PUSH3 0x584 DUP3 SLOAD PUSH3 0x340 JUMP JUMPDEST PUSH3 0x591 DUP3 DUP3 DUP6 PUSH3 0x4B6 JUMP JUMPDEST PUSH1 0x0 PUSH1 0x20 SWAP1 POP PUSH1 0x1F DUP4 GT PUSH1 0x1 DUP2 EQ PUSH3 0x5C9 JUMPI PUSH1 0x0 DUP5 ISZERO PUSH3 0x5B4 JUMPI DUP3 DUP8 ADD MLOAD SWAP1 POP JUMPDEST PUSH3 0x5C0 DUP6 DUP3 PUSH3 0x533 JUMP JUMPDEST DUP7 SSTORE POP PUSH3 0x630 JUMP JUMPDEST PUSH1 0x1F NOT DUP5 AND PUSH3 0x5D9 DUP7 PUSH3 0x375 JUMP JUMPDEST PUSH1 0x0 JUMPDEST DUP3 DUP2 LT ISZERO PUSH3 0x603 JUMPI DUP5 DUP10 ADD MLOAD DUP3 SSTORE PUSH1 0x1 DUP3 ADD SWAP2 POP PUSH1 0x20 DUP6 ADD SWAP5 POP PUSH1 0x20 DUP2 ADD SWAP1 POP PUSH3 0x5DC JUMP JUMPDEST DUP7 DUP4 LT ISZERO PUSH3 0x623 JUMPI DUP5 DUP10 ADD MLOAD PUSH3 0x61F PUSH1 0x1F DUP10 AND DUP3 PUSH3 0x513 JUMP JUMPDEST DUP4 SSTORE POP JUMPDEST PUSH1 0x1 PUSH1 0x2 DUP9 MUL ADD DUP9 SSTORE POP POP POP JUMPDEST POP POP POP POP POP POP JUMP JUMPDEST PUSH2 0x585 DUP1 PUSH3 0x648 PUSH1 0x0 CODECOPY PUSH1 0x0 RETURN INVALID PUSH1 0x80 PUSH1 0x40 MSTORE CALLVALUE DUP1 ISZERO PUSH2 0x10 JUMPI PUSH1 0x0 DUP1 REVERT JUMPDEST POP PUSH1 0x4 CALLDATASIZE LT PUSH2 0x7D JUMPI PUSH1 0x0 CALLDATALOAD PUSH1 0xE0 SHR DUP1 PUSH4 0x7F7650EB GT PUSH2 0x5B JUMPI DUP1 PUSH4 0x7F7650EB EQ PUSH2 0xDC JUMPI DUP1 PUSH4 0x8DA5CB5B EQ PUSH2 0xFA JUMPI DUP1 PUSH4 0xD9E6AFCB EQ PUSH2 0x118 JUMPI DUP1 PUSH4 0xF5C609E0 EQ PUSH2 0x136 JUMPI PUSH2 0x7D JUMP JUMPDEST DUP1 PUSH4 0x5116BB0 EQ PUSH2 0x82 JUMPI DUP1 PUSH4 0x1AA3F350 EQ PUSH2 0xA0 JUMPI DUP1 PUSH4 0x6566D450 EQ PUSH2 0xBE JUMPI JUMPDEST PUSH1 0x0 DUP1 REVERT JUMPDEST PUSH2 0x8A PUSH2 0x154 JUMP JUMPDEST PUSH1 0x40 MLOAD PUSH2 0x97 SWAP2 SWAP1 PUSH2 0x44C JUMP JUMPDEST PUSH1 0x40 MLOAD DUP1 SWAP2 SUB SWAP1 RETURN JUMPDEST PUSH2 0xA8 PUSH2 0x1E2 JUMP JUMPDEST PUSH1 0x40 MLOAD PUSH2 0xB5 SWAP2 SWAP1 PUSH2 0x44C JUMP JUMPDEST PUSH1 0x40 MLOAD DUP1 SWAP2 SUB SWAP1 RETURN JUMPDEST PUSH2 0xC6 PUSH2 0x21F JUMP JUMPDEST PUSH1 0x40 MLOAD PUSH2 0xD3 SWAP2 SWAP1 PUSH2 0x44C JUMP JUMPDEST PUSH1 0x40 MLOAD DUP1 SWAP2 SUB SWAP1 RETURN JUMPDEST PUSH2 0xE4 PUSH2 0x23F JUMP JUMPDEST PUSH1 0x40 MLOAD PUSH2 0xF1 SWAP2 SWAP1 PUSH2 0x44C JUMP JUMPDEST PUSH1 0x40 MLOAD DUP1 SWAP2 SUB SWAP1 RETURN JUMPDEST PUSH2 0x102 PUSH2 0x2CD JUMP JUMPDEST PUSH1 0x40 MLOAD PUSH2 0x10F SWAP2 SWAP1 PUSH2 0x4AF JUMP JUMPDEST PUSH1 0x40 MLOAD DUP1 SWAP2 SUB SWAP1 RETURN JUMPDEST PUSH2 0x120 PUSH2 0x2F1 JUMP JUMPDEST PUSH1 0x40 MLOAD PUSH2 0x12D SWAP2 SWAP1 PUSH2 0x44C JUMP JUMPDEST PUSH1 0x40 MLOAD DUP1 SWAP2 SUB SWAP1 RETURN JUMPDEST PUSH2 0x13E PUSH2 0x37F JUMP JUMPDEST PUSH1 0x40 MLOAD PUSH2 0x14B SWAP2 SWAP1 PUSH2 0x44C JUMP JUMPDEST PUSH1 0x40 MLOAD DUP1 SWAP2 SUB SWAP1 RETURN JUMPDEST PUSH1 0x1 DUP1 SLOAD PUSH2 0x161 SWAP1 PUSH2 0x4F9 JUMP JUMPDEST DUP1 PUSH1 0x1F ADD PUSH1 0x20 DUP1 SWAP2 DIV MUL PUSH1 0x20 ADD PUSH1 0x40 MLOAD SWAP1 DUP2 ADD PUSH1 0x40 MSTORE DUP1 SWAP3 SWAP2 SWAP1 DUP2 DUP2 MSTORE PUSH1 0x20 ADD DUP3 DUP1 SLOAD PUSH2 0x18D SWAP1 PUSH2 0x4F9 JUMP JUMPDEST DUP1 ISZERO PUSH2 0x1DA JUMPI DUP1 PUSH1 0x1F LT PUSH2 0x1AF JUMPI PUSH2 0x100 DUP1 DUP4 SLOAD DIV MUL DUP4 MSTORE SWAP2 PUSH1 0x20 ADD SWAP2 PUSH2 0x1DA JUMP JUMPDEST DUP3 ADD SWAP2 SWAP1 PUSH1 0x0 MSTORE PUSH1 0x20 PUSH1 0x0 KECCAK256 SWAP1 JUMPDEST DUP2 SLOAD DUP2 MSTORE SWAP1 PUSH1 0x1 ADD SWAP1 PUSH1 0x20 ADD DUP1 DUP4 GT PUSH2 0x1BD JUMPI DUP3 SWAP1 SUB PUSH1 0x1F AND DUP3 ADD SWAP2 JUMPDEST POP POP POP POP POP DUP2 JUMP JUMPDEST PUSH1 0x60 PUSH1 0x40 MLOAD DUP1 PUSH1 0x40 ADD PUSH1 0x40 MSTORE DUP1 PUSH1 0x10 DUP2 MSTORE PUSH1 0x20 ADD PUSH32 0x50726F6475637420747261636B65642E00000000000000000000000000000000 DUP2 MSTORE POP SWAP1 POP SWAP1 JUMP JUMPDEST PUSH1 0x60 PUSH1 0x40 MLOAD DUP1 PUSH1 0x60 ADD PUSH1 0x40 MSTORE DUP1 PUSH1 0x25 DUP2 MSTORE PUSH1 0x20 ADD PUSH2 0x52B PUSH1 0x25 SWAP2 CODECOPY SWAP1 POP SWAP1 JUMP JUMPDEST PUSH1 0x3 DUP1 SLOAD PUSH2 0x24C SWAP1 PUSH2 0x4F9 JUMP JUMPDEST DUP1 PUSH1 0x1F ADD PUSH1 0x20 DUP1 SWAP2 DIV MUL PUSH1 0x20 ADD PUSH1 0x40 MLOAD SWAP1 DUP2 ADD PUSH1 0x40 MSTORE DUP1 SWAP3 SWAP2 SWAP1 DUP2 DUP2 MSTORE PUSH1 0x20 ADD DUP3 DUP1 SLOAD PUSH2 0x278 SWAP1 PUSH2 0x4F9 JUMP JUMPDEST DUP1 ISZERO PUSH2 0x2C5 JUMPI DUP1 PUSH1 0x1F LT PUSH2 0x29A JUMPI PUSH2 0x100 DUP1 DUP4 SLOAD DIV MUL DUP4 MSTORE SWAP2 PUSH1 0x20 ADD SWAP2 PUSH2 0x2C5 JUMP JUMPDEST DUP3 ADD SWAP2 SWAP1 PUSH1 0x0 MSTORE PUSH1 0x20 PUSH1 0x0 KECCAK256 SWAP1 JUMPDEST DUP2 SLOAD DUP2 MSTORE SWAP1 PUSH1 0x1 ADD SWAP1 PUSH1 0x20 ADD DUP1 DUP4 GT PUSH2 0x2A8 JUMPI DUP3 SWAP1 SUB PUSH1 0x1F AND DUP3 ADD SWAP2 JUMPDEST POP POP POP POP POP DUP2 JUMP JUMPDEST PUSH1 0x0 DUP1 SLOAD SWAP1 PUSH2 0x100 EXP SWAP1 DIV PUSH20 0xFFFFFFFFFFFFFFFFFFFFFFFFFFFFFFFFFFFFFFFF AND DUP2 JUMP JUMPDEST PUSH1 0x2 DUP1 SLOAD PUSH2 0x2FE SWAP1 PUSH2 0x4F9 JUMP JUMPDEST DUP1 PUSH1 0x1F ADD PUSH1 0x20 DUP1 SWAP2 DIV MUL PUSH1 0x20 ADD PUSH1 0x40 MLOAD SWAP1 DUP2 ADD PUSH1 0x40 MSTORE DUP1 SWAP3 SWAP2 SWAP1 DUP2 DUP2 MSTORE PUSH1 0x20 ADD DUP3 DUP1 SLOAD PUSH2 0x32A SWAP1 PUSH2 0x4F9 JUMP JUMPDEST DUP1 ISZERO PUSH2 0x377 JUMPI DUP1 PUSH1 0x1F LT PUSH2 0x34C JUMPI PUSH2 0x100 DUP1 DUP4 SLOAD DIV MUL DUP4 MSTORE SWAP2 PUSH1 0x20 ADD SWAP2 PUSH2 0x377 JUMP JUMPDEST DUP3 ADD SWAP2 SWAP1 PUSH1 0x0 MSTORE PUSH1 0x20 PUSH1 0x0 KECCAK256 SWAP1 JUMPDEST DUP2 SLOAD DUP2 MSTORE SWAP1 PUSH1 0x1 ADD SWAP1 PUSH1 0x20 ADD DUP1 DUP4 GT PUSH2 0x35A JUMPI DUP3 SWAP1 SUB PUSH1 0x1F AND DUP3 ADD SWAP2 JUMPDEST POP POP POP POP POP DUP2 JUMP JUMPDEST PUSH1 0x60 PUSH1 0x40 MLOAD DUP1 PUSH1 0x40 ADD PUSH1 0x40 MSTORE DUP1 PUSH1 0x1B DUP2 MSTORE PUSH1 0x20 ADD PUSH32 0x4F7264657220706C61636564207769746820737570706C6965722E0000000000 DUP2 MSTORE POP SWAP1 POP SWAP1 JUMP JUMPDEST PUSH1 0x0 DUP2 MLOAD SWAP1 POP SWAP2 SWAP1 POP JUMP JUMPDEST PUSH1 0x0 DUP3 DUP3 MSTORE PUSH1 0x20 DUP3 ADD SWAP1 POP SWAP3 SWAP2 POP POP JUMP JUMPDEST PUSH1 0x0 JUMPDEST DUP4 DUP2 LT ISZERO PUSH2 0x3F6 JUMPI DUP1 DUP3 ADD MLOAD DUP2 DUP5 ADD MSTORE PUSH1 0x20 DUP2 ADD SWAP1 POP PUSH2 0x3DB JUMP JUMPDEST PUSH1 0x0 DUP5 DUP5 ADD MSTORE POP POP POP POP JUMP JUMPDEST PUSH1 0x0 PUSH1 0x1F NOT PUSH1 0x1F DUP4 ADD AND SWAP1 POP SWAP2 SWAP1 POP JUMP JUMPDEST PUSH1 0x0 PUSH2 0x41E DUP3 PUSH2 0x3BC JUMP JUMPDEST PUSH2 0x428 DUP2 DUP6 PUSH2 0x3C7 JUMP JUMPDEST SWAP4 POP PUSH2 0x438 DUP2 DUP6 PUSH1 0x20 DUP7 ADD PUSH2 0x3D8 JUMP JUMPDEST PUSH2 0x441 DUP2 PUSH2 0x402 JUMP JUMPDEST DUP5 ADD SWAP2 POP POP SWAP3 SWAP2 POP POP JUMP JUMPDEST PUSH1 0x0 PUSH1 0x20 DUP3 ADD SWAP1 POP DUP2 DUP2 SUB PUSH1 0x0 DUP4 ADD MSTORE PUSH2 0x466 DUP2 DUP5 PUSH2 0x413 JUMP JUMPDEST SWAP1 POP SWAP3 SWAP2 POP POP JUMP JUMPDEST PUSH1 0x0 PUSH20 0xFFFFFFFFFFFFFFFFFFFFFFFFFFFFFFFFFFFFFFFF DUP3 AND SWAP1 POP SWAP2 SWAP1 POP JUMP JUMPDEST PUSH1 0x0 PUSH2 0x499 DUP3 PUSH2 0x46E JUMP JUMPDEST SWAP1 POP SWAP2 SWAP1 POP JUMP JUMPDEST PUSH2 0x4A9 DUP2 PUSH2 0x48E JUMP JUMPDEST DUP3 MSTORE POP POP JUMP JUMPDEST PUSH1 0x0 PUSH1 0x20 DUP3 ADD SWAP1 POP PUSH2 0x4C4 PUSH1 0x0 DUP4 ADD DUP5 PUSH2 0x4A0 JUMP JUMPDEST SWAP3 SWAP2 POP POP JUMP JUMPDEST PUSH32 0x4E487B7100000000000000000000000000000000000000000000000000000000 PUSH1 0x0 MSTORE PUSH1 0x22 PUSH1 0x4 MSTORE PUSH1 0x24 PUSH1 0x0 REVERT JUMPDEST PUSH1 0x0 PUSH1 0x2 DUP3 DIV SWAP1 POP PUSH1 0x1 DUP3 AND DUP1 PUSH2 0x511 JUMPI PUSH1 0x7F DUP3 AND SWAP2 POP JUMPDEST PUSH1 0x20 DUP3 LT DUP2 SUB PUSH2 0x524 JUMPI PUSH2 0x523 PUSH2 0x4CA JUMP JUMPDEST JUMPDEST POP SWAP2 SWAP1 POP JUMP INVALID POP PUSH19 0x6F64756374206D616E75666163747572656420 PUSH3 0x79206D PUSH2 0x6E75 PUSH7 0x61637475726572 0x2E LOG2 PUSH5 0x6970667358 0x22 SLT KECCAK256 COINBASE LOG3 DIV BLOCKHASH PUSH15 0x61A28202E0F765442B1AAA4599C11C PUSH22 0x7DD21EDD394170AF64204864736F6C63430008120033 "
				},
				"gasEstimates": {
					"creation": {
						"codeDepositCost": "282600",
						"executionCost": "infinite",
						"totalCost": "infinite"
					},
					"external": {
						"manufactureProduct()": "infinite",
						"manufacturerName()": "infinite",
						"owner()": "2533",
						"placeOrder()": "infinite",
						"productName()": "infinite",
						"supplierName()": "infinite",
						"trackProduct()": "infinite"
					}
				},
				"methodIdentifiers": {
					"manufactureProduct()": "6566d450",
					"manufacturerName()": "d9e6afcb",
					"owner()": "8da5cb5b",
					"placeOrder()": "f5c609e0",
					"productName()": "7f7650eb",
					"supplierName()": "05116bb0",
					"trackProduct()": "1aa3f350"
				}
			},
			"storageLayout": {
				"storage": [
					{
						"astId": 3,
						"contract": "lab 16-08-2023/Task5.sol:Product",
						"label": "owner",
						"offset": 0,
						"slot": "0",
						"type": "t_address"
					},
					{
						"astId": 17,
						"contract": "lab 16-08-2023/Task5.sol:Product",
						"label": "supplierName",
						"offset": 0,
						"slot": "1",
						"type": "t_string_storage"
					},
					{
						"astId": 40,
						"contract": "lab 16-08-2023/Task5.sol:Product",
						"label": "manufacturerName",
						"offset": 0,
						"slot": "2",
						"type": "t_string_storage"
					},
					{
						"astId": 65,
						"contract": "lab 16-08-2023/Task5.sol:Product",
						"label": "productName",
						"offset": 0,
						"slot": "3",
						"type": "t_string_storage"
					}
				],
				"types": {
					"t_address": {
						"encoding": "inplace",
						"label": "address",
						"numberOfBytes": "20"
					},
					"t_string_storage": {
						"encoding": "bytes",
						"label": "string",
						"numberOfBytes": "32"
					}
				}
			},
			"userdoc": {
				"kind": "user",
				"methods": {},
				"version": 1
			}
		}
	}
}