{
	"data": {
		"bytecode": {
			"linkReferences": {},
			"object": "60806040526001600060016101000a81548160ff0219169083600381111561002a5761002961006c565b5b02179055506003600060026101000a81548160ff021916908360038111156100555761005461006c565b5b021790555034801561006657600080fd5b5061009b565b7f4e487b7100000000000000000000000000000000000000000000000000000000600052602160045260246000fd5b610415806100aa6000396000f3fe608060405234801561001057600080fd5b506004361061007d5760003560e01c8063a2c2d6661161005b578063a2c2d666146100da578063a7a1ed72146100f8578063c2a2747b14610102578063d8325ca2146101205761007d565b80636e21966714610082578063723d71d4146100a057806381d01ed3146100bc575b600080fd5b61008a610140565b60405161009791906102d3565b60405180910390f35b6100ba60048036038101906100b59190610318565b610153565b005b6100c461017f565b6040516100d191906102d3565b60405180910390f35b6100e2610192565b6040516100ef919061038d565b60405180910390f35b6101006101a5565b005b61010a61020c565b60405161011791906102d3565b60405180910390f35b61012861021d565b604051610137939291906103a8565b60405180910390f35b600060029054906101000a900460ff1681565b806000806101000a81548160ff021916908360038111156101775761017661025c565b5b021790555050565b600060019054906101000a900460ff1681565b600060039054906101000a900460ff1681565b6003808111156101b8576101b761025c565b5b600060039054906101000a900460ff1660038111156101da576101d961025c565b5b0361020a5760008060036101000a81548160ff021916908360038111156102045761020361025c565b5b02179055505b565b60008054906101000a900460ff1681565b60008060008060009054906101000a900460ff16600060019054906101000a900460ff16600060029054906101000a900460ff16925092509250909192565b7f4e487b7100000000000000000000000000000000000000000000000000000000600052602160045260246000fd5b6004811061029c5761029b61025c565b5b50565b60008190506102ad8261028b565b919050565b60006102bd8261029f565b9050919050565b6102cd816102b2565b82525050565b60006020820190506102e860008301846102c4565b92915050565b600080fd5b6004811061030057600080fd5b50565b600081359050610312816102f3565b92915050565b60006020828403121561032e5761032d6102ee565b5b600061033c84828501610303565b91505092915050565b600481106103565761035561025c565b5b50565b600081905061036782610345565b919050565b600061037782610359565b9050919050565b6103878161036c565b82525050565b60006020820190506103a2600083018461037e565b92915050565b60006060820190506103bd60008301866102c4565b6103ca60208301856102c4565b6103d760408301846102c4565b94935050505056fea2646970667358221220f3395cfe821cd484a4f5284648a4ef2d30495af522c3615157c6d553b5171f3264736f6c63430008120033",
			"opcodes": "PUSH1 0x80 PUSH1 0x40 MSTORE PUSH1 0x1 PUSH1 0x0 PUSH1 0x1 PUSH2 0x100 EXP DUP2 SLOAD DUP2 PUSH1 0xFF MUL NOT AND SWAP1 DUP4 PUSH1 0x3 DUP2 GT ISZERO PUSH2 0x2A JUMPI PUSH2 0x29 PUSH2 0x6C JUMP JUMPDEST JUMPDEST MUL OR SWAP1 SSTORE POP PUSH1 0x3 PUSH1 0x0 PUSH1 0x2 PUSH2 0x100 EXP DUP2 SLOAD DUP2 PUSH1 0xFF MUL NOT AND SWAP1 DUP4 PUSH1 0x3 DUP2 GT ISZERO PUSH2 0x55 JUMPI PUSH2 0x54 PUSH2 0x6C JUMP JUMPDEST JUMPDEST MUL OR SWAP1 SSTORE POP CALLVALUE DUP1 ISZERO PUSH2 0x66 JUMPI PUSH1 0x0 DUP1 REVERT JUMPDEST POP PUSH2 0x9B JUMP JUMPDEST PUSH32 0x4E487B7100000000000000000000000000000000000000000000000000000000 PUSH1 0x0 MSTORE PUSH1 0x21 PUSH1 0x4 MSTORE PUSH1 0x24 PUSH1 0x0 REVERT JUMPDEST PUSH2 0x415 DUP1 PUSH2 0xAA PUSH1 0x0 CODECOPY PUSH1 0x0 RETURN INVALID PUSH1 0x80 PUSH1 0x40 MSTORE CALLVALUE DUP1 ISZERO PUSH2 0x10 JUMPI PUSH1 0x0 DUP1 REVERT JUMPDEST POP PUSH1 0x4 CALLDATASIZE LT PUSH2 0x7D JUMPI PUSH1 0x0 CALLDATALOAD PUSH1 0xE0 SHR DUP1 PUSH4 0xA2C2D666 GT PUSH2 0x5B JUMPI DUP1 PUSH4 0xA2C2D666 EQ PUSH2 0xDA JUMPI DUP1 PUSH4 0xA7A1ED72 EQ PUSH2 0xF8 JUMPI DUP1 PUSH4 0xC2A2747B EQ PUSH2 0x102 JUMPI DUP1 PUSH4 0xD8325CA2 EQ PUSH2 0x120 JUMPI PUSH2 0x7D JUMP JUMPDEST DUP1 PUSH4 0x6E219667 EQ PUSH2 0x82 JUMPI DUP1 PUSH4 0x723D71D4 EQ PUSH2 0xA0 JUMPI DUP1 PUSH4 0x81D01ED3 EQ PUSH2 0xBC JUMPI JUMPDEST PUSH1 0x0 DUP1 REVERT JUMPDEST PUSH2 0x8A PUSH2 0x140 JUMP JUMPDEST PUSH1 0x40 MLOAD PUSH2 0x97 SWAP2 SWAP1 PUSH2 0x2D3 JUMP JUMPDEST PUSH1 0x40 MLOAD DUP1 SWAP2 SUB SWAP1 RETURN JUMPDEST PUSH2 0xBA PUSH1 0x4 DUP1 CALLDATASIZE SUB DUP2 ADD SWAP1 PUSH2 0xB5 SWAP2 SWAP1 PUSH2 0x318 JUMP JUMPDEST PUSH2 0x153 JUMP JUMPDEST STOP JUMPDEST PUSH2 0xC4 PUSH2 0x17F JUMP JUMPDEST PUSH1 0x40 MLOAD PUSH2 0xD1 SWAP2 SWAP1 PUSH2 0x2D3 JUMP JUMPDEST PUSH1 0x40 MLOAD DUP1 SWAP2 SUB SWAP1 RETURN JUMPDEST PUSH2 0xE2 PUSH2 0x192 JUMP JUMPDEST PUSH1 0x40 MLOAD PUSH2 0xEF SWAP2 SWAP1 PUSH2 0x38D JUMP JUMPDEST PUSH1 0x40 MLOAD DUP1 SWAP2 SUB SWAP1 RETURN JUMPDEST PUSH2 0x100 PUSH2 0x1A5 JUMP JUMPDEST STOP JUMPDEST PUSH2 0x10A PUSH2 0x20C JUMP JUMPDEST PUSH1 0x40 MLOAD PUSH2 0x117 SWAP2 SWAP1 PUSH2 0x2D3 JUMP JUMPDEST PUSH1 0x40 MLOAD DUP1 SWAP2 SUB SWAP1 RETURN JUMPDEST PUSH2 0x128 PUSH2 0x21D JUMP JUMPDEST PUSH1 0x40 MLOAD PUSH2 0x137 SWAP4 SWAP3 SWAP2 SWAP1 PUSH2 0x3A8 JUMP JUMPDEST PUSH1 0x40 MLOAD DUP1 SWAP2 SUB SWAP1 RETURN JUMPDEST PUSH1 0x0 PUSH1 0x2 SWAP1 SLOAD SWAP1 PUSH2 0x100 EXP SWAP1 DIV PUSH1 0xFF AND DUP2 JUMP JUMPDEST DUP1 PUSH1 0x0 DUP1 PUSH2 0x100 EXP DUP2 SLOAD DUP2 PUSH1 0xFF MUL NOT AND SWAP1 DUP4 PUSH1 0x3 DUP2 GT ISZERO PUSH2 0x177 JUMPI PUSH2 0x176 PUSH2 0x25C JUMP JUMPDEST JUMPDEST MUL OR SWAP1 SSTORE POP POP JUMP JUMPDEST PUSH1 0x0 PUSH1 0x1 SWAP1 SLOAD SWAP1 PUSH2 0x100 EXP SWAP1 DIV PUSH1 0xFF AND DUP2 JUMP JUMPDEST PUSH1 0x0 PUSH1 0x3 SWAP1 SLOAD SWAP1 PUSH2 0x100 EXP SWAP1 DIV PUSH1 0xFF AND DUP2 JUMP JUMPDEST PUSH1 0x3 DUP1 DUP2 GT ISZERO PUSH2 0x1B8 JUMPI PUSH2 0x1B7 PUSH2 0x25C JUMP JUMPDEST JUMPDEST PUSH1 0x0 PUSH1 0x3 SWAP1 SLOAD SWAP1 PUSH2 0x100 EXP SWAP1 DIV PUSH1 0xFF AND PUSH1 0x3 DUP2 GT ISZERO PUSH2 0x1DA JUMPI PUSH2 0x1D9 PUSH2 0x25C JUMP JUMPDEST JUMPDEST SUB PUSH2 0x20A JUMPI PUSH1 0x0 DUP1 PUSH1 0x3 PUSH2 0x100 EXP DUP2 SLOAD DUP2 PUSH1 0xFF MUL NOT AND SWAP1 DUP4 PUSH1 0x3 DUP2 GT ISZERO PUSH2 0x204 JUMPI PUSH2 0x203 PUSH2 0x25C JUMP JUMPDEST JUMPDEST MUL OR SWAP1 SSTORE POP JUMPDEST JUMP JUMPDEST PUSH1 0x0 DUP1 SLOAD SWAP1 PUSH2 0x100 EXP SWAP1 DIV PUSH1 0xFF AND DUP2 JUMP JUMPDEST PUSH1 0x0 DUP1 PUSH1 0x0 DUP1 PUSH1 0x0 SWAP1 SLOAD SWAP1 PUSH2 0x100 EXP SWAP1 DIV PUSH1 0xFF AND PUSH1 0x0 PUSH1 0x1 SWAP1 SLOAD SWAP1 PUSH2 0x100 EXP SWAP1 DIV PUSH1 0xFF AND PUSH1 0x0 PUSH1 0x2 SWAP1 SLOAD SWAP1 PUSH2 0x100 EXP SWAP1 DIV PUSH1 0xFF AND SWAP3 POP SWAP3 POP SWAP3 POP SWAP1 SWAP2 SWAP3 JUMP JUMPDEST PUSH32 0x4E487B7100000000000000000000000000000000000000000000000000000000 PUSH1 0x0 MSTORE PUSH1 0x21 PUSH1 0x4 MSTORE PUSH1 0x24 PUSH1 0x0 REVERT JUMPDEST PUSH1 0x4 DUP2 LT PUSH2 0x29C JUMPI PUSH2 0x29B PUSH2 0x25C JUMP JUMPDEST JUMPDEST POP JUMP JUMPDEST PUSH1 0x0 DUP2 SWAP1 POP PUSH2 0x2AD DUP3 PUSH2 0x28B JUMP JUMPDEST SWAP2 SWAP1 POP JUMP JUMPDEST PUSH1 0x0 PUSH2 0x2BD DUP3 PUSH2 0x29F JUMP JUMPDEST SWAP1 POP SWAP2 SWAP1 POP JUMP JUMPDEST PUSH2 0x2CD DUP2 PUSH2 0x2B2 JUMP JUMPDEST DUP3 MSTORE POP POP JUMP JUMPDEST PUSH1 0x0 PUSH1 0x20 DUP3 ADD SWAP1 POP PUSH2 0x2E8 PUSH1 0x0 DUP4 ADD DUP5 PUSH2 0x2C4 JUMP JUMPDEST SWAP3 SWAP2 POP POP JUMP JUMPDEST PUSH1 0x0 DUP1 REVERT JUMPDEST PUSH1 0x4 DUP2 LT PUSH2 0x300 JUMPI PUSH1 0x0 DUP1 REVERT JUMPDEST POP JUMP JUMPDEST PUSH1 0x0 DUP2 CALLDATALOAD SWAP1 POP PUSH2 0x312 DUP2 PUSH2 0x2F3 JUMP JUMPDEST SWAP3 SWAP2 POP POP JUMP JUMPDEST PUSH1 0x0 PUSH1 0x20 DUP3 DUP5 SUB SLT ISZERO PUSH2 0x32E JUMPI PUSH2 0x32D PUSH2 0x2EE JUMP JUMPDEST JUMPDEST PUSH1 0x0 PUSH2 0x33C DUP5 DUP3 DUP6 ADD PUSH2 0x303 JUMP JUMPDEST SWAP2 POP POP SWAP3 SWAP2 POP POP JUMP JUMPDEST PUSH1 0x4 DUP2 LT PUSH2 0x356 JUMPI PUSH2 0x355 PUSH2 0x25C JUMP JUMPDEST JUMPDEST POP JUMP JUMPDEST PUSH1 0x0 DUP2 SWAP1 POP PUSH2 0x367 DUP3 PUSH2 0x345 JUMP JUMPDEST SWAP2 SWAP1 POP JUMP JUMPDEST PUSH1 0x0 PUSH2 0x377 DUP3 PUSH2 0x359 JUMP JUMPDEST SWAP1 POP SWAP2 SWAP1 POP JUMP JUMPDEST PUSH2 0x387 DUP2 PUSH2 0x36C JUMP JUMPDEST DUP3 MSTORE POP POP JUMP JUMPDEST PUSH1 0x0 PUSH1 0x20 DUP3 ADD SWAP1 POP PUSH2 0x3A2 PUSH1 0x0 DUP4 ADD DUP5 PUSH2 0x37E JUMP JUMPDEST SWAP3 SWAP2 POP POP JUMP JUMPDEST PUSH1 0x0 PUSH1 0x60 DUP3 ADD SWAP1 POP PUSH2 0x3BD PUSH1 0x0 DUP4 ADD DUP7 PUSH2 0x2C4 JUMP JUMPDEST PUSH2 0x3CA PUSH1 0x20 DUP4 ADD DUP6 PUSH2 0x2C4 JUMP JUMPDEST PUSH2 0x3D7 PUSH1 0x40 DUP4 ADD DUP5 PUSH2 0x2C4 JUMP JUMPDEST SWAP5 SWAP4 POP POP POP POP JUMP INVALID LOG2 PUSH5 0x6970667358 0x22 SLT KECCAK256 RETURN CODECOPY 0x5C INVALID DUP3 SHR 0xD4 DUP5 LOG4 CREATE2 0x28 CHAINID BASEFEE LOG4 0xEF 0x2D ADDRESS 0x49 GAS CREATE2 0x22 0xC3 PUSH2 0x5157 0xC6 0xD5 MSTORE8 0xB5 OR 0x1F ORIGIN PUSH5 0x736F6C6343 STOP ADDMOD SLT STOP CALLER "
		},
		"gasEstimates": {
			"creation": {
				"codeDepositCost": "209000",
				"executionCost": "48937",
				"totalCost": "257937"
			},
			"external": {
				"e1()": "2610",
				"p1()": "2601",
				"p2()": "2655",
				"p3()": "2611",
				"pass()": "26764",
				"setter(uint8)": "24673",
				"singlegetter()": "infinite"
			}
		},
		"methodIdentifiers": {
			"e1()": "a2c2d666",
			"p1()": "c2a2747b",
			"p2()": "81d01ed3",
			"p3()": "6e219667",
			"pass()": "a7a1ed72",
			"setter(uint8)": "723d71d4",
			"singlegetter()": "d8325ca2"
		}
	},
	"abi": [
		{
			"inputs": [],
			"name": "e1",
			"outputs": [
				{
					"internalType": "enum PizzaDeli.Exam",
					"name": "",
					"type": "uint8"
				}
			],
			"stateMutability": "view",
			"type": "function"
		},
		{
			"inputs": [],
			"name": "p1",
			"outputs": [
				{
					"internalType": "enum PizzaDeli.PizzaOrder",
					"name": "",
					"type": "uint8"
				}
			],
			"stateMutability": "view",
			"type": "function"
		},
		{
			"inputs": [],
			"name": "p2",
			"outputs": [
				{
					"internalType": "enum PizzaDeli.PizzaOrder",
					"name": "",
					"type": "uint8"
				}
			],
			"stateMutability": "view",
			"type": "function"
		},
		{
			"inputs": [],
			"name": "p3",
			"outputs": [
				{
					"internalType": "enum PizzaDeli.PizzaOrder",
					"name": "",
					"type": "uint8"
				}
			],
			"stateMutability": "view",
			"type": "function"
		},
		{
			"inputs": [],
			"name": "pass",
			"outputs": [],
			"stateMutability": "nonpayable",
			"type": "function"
		},
		{
			"inputs": [
				{
					"internalType": "enum PizzaDeli.PizzaOrder",
					"name": "_p1",
					"type": "uint8"
				}
			],
			"name": "setter",
			"outputs": [],
			"stateMutability": "nonpayable",
			"type": "function"
		},
		{
			"inputs": [],
			"name": "singlegetter",
			"outputs": [
				{
					"internalType": "enum PizzaDeli.PizzaOrder",
					"name": "",
					"type": "uint8"
				},
				{
					"internalType": "enum PizzaDeli.PizzaOrder",
					"name": "",
					"type": "uint8"
				},
				{
					"internalType": "enum PizzaDeli.PizzaOrder",
					"name": "",
					"type": "uint8"
				}
			],
			"stateMutability": "view",
			"type": "function"
		}
	]
}